:020000040800F2
:100000000000012005440008B1410008B741000884
:10001000BD410008C3410008C941000800000000BC
:10002000000000000000000000000000A1CC00085B
:10003000CF41000800000000F1CE000801A5000833
:10004000554400085544000855440008554400082C
:10005000554400085544000855440008554400081C
:10006000554400085544000855440008DD41000887
:1000700055440008554400085544000855440008FC
:1000800055440008554400085544000855440008EC
:1000900055440008554400085544000855440008DC
:1000A00055440008554400085544000855440008CC
:1000B00055440008000000000000000055440008FE
:1000C00055440008554400085544000855440008AC
:1000D00055440008F1410008554400085544000803
:1000E00055440008554400080000000000000000CE
:1000F0000000000000000000000000000000000000
:1001000000000000554400080000000055440008AD
:1001100000000000000000001942000855440008DB
:10012000554400085544000855440008554400084B
:10013000554400080000000000000000000000001E
:1001400055440008554400085544000800000000CC
:100150002D4200084142000855440008554400085B
:1001600055440008554400085544000800000000AC
:10017000554400085544000800000000000000003D
:0C01800055440008554400085544000890
:1001900010B5054C237833B9044B13B10448AFF3C1
:1001A00000800123237010BD180200200000000011
:1001B000242D010808B5034B1BB103490348AFF3D5
:1001C000008008BD000000001C020020242D010852
:1001D000034613F8012B002AFBD1181A0138704787
:1001E00001F0FF01102A2BDB10F0070F08D010F8E8
:1001F000013B013A8B422DD010F0070F42B3F6D1EC
:10020000F0B441EA012141EA014122F007047FF004
:1002100000070023F0E80256083C85EA010586EA5B
:10022000010685FA47F5A3FA87F586FA47F6A5FA97
:1002300087F68EB9EED1F0BC01F0FF0102F00702A3
:1002400032B110F8013B013A83EA010313B1F8D14E
:100250000020704701387047002D06BF354603382F
:10026000073815F0010F07D1013015F4807F02BF68
:10027000013015F4C03F0130F0BC0138704700BFB9
:1002800081F0004102E000BF83F0004330B54FEA47
:1002900041044FEA430594EA050F08BF90EA020FB4
:1002A0001FBF54EA000C55EA020C7FEA645C7FEA47
:1002B000655C00F0E2804FEA5454D4EB5555B8BF6A
:1002C0006D420CDD2C4480EA020281EA030382EADB
:1002D000000083EA010180EA020281EA0303362D6D
:1002E00088BF30BD11F0004F4FEA01314FF4801C40
:1002F0004CEA113102D0404261EB410113F0004F52
:100300004FEA03334CEA133302D0524263EB430308
:1003100094EA050F00F0A780A4F10104D5F1200EA6
:100320000DDB02FA0EFC22FA05F2801841F1000101
:1003300003FA0EF2801843FA05F359410EE0A5F1D5
:1003400020050EF1200E012A03FA0EFC28BF4CF006
:10035000020C43FA05F3C01851EBE37101F00045BC
:1003600007D54FF0000EDCF1000C7EEB00006EEBC9
:100370000101B1F5801F1BD3B1F5001F0CD3490853
:100380005FEA30004FEA3C0C04F101044FEA4452AA
:1003900012F5800F80F09A80BCF1004F08BF5FEA31
:1003A000500C50F1000041EB045141EA050130BD11
:1003B0005FEA4C0C404141EB0101013C28BFB1F523
:1003C000801FE9D291F0000F04BF01460020B1FA6E
:1003D00081F308BF2033A3F10B03B3F120020CDA41
:1003E0000C3208DD02F1140CC2F10C0201FA0CF01F
:1003F00021FA02F10CE002F11402D8BFC2F1200C84
:1004000001FA02F120FA0CFCDCBF41EA0C01904039
:10041000E41AA2BF01EB0451294330BD6FEA040482
:100420001F3C1CDA0C340EDC04F11404C4F120026D
:1004300020FA04F001FA02F340EA030021FA04F37F
:1004400045EA030130BDC4F10C04C4F1200220FAD6
:1004500002F001FA04F340EA0300294630BD21FA14
:1004600004F0294630BD94F0000F83F4801306BFDA
:1004700081F480110134013D4EE77FEA645C18BFCE
:100480007FEA655C29D094EA050F08BF90EA020F65
:1004900005D054EA000C04BF1946104630BD91EA5D
:1004A000030F1EBF0021002030BD5FEA545C05D160
:1004B0004000494128BF41F0004130BD14F580049F
:1004C0003CBF01F5801130BD01F0004545F0FE4113
:1004D00041F470014FF0000030BD7FEA645C1ABF48
:1004E000194610467FEA655C1CBF0B46024650EA7F
:1004F000013406BF52EA033591EA030F41F40021AB
:1005000030BD00BF90F0000F04BF0021704730B530
:100510004FF4806404F132044FF000054FF0000105
:1005200050E700BF90F0000F04BF0021704730B5C6
:100530004FF4806404F1320410F0004548BF40429B
:100540004FF000013EE700BF42004FEAE2014FEAF0
:1005500031014FEA02701FBF12F07F4393F07F4FCB
:1005600081F06051704732F07F4208BF704793F0CE
:100570007F4F04BF41F40021704730B54FF46074E1
:1005800001F0004521F000411CE700BF50EA0102E4
:1005900008BF704730B54FF000050AE050EA01028D
:1005A00008BF704730B511F0004502D5404261EBFD
:1005B00041014FF4806404F132045FEA915C3FF43E
:1005C000D8AE4FF003025FEADC0C18BF03325FEADB
:1005D000DC0C18BF033202EBDC02C2F1200300FA8C
:1005E00003FC20FA02F001FA03FE40EA0E0021FAB1
:1005F00002F11444BDE600BF70B54FF0FF0C4CF49F
:10060000E06C1CEA11541DBF1CEA135594EA0C0F50
:1006100095EA0C0F00F0DEF82C4481EA030621EA8B
:100620004C5123EA4C5350EA013518BF52EA0335C6
:1006300041F4801143F4801338D0A0FB02CE4FF078
:100640000005E1FB02E506F00042E0FB03E54FF0A8
:100650000006E1FB03569CF0000F18BF4EF0010EA0
:10066000A4F1FF04B6F5007F64F5407404D25FEA9C
:100670004E0E6D4146EB060642EAC62141EA55514F
:100680004FEAC52040EA5E504FEACE2EB4F1FD0C91
:1006900088BFBCF5E06F1ED8BEF1004F08BF5FEA0F
:1006A000500E50F1000041EB045170BD06F00046C1
:1006B00046EA010140EA020081EA0301B4EB5C046E
:1006C000C2BFD4EB0C0541EA045170BD41F4801166
:1006D0004FF0000E013C00F3AB8014F1360FDEBF8B
:1006E000002001F0004170BDC4F10004203C35DA67
:1006F0000C341BDC04F11404C4F1200500FA05F3EA
:1007000020FA04F001FA05F240EA020001F000428A
:1007100021F0004110EBD37021FA04F642EB060100
:100720005EEA430E08BF20EAD37070BDC4F10C042A
:10073000C4F1200500FA04F320FA05F001FA04F2EE
:1007400040EA020001F0004110EBD37041F10001DA
:100750005EEA430E08BF20EAD37070BDC4F12005E5
:1007600000FA05F24EEA020E20FA04F301FA05F24D
:1007700043EA020321FA04F001F0004121FA04F2F5
:1007800020EA020000EBD3705EEA430E08BF20EAC5
:10079000D37070BD94F0000F0FD101F000464000FF
:1007A00041EB010111F4801F08BF013CF7D041EA81
:1007B000060195F0000F18BF704703F00046520085
:1007C00043EB030313F4801F08BF013DF7D043EA56
:1007D0000603704794EA0C0F0CEA135518BF95EA0C
:1007E0000C0F0CD050EA410618BF52EA4306D1D193
:1007F00081EA030101F000414FF0000070BD50EAB2
:10080000410606BF1046194652EA430619D094EA3B
:100810000C0F02D150EA013613D195EA0C0F05D125
:1008200052EA03361CBF104619460AD181EA030179
:1008300001F0004141F0FE4141F470014FF0000031
:1008400070BD41F0FE4141F4780170BD70B54FF0CC
:10085000FF0C4CF4E06C1CEA11541DBF1CEA13554C
:1008600094EA0C0F95EA0C0F00F0A7F8A4EB05042E
:1008700081EA030E52EA03354FEA013100F0888025
:100880004FEA03334FF0805545EA131343EA1263EE
:100890004FEA022245EA111545EA10654FEA0026A3
:1008A0000EF000419D4208BF964244F1FD0404F55C
:1008B000407402D25B084FEA3202B61A65EB0305B8
:1008C0005B084FEA32024FF480104FF4002CB6EB75
:1008D000020E75EB030E22BFB61A754640EA0C00F5
:1008E0005B084FEA3202B6EB020E75EB030E22BF35
:1008F000B61A754640EA5C005B084FEA3202B6EB76
:10090000020E75EB030E22BFB61A754640EA9C0034
:100910005B084FEA3202B6EB020E75EB030E22BF04
:10092000B61A754640EADC0055EA060E18D04FEAC2
:10093000051545EA16754FEA06164FEAC30343EA62
:1009400052734FEAC2025FEA1C1CC0D111F4801F2F
:100950000BD141EA00014FF000004FF0004CB6E728
:1009600011F4801F04BF01430020B4F1FD0C88BFC7
:10097000BCF5E06F3FF6AFAEB5EB030C04BFB6EBD2
:10098000020C5FEA500C50F1000041EB045170BDC5
:100990000EF0004E4EEA113114EB5C04C2BFD4EBF2
:1009A0000C0541EA045170BD41F480114FF0000E76
:1009B000013C90E645EA060E8DE60CEA135594EAF2
:1009C0000C0F08BF95EA0C0F3FF43BAF94EA0C0FF5
:1009D0000AD150EA01347FF434AF95EA0C0F7FF46A
:1009E00025AF104619462CE795EA0C0F06D152EABE
:1009F00003353FF4FDAE1046194622E750EA4106A2
:100A000018BF52EA43067FF4C5AE50EA41047FF4B2
:100A10000DAF52EA43057FF4EBAE12E74FF0FF3C17
:100A200006E000BF4FF0010C02E000BF4FF0010CE8
:100A30004DF804CD4FEA410C7FEA6C5C4FEA430C61
:100A400018BF7FEA6C5C1BD001B050EA410C0CBFB0
:100A500052EA430C91EA030F02BF90EA020F002012
:100A6000704710F1000F91EA030F58BF994208BF79
:100A700090422CBFD8176FEAE37040F00100704736
:100A80004FEA410C7FEA6C5C02D150EA013C07D18D
:100A90004FEA430C7FEA6C5CD6D152EA033CD3D0D8
:100AA0005DF8040B704700BF8446104662468C46D2
:100AB0001946634600E000BF01B5FFF7B7FF002805
:100AC00048BF10F1000F01BD4DF808EDFFF7F4FF2E
:100AD0000CBF012000205DF808FB00BF4DF808EDB9
:100AE000FFF7EAFF34BF012000205DF808FB00BFDC
:100AF0004DF808EDFFF7E0FF94BF012000205DF8FE
:100B000008FB00BF4DF808EDFFF7CEFF94BF0120B2
:100B100000205DF808FB00BF4DF808EDFFF7C4FFAB
:100B200034BF012000205DF808FB00BF4FEA410CF4
:100B30007FEA6C5C02D150EA013C0AD14FEA430CD7
:100B40007FEA6C5C02D152EA033C02D14FF0000014
:100B500070474FF0010070474FEA410212F5001252
:100B600015D211D56FF47873B3EB625212D94FEAF4
:100B7000C12343F0004343EA505311F0004F23FADE
:100B800002F018BF404270474FF00000704750EA33
:100B9000013005D111F0004008BF6FF000407047F0
:100BA0004FF00000704700BF4A0011D212F500124A
:100BB00011D20DD56FF47873B3EB62520ED44FEAB5
:100BC000C12343F0004343EA505323FA02F0704735
:100BD0004FF00000704750EA013002D14FF0FF3073
:100BE00070474FF0000070474FEA4102B2F1E04316
:100BF00024BFB3F5001CDCF1FE5C0DD901F0004C04
:100C00004FEAC0024CEA5070B2F1004F40EB830053
:100C100008BF20F00100704711F0804F21D113F17F
:100C20003872BCBF01F00040704741F480114FEAB8
:100C30005252C2F11802C2F1200C10FA0CF320FA41
:100C400002F018BF40F001004FEAC1234FEAD3235E
:100C500003FA0CFC40EA0C0023FA02F34FEA4303C8
:100C6000CCE77FEA625307D150EA01331EBF4FF051
:100C7000FE4040F44000704701F0004040F0FE406C
:100C800040F40000704700BF53B94AB9002908BFBB
:100C900000281CBF4FF0FF314FF0FF3000F0A4B927
:100CA000ADF1080C6DE904CE00F03CF8DDF804E08D
:100CB000DDE9022304B0704738B500220023044662
:100CC0000D46FFF70BFF28B920462946BDE83840FE
:100CD00000F00AB8204605F1004100F005F8404256
:100CE00061EB410138BD00BFD0B50C4B0022064678
:100CF0000F46FFF781FCFFF757FF0446FFF702FCA2
:100D0000074B0022FFF778FC02460B463046394677
:100D1000FFF7BAFAFFF748FF2146D0BD0000F03DCB
:100D20000000F0412DE9F047089D04468C46002B59
:100D300040F083808A42174647D9B2FA82F242B124
:100D4000C2F1200024FA00F09140974040EA010CE3
:100D500094404FEA1748230CBCFBF8F61FFA87FEB5
:100D600008FB16C143EA014306FB0EF1994209D97B
:100D7000FB1806F1FF3080F01981994240F216818C
:100D8000023E3B445B1AA4B2B3FBF8F008FB1033FD
:100D900044EA034400FB0EFEA64509D93C1900F1C4
:100DA000FF3380F00581A64540F2028102383C44C1
:100DB00040EA0640A4EB0E0400261DB1D4400023F7
:100DC000C5E900433146BDE8F08702B9FFDEB2FA5B
:100DD00082F2002A50D1CB1B4FEA174E1FFA87F838
:100DE0000126B3FBFEFC210C0EFB1C3341EA034140
:100DF00008FB0CF38B4207D979180CF1FF3002D2B3
:100E00008B4200F2E9808446C91AA3B2B1FBFEF01E
:100E10000EFB101143EA014408FB00F8A04507D976
:100E20003C1900F1FF3302D2A04500F2D9801846E8
:100E3000A4EB080440EA0C40BFE78B4209D9002D1F
:100E400000F0B1800026C5E9000130463146BDE81A
:100E5000F087B3FA83F6002E4AD18B4202D3824246
:100E600000F2B880841A61EB030101208C46002D4A
:100E7000A8D0C5E9004CA5E7C2F1200320FA03F68B
:100E8000974001FA02F04FEA174ED9403043030C65
:100E9000B1FBFEF61FFA87F80EFB161143EA014379
:100EA00006FB08F1994204FA02F409D9FB1806F18D
:100EB000FF3C80F08D80994240F28A80023E3B44A4
:100EC0005B1A81B2B3FBFEF00EFB103341EA034123
:100ED00000FB08F38B4207D9791800F1FF3C73D26D
:100EE0008B4271D902383944CB1A40EA064678E77A
:100EF000C6F1200C03FA06F422FA0CF31C4320FA84
:100F00000CF701FA06F34FEA144E21FA0CF11F43D5
:100F10003B0CB1FBFEF91FFA84F80EFB191143EAF2
:100F2000014109FB08FA8A4502FA06F200FA06F3C3
:100F300008D9611809F1FF3048D28A4546D9A9F18C
:100F400002092144A1EB0A01BFB2B1FBFEF00EFB86
:100F5000101147EA014700FB08F8B84507D9E7191F
:100F600000F1FF312ED2B8452CD90238274440EA8F
:100F70000940A7EB0807A0FB02894F45C646494632
:100F80001AD317D05DB1B3EB0E0267EB010707FA76
:100F90000CFCF2404CEA0202F740C5E900270026AB
:100FA0003146BDE8F0872E4628460BE70646E9E6BF
:100FB0001846FDE64345E5D2B8EB020E69EB0401A5
:100FC0000138DFE70846D2E760468DE78146B9E79A
:100FD000664675E730464AE7ACF1020C394413E740
:100FE00002383C4424E700BF704700BF80B400AF24
:100FF00000BFBD465DF8047B704780B400AF00239E
:101000001846BD465DF8047B704780B483B000AFDE
:101010007860396000BF0C37BD465DF8047B7047CF
:1010200080B500AF764B1B780D2B00F2E38001A258
:1010300052F823F06D100008771000089510000892
:10104000B3100008D3100008F110000811110008B7
:10105000311100083B1100085911000877110008F0
:1010600097110008B5110008D511000801F0DCF84F
:1010700001F06AF8C1E0634B9B6CB3F5616F04D972
:1010800001F0D2F801F060F8B7E001F09DF801F04E
:10109000CBF8B2E05B4B9B6CB3F5E15F04D901F098
:1010A000C3F801F051F8A8E001F08EF801F0BCF8A7
:1010B000A3E0544B9B6C42F63022934204D901F0DA
:1010C000B3F801F041F898E001F07EF801F0ACF8D7
:1010D00093E04C4B9B6CB3F5615F04D901F0A4F82D
:1010E00001F032F889E001F06FF801F09DF884E03A
:1010F000444B9B6C44F25062934204D901F094F843
:1011000001F022F879E001F05FF801F08DF874E069
:101110003C4B9B6C45F26042934204D901F084F849
:1011200001F012F869E001F04FF801F07DF864E099
:1011300001F07AF801F008F85FE0324B9B6CB3F5F0
:10114000616F04D901F070F800F0FEFF55E001F086
:101150003BF801F069F850E02A4B9B6CB3F5E15F76
:1011600004D901F061F800F0EFFF46E001F02CF83F
:1011700001F05AF841E0234B9B6C42F63022934237
:1011800004D901F051F800F0DFFF36E001F01CF85F
:1011900001F04AF831E01B4B9B6CB3F5615F04D959
:1011A00001F042F800F0D0FF27E001F00DF801F067
:1011B0003BF822E0134B9B6C44F25062934204D9FB
:1011C00001F032F800F0C0FF17E000F0FDFF01F081
:1011D0002BF812E00B4B9B6C45F26042934204D912
:1011E00001F022F800F0B0FF07E000F0EDFF01F0A1
:1011F0001BF802E001F018F800BF00BF80BD00BF7F
:1012000094590020745C002080B500AF504B1B68DF
:101210001B2B00F2938001A252F823F08D120008DC
:10122000E31200080713000807130008071300085B
:101230000713000807130008071300080713000826
:101240000713000807130008071300080713000816
:101250000713000807130008071300080713000806
:1012600013130008131300081313000813130008C6
:1012700013130008131300081313000813130008B6
:10128000131300081313000827130008314B1B68C1
:10129000B3F5BE7F08D9304B1B68002B04D12F4B10
:1012A00040F6C4121A600BE02B4B1B68012B07D1D0
:1012B0002A4B01221A602A4B9B6E0133284A9366FF
:1012C000264B1B68002B04D0244B1B68013B234A90
:1012D0001360224B1B68002B37D11D4B01221A6073
:1012E00033E0204B01221A6000F06EFF00F0B4FFE3
:1012F000174B02221A601A4BDB6A0133184AD36279
:1013000000F0B2FE22E0124B1B680133104A13605A
:101310001CE000F089FF0E4B1B6801330C4A136080
:1013200000F0DAFE12E00A4B00221A600D4B002298
:101330001A600A4B40F6C4121A6007E0044B002200
:101340001A60084B00221A6000E000BF00BF80BD99
:1013500004630020985900204C0200200C0000205B
:10136000205A00209861002080B500AF694B1B68AF
:10137000252B00F2C38001A252F823F015140008B7
:101380007B140008AD140008AD140008AD1400086B
:10139000AD140008AD140008AD140008AD14000829
:1013A000AD140008AD140008AD140008AD14000819
:1013B000AD140008AD140008AD140008AD14000809
:1013C000AD140008AD140008AD140008AD140008F9
:1013D000AD140008AD140008AD140008AD140008E9
:1013E000AD140008AD140008B9140008B9140008C1
:1013F000B9140008B9140008B9140008B914000899
:10140000B9140008B9140008B9140008B914000888
:10141000E3140008404B1B6843F2D302934203D805
:101420003E4B23221A600BE03B4B1B6844F2506298
:10143000934205D9394B00221A60394B01229A6335
:10144000384B1B68012B07D1344B01221A60364BF5
:101450009B6E0133344A9366304B1B68002B04D0DB
:101460002E4B1B68013B2D4A13602C4B1B68002B35
:101470004BD1284B01221A6047E02C4B01221A6005
:1014800000F0A2FE00F0E8FE224B11221A60244B6D
:101490009B6B002B02D01F4B02221A60224B5B6E0B
:1014A0000133214A536600F0DFFD31E0194B1B6820
:1014B0000133184A13602BE000F0B6FE00F044FE42
:1014C000144B1B680133134A136000F005FE124BE6
:1014D0001B6844F25062934219D90E4B01221A60E4
:1014E00015E00F4B00229A630A4B00221A600F4B43
:1014F00000221A60094B23221A6009E0054B0022E2
:101500001A600A4B00221A6002E000BF00E000BF30
:1015100000BF80BD04630020985900200C0000200B
:10152000BC5900204C020020205A00209861002065
:1015300084B080B588B000AF07F1280C8CE80F00AC
:1015400060237B60B7F87C30BB600023FB6008231E
:101550003B6100237B613B1D7A6F194607F1280030
:1015600006F0E0FE796F07F1280006F055FC00BF99
:101570002037BD46BDE8804004B0704784B080B5D8
:1015800088B000AF07F1280C8CE80F00B7F878306E
:10159000BB6060237B600023FB6000233B61002372
:1015A0007B610023BB610023FB613B1D7A6F194601
:1015B00007F1280006F0B6FE796F07F1280006F063
:1015C0002BFC00BF2037BD46BDE8804004B070470B
:1015D00080B500AF614B1B68002B1DD05F4B1B68B3
:1015E000013B5E4A136000224FF400415C4805F065
:1015F00007F900224FF48041594805F001F9002213
:101600004FF40051564805F0FBF800224FF480518A
:10161000534805F0F5F89FE0524B9B69502B03D8D7
:10162000504B5B69502B1DD94E4B9B69502B05D9F4
:1016300001224FF400414A4805F0E2F8494B5B694A
:10164000502B05D901224FF48041454805F0D8F8C8
:1016500001224FF40051424805F0D2F83F4B0122DD
:101660001A6079E0404B1B6A002B0FD001224FF427
:1016700000413B4805F0C4F801224FF4804138484E
:1016800005F0BEF8354B01221A6065E0364B1B6948
:10169000002B09D001224FF40041314805F0B0F889
:1016A0002E4B01221A6057E02F4BDB68002B1BD01A
:1016B0002E4B1B68002B0DD02D4B1B68002B09D027
:1016C00001224FF48041264805F09AF8234B01226D
:1016D0001A6041E001224FF48041214805F090F862
:1016E0001E4B03221A6037E01F4B9B68002B09D06A
:1016F00001224FF400411A4805F082F8174B0922E5
:101700001A6029E0184B5B68002B09D001224FF4C6
:101710000041134805F074F8104B01221A601BE0D9
:10172000114B1B68002B09D001224FF400410C48DB
:1017300005F066F8094B01221A600DE00A4BDB69DF
:10174000002B09D001224FF48041054805F058F8DC
:10175000024B09221A60FFE700BF80BDB859002084
:101760000004004898590020BC5900204402002081
:101770004002002080B483B000AF00237B600AE009
:101780007B68134A134413497A680A4412781A7022
:101790007B6801337B607B68272BF1D90C4B1B687E
:1017A000B3F1FF3F0DD100237B6007E07B68084A5F
:1017B000134400221A707B6801337B607B68272BFF
:1017C000F4D900BF0C37BD465DF8047B704700BFFD
:1017D0004C5C002000B0030880B588B000AF002347
:1017E000FB610023BB61264B1B68184609F05AF8C1
:1017F000244B1B680133234A136000237B600123C1
:101800003B617723FB600123BB6004F04FFC1E4B60
:10181000B3221A6107F114023B1D1146184604F069
:1018200037FD1FE0BB69194A13441946FB69DB0009
:10183000174A1344D3E90023002004F0CBFB0346EE
:10184000002B06D1BB690833BB61FB690133FB6127
:1018500008E00B4B1B686421184608F0F5FF04F004
:1018600057FC0AE0FB69042BDCD904F041FC044B73
:101870001B686421184608F0E7FF2037BD4680BD8D
:10188000905D0020205A00200020024000B0030894
:101890004C5C002080B584B000AF0023BB60002307
:1018A0007B603F4B00221A600023FB602FE0042383
:1018B0003B600DE03B68013B3B60BB681B02394964
:1018C000FA68D20211443A680A4412781343BB60A2
:1018D0003B68002BEED1BB68B3F1FF3F01D1002381
:1018E000BB60BA687B689A4209D92D4AFB681360CD
:1018F000BB687B604FF400512B4804F099FF4FF414
:101900008041294804F094FFFB680133FB60FB68C9
:10191000352BCCD900224FF48041234804F070FFCE
:1019200000224FF40051204804F06AFF0023FB60BE
:101930000EE01B4B1A68FB681C490B441949D20284
:101940001144FA680A4412781A70FB680133FB608C
:10195000FB68AF2BEDD9154BDB69B3F1FF3F13D11A
:101960000023FB600CE0FB68114A134400221A704C
:10197000FB680E4A134400221A70FB680133FB60B7
:10198000FB68AF2BEFD907E0094A084B1046194610
:10199000B0231A460BF07DFE00BF1037BD4680BD58
:1019A0009461002000000208000400480862002042
:1019B000205A002080B588B000AF0023FB610023CF
:1019C000BB61374B1B68184608F06CFF354A364B35
:1019D00010461946B0231A460BF05BFE334B1B68CA
:1019E000342B05D8314B1B680133304A136002E0B9
:1019F0002E4B00221A602C4B1B6801332A4A1360BD
:101A000000237B6001233B61284B1B684033FB6054
:101A10000123BB6004F04AFB254BB3221A6107F196
:101A200014023B1D1146184604F032FC04F060FB22
:101A300004F03CFB1E4BB3221A6123E01B4B1B68D6
:101A4000DA02BB6913441B4A13441946FB69DB00E5
:101A5000144A1344D3E90023002004F0BBFA0346E0
:101A6000002B06D1BB690833BB61FB690133FB6105
:101A700008E00B4B1B686421184608F0E5FE04F0F3
:101A800047FB0AE0FB69152BD8D904F031FB044B66
:101A90001B686421184608F0D7FE2037BD4680BD7C
:101AA000905D002008620020205A002094610020F0
:101AB000002002400000020880B586B000AF274B2E
:101AC0001B68184608F0EEFE00237B610CE07B6982
:101AD000234A134400221A707B69224A13440022CD
:101AE0001A707B6901337B617B69AF2BEFD91E4B89
:101AF00000221A6000233B600123FB601A4B1B6825
:101B00004033BB6001237B6004F0D0FA174BB32253
:101B10001A610FE007F110023B461146184604F027
:101B2000B7FB114B1B6801330F4A13600E4B1B6848
:101B30004033BB600C4B1B68342BEBD904F0D8FA54
:101B4000094B00221A60054B1B686421184608F0F7
:101B50007BFE00BF1837BD4680BD00BF905D0020F2
:101B6000205A0020086200209461002000200240DA
:101B700080B400AF924B1B68002B11D0904B002219
:101B80001A60904B1A68904BDB688F49496801FBDB
:101B900003F38E49A1FB03135B0B1344894A1360C3
:101BA000874B5B68002B11D0854B00225A60854B18
:101BB0005A68854BDB688449496801FB03F3834914
:101BC000A1FB03135B0B13447E4A53607C4B9B6861
:101BD000002B11D07A4B00229A607A4B9A687A4B8C
:101BE0009B687949096801FB03F37849A1FB03135A
:101BF0005B0B1344734A9360714BDB68002B11D06D
:101C00006F4B0022DA606F4BDA686F4BDB686E490E
:101C1000096801FB03F36D49A1FB03135B0B13443C
:101C2000684AD360664B1B69002B11D0644B0022BD
:101C30001A61644B1A69644BDB686349496801FBAC
:101C400003F36249A1FB03135B0B13445D4A136169
:101C50005B4BDB69002B07D0594B0022DA61594BF3
:101C6000DB690133574AD361554B1B6A002B07D000
:101C7000534B00221A62534B1B6A0133514A1362C1
:101C80004F4B9B69002B07D04D4B00229A614D4B67
:101C90009B6901334B4A9361494B9B6C002B07D0E6
:101CA000474B00229A64474B9B6C0133454A93642F
:101CB000434BDB6B002B09D0414B0022DA63444BD2
:101CC000D3F8A0300133424AC2F8A0303C4BDB6C61
:101CD000002B09D03A4B0022DA643A4BDA6C3A4BCB
:101CE0005B681344374AD364354B1B6D002B09D016
:101CF000334B00221A65334B1A6D334B1B68134468
:101D0000304A1365304B5A69314B5B6B9A4208D3AA
:101D10002D4B5B692E4A53632D4B9B6B01332C4A31
:101D20009363294B9A692A4BDB6B9A4208D3264B63
:101D30009B69274AD363264B1B6C0133244A1364E7
:101D4000214B1A68224B5B6C9A4208D31E4B1B68CE
:101D50001F4A53641E4B9B6C01331D4A93641A4BFC
:101D60005A681B4BDB6C9A4208D3174B5B68184AC6
:101D7000D364174B1B6D0133154A1365124BDA6898
:101D8000134B5B6D9A4208D30F4BDB68104A5365C7
:101D90000F4B9B6D01330E4A93650B4BDB68F02BA9
:101DA00027D90B4BDB6DF02B14D8074BDB68084AA7
:101DB000D365074B1B6E0133054A136619E000BF5C
:101DC000BC590020745C0020985900205917B7D1E5
:101DD000205A0020094BDA68094BDB6D9A4208D87B
:101DE000064BDB68064AD365054B1B6E0133044A7C
:101DF000136600BFBD465DF8047B7047985900200C
:101E0000205A002080B400AF414B1B68414AA2FB1E
:101E10000323DB0A404A53603F4B9A683C4B5B68A4
:101E20003C49A1FB0313DB0A13443B4A93603A4B42
:101E30009A69374B9B691344374A9361364BDA688A
:101E4000334B9B683349A1FB0313DB0A1344324A2B
:101E5000D360314B1A692E4BDB682E49A1FB03136B
:101E6000DB0A13442C4A13612B4B5A69284B1B691C
:101E70002849A1FB0313DB0A1344274A5361264B6D
:101E8000D3F89420224BDB6C2249A1FB0313DB0A1D
:101E90001344214AC2F894301F4BDA6F1C4B1B6D60
:101EA0001C49A1FB0313DB0A13441B4AD3671A4BDB
:101EB000DA69174BDB691344174AD361164B1A6A68
:101EC000134B1B6A1344144A1362114B0022DA6449
:101ED0000F4B00221A650E4B00221A600C4B002299
:101EE0005A600B4B00229A61094B00229A60084B02
:101EF0000022DA60064B00221A61054B0022DA61EB
:101F0000034B00221A6200BFBD465DF8047B704798
:101F1000745C0020C5B3A291205A002080B500AFA8
:101F200001211E4804F054FC03461A461C4B1A704B
:101F300010211C4804F04CFC03465B00DAB2184B3D
:101F40001B781344DAB2164B1A700221134804F0BE
:101F50003FFC03469B00DAB2114B1B781344DAB204
:101F60000F4B1A7020210F4804F032FC0346DB00AF
:101F7000DAB20B4B1B781344DAB2094B1A70084BD8
:101F80001B78DB43DAB2064B1A70054B1B7803F063
:101F90000F03DAB2024B1A7000BF80BD0004004884
:101FA000945900200008004880B582B000AF124B61
:101FB0001B68002B1BD1104B01221A60012210213B
:101FC0004FF0904004F01CFC0C490D480CF0CCFA8A
:101FD0000B48FEF7FDF878607B689BB21A4608490B
:101FE000084806F02DFF0A2008F081FB00E000BF42
:101FF0000837BD4680BD00BF48020020582D0108AB
:10200000945D0020C85B002080B582B000AF124B09
:102010001B68002B1BD0104B00221A6000221021DD
:102020004FF0904004F0ECFB0C490D480CF09CFA8A
:102030000B48FEF7CDF878607B689BB21A460849DA
:10204000084806F0FDFE642008F051FB00E000BFE8
:102050000837BD4680BD00BF48020020682D01083A
:10206000945D0020C85B0020F0B599B012AF184E07
:10207000C823109300230F936D4606F110040FCC74
:102080000FC50FCC0FC50FCC0FC594E8070085E82E
:10209000070096E80F00FFF771FA00210C4805F0E1
:1020A000BBFE3B1D00221A605A609A60DA601A611A
:1020B0004FF400737B600023BB600223FB603B1D79
:1020C0001946044804F00AFA00BF1C37BD46F0BDAB
:1020D000B862002000040048F0B599B012AF184E65
:1020E0000023109300230F936D4606F110040FCCCC
:1020F0000FC50FCC0FC50FCC0FC594E8070085E8BE
:10210000070096E80F00FFF739FA00210C4805F0A8
:1021100061FF3B1D00221A605A609A60DA601A6102
:102120004FF400737B600023BB600023FB603B1D0A
:102130001946044804F0D2F900BF1C37BD46F0BD73
:10214000B862002000040048F0B593B012AF1B4BFA
:102150009B69502B02D900F037F82BE0184B1B6815
:10216000002B26D1002240214FF0904004F048FB84
:10217000144E4FF4FA731193FE23109300230F9320
:102180006D4606F110040FCC0FC50FCC0FC50FCC58
:102190000FC594E8070085E8070096E80F00FFF7F1
:1021A000C7F90021074805F037FE054B01221A60E8
:1021B00000E000BF0437BD46F0BD00BF98590020C5
:1021C00040020020BC610020F0B593B012AF144E65
:1021D00000231193FE23109300230F936D4606F105
:1021E00010040FCC0FC50FCC0FC50FCC0FC594E852
:1021F000070085E8070096E80F00FFF799F901222C
:1022000040214FF0904004F0FBFA0021044805F013
:10221000E1FE044B00221A6000BF0437BD46F0BD4A
:10222000BC6100204002002080B500AF084B5B6914
:10223000502B02D900F010F808E0002280214FF066
:10224000904004F0DDFA034B01221A6000BF80BD0C
:10225000985900204402002080B500AF012280215F
:102260004FF0904004F0CCFA024B00221A6000BFFD
:1022700080BD00BF44020020B0B588B000AF7860D8
:102280007868FEF73FF902460B46C7E906239FED43
:10229000281B97ED060B0FF09BFD51EC100B28A3AC
:1022A000D3E90023FEF7A8F902460B4614461D4663
:1022B0009FED211B97ED060B0FF08AFD51EC100BE3
:1022C00021A3D3E90023FEF797F902460B462046E7
:1022D0002946FDF7DBFF02460B4614461D461CA3AC
:1022E000D3E90023D7E90601FEF786F902460B463B
:1022F00020462946FDF7C8FF02460B461046194600
:1023000015A3D3E90023FDF7C1FF02460B46C7E939
:102310000423D7E90401FEF747FC0346FB60FB6892
:102320000D3BFB60FB6818462037BD46B0BD00BFC3
:102330000000000000000840000000000000004015
:1023400085F743D694103EBE2D431CEBE2360A3F80
:10235000B459F5B9DA8ABD3FEC51B81E85EB5E4041
:1023600080B584B000AF78607B6807EE903AF8EEF5
:10237000677A9FED277A67EE877A9FED267AC7EE18
:10238000876A16EE900AFEF7DFF802460B46C7E9A9
:10239000022319A3D3E90023D7E90201FEF72CF9A0
:1023A00002460B46C7E9022315A3D3E90023D7E968
:1023B0000201FEF721F902460B46104619464FF07E
:1023C0000002154BFEF742FA02460B46C7E902230C
:1023D0000DA3D3E90023D7E90201FEF70DF9024668
:1023E0000B46C7E90223D7E90201FEF7DDFB0346EE
:1023F00018461037BD4680BD00000080EB510A40F2
:102400000000000000607E409A9999999999B93F1F
:102410000000C84200F07F4500003040000000008E
:1024200080B584B000AF78607868FEF76BF81EA3C3
:10243000D3E90023FEF7E0F802460B46C7E9022382
:102440004FF00002164BD7E90201FEF7FFF90246F2
:102450000B46C7E902234FF00002124BD7E90201F5
:10246000FDF714FF02460B46C7E902234FF00002B6
:102470004FF00003D7E90201FEF730FB0346002BC3
:1024800005D04FF000024FF00003C7E90223D7E95F
:102490000201FEF789FB034618461037BD4680BD92
:1024A00000408F40000039400000000000E0AD40D7
:1024B00080B586B000AF01F0CEFF00F043F800F029
:1024C0009BFA00F05FFA00F081F800F02BFA00F0C0
:1024D00057F900F0AFF93B1D00221A605A609A606C
:1024E000DA601A614FF400737B600023BB60002345
:1024F000FB603B1D19460C4803F0F0FF08F01AF88A
:102500000A4B002201210A4808F022F90346094A31
:102510001360094A0021094808F056F80346084AA2
:10252000136008F02BF8FEE700040048B0370108FC
:10253000993A0008905D00208C37010805350008A5
:102540009059002080B596B000AF07F114034422E3
:10255000002118460BF0ABF83B4600221A605A6087
:102560009A60DA601A614FF4007004F089F903464A
:10257000002B01D001F092FB01237B614FF48033EB
:10258000BB610023FB6307F11403184604F0CEF986
:102590000346002B01D001F081FB0F233B60022397
:1025A0007B600023BB600023FB6000233B613B4654
:1025B0000021184604F0CCFD0346002B01D001F0A9
:1025C0006DFB00BF5837BD4680BD000080B586B0AA
:1025D00000AF3B4600221A605A609A60DA601A61C6
:1025E0005A615D4B5D4A1A605B4B4FF480225A6022
:1025F000594B00229A60584B0022DA60564B012258
:102600001A61554B04225A61534B00221A76524BE1
:1026100000225A76504B0822DA614F4B002283F891
:1026200020204D4B00229A624B4B0022DA624A4B2B
:10263000012283F83020484B00225A63464B002287
:1026400083F83820444802F02DF90346002B01D0CE
:1026500001F024FB424B3B6006237B600123BB60FF
:102660007F23FB6004233B6100237B613B461946CB
:10267000394802F065FB0346002B01D001F00EFB48
:10268000384B3B600C237B603B461946324802F0D6
:1026900057FB0346002B01D001F000FB324B3B609F
:1026A00012237B600023BB603B4619462A4802F098
:1026B00047FB0346002B01D001F0F0FA2B4B3B60A7
:1026C00018237B603B461946234802F039FB03463A
:1026D000002B01D001F0E2FA254B3B604FF48073F0
:1026E0007B603B4619461C4802F02AFB0346002B40
:1026F00001D001F0D3FA1F4B3B604FF483737B6032
:102700003B461946144802F01BFB0346002B01D040
:1027100001F0C4FA184B3B604FF486737B603B4674
:1027200019460D4802F00CFB0346002B01D001F0C6
:10273000B5FA124B3B604FF489737B603B461946F8
:10274000054802F0FDFA0346002B01D001F0A6FA7D
:1027500000BF1837BD4680BD1C5B00200000045040
:1027600002003004040060080800900C1000C01043
:102770002000F014400020198000501D010000804E
:1027800080B58AB000AF07F11C0300221A605A60BE
:102790009A603B4600221A605A609A60DA601A61B9
:1027A0005A619A61224B4FF080421A60204B0122FD
:1027B0005A601F4B00229A601D4B4FF47A72DA6008
:1027C0001B4B4FF400721A61194B80229A61184812
:1027D00005F0CAFA0346002B01D001F05FFA00238E
:1027E000FB6100237B6207F11C031946104806F0C9
:1027F000DDF90346002B01D001F050FA60233B6065
:1028000000237B600023BB6000233B613B4600222A
:102810001946074805F086FD0346002B01D001F05C
:102820003DFA034801F044FB00BF2837BD4680BD98
:10283000BC61002080B592B000AF07F12C030022EC
:102840001A605A609A60DA601A615A619A613B466E
:102850002C22002118460AF02AFF304B304A1A6019
:102860002E4B01225A602D4B00229A602B4B4FF4C5
:10287000FA72DA60294B00221A61284B00225A6151
:10288000264B80229A61254805F0C2F90346002BA9
:1028900001D001F003FA214805F066FA0346002B47
:1028A00001D001F0FBF96023FB62FE233B630023B0
:1028B0007B630023BB630023FB6300233B64002393
:1028C0007B6407F12C0300221946144805F02AFD09
:1028D0000346002B01D001F0E1F900233B60002307
:1028E0007B600023BB600023FB6000233B614FF44F
:1028F00000537B610023BB623B461946074806F044
:10290000BBF90346002B01D001F0C8F9034801F0E0
:10291000CFFA00BF4837BD4680BD00BFB862002077
:102920000044014080B500AF144B154A1A60134BA8
:102930004FF4E1325A60114B00229A600F4B002293
:10294000DA600E4B00221A610C4B0C225A610B4BC1
:1029500000229A61094B4FF40042DA61074B0022D2
:102960001A62064B00225A62044806F01BFA03461C
:10297000002B01D001F092F900BF80BDC85B0020A0
:102980000038014080B582B000AF1A4B9B6C194AE9
:1029900043F001039364174B9B6C03F001037B60CE
:1029A0007B68144B9B6C134A43F002039364114BF6
:1029B0009B6C03F002033B603B68002205210B2067
:1029C00003F05CF80B2003F075F800220521442089
:1029D00003F054F8442003F06DF80022052145204F
:1029E00003F04CF8452003F065F800BF0837BD46FA
:1029F00080BD00BF0010024080B58AB000AF07F173
:102A0000140300221A605A609A60DA601A61424B1D
:102A1000DB6C414A43F08003D3643F4BDB6C03F033
:102A200080033B613B693C4BDB6C3B4A43F0040356
:102A3000D364394BDB6C03F00403FB60FB68364B5B
:102A4000DB6C354A43F00103D364334BDB6C03F09A
:102A50000103BB60BB68304BDB6C2F4A43F00203C1
:102A6000D3642D4BDB6C03F002037B607B68002298
:102A70004FF4E8714FF0904003F0C2FE00224FF493
:102A80007041264803F0BCFE4FF4E8737B610123DC
:102A9000BB610023FB6100233B6207F1140319466D
:102AA0004FF0904003F01AFD30237B610023BB619F
:102AB0000123FB6107F114031946194803F00EFDC9
:102AC00003237B610023BB610123FB6107F1140336
:102AD0001946124803F002FD4FF401737B61002395
:102AE000BB610223FB6107F1140319460B4803F095
:102AF000F5FC4FF470437B610123BB610023FB6154
:102B000000233B6207F114031946044803F0E6FC76
:102B100000BF2837BD4680BD0010024000040048B9
:102B20000008004880B58AB000AF78607B681B68F9
:102B3000DB6903F01003102B40F076818B4B1B6890
:102B400010221A628A4B1B780133DAB2884B1A7052
:102B50000023FB76874B1B883B837B681B6F1B68BE
:102B60005B689BB2C3F17F039AB2824B1A807F23CA
:102B7000FB84814B1B78012B19D87F4B1B78002BD2
:102B80000FD07C4B1B883A8B9A4207D3794B1A881B
:102B90003B8BD31A9BB27F33FB840AE08023FB84F8
:102BA00007E0744B1A883B8BD31AFB8401E0812326
:102BB000FB84FB8C002B00F01581FB8C7F2B00F23B
:102BC00011813B8B6D4AD35C662B04D03B8B6B4AE7
:102BD000D35C462B02D16A4B04221A603B8B674AB6
:102BE000D35C632B04D03B8B644AD35C432B02D170
:102BF000634B05221A603B8B604AD35C772B04D071
:102C00003B8B5E4AD35C572B02D15D4B03221A608B
:102C10003B8B5A4AD35C652B04D03B8B574AD35C21
:102C2000452B1ED1574B1B687B6100233B620CE098
:102C30003B6A544A134400221A703B6A524A1344B6
:102C400000221A703B6A01333B623B6AAF2BEFD91B
:102C50004C4A7B6913604C4A7B691360484B0422E1
:102C60001A603B8B454AD35C642B04D03B8B434AB0
:102C7000D35C442B04D1FEF71FFF414B04221A60A2
:102C80003B8B3E4AD35C702B04D03B8B3B4AD35CDE
:102C9000502B02D13A4B3E221A603B8B374AD35C11
:102CA0006C2B04D03B8B354AD35C4C2B04D1FEF704
:102CB00093FD334B3E221A603B8B304AD35C6B2B27
:102CC00004D03B8B2D4AD35C4B2B10D12C4B3E2296
:102CD0001A600023FB6107E0FB692C4A13440022C1
:102CE0001A70FB690133FB61FB69272BF4D93B8B1D
:102CF000224AD35C302B1DD1214B3E221A60244B3B
:102D00001B681846FFF78CFB38613B69B3F5FA7F07
:102D100009D23B691D4A53603B691A461D491E484A
:102D20000BF022FC06E01D4B1B681A461C491A4892
:102D30000BF01AFC3B8B114AD35C312B3BD1104B6F
:102D40003E221A60124B5B681846FFF769FBF86079
:102D5000FB68B3F5FA7F27D2FB680C4A9360FB68E7
:102D60001A4610490C480BF0FFFB24E0C85B00201A
:102D7000350200203602002034020020105D0020C1
:102D80005C020020205A0020086200204C5C0020D9
:102D90009C610020802D0108945D0020985900203E
:102DA000A02D0108C82D0108244B5B681A46244950
:102DB00024480BF0D9FB3B8B234AD35C682B09D00A
:102DC0003B8B214AD35C482B04D03B8B1E4AD35CFF
:102DD0003F2B24D11D4B3C221A601D4919480BF092
:102DE000C3FB1CE01B4806F0AFFC0346002B17D0CA
:102DF000184806F00BF9FFF795FD7F221249154898
:102E000006F0AEF8134B1B6810221A62114B1B68B8
:102E10001A68104B1B6842F010021A6000E000BFF5
:102E20000D4B00221A7005E00B4B1B780133DAB210
:102E3000094B1A7000BF2837BD4680BD9859002045
:102E4000E42D0108945D0020105D00205C0200204C
:102E5000082E0108C85B00203402002080B483B033
:102E600000AF7860054B1B780133DAB2034B1A7060
:102E700000BF0C37BD465DF8047B70473802002068
:102E800080B500AF594BD3F8A030B3F5617F05D9B9
:102E9000574B00229A64574B00221A64564BDA684B
:102EA000564B1B6803F5AD739A4219D2524BDB683F
:102EB000F02B15D94E4B1B69B3F5167F10D2FFF7D7
:102EC00043F94E4B16221A60FFF7C6F9494B01220F
:102ED0001A61484B01225A61464B0122DA6482E0B2
:102EE000444B5B69002B01D0FFF76EF9434B002286
:102EF0001A60404B00225A61FFF796F93E4B1B685F
:102F0000B3F5BE7F08D93B4B01229A60FFF75CF90D
:102F1000384B00225A6366E0364B5B6B002B07D1BF
:102F2000324B1B6B0133314A1363324B01225A631C
:102F3000304B01229A61FEF767F9314B1B68002B79
:102F400051D12D4BDA682F4B1B6803F291139A4233
:102F500012D2294BDB68F02B0ED9FFF7F5F8254B81
:102F600001225A60234B0122DA64264B13221A6095
:102F7000204B00229A6236E0FFF726F91D4B012212
:102F80001A62204B00221A601B4BDA681D4B1B682B
:102F900003F291139A4226D9144BD3F89430134A72
:102FA000C2F88030134B1B6B002B0ED1114B9B6A68
:102FB000002B0AD0104BDB680C4AC2F89C300D4B3A
:102FC00001221A630B4B0022DA620A4B9B6A002B28
:102FD00009D1084B01229A62064B00225A62034B28
:102FE0000022DA67FFE700BF80BD00BF205A002043
:102FF000745C0020BC590020985900205402002025
:10300000986100205002002080B500AF654B00227F
:103010005A61644B0122DA61624B01229A64624B6D
:103020009B6CB3F5617F34D95E4B1B6C002B30D1A8
:103030005C4B01221A645D4BD3F88C305B4AC2F8BA
:1030400090305A4BD3F88830584AC2F88C30574BDE
:10305000D3F88430554AC2F88830544BD3F89430B2
:10306000524AC2F88430514BD3F8A8304F4AC2F8C4
:10307000AC304E4BD3F8A4304C4AC2F8A8304B4B7E
:10308000D3F8A030494AC2F8A430484B0022C3F814
:10309000A020474BDA68474B1B68C3F5AD739A42D3
:1030A00029D9454B1B68002B01D1FDF7B9FFFEF76D
:1030B0005BF9404B16221A60404B1B68002B05D071
:1030C000384B0122DA60374B01221A65384B1B68F6
:1030D000B3F5BE7F63D9334B9B6A002B5FD0314B76
:1030E00000229A622F4B00221A63304B9B6A0133F5
:1030F0002E4A936253E0FFF767F82E4B00221A60C6
:103100002F4B00221A60294B5B6F284A9367274B8D
:103110001B6F264A5367254BDB6E244A1367234BEC
:10312000DB6F224AD3661F4BDB6A002B0ED11D4B8F
:103130005B6A002B0AD01E4BDB681C4AC2F8983031
:10314000184B0122DA62174B00221A63154B5B6A97
:10315000002B0ED1134B01225A62144B5B6A0133D0
:10316000124A53620F4B00229A62104B0022C3F89E
:1031700094200C4B5B6A002B11D00A4BDB6A002BAE
:103180000DD0104B5B68002B09D10E4B1B68022B36
:1031900005D1FEF739FFFFF747F8FFF715F800BF35
:1031A00080BD00BFBC590020745C0020205A002064
:1031B0009859002054020020986100204402002009
:1031C00050020020105A002080B58EB00EAF44F29D
:1031D00050630C9343F2D4030B9323230A9340F6DA
:1031E000C4130993162308931323079340F29113F2
:1031F0000693F02305934FF4AD7304934FF4DC73FF
:1032000003934FF4BE7302934FF4BE7301935023A4
:10321000009336230222034903480BF0A5F900BFAF
:10322000BD4680BD4C300108945D0020F0B5B9B0BA
:103230001EAF4E4B1B687B664C4BD96939664B4BB6
:10324000186AF865494B9C69BC65484B5D687D65AB
:10325000464B9E683E65454B1A69FA64434B596973
:10326000B964424BDB687B64404B586A38643F4B1F
:103270009C6AFC633D4B1D6BBD633C4BDE6A7E6309
:103280003A4BDA6B3A63394B596BF962374B9B6BAC
:10329000BB62364B186C7862344B5C6C3C62334BCF
:1032A000DD6CFD61314B9E6CBE61304B1A6D7A61F5
:1032B0002E4B596D39612D4BDB6DFB602B4B986D9F
:1032C000B8602A4B1C6E7C60284B5E6E274B9D6E4F
:1032D000264BD3F88040254BD86E244BD3F898105A
:1032E000224BD3F89C20214BD3F884301D931C92A1
:1032F0001B911A901994189517967C681694B868C3
:103300001590FB681493396913917A691292BE691A
:103310001196FD6910953C6A0F94786A0E90BB6A0D
:103320000D93F96A0C913A6B0B927E6B0A96BD6B0A
:103330000995FC6B0894386C07907B6C0693B96C0C
:103340000591FA6C04923E6D03967D6D0295BC6DFD
:103350000194F86D00903B6E7A6E054905480BF0BC
:1033600003F900BF6C37BD46F0BD00BF205A0020F6
:1033700024320108945D0020F0B5B1B01AAF474B7C
:103380001B687B65454BD9693965444B186AF864FD
:10339000424B9C69BC64414B5D687D643F4B9E68B9
:1033A0003E643E4B1A69FA633C4B5969B9633B4B27
:1033B000DB687B63394B586A3863384B9C6AFC6224
:1033C000364B1D6BBD62354BDE6A7E62334BD3F8E4
:1033D00094203A62314BD96FF961304BD3F8803089
:1033E000BB612E4BD86E78612C4B1C6F3C612B4B14
:1033F0005D6FFD60294B9E6FBE60284BD3F8842023
:103400007A60264BD3F88860244BD3F88C50234B3A
:10341000D3F89040214BD3F8A000204BD3F8A41050
:103420001E4BD3F8A8201D4BD3F8AC30199318923B
:10343000179116901594149513967A681292BE6897
:103440001196FD6810953C690F9478690E90BB69E0
:103450000D93F9690C913A6A0B927E6A0A96BD6ADD
:103460000995FC6A0894386B07907B6B0693B96BDF
:103470000591FA6B04923E6C03967D6C0295BC6CD0
:103480000194F86C00903B6D7A6D054905480BF08E
:103490006BF800BF5C37BD46F0BD00BF205A00206E
:1034A00038340108945D0020F0B58BB008AF124BA2
:1034B0001B687B60104B596839600F4B9B680E4A44
:1034C000D2680D4909690C4840690B4CA4690A4D42
:1034D000ED69094E366A06960595049403900291AB
:1034E000019200933B687A68044905480BF03CF868
:1034F00000BF0C37BD46F0BD4C5C0020A83501086C
:10350000945D0020F0B59BB00EAF78620023FB8580
:10351000FEF78AFE00224FF480714FF0904003F0D6
:103520006FF9FEF7B7F9FEF725F99C4800F01CFD8E
:103530009A4B1B681A68994B1B6842F010021A607C
:103540007F229749954805F00BFDFEF72DFD7F2161
:10355000944802F07BF9322007F0C9F8082292491A
:10356000904801F04BFB0346002B40F08D82012276
:103570004FF400418D4803F043F901224FF480419C
:103580008A4803F03DF901224FF40051874803F0C7
:1035900037F901224FF48051844803F031F9FFF7E5
:1035A00013FE8348FCF714FE0346FB85FB8D1A4689
:1035B0007F497A4805F044FC052007F098F800227E
:1035C0004FF40041794803F01BF900224FF4804189
:1035D000764803F015F900224FF40051734803F0C8
:1035E0000FF900224FF48051704803F009F9FEF7FB
:1035F00095FC704B1B7803F00103DBB21A464FF4C5
:1036000000416A4803F0FCF86A4B1B7803F00203A0
:10361000DBB21A464FF48041644803F0F1F8654B81
:103620001B7803F00403DBB21A464FF400515F48E5
:1036300003F0E6F85F4B1B7803F00803DBB21A4691
:103640004FF48051594803F0DBF8322007F04FF86F
:1036500000224FF40041554803F0D2F800224FF405
:103660008041524803F0CCF800224FF400514F48FB
:1036700003F0C6F800224FF480514C4803F0C0F824
:10368000FFF7D4FD4A48FCF7A3FD0346FB85FB8DFD
:103690001A464749414805F0D3FB052007F027F8B3
:1036A000FFF702FF4248FCF793FD0346FB85FB8DC5
:1036B0001A463F49394805F0C3FB3F4B1B6864215C
:1036C000184607F0C1F83D4B0022C3F894203B4B4D
:1036D0000022DA675A2007F00AF800224FF48071BE
:1036E0004FF0904003F08CF802E0022006F0FFFF5C
:1036F000334B1B68002BF8D0324B1B68032B05D1D2
:10370000304B02221A60FFF737FED7E02D4B1B68C3
:10371000022B2ED12B4B01221A602B4BDB693B6213
:10372000294B196AF961284B9B69274A1268264977
:1037300049682548C068B861234C2469224DAD68AA
:10374000214EB66C2048C06C78611F48006D08900F
:1037500078690790069605950494B86903900291DC
:1037600001920093FB693A6A184911480AF0FCFE7D
:10377000A4E0144B1B68042B05D1FFF757FD114B38
:1037800000221A609AE00F4B1B68052B20D1FFF72F
:103790001BFD0C4B00221A6090E000BFC85B0020AC
:1037A000105D00201C5B00209C610020000400488C
:1037B000945D002094590020905D0020205A002044
:1037C000600200205C020020745C0020403601088A
:1037D000954B1B68012B47D1934B00221A60934BEA
:1037E000DB683B62914B9968F961904B58688F4B4D
:1037F0001C688F4B1B78BB618E4B1D688E4B1E68FF
:103800008E4B1A687A618E4B196939618C4B5B69F2
:10381000FB608B4B9A69BA60894B19687960884B59
:103820005B683B60864B9968854BDA68854B1B6803
:103830000D930C920B913B680A9379680991BA68D1
:103840000892FB680793396906917A690592049694
:103850000395BD69029501940090FB693A6A7A4923
:103860007A480AF081FE29E06F4B1B683E2B0BD192
:10387000FFF71AFE6C4B1B68002B1FD06A4B1B68AE
:10388000013B694A136019E0674B1B683C2B09D167
:10389000654B1B68002B11D0634B1B68013B624AD0
:1038A00013600BE0604B1B68002B04D05E4B1B6861
:1038B000013B5D4A1360654B00221A706348FCF7B8
:1038C00087FC0346FB85FB8DB3F5806F02D340F286
:1038D000FF33FB85FB8D1A465C495D4805F0B0FA65
:1038E0005C4B1B68002B04D0FEF764F8594B002298
:1038F0001A604F4B1B78062B1CD8514B5B69502B21
:1039000005D94B4B07221A70FEF7A6FCE2E64C4B9A
:103910005B68B3F5BE7F04D8494B9B68B3F5DC7F89
:1039200005D9FFF7ADFA4C4B0122DA63ABE0FFF7A4
:103930006BFBCFE63E4B1B78062B40F293803C4B53
:103940001B780D2B00F28E803D4B9B69502B03D9C9
:10395000374B00221A7096E0394B5B68B3F5BE7F97
:1039600004D8374B9B68B3F5DC7F58D93A4B01221A
:10397000DA63334BDA68394B1B6803F291139A42CE
:1039800014D22F4BDB68F02B10D9FEF7DDFBFEF7CE
:1039900063FC324B13221A602F4B01221A602E4B0C
:1039A00000229A622C4B0122DA643BE0FEF73CFCD9
:1039B000FEF70AFC284B01221A62284B00221A60EB
:1039C0001F4BDA68254B1B6803F291139A4229D9E1
:1039D000234BD3F89430224AC2F880301E4B1B6B25
:1039E000002B0ED11C4B9B6A002B0AD0144BDB68BA
:1039F0001B4AC2F89C30184B01221A63164B002256
:103A0000DA62154B9B6A002B0CD1134B01229A6290
:103A1000114B00225A62124B0022DA6702E0FFF7D4
:103A2000F3FA30E000BF2EE05C020020105A0020C4
:103A30009459002044020020400200204802002047
:103A4000985900204C020020D8360108945D0020CF
:103A5000C85B002058020020BC5900205002002002
:103A6000205A00200A4B1B780E2B7FF433AE094BF3
:103A70005B69502B05D9064B07221A70FEF7ECFB49
:103A800028E6FFF7FDF925E600BF3437BD46F0BD57
:103A9000945900209859002080B584B000AF786018
:103AA000674B1B68002B05D0654B1B68013B644AC4
:103AB000136059E0624B00221A60624B1B680133AD
:103AC000604A1360FDF784FD5F4B1B68002B02D139
:103AD0005D4B02221A605D4B1B68002B05D05B4BCF
:103AE0001B68013B594A13603EE0584B3B221A6069
:103AF000544B5B680133534A5360524B00221A60A7
:103B0000FEF70CFA504B03221A60514B1B68002B36
:103B100005D04F4B1B68013B4D4A136024E0FEF774
:103B200071F94B4B3B221A60464B9B680133454A67
:103B30009360444B00225A60464B01221A60464B68
:103B40001B68002B05D0444B1B68013B424A1360A5
:103B50000AE0414B17221A603A4BDB680133394ABD
:103B6000D360384B00229A60FEF702F83B4800F021
:103B7000E1FF3B4B1B681846FEF752FCF860394BDF
:103B80005B681A46FB68934207D9364B5B681A4656
:103B9000FB689B1A344A136002E0334B00221A6020
:103BA0002F4B5B681846FEF73BFCF8602D4B9B687B
:103BB0001A46FB68934207D92A4B9B681A46FB6852
:103BC0009B1A294A536002E0274B00225A60244B7B
:103BD0009B681846FEF7C4FB0346234A9360204BBC
:103BE000DB681846FEF7BCFB03461F4AD3601C4B3C
:103BF0001B691846FEF740FB03461B4A1361184B2E
:103C00005B691846FEF738FB0346174A5361144BAD
:103C10009B691846FEF730FB0346134A93614FF445
:103C20000071124802F0D4FD03461A46104B1A6088
:103C3000104B01221A6000BF1037BD4680BD00BF87
:103C40003C020020105A00205C02002000000020EE
:103C50000400002058020020080000201C5B002007
:103C60009C6100204C5C0020985900200004004812
:103C70004C0200206002002080B582B000AF786066
:103C80007B681B68044A934201D100F0FDFB00BF32
:103C90000837BD4680BD00BF0010004080B400AFB3
:103CA00072B600BFFEE7000080B582B000AF114BD6
:103CB0001B6E104A43F0010313660E4B1B6E03F09C
:103CC00001037B607B680B4B9B6D0A4A43F080537A
:103CD0009365084B9B6D03F080533B603B6800226B
:103CE0000F216FF0010001F0C9FE00BF0837BD468B
:103CF00080BD00BF0010024080B5A2B000AF786068
:103D000007F1740300221A605A609A60DA601A613F
:103D100007F118035C220021184609F0C8FC7B68F3
:103D20001B683F4A934277D14FF48043BB614FF009
:103D30004053BB6607F11803184603F05FFC0346C7
:103D4000002B01D0FFF7AAFF364BDB6C354A43F45A
:103D50000053D364334BDB6C03F400537B617B690A
:103D6000304BDB6C2F4A43F00403D3642D4BDB6CE8
:103D700003F004033B613B692A4BDB6C294A43F0A7
:103D80000103D364274BDB6C03F00103FB60FB688A
:103D90000F237B670B23BB670023FB6707F17403CB
:103DA0001946214802F09AFB07237B670B23BB6768
:103DB0000023FB6707F1740319464FF0904002F0AF
:103DC0008DFB1A4B1A4A1A60184B00225A60174B87
:103DD00000229A60154B0022DA60144B80221A618F
:103DE000124B4FF400725A61104B4FF400629A610B
:103DF0000E4B2022DA610D4B00221A620B4801F0B3
:103E000067FE0346002B01D0FFF748FF7B68074A97
:103E1000DA64064A7B68936200BF8837BD4680BD7E
:103E2000000004500010024000080048C85C002058
:103E30000800024080B485B000AF78607B681B68E2
:103E4000B3F1804F0BD1094B9B6D084A43F001033E
:103E50009365064B9B6D03F00103FB60FB6800BF9D
:103E60001437BD465DF8047B704700BF0010024068
:103E700080B485B000AF78607B681B680A4A9342C3
:103E80000BD10A4B1B6E094A43F400331366074BF0
:103E90001B6E03F40033FB60FB6800BF1437BD46A4
:103EA0005DF8047B704700BF0044014000100240F1
:103EB00080B58AB000AF786007F1140300221A6061
:103EC0005A609A60DA601A617B681B68B3F1804FB0
:103ED0001DD1224BDB6C214A43F00103D3641F4BFD
:103EE000DB6C03F001033B613B6920237B61022310
:103EF000BB610023FB6100233B6201237B6207F16E
:103F0000140319464FF0904002F0E8FA21E07B6874
:103F10001B68134A93421CD1104BDB6C0F4A43F0D1
:103F20000203D3640D4BDB6C03F00203FB60FB6800
:103F30004FF480737B610223BB610023FB6100238C
:103F40003B620E237B6207F114031946054802F019
:103F5000C5FA00BF2837BD4680BD00BF0010024033
:103F6000004401400004004880B5A0B000AF786074
:103F700007F16C0300221A605A609A60DA601A61D5
:103F800007F110035C220021184609F090FB7B68C2
:103F90001B68564A934240F0A48001233B610023F2
:103FA0003B6307F11003184603F028FB0346002B80
:103FB00001D0FFF773FE4E4B1B6E4D4A43F4804316
:103FC00013664B4B1B6E03F48043FB60FB68484B4E
:103FD000DB6C474A43F00103D364454BDB6C03F0D1
:103FE0000103BB60BB684FF40073FB6602233B67B1
:103FF00000237B670223BB670723FB6707F16C0382
:1040000019464FF0904002F069FA4FF48063FB6666
:1040100002233B6701237B670223BB670723FB6700
:1040200007F16C0319464FF0904002F057FA314BFC
:10403000314A1A602F4B02225A602E4B00229A609E
:104040002C4B0022DA602B4B80221A61294B002274
:104050005A61284B00229A61264B2022DA61254BB7
:1040600000221A62234801F033FD0346002B01D0E1
:10407000FFF714FE7B681F4A1A671E4A7B6893622B
:104080001E4B1F4A1A601D4B02225A601B4B102206
:104090009A601A4B0022DA60184B80221A61174B83
:1040A00000225A61154B00229A61144B0022DA61FA
:1040B000124B00221A62114801F00AFD0346002B40
:1040C00001D0FFF7EBFD7B680C4ADA660B4A7B6890
:1040D000936200220521252001F0D0FC252001F06B
:1040E000E9FC00BF8037BD4680BD00BF00380140FD
:1040F00000100240805B002080040240D05A002063
:104100006C04024080B58CB000AF78600023FB6285
:104110000023BB6200227968362001F0AFFC362014
:1041200001F0C8FC1E4B9B6D1D4A43F010039365C4
:104130001B4B9B6D03F01003FB60FB6807F1100243
:1041400007F114031146184603F0C6F903F098F975
:10415000F862FB6A134AA2FB03239B0C013BBB6280
:10416000114B124A1A60104B40F2E732DA600E4AE5
:10417000BB6A53600C4B00221A610B4B00229A6001
:10418000094803F045FD0346002B04D1064803F01F
:1041900097FD034600E0012318463037BD4680BD39
:1041A0000010024083DE1B43086300200010004023
:1041B00080B400AFFEE780B400AFFEE780B400AF8C
:1041C000FEE780B400AFFEE780B400AFFEE780B446
:1041D00000AF00BFBD465DF8047B704780B500AFFF
:1041E000024801F00CFE00BF80BD00BFC85C00208B
:1041F00080B500AF074804F09BFF064B1B68DB69E6
:1042000003F01003102B02D10248FEF78BFC00BF15
:1042100080BD00BFC85B002080B500AF024803F03E
:1042200061FF00BF80BD00BF0863002080B500AF04
:10423000024801F0E4FD00BF80BD00BFD05A00205D
:1042400080B500AF024801F0DAFD00BF80BD00BFBD
:10425000805B002080B400AF01231846BD465DF8A6
:10426000047B704780B582B000AF7860396009F098
:10427000EDF8034616221A604FF0FF331846083750
:10428000BD4680BD80B582B000AF78604FF0FF3191
:104290007868FFF7E7FFFEE780B586B000AFF8600B
:1042A000B9607A6000237B610AE0AFF300800146C9
:1042B000BB685A1CBA60CAB21A707B6901337B6151
:1042C0007A697B689A42F0DB7B6818461837BD46EE
:1042D00080BD80B586B000AFF860B9607A60002319
:1042E0007B6109E0BB685A1CBA601B781846AFF3C3
:1042F00000807B6901337B617A697B689A42F1DBDC
:104300007B6818461837BD4680BD80B483B000AFC7
:1043100078604FF0FF3318460C37BD465DF8047BDC
:10432000704780B483B000AF786039603B684FF469
:1043300000525A60002318460C37BD465DF8047BD6
:10434000704780B483B000AF7860012318460C3703
:10435000BD465DF8047B704780B485B000AFF8605F
:10436000B9607A60002318461437BD465DF8047BB7
:104370007047000080B586B000AF7860144A154BD6
:10438000D31A7B617B693B61134B1B68002B02D105
:10439000114B124A1A60104B1A687B6813443A6931
:1043A0009A4207D209F052F803460C221A604FF0E5
:1043B000FF3309E0084B1B68FB60074B1A687B68FA
:1043C0001344054A1360FB6818461837BD4680BD84
:1043D000000001200004000064020020A863002007
:1043E00080B400AF064BD3F88830054A43F470031D
:1043F000C2F8883000BFBD465DF8047B704700BF3F
:1044000000ED00E0DFF834D0FFF7EAFF0C480D497B
:104410000D4A002302E0D458C4500433C4188C421F
:10442000F9D30A4A0A4C002301E013600432A24285
:10443000FBD309F007F9FEF73BF8FEE70000012087
:104440000000002018020020103D01081802002082
:10445000A8630020FEE780B582B000AF0023FB71A7
:10446000032001F000FB0F20FFF74CFE0346002B5A
:1044700002D00123FB7101E0FFF716FCFB7918461F
:104480000837BD4680BD000080B400AF064B1B78E6
:104490001A46064B1B681344044A136000BFBD460E
:1044A0005DF8047B704700BF1800002054630020B3
:1044B00080B400AF034B1B681846BD465DF8047B13
:1044C000704700BF5463002080B483B000AF7860B1
:1044D00039607B689B6823F47C123B681A437B68D5
:1044E0009A6000BF0C37BD465DF8047B704780B40E
:1044F00083B000AF786039607B689B6823F0E0721E
:104500003B681A437B689A6000BF0C37BD465DF874
:10451000047B704780B483B000AF78607B689B6891
:1045200003F0E07318460C37BD465DF8047B704716
:1045300080B487B000AFF860B9607A603B60FB6818
:1045400060331A46BB689B0013447B617B691A6821
:10455000084B13407A6802F0F8413A680A43134363
:1045600043F000427B691A6000BF1C37BD465DF80E
:10457000047B704700F0FF0380B485B000AF786023
:1045800039607B6860331A463B689B001344FB60CC
:10459000FB681B6803F0F84318461437BD465DF806
:1045A000047B704780B487B000AFF860B9607A6070
:1045B000FB6860331A46BB689B0013447B617B69D0
:1045C0001B6823F000427B681A437B691A6000BFB6
:1045D0001C37BD465DF8047B704780B483B000AFE4
:1045E00078607B68DB6803F44063002B01D1012312
:1045F00000E0002318460C37BD465DF8047B704789
:1046000080B487B000AFF860B9607A60FB6830337F
:104610001A46BB681B0A9B0003F00C0313447B6122
:104620007B691A68BB6803F01F031F2101FA03F3BB
:10463000DB431A407B689B0E03F01F01BB6803F04D
:104640001F0301FA03F31A437B691A6000BF1C378A
:10465000BD465DF8047B704780B487B000AFF8605A
:10466000B9607A60FB6814331A46BB685B0E9B0026
:1046700003F0040313447B617B691A68BB681B0D5C
:1046800003F01F03072101FA03F3DB431A40BB6861
:104690001B0D03F01F03796801FA03F31A437B69CA
:1046A0001A6000BF1C37BD465DF8047B70470000F0
:1046B00080B485B000AFF860B9607A60FB68D3F869
:1046C000B020BB68C3F31203DB431A407B6803F0DE
:1046D00018030849D940BB680B40C3F312031A43BF
:1046E000FB68C3F8B02000BF1437BD465DF8047BFB
:1046F000704700BFFFFF070080B483B000AF786051
:104700007B689B6823F0204323F03F037A68936023
:1047100000BF0C37BD465DF8047B704780B483B0A2
:1047200000AF78607B689B6803F00053B3F1005FD3
:1047300001D1012300E0002318460C37BD465DF887
:10474000047B704780B483B000AF78607B689B685F
:1047500023F0104323F03F0343F080527B689A60BC
:1047600000BF0C37BD465DF8047B704780B483B052
:1047700000AF78607B689B6803F08053B3F1805F83
:1047800001D1012300E0002318460C37BD465DF837
:10479000047B704780B483B000AF78607B689B680F
:1047A00023F0004323F03F0343F001027B689A604B
:1047B00000BF0C37BD465DF8047B704780B483B002
:1047C00000AF78607B689B6823F0004323F03F03D1
:1047D00043F002027B689A6000BF0C37BD465DF86B
:1047E000047B704780B483B000AF78607B689B68BF
:1047F00003F00103012B01D1012300E0002318463F
:104800000C37BD465DF8047B704780B483B000AFC1
:1048100078607B689B6803F00203022B01D10123BF
:1048200000E0002318460C37BD465DF8047B704756
:1048300080B483B000AF78607B689B6823F000434E
:1048400023F03F0343F004027B689A6000BF0C37FB
:10485000BD465DF8047B704780B483B000AF7860DC
:104860007B689B6803F00403042B01D1012300E063
:10487000002318460C37BD465DF8047B704780B4B2
:1048800083B000AF78607B689B6803F00803082B57
:1048900001D1012300E0002318460C37BD465DF826
:1048A000047B704780B588B000AF78600023FB7749
:1048B0000023BB607B68002B01D101232CE17B68C6
:1048C0001B69002B7B685B6D002B09D17868FFF7B3
:1048D00013FA7B6800229A657B68002283F85020D7
:1048E0007B681B681846FFF719FF0346002B04D0AE
:1048F0007B681B681846FFF7FFFE7B681B6818463D
:10490000FFF734FF0346002B15D17B681B68184660
:10491000FFF718FF824B1B689B09824AA2FB032307
:104920009B0901335B00BB6002E0BB68013BBB60DD
:10493000BB68002BF9D17B681B681846FFF716FF90
:104940000346002B0DD17B685B6D43F010027B6842
:104950005A657B689B6D43F001027B689A65012371
:10496000FB777B681B681846FFF776FF78617B68EA
:104970005B6D03F01003002B40F0C5807B69002BBA
:1049800040F0C1807B685B6D23F4817343F00202C9
:104990007B685A657B681B681846FFF723FF034650
:1049A000002B0BD16048FFF71DFF0346002B05D1FC
:1049B0007B685B6819465D48FFF786FD7B685B7E18
:1049C0005A037B685B6B1A437B68DB681A437B681E
:1049D0009B681A437B6893F820301B041343BB6128
:1049E0007B6893F82030012B06D17B685B6A013B22
:1049F0005B04BA691343BB617B689B6A002B09D0D7
:104A00007B689B6A03F470727B68DB6A1343BA6944
:104A10001343BB617B681B68DA68454B13407A68B7
:104A20001268B9690B43D3607B681B681846FFF7AF
:104A300013FF38617B681B681846FFF720FFF8609A
:104A40003B69002B3DD1FB68002B3AD17B681B7E74
:104A50009A037B6893F830305B001343BB617B683B
:104A60001B68DB6823F4804323F002037A68126832
:104A7000B9690B43D3607B6893F83830012B18D1A8
:104A80007B681B681B6923F4FF6323F004037A68C7
:104A9000D16B7A68126C11437A68526C11437A6850
:104AA000926C0A431A437B681B6842F001021A6148
:104AB00007E07B681B681A697B681B6822F00102AB
:104AC0001A617B681B69012B0CD17B681B681B6B0F
:104AD00023F00F017B68DB695A1E7B681B680A4361
:104AE0001A6307E07B681B681A6B7B681B6822F0FF
:104AF0000F021A637B685B6D23F0030343F001022E
:104B00007B685A6507E07B685B6D43F010027B6849
:104B10005A650123FB77FB7F18462037BD4680BDD1
:104B200010000020632D3E050000045000030450D7
:104B300007C0F0FF80B584B000AF78607B681B6869
:104B40001846FFF789FE0346002B4FD17B6893F888
:104B50005030012B01D102234BE07B68012283F806
:104B60005020786800F0CCFC0346FB73FB7B002BE5
:104B700037D17B685B6D23F4706323F0010343F44A
:104B800080727B685A657B685B6D03F48053B3F574
:104B9000805F06D17B689B6D23F006027B689A6577
:104BA00002E07B6800229A657B681B681C221A6001
:104BB0007B68002283F850207B681B68DB6803F069
:104BC0000073002B07D07B685B6D23F4405343F4E4
:104BD00080527B685A657B681B681846FFF728FE81
:104BE00006E07B68002283F8502001E00223FB737B
:104BF000FB7B18461037BD4680BD000080B586B0EF
:104C000000AFF860B9607A60FB681B681846FFF770
:104C100023FE0346002B67D1FB6893F85030012B2D
:104C200001D1022363E0FB68012283F85020F86879
:104C300000F066FC0346FB75FB7D002B4FD1FB6843
:104C40005B6D23F4706323F0010343F48072FB680F
:104C50005A65FB685B6D03F48053002B06D0FB683C
:104C60009B6D23F00602FB689A6502E0FB68002258
:104C70009A65FB68DB6C204ADA62FB68DB6C1F4AD2
:104C80001A63FB68DB6C1E4A5A63FB681B681C22B4
:104C90001A60FB68002283F85020FB681B685A6882
:104CA000FB681B6842F010025A60FB681B68DA68F8
:104CB000FB681B6842F00102DA60FB68D86CFB6895
:104CC0001B6840331946BA687B6800F0B9FF034699
:104CD000FB75FB681B681846FFF7AAFD06E0FB683A
:104CE000002283F8502001E00223FB75FB7D18466B
:104CF0001837BD4680BD00BFCB560008A35700083B
:104D0000BF57000880B483B000AF786000BF0C3795
:104D1000BD465DF8047B704780B483B000AF786017
:104D200000BF0C37BD465DF8047B704780B483B08C
:104D300000AF786000BF0C37BD465DF8047B70475C
:104D400080B5B6B000AF78603960002387F8D730FF
:104D50000023FB607B6893F85030012B01D10223C4
:104D6000B9E37B68012283F850207B681B681846F2
:104D7000FFF772FD0346002B40F09E833B685B68A3
:104D8000052B24D83B685B68023B032B1BD801A290
:104D900052F823F0A54D0008AD4D0008B54D0008B0
:104DA000BD4D00083B680C225A6011E03B6812229E
:104DB0005A600DE03B6818225A6009E03B684FF4E6
:104DC00080725A6004E03B6806225A6000E000BF2F
:104DD0007B6818683B6859683B681B681A46FFF790
:104DE0000FFC7B681B681846FFF736FDC7F8D0003C
:104DF0007B681B681846FFF742FDC7F8CC00D7F860
:104E0000D030002B40F0A681D7F8CC30002B40F0FA
:104E1000A1817B6818683B6819683B689B681A46E3
:104E2000FFF71AFC3B685A697B681B68DB68DB0884
:104E300003F003035B0002FA03F3C7F8C8303B68D2
:104E40001B69042B0AD07B6818683B6819693B68AA
:104E50001A68D7F8C830FFF76BFB7BE17B681B68EB
:104E600000211846FFF788FB0346C3F31203002B0B
:104E70000AD17B681B6800211846FFF77DFB0346BB
:104E80009B0E03F01F021EE07B681B680021184682
:104E9000FFF772FB0346C7F8BC30D7F8BC3093FA73
:104EA000A3F3C7F8B830D7F8B830C7F8C030D7F890
:104EB000C030002B01D1202304E0D7F8C030B3FA72
:104EC00083F3DBB21A463B681B68C3F31203002B63
:104ED00005D13B681B689B0E03F01F0318E03B687D
:104EE0001B68C7F8B030D7F8B03093FAA3F3C7F80F
:104EF000AC30D7F8AC30C7F8B430D7F8B430002BAA
:104F000001D1202304E0D7F8B430B3FA83F3DBB245
:104F10009A4206D17B681B68002200211846FFF7E1
:104F200041FB7B681B6801211846FFF725FB034600
:104F3000C3F31203002B0AD17B681B6801211846BA
:104F4000FFF71AFB03469B0E03F01F021EE07B686F
:104F50001B6801211846FFF70FFB0346C7F8A43072
:104F6000D7F8A43093FAA3F3C7F8A030D7F8A0304D
:104F7000C7F8A830D7F8A830002B01D1202304E0CF
:104F8000D7F8A830B3FA83F3DBB21A463B681B6844
:104F9000C3F31203002B05D13B681B689B0E03F083
:104FA0001F0318E03B681B68C7F89830D7F89830A3
:104FB00093FAA3F3C7F89430D7F89430C7F89C302D
:104FC000D7F89C30002B01D1202304E0D7F89C3087
:104FD000B3FA83F3DBB29A4206D17B681B680022E6
:104FE00001211846FFF7DEFA7B681B68022118468C
:104FF000FFF7C2FA0346C3F31203002B0AD17B6802
:105000001B6802211846FFF7B7FA03469B0E03F010
:105010001F021EE07B681B6802211846FFF7ACFAEE
:105020000346C7F88C30D7F88C3093FAA3F3C7F84F
:105030008830D7F88830C7F89030D7F89030002BF8
:1050400001D1202304E0D7F89030B3FA83F3DBB228
:105050001A463B681B68C3F31203002B05D13B685B
:105060001B689B0E03F01F0316E03B681B68C7F824
:105070008030D7F8803093FAA3F3FB67FB6FC7F853
:105080008430D7F88430002B01D1202304E0D7F8F6
:105090008430B3FA83F3DBB29A4206D17B681B6893
:1050A000002202211846FFF77DFA7B681B68032166
:1050B0001846FFF761FA0346C3F31203002B0AD127
:1050C0007B681B6803211846FFF756FA03469B0EC0
:1050D00003F01F0217E07B681B6803211846FFF7E7
:1050E0004BFA03467B677B6F93FAA3F33B673B6FF7
:1050F000BB67BB6F002B01D1202303E0BB6FB3FA6A
:1051000083F3DBB21A463B681B68C3F31203002B20
:1051100005D13B681B689B0E03F01F0311E03B6841
:105120001B68BB66BB6E93FAA3F37B667B6EFB6664
:10513000FB6E002B01D1202303E0FB6EB3FA83F357
:10514000DBB29A4206D17B681B6800220321184615
:10515000FFF728FA7B681B681846FFF743FB0346F6
:10516000002B40F03F817B6818683B6819683B68FA
:10517000DB681A46FFF79CFA3B68DB688E4A93426D
:1051800040F030817B6818683B681B68C3F31203EA
:10519000002B0BD13B681B689B0E013303F01F03F0
:1051A000092B94BF01230023DBB219E03B681B6885
:1051B000FB65FB6D93FAA3F3BB65BB6D3B663B6E72
:1051C000002B01D1202303E03B6EB3FA83F3DBB263
:1051D000013303F01F03092B94BF01230023DBB22B
:1051E000002B79D03B681B68C3F31203002B07D157
:1051F0003B681B689B0E01339B0603F0F84215E0E9
:105200003B681B683B653B6D93FAA3F3FB64FB6C47
:105210007B657B6D002B01D1202303E07B6DB3FA0E
:1052200083F3DBB201339B0603F0F8423B681B6853
:10523000C3F31203002B09D13B681B689B0E01339B
:1052400003F01F03012101FA03F317E03B681B6819
:105250007B647B6C93FAA3F33B643B6CBB64BB6CD9
:10526000002B01D1202303E0BB6CB3FA83F3DBB244
:10527000013303F01F03012101FA03F342EA0301A2
:105280003B681B68C3F31203002B0AD13B681B6801
:105290009B0E013303F01F0213465B0013441B05F2
:1052A00018E03B681B68BB63BB6B93FAA3F37B639B
:1052B0007B6BFB63FB6B002B01D1202303E0FB6BBB
:1052C000B3FA83F3DBB2013303F01F0213465B0032
:1052D00013441B050B4380E03B681B68C3F31203B8
:1052E000002B07D13B681B689B0E01339B0603F024
:1052F000F84215E03B681B68FB62FB6A93FAA3F374
:10530000BB62BB6A3B633B6B002B01D1202303E0F4
:105310003B6BB3FA83F3DBB201339B0603F0F84235
:105320003B681B68C3F31203002B09D13B681B6861
:105330009B0E013303F01F03012101FA03F317E071
:105340003B681B683B623B6A93FAA3F3FB61FB6912
:105350007B627B6A002B01D1202303E07B6AB3FAD6
:1053600083F3DBB2013303F01F03012101FA03F3DE
:1053700042EA03013B681B68C3F31203002B0DD103
:105380003B681B689B0E013303F01F0213465B0052
:1053900013441E3B1B0543F000731DE03B681B6874
:1053A0007B617B6993FAA3F33B613B69BB61BB699A
:1053B000002B03D1202305E000007F40BB69B3FA36
:1053C00083F3DBB2013303F01F0213465B00134487
:1053D0001E3B1B0543F000730B433A689268194665
:1053E000FFF73AF93B681A683D4B1340002B6CD02D
:1053F0003C48FFF78FF8C7F8C4003B681B683A4A7F
:10540000934227D1D7F8C43003F40003002B21D1F5
:105410007B681B68354A934257D1D7F8C43043F4B0
:10542000000319462F48FFF762F8314B1B689B09B0
:10543000304AA2FB03239B095A1C13465B0013440A
:105440009B00FB6002E0FB68013BFB60FB68002BFC
:10545000F9D13AE03B681B68274A934213D1D7F849
:10546000C43003F08073002B0DD17B681B681F4A8A
:1054700093422AD1D7F8C43043F0807319461948B3
:10548000FFF735F821E03B681B681C4A93421CD1AA
:10549000D7F8C43003F48003002B16D17B681B6857
:1054A000124A934211D1D7F8C43043F4800319460D
:1054B0000C48FFF71CF808E07B685B6D43F02002A6
:1054C0007B685A65012387F8D7307B68002283F810
:1054D000502097F8D7301846D837BD4680BD00BF5A
:1054E0000000088000030450000052C70000045070
:1054F00010000020632D3E05000084CB01000080D9
:1055000080B584B000AF78600023BB607B681B6807
:105510001846FFF767F90346002B69D17B681B68C3
:105520009A68364B1340002B0DD07B685B6D43F0BF
:1055300010027B685A657B689B6D43F001027B68B3
:105540009A65012355E07B681B681846FFF722F92E
:105550002B48FEF7DFFF034603F40003002B13D0B4
:10556000284B1B689B09284AA2FB03239B095A1C52
:1055700013465B0013449B00BB6002E0BB68013B29
:10558000BB60BB68002BF9D1FEF792FFF86028E002
:105590007B681B681846FFF725F90346002B04D1EA
:1055A0007B681B681846FFF7F5F8FEF781FF024697
:1055B000FB68D31A022B14D97B681B681B6803F0A5
:1055C0000103012B0DD07B685B6D43F010027B68FB
:1055D0005A657B689B6D43F001027B689A650123E5
:1055E00007E07B681B681B6803F00103012BCFD128
:1055F000002318461037BD4680BD00BF3F00008025
:105600000003045010000020632D3E0580B584B0D7
:1056100000AF78607B681B681846FFF7F6F8F86003
:105620007B681B681846FFF7DDF80346002B47D060
:10563000FB68002B44D17B681B689B6803F00D035B
:10564000012B0CD17B681B681846FFF7B7F87B6805
:105650001B6803221A60FEF72BFFB86029E07B6805
:105660005B6D43F010027B685A657B689B6D43F06D
:1056700001027B689A65012323E0FEF719FF0246C9
:10568000BB68D31A022B14D97B681B689B6803F094
:105690000103002B0DD07B685B6D43F010027B682B
:1056A0005A657B689B6D43F001027B689A65012314
:1056B00007E07B681B689B6803F00103002BDCD1CB
:1056C000002318461037BD4680BD80B584B000AFBA
:1056D00078607B689B6AFB60FB685B6D03F050033E
:1056E000002B4BD1FB685B6D43F40072FB685A657D
:1056F000FB681B681B6803F00803002B21D0FB68C4
:105700001B681846FEF769FF0346002B32D0FB6882
:105710001B68DB6803F40053002B2BD1FB685B6D27
:1057200023F48072FB685A65FB685B6D03F4805359
:10573000002B1FD1FB685B6D43F00102FB685A65CB
:1057400018E0FB681B68DB6803F00203002B11D133
:10575000FB685B6D23F48072FB685A65FB685B6DC8
:1057600003F48053002B05D1FB685B6D43F001020D
:10577000FB685A65F868FFF7C5FA0EE0FB685B6DD9
:1057800003F01003002B03D0F868FFF7CFFA04E012
:10579000FB68DB6C5B6B7868984700BF1037BD46D1
:1057A00080BD80B584B000AF78607B689B6AFB6089
:1057B000F868FFF7B1FA00BF1037BD4680BD80B56D
:1057C00084B000AF78607B689B6AFB60FB685B6DB0
:1057D00043F04002FB685A65FB689B6D43F004028E
:1057E000FB689A65F868FFF7A1FA00BF1037BD465D
:1057F00080BD80B483B000AF786039607B689B68FF
:1058000023F0404323F03F033A6802F08042134301
:1058100043F000427B689A6000BF0C37BD465DF8DC
:10582000047B704780B483B000AF78607B689B686E
:1058300003F00043B3F1004F01D1012300E0002346
:1058400018460C37BD465DF8047B704780B584B0C0
:1058500000AF786039600023BB607B6893F85030FC
:10586000012B01D102234DE07B68012283F85020F7
:105870007868FFF7CBFE0346FB73FB7B002B36D12A
:105880007B685B6D23F4885323F0020343F002022C
:105890007B685A657B681B6839681846FFF7A9FF63
:1058A00014E0BB680133BB60BB68B3F5912F0DD327
:1058B0007B685B6D23F0120343F010027B685A652E
:1058C0007B68002283F8502001231BE07B681B6863
:1058D0001846FFF7A7FF0346002BE2D17B685B6DFC
:1058E00023F0030343F001027B685A6505E07B68FF
:1058F0005B6D43F010027B685A657B68002283F879
:105900005020FB7B18461037BD4680BD80B485B063
:1059100000AF78607B6803F00703FB600C4BDB682B
:10592000BB60BA684FF6FF031340BB60FB681A0206
:10593000BB68134343F0BF6343F40033BB60044AC6
:10594000BB68D36000BF1437BD465DF8047B704769
:1059500000ED00E080B400AF044BDB681B0A03F0ED
:1059600007031846BD465DF8047B704700ED00E074
:1059700080B483B000AF0346FB7197F90730002B6A
:105980000BDBFB7903F01F02074997F907305B092E
:10599000012000FA02F241F8232000BF0C37BD4677
:1059A0005DF8047B704700BF00E100E080B483B085
:1059B00000AF03463960FB7197F90730002B0ADB13
:1059C0003B68DAB20C4997F907301201D2B20B44A6
:1059D00083F800230AE03B68DAB20849FB7903F058
:1059E0000F03043B1201D2B20B441A7600BF0C37EE
:1059F000BD465DF8047B704700E100E000ED00E08B
:105A000080B489B000AFF860B9607A60FB6803F0D9
:105A10000703FB61FB69C3F10703042B28BF0423C1
:105A2000BB61FB690433062B02D9FB69033B00E031
:105A300000237B614FF0FF32BB6902FA03F3DA43C4
:105A4000BB681A407B699A404FF0FF317B6901FACD
:105A500003F3D9437B680B40134318462437BD46F4
:105A60005DF8047B704780B582B000AF78607868DD
:105A7000FFF74CFF00BF0837BD4680BD80B586B03C
:105A800000AF0346B9607A60FB7300237B61FFF7C8
:105A900061FF78617A68B9687869FFF7B1FF0246FB
:105AA00097F90F3011461846FFF780FF00BF1837EF
:105AB000BD4680BD80B582B000AF0346FB7197F94B
:105AC00007301846FFF754FF00BF0837BD4680BDBA
:105AD00080B485B000AF78607B68002B01D10123D2
