:020000040800F2
:1000000000000120A54C0008514A0008574A00088A
:100010005D4A0008634A0008694A000800000000C1
:1000200000000000000000000000000041D50008B2
:100030006F4A00080000000091D70008A1AD000839
:10004000F54C0008F54C0008F54C0008F54C00088C
:10005000F54C0008F54C0008F54C0008F54C00087C
:10006000F54C0008F54C0008F54C00087D4A0008E6
:10007000F54C0008F54C0008F54C0008F54C00085C
:10008000F54C0008F54C0008F54C0008F54C00084C
:10009000F54C0008F54C0008F54C0008F54C00083C
:1000A000F54C0008F54C0008F54C0008F54C00082C
:1000B000F54C00080000000000000000F54C0008AE
:1000C000F54C0008F54C0008F54C0008F54C00080C
:1000D000F54C0008914A0008F54C0008F54C000862
:1000E000F54C0008F54C000800000000000000007E
:1000F0000000000000000000000000000000000000
:1001000000000000F54C000800000000F54C00085D
:100110000000000000000000B94A0008F54C00088B
:10012000F54C0008F54C0008F54C0008F54C0008AB
:10013000F54C000800000000000000000000000076
:10014000F54C0008F54C0008F54C000800000000D4
:10015000CD4A0008E14A0008F54C0008F54C0008BB
:10016000F54C0008F54C0008F54C000800000000B4
:10017000F54C0008F54C00080000000000000000ED
:0C018000F54C0008F54C0008F54C000898
:1001900010B5054C237833B9044B13B10448AFF3C1
:1001A00000800123237010BD200200200000000009
:1001B000C435010808B5034B1BB103490348AFF32D
:1001C000008008BD0000000024020020C4350108A2
:1001D000034613F8012B002AFBD1181A0138704787
:1001E00001F0FF01102A2BDB10F0070F08D010F8E8
:1001F000013B013A8B422DD010F0070F42B3F6D1EC
:10020000F0B441EA012141EA014122F007047FF004
:1002100000070023F0E80256083C85EA010586EA5B
:10022000010685FA47F5A3FA87F586FA47F6A5FA97
:1002300087F68EB9EED1F0BC01F0FF0102F00702A3
:1002400032B110F8013B013A83EA010313B1F8D14E
:100250000020704701387047002D06BF354603382F
:10026000073815F0010F07D1013015F4807F02BF68
:10027000013015F4C03F0130F0BC0138704700BFB9
:1002800081F0004102E000BF83F0004330B54FEA47
:1002900041044FEA430594EA050F08BF90EA020FB4
:1002A0001FBF54EA000C55EA020C7FEA645C7FEA47
:1002B000655C00F0E2804FEA5454D4EB5555B8BF6A
:1002C0006D420CDD2C4480EA020281EA030382EADB
:1002D000000083EA010180EA020281EA0303362D6D
:1002E00088BF30BD11F0004F4FEA01314FF4801C40
:1002F0004CEA113102D0404261EB410113F0004F52
:100300004FEA03334CEA133302D0524263EB430308
:1003100094EA050F00F0A780A4F10104D5F1200EA6
:100320000DDB02FA0EFC22FA05F2801841F1000101
:1003300003FA0EF2801843FA05F359410EE0A5F1D5
:1003400020050EF1200E012A03FA0EFC28BF4CF006
:10035000020C43FA05F3C01851EBE37101F00045BC
:1003600007D54FF0000EDCF1000C7EEB00006EEBC9
:100370000101B1F5801F1BD3B1F5001F0CD3490853
:100380005FEA30004FEA3C0C04F101044FEA4452AA
:1003900012F5800F80F09A80BCF1004F08BF5FEA31
:1003A000500C50F1000041EB045141EA050130BD11
:1003B0005FEA4C0C404141EB0101013C28BFB1F523
:1003C000801FE9D291F0000F04BF01460020B1FA6E
:1003D00081F308BF2033A3F10B03B3F120020CDA41
:1003E0000C3208DD02F1140CC2F10C0201FA0CF01F
:1003F00021FA02F10CE002F11402D8BFC2F1200C84
:1004000001FA02F120FA0CFCDCBF41EA0C01904039
:10041000E41AA2BF01EB0451294330BD6FEA040482
:100420001F3C1CDA0C340EDC04F11404C4F120026D
:1004300020FA04F001FA02F340EA030021FA04F37F
:1004400045EA030130BDC4F10C04C4F1200220FAD6
:1004500002F001FA04F340EA0300294630BD21FA14
:1004600004F0294630BD94F0000F83F4801306BFDA
:1004700081F480110134013D4EE77FEA645C18BFCE
:100480007FEA655C29D094EA050F08BF90EA020F65
:1004900005D054EA000C04BF1946104630BD91EA5D
:1004A000030F1EBF0021002030BD5FEA545C05D160
:1004B0004000494128BF41F0004130BD14F580049F
:1004C0003CBF01F5801130BD01F0004545F0FE4113
:1004D00041F470014FF0000030BD7FEA645C1ABF48
:1004E000194610467FEA655C1CBF0B46024650EA7F
:1004F000013406BF52EA033591EA030F41F40021AB
:1005000030BD00BF90F0000F04BF0021704730B530
:100510004FF4806404F132044FF000054FF0000105
:1005200050E700BF90F0000F04BF0021704730B5C6
:100530004FF4806404F1320410F0004548BF40429B
:100540004FF000013EE700BF42004FEAE2014FEAF0
:1005500031014FEA02701FBF12F07F4393F07F4FCB
:1005600081F06051704732F07F4208BF704793F0CE
:100570007F4F04BF41F40021704730B54FF46074E1
:1005800001F0004521F000411CE700BF50EA0102E4
:1005900008BF704730B54FF000050AE050EA01028D
:1005A00008BF704730B511F0004502D5404261EBFD
:1005B00041014FF4806404F132045FEA915C3FF43E
:1005C000D8AE4FF003025FEADC0C18BF03325FEADB
:1005D000DC0C18BF033202EBDC02C2F1200300FA8C
:1005E00003FC20FA02F001FA03FE40EA0E0021FAB1
:1005F00002F11444BDE600BF70B54FF0FF0C4CF49F
:10060000E06C1CEA11541DBF1CEA135594EA0C0F50
:1006100095EA0C0F00F0DEF82C4481EA030621EA8B
:100620004C5123EA4C5350EA013518BF52EA0335C6
:1006300041F4801143F4801338D0A0FB02CE4FF078
:100640000005E1FB02E506F00042E0FB03E54FF0A8
:100650000006E1FB03569CF0000F18BF4EF0010EA0
:10066000A4F1FF04B6F5007F64F5407404D25FEA9C
:100670004E0E6D4146EB060642EAC62141EA55514F
:100680004FEAC52040EA5E504FEACE2EB4F1FD0C91
:1006900088BFBCF5E06F1ED8BEF1004F08BF5FEA0F
:1006A000500E50F1000041EB045170BD06F00046C1
:1006B00046EA010140EA020081EA0301B4EB5C046E
:1006C000C2BFD4EB0C0541EA045170BD41F4801166
:1006D0004FF0000E013C00F3AB8014F1360FDEBF8B
:1006E000002001F0004170BDC4F10004203C35DA67
:1006F0000C341BDC04F11404C4F1200500FA05F3EA
:1007000020FA04F001FA05F240EA020001F000428A
:1007100021F0004110EBD37021FA04F642EB060100
:100720005EEA430E08BF20EAD37070BDC4F10C042A
:10073000C4F1200500FA04F320FA05F001FA04F2EE
:1007400040EA020001F0004110EBD37041F10001DA
:100750005EEA430E08BF20EAD37070BDC4F12005E5
:1007600000FA05F24EEA020E20FA04F301FA05F24D
:1007700043EA020321FA04F001F0004121FA04F2F5
:1007800020EA020000EBD3705EEA430E08BF20EAC5
:10079000D37070BD94F0000F0FD101F000464000FF
:1007A00041EB010111F4801F08BF013CF7D041EA81
:1007B000060195F0000F18BF704703F00046520085
:1007C00043EB030313F4801F08BF013DF7D043EA56
:1007D0000603704794EA0C0F0CEA135518BF95EA0C
:1007E0000C0F0CD050EA410618BF52EA4306D1D193
:1007F00081EA030101F000414FF0000070BD50EAB2
:10080000410606BF1046194652EA430619D094EA3B
:100810000C0F02D150EA013613D195EA0C0F05D125
:1008200052EA03361CBF104619460AD181EA030179
:1008300001F0004141F0FE4141F470014FF0000031
:1008400070BD41F0FE4141F4780170BD70B54FF0CC
:10085000FF0C4CF4E06C1CEA11541DBF1CEA13554C
:1008600094EA0C0F95EA0C0F00F0A7F8A4EB05042E
:1008700081EA030E52EA03354FEA013100F0888025
:100880004FEA03334FF0805545EA131343EA1263EE
:100890004FEA022245EA111545EA10654FEA0026A3
:1008A0000EF000419D4208BF964244F1FD0404F55C
:1008B000407402D25B084FEA3202B61A65EB0305B8
:1008C0005B084FEA32024FF480104FF4002CB6EB75
:1008D000020E75EB030E22BFB61A754640EA0C00F5
:1008E0005B084FEA3202B6EB020E75EB030E22BF35
:1008F000B61A754640EA5C005B084FEA3202B6EB76
:10090000020E75EB030E22BFB61A754640EA9C0034
:100910005B084FEA3202B6EB020E75EB030E22BF04
:10092000B61A754640EADC0055EA060E18D04FEAC2
:10093000051545EA16754FEA06164FEAC30343EA62
:1009400052734FEAC2025FEA1C1CC0D111F4801F2F
:100950000BD141EA00014FF000004FF0004CB6E728
:1009600011F4801F04BF01430020B4F1FD0C88BFC7
:10097000BCF5E06F3FF6AFAEB5EB030C04BFB6EBD2
:10098000020C5FEA500C50F1000041EB045170BDC5
:100990000EF0004E4EEA113114EB5C04C2BFD4EBF2
:1009A0000C0541EA045170BD41F480114FF0000E76
:1009B000013C90E645EA060E8DE60CEA135594EAF2
:1009C0000C0F08BF95EA0C0F3FF43BAF94EA0C0FF5
:1009D0000AD150EA01347FF434AF95EA0C0F7FF46A
:1009E00025AF104619462CE795EA0C0F06D152EABE
:1009F00003353FF4FDAE1046194622E750EA4106A2
:100A000018BF52EA43067FF4C5AE50EA41047FF4B2
:100A10000DAF52EA43057FF4EBAE12E74FF0FF3C17
:100A200006E000BF4FF0010C02E000BF4FF0010CE8
:100A30004DF804CD4FEA410C7FEA6C5C4FEA430C61
:100A400018BF7FEA6C5C1BD001B050EA410C0CBFB0
:100A500052EA430C91EA030F02BF90EA020F002012
:100A6000704710F1000F91EA030F58BF994208BF79
:100A700090422CBFD8176FEAE37040F00100704736
:100A80004FEA410C7FEA6C5C02D150EA013C07D18D
:100A90004FEA430C7FEA6C5CD6D152EA033CD3D0D8
:100AA0005DF8040B704700BF8446104662468C46D2
:100AB0001946634600E000BF01B5FFF7B7FF002805
:100AC00048BF10F1000F01BD4DF808EDFFF7F4FF2E
:100AD0000CBF012000205DF808FB00BF4DF808EDB9
:100AE000FFF7EAFF34BF012000205DF808FB00BFDC
:100AF0004DF808EDFFF7E0FF94BF012000205DF8FE
:100B000008FB00BF4DF808EDFFF7CEFF94BF0120B2
:100B100000205DF808FB00BF4DF808EDFFF7C4FFAB
:100B200034BF012000205DF808FB00BF4FEA410CF4
:100B30007FEA6C5C02D150EA013C0AD14FEA430CD7
:100B40007FEA6C5C02D152EA033C02D14FF0000014
:100B500070474FF0010070474FEA410212F5001252
:100B600015D211D56FF47873B3EB625212D94FEAF4
:100B7000C12343F0004343EA505311F0004F23FADE
:100B800002F018BF404270474FF00000704750EA33
:100B9000013005D111F0004008BF6FF000407047F0
:100BA0004FF00000704700BF4A0011D212F500124A
:100BB00011D20DD56FF47873B3EB62520ED44FEAB5
:100BC000C12343F0004343EA505323FA02F0704735
:100BD0004FF00000704750EA013002D14FF0FF3073
:100BE00070474FF0000070474FEA4102B2F1E04316
:100BF00024BFB3F5001CDCF1FE5C0DD901F0004C04
:100C00004FEAC0024CEA5070B2F1004F40EB830053
:100C100008BF20F00100704711F0804F21D113F17F
:100C20003872BCBF01F00040704741F480114FEAB8
:100C30005252C2F11802C2F1200C10FA0CF320FA41
:100C400002F018BF40F001004FEAC1234FEAD3235E
:100C500003FA0CFC40EA0C0023FA02F34FEA4303C8
:100C6000CCE77FEA625307D150EA01331EBF4FF051
:100C7000FE4040F44000704701F0004040F0FE406C
:100C800040F40000704700BF53B94AB9002908BFBB
:100C900000281CBF4FF0FF314FF0FF3000F0A4B927
:100CA000ADF1080C6DE904CE00F03CF8DDF804E08D
:100CB000DDE9022304B0704738B500220023044662
:100CC0000D46FFF70BFF28B920462946BDE83840FE
:100CD00000F00AB8204605F1004100F005F8404256
:100CE00061EB410138BD00BFD0B50C4B0022064678
:100CF0000F46FFF781FCFFF757FF0446FFF702FCA2
:100D0000074B0022FFF778FC02460B463046394677
:100D1000FFF7BAFAFFF748FF2146D0BD0000F03DCB
:100D20000000F0412DE9F047089D04468C46002B59
:100D300040F083808A42174647D9B2FA82F242B124
:100D4000C2F1200024FA00F09140974040EA010CE3
:100D500094404FEA1748230CBCFBF8F61FFA87FEB5
:100D600008FB16C143EA014306FB0EF1994209D97B
:100D7000FB1806F1FF3080F01981994240F216818C
:100D8000023E3B445B1AA4B2B3FBF8F008FB1033FD
:100D900044EA034400FB0EFEA64509D93C1900F1C4
:100DA000FF3380F00581A64540F2028102383C44C1
:100DB00040EA0640A4EB0E0400261DB1D4400023F7
:100DC000C5E900433146BDE8F08702B9FFDEB2FA5B
:100DD00082F2002A50D1CB1B4FEA174E1FFA87F838
:100DE0000126B3FBFEFC210C0EFB1C3341EA034140
:100DF00008FB0CF38B4207D979180CF1FF3002D2B3
:100E00008B4200F2E9808446C91AA3B2B1FBFEF01E
:100E10000EFB101143EA014408FB00F8A04507D976
:100E20003C1900F1FF3302D2A04500F2D9801846E8
:100E3000A4EB080440EA0C40BFE78B4209D9002D1F
:100E400000F0B1800026C5E9000130463146BDE81A
:100E5000F087B3FA83F6002E4AD18B4202D3824246
:100E600000F2B880841A61EB030101208C46002D4A
:100E7000A8D0C5E9004CA5E7C2F1200320FA03F68B
:100E8000974001FA02F04FEA174ED9403043030C65
:100E9000B1FBFEF61FFA87F80EFB161143EA014379
:100EA00006FB08F1994204FA02F409D9FB1806F18D
:100EB000FF3C80F08D80994240F28A80023E3B44A4
:100EC0005B1A81B2B3FBFEF00EFB103341EA034123
:100ED00000FB08F38B4207D9791800F1FF3C73D26D
:100EE0008B4271D902383944CB1A40EA064678E77A
:100EF000C6F1200C03FA06F422FA0CF31C4320FA84
:100F00000CF701FA06F34FEA144E21FA0CF11F43D5
:100F10003B0CB1FBFEF91FFA84F80EFB191143EAF2
:100F2000014109FB08FA8A4502FA06F200FA06F3C3
:100F300008D9611809F1FF3048D28A4546D9A9F18C
:100F400002092144A1EB0A01BFB2B1FBFEF00EFB86
:100F5000101147EA014700FB08F8B84507D9E7191F
:100F600000F1FF312ED2B8452CD90238274440EA8F
:100F70000940A7EB0807A0FB02894F45C646494632
:100F80001AD317D05DB1B3EB0E0267EB010707FA76
:100F90000CFCF2404CEA0202F740C5E900270026AB
:100FA0003146BDE8F0872E4628460BE70646E9E6BF
:100FB0001846FDE64345E5D2B8EB020E69EB0401A5
:100FC0000138DFE70846D2E760468DE78146B9E79A
:100FD000664675E730464AE7ACF1020C394413E740
:100FE00002383C4424E700BF704700BF80B400AF24
:100FF00000BFBD465DF8047B704780B400AF00239E
:101000001846BD465DF8047B704780B483B000AFDE
:101010007860396000BF0C37BD465DF8047B7047CF
:1010200080B500AF0B4BDA680B4B1B6803F29313D0
:101030009A4208D2074BDB68F02B04D901F092FAF0
:1010400001F008FA04E001F045FA01F073FA00BF7C
:1010500000BF80BDA05900205802002080B500AF1D
:1010600001F068FA01F0F6F900BF80BD80B500AF6D
:101070005B4B1B780D2B00F2AE8001A252F823F0DF
:10108000B9100008BF100008D5100008EB100008C8
:101090000311000819110008311100084711000858
:1010A0004D11000863110008791100089111000822
:1010B000A7110008BF110008FFF7D0FF8EE0494BD1
:1010C0005B6DB3F5616F02D9FFF7C8FF86E0FFF7EC
:1010D000A7FF83E0434B5B6DB3F5E15F02D9FFF7F8
:1010E000BDFF7BE0FFF79CFF78E03E4B5B6D42F677
:1010F0003022934202D9FFF7B1FF6FE0FFF790FF74
:101100006CE0384B5B6DB3F5615F02D9FFF7A6FF6A
:1011100064E0FFF785FF61E0324B5B6D44F25062A3
:10112000934202D9FFF79AFF58E0FFF779FF55E0A5
:101130002C4B5B6D45F26042934202D9FFF78EFF64
:1011400001E0FFF76DFFFFF789FF47E0254B5B6D7F
:10115000B3F5616F02D9FFF781FF3FE0FFF760FF52
:101160003CE0204B5B6DB3F5E15F02D9FFF776FF02
:1011700034E0FFF755FF31E01A4B5B6D42F6302249
:10118000934202D9FFF76AFF28E0FFF749FF25E005
:10119000144B5B6DB3F5615F02D9FFF75FFF1DE094
:1011A000FFF73EFF1AE00F4B5B6D44F25062934233
:1011B00002D9FFF753FF11E0FFF732FF0EE0094BB2
:1011C0005B6D45F26042934202D9FFF747FF05E0AD
:1011D000FFF726FF02E001F0ADF900BF00BF80BDC0
:1011E0009C590020985C002080B500AF774B1B68AD
:1011F0001B2B00F2D88001A252F823F06D120008D8
:10120000F71200082F1300082F1300082F130008EF
:101210002F1300082F1300082F1300082F130008A6
:101220002F1300082F1300082F1300082F13000896
:101230002F1300082F1300082F1300082F13000886
:101240004F1300084F1300084F1300084F130008F6
:101250004F1300084F1300084F1300084F130008E6
:101260004F1300084F13000877130008584B1B68F2
:10127000C82B08D9574B1B68002B04D1564B40F69E
:10128000C4121A6013E0534B1B68012B0FD1534B50
:101290001B68002B0BD1504B01221A60504B9B6EE8
:1012A00001334F4A93664D4B40F241321A604A4B2C
:1012B0001B68002B04D0484B1B68013B464A136057
:1012C000464B1B68002B04D0444B1B68013B434A30
:1012D0001360414B1B68002B02D13C4B01221A606A
:1012E0004048FEF775FF03463E4A13443E49184600
:1012F0000DF08AFD68E03D4B01221A6001F0EAF82A
:1013000001F030F9314B02221A60354BDB6A0133B0
:10131000334AD36201F02EF83248FEF759FF0346F4
:10132000304A1344324918460DF06EFD4CE0274B0D
:101330001B680133254A13602A48FEF749FF03461C
:10134000284A13442B4918460DF05EFD3CE001F09D
:10135000F1F81E4B1B6801331C4A136001F042F880
:101360002048FEF735FF03461E4A1344224918461B
:101370000DF04AFD28E0154B00221A601B4B00229D
:101380001A60154B40F6C4121A601C4B00229A6476
:101390001448FEF71DFF0346124A13441849184625
:1013A0000DF032FD10E0094B00221A600F4B0022B5
:1013B0001A600C48FEF70CFF03460A4A1344114911
:1013C00018460DF021FD00BF00BF80BD4463002022
:1013D000A05900205402002010000020140000201A
:1013E000345A0020C45D0020F8350108C86100208F
:1013F000003601080836010810360108C4590020DB
:10140000183601082036010880B500AFA04B1B68D4
:10141000252B00F22A8101A252F823F0B51400080E
:1014200095150008D7150008D7150008D71500082E
:10143000D7150008D7150008D7150008D7150008DC
:10144000D7150008D7150008D7150008D7150008CC
:10145000D7150008D7150008D7150008D7150008BC
:10146000D7150008D7150008D7150008D7150008AC
:10147000D7150008D7150008D7150008D71500089C
:10148000D7150008D7150008F7150008F71500084C
:10149000F7150008F7150008F7150008F7150008FC
:1014A000F7150008F7150008F7150008F7150008EC
:1014B00035160008774B1B68FA2B0CD9754B1B6847
:1014C00043F2BB42934206D8734B23221A60734BFC
:1014D00000229A641EE06F4B1B6844F27402934230
:1014E00009D96D4B00221A606C4B01229A636B4B39
:1014F00000229A640EE0674B1B68FA2B0AD8674BF0
:101500009B6C002B06D1654B01229A64624B40F222
:10151000E2421A60624B1B68012B13D1614B1B68BE
:10152000002B0FD0604B1B68002B0BD15A4B0122B4
:101530001A605E4B9B6E01335C4A93665A4B40F2D5
:1015400041321A60544B1B68002B08D0554B1B6866
:10155000002B04D0504B1B68013B4F4A1360524B89
:101560001B68002B04D0504B1B68013B4E4A136094
:10157000494B1B68002B02D1454B01221A604C4895
:10158000FEF726FE03464A4A13444A4918460DF020
:101590003BFC7BE0484B01221A6000F0E3FF3C4B30
:1015A00011221A603D4B9B6B002B02D0384B02225C
:1015B0001A603E4B5B6E01333C4A536600F0DAFE24
:1015C0003B48FEF705FE0346394A13443B4918469B
:1015D0000DF01AFC5AE02E4B1B6801332C4A1360A5
:1015E0003348FEF7F5FD0346314A134434491846A3
:1015F0000DF00AFC4AE000F09DFF00F02BFF244BA9
:101600001B680133224A136000F0ECFE214B1B687B
:1016100044F27402934202D91D4B01221A602448FD
:10162000FEF7D6FD0346224A1344264918460DF01C
:10163000EBFB2BE0194B00229A63154B00221A603A
:101640001D4B00221A60144B40F6C4121A60134B53
:1016500000229A641648FEF7BBFD0346144A134461
:10166000194918460DF0D0FB10E0094B00221A6012
:10167000114B00221A600E48FEF7AAFD03460C4AE1
:101680001344124918460DF0BFFB00BF00BF80BDD8
:1016900044630020A059002010000020C4590020FD
:1016A000540200204C02002014000020345A002074
:1016B000C45D002028360108C861002030360108CA
:1016C000383601084036010848360108503601080E
:1016D00084B080B588B000AF07F1280C8CE80F000B
:1016E00060237B60B7F87C30BB600023FB6008237D
:1016F0003B6100237B613B1D7A6F194607F128008F
:1017000007F060FA796F07F1280006F0D5FF00BFF7
:101710002037BD46BDE8804004B0704784B080B536
:1017200088B000AF07F1280C8CE80F00B7F87830CC
:10173000BB6060237B600023FB6000233B610023D0
:101740007B610023BB610023FB613B1D7A6F19465F
:1017500007F1280007F036FA796F07F1280006F044
:10176000ABFF00BF2037BD46BDE8804004B07047E6
:1017700080B500AF614B1B68002B1DD05F4B1B6811
:10178000013B5E4A136000224FF400415C4805F0C3
:1017900087FC00224FF48041594805F081FC00226B
:1017A0004FF40051564805F07BFC00224FF4805165
:1017B000534805F075FC9FE0524B9B69462B03D8BC
:1017C000504B5B69462B1DD94E4B9B69462B05D967
:1017D00001224FF400414A4805F062FC494B5B6925
:1017E000462B05D901224FF48041454805F058FCAD
:1017F00001224FF40051424805F052FC3F4B0122B8
:101800001A6079E0404B1B6A002B0FD001224FF485
:1018100000413B4805F044FC01224FF48041384828
:1018200005F03EFC354B01221A6065E0364B1B6922
:10183000002B09D001224FF40041314805F030FC63
:101840002E4B01221A6057E02F4BDB68002B1BD078
:101850002E4B1B68002B0DD02D4B1B68002B09D085
:1018600001224FF48041264805F01AFC234B012247
:101870001A6041E001224FF48041214805F010FC3C
:101880001E4B03221A6037E01F4B9B68002B09D0C8
:1018900001224FF400411A4805F002FC174B0922BF
:1018A0001A6029E0184B5B68002B09D001224FF425
:1018B0000041134805F0F4FB104B01221A601BE0B5
:1018C000114B1B68002B09D001224FF400410C483A
:1018D00005F0E6FB094B01221A600DE00A4BDB69BB
:1018E000002B09D001224FF48041054805F0D8FBB8
:1018F000024B09221A60FFE700BF80BDC0590020DB
:1019000000040048A0590020C45900204C020020C7
:101910004802002080B483B000AF00237B600AE05F
:101920007B68134A134413497A680A4412781A7080
:101930007B6801337B607B68272BF1D90C4B1B68DC
:10194000B3F1FF3F0DD100237B6007E07B68084ABD
:10195000134400221A707B6801337B607B68272B5D
:10196000F4D900BF0C37BD465DF8047B704700BF5B
:10197000705C002000A0030880B588B000AF002391
:10198000FB610023BB611F4B1B6801331D4A1360C1
:1019900000237B6001233B617423FB600123BB6058
:1019A00004F0D4FF184BB3221A6107F114023B1D57
:1019B0001146184605F0BCF81AE0BB69134A1344F7
:1019C0001946FB69DB00124A1344D3E900230020C7
:1019D00004F050FF0346002B06D1BB690833BB61FE
:1019E000FB690133FB6103E004F0E2FF034605E01D
:1019F000FB69042BE1D904F0CBFF00231846203704
:101A0000BD4680BD345A00200020024000A00308DB
:101A1000705C002080B584B000AF0023BB60002361
:101A20007B603F4B00221A600023FB602FE0042301
:101A30003B600DE03B68013B3B60BB681B023949E2
:101A4000FA68D20211443A680A4412781343BB6020
:101A50003B68002BEED1BB68B3F1FF3F01D10023FF
:101A6000BB60BA687B689A4209D92D4AFB6813604B
:101A7000BB687B604FF400512B4805F029FB4FF405
:101A80008041294805F024FBFB680133FB60FB68BB
:101A9000332BCCD900224FF48041234805F000FBC2
:101AA00000224FF40051204805F0FAFA0023FB60B1
:101AB0000EE01B4B1A68FB681C490B441949D20203
:101AC0001144FA680A4412781A70FB680133FB600B
:101AD000FB68BF2BEDD9154BDB69B3F1FF3F13D189
:101AE0000023FB600CE0FB68114A134400221A70CB
:101AF000FB680E4A134400221A70FB680133FB6036
:101B0000FB68BF2BEFD907E0094A084B104619467E
:101B1000C0231A460CF00DFA00BF1037BD4680BD39
:101B2000C461002000000208000400483862002060
:101B3000345A002080B588B000AF0023FB61002339
:101B4000BB61304A304B10461946C0231A460CF090
:101B5000F0F92E4B1B68322B05D82C4B1B68013338
:101B60002A4A136002E0294B00221A60264B1B68A8
:101B70000133254A136000237B6001233B61234B23
:101B80001B684033FB600123BB6004F0DFFE204B89
:101B9000B3221A6107F114023B1D1146184604F0E6
:101BA000C7FF04F0F5FE04F0D1FE194BB3221A6111
:101BB0001EE0164B1B68DA02BB691344154A134436
:101BC0001946FB69DB000F4A1344D3E900230020C8
:101BD00004F050FE0346002B06D1BB690833BB61FD
:101BE000FB690133FB6103E004F0E2FE034605E01C
:101BF000FB69172BDDD904F0CBFE002318462037F4
:101C0000BD4680BD38620020345A0020C4610020E7
:101C1000002002400000020880B586B000AF274BCC
:101C20001B68184609F08EFA00237B610CE07B6983
:101C3000234A134400221A707B69224A134400226B
:101C40001A707B6901337B617B69BF2BEFD91E4B17
:101C500000221A6000233B600123FB601A4B1B68C3
:101C60004033BB6001237B6004F070FE174BB3224E
:101C70001A610FE007F110023B461146184604F0C6
:101C800057FF114B1B6801330F4A13600E4B1B6843
:101C90004033BB600C4B1B68322BEBD904F078FE51
:101CA000094B00221A60054B1B686421184609F095
:101CB0001BFA00BF1837BD4680BD00BFC05D0020C5
:101CC000345A002038620020C46100200020024005
:101CD00080B400AF924B1B68002B11D0904B0022B8
:101CE0001A60904B1A68904BDB688F49496801FB7A
:101CF00003F38E49A1FB03135B0B1344894A136062
:101D0000874B5B68002B11D0854B00225A60854BB6
:101D10005A68854BDB688449496801FB03F38349B2
:101D2000A1FB03135B0B13447E4A53607C4B9B68FF
:101D3000002B11D07A4B00229A607A4B9A687A4B2A
:101D40009B687949096801FB03F37849A1FB0313F8
:101D50005B0B1344734A9360714BDB68002B11D00B
:101D60006F4B0022DA606F4BDA686F4BDB686E49AD
:101D7000096801FB03F36D49A1FB03135B0B1344DB
:101D8000684AD360664B1B69002B11D0644B00225C
:101D90001A61644B1A69644BDB686349496801FB4B
:101DA00003F36249A1FB03135B0B13445D4A136108
:101DB0005B4BDB69002B07D0594B0022DA61594B92
:101DC000DB690133574AD361554B1B6A002B07D09F
:101DD000534B00221A62534B1B6A0133514A136260
:101DE0004F4B9B69002B07D04D4B00229A614D4B06
:101DF0009B6901334B4A9361494B5B6D002B07D0C4
:101E0000474B00225A65474B5B6D0133454A53658A
:101E1000434BDB6B002B09D0414B0022DA63444B70
:101E2000D3F8A0300133424AC2F8A0303C4B9B6D3E
:101E3000002B09D03A4B00229A653A4B9A6D3A4BE7
:101E40005B681344374A9365354BDB6D002B09D033
:101E5000334B0022DA65334BDA6D334B1B68134486
:101E6000304AD365304B5A69314B5B6B9A4208D389
:101E70002D4B5B692E4A53632D4B9B6B01332C4AD0
:101E80009363294B9A692A4BDB6B9A4208D3264B02
:101E90009B69274AD363264B1B6C0133244A136486
:101EA000214B1A68224B5B6C9A4208D31E4B1B686D
:101EB0001F4A53641E4B9B6C01331D4A93641A4B9B
:101EC0005A681B4BDB6C9A4208D3174B5B68184A65
:101ED000D364174B1B6D0133154A1365124BDA6837
:101EE000134B5B6D9A4208D30F4BDB68104A536566
:101EF0000F4B9B6D01330E4A93650B4BDB68F02B48
:101F000027D90B4BDB6DF02B14D8074BDB68084A45
:101F1000D365074B1B6E0133054A136619E000BFFA
:101F2000C4590020985C0020A05900205917B7D14F
:101F3000345A0020094BDA68094BDB6D9A4208D805
:101F4000064BDB68064AD365054B1B6E0133044A1A
:101F5000136600BFBD465DF8047B7047A0590020A2
:101F6000345A002080B400AFAB4B1B68AB4AA2FBD5
:101F700003235A0913461B019B1A9B001A46A84BC0
:101F80005A60A74B9968A44B5B68A44AA2FB032341
:101F90005A0913461B019B1A9B000B44A04A9360ED
:101FA0009F4B9A699C4B9B6913449D4A93619C4B40
:101FB000D968994B9B68994AA2FB03235A09134697
:101FC0001B019B1A9B000B44954AD360944B1969E3
:101FD000914BDB68914AA2FB03235A0913461B016C
:101FE0009B1A9B000B448E4A13618D4B59698A4B97
:101FF0001B698A4AA2FB03235A0913461B019B1A39
:102000009B000B44864A5361854BD3F89410824B56
:102010009B6D824AA2FB03235A0913461B019B1A9C
:102020009B000B447E4AC2F894307E4B1B78062BF3
:1020300011D87B4BD3F8B010774B9B6D774AA2FB3E
:1020400003235A0913461B019B1A9B000B44744A35
:10205000C2F8B03044E0734B1B78062B15D9714B96
:102060001B780D2B11D86E4BD3F8B8106A4B9B6DB3
:102070006A4AA2FB03235A0913461B019B1A9B00C1
:102080000B44674AC2F8B8302AE0664B1B780E2B27
:1020900011D1634BD3F8B8105F4B9B6D5F4AA2FB25
:1020A00003235A0913461B019B1A9B000B445C4AED
:1020B000C2F8B83014E05B4B1B780F2B10D1584B93
:1020C000D3F8B810544B9B6D544AA2FB03235A0912
:1020D00013461B019B1A9B000B44514AC2F8B830AF
:1020E0004F4BD96F4C4BDB6D4C4AA2FB03235A0973
:1020F00013461B019B1A9B000B44494AD367494B6B
:102100001B78062B11D8464BD3F8B410424BDB6D2D
:10211000424AA2FB03235A0913461B019B1A9B0048
:102120000B443F4AC2F8B43044E03E4B1B78062BC8
:1021300015D93C4B1B780D2B11D8394BD3F8BC105B
:10214000354BDB6D354AA2FB03235A0913461B01AD
:102150009B1A9B000B44324AC2F8BC302AE0314B38
:102160001B780E2B11D12E4BD3F8BC102A4BDB6DF4
:102170002A4AA2FB03235A0913461B019B1A9B0000
:102180000B44274AC2F8BC3014E0264B1B780F2BB7
:1021900010D1234BD3F8BC101F4BDB6D1F4AA2FBA1
:1021A00003235A0913461B019B1A9B000B441C4A2C
:1021B000C2F8BC301A4BDA69174BDB691344184A72
:1021C000D361174B1A6A144B1B6A1344144A1362E7
:1021D000114B00229A65104B0022DA650E4B00224B
:1021E0001A600D4B00225A600B4B00229A610A4B79
:1021F00000229A60084B0022DA60074B00221A6125
:10220000054B0022DA61044B00221A6200BFBD4672
:102210005DF8047B704700BF985C0020898888883F
:10222000345A00209C59002080B500AF01211E487F
:1022300004F01EFF03461A461C4B1A7010211C485E
:1022400004F016FF03465B00DAB2184B1B78134408
:10225000DAB2164B1A700221134804F009FF034644
:102260009B00DAB2114B1B781344DAB20F4B1A7091
:1022700020210F4804F0FCFE0346DB00DAB20B4BD2
:102280001B781344DAB2094B1A70084B1B78DB43F6
:10229000DAB2064B1A70054B1B7803F00F03DAB263
:1022A000024B1A7000BF80BD000400489C590020FA
:1022B0000008004880B582B000AF124B1B68002BAD
:1022C0001BD1104B01221A60012210214FF09040C7
:1022D00004F0E6FE0C490D480CF096FD0B48FDF7A6
:1022E00077FF78607B689BB21A460849084807F078
:1022F000F7F90A2008F04BFE00E000BF0837BD46A2
:1023000080BD00BF5002002058360108C45D002087
:10231000EC5B002080B582B000AF124B1B68002B35
:102320001BD0104B00221A60002210214FF0904069
:1023300004F0B6FE0C490D480CF066FD0B48FDF7A5
:1023400047FF78607B689BB21A460849084807F047
:10235000C7F9642008F01BFE00E000BF0837BD4647
:1023600080BD00BF5002002068360108C45D002017
:10237000EC5B0020F0B599B012AF184EC823109353
:1023800000230F936D4606F110040FCC0FC50FCC40
:102390000FC50FCC0FC594E8070085E8070096E845
:1023A0000F00FFF7BBF900210C4806F085F93B1D33
:1023B00000221A605A609A60DA601A614FF4007362
:1023C0007B600023BB600223FB603B1D1946044871
:1023D00004F0D4FC00BF1C37BD46F0BDF8620020FD
:1023E00000040048F0B599B012AF184E00231093C6
:1023F00000230F936D4606F110040FCC0FC50FCCD0
:102400000FC50FCC0FC594E8070085E8070096E8D4
:102410000F00FFF783F900210C4806F02BFA3B1D53
:1024200000221A605A609A60DA601A614FF40073F1
:102430007B600023BB600023FB603B1D1946044802
:1024400004F09CFC00BF1C37BD46F0BDF8620020C4
:1024500000040048F0B593B012AF1B4B9B69462BAC
:1024600002D900F037F82BE0184B1B68002B26D15F
:10247000002240214FF0904004F012FE144E4FF421
:10248000FA731193FE23109300230F936D4606F108
:1024900010040FCC0FC50FCC0FC50FCC0FC594E89F
:1024A000070085E8070096E80F00FFF711F9002103
:1024B000074806F001F9054B01221A6000E000BF51
:1024C0000437BD46F0BD00BFA059002048020020DF
:1024D000EC610020F0B593B012AF144E00231193BD
:1024E000FE23109300230F936D4606F110040FCCCA
:1024F0000FC50FCC0FC50FCC0FC594E8070085E8BA
:10250000070096E80F00FFF7E3F8012240214FF0A3
:10251000904004F0C5FD0021044806F0ABF9044BDF
:1025200000221A6000BF0437BD46F0BDEC610020F8
:102530004802002080B500AF084B5B69462B02D9EA
:1025400000F010F808E0002280214FF0904004F0E5
:10255000A7FD034B01221A6000BF80BDA0590020D7
:102560004C02002080B500AF012280214FF0904046
:1025700004F096FD024B00221A6000BF80BD00BF30
:102580004C02002000000000B0B588B000AF7860B9
:102590007868FDF7B7FF02460B46C7E906239FEDB3
:1025A000281B97ED060B10F063F851EC100B28A3D5
:1025B000D3E90023FEF720F802460B4614461D46D9
:1025C0009FED211B97ED060B10F052F851EC100B0C
:1025D00021A3D3E90023FEF70FF802460B4620465D
:1025E0002946FDF753FE02460B4614461D461CA322
:1025F000D3E90023D7E90601FDF7FEFF02460B46AB
:1026000020462946FDF740FE02460B461046194675
:1026100015A3D3E90023FDF739FE02460B46C7E9AF
:102620000423D7E90401FEF7BFFA0346FB60FB6809
:102630000D3BFB60FB6818462037BD46B0BD00BFB0
:102640000000000000000840000000000000004002
:1026500085F743D694103EBE2D431CEBE2360A3F6D
:10266000B459F5B9DA8ABD3FEC51B81E85EB5E402E
:1026700080B584B000AF78607B6807EE903AF8EEE2
:10268000677A9FED277A67EE877A9FED267AC7EE05
:10269000876A16EE900AFDF757FF02460B46C7E918
:1026A000022319A3D3E90023D7E90201FDF7A4FF10
:1026B00002460B46C7E9022315A3D3E90023D7E955
:1026C0000201FDF799FF02460B46104619464FF0EE
:1026D0000002154BFEF7BAF802460B46C7E9022383
:1026E0000DA3D3E90023D7E90201FDF785FF0246D8
:1026F0000B46C7E90223D7E90201FEF755FA034664
:1027000018461037BD4680BD00000080EB510A40DE
:102710000000000000607E409A9999999999B93F0C
:102720000000C84200F07F4500003040000000007B
:1027300080B584B000AF78607868FDF7E3FE1EA333
:10274000D3E90023FDF758FF02460B46C7E90223F1
:102750004FF00002164BD7E90201FEF777F8024668
:102760000B46C7E902234FF00002124BD7E90201E2
:10277000FDF78CFD02460B46C7E902234FF000022D
:102780004FF00003D7E90201FEF7A8F90346002B3A
:1027900005D04FF000024FF00003C7E90223D7E94C
:1027A0000201FEF701FA034618461037BD4680BD08
:1027B00000408F40000039400000000000E0AD40C4
:1027C00080B586B000AF02F096FA00F043F800F052
:1027D0009BFA00F05FFA00F081F800F02BFA00F0AD
:1027E00057F900F0AFF93B1D00221A605A609A6059
:1027F000DA601A614FF400737B600023BB60002332
:10280000FB603B1D19460C4804F0B8FA08F0E2FAE8
:102810000A4B002201210A4808F0EAFB0346094A54
:102820001360094A0021094808F01EFB0346084AC4
:10283000136008F0F3FAFEE7000400485042010874
:1028400035430008C05D00202C420108C93B000848
:102850009859002080B596B000AF07F114034422C8
:10286000002118460BF073FB3B4600221A605A60A9
:102870009A60DA601A614FF4007004F051FC03466C
:10288000002B01D001F05AFE01237B614FF480330D
:10289000BB610023FB6307F11403184604F096FCA8
:1028A0000346002B01D001F049FE0F233B600223B9
:1028B0007B600023BB600023FB6000233B613B4641
:1028C0000021184605F094F80346002B01D001F0D2
:1028D00035FE00BF5837BD4680BD000080B586B0CC
:1028E00000AF3B4600221A605A609A60DA601A61B3
:1028F0005A615D4B5D4A1A605B4B4FF480225A600F
:10290000594B00229A60584B0022DA60564B012244
:102910001A61554B04225A61534B00221A76524BCE
:1029200000225A76504B0822DA614F4B002283F87E
:1029300020204D4B00229A624B4B0022DA624A4B18
:10294000012283F83020484B00225A63464B002274
:1029500083F83820444802F0F5FB0346002B01D0F1
:1029600001F0ECFD424B3B6006237B600123BB6022
:102970007F23FB6004233B6100237B613B461946B8
:10298000394802F02DFE0346002B01D001F0D6FDA0
:10299000384B3B600C237B603B461946324802F0C3
:1029A0001FFE0346002B01D001F0C8FD324B3B60F7
:1029B00012237B600023BB603B4619462A4802F085
:1029C0000FFE0346002B01D001F0B8FD2B4B3B60FE
:1029D00018237B603B461946234802F001FE03465C
:1029E000002B01D001F0AAFD254B3B604FF4807312
:1029F0007B603B4619461C4802F0F2FD0346002B63
:102A000001D001F09BFD1F4B3B604FF483737B6053
:102A10003B461946144802F0E3FD0346002B01D063
:102A200001F08CFD184B3B604FF486737B603B4696
:102A300019460D4802F0D4FD0346002B01D001F0E9
:102A40007DFD124B3B604FF489737B603B4619461A
:102A5000054802F0C5FD0346002B01D001F06EFDD4
:102A600000BF1837BD4680BD405B00200000045009
:102A700002003004040060080800900C1000C01030
:102A80002000F014400020198000501D010000803B
:102A900080B58AB000AF07F11C0300221A605A60AB
:102AA0009A603B4600221A605A609A60DA601A61A6
:102AB0005A619A61224B4FF080421A60204B0122EA
:102AC0005A601F4B00229A601D4B4FF47A72DA60F5
:102AD0001B4B4FF400721A61194B80229A611848FF
:102AE00005F092FD0346002B01D001F027FD0023E5
:102AF000FB6100237B6207F11C031946104806F0B6
:102B0000A5FC0346002B01D001F018FD60233B60BB
:102B100000237B600023BB6000233B613B46002217
:102B20001946074806F04EF80346002B01D001F085
:102B300005FD034801F00CFE00BF2837BD4680BDEF
:102B4000EC61002080B592B000AF07F12C030022A9
:102B50001A605A609A60DA601A615A619A613B465B
:102B60002C22002118460BF0F2F9304B304A1A6043
:102B70002E4B01225A602D4B00229A602B4B4FF4B2
:102B8000FA72DA60294B00221A61284B00225A613E
:102B9000264B80229A61254805F08AFC0346002BCB
:102BA00001D001F0CBFC214805F02EFD0346002B9F
:102BB00001D001F0C3FC6023FB62FE233B630023D2
:102BC0007B630023BB630023FB6300233B64002380
:102BD0007B6407F12C0300221946144805F0F2FF2C
:102BE0000346002B01D001F0A9FC00233B60002329
:102BF0007B600023BB600023FB6000233B614FF43C
:102C000000537B610023BB623B461946074806F030
:102C100083FC0346002B01D001F090FC034801F037
:102C200097FD00BF4837BD4680BD00BFF862002059
:102C30000044014080B500AF144B154A1A60134B95
:102C40004FF4E1325A60114B00229A600F4B002280
:102C5000DA600E4B00221A610C4B0C225A610B4BAE
:102C600000229A61094B4FF40042DA61074B0022BF
:102C70001A62064B00225A62044806F0E3FC03463F
:102C8000002B01D001F05AFC00BF80BDEC5B00209E
:102C90000038014080B582B000AF1A4B9B6C194AD6
:102CA00043F001039364174B9B6C03F001037B60BB
:102CB0007B68144B9B6C134A43F002039364114BE3
:102CC0009B6C03F002033B603B68002205210B2054
:102CD00003F024FB0B2003F03DFB002205214420E0
:102CE00003F01CFB442003F035FB002205214520A6
:102CF00003F014FB452003F02DFB00BF0837BD4651
:102D000080BD00BF0010024080B58AB000AF07F15F
:102D1000140300221A605A609A60DA601A61424B0A
:102D2000DB6C414A43F08003D3643F4BDB6C03F020
:102D300080033B613B693C4BDB6C3B4A43F0040343
:102D4000D364394BDB6C03F00403FB60FB68364B48
:102D5000DB6C354A43F00103D364334BDB6C03F087
:102D60000103BB60BB68304BDB6C2F4A43F00203AE
:102D7000D3642D4BDB6C03F002037B607B68002285
:102D80004FF4E8714FF0904004F08AF900224FF4BC
:102D90007041264804F084F94FF4E8737B61012305
:102DA000BB610023FB6100233B6207F1140319465A
:102DB0004FF0904003F0E2FF30237B610023BB61C2
:102DC0000123FB6107F114031946194803F0D6FFEC
:102DD00003237B610023BB610123FB6107F1140323
:102DE0001946124803F0CAFF4FF401737B610023B8
:102DF000BB610223FB6107F1140319460B4803F082
:102E0000BDFF4FF470437B610123BB610023FB6175
:102E100000233B6207F114031946044803F0AEFF98
:102E200000BF2837BD4680BD0010024000040048A6
:102E30000008004880B58AB000AF78607B681B68E6
:102E4000DB6903F01003102B40F09B818D4B1B6856
:102E500010221A628C4B1B780133DAB28A4B1A703B
:102E60008A4B1B887B837B681B6F1B685B689BB2EC
:102E7000C3F17F039AB2854B1A807F23FB84844B76
:102E80001B78012B19D8824B1B78002B0FD07F4B5E
:102E90001B887A8B9A4207D37C4B1A887B8BD31A78
:102EA0009BB27F33FB840AE08023FB8407E0774BEF
:102EB0001A887B8BD31AFB8401E08123FB84FB8C73
:102EC000002B00F03C81FB8C7F2B00F238817B8B48
:102ED000704AD35C662B04D07B8B6E4AD35C462B46
:102EE00002D16D4B04221A607B8B6A4AD35C632B40
:102EF00004D07B8B674AD35C432B02D1664B0522FF
:102F00001A607B8B634AD35C772B04D07B8B614A3E
:102F1000D35C572B02D1604B03221A607B8B5D4A36
:102F2000D35C652B04D07B8B5A4AD35C452B1ED1D6
:102F30005A4B1B687B6100233B620CE03B6A574A9B
:102F4000134400221A703B6A554A134400221A7037
:102F50003B6A01333B623B6ABF2BEFD94F4A7B6927
:102F600013604F4A7B6913604B4B04221A607B8BC2
:102F7000484AD35C642B04D07B8B464AD35C442BF9
:102F800004D1FEF749FE444B04221A607B8B414A70
:102F9000D35C702B04D07B8B3E4AD35C502B02D188
:102FA0003D4B3E221A607B8B3A4AD35C6F2B04D098
:102FB0007B8B384AD35C4F2B04D1374B3E221A60AF
:102FC000FEF7A8FC7B8B334AD35C6C2B04D07B8B45
:102FD000304AD35C4C2B04D1FEF7CEFC2E4B3E2264
:102FE0001A607B8B2B4AD35C6B2B04D07B8B294ADA
:102FF000D35C4B2B10D1284B3E221A600023FB617F
:1030000007E0FB69274A134400221A70FB69013369
:10301000FB61FB69272BF4D97B8B1E4AD35C422BC7
:1030200004D07B8B1B4AD35C622B02D11E4B002247
:103030001A607B8B174AD35C742B04D07B8B154AA8
:10304000D35C542B02D1194B00221A607B8B114A9E
:10305000D35C302B39D1104B3E221A60144B1B68C5
:103060001846FFF765FB38613B69B3F5FA7F25D257
:103070003B690C4A53603B691A460E490E480BF0F7
:10308000C3FE22E0EC5B00203D0200203E02002057
:103090003C020020405D002064020020345A0020E1
:1030A00038620020705C0020140000201000002016
:1030B000CC61002080360108C45D0020364B1B68BF
:1030C0001A46364936480BF09FFE7B8B354AD35C57
:1030D000312B1DD1344B3E221A60344B5B681846AD
:1030E000FFF726FBF860FB68B3F5FA7F09D2FB68AF
:1030F0002F4A9360FB681A462E4929480BF084FE3C
:1031000006E0254B5B681A462B4925480BF07CFEF0
:103110007B8B244AD35C682B09D07B8B214AD35C00
:10312000482B04D07B8B1F4AD35C3F2B24D11E4BF2
:103130003C221A6021491A480BF066FE1CE0204828
:1031400006F052FF0346002B17D01D4806F0AEFBD9
:10315000FFF770FD7F221349194806F051FB184B09
:103160001B6810221A62164B1B681A68144B1B68E6
:1031700042F010021A6000E000BF124B00221A70E9
:1031800005E0104B1B780133DAB20E4B1A7000BF0A
:103190002837BD4680BD00BFA0590020A0360108D9
:1031A000C45D0020405D002064020020CC6100204E
:1031B000705C0020C8360108E436010808370108B1
:1031C000EC5B00203C02002080B483B000AF78604C
:1031D000054B1B780133DAB2034B1A7000BF0C3772
:1031E000BD465DF8047B70474002002080B500AF0B
:1031F000984BD3F8A030B3F5617F11D99648FCF70E
:10320000E7FF0346944A1344944918460BF0FCFD2B
:10321000934B00225A65934B00221A64FFF74AF839
:10322000904B0022DA648F4B00221A658E4BDA68CD
:103230008E4B1B6803F24B139A4223D28A4BDB68F6
:10324000F02B1FD9864B1B69B3F5167F1AD2824823
:10325000FCF7BEFF0346804A1344854918460BF02D
:10326000D3FDFFF7F7F8814B11221A60FFF77AF9C7
:103270007C4B01221A617B4B01225A61794B01225E
:103280009A65E4E07448FCF7A3FF0346724A1344CE
:10329000784918460BF0B8FD724B5B69002B01D0E2
:1032A000FFF718F9714B00221A606E4B00225A6129
:1032B000714B1B68002B01D1FFF73CF96A4B1B686F
:1032C000C82B12D96448FCF783FF0346624A1344B3
:1032D0006A4918460BF098FD624B01229A60FFF78D
:1032E000F9F8604B00225A63B1E05B48FCF770FFCD
:1032F0000346594A1344624918460BF085FD594B61
:103300005B6B002B11D15448FCF762FF0346524A15
:1033100013445C4918460BF077FD4E4B1B6B013391
:103320004C4A13634F4B01225A634E4B01229A6160
:10333000FDF75AFF504B1B68002B40F08880464831
:10334000FCF746FF0346444A13444F4918460BF026
:103350005BFD454BDA684D4B1B6803F293139A42B1
:103360001CD2414BDB68F02B18D93B48FCF730FFEF
:103370000346394A1344464918460BF045FDFFF70A
:1033800069F8384B01225A60364B01229A653F4B4F
:1033900012221A60334B00229A6258E02E48FCF742
:1033A00017FF03462C4A13443A4918460BF02CFDEC
:1033B000FFF790F82B4B01221A62344B00221A605F
:1033C000294BDA68314B1B6803F293139A423ED9BA
:1033D0002148FCF7FDFE03461F4A13442E491846B8
:1033E0000BF012FD1B4BD3F894301A4AC2F8803010
:1033F0001C4B1B6B002B15D11A4B9B6A002B11D059
:103400001548FCF7E5FE0346134A134423491846C2
:103410000BF0FAFC144BDB680E4AC2F89C30114BDF
:1034200001221A630F4B9B6A002B10D10A48FCF74C
:10343000CFFE0346084A1344194918460BF0E4FC32
:10344000084B01229A62034B0022DA67FFE700BFB4
:1034500080BD00BF345A0020C45D0020B03901088F
:10346000985C0020C4590020A05900205C02002074
:10347000B4390108B8390108C8610020BC39010815
:10348000C0390108C4390108C839010858020020B0
:10349000CC390108D0390108D4390108DC390108D8
:1034A000E439010880B500AF3E4B1B68002B01D109
:1034B000FFF740F83C4B1B68C82B11D93B4B01224E
:1034C0009A60394B5B6841F65D22934202D8FEF761
:1034D000C1FF01E0FEF7FEFF344B00225A635FE0BC
:1034E000324B5B6B002B07D1314B1B6B0133304AE6
:1034F00013632E4B01225A632C4B01229A61FDF774
:1035000073FE284B1B68002B4AD1274BDA68294BE6
:103510001B6803F293139A4212D2234BDB68F02B01
:103520000ED9FEF797FF214B01225A601F4B012253
:103530009A65204B12221A601C4B00229A622FE0DF
:10354000FEF7C8FF194B01221A621A4B00221A60BB
:10355000154BDA68174B1B6803F293139A421FD975
:10356000134BD3F89430124AC2F880300F4B1B6BC8
:10357000002B0BD10D4B9B6A002B07D00A4BDB684D
:103580000B4AC2F89C30094B01221A63074B9B6A15
:10359000002B05D1054B01229A62054B0022DA6708
:1035A00000BF80BDC8610020A0590020C459002080
:1035B000345A00205802002080B500AF924B002200
:1035C0005A61914B0122DA618F4B01225A658F4B70
:1035D0005B6DB3F5E16F10D98B4B1B6D002B0CD1DC
:1035E0008B48FCF7F5FD0346894A13448949184680
:1035F0000BF00AFC844B00225A62874BDA68874B37
:103600001B68C3F5AE739A4255D98148FCF7E0FDBB
:1036100003467F4A1344824918460BF0F5FB7A4B68
:1036200000225A627F4B1B68002B0BD17848FCF7B5
:10363000CFFD0346764A13447B4918460BF0E4FB62
:10364000FDF714FDFDF7E0FE744B11221A60774B75
:103650001B68002B0FD06E48FCF7BAFD03466C4A7E
:103660001344734918460BF0CFFB674B0122DA6015
:10367000654B0122DA65684B1B68FA2B40F2C1806A
:10368000614B9B6A002B00F0BC806148FCF7A0FDF9
:1036900003465F4A1344674918460BF0B5FB5A4B83
:1036A00000229A62584B00221A63634B9B6A0133D3
:1036B000614A9362A5E05648FCF78AFD0346544AE6
:1036C00013445E4918460BF09FFB544B00221A60CE
:1036D0005B4B00221A60FEF745FFFEF7BBFE594B1D
:1036E0009B68002B6DD0574B5B683B2B69D1464BD9
:1036F0005B6A002B65D1454B5B6DB3F5E16F60D91B
:103700004348FCF765FD0346414A13444E491846B9
:103710000BF07AFB484BD3F88C30474AC2F8903014
:10372000454BD3F88830444AC2F88C30424BD3F82A
:103730008430414AC2F888303F4BD3F894303E4A37
:10374000C2F884303C4BD3F8A8303B4AC2F8AC30C6
:10375000394BD3F8A430384AC2F8A830364BD3F8E6
:10376000A030354AC2F8A430334B5B6F324A9367BE
:10377000314B1B6F304A53672F4BDB6E2E4A13675A
:103780002D4BDB6F2C4AD366234BDB682A4AC2F8E9
:1037900098301D4B00221A63274B5B6A0133264A7F
:1037A0005362194B00229A62234B0022C3F89420E3
:1037B000154B01221A64144B01225A62124B01224A
:1037C0001A65114B1B6D002B1BD01E4B9B68002BE9
:1037D00017D01C4B5B68002B13D11A4B1B680A2BAC
:1037E0000FD10B48FCF7F4FC0346094A1344174970
:1037F00018460BF009FBFEF78DFDFEF79BFEFEF76A
:1038000069FE00BF80BD00BFC4590020985C002045
:10381000C45D0020EC390108A05900205C020020A2
:10382000F0390108C8610020F43901084C02002079
:10383000F8390108FC390108345A0020003A01081F
:1038400058020020245A0020043A0108083A0108CE
:1038500080B590B010AF44F274030F9343F2BC43B1
:103860000E9323230D9340F6C4130C9311230B9353
:1038700012230A9340F293130993F02308934FF411
:10388000AE7307934FF4A573069340F2B3130593F9
:1038900046230493C8230393FA2302934FF4A0739F
:1038A00001934623009334230222034903480BF07B
:1038B000ABFA00BFBD4680BD0C3A0108C45D0020D4
:1038C000F0B5B9B01EAF4E4B1B687B664C4BD96947
:1038D00039664B4B186AF865494B9C69BC65484B87
:1038E0005D687D65464B9E683E65454B1A69FA6486
:1038F000434B5969B964424BDB687B64404B586A5F
:1039000038643F4B9C6AFC633D4B1D6BBD633C4B75
:10391000DE6A7E633A4BDA6B3A63394B596BF96274
:10392000374B9B6BBB62364B186C7862344B5C6CCC
:103930003C62334BDD6CFD61314B9E6CBE61304BA4
:103940001A6D7A612E4B596D39612D4BDB6DFB6021
:103950002B4B986DB8602A4B1C6E7C60284B5E6EBA
:10396000274B9D6E264BD3F88040254BD86E244BB9
:10397000D3F89810224BD3F89C20214BD3F88430F5
:103980001D931C921B911A901994189517967C6898
:103990001694B8681590FB681493396913917A6985
:1039A0001292BE691196FD6910953C6A0F94786A6F
:1039B0000E90BB6A0D93F96A0C913A6B0B927E6B79
:1039C0000A96BD6B0995FC6B0894386C07907B6C6C
:1039D0000693B96C0591FA6C04923E6D03967D6D69
:1039E0000295BC6D0194F86D00903B6E7A6E0549AE
:1039F00005480BF009FA00BF6C37BD46F0BD00BFAB
:103A0000345A0020243C0108C45D0020F0B5B9B050
:103A10001EAF534B1B687B66514BD9693966504BBF
:103A2000186AF8654E4B9C69BC654D4B5D687D65B9
:103A30004B4B9E683E654A4B1A69FA64484B59697C
:103A4000B964474BDB687B64454B586A3864444B28
:103A50009C6AFC63424B1D6BBD63414BDE6A7E6317
:103A60003F4BD3F894203A633D4BD96FF9623C4BFE
:103A7000D3F88030BB623A4BD86E7862384B1C6FFB
:103A80003C62374B5D6FFD61354B9E6FBE61344BC1
:103A9000D3F884207A61324BD3F888103961304BE7
:103AA000D3F88C30FB602E4BD3F89000B8602C4BD1
:103AB000D3F8B0407C602A4BD3F8B460284BD3F8DD
:103AC000B850274BD3F8BC40254BD3F8A000244B6B
:103AD000D3F8A410224BD3F8A820214BD3F8AC3054
:103AE0001D931C921B911A901994189517967C6837
:103AF0001694B8681590FB681493396913917A6924
:103B00001292BE691196FD6910953C6A0F94786A0D
:103B10000E90BB6A0D93F96A0C913A6B0B927E6B17
:103B20000A96BD6B0995FC6B0894386C07907B6C0A
:103B30000693B96C0591FA6C04923E6D03967D6D07
:103B40000295BC6D0194F86D00903B6E7A6E05494C
:103B500005480BF059F900BF6C37BD46F0BD00BFFA
:103B6000345A0020383E0108C45D0020F0B58BB007
:103B700008AF124B1B687B60104B596839600F4BC4
:103B80009B680E4AD2680D4909690C4840690B4C84
:103B9000A4690A4DED69094E366A069605950494A6
:103BA00003900291019200933B687A6804490548AA
:103BB0000BF02AF900BF0C37BD46F0BD705C002049
:103BC000E03F0108C45D0020F0B59FB010AFF8627F
:103BD0000023FB86FEF7AEFC00224FF480714FF00D
:103BE000904003F05DFAFDF715FFFDF793FEA54841
:103BF00000F00AFEA34B1B681A68A24B1B6842F038
:103C000010021A607F22A0499E4805F0F9FDFEF7D8
:103C100051FB7F219D4802F069FA322007F0B7F985
:103C200008229B49994801F039FC0346002B40F0DB
:103C30005D8301224FF40041964803F031FA0122DE
:103C40004FF48041934803F02BFA01224FF40051C6
:103C5000904803F025FA01224FF480518D4803F07B
:103C60001FFAFFF7F5FD8C48FCF7B2FA0346FB8616
:103C7000FB8E1A468849834805F032FD052007F07F
:103C800086F900224FF40041824803F009FA00222D
:103C90004FF480417F4803F003FA00224FF40051B3
:103CA0007C4803F0FDF900224FF48051794803F07D
:103CB000F7F9FEF7B9FA794B1B7803F00103DBB291
:103CC0001A464FF40041734803F0EAF9734B1B782E
:103CD00003F00203DBB21A464FF480416D4803F053
:103CE000DFF96E4B1B7803F00403DBB21A464FF486
:103CF0000051684803F0D4F9684B1B7803F00803BF
:103D0000DBB21A464FF48051624803F0C9F9322001
:103D100007F03DF900224FF400415E4803F0C0F97E
:103D200000224FF480415B4803F0BAF900224FF4BF
:103D30000051584803F0B4F900224FF4805155481F
:103D400003F0AEF9FFF7BCFD5348FCF741FA034618
:103D5000FB86FB8E1A4650494A4805F0C1FC1420E8
:103D600007F015F9FFF702FF4B48FCF731FA03465D
:103D7000FB86FB8E1A464849424805F0B1FC484B89
:103D80001B686421184607F0AFF9464B0022C3F8C0
:103D90009420444B0022DA67434B0122DA62424B03
:103DA00001225A62404B01221A64404B4FF4AF7219
:103DB000DA605A2007F0EBF800224FF480714FF0E0
:103DC000904003F06DF902E0022007F0E0F8384B74
:103DD0001B68002BF8D0374B1B68032B05D1354BE4
:103DE00002221A60FFF712FEEAE0324B1B68022B38
:103DF00034D1304B01221A602F4BDB69BB622E4B52
:103E0000196A79622C4B9B692B4A12682A494968C6
:103E10002948C0683862284C2469274DAD68264E71
:103E2000766D2048D0F8A000F8612348806DB86115
:103E30002148C06D0990B8690890F8690790069606
:103E400005950494386A03900291019200937B6A6D
:103E5000BA6A1A4910480AF0D7FFB1E0154B1B683F
:103E6000042B05D1FFF72CFD124B00221A60A7E0AE
:103E7000104B1B68052B23D1FFF7EAFC0D4B0022EA
:103E80001A609DE0EC5B0020405D0020405B00205C
:103E9000CC61002000040048C45D00209C59002033
:103EA000C05D0020345A0020C4590020A0590020D1
:103EB0006802002064020020985C00207C40010819
:103EC000794B1B68012B51D1774B00221A60774B3D
:103ED000DB68BB62754B99687962744B5D68734BA4
:103EE0001E68734B1B783B62724B1868F861724B0B
:103EF0001C68BC61714B1A687A61714B1969396130
:103F00006F4B5869F8606E4B9C69BC606C4B1B68CA
:103F10007B606B4B5A683A60694B9C68684BD86809
:103F2000684B1968684B1A68684B1B680F930E92B0
:103F30000D910C900B943A680A927B680993BC68C7
:103F40000894F8680790396906917A690592BC6906
:103F50000494F8690390386A0290019600957B6A90
:103F6000BA6A5B495B480AF04FFF29E04E4B1B6879
:103F70003E2B0BD1FFF7FAFD4B4B1B68002B1FD0DC
:103F8000494B1B68013B484A136019E0464B1B68CC
:103F90003C2B09D1444B1B68002B11D0424B1B68B2
:103FA000013B414A13600BE03F4B1B68002B04D0E0
:103FB0003D4B1B68013B3C4A1360464B00221A7084
:103FC0004448FCF705F90346023B424A1344424980
:103FD00018460AF019FF414B1B68002B0ED03D48D4
:103FE000FCF7F6F803463B4A13443D4918460AF0ED
:103FF0000BFFFDF79FFD394B00221A602C4B1B78FD
:10400000062B3ED82E4B5B69462B05D9284B072241
:104010001A70FEF7A7FA4CE1294B5A68314B1B681E
:1040200003F5A0739A4204D8254B9B68B3F5DA7F59
:1040300017D3234B9B68B3F5A57F12D92548FCF70E
:10404000C7F80346234A1344274918460AF0DCFE02
:10405000244B00221A60FFF7C9F8244B0122DA63CF
:1040600027E11C48FCF7B4F803461A4A13442049D8
:1040700018460AF0C9FE1B4B46221A60FFF79CFA4D
:1040800017E10B4B1B78062B40F2F280084B1B7894
:104090000D2B00F2ED800A4B9B69462B2AD9044B6D
:1040A00000221A7005E100BF64020020245A00209B
:1040B0009C5900204C0200204802002050020020A1
:1040C000A0590020540200201000002014000020FD
:1040D00028410108C45D0020DC4101086002002085
:1040E000E44101080C000020E8410108C459002007
:1040F000EC4101087F4B5A687F4B1B6803F5A073A6
:104100009A4205D87B4B9B68B3F5DA7FC0F09E805E
:10411000784B9B68B3F5A57F40F298807748FCF711
:1041200057F80346754A1344754918460AF06CFE61
:10413000714B00221A60734B0122DA636D4BDA680F
:10414000714B1B6803F293139A421ED2694BDB68D2
:10415000F02B1AD96948FCF73BF80346674A134429
:104160006A4918460AF050FEFEF774F9FEF7FAF9AC
:10417000654B12221A60634B01221A60614B0022C8
:104180009A62604B01229A6570E05C48FCF720F867
:1041900003465A4A13445E4918460AF035FEFEF7B4
:1041A000C9F9FEF797F9574B01221A62564B0022C4
:1041B0001A60504BDA68544B1B6803F293139A420F
:1041C00054D94E48FCF704F803464C4A134451496D
:1041D00018460AF019FE504BD3F894304E4AC2F8F4
:1041E0008030484B1B6B002B18D1464B9B6A002B31
:1041F00014D04248FBF7ECFF0346404A13444749BA
:1042000018460AF001FE3B4BDB68434AC2F89C307B
:104210003C4B01221A633B4B0022DA62394B9B6A0A
:10422000002B23D13548FBF7D3FF0346334A134411
:104230003B4918460AF0E8FD324B01229A62314BA5
:1042400000225A62344B0022DA670FE02B48FBF75A
:10425000BFFF0346294A1344324918460AF0D4FDE9
:10426000254B46221A60FFF7A7F922E000BF20E0A5
:104270002D4B1B780E2B0CD11E4B5B69462B05D9A1
:10428000294B07221A70FEF76DF912E0FEF7AEFF18
:104290000FE0254B1B780F2B0BD1164B5B69462B80
:1042A00005D9214B07221A70FEF75CF901E0FFF7F0
:1042B000F9F81248FBF78CFF0346104A13441B49D8
:1042C00018460AF0A1FD0D48FBF782FF0346FB8666
:1042D000FB8EB3F5806F02D340F2FF33FB86FB8E7B
:1042E0001A460649124805F0FBF962E500BF3C3763
:1042F000BD46F0BDA05900200C000020C45D002088
:10430000F0410108C459002058020020F44101087E
:10431000F8410108FC410108345A0020004201081C
:1043200004420108084201089C590020104201087B
:10433000EC5B002080B584B000AF7860684B1B68F0
:10434000002B05D0664B1B68013B654A13605CE09F
:10435000634B00221A60634B1B680133614A136090
:10436000FDF706FA604B1B68002B02D15E4B022260
:104370001A605E4B1B68002B05D05C4B1B68013B31
:104380005A4A136041E0594B3B221A60584B0122B4
:104390001A60544B5B680133524A5360514B002200
:1043A0001A60FDF741FF504B03221A60514B1B6806
:1043B000002B05D04F4B1B68013B4E4A136024E095
:1043C000FDF7D0FD4B4B3B221A60464B9B680133F7
:1043D000444A9360434B00225A60454B01221A60C5
:1043E000454B1B68002B05D0434B1B68013B424AE1
:1043F00013600AE0404B17221A603A4BDB68013326
:10440000384AD360374B00229A60FDF761FC3B4885
:1044100000F0E0FF3A4B1B681846FEF789F9F86098
:10442000384B5B681A46FB68934207D9354B5B688B
:104430001A46FB689B1A344A136002E0324B002292
:104440001A602F4B5B681846FEF772F9F8602D4B27
:104450009B681A46FB68934207D92A4B9B681A4609
:10446000FB689B1A284A536002E0274B00225A60DF
:10447000234B9B681846FEF7FBF80346224A9360DD
:104480001F4BDB681846FEF7F3F803461E4AD3605D
:104490001B4B1B691846FEF777F803461A4A13614F
:1044A000174B5B691846FEF76FF80346164A5361CF
:1044B000134B9B691846FEF767F80346124A93614F
:1044C0004FF40071114802F0D3FD03461A46104B19
:1044D0001A60104B01221A6000BF1037BD4680BD24
:1044E00044020020245A0020640200200000002022
:1044F000600200200400002008000020405B002033
:10450000CC610020705C0020A0590020000400480D
:10451000540200206802002080B582B000AF7860AD
:104520007B681B68044A934201D100F0FDFB00BF89
:104530000837BD4680BD00BF0010004080B400AF0A
:1045400072B600BFFEE7000080B582B000AF114B2D
:104550001B6E104A43F0010313660E4B1B6E03F0F3
:1045600001037B607B680B4B9B6D0A4A43F08053D1
:104570009365084B9B6D03F080533B603B680022C2
:104580000F216FF0010001F0C9FE00BF0837BD46E2
:1045900080BD00BF0010024080B5A2B000AF7860BF
:1045A00007F1740300221A605A609A60DA601A6197
:1045B00007F118035C220021184609F0C8FC7B684B
:1045C0001B683F4A934277D14FF48043BB614FF061
:1045D0004053BB6607F11803184603F05FFC03461F
:1045E000002B01D0FFF7AAFF364BDB6C354A43F4B2
:1045F0000053D364334BDB6C03F400537B617B6962
:10460000304BDB6C2F4A43F00403D3642D4BDB6C3F
:1046100003F004033B613B692A4BDB6C294A43F0FE
:104620000103D364274BDB6C03F00103FB60FB68E1
:104630000F237B670B23BB670023FB6707F1740322
:104640001946214802F09AFB07237B670B23BB67BF
:104650000023FB6707F1740319464FF0904002F006
:104660008DFB1A4B1A4A1A60184B00225A60174BDE
:1046700000229A60154B0022DA60144B80221A61E6
:10468000124B4FF400725A61104B4FF400629A6162
:104690000E4B2022DA610D4B00221A620B4801F00A
:1046A00067FE0346002B01D0FFF748FF7B68074AEF
:1046B000DA64064A7B68936200BF8837BD4680BDD6
:1046C000000004500010024000080048F85C002080
:1046D0000800024080B485B000AF78607B681B683A
:1046E000B3F1804F0BD1094B9B6D084A43F0010396
:1046F0009365064B9B6D03F00103FB60FB6800BFF5
:104700001437BD465DF8047B704700BF00100240BF
:1047100080B485B000AF78607B681B680A4A93421A
:104720000BD10A4B1B6E094A43F400331366074B47
:104730001B6E03F40033FB60FB6800BF1437BD46FB
:104740005DF8047B704700BF004401400010024048
:1047500080B58AB000AF786007F1140300221A60B8
:104760005A609A60DA601A617B681B68B3F1804F07
:104770001DD1224BDB6C214A43F00103D3641F4B54
:10478000DB6C03F001033B613B6920237B61022367
:10479000BB610023FB6100233B6201237B6207F1C5
:1047A000140319464FF0904002F0E8FA21E07B68CC
:1047B0001B68134A93421CD1104BDB6C0F4A43F029
:1047C0000203D3640D4BDB6C03F00203FB60FB6858
:1047D0004FF480737B610223BB610023FB610023E4
:1047E0003B620E237B6207F114031946054802F071
:1047F000C5FA00BF2837BD4680BD00BF001002408B
:10480000004401400004004880B5A0B000AF7860CB
:1048100007F16C0300221A605A609A60DA601A612C
:1048200007F110035C220021184609F090FB7B6819
:104830001B68564A934240F0A48001233B61002349
:104840003B6307F11003184603F028FB0346002BD7
:1048500001D0FFF773FE4E4B1B6E4D4A43F480436D
:1048600013664B4B1B6E03F48043FB60FB68484BA5
:10487000DB6C474A43F00103D364454BDB6C03F028
:104880000103BB60BB684FF40073FB6602233B6708
:1048900000237B670223BB670723FB6707F16C03D9
:1048A00019464FF0904002F069FA4FF48063FB66BE
:1048B00002233B6701237B670223BB670723FB6758
:1048C00007F16C0319464FF0904002F057FA314B54
:1048D000314A1A602F4B02225A602E4B00229A60F6
:1048E0002C4B0022DA602B4B80221A61294B0022CC
:1048F0005A61284B00229A61264B2022DA61254B0F
:1049000000221A62234801F033FD0346002B01D038
:10491000FFF714FE7B681F4A1A671E4A7B68936282
:104920001E4B1F4A1A601D4B02225A601B4B10225D
:104930009A601A4B0022DA60184B80221A61174BDA
:1049400000225A61154B00229A61144B0022DA6151
:10495000124B00221A62114801F00AFD0346002B97
:1049600001D0FFF7EBFD7B680C4ADA660B4A7B68E7
:10497000936200220521252001F0D0FC252001F0C2
:10498000E9FC00BF8037BD4680BD00BF0038014054
:1049900000100240A45B002080040240F45A002072
:1049A0006C04024080B58CB000AF78600023FB62DD
:1049B0000023BB6200227968362001F0AFFC36206C
:1049C00001F0C8FC1E4B9B6D1D4A43F0100393651C
:1049D0001B4B9B6D03F01003FB60FB6807F110029B
:1049E00007F114031146184603F0C6F903F098F9CD
:1049F000F862FB6A134AA2FB03239B0C013BBB62D8
:104A0000114B124A1A60104B40F2E732DA600E4A3C
:104A1000BB6A53600C4B00221A610B4B00229A6058
:104A2000094803F045FD0346002B04D1064803F076
:104A300097FD034600E0012318463037BD4680BD90
:104A40000010024083DE1B4348630020001000403A
:104A500080B400AFFEE780B400AFFEE780B400AFE3
:104A6000FEE780B400AFFEE780B400AFFEE780B49D
:104A700000AF00BFBD465DF8047B704780B500AF56
:104A8000024801F00CFE00BF80BD00BFF85C0020B2
:104A900080B500AF074804F09BFF064B1B68DB693D
:104AA00003F01003102B02D10248FEF7C3F900BF38
:104AB00080BD00BFEC5B002080B500AF024803F072
:104AC00061FF00BF80BD00BF4863002080B500AF1C
:104AD000024801F0E4FD00BF80BD00BFF45A002091
:104AE00080B500AF024801F0DAFD00BF80BD00BF15
:104AF000A45B002080B400AF01231846BD465DF8DA
:104B0000047B704780B582B000AF7860396009F0EF
:104B1000EDF8034616221A604FF0FF3318460837A7
:104B2000BD4680BD80B582B000AF78604FF0FF31E8
:104B30007868FFF7E7FFFEE780B586B000AFF86062
:104B4000B9607A6000237B610AE0AFF30080014620
:104B5000BB685A1CBA60CAB21A707B6901337B61A8
:104B60007A697B689A42F0DB7B6818461837BD4645
:104B700080BD80B586B000AFF860B9607A60002370
:104B80007B6109E0BB685A1CBA601B781846AFF31A
:104B900000807B6901337B617A697B689A42F1DB33
:104BA0007B6818461837BD4680BD80B483B000AF1F
:104BB00078604FF0FF3318460C37BD465DF8047B34
:104BC000704780B483B000AF786039603B684FF4C1
:104BD00000525A60002318460C37BD465DF8047B2E
:104BE000704780B483B000AF7860012318460C375B
:104BF000BD465DF8047B704780B485B000AFF860B7
:104C0000B9607A60002318461437BD465DF8047B0E
:104C10007047000080B586B000AF7860144A154B2D
:104C2000D31A7B617B693B61134B1B68002B02D15C
:104C3000114B124A1A60104B1A687B6813443A6988
:104C40009A4207D209F052F803460C221A604FF03C
:104C5000FF3309E0084B1B68FB60074B1A687B6851
:104C60001344054A1360FB6818461837BD4680BDDB
:104C700000000120000400006C020020E863002016
:104C800080B400AF064BD3F88830054A43F4700374
:104C9000C2F8883000BFBD465DF8047B704700BF96
:104CA00000ED00E0DFF834D0FFF7EAFF0C480D49D3
:104CB0000D4A002302E0D458C4500433C4188C4277
:104CC000F9D30A4A0A4C002301E013600432A242DD
:104CD000FBD309F007F9FDF773FDFEE700000120A3
:104CE0000000002020020020B04701082002002020
:104CF000E8630020FEE780B582B000AF0023FB71BF
:104D0000032001F000FB0F20FFF74CFE0346002BB1
:104D100002D00123FB7101E0FFF716FCFB79184676
:104D20000837BD4680BD000080B400AF064B1B783D
:104D30001A46064B1B681344044A136000BFBD4665
:104D40005DF8047B704700BF2000002094630020C2
:104D500080B400AF034B1B681846BD465DF8047B6A
:104D6000704700BF9463002080B483B000AF7860C8
:104D700039607B689B6823F47C123B681A437B682C
:104D80009A6000BF0C37BD465DF8047B704780B465
:104D900083B000AF786039607B689B6823F0E07275
:104DA0003B681A437B689A6000BF0C37BD465DF8CC
:104DB000047B704780B483B000AF78607B689B68E9
:104DC00003F0E07318460C37BD465DF8047B70476E
:104DD00080B487B000AFF860B9607A603B60FB6870
:104DE00060331A46BB689B0013447B617B691A6879
:104DF000084B13407A6802F0F8413A680A431343BB
:104E000043F000427B691A6000BF1C37BD465DF865
:104E1000047B704700F0FF0380B485B000AF78607A
:104E200039607B6860331A463B689B001344FB6023
:104E3000FB681B6803F0F84318461437BD465DF85D
:104E4000047B704780B487B000AFF860B9607A60C7
:104E5000FB6860331A46BB689B0013447B617B6927
:104E60001B6823F000427B681A437B691A6000BF0D
:104E70001C37BD465DF8047B704780B483B000AF3B
:104E800078607B68DB6803F44063002B01D1012369
:104E900000E0002318460C37BD465DF8047B7047E0
:104EA00080B487B000AFF860B9607A60FB683033D7
:104EB0001A46BB681B0A9B0003F00C0313447B617A
:104EC0007B691A68BB6803F01F031F2101FA03F313
:104ED000DB431A407B689B0E03F01F01BB6803F0A5
:104EE0001F0301FA03F31A437B691A6000BF1C37E2
:104EF000BD465DF8047B704780B487B000AFF860B2
:104F0000B9607A60FB6814331A46BB685B0E9B007D
:104F100003F0040313447B617B691A68BB681B0DB3
:104F200003F01F03072101FA03F3DB431A40BB68B8
:104F30001B0D03F01F03796801FA03F31A437B6921
:104F40001A6000BF1C37BD465DF8047B7047000047
:104F500080B485B000AFF860B9607A60FB68D3F8C0
:104F6000B020BB68C3F31203DB431A407B6803F035
:104F700018030849D940BB680B40C3F312031A4316
:104F8000FB68C3F8B02000BF1437BD465DF8047B52
:104F9000704700BFFFFF070080B483B000AF7860A8
:104FA0007B689B6823F0204323F03F037A6893607B
:104FB00000BF0C37BD465DF8047B704780B483B0FA
:104FC00000AF78607B689B6803F00053B3F1005F2B
:104FD00001D1012300E0002318460C37BD465DF8DF
:104FE000047B704780B483B000AF78607B689B68B7
:104FF00023F0104323F03F0343F080527B689A6014
:1050000000BF0C37BD465DF8047B704780B483B0A9
:1050100000AF78607B689B6803F08053B3F1805FDA
:1050200001D1012300E0002318460C37BD465DF88E
:10503000047B704780B483B000AF78607B689B6866
:1050400023F0004323F03F0343F001027B689A60A2
:1050500000BF0C37BD465DF8047B704780B483B059
:1050600000AF78607B689B6823F0004323F03F0328
:1050700043F002027B689A6000BF0C37BD465DF8C2
:10508000047B704780B483B000AF78607B689B6816
:1050900003F00103012B01D1012300E00023184696
:1050A0000C37BD465DF8047B704780B483B000AF19
:1050B00078607B689B6803F00203022B01D1012317
:1050C00000E0002318460C37BD465DF8047B7047AE
:1050D00080B483B000AF78607B689B6823F00043A6
:1050E00023F03F0343F004027B689A6000BF0C3753
:1050F000BD465DF8047B704780B483B000AF786034
:105100007B689B6803F00403042B01D1012300E0BA
:10511000002318460C37BD465DF8047B704780B409
:1051200083B000AF78607B689B6803F00803082BAE
:1051300001D1012300E0002318460C37BD465DF87D
:10514000047B704780B588B000AF78600023FB77A0
:105150000023BB607B68002B01D101232CE17B681D
:105160001B69002B7B685B6D002B09D17868FFF70A
:1051700013FA7B6800229A657B68002283F850202E
:105180007B681B681846FFF719FF0346002B04D005
:105190007B681B681846FFF7FFFE7B681B68184694
:1051A000FFF734FF0346002B15D17B681B681846B8
:1051B000FFF718FF824B1B689B09824AA2FB03235F
:1051C0009B0901335B00BB6002E0BB68013BBB6035
:1051D000BB68002BF9D17B681B681846FFF716FFE8
:1051E0000346002B0DD17B685B6D43F010027B689A
:1051F0005A657B689B6D43F001027B689A650123C9
:10520000FB777B681B681846FFF776FF78617B6841
:105210005B6D03F01003002B40F0C5807B69002B11
:1052200040F0C1807B685B6D23F4817343F0020220
:105230007B685A657B681B681846FFF723FF0346A7
:10524000002B0BD16048FFF71DFF0346002B05D153
:105250007B685B6819465D48FFF786FD7B685B7E6F
:105260005A037B685B6B1A437B68DB681A437B6875
:105270009B681A437B6893F820301B041343BB617F
:105280007B6893F82030012B06D17B685B6A013B79
:105290005B04BA691343BB617B689B6A002B09D02E
:1052A0007B689B6A03F470727B68DB6A1343BA699C
:1052B0001343BB617B681B68DA68454B13407A680F
:1052C0001268B9690B43D3607B681B681846FFF707
:1052D00013FF38617B681B681846FFF720FFF860F2
:1052E0003B69002B3DD1FB68002B3AD17B681B7ECC
:1052F0009A037B6893F830305B001343BB617B6893
:105300001B68DB6823F4804323F002037A68126889
:10531000B9690B43D3607B6893F83830012B18D1FF
:105320007B681B681B6923F4FF6323F004037A681E
:10533000D16B7A68126C11437A68526C11437A68A7
:10534000926C0A431A437B681B6842F001021A619F
:1053500007E07B681B681A697B681B6822F0010202
:105360001A617B681B69012B0CD17B681B681B6B66
:1053700023F00F017B68DB695A1E7B681B680A43B8
:105380001A6307E07B681B681A6B7B681B6822F056
:105390000F021A637B685B6D23F0030343F0010285
:1053A0007B685A6507E07B685B6D43F010027B68A1
:1053B0005A650123FB77FB7F18462037BD4680BD29
:1053C00018000020632D3E05000004500003045027
:1053D00007C0F0FF80B584B000AF78607B681B68C1
:1053E0001846FFF789FE0346002B4FD17B6893F8E0
:1053F0005030012B01D102234BE07B68012283F85E
:105400005020786800F0CCFC0346FB73FB7B002B3C
:1054100037D17B685B6D23F4706323F0010343F4A1
:1054200080727B685A657B685B6D03F48053B3F5CB
:10543000805F06D17B689B6D23F006027B689A65CE
:1054400002E07B6800229A657B681B681C221A6058
:105450007B68002283F850207B681B68DB6803F0C0
:105460000073002B07D07B685B6D23F4405343F43B
:1054700080527B685A657B681B681846FFF728FED8
:1054800006E07B68002283F8502001E00223FB73D2
:10549000FB7B18461037BD4680BD000080B586B046
:1054A00000AFF860B9607A60FB681B681846FFF7C8
:1054B00023FE0346002B67D1FB6893F85030012B85
:1054C00001D1022363E0FB68012283F85020F868D1
:1054D00000F066FC0346FB75FB7D002B4FD1FB689B
:1054E0005B6D23F4706323F0010343F48072FB6867
:1054F0005A65FB685B6D03F48053002B06D0FB6894
:105500009B6D23F00602FB689A6502E0FB680022AF
:105510009A65FB68DB6C204ADA62FB68DB6C1F4A29
:105520001A63FB68DB6C1E4A5A63FB681B681C220B
:105530001A60FB68002283F85020FB681B685A68D9
:10554000FB681B6842F010025A60FB681B68DA684F
:10555000FB681B6842F00102DA60FB68D86CFB68EC
:105560001B6840331946BA687B6800F0B9FF0346F0
:10557000FB75FB681B681846FFF7AAFD06E0FB6891
:10558000002283F8502001E00223FB75FB7D1846C2
:105590001837BD4680BD00BF6B5F00084360000840
:1055A0005F60000880B483B000AF786000BF0C3744
:1055B000BD465DF8047B704780B483B000AF78606F
:1055C00000BF0C37BD465DF8047B704780B483B0E4
:1055D00000AF786000BF0C37BD465DF8047B7047B4
:1055E00080B5B6B000AF78603960002387F8D73057
:1055F0000023FB607B6893F85030012B01D102231C
:10560000B9E37B68012283F850207B681B68184649
:10561000FFF772FD0346002B40F09E833B685B68FA
:10562000052B24D83B685B68023B032B1BD801A2E7
:1056300052F823F0455600084D560008555600080C
:105640005D5600083B680C225A6011E03B6812224C
:105650005A600DE03B6818225A6009E03B684FF43D
:1056600080725A6004E03B6806225A6000E000BF86
:105670007B6818683B6859683B681B681A46FFF7E7
:105680000FFC7B681B681846FFF736FDC7F8D00093
:105690007B681B681846FFF742FDC7F8CC00D7F8B7
:1056A000D030002B40F0A681D7F8CC30002B40F052
:1056B000A1817B6818683B6819683B689B681A463B
:1056C000FFF71AFC3B685A697B681B68DB68DB08DC
:1056D00003F003035B0002FA03F3C7F8C8303B682A
:1056E0001B69042B0AD07B6818683B6819693B6802
:1056F0001A68D7F8C830FFF76BFB7BE17B681B6843
:1057000000211846FFF788FB0346C3F31203002B62
:105710000AD17B681B6800211846FFF77DFB034612
:105720009B0E03F01F021EE07B681B6800211846D9
:10573000FFF772FB0346C7F8BC30D7F8BC3093FACA
:10574000A3F3C7F8B830D7F8B830C7F8C030D7F8E7
:10575000C030002B01D1202304E0D7F8C030B3FAC9
:1057600083F3DBB21A463B681B68C3F31203002BBA
:1057700005D13B681B689B0E03F01F0318E03B68D4
:105780001B68C7F8B030D7F8B03093FAA3F3C7F866
:10579000AC30D7F8AC30C7F8B430D7F8B430002B01
:1057A00001D1202304E0D7F8B430B3FA83F3DBB29D
:1057B0009A4206D17B681B68002200211846FFF739
:1057C00041FB7B681B6801211846FFF725FB034658
:1057D000C3F31203002B0AD17B681B680121184612
:1057E000FFF71AFB03469B0E03F01F021EE07B68C7
:1057F0001B6801211846FFF70FFB0346C7F8A430CA
:10580000D7F8A43093FAA3F3C7F8A030D7F8A030A4
:10581000C7F8A830D7F8A830002B01D1202304E026
:10582000D7F8A830B3FA83F3DBB21A463B681B689B
:10583000C3F31203002B05D13B681B689B0E03F0DA
:105840001F0318E03B681B68C7F89830D7F89830FA
:1058500093FAA3F3C7F89430D7F89430C7F89C3084
:10586000D7F89C30002B01D1202304E0D7F89C30DE
:10587000B3FA83F3DBB29A4206D17B681B6800223D
:1058800001211846FFF7DEFA7B681B6802211846E3
:10589000FFF7C2FA0346C3F31203002B0AD17B6859
:1058A0001B6802211846FFF7B7FA03469B0E03F068
:1058B0001F021EE07B681B6802211846FFF7ACFA46
:1058C0000346C7F88C30D7F88C3093FAA3F3C7F8A7
:1058D0008830D7F88830C7F89030D7F89030002B50
:1058E00001D1202304E0D7F89030B3FA83F3DBB280
:1058F0001A463B681B68C3F31203002B05D13B68B3
:105900001B689B0E03F01F0316E03B681B68C7F87B
:105910008030D7F8803093FAA3F3FB67FB6FC7F8AA
:105920008430D7F88430002B01D1202304E0D7F84D
:105930008430B3FA83F3DBB29A4206D17B681B68EA
:10594000002202211846FFF77DFA7B681B680321BD
:105950001846FFF761FA0346C3F31203002B0AD17E
:105960007B681B6803211846FFF756FA03469B0E17
:1059700003F01F0217E07B681B6803211846FFF73E
:105980004BFA03467B677B6F93FAA3F33B673B6F4E
:10599000BB67BB6F002B01D1202303E0BB6FB3FAC1
:1059A00083F3DBB21A463B681B68C3F31203002B78
:1059B00005D13B681B689B0E03F01F0311E03B6899
:1059C0001B68BB66BB6E93FAA3F37B667B6EFB66BC
:1059D000FB6E002B01D1202303E0FB6EB3FA83F3AF
:1059E000DBB29A4206D17B681B680022032118466D
:1059F000FFF728FA7B681B681846FFF743FB03464E
:105A0000002B40F03F817B6818683B6819683B6851
:105A1000DB681A46FFF79CFA3B68DB688E4A9342C4
:105A200040F030817B6818683B681B68C3F3120341
:105A3000002B0BD13B681B689B0E013303F01F0347
:105A4000092B94BF01230023DBB219E03B681B68DC
:105A5000FB65FB6D93FAA3F3BB65BB6D3B663B6EC9
:105A6000002B01D1202303E03B6EB3FA83F3DBB2BA
:105A7000013303F01F03092B94BF01230023DBB282
:105A8000002B79D03B681B68C3F31203002B07D1AE
:105A90003B681B689B0E01339B0603F0F84215E040
:105AA0003B681B683B653B6D93FAA3F3FB64FB6C9F
:105AB0007B657B6D002B01D1202303E07B6DB3FA66
:105AC00083F3DBB201339B0603F0F8423B681B68AB
:105AD000C3F31203002B09D13B681B689B0E0133F3
