:020000040800F2
:1000000000000120F5390008A1370008A7370008D3
:10001000AD370008B3370008B9370008000000000A
:1000200000000000000000000000000011BF0008F8
:10003000BF3700080000000061C100087597000884
:10004000453A0008453A0008453A0008453A000894
:10005000453A0008453A0008453A0008453A000884
:10006000453A0008453A0008453A0008CD370008EF
:10007000453A0008453A0008453A0008453A000864
:10008000453A0008453A0008453A0008453A000854
:10009000453A0008453A0008453A0008453A000844
:1000A000453A0008453A0008453A0008453A000834
:1000B000453A00080000000000000000453A000832
:1000C000453A0008453A0008453A0008453A000814
:1000D000453A0008E1370008453A0008453A00086B
:1000E000453A0008453A0008000000000000000002
:1000F0000000000000000000000000000000000000
:1001000000000000453A000800000000453A0008E1
:10011000000000000000000009380008453A00080F
:10012000453A0008453A0008453A0008453A0008B3
:10013000453A000800000000000000000000000038
:10014000453A0008453A0008453A0008000000001A
:100150001D38000831380008453A0008453A0008C3
:10016000453A0008453A0008453A000800000000FA
:10017000453A0008453A0008000000000000000071
:0C018000453A0008453A0008453A0008DE
:1001900010B5054C237833B9044B13B10448AFF3C1
:1001A00000800123237010BD180200200000000011
:1001B000941F010808B5034B1BB103490348AFF373
:1001C000008008BD000000001C020020941F0108F0
:1001D000034613F8012B002AFBD1181A0138704787
:1001E00001F0FF01102A2BDB10F0070F08D010F8E8
:1001F000013B013A8B422DD010F0070F42B3F6D1EC
:10020000F0B441EA012141EA014122F007047FF004
:1002100000070023F0E80256083C85EA010586EA5B
:10022000010685FA47F5A3FA87F586FA47F6A5FA97
:1002300087F68EB9EED1F0BC01F0FF0102F00702A3
:1002400032B110F8013B013A83EA010313B1F8D14E
:100250000020704701387047002D06BF354603382F
:10026000073815F0010F07D1013015F4807F02BF68
:10027000013015F4C03F0130F0BC0138704700BFB9
:1002800081F0004102E000BF83F0004330B54FEA47
:1002900041044FEA430594EA050F08BF90EA020FB4
:1002A0001FBF54EA000C55EA020C7FEA645C7FEA47
:1002B000655C00F0E2804FEA5454D4EB5555B8BF6A
:1002C0006D420CDD2C4480EA020281EA030382EADB
:1002D000000083EA010180EA020281EA0303362D6D
:1002E00088BF30BD11F0004F4FEA01314FF4801C40
:1002F0004CEA113102D0404261EB410113F0004F52
:100300004FEA03334CEA133302D0524263EB430308
:1003100094EA050F00F0A780A4F10104D5F1200EA6
:100320000DDB02FA0EFC22FA05F2801841F1000101
:1003300003FA0EF2801843FA05F359410EE0A5F1D5
:1003400020050EF1200E012A03FA0EFC28BF4CF006
:10035000020C43FA05F3C01851EBE37101F00045BC
:1003600007D54FF0000EDCF1000C7EEB00006EEBC9
:100370000101B1F5801F1BD3B1F5001F0CD3490853
:100380005FEA30004FEA3C0C04F101044FEA4452AA
:1003900012F5800F80F09A80BCF1004F08BF5FEA31
:1003A000500C50F1000041EB045141EA050130BD11
:1003B0005FEA4C0C404141EB0101013C28BFB1F523
:1003C000801FE9D291F0000F04BF01460020B1FA6E
:1003D00081F308BF2033A3F10B03B3F120020CDA41
:1003E0000C3208DD02F1140CC2F10C0201FA0CF01F
:1003F00021FA02F10CE002F11402D8BFC2F1200C84
:1004000001FA02F120FA0CFCDCBF41EA0C01904039
:10041000E41AA2BF01EB0451294330BD6FEA040482
:100420001F3C1CDA0C340EDC04F11404C4F120026D
:1004300020FA04F001FA02F340EA030021FA04F37F
:1004400045EA030130BDC4F10C04C4F1200220FAD6
:1004500002F001FA04F340EA0300294630BD21FA14
:1004600004F0294630BD94F0000F83F4801306BFDA
:1004700081F480110134013D4EE77FEA645C18BFCE
:100480007FEA655C29D094EA050F08BF90EA020F65
:1004900005D054EA000C04BF1946104630BD91EA5D
:1004A000030F1EBF0021002030BD5FEA545C05D160
:1004B0004000494128BF41F0004130BD14F580049F
:1004C0003CBF01F5801130BD01F0004545F0FE4113
:1004D00041F470014FF0000030BD7FEA645C1ABF48
:1004E000194610467FEA655C1CBF0B46024650EA7F
:1004F000013406BF52EA033591EA030F41F40021AB
:1005000030BD00BF90F0000F04BF0021704730B530
:100510004FF4806404F132044FF000054FF0000105
:1005200050E700BF90F0000F04BF0021704730B5C6
:100530004FF4806404F1320410F0004548BF40429B
:100540004FF000013EE700BF42004FEAE2014FEAF0
:1005500031014FEA02701FBF12F07F4393F07F4FCB
:1005600081F06051704732F07F4208BF704793F0CE
:100570007F4F04BF41F40021704730B54FF46074E1
:1005800001F0004521F000411CE700BF50EA0102E4
:1005900008BF704730B54FF000050AE050EA01028D
:1005A00008BF704730B511F0004502D5404261EBFD
:1005B00041014FF4806404F132045FEA915C3FF43E
:1005C000D8AE4FF003025FEADC0C18BF03325FEADB
:1005D000DC0C18BF033202EBDC02C2F1200300FA8C
:1005E00003FC20FA02F001FA03FE40EA0E0021FAB1
:1005F00002F11444BDE600BF70B54FF0FF0C4CF49F
:10060000E06C1CEA11541DBF1CEA135594EA0C0F50
:1006100095EA0C0F00F0DEF82C4481EA030621EA8B
:100620004C5123EA4C5350EA013518BF52EA0335C6
:1006300041F4801143F4801338D0A0FB02CE4FF078
:100640000005E1FB02E506F00042E0FB03E54FF0A8
:100650000006E1FB03569CF0000F18BF4EF0010EA0
:10066000A4F1FF04B6F5007F64F5407404D25FEA9C
:100670004E0E6D4146EB060642EAC62141EA55514F
:100680004FEAC52040EA5E504FEACE2EB4F1FD0C91
:1006900088BFBCF5E06F1ED8BEF1004F08BF5FEA0F
:1006A000500E50F1000041EB045170BD06F00046C1
:1006B00046EA010140EA020081EA0301B4EB5C046E
:1006C000C2BFD4EB0C0541EA045170BD41F4801166
:1006D0004FF0000E013C00F3AB8014F1360FDEBF8B
:1006E000002001F0004170BDC4F10004203C35DA67
:1006F0000C341BDC04F11404C4F1200500FA05F3EA
:1007000020FA04F001FA05F240EA020001F000428A
:1007100021F0004110EBD37021FA04F642EB060100
:100720005EEA430E08BF20EAD37070BDC4F10C042A
:10073000C4F1200500FA04F320FA05F001FA04F2EE
:1007400040EA020001F0004110EBD37041F10001DA
:100750005EEA430E08BF20EAD37070BDC4F12005E5
:1007600000FA05F24EEA020E20FA04F301FA05F24D
:1007700043EA020321FA04F001F0004121FA04F2F5
:1007800020EA020000EBD3705EEA430E08BF20EAC5
:10079000D37070BD94F0000F0FD101F000464000FF
:1007A00041EB010111F4801F08BF013CF7D041EA81
:1007B000060195F0000F18BF704703F00046520085
:1007C00043EB030313F4801F08BF013DF7D043EA56
:1007D0000603704794EA0C0F0CEA135518BF95EA0C
:1007E0000C0F0CD050EA410618BF52EA4306D1D193
:1007F00081EA030101F000414FF0000070BD50EAB2
:10080000410606BF1046194652EA430619D094EA3B
:100810000C0F02D150EA013613D195EA0C0F05D125
:1008200052EA03361CBF104619460AD181EA030179
:1008300001F0004141F0FE4141F470014FF0000031
:1008400070BD41F0FE4141F4780170BD70B54FF0CC
:10085000FF0C4CF4E06C1CEA11541DBF1CEA13554C
:1008600094EA0C0F95EA0C0F00F0A7F8A4EB05042E
:1008700081EA030E52EA03354FEA013100F0888025
:100880004FEA03334FF0805545EA131343EA1263EE
:100890004FEA022245EA111545EA10654FEA0026A3
:1008A0000EF000419D4208BF964244F1FD0404F55C
:1008B000407402D25B084FEA3202B61A65EB0305B8
:1008C0005B084FEA32024FF480104FF4002CB6EB75
:1008D000020E75EB030E22BFB61A754640EA0C00F5
:1008E0005B084FEA3202B6EB020E75EB030E22BF35
:1008F000B61A754640EA5C005B084FEA3202B6EB76
:10090000020E75EB030E22BFB61A754640EA9C0034
:100910005B084FEA3202B6EB020E75EB030E22BF04
:10092000B61A754640EADC0055EA060E18D04FEAC2
:10093000051545EA16754FEA06164FEAC30343EA62
:1009400052734FEAC2025FEA1C1CC0D111F4801F2F
:100950000BD141EA00014FF000004FF0004CB6E728
:1009600011F4801F04BF01430020B4F1FD0C88BFC7
:10097000BCF5E06F3FF6AFAEB5EB030C04BFB6EBD2
:10098000020C5FEA500C50F1000041EB045170BDC5
:100990000EF0004E4EEA113114EB5C04C2BFD4EBF2
:1009A0000C0541EA045170BD41F480114FF0000E76
:1009B000013C90E645EA060E8DE60CEA135594EAF2
:1009C0000C0F08BF95EA0C0F3FF43BAF94EA0C0FF5
:1009D0000AD150EA01347FF434AF95EA0C0F7FF46A
:1009E00025AF104619462CE795EA0C0F06D152EABE
:1009F00003353FF4FDAE1046194622E750EA4106A2
:100A000018BF52EA43067FF4C5AE50EA41047FF4B2
:100A10000DAF52EA43057FF4EBAE12E74FF0FF3C17
:100A200006E000BF4FF0010C02E000BF4FF0010CE8
:100A30004DF804CD4FEA410C7FEA6C5C4FEA430C61
:100A400018BF7FEA6C5C1BD001B050EA410C0CBFB0
:100A500052EA430C91EA030F02BF90EA020F002012
:100A6000704710F1000F91EA030F58BF994208BF79
:100A700090422CBFD8176FEAE37040F00100704736
:100A80004FEA410C7FEA6C5C02D150EA013C07D18D
:100A90004FEA430C7FEA6C5CD6D152EA033CD3D0D8
:100AA0005DF8040B704700BF8446104662468C46D2
:100AB0001946634600E000BF01B5FFF7B7FF002805
:100AC00048BF10F1000F01BD4DF808EDFFF7F4FF2E
:100AD0000CBF012000205DF808FB00BF4DF808EDB9
:100AE000FFF7EAFF34BF012000205DF808FB00BFDC
:100AF0004DF808EDFFF7E0FF94BF012000205DF8FE
:100B000008FB00BF4DF808EDFFF7CEFF94BF0120B2
:100B100000205DF808FB00BF4DF808EDFFF7C4FFAB
:100B200034BF012000205DF808FB00BF4FEA410CF4
:100B30007FEA6C5C02D150EA013C0AD14FEA430CD7
:100B40007FEA6C5C02D152EA033C02D14FF0000014
:100B500070474FF0010070474FEA410212F5001252
:100B600015D211D56FF47873B3EB625212D94FEAF4
:100B7000C12343F0004343EA505311F0004F23FADE
:100B800002F018BF404270474FF00000704750EA33
:100B9000013005D111F0004008BF6FF000407047F0
:100BA0004FF00000704700BF4A0011D212F500124A
:100BB00011D20DD56FF47873B3EB62520ED44FEAB5
:100BC000C12343F0004343EA505323FA02F0704735
:100BD0004FF00000704750EA013002D14FF0FF3073
:100BE00070474FF0000070474FEA4102B2F1E04316
:100BF00024BFB3F5001CDCF1FE5C0DD901F0004C04
:100C00004FEAC0024CEA5070B2F1004F40EB830053
:100C100008BF20F00100704711F0804F21D113F17F
:100C20003872BCBF01F00040704741F480114FEAB8
:100C30005252C2F11802C2F1200C10FA0CF320FA41
:100C400002F018BF40F001004FEAC1234FEAD3235E
:100C500003FA0CFC40EA0C0023FA02F34FEA4303C8
:100C6000CCE77FEA625307D150EA01331EBF4FF051
:100C7000FE4040F44000704701F0004040F0FE406C
:100C800040F40000704700BF53B94AB9002908BFBB
:100C900000281CBF4FF0FF314FF0FF3000F0A4B927
:100CA000ADF1080C6DE904CE00F03CF8DDF804E08D
:100CB000DDE9022304B0704738B500220023044662
:100CC0000D46FFF70BFF28B920462946BDE83840FE
:100CD00000F00AB8204605F1004100F005F8404256
:100CE00061EB410138BD00BFD0B50C4B0022064678
:100CF0000F46FFF781FCFFF757FF0446FFF702FCA2
:100D0000074B0022FFF778FC02460B463046394677
:100D1000FFF7BAFAFFF748FF2146D0BD0000F03DCB
:100D20000000F0412DE9F047089D04468C46002B59
:100D300040F083808A42174647D9B2FA82F242B124
:100D4000C2F1200024FA00F09140974040EA010CE3
:100D500094404FEA1748230CBCFBF8F61FFA87FEB5
:100D600008FB16C143EA014306FB0EF1994209D97B
:100D7000FB1806F1FF3080F01981994240F216818C
:100D8000023E3B445B1AA4B2B3FBF8F008FB1033FD
:100D900044EA034400FB0EFEA64509D93C1900F1C4
:100DA000FF3380F00581A64540F2028102383C44C1
:100DB00040EA0640A4EB0E0400261DB1D4400023F7
:100DC000C5E900433146BDE8F08702B9FFDEB2FA5B
:100DD00082F2002A50D1CB1B4FEA174E1FFA87F838
:100DE0000126B3FBFEFC210C0EFB1C3341EA034140
:100DF00008FB0CF38B4207D979180CF1FF3002D2B3
:100E00008B4200F2E9808446C91AA3B2B1FBFEF01E
:100E10000EFB101143EA014408FB00F8A04507D976
:100E20003C1900F1FF3302D2A04500F2D9801846E8
:100E3000A4EB080440EA0C40BFE78B4209D9002D1F
:100E400000F0B1800026C5E9000130463146BDE81A
:100E5000F087B3FA83F6002E4AD18B4202D3824246
:100E600000F2B880841A61EB030101208C46002D4A
:100E7000A8D0C5E9004CA5E7C2F1200320FA03F68B
:100E8000974001FA02F04FEA174ED9403043030C65
:100E9000B1FBFEF61FFA87F80EFB161143EA014379
:100EA00006FB08F1994204FA02F409D9FB1806F18D
:100EB000FF3C80F08D80994240F28A80023E3B44A4
:100EC0005B1A81B2B3FBFEF00EFB103341EA034123
:100ED00000FB08F38B4207D9791800F1FF3C73D26D
:100EE0008B4271D902383944CB1A40EA064678E77A
:100EF000C6F1200C03FA06F422FA0CF31C4320FA84
:100F00000CF701FA06F34FEA144E21FA0CF11F43D5
:100F10003B0CB1FBFEF91FFA84F80EFB191143EAF2
:100F2000014109FB08FA8A4502FA06F200FA06F3C3
:100F300008D9611809F1FF3048D28A4546D9A9F18C
:100F400002092144A1EB0A01BFB2B1FBFEF00EFB86
:100F5000101147EA014700FB08F8B84507D9E7191F
:100F600000F1FF312ED2B8452CD90238274440EA8F
:100F70000940A7EB0807A0FB02894F45C646494632
:100F80001AD317D05DB1B3EB0E0267EB010707FA76
:100F90000CFCF2404CEA0202F740C5E900270026AB
:100FA0003146BDE8F0872E4628460BE70646E9E6BF
:100FB0001846FDE64345E5D2B8EB020E69EB0401A5
:100FC0000138DFE70846D2E760468DE78146B9E79A
:100FD000664675E730464AE7ACF1020C394413E740
:100FE00002383C4424E700BF704700BF80B400AF24
:100FF00000BFBD465DF8047B704780B400AF00239E
:101000001846BD465DF8047B704780B483B000AFDE
:101010007860396000BF0C37BD465DF8047B7047CF
:1010200080B500AF764B1B780D2B00F2E38001A258
:1010300052F823F06D100008771000089510000892
:10104000B3100008D3100008F110000811110008B7
:10105000311100083B1100085911000877110008F0
:1010600097110008B5110008D511000800F0F6FE30
:1010700000F084FEC1E0634B9B6BB3F5616F04D954
:1010800000F0ECFE00F07AFEB7E000F0FFFE00F0AA
:1010900075FEB2E05B4B9B6BB3F5E15F04D900F0EA
:1010A000DDFE00F06BFEA8E000F0F0FE00F066FE52
:1010B000A3E0544B9B6B42F63022934204D900F0DC
:1010C000CDFE00F05BFE98E000F0E0FE00F056FE82
:1010D00093E04C4B9B6BB3F5615F04D900F0BEFE0F
:1010E00000F04CFE89E000F0D1FE00F047FE84E005
:1010F000444B9B6B44F25062934204D900F0AEFE25
:1011000000F03CFE79E000F0C1FE00F037FE74E034
:101110003C4B9B6B45F26042934204D900F09EFE2B
:1011200000F02CFE69E000F0B1FE00F027FE64E064
:1011300000F094FE00F022FE5FE0324B9B6BB3F5B3
:10114000616F04D900F08AFE00F018FE55E000F04F
:101150009DFE00F013FE50E02A4B9B6BB3F5E15F60
:1011600004D900F07BFE00F009FE46E000F08EFEA0
:1011700000F004FE41E0234B9B6B42F63022934289
:1011800004D900F06BFE00F0F9FD36E000F07EFEC1
:1011900000F0F4FD31E01B4B9B6BB3F5615F04D9AC
:1011A00000F05CFE00F0EAFD27E000F06FFE00F0CA
:1011B000E5FD22E0134B9B6B44F25062934204D94D
:1011C00000F04CFE00F0DAFD17E000F05FFE00F0EA
:1011D000D5FD12E00B4B9B6B45F26042934204D964
:1011E00000F03CFE00F0CAFD07E000F04FFE00F00A
:1011F000C5FD02E000F032FE00BF00BF80BD00BFB1
:1012000094590020F85B002080B500AF484B1B6864
:101210001B2B00F2828001A252F823F08D120008ED
:10122000C1120008E5120008E5120008E5120008E6
:10123000E5120008E5120008E5120008E5120008B2
:10124000E5120008E5120008E5120008E5120008A2
:10125000E5120008E5120008E5120008E512000892
:10126000F1120008F1120008F1120008F112000852
:10127000F1120008F1120008F1120008F112000842
:10128000F1120008F112000805130008294B1B6831
:10129000B3F5967F03D9284B40F6C4121A60264B4B
:1012A0001B68002B04D0244B1B68013B224A1360AF
:1012B000214B1B68002B37D11D4B01221A6033E0F4
:1012C0001E4B01221A6000F099FD00F0DFFD184B63
:1012D00002221A601A4BDB6A0133194AD36200F00A
:1012E000DDFC22E0124B1B680133114A13601CE045
:1012F00000F0B4FD0E4B1B6801330D4A136000F083
:1013000005FD12E00A4B00221A600C4B00221A6005
:10131000094B40F6C4121A6007E0054B00221A6020
:10132000064B00221A6000E000BF00BF80BD00BF76
:1013300034620020985900200C0000200C6100202D
:101340000C5A002080B500AF4C4B1B681B2B00F2E1
:101350008B8001A252F823F0C91300081114000871
:101360003114000831140008311400083114000849
:101370003114000831140008311400083114000839
:101380003114000831140008311400083114000829
:101390003114000831140008311400083D1400080D
:1013A0003D1400083D1400083D1400083D140008D9
:1013B0003D1400083D1400083D1400083D140008C9
:1013C0003D140008551400082D4B1B6843F2C7223A
:1013D000934203D82B4B2D221A6008E0284B1B6840
:1013E00044F25062934202D9264B00221A60254BE8
:1013F0001B68002B04D0234B1B68013B214A136060
:10140000204B1B68002B36D11C4B01221A6032E0A6
:101410001D4B01221A6000F039FD184B02221A60A0
:101420001A4BDB6C0133194AD36400F037FC23E01C
:10143000124B1B680133114A13601DE000F00EFDD2
:1014400000F09CFC0D4B1B6801330C4A136000F04C
:101450005DFC11E0094B00221A600B4B00221A6060
:10146000084B2D221A6007E0044B00221A60064B3D
:1014700000221A6000E000BF00BF80BD346200207F
:10148000985900200C0000200C6100200C5A00200C
:1014900084B080B588B000AF07F1280C8CE80F004D
:1014A00060237B60B7F87C30BB600023FB600823BF
:1014B0003B6100237B613B1D7A6F194607F12800D1
:1014C00006F00AF9796F07F1280005F07FFE00BFEA
:1014D0002037BD46BDE8804004B0704784B080B579
:1014E00088B000AF07F1280C8CE80F00B7F878300F
:1014F000BB6060237B600023FB6000233B61002313
:101500007B610023BB610023FB613B1D7A6F1946A1
:1015100007F1280006F0E0F8796F07F1280005F0E0
:1015200055FE00BF2037BD46BDE8804004B070477F
:1015300080B500AF614B1B68002B1DD05F4B1B6853
:10154000013B5E4A136000224FF400415C4804F006
:1015500031FB00224FF48041594804F02BFB00225C
:101560004FF40051564804F025FB00224FF48051FF
:10157000534804F01FFB9FE0524B9B69502B03D84C
:10158000504B5B69502B1DD94E4B9B69502B05D995
:1015900001224FF400414A4804F00CFB494B5B69BF
:1015A000502B05D901224FF48041454804F002FB3D
:1015B00001224FF40051424804F0FCFA3F4B012253
:1015C0001A6079E0404B1B6A002B0FD001224FF4C8
:1015D00000413B4804F0EEFA01224FF480413848C4
:1015E00004F0E8FA354B01221A6065E0364B1B69BE
:1015F000002B09D001224FF40041314804F0DAFAFF
:101600002E4B01221A6057E02F4BDB68002B1BD0BA
:101610002E4B1B68002B0DD02D4B1B68002B09D0C7
:1016200001224FF48041264804F0C4FA234B0122E2
:101630001A6041E001224FF48041214804F0BAFAD7
:101640001E4B03221A6037E01F4B9B68002B09D00A
:1016500001224FF400411A4804F0ACFA174B09225A
:101660001A6029E0184B5B68002B09D001224FF467
:101670000041134804F09EFA104B01221A601BE04F
:10168000114B1B68002B09D001224FF400410C487C
:1016900004F090FA094B01221A600DE00A4BDB6955
:1016A000002B09D001224FF48041054804F082FA52
:1016B000024B09221A60FFE700BF80BDB459002029
:1016C0000004004898590020B85900204402002026
:1016D0004002002080B584B000AF0023BB6000232F
:1016E0007B603F4B00221A600023FB602FE0042345
:1016F0003B600DE03B68013B3B60BB681B02394926
:10170000FA68D20211443A680A4412781343BB6063
:101710003B68002BEED1BB68B3F1FF3F01D1002342
:10172000BB60BA687B689A4209D92D4AFB6813608E
:10173000BB687B604FF400512B4804F053FA4FF420
:101740008041294804F04EFAFB680133FB60FB68D6
:101750002F2BCCD900224FF48041234804F02AFAE1
:1017600000224FF40051204804F024FA0023FB60CB
:101770000EE01B4B1A68FB681C490B441949D20246
:101780001144FA680A4412781A70FB680133FB604E
:10179000FB686F2BEDD9154BDB69B3F1FF3F13D11C
:1017A0000023FB600CE0FB68114A134400221A700E
:1017B000FB680E4A134400221A70FB680133FB6079
:1017C000FB686F2BEFD907E0094A084B1046194612
:1017D00070231A460BF095F800BF1037BD4680BD48
:1017E0000861002000000208000400487861002021
:1017F0000C5A002080B588B000AF0023FB610023A5
:10180000BB61374B1B68184608F086F9354A364BE2
:101810001046194670231A460BF073F8334B1B68B9
:101820002E2B05D8314B1B680133304A136002E080
:101830002E4B00221A602C4B1B6801332A4A13607E
:1018400000237B6001233B61284B1B684033FB6016
:101850000123BB6003F004FE254BB3221A6107F19C
:1018600014023B1D1146184603F0ECFE03F01AFE6D
:1018700003F0F6FD1E4BB3221A6123E01B4B1B68DD
:10188000DA02BB6913441B4A13441946FB69DB00A7
:10189000144A1344D3E90023002003F075FD0346E6
:1018A000002B06D1BB690833BB61FB690133FB61C7
:1018B00008E00B4B1B686421184608F0FFF803F0A2
:1018C00001FE0AE0FB690D2BD8D903F0EBFD044BB8
:1018D0001B686421184608F0F1F82037BD4680BD2A
:1018E000045D0020786100200C5A0020086100206F
:1018F000002002400000020880B400AF834B1B6848
:10190000002B11D0814B00221A60814B1A68814B49
:10191000DB688049496801FB03F37F49A1FB03139E
:101920005B0B13447A4A1360784B5B68002B11D031
:10193000764B00225A60764B5A68764BDB687549C5
:10194000496801FB03F37449A1FB03135B0B1344C8
:101950006F4A53606D4B9B68002B11D06B4B00227C
:101960009A606B4B9A686B4B9B686A49096801FBEC
:1019700003F36949A1FB03135B0B1344644A9360AF
:10198000624BDB68002B11D0604B0022DA60604BA9
:10199000DA68604BDB685F49096801FB03F35E4965
:1019A000A1FB03135B0B1344594AD360574B1B69CC
:1019B000002B11D0554B00221A61554B1A69554B1B
:1019C000DB685449496801FB03F35349A1FB031346
:1019D0005B0B13444E4A13614C4BDB69002B07D061
:1019E0004A4B0022DA614A4BDB690133484AD36132
:1019F000464B1B6A002B07D0444B00221A62444B13
:101A00001B6A0133424A1362404B9B69002B07D08B
:101A10003E4B00229A613E4B9B6901333C4A9361E5
:101A20003A4B9B6B002B07D0384B00229A63384B04
:101A30009B6B0133364A9363344BDB6B002B09D02D
:101A4000324B0022DA63324BDA6B324B5B68134461
:101A50002F4AD3632D4B1B6C002B09D02B4B00223C
:101A60001A642B4B1A6C2B4B1B681344284A1364C3
:101A7000284B5A69294B5B6B9A4203D9254B5B690A
:101A8000264A5363234B9A69244B9B6B9A4203D992
:101A9000204B9B69214A93631E4B1A681F4BDB6BDB
:101AA0009A4203D91B4B1B681C4AD363194B5A68D3
:101AB0001A4B1B6C9A4203D9164B5B68174A136486
:101AC000144BDA68154B5B6C9A4203D9114BDB68F7
:101AD000124A53640F4BDB68F02B12D90F4B9B6CEF
:101AE000EF2B04D80B4BDB680C4A936409E0094BDD
:101AF000DA680A4B9B6C9A4203D2064BDB68074AB2
:101B0000936400BFBD465DF8047B7047B859002060
:101B1000F85B0020985900205917B7D10C5A0020C3
:101B200080B400AF3D4B1B683D4AA2FB0323DB0A98
:101B30003C4A53603B4B9A68384B5B683849A1FB81
:101B40000313DB0A1344374A9360364B9A69334BCD
:101B50009B691344334A9361324BDA682F4B9B687D
:101B60002F49A1FB0313DB0A13442E4AD3602D4BEC
:101B70001A692A4BDB682A49A1FB0313DB0A1344C9
:101B8000284A1361274B5A69244B1B692449A1FB3E
:101B90000313DB0A1344234A5361224B1A6E1F4B73
:101BA000DB6B1F49A1FB0313DB0A13441D4A1366B9
:101BB0001C4B9A6D194B1B6C1949A1FB0313DB0AD3
:101BC0001344184A9365174BDA69144BDB691344C5
:101BD000144AD361134B1A6A104B1B6A1344114AFF
:101BE00013620E4B00221A600C4B00225A600B4B02
:101BF00000229A61094B00229A60084B0022DA60A9
:101C0000064B00221A61054B0022DA61034B0022C9
:101C10001A6200BFBD465DF8047B7047F85B002088
:101C2000C5B3A2910C5A002080B500AF012118481D
:101C300003F0A8FF03461A46164B1A7010211648E7
:101C400003F0A0FF03465B00DAB2124B1B7813448B
:101C5000DAB2104B1A7002210D4803F093FF0346CD
:101C60009B00DAB20B4B1B781344DAB2094B1A70A3
:101C70002021094803F086FF0346DB00DAB2054B5A
:101C80001B781344DAB2034B1A7000BF80BD00BF4B
:101C9000000400489459002000080048F0B599B0AD
:101CA00012AF184EC823109300230F936D4606F110
:101CB00010040FCC0FC50FCC0FC50FCC0FC594E887
:101CC000070085E8070096E80F00FFF707FC0021F2
:101CD0000C4805F07BFA3B1D00221A605A609A609E
:101CE000DA601A614FF400737B600023BB6002234B
:101CF000FB603B1D1946044803F0CAFD00BF1C37BA
:101D0000BD46F0BDE861002000040048F0B599B080
:101D100012AF184E0023109300230F936D4606F167
:101D200010040FCC0FC50FCC0FC50FCC0FC594E816
:101D3000070085E8070096E80F00FFF7CFFB0021BA
:101D40000C4805F021FB3B1D00221A605A609A6086
:101D5000DA601A614FF400737B600023BB600223DA
:101D6000FB603B1D1946044803F092FD00BF1C3781
:101D7000BD46F0BDE861002000040048F0B593B016
:101D800012AF1B4B9B69502B02D900F037F82BE0A8
:101D9000184B1B68002B26D1002240214FF09040A9
:101DA00003F008FF144E4FF4FA731193FE231093BF
:101DB00000230F936D4606F110040FCC0FC50FCC16
:101DC0000FC50FCC0FC594E8070085E8070096E81B
:101DD0000F00FFF75DFB0021074805F0F7F9054B01
:101DE00001221A6000E000BF0437BD46F0BD00BF0D
:101DF00098590020400200202C610020F0B593B0DB
:101E000012AF144E00231193FE23109300230F935F
:101E10006D4606F110040FCC0FC50FCC0FC50FCCCB
:101E20000FC594E8070085E8070096E80F00FFF764
:101E30002FFB012240214FF0904003F0BBFE002118
:101E4000044805F0A1FA044B00221A6000BF0437D1
:101E5000BD46F0BD2C6100204002002080B500AFDF
:101E6000084B5B69502B02D900F010F808E0002203
:101E700080214FF0904003F09DFE034B01221A6039
:101E800000BF80BD985900204402002080B500AFFB
:101E9000012280214FF0904003F08CFE024B002283
:101EA0001A6000BF80BD00BF440200200000000097
:101EB000B0B588B000AF78607868FEF723FB0246C3
:101EC0000B46C7E906239FED281B97ED060B0FF085
:101ED000B7F851EC100B28A3D3E90023FEF78CFBD5
:101EE00002460B4614461D469FED211B97ED060B3F
:101EF0000FF0A6F851EC100B21A3D3E90023FEF755
:101F00007BFB02460B4620462946FEF7BFF90246F8
:101F10000B4614461D461CA3D3E90023D7E906014E
:101F2000FEF76AFB02460B4620462946FEF7ACF94F
:101F300002460B461046194615A3D3E90023FEF7C7
:101F4000A5F902460B46C7E90423D7E90401FEF7C9
:101F50002BFE0346FB60FB680D3BFB60FB681846ED
:101F60002037BD46B0BD00BF0000000000000840A3
:101F7000000000000000004085F743D694103EBEEC
:101F80002D431CEBE2360A3FB459F5B9DA8ABD3F5E
:101F9000EC51B81E85EB5E4080B584B000AF786030
:101FA0007B6807EE903AF8EE677A9FED277A67EE46
:101FB000877A9FED267AC7EE876A16EE900AFEF7BB
:101FC000C3FA02460B46C7E9022319A3D3E900234B
:101FD000D7E90201FEF710FB02460B46C7E90223D0
:101FE00015A3D3E90023D7E90201FEF705FB02465A
:101FF0000B46104619464FF00002154BFEF726FC23
:1020000002460B46C7E902230DA3D3E90023D7E913
:102010000201FEF7F1FA02460B46C7E90223D7E9AF
:102020000201FEF7C1FD034618461037BD4680BDCC
:1020300000000080EB510A400000000000607E407C
:10204000E27A14AE47E1BA3F0000C84200F07F4593
:10205000000030400000000080B584B000AF786020
:102060007B6807EE903AF8EE677AB0EE087A67EE92
:10207000877A17EE900AFEF767FA02460B46C7E921
:10208000022313A3D3E90023D7E90201FEF7FEF8E8
:1020900002460B46C7E902234FF000024FF000034F
:1020A000D7E90201FEF71AFD0346002B05D04FF0D9
:1020B00000024FF00003C7E90223D7E90201FEF74F
:1020C00073FD034618461037BD4680BDAFF3008050
:1020D000CDCCCCCCCC0C434080B500AF01F0B3FCF0
:1020E00000F02EF800F076FA00F03AFA00F06CF802
:1020F00000F006FA00F032F900F08AF907F054FB1C
:10210000094B00220121094807F05CFC0346084AFC
:102110001360084A0021084807F090FB0346074A6D
:10212000136007F065FBFEE770250108F530000835
:10213000045D00204C250108652A00089059002004
:1021400080B596B000AF07F1140344220021184671
:102150000AF0E5FB3B4600221A605A609A60DA609A
:102160001A614FF4007003F065FD0346002B01D0A7
:1021700001F09EF801237B614FF48033BB610023A3
:10218000FB6307F11403184603F0AAFD0346002B76
:1021900001D001F08DF80F233B6002237B60002308
:1021A000BB600023FB6000233B613B4600211846D7
:1021B00004F0A8F90346002B01D001F079F800BF24
:1021C0005837BD4680BD000080B586B000AF3B46A5
:1021D00000221A605A609A60DA601A615A61564B9E
:1021E000564A1A60544B4FF480225A60524B0022D8
:1021F0009A60514B0022DA604F4B01221A614E4B1C
:1022000004225A614C4B00221A764B4B00225A761C
:10221000494B0722DA61484B002283F82020464BC5
:1022200000229A62444B0022DA62434B012283F877
:102230003020414B00225A633F4B002283F8382064
:102240003D4801F001FE0346002B01D001F030F8BB
:102250003B4B3B6006237B600123BB607F23FB601D
:1022600004233B6100237B613B461946324802F060
:1022700039F80346002B01D001F01AF8314B3B60CE
:102280000C237B603B4619462B4802F02BF8034693
:10229000002B01D001F00CF82B4B3B6012237B602C
:1022A0000023BB603B461946234802F01BF8034657
:1022B000002B01D000F0FCFF244B3B6018237B6017
:1022C0003B4619461C4802F00DF80346002B01D08E
:1022D00000F0EEFF1E4B3B604FF480737B603B468B
:1022E0001946154801F0FEFF0346002B01D000F00F
:1022F000DFFF184B3B604FF483737B603B4619460E
:102300000D4801F0EFFF0346002B01D000F0D0FF95
:10231000114B3B604FF486737B603B461946064881
:1023200001F0E0FF0346002B01D000F0C1FF00BF29
:102330001837BD4680BD00BFC85A002000000450B9
:1023400002003004040060080800900C1000C01067
:102350002000F014400020198000501D80B58AB084
:1023600000AF07F11C0300221A605A609A603B46D6
:1023700000221A605A609A60DA601A615A619A61A2
:10238000224B4FF080421A60204B01225A601F4BB3
:1023900000229A601D4B4FF47A72DA601B4B4FF4A7
:1023A00000721A61194B80229A61184804F0B6FE37
:1023B0000346002B01D000F07BFF0023FB610023CC
:1023C0007B6207F11C031946104805F0C9FD03465E
:1023D000002B01D000F06CFF60233B6000237B608A
:1023E0000023BB6000233B613B460022194607489F
:1023F00005F072F90346002B01D000F059FF0348A5
:1024000001F060F800BF2837BD4680BD2C61002078
:1024100080B592B000AF07F12C0300221A605A6019
:102420009A60DA601A615A619A613B462C22002157
:1024300018460AF074FA304B304A1A602E4B0122CB
:102440005A602D4B00229A602B4B4FF4FA72DA60DF
:10245000294B00221A61284B00225A61264B802208
:102460009A61254804F0AEFD0346002B01D000F030
:102470001FFF214804F052FE0346002B01D000F05C
:1024800017FF6023FB62FE233B6300237B63002373
:10249000BB630023FB6300233B6400237B6407F1E1
:1024A0002C0300221946144805F016F90346002BA8
:1024B00001D000F0FDFE00233B6000237B60002381
:1024C000BB600023FB6000233B614FF400537B6142
:1024D0000023BB623B461946074805F0A7FD0346AB
:1024E000002B01D000F0E4FE034800F0EBFF00BF3A
:1024F0004837BD4680BD00BFE86100200044014070
:1025000080B500AF144B154A1A60134B4FF4E132FB
:102510005A60114B00229A600F4B0022DA600E4B7A
:1025200000221A610C4B0C225A610B4B00229A615B
:10253000094B4FF40042DA61074B00221A62064B46
:1025400000225A62044805F007FE0346002B01D022
:1025500000F0AEFE00BF80BD745B0020003801407B
:1025600080B582B000AF1A4B9B6C194A43F001034F
:102570009364174B9B6C03F001037B607B68144BE7
:102580009B6C134A43F002039364114B9B6C03F062
:1025900002033B603B68002205210B2002F054FC43
:1025A0000B2002F06DFC00220521442002F04CFCBF
:1025B000442002F065FC00220521452002F044FC85
:1025C000452002F05DFC00BF0837BD4680BD00BF5E
:1025D0000010024080B58AB000AF07F1140300225A
:1025E0001A605A609A60DA601A61424BDB6C414AA9
:1025F00043F08003D3643F4BDB6C03F080033B610B
:102600003B693C4BDB6C3B4A43F00403D364394BDE
:10261000DB6C03F00403FB60FB68364BDB6C354A74
:1026200043F00103D364334BDB6C03F00103BB6065
:10263000BB68304BDB6C2F4A43F00203D3642D4B55
:10264000DB6C03F002037B607B6800224FF4E871CF
:102650004FF0904003F0AEFA00224FF4704126484C
:1026600003F0A8FA4FF4E8737B610123BB610023F8
:10267000FB6100233B6207F1140319464FF09040C1
:1026800003F006F930237B610023BB610023FB616B
:1026900007F114031946194803F0FAF807237B6180
:1026A0000023BB610023FB6107F1140319461248A4
:1026B00003F0EEF84FF470437B610123BB6100230C
:1026C000FB6100233B6207F1140319460A4803F03B
:1026D000DFF84FF400737B610023BB610223FB61D1
:1026E00007F114031946044803F0D2F800BF283755
:1026F000BD4680BD001002400004004800080048AC
:1027000080B485B000AF78607B681B68DB6903F03C
:102710001003102B3CD1244B1B6810221A62234B50
:102720001B780133DAB2214B1A70214B1B88FB81D5
:102730007B681B6F1B685B689BB2C3F17F039AB217
:102740001B4B1A807F23BB811A4B1B78012B19D896
:10275000184B1B78002B0FD0154B1B88FA899A4217
:1027600007D3134B1A88FB89D31A9BB27F33BB81E3
:102770000AE08023BB8107E00D4B1A88FB89D31A3E
:10278000BB8101E08123BB810A4B00221A7005E066
:10279000084B1B780133DAB2064B1A7000BF1437AE
:1027A000BD465DF8047B7047745B00203502002055
:1027B000360200203402002080B483B000AF78607D
:1027C000054B1B780133DAB2034B1A7000BF0C378C
:1027D000BD465DF8047B70473802002080B500AF2D
:1027E000534B00229A63534BDA68534B1B6803F236
:1027F00059139A4219D24F4BDB68F02B15D94C4B29
:102800001B69B3F5167F10D2FFF7B8FA4A4B1022B6
:102810001A60FFF73BFB494B01221A61474B01222B
:102820005A61464B0122DA637FE0444B5B69002B1F
:1028300001D0FFF7E3FA404B00221A603F4B002221
:102840005A61FFF70BFB3B4B1B68B3F5967F08D92A
:102850003A4B01229A60FFF7D1FA384B00225A63B3
:1028600063E0364B5B6B002B07D1354B1B6B0133A1
:10287000334A1363314B01225A63304B01229A6170
:10288000FEF7C2FC2F4B1B68002B4ED1294BDA6898
:102890002D4B1B6803F291139A4212D2254BDB6831
:1028A000F02B0ED9FFF76AFA244B01225A60234B12
:1028B0000122DA63244B13221A60204B00229A6211
:1028C00033E0FFF79BFA1D4B01221A621E4B0022D8
:1028D0001A60184BDA681C4B1B6803F291139A427A
:1028E00023D9174B1B6E164AD365144B1B6B002B59
:1028F0000DD1124B9B6A002B09D00E4BDB68104A9E
:1029000093660E4B01221A630C4B0022DA620B4BCA
:102910009B6A002B09D1094B01229A62074B0022C6
:102920005A62074B00229A65FFE700BF80BD00BFD7
:10293000F85B00209859002054020020B85900206C
:102940000C5A00200C6100205002002080B500AF1E
:102950003C4B00225A613B4B0122DA61394B012288
:102960009A63394BDA68394B1B68C3F5AC73013392
:102970009A4229D9364B1B68002B01D1FEF750FB38
:10298000FEF7E0FC314B10221A60324B1B68002B23
:1029900005D02C4B0122DA602A4B01221A642A4B03
:1029A0001B68B3F5967F4BD9264B9B6A002B47D00B
:1029B000244B00229A62234B00221A63264B9B6A07
:1029C0000133254A93623BE0204B00221A60234BDF
:1029D00000221A60204B9B6D1F4A5365194BDB6A1E
:1029E000002B0DD1174B5B6A002B09D0164BDB680F
:1029F000194A5366134B0122DA62124B00221A6302
:102A0000104B5B6A002B0DD10E4B01225A62124B08
:102A10005B6A0133104A53620A4B00229A620E4BE2
:102A200000221A66FFF732FA0D4B5B68012B07D9BB
:102A30000B4B5B68092B03D8FFF710FAFFF7DEF9A1
:102A400000BF80BDB85900209859002054020020D2
:102A50000C610020440200200C5A0020500200208B
:102A6000FC590020F0B5AFB018AFF8640023A7F808
:102A70005630FFF7F3F900224FF480714FF0904089
:102A800003F098F8FEF726FEA74800F077FDA64B66
:102A90001B681A68A44B1B6842F010021A607F2260
:102AA000A249A14805F036FC0722A149A14801F03E
:102AB00077FB0346002B40F00F8301224FF40041C7
:102AC0009D4803F077F801224FF480419A4803F0C3
:102AD00071F801224FF40051974803F06BF801227E
:102AE0004FF48051944803F065F844F250630C931E
:102AF00043F2C8230B932D230A9340F6C413099382
:102B0000102308931323079340F291130693F023A5
:102B1000059340F2591304934FF4DC7303934FF47D
:102B2000967302934FF496730193502300933023CE
:102B30000122824982480AF04FFE8148FDF748FB96
:102B40000346A7F85630B7F856301A467C497648FF
:102B500005F050FB052006F004FF00224FF4004171
:102B6000754803F027F800224FF48041724803F0C3
:102B700021F800224FF400516F4803F01BF80022A7
:102B80004FF480516C4803F015F8FFF74DF86D4B8A
:102B90001B7803F00103DBB21A464FF4004166488C
:102BA00003F008F8674B1B7803F00203DBB21A4608
:102BB0004FF48041604802F0FDFF624B1B7803F048
:102BC0000403DBB21A464FF400515B4802F0F2FFF7
:102BD0005C4B1B7803F00803DBB21A464FF48051BC
:102BE000554802F0E7FF322006F0BBFE00224FF40A
:102BF0000041514802F0DEFF00224FF480414E4870
:102C000002F0D8FF00224FF400514B4802F0D2FFEF
:102C100000224FF48051484802F0CCFF4A4B1B6819
:102C2000BB64494BD9697964474B186A3864464B91
:102C30009C69FC63444B5D68BD63434B9E687E6347
:102C4000414B1A693A63404B5969F9623E4BDB6864
:102C5000BB623D4B586A78623B4B9C6A3C623A4B84
:102C60001D6BFD61384BDE6ABE61374B9A6B7A6132
:102C7000354B596B3961344BDB6BFB60324B186C55
:102C8000B860314B5C6C7C602F4B9E6C2E4BDD6CC6
:102C90002D4B1C6D2C4BD86D2B4B596D2A4B5A6EFE
:102CA000294B9B6E169315921491139012941195C3
:102CB00010967C680F94B8680E90FB680D93396984
:102CC0000C917A690B92BE690A96FD6909953C6A76
:102CD0000894786A0790BB6A0693F96A05913A6B83
:102CE00004927E6B0396BD6B0295FC6B0194386C6D
:102CF00000907B6CBA6C154911480AF06DFD1048C4
:102D0000FDF766FA0346A7F85630B7F856301A466C
:102D10000B49054805F06EFA0D4B1B6864211846F7
:102D200006F0CCFE16E000BF745B0020845C00203F
:102D300010610020C85A002000040048C81F010884
:102D4000085D0020945900200C5A0020A0210108A1
:102D5000045D00208D4B00221A668C4B00229A6580
:102D60005A2006F0FEFD00224FF480714FF0904093
:102D700002F020FF02E0022006F0F3FD844B1B6806
:102D8000002BF8D0834B1B68032B47D1814B0222C9
:102D90001A607E4B1B68BB647C4BD96979647B4BA2
:102DA000186A7A4B9C69794B5D68784B9E68774BC3
:102DB0001A693A64754B5969F963744BDB68BB63F4
:102DC000724B5A6A7A63714B996A39636F4BDB6A4B
:102DD000FB626E4B1A6EBA626C4B996D6B4BDA6D7F
:102DE0006A4B5B6D0D930C920B91BA6A0A92FB6A67
:102DF0000993396B08917A6B0792BB6B0693F96B59
:102E000005913A6C049203960295019400907B6CB4
:102E1000BA6C614961480AF0DFFC79E05D4B1B68E0
:102E2000022B2ED15B4B01221A605D4BDB69BB6428
:102E30005B4B196A79645A4B9B69594A1268584925
:102E400049685748C0683864554C2469544DAD688A
:102E5000534EB66B5248C06BF8635148006C0890F3
:102E6000F86B0790069605950494386C03900291D0
:102E7000019200937B6CBA6C4A4948480AF0ACFC5A
:102E800046E0444B00221A60474BDB68BB64464B6C
:102E900099687964444B5868434B1C68434B1B78D2
:102EA0003B64434B1D68434B1E68434B1A68FA63EF
:102EB000424B1969B963414B5B697B633F4B9A692C
:102EC0003A633E4B1968F9623C4B5B68BB623B4B13
:102ED00099683A4BDA683A4B1B680D930C920B9148
:102EE000BB6A0A93F96A09913A6B08927B6B079364
:102EF000B96B0691FA6B0592049603953D6C0295A9
:102F0000019400907B6CBA6C2E4924480AF064FC52
:102F10002248FDF75DF90346A7F85630B7F856305A
:102F2000B3F5806F03D340F2FF33A7F85630B7F8FC
:102F300056301A461949244805F05CF9234B1B68A2
:102F4000002B04D0FEF756FC204B00221A60174BD2
:102F50001B78062B3CD8194B5B69502B05D9134BBA
:102F600007221A70FEF792FFFAE6144B5B68B3F57E
:102F7000967F04D8114B9B68B3F5DC7F02D9FFF72D
:102F80002DFCA8E0FFF7E2FCEAE600BF0C5A0020A7
:102F9000600200205C02002024230108085D00205C
:102FA000F85B002000240108FC59002094590020FF
:102FB00044020020400200204802002098590020CE
:102FC0004C02002098240108745B00205802002065
:102FD000434B1B78062B6DD9414B1B780D2B69D8C1
:102FE000404B9B69502B03D93D4B00221A7072E075
:102FF0003C4B5B68B3F5967F04D83A4B9B68B3F5BE
:10300000DC7F52D9374BDA68374B1B6803F29113D8
:103010009A4214D2334BDB68F02B10D9FEF7AEFE88
:10302000FEF734FF304B13221A60304B01221A6036
:103030002E4B00229A622D4B0122DA6338E0FEF714
:103040000DFFFEF7DBFE294B01221A62264B002200
:103050001A60244BDA68244B1B6803F291139A42DE
:1030600026D9234B1B6E224AD365204B1B6B002BAA
:103070000DD11E4B9B6A002B09D01A4BDB681C4AF2
:1030800093661A4B01221A63184B0022DA62174B1F
:103090009B6A002B0CD1154B01229A62134B002224
:1030A0005A62134B00229A6502E0FFF74FFC12E0D0
:1030B00000BF10E00A4B1B780E2B7FF451AE094B7A
:1030C0005B69502B05D9064B07221A70FEF7DEFE0E
:1030D00046E6FFF783FB43E600BF5C37BD46F0BD25
:1030E000945900209859002050020020B85900201F
:1030F0000C5A002080B582B000AF7860564B1B6838
:10310000002B05D0544B1B68013B534A136056E01B
:10311000514B00221A60514B1B6801334F4A136018
:10312000FEF706FA4E4B1B68002B02D14C4B0222D5
:103130001A604C4B1B68002B05D04A4B1B68013BA7
:10314000484A13603BE0474B3B221A60434B5B68A5
:103150000133424A5360414B00221A60FEF764FD7E
:103160003F4B03221A60404B1B68002B05D03E4B9F
:103170001B68013B3C4A136021E0FEF7D1FC3A4B4F
:103180003B221A60354B9B680133344A9360334BC2
:1031900000225A60354B01221A60354B1B68002B08
:1031A00005D0334B1B68013B314A136007E0304BBD
:1031B00017221A60294BDB680133284AD360FEF7D7
:1031C0009BFB2C4800F088FF2B4B1B681846FEF732
:1031D00043FF0346294A1360274B5B681846FEF7F6
:1031E0003BFF0346254A5360234B9B681846FEF776
:1031F000D3FE0346214A93601F4BDB681846FEF757
:10320000CBFE03461D4AD3601B4B1B691846FEF7D5
:103210004FFE0346194A1361174B5B691846FEF7C8
:1032200047FE0346154A5361134B9B691846FEF748
:103230003FFE0346114A93614FF40071104802F0BB
:10324000A1FC03461A460F4B1A600F4B01221A606D
:1032500000BF0837BD4680BD3C020020FC5900205D
:103260005C02002000000020040000205802002022
:1032700008000020C85A0020106100209859002042
:10328000000400484C0200206002002080B582B09B
:1032900000AF78607B681B68044A934201D100F05C
:1032A000EBFB00BF0837BD4680BD00BF00100040EB
:1032B00080B400AF72B600BFFEE7000080B582B0F8
:1032C00000AF114B1B6E104A43F0010313660E4B07
:1032D0001B6E03F001037B607B680B4B9B6D0A4AFE
:1032E00043F080539365084B9B6D03F080533B6024
:1032F0003B6800220F216FF0010001F0A5FD00BF27
:103300000837BD4680BD00BF0010024080B5A2B0A6
:1033100000AF786007F1740300221A605A609A6067
:10332000DA601A6107F118035C220021184609F0DF
:10333000F6FA7B681B683F4A934277D14FF480438B
:10334000BB614FF04053BB6607F11803184603F00A
:103350002FFB0346002B01D0FFF7AAFF364BDB6C97
:10336000354A43F40053D364334BDB6C03F400530E
:103370007B617B69304BDB6C2F4A43F00403D364E1
:103380002D4BDB6C03F004033B613B692A4BDB6C88
:10339000294A43F00103D364274BDB6C03F001039C
:1033A000FB60FB680F237B670B23BB670023FB6776
:1033B00007F174031946214802F06AFA07237B6774
:1033C0000B23BB670023FB6707F1740319464FF01B
:1033D000904002F05DFA1A4B1A4A1A60184B00220C
:1033E0005A60174B00229A60154B0022DA60144B8A
:1033F00080221A61124B4FF400725A61104B4FF445
:1034000000629A610E4B2022DA610D4B00221A6293
:103410000B4801F043FD0346002B01D0FFF748FFA6
:103420007B68074ADA64064A7B68936200BF883784
:10343000BD4680BD00000450001002400008004856
:103440003C5C00200800024080B485B000AF78608A
:103450007B681B68B3F1804F0BD1094B9B6D084A09
:1034600043F001039365064B9B6D03F00103FB6082
:10347000FB6800BF1437BD465DF8047B704700BF92
:103480000010024080B485B000AF78607B681B6894
:103490000A4A93420BD10A4B1B6E094A43F400338C
:1034A0001366074B1B6E03F40033FB60FB6800BF21
:1034B0001437BD465DF8047B704700BF00440140EF
:1034C0000010024080B58AB000AF786007F11403A5
:1034D00000221A605A609A60DA601A617B681B6881
:1034E000B3F1804F1DD1224BDB6C214A43F0010325
:1034F000D3641F4BDB6C03F001033B613B6920236A
:103500007B610223BB610023FB6100233B6201233B
:103510007B6207F1140319464FF0904002F0B8F9AE
:1035200021E07B681B68134A93421CD1104BDB6C73
:103530000F4A43F00203D3640D4BDB6C03F002032C
:10354000FB60FB684FF480737B610223BB61002347
:10355000FB6100233B620E237B6207F114031946D3
:10356000054802F095F900BF2837BD4680BD00BF71
:1035700000100240004401400004004880B5A0B0A3
:1035800000AF786007F16C0300221A605A609A60FD
:10359000DA601A6107F110035C220021184609F075
:1035A000BEF97B681B684D4A934240F0928001232C
:1035B0003B6100233B6307F11003184603F0F8F961
:1035C0000346002B01D0FFF773FE454B1B6E444AA8
:1035D00043F480431366424B1B6E03F48043FB604D
:1035E000FB683F4BDB6C3E4A43F00103D3643C4B2A
:1035F000DB6C03F00103BB60BB684FF4C063FB6688
:1036000002233B6700237B670323BB670723FB671A
:1036100007F16C0319464FF0904002F039F9314B35
:10362000314A1A602F4B02225A602E4B00229A60B8
:103630002C4B0022DA602B4B80221A61294B00228E
:103640005A61284B00229A61264B2022DA61254BD1
:1036500000221A62234801F021FC0346002B01D00E
:10366000FFF726FE7B681F4A1A671E4A7B68936233
:103670001E4B1F4A1A601D4B02225A601B4B102220
:103680009A601A4B0022DA60184B80221A61174B9D
:1036900000225A61154B00229A61144B0022DA6114
:1036A000124B00221A62114801F0F8FB0346002B6E
:1036B00001D0FFF7FDFD7B680C4ADA660B4A7B6898
:1036C000936200220521252001F0BEFB252001F098
:1036D000D7FB00BF8037BD4680BD00BF003801402A
:1036E000001002402C5B0020800402407C5A002025
:1036F0006C04024080B58CB000AF78600023FB62A0
:103700000023BB6200227968362001F09DFB362041
:1037100001F0B6FB1E4B9B6D1D4A43F010039365F1
:103720001B4B9B6D03F01003FB60FB6807F110025D
:1037300007F114031146184603F0A8F803F07AF8CD
:10374000F862FB6A134AA2FB03239B0C013BBB629A
:10375000114B124A1A60104B40F2E732DA600E4AFF
:10376000BB6A53600C4B00221A610B4B00229A601B
:10377000094803F027FC0346002B04D1064803F058
:1037800079FC034600E0012318463037BD4680BD72
:103790000010024083DE1B4338620020001000400E
:1037A00080B400AFFEE780B400AFFEE780B400AFA6
:1037B000FEE780B400AFFEE780B400AFFEE780B460
:1037C00000AF00BFBD465DF8047B704780B500AF19
:1037D000024801F0FAFC00BF80BD00BF3C5C002045
:1037E00080B500AF074804F0EBFD064B1B68DB69B2
:1037F00003F01003102B02D10248FEF781FF00BF37
:1038000080BD00BF745B002080B500AF024803F0AC
:1038100043FE00BF80BD00BF3862002080B500AF0E
:10382000024801F0D2FC00BF80BD00BF7C5A0020DE
:1038300080B500AF024801F0C8FC00BF80BD00BFEA
:103840002C5B002080B400AF01231846BD465DF814
:10385000047B704780B582B000AF7860396008F0B3
:103860002DFF034616221A604FF0FF331846083723
:10387000BD4680BD80B582B000AF78604FF0FF31AB
:103880007868FFF7E7FFFEE780B586B000AFF86025
:10389000B9607A6000237B610AE0AFF300800146E3
:1038A000BB685A1CBA60CAB21A707B6901337B616B
:1038B0007A697B689A42F0DB7B6818461837BD4608
:1038C00080BD80B586B000AFF860B9607A60002333
:1038D0007B6109E0BB685A1CBA601B781846AFF3DD
:1038E00000807B6901337B617A697B689A42F1DBF6
:1038F0007B6818461837BD4680BD80B483B000AFE2
:1039000078604FF0FF3318460C37BD465DF8047BF6
:10391000704780B483B000AF786039603B684FF483
:1039200000525A60002318460C37BD465DF8047BF0
:10393000704780B483B000AF7860012318460C371D
:10394000BD465DF8047B704780B485B000AFF86079
:10395000B9607A60002318461437BD465DF8047BD1
:103960007047000080B586B000AF7860144A154BF0
:10397000D31A7B617B693B61134B1B68002B02D11F
:10398000114B124A1A60104B1A687B6813443A694B
:103990009A4207D208F092FE03460C221A604FF0BA
:1039A000FF3309E0084B1B68FB60074B1A687B6814
:1039B0001344054A1360FB6818461837BD4680BD9E
:1039C000000001200004000064020020D8620020F2
:1039D00080B400AF064BD3F88830054A43F4700337
:1039E000C2F8883000BFBD465DF8047B704700BF59
:1039F00000ED00E0DFF834D0FFF7EAFF0C480D4996
:103A00000D4A002302E0D458C4500433C4188C4239
:103A1000F9D30A4A0A4C002301E013600432A2429F
:103A2000FBD308F047FFFEF757FBFEE7000001203D
:103A30000000002018020020D02A010818020020EF
:103A4000D8620020FEE780B582B000AF0023FB7192
:103A5000032001F0EEF90F20FFF74CFE0346002B88
:103A600002D00123FB7101E0FFF728FCFB79184627
:103A70000837BD4680BD000080B400AF064B1B7800
:103A80001A46064B1B681344044A136000BFBD4628
:103A90005DF8047B704700BF18000020846200209E
:103AA00080B400AF034B1B681846BD465DF8047B2D
:103AB000704700BF8462002080B483B000AF78609C
:103AC00039607B689B6823F47C123B681A437B68EF
:103AD0009A6000BF0C37BD465DF8047B704780B428
:103AE00083B000AF786039607B689B6823F0E07238
:103AF0003B681A437B689A6000BF0C37BD465DF88F
:103B0000047B704780B483B000AF78607B689B68AB
:103B100003F0E07318460C37BD465DF8047B704730
:103B200080B487B000AFF860B9607A603B60FB6832
:103B300060331A46BB689B0013447B617B691A683B
:103B4000084B13407A6802F0F8413A680A4313437D
:103B500043F000427B691A6000BF1C37BD465DF828
:103B6000047B704700F0FF0380B485B000AF78603D
:103B700039607B6860331A463B689B001344FB60E6
:103B8000FB681B6803F0F84318461437BD465DF820
:103B9000047B704780B487B000AFF860B9607A608A
:103BA000FB6860331A46BB689B0013447B617B69EA
:103BB0001B6823F000427B681A437B691A6000BFD0
:103BC0001C37BD465DF8047B704780B483B000AFFE
:103BD00078607B68DB6803F44063002B01D101232C
:103BE00000E0002318460C37BD465DF8047B7047A3
:103BF00080B487B000AFF860B9607A60FB6830339A
:103C00001A46BB681B0A9B0003F00C0313447B613C
:103C10007B691A68BB6803F01F031F2101FA03F3D5
:103C2000DB431A407B689B0E03F01F01BB6803F067
:103C30001F0301FA03F31A437B691A6000BF1C37A4
:103C4000BD465DF8047B704780B487B000AFF86074
:103C5000B9607A60FB6814331A46BB685B0E9B0040
:103C600003F0040313447B617B691A68BB681B0D76
:103C700003F01F03072101FA03F3DB431A40BB687B
:103C80001B0D03F01F03796801FA03F31A437B69E4
:103C90001A6000BF1C37BD465DF8047B704700000A
:103CA00080B485B000AFF860B9607A60FB68D3F883
:103CB000B020BB68C3F31203DB431A407B6803F0F8
:103CC00018030849D940BB680B40C3F312031A43D9
:103CD000FB68C3F8B02000BF1437BD465DF8047B15
:103CE000704700BFFFFF070080B483B000AF78606B
:103CF0007B689B6823F0204323F03F037A6893603E
:103D000000BF0C37BD465DF8047B704780B483B0BC
:103D100000AF78607B689B6803F00053B3F1005FED
:103D200001D1012300E0002318460C37BD465DF8A1
:103D3000047B704780B483B000AF78607B689B6879
:103D400023F0104323F03F0343F080527B689A60D6
:103D500000BF0C37BD465DF8047B704780B483B06C
:103D600000AF78607B689B6803F08053B3F1805F9D
:103D700001D1012300E0002318460C37BD465DF851
:103D8000047B704780B483B000AF78607B689B6829
:103D900023F0004323F03F0343F001027B689A6065
:103DA00000BF0C37BD465DF8047B704780B483B01C
:103DB00000AF78607B689B6803F00103012B01D1A1
:103DC000012300E0002318460C37BD465DF8047B54
:103DD000704780B483B000AF78607B689B6823F045
:103DE000004323F03F0343F004027B689A6000BF66
:103DF0000C37BD465DF8047B704780B483B000AFDC
:103E000078607B689B6803F00403042B01D10123D5
:103E100000E0002318460C37BD465DF8047B704770
:103E200080B483B000AF78607B689B6803F00803C0
:103E3000082B01D1012300E0002318460C37BD46B2
:103E40005DF8047B7047000080B588B000AF7860F3
:103E50000023FB770023BB607B68002B01D101238B
:103E60002CE17B681B69002B7B685B6D002B09D103
:103E70007868FFF74BFA7B6800229A657B6800221E
:103E800083F850207B681B681846FFF73FFF034606
:103E9000002B04D07B681B681846FFF725FF7B6862
:103EA0001B681846FFF75AFF0346002B15D17B68A5
:103EB0001B681846FFF73EFF824B1B689B09824A2E
:103EC000A2FB03239B0901335B00BB6002E0BB68DC
:103ED000013BBB60BB68002BF9D17B681B681846AF
:103EE000FFF73CFF0346002B0DD17B685B6D43F071
:103EF00010027B685A657B689B6D43F001027B680A
:103F00009A650123FB777B681B681846FFF775FFEE
:103F100078617B685B6D03F01003002B40F0C58077
:103F20007B69002B40F0C1807B685B6D23F481735B
:103F300043F002027B685A657B681B681846FFF7EE
:103F400035FF0346002B0BD16048FFF72FFF0346D8
:103F5000002B05D17B685B6819465D48FFF7ACFD17
:103F60007B685B7E5A037B685B6B1A437B68DB680C
:103F70001A437B689B681A437B6893F820301B04C4
:103F80001343BB617B6893F82030012B06D17B681B
:103F90005B6A013B5B04BA691343BB617B689B6A44
:103FA000002B09D07B689B6A03F470727B68DB6A24
:103FB0001343BA691343BB617B681B68DA68454BDE
:103FC00013407A681268B9690B43D3607B681B6839
:103FD0001846FFF712FF38617B681B681846FFF729
:103FE0001FFFF8603B69002B3DD1FB68002B3AD1E5
:103FF0007B681B7E9A037B6893F830305B00134329
:10400000BB617B681B68DB6823F4804323F00203F9
:104010007A681268B9690B43D3607B6893F83830CB
:10402000012B18D17B681B681B6923F4FF6323F005
:1040300004037A68D16B7A68126C11437A68526C07
:1040400011437A68926C0A431A437B681B6842F0FA
:1040500001021A6107E07B681B681A697B681B68AC
:1040600022F001021A617B681B69012B0CD17B686D
:104070001B681B6B23F00F017B68DB695A1E7B6892
:104080001B680A431A6307E07B681B681A6B7B682E
:104090001B6822F00F021A637B685B6D23F0030339
:1040A00043F001027B685A6507E07B685B6D43F073
:1040B00010027B685A650123FB77FB7F1846203787
:1040C000BD4680BD10000020632D3E050000045059
:1040D0000003045007C0F0FF80B584B000AF7860E3
:1040E0007B681B681846FFF788FE0346002B4FD1FC
:1040F0007B6893F85030012B01D102234BE07B68A1
:10410000012283F85020786800F0CCFC0346FB7352
:10411000FB7B002B37D17B685B6D23F4706323F04E
:10412000010343F480727B685A657B685B6D03F41E
:104130008053B3F5805F06D17B689B6D23F0060248
:104140007B689A6502E07B6800229A657B681B6841
:104150001C221A607B68002283F850207B681B6851
:10416000DB6803F00073002B07D07B685B6D23F4E2
:10417000405343F480527B685A657B681B6818463D
:10418000FFF727FE06E07B68002283F8502001E05D
:104190000223FB73FB7B18461037BD4680BD000031
:1041A00080B586B000AFF860B9607A60FB681B68C4
:1041B0001846FFF722FE0346002B67D1FB6893F8F1
:1041C0005030012B01D1022363E0FB68012283F808
:1041D0005020F86800F066FC0346FB75FB7D002B61
:1041E0004FD1FB685B6D23F4706323F0010343F44C
:1041F0008072FB685A65FB685B6D03F48053002B8B
:1042000006D0FB689B6D23F00602FB689A6502E00E
:10421000FB6800229A65FB68DB6C204ADA62FB6867
:10422000DB6C1F4A1A63FB68DB6C1E4A5A63FB682F
:104230001B681C221A60FB68002283F85020FB6870
:104240001B685A68FB681B6842F010025A60FB68E2
:104250001B68DA68FB681B6842F00102DA60FB68E1
:10426000D86CFB681B6840331946BA687B6800F05D
:10427000CDFE0346FB75FB681B681846FFF7A9FDDA
:1042800006E0FB68002283F8502001E00223FB7562
:10429000FB7D18461837BD4680BD00BFB14B0008F6
:1042A000894C0008A54C000880B483B000AF78604A
:1042B00000BF0C37BD465DF8047B704780B483B007
:1042C00000AF786000BF0C37BD465DF8047B7047D7
:1042D00080B483B000AF786000BF0C37BD465DF896
:1042E000047B704780B5B6B000AF786039600023BA
:1042F00087F8D7300023FB607B6893F85030012BA0
:1043000001D10223B9E37B68012283F850207B6846
:104310001B681846FFF771FD0346002B40F09E8393
:104320003B685B68052B24D83B685B68023B032B2A
:104330001BD801A252F823F049430008514300085A
:1043400059430008614300083B680C225A6011E0A1
:104350003B6812225A600DE03B6818225A6009E05F
:104360003B684FF480725A6004E03B6806225A6052
:1043700000E000BF7B6818683B6859683B681B68B1
:104380001A46FFF735FC7B681B681846FFF735FDBA
:10439000C7F8D0007B681B681846FFF741FDC7F8D7
:1043A000CC00D7F8D030002B40F0A681D7F8CC3025
:1043B000002B40F0A1817B6818683B6819683B6856
:1043C0009B681A46FFF740FC3B685A697B681B688C
:1043D000DB68DB0803F003035B0002FA03F3C7F8B2
:1043E000C8303B681B69042B0AD07B6818683B689F
:1043F00019693B681A68D7F8C830FFF791FB7BE171
:104400007B681B6800211846FFF7AEFB0346C3F329
:104410001203002B0AD17B681B6800211846FFF7A6
:10442000A3FB03469B0E03F01F021EE07B681B6884
:1044300000211846FFF798FB0346C7F8BC30D7F8B1
:10444000BC3093FAA3F3C7F8B830D7F8B830C7F840
:10445000C030D7F8C030002B01D1202304E0D7F8BA
:10446000C030B3FA83F3DBB21A463B681B68C3F370
:104470001203002B05D13B681B689B0E03F01F0342
:1044800018E03B681B68C7F8B030D7F8B03093FA33
:10449000A3F3C7F8AC30D7F8AC30C7F8B430D7F8CE
:1044A000B430002B01D1202304E0D7F8B430B3FAA4
:1044B00083F3DBB29A4206D17B681B68002200219D
:1044C0001846FFF767FB7B681B6801211846FFF75A
:1044D0004BFB0346C3F31203002B0AD17B681B6816
:1044E00001211846FFF740FB03469B0E03F01F0215
:1044F0001EE07B681B6801211846FFF735FB034669
:10450000C7F8A430D7F8A43093FAA3F3C7F8A030C3
:10451000D7F8A030C7F8A830D7F8A830002B01D1C1
:10452000202304E0D7F8A830B3FA83F3DBB21A46AD
:104530003B681B68C3F31203002B05D13B681B6863
:104540009B0E03F01F0318E03B681B68C7F8983008
:10455000D7F8983093FAA3F3C7F89430D7F894308B
:10456000C7F89C30D7F89C30002B01D1202304E001
:10457000D7F89C30B3FA83F3DBB29A4206D17B685A
:104580001B68002201211846FFF704FB7B681B68AB
:1045900002211846FFF7E8FA0346C3F31203002B83
:1045A0000AD17B681B6802211846FFF7DDFA034633
:1045B0009B0E03F01F021EE07B681B680221184659
:1045C000FFF7D2FA0346C7F88C30D7F88C3093FA4D
:1045D000A3F3C7F88830D7F88830C7F89030D7F8F9
:1045E0009030002B01D1202304E0D7F89030B3FAAB
:1045F00083F3DBB21A463B681B68C3F31203002B3C
:1046000005D13B681B689B0E03F01F0316E03B6857
:104610001B68C7F88030D7F8803093FAA3F3FB67A4
:10462000FB6FC7F88430D7F88430002B01D12023EA
:1046300004E0D7F88430B3FA83F3DBB29A4206D1B0
:104640007B681B68002202211846FFF7A3FA7B68EB
:104650001B6803211846FFF787FA0346C3F31203CA
:10466000002B0AD17B681B6803211846FFF77CFAF0
:1046700003469B0E03F01F0217E07B681B680321B3
:104680001846FFF771FA03467B677B6F93FAA3F333
:104690003B673B6FBB67BB6F002B01D1202303E05F
:1046A000BB6FB3FA83F3DBB21A463B681B68C3F3F4
:1046B0001203002B05D13B681B689B0E03F01F0300
:1046C00011E03B681B68BB66BB6E93FAA3F37B6685
:1046D0007B6EFB66FB6E002B01D1202303E0FB6E9B
:1046E000B3FA83F3DBB29A4206D17B681B680022DF
:1046F00003211846FFF74EFA7B681B681846FFF740
:1047000055FB0346002B40F03F817B6818683B68EF
:1047100019683B68DB681A46FFF7C2FA3B68DB683A
:104720008E4A934240F030817B6818683B681B6872
:10473000C3F31203002B0BD13B681B689B0E0133A4
:1047400003F01F03092B94BF01230023DBB219E000
:104750003B681B68FB65FB6D93FAA3F3BB65BB6D00
:104760003B663B6E002B01D1202303E03B6EB3FA86
:1047700083F3DBB2013303F01F03092B94BF012342
:104780000023DBB2002B79D03B681B68C3F3120314
:10479000002B07D13B681B689B0E01339B0603F07F
:1047A000F84215E03B681B683B653B6D93FAA3F349
:1047B000FB64FB6C7B657B6D002B01D1202303E048
:1047C0007B6DB3FA83F3DBB201339B0603F0F8424F
:1047D0003B681B68C3F31203002B09D13B681B68BD
:1047E0009B0E013303F01F03012101FA03F317E0CD
:1047F0003B681B687B647B6C93FAA3F33B643B6C64
:10480000BB64BB6C002B01D1202303E0BB6CB3FA6B
:1048100083F3DBB2013303F01F03012101FA03F339
:1048200042EA03013B681B68C3F31203002B0AD161
:104830003B681B689B0E013303F01F0213465B00AD
:1048400013441B0518E03B681B68BB63BB6B93FA02
:10485000A3F37B637B6BFB63FB6B002B01D12023FA
:1048600003E0FB6BB3FA83F3DBB2013303F01F0207
:1048700013465B0013441B050B4380E03B681B6839
:10488000C3F31203002B07D13B681B689B0E013357
:104890009B0603F0F84215E03B681B68FB62FB6A6D
:1048A00093FAA3F3BB62BB6A3B633B6B002B01D162
:1048B000202303E03B6BB3FA83F3DBB201339B06A7
:1048C00003F0F8423B681B68C3F31203002B09D1C5
:1048D0003B681B689B0E013303F01F03012101FAA3
:1048E00003F317E03B681B683B623B6A93FAA3F350
:1048F000FB61FB697B627B6A002B01D1202303E013
:104900007B6AB3FA83F3DBB2013303F01F030121A7
:1049100001FA03F342EA03013B681B68C3F3120385
:10492000002B0DD13B681B689B0E013303F01F0267
:1049300013465B0013441E3B1B0543F000731DE050
:104940003B681B687B617B6993FAA3F33B613B691E
:10495000BB61BB69002B03D1202305E000007F4031
:10496000BB69B3FA83F3DBB2013303F01F021346D2
:104970005B0013441E3B1B0543F000730B433A6876
:1049800092681946FFF760F93B681A683D4B13407F
:10499000002B6CD03C48FFF7B5F8C7F8C4003B6863
:1049A0001B683A4A934227D1D7F8C43003F4000376
:1049B000002B21D17B681B68354A934257D1D7F829
:1049C000C43043F4000319462F48FFF788F8314BF1
:1049D0001B689B09304AA2FB03239B095A1C134600
:1049E0005B0013449B00FB6002E0FB68013BFB6043
:1049F000FB68002BF9D13AE03B681B68274A9342D9
:104A000013D1D7F8C43003F08073002B0DD17B682D
:104A10001B681F4A93422AD1D7F8C43043F08073F1
:104A200019461948FFF75BF821E03B681B681C4AF0
:104A300093421CD1D7F8C43003F48003002B16D165
:104A40007B681B68124A934211D1D7F8C43043F4F3
:104A5000800319460C48FFF742F808E07B685B6D5D
:104A600043F020027B685A65012387F8D7307B68C2
:104A7000002283F8502097F8D7301846D837BD4623
:104A800080BD00BF0000088000030450000052C732
:104A90000000045010000020632D3E05000084CB70
:104AA0000100008080B584B000AF78600023BB6057
:104AB0007B681B681846FFF779F90346002B69D11C
:104AC0007B681B689A68364B1340002B0DD07B68BF
:104AD0005B6D43F010027B685A657B689B6D43F009
:104AE00001027B689A65012355E07B681B681846C4
:104AF000FFF748F92B48FFF705F8034603F40003D6
:104B0000002B13D0284B1B689B09284AA2FB0323C8
:104B10009B095A1C13465B0013449B00BB6002E0D8
:104B2000BB68013BBB60BB68002BF9D1FEF7B8FF47
:104B3000F86028E07B681B681846FFF737F90346E2
:104B4000002B04D17B681B681846FFF71BF9FEF7A2
:104B5000A7FF0246FB68D31A022B14D97B681B6897
:104B60001B6803F00103012B0DD07B685B6D43F0E4
:104B700010027B685A657B689B6D43F001027B687D
:104B80009A65012307E07B681B681B6803F001033B
:104B9000012BCFD1002318461037BD4680BD00BF82
:104BA0003F0000800003045010000020632D3E05EC
:104BB00080B584B000AF78607B689B6AFB60FB685F
:104BC0005B6D03F05003002B4BD1FB685B6D43F42E
:104BD0000072FB685A65FB681B681B6803F00803DA
:104BE000002B21D0FB681B681846FEF7EEFF03463A
:104BF000002B32D0FB681B68DB6803F40053002BEA
:104C00002BD1FB685B6D23F48072FB685A65FB68EF
:104C10005B6D03F48053002B1FD1FB685B6D43F089
:104C20000102FB685A6518E0FB681B68DB6803F04B
:104C30000203002B11D1FB685B6D23F48072FB68CB
:104C40005A65FB685B6D03F48053002B05D1FB684C
:104C50005B6D43F00102FB685A65F868FFF724FBBF
:104C60000EE0FB685B6D03F01003002B03D0F868C7
:104C7000FFF72EFB04E0FB68DB6C5B6B7868984702
:104C800000BF1037BD4680BD80B584B000AF7860EE
:104C90007B689B6AFB60F868FFF710FB00BF10376A
:104CA000BD4680BD80B584B000AF78607B689B6AEC
:104CB000FB60FB685B6D43F04002FB685A65FB6874
:104CC0009B6D43F00402FB689A65F868FFF700FBF0
:104CD00000BF1037BD4680BD80B485B000AF78609E
:104CE0007B6803F00703FB600C4BDB68BB60BA68B2
:104CF0004FF6FF031340BB60FB681A02BB68134307
:104D000043F0BF6343F40033BB60044ABB68D36025
:104D100000BF1437BD465DF8047B704700ED00E02E
:104D200080B400AF044BDB681B0A03F0070318468E
:104D3000BD465DF8047B704700ED00E080B483B0B1
:104D400000AF0346FB7197F90730002B0BDBFB79B3
:104D500003F01F02074997F907305B09012000FAA9
:104D600002F241F8232000BF0C37BD465DF8047BFA
:104D7000704700BF00E100E080B483B000AF03469D
:104D80003960FB7197F90730002B0ADB3B68DAB218
:104D90000C4997F907301201D2B20B4483F8002373
:104DA0000AE03B68DAB20849FB7903F00F03043BE1
:104DB0001201D2B20B441A7600BF0C37BD465DF823
:104DC000047B704700E100E000ED00E080B489B0B2
:104DD00000AFF860B9607A60FB6803F00703FB611D
:104DE000FB69C3F10703042B28BF0423BB61FB69E4
:104DF0000433062B02D9FB69033B00E000237B61EF
:104E00004FF0FF32BB6902FA03F3DA43BB681A4082
:104E10007B699A404FF0FF317B6901FA03F3D94374
:104E20007B680B40134318462437BD465DF8047B6E
:104E3000704780B582B000AF78607868FFF74CFFAC
:104E400000BF0837BD4680BD80B586B000AF0346C1
:104E5000B9607A60FB7300237B61FFF761FF7861C3
:104E60007A68B9687869FFF7B1FF024697F90F30A1
:104E700011461846FFF780FF00BF1837BD4680BDBA
:104E800080B582B000AF0346FB7197F90730184632
:104E9000FFF754FF00BF0837BD4680BD80B485B022
:104EA00000AF78607B68002B01D1012398E07B681C
:104EB0001B681A464D4B9A420FD87B681B681A46EE
:104EC0004B4B13444B4AA2FB03231B099A007B68FC
:104ED0005A647B68484A1A640EE07B681B681A466D
:104EE000464B1344434AA2FB03231B099A007B68E9
:104EF0005A647B68424A1A647B68022283F8252040
:104F00007B681B681B68FB60FB6823F4FF4323F08E
:104F10007003FB607B689A687B68DB681A437B6878
:104F20001B691A437B685B691A437B689B691A4358
:104F30007B68DB691A437B681B6A1343FA68134377
:104F4000FB607B681B68FA681A607B689B68B3F536
:104F5000804F39D07B681B6C274A93421AD1294B6A
:104F60001A687B685B6C03F01C030F2101FA03F3E2
:104F7000DB43244913400B60224B1A687B68596855
:104F80007B685B6C03F01C0301FA03F31D491343B8
:104F90000B6019E01C4B1A687B685B6C03F01C0308
:104FA0000F2101FA03F3DB43174913400B60164B43
:104FB0001A687B6859687B685B6C03F01C0301FA14
:104FC00003F3114913430B607B680022DA637B68AB
:104FD000012283F825207B68002283F82420002307
:104FE00018461437BD465DF8047B7047070402403D
:104FF000F8FFFDBFCDCCCCCC00000240F8FBFDBFDC
:1050000000040240A8000240A804024080B586B017
:1050100000AFF860B9607A603B600023FB75FB6805
:1050200093F82430012B01D102234BE0FB680122CD
:1050300083F82420FB6893F82530DBB2012B3AD1AA
:10504000FB68022283F82520FB680022DA63FB68F4
:105050001B681A68FB681B6822F001021A603B6833
:105060007A68B968F86800F05FF9FB681B6B002B81
:1050700008D0FB681B681A68FB681B6842F00E02C8
:105080001A600FE0FB681B681A68FB681B6822F057
:1050900004021A60FB681B681A68FB681B6842F010
:1050A0000A021A60FB681B681A68FB681B6842F0FA
:1050B00001021A6005E0FB68002283F82420022325
:1050C000FB75FB7D18461837BD4680BD80B485B0A2
:1050D00000AF78600023FB737B6893F82530DBB268
:1050E000022B08D07B680422DA637B68002283F8F5
:1050F0002420012322E07B681B681A687B681B68F8
:1051000022F00E021A607B681B681A687B681B68B5
:1051100022F001021A607B685B6C03F01C027B6862
:105120001B6C012101FA02F25A607B68012283F8AC
:1051300025207B68002283F82420FB7B1846143747
:10514000BD465DF8047B704780B584B000AF7860E1
:105150000023FB737B6893F82530DBB2022B05D06C
:105160007B680422DA630123FB7329E07B681B68F8
:105170001A687B681B6822F00E021A607B681B6845
:105180001A687B681B6822F001021A607B685B6CFE
:1051900003F01C027B681B6C012101FA02F25A60C9
:1051A0007B68012283F825207B68002283F8242075
:1051B0007B689B6B002B03D07B689B6B7868984760
:1051C000FB7B18461037BD4680BD80B584B000AF6C
:1051D00078607B681B6C1B68FB607B681B681B68C6
:1051E000BB607B685B6C03F01C0304229A40FB6885
:1051F0001340002B26D0BB6803F00403002B21D002
:105200007B681B681B6803F02003002B07D17B68B9
:105210001B681A687B681B6822F004021A607B68AE
:105220005B6C03F01C027B681B6C042101FA02F228
:105230005A607B681B6B002B71D07B681B6B786896
:1052400098476CE07B685B6C03F01C0302229A4079
:10525000FB681340002B2ED0BB6803F00203002B29
:1052600029D07B681B681B6803F02003002B0BD13F
:105270007B681B681A687B681B6822F00A021A6048
:105280007B68012283F825207B685B6C03F01C029D
:105290007B681B6C022101FA02F25A607B680022D3
:1052A00083F824207B68DB6A002B38D07B68DB6ABC
:1052B0007868984733E07B685B6C03F01C03082236
:1052C0009A40FB681340002B2AD0BB6803F0080308
:1052D000002B25D07B681B681A687B681B6822F04E
:1052E0000E021A607B685B6C03F01C027B681B6C0F
:1052F000012101FA02F25A607B680122DA637B68BD
:10530000012283F825207B68002283F824207B6813
:105310005B6B002B04D07B685B6B7868984700BFA1
:1053200000BF1037BD4680BD80B485B000AFF860C7
:10533000B9607A603B60FB685B6C03F01C02FB6841
:105340001B6C012101FA02F25A60FB681B683A6883
:105350005A60FB689B68102B08D1FB681B687A6851
:105360009A60FB681B68BA68DA6007E0FB681B6834
:10537000BA689A60FB681B687A68DA6000BF143705
:10538000BD465DF8047B704780B586B000AFF8601D
:10539000B960C7E9002300233B612F4B1B78012B29
:1053A00001D1022353E02C4B01221A704CF25030F1
:1053B00000F094F80346FB75FB7D002B43D1264B90
:1053C00000225A60254B1B6803F48063002B09D030
:1053D000224B1B68214A23F4806313601E4B022278
:1053E0001A7702E01C4B00221A77FB68002B07D1CA
:1053F000D7E90023B86800F0C9F801233B6110E049
:10540000FB68012B02D0FB68022B0AD13B681946CE
:10541000B86800F0E1F8FB68022B02D14FF480235A
:105420003B614CF2503000F059F80346FB753B6984
:10543000002B06D0094B5A693B69DB4307491340EF
:105440004B6100F0DBF9044B00221A70FB7D18461B
:105450001837BD4680BD00BF1C0000200020024060
:1054600080B483B000AF0023FB710B4B5B69002B52
:105470000BDA094B094A9A60074B094A9A60064BB6
:105480005B69002B01DA0123FB71FB7918460C37AD
:10549000BD465DF8047B704700200240230167454C
:1054A000AB89EFCD80B400AF054B5B69044A43F094
:1054B0000043536100231846BD465DF8047B7047E6
:1054C0000020024080B400AF034B5B681846BD4625
:1054D0005DF8047B704700BF1C00002080B584B0DD
:1054E00000AF7860FEF7DCFAF8600DE07B68B3F19E
:1054F000FF3F09D0FEF7D4FA0246FB68D31A7A6858
:105500009A4201D8032336E01D4B1B6903F4803314
:10551000002BEBD11A4B1A691A4B1340BB60BB68C6
:10552000002B1ED0184B5A68BB681343164A5360B1
:10553000BB6803F04043002B07D0114B9A69BB684E
:1055400003F040430E4913438B61BB6823F0404393
:10555000002B04D00A4ABB6823F0404313610123A7
:1055600009E0074B1B6903F00103002B02D0044B39
:1055700001221A61002318461037BD4680BD00BFC6
:1055800000200240FAC302001C00002080B485B055
:1055900000AFF860C7E900230E4B5B690D4A43F08A
:1055A00001035361FB683A681A60BFF36F8F00BF55
:1055B000D7E900014FF000024FF000030A0000237A
:1055C000F968043113460B6000BF1437BD465DF81F
:1055D000047B70470020024080B489B000AF78603F
:1055E00039604023FB777B68BB613B687B61144B70
:1055F0005B69134A43F480235361EFF31083FB602C
:10560000FB683B6172B600BF7B691A68BB691A60B0
:10561000BB690433BB617B6904337B61FB7F013B66
:10562000FB77FB7F002BEFD13B69BB60BB6883F34B
:10563000108800BF00BF2437BD465DF8047B70476B
:105640000020024080B584B000AF78603960484BDC
:105650001B78012B01D1022385E0454B01221A70F2
:105660004CF25030FFF73AFF0346FB73FB7B002BF5
:1056700075D13F4B00225A603E4B1B6803F4007308
:10568000002B13D03B4B1B6803F48063002B09D025
:10569000384B1B68374A23F480631360344B032272
:1056A0001A7716E0324B01221A7712E0314B1B6851
:1056B00003F48063002B09D02E4B1B682D4A23F482
:1056C000806313602A4B02221A7702E0284B0022E3
:1056D0001A777B681B68012B11D17B685B681846C1
:1056E00000F04AF84CF25030FFF7F8FE0346FB7327
:1056F000204B5B691F4A23F0040353612DE03B6894
:105700004FF0FF321A607B689B68BB601DE07B68CE
:105710005B681946B86800F04DF84CF25030FFF75E
:10572000DDFE0346FB73134B5B69124A23F47E7361
:1057300023F002035361FB7B002B03D03B68BA6864
:105740001A600AE0BB680133BB607B689A687B68BB
:10575000DB681344BA689A42D9D300F04FF8044B7F
:1057600000221A70FB7B18461037BD4680BD00BF73
:105770001C0000200020024080B483B000AF78609D
:105780007B6803F00103002B05D0094B5B69084AD5
:1057900043F004035361064B5B69054A43F48033CD
:1057A000536100BF0C37BD465DF8047B704700BFF6
:1057B0000020024080B483B000AF786039600E4BA7
:1057C0005B6923F47E727B68DB0003F4FF630A49A4
:1057D00013434B61084B5B69074A43F00203536173
:1057E000054B5B69044A43F48033536100BF0C37B7
:1057F000BD465DF8047B70470020024080B483B052
:1058000000AF214B1B7FFB71FB79012B02D0FB7991
:10581000032B17D11D4B1B681C4A23F40073136024
:105820001A4B1B68194A43F400631360174B1B683B
:10583000164A23F400631360144B1B68134A43F4A5
:1058400000731360FB79022B02D0FB79032B11D17B
:105850000E4B1B680D4A43F4805313600B4B1B68BF
:105860000A4A23F480531360084B1B68074A43F429
:1058700080631360044B00221A7700BF0C37BD46CB
:105880005DF8047B704700BF1C0000200020024030
:1058900080B487B000AF7860396000237B6154E149
:1058A0003B681A6801217B6901FA03F31340FB602E
:1058B000FB68002B00F046813B685B6803F0030344
:1058C000012B05D03B685B6803F00303022B30D14A
:1058D0007B689B683B617B695B00032202FA03F3F0
:1058E000DB433A6913403B613B68DA687B695B00E4
:1058F00002FA03F33A6913433B617B683A699A60A1
:105900007B685B683B6101227B6902FA03F3DB433E
:105910003A6913403B613B685B681B0903F0010275
:105920007B6902FA03F33A6913433B617B683A6986
:105930005A603B685B6803F00303032B17D07B6856
:10594000DB683B617B695B00032202FA03F3DB4304
:105950003A6913403B613B689A687B695B0002FAD5
:1059600003F33A6913433B617B683A69DA603B6849
:105970005B6803F00303022B23D17B69DA087B68A1
:10598000083253F822303B617B6903F007039B0028
:105990000F2202FA03F3DB433A6913403B613B6891
:1059A0001A697B6903F007039B0002FA03F33A6963
:1059B00013433B617B69DA087B680832396943F835
:1059C00022107B681B683B617B695B00032202FA43
:1059D00003F3DB433A6913403B613B685B6803F0C8
:1059E00003027B695B0002FA03F33A6913433B61EC
:1059F0007B683A691A603B685B6803F44033002BAC
:105A000000F0A080584B1B6E574A43F00103136609
:105A1000554B1B6E03F00103BB60BB68534A7B69A7
:105A20009B08023352F823303B617B6903F0030388
:105A30009B000F2202FA03F3DB433A6913403B61F8
:105A40007B68B3F1904F19D07B68494A934213D0D9
:105A50007B68484A93420DD07B68474A934207D0FF
:105A60007B68464A934201D1042308E0072306E0FD
:105A7000032304E0022302E0012300E000237A690B
:105A800002F00302920093403A6913433B613749A5
:105A90007B699B0802333A6941F82320384B9B68A5
:105AA0003B61FB68DB433A6913403B613B685B68E1
:105AB00003F48013002B03D03A69FB6813433B6166
:105AC0002F4A3B6993602E4BDB683B61FB68DB43ED
:105AD0003A6913403B613B685B6803F40013002B99
