:020000040800F2
:1000000000000120E94F0008954D00089B4D0008B5
:10001000A14D0008A74D0008AD4D000800000000EC
:1000200000000000000000000000000081D800086F
:10003000B34D000800000000D1DA0008E5B0000868
:10004000395000083950000839500008395000086C
:10005000395000083950000839500008395000085C
:10006000395000083950000839500008C14D0008C7
:10007000395000083950000839500008395000083C
:10008000395000083950000839500008395000082C
:10009000395000083950000839500008395000081C
:1000A000395000083950000839500008395000080C
:1000B000395000080000000000000000395000081E
:1000C00039500008395000083950000839500008EC
:1000D00039500008D54D0008395000083950000843
:1000E00039500008395000080000000000000000EE
:1000F0000000000000000000000000000000000000
:1001000000000000395000080000000039500008CD
:100110000000000000000000FD4D000839500008FC
:10012000395000083950000839500008395000088B
:10013000395000080000000000000000000000002E
:1001400039500008395000083950000800000000FC
:10015000114E0008254E000839500008395000089B
:1001600039500008395000083950000800000000DC
:10017000395000083950000800000000000000005D
:0C018000395000083950000839500008C0
:1001900010B5054C237833B9044B13B10448AFF3C1
:1001A00000800123237010BD200200200000000009
:1001B0000439010808B5034B1BB103490348AFF3E9
:1001C000008008BD0000000024020020043901085E
:1001D000034613F8012B002AFBD1181A0138704787
:1001E00001F0FF01102A2BDB10F0070F08D010F8E8
:1001F000013B013A8B422DD010F0070F42B3F6D1EC
:10020000F0B441EA012141EA014122F007047FF004
:1002100000070023F0E80256083C85EA010586EA5B
:10022000010685FA47F5A3FA87F586FA47F6A5FA97
:1002300087F68EB9EED1F0BC01F0FF0102F00702A3
:1002400032B110F8013B013A83EA010313B1F8D14E
:100250000020704701387047002D06BF354603382F
:10026000073815F0010F07D1013015F4807F02BF68
:10027000013015F4C03F0130F0BC0138704700BFB9
:1002800081F0004102E000BF83F0004330B54FEA47
:1002900041044FEA430594EA050F08BF90EA020FB4
:1002A0001FBF54EA000C55EA020C7FEA645C7FEA47
:1002B000655C00F0E2804FEA5454D4EB5555B8BF6A
:1002C0006D420CDD2C4480EA020281EA030382EADB
:1002D000000083EA010180EA020281EA0303362D6D
:1002E00088BF30BD11F0004F4FEA01314FF4801C40
:1002F0004CEA113102D0404261EB410113F0004F52
:100300004FEA03334CEA133302D0524263EB430308
:1003100094EA050F00F0A780A4F10104D5F1200EA6
:100320000DDB02FA0EFC22FA05F2801841F1000101
:1003300003FA0EF2801843FA05F359410EE0A5F1D5
:1003400020050EF1200E012A03FA0EFC28BF4CF006
:10035000020C43FA05F3C01851EBE37101F00045BC
:1003600007D54FF0000EDCF1000C7EEB00006EEBC9
:100370000101B1F5801F1BD3B1F5001F0CD3490853
:100380005FEA30004FEA3C0C04F101044FEA4452AA
:1003900012F5800F80F09A80BCF1004F08BF5FEA31
:1003A000500C50F1000041EB045141EA050130BD11
:1003B0005FEA4C0C404141EB0101013C28BFB1F523
:1003C000801FE9D291F0000F04BF01460020B1FA6E
:1003D00081F308BF2033A3F10B03B3F120020CDA41
:1003E0000C3208DD02F1140CC2F10C0201FA0CF01F
:1003F00021FA02F10CE002F11402D8BFC2F1200C84
:1004000001FA02F120FA0CFCDCBF41EA0C01904039
:10041000E41AA2BF01EB0451294330BD6FEA040482
:100420001F3C1CDA0C340EDC04F11404C4F120026D
:1004300020FA04F001FA02F340EA030021FA04F37F
:1004400045EA030130BDC4F10C04C4F1200220FAD6
:1004500002F001FA04F340EA0300294630BD21FA14
:1004600004F0294630BD94F0000F83F4801306BFDA
:1004700081F480110134013D4EE77FEA645C18BFCE
:100480007FEA655C29D094EA050F08BF90EA020F65
:1004900005D054EA000C04BF1946104630BD91EA5D
:1004A000030F1EBF0021002030BD5FEA545C05D160
:1004B0004000494128BF41F0004130BD14F580049F
:1004C0003CBF01F5801130BD01F0004545F0FE4113
:1004D00041F470014FF0000030BD7FEA645C1ABF48
:1004E000194610467FEA655C1CBF0B46024650EA7F
:1004F000013406BF52EA033591EA030F41F40021AB
:1005000030BD00BF90F0000F04BF0021704730B530
:100510004FF4806404F132044FF000054FF0000105
:1005200050E700BF90F0000F04BF0021704730B5C6
:100530004FF4806404F1320410F0004548BF40429B
:100540004FF000013EE700BF42004FEAE2014FEAF0
:1005500031014FEA02701FBF12F07F4393F07F4FCB
:1005600081F06051704732F07F4208BF704793F0CE
:100570007F4F04BF41F40021704730B54FF46074E1
:1005800001F0004521F000411CE700BF50EA0102E4
:1005900008BF704730B54FF000050AE050EA01028D
:1005A00008BF704730B511F0004502D5404261EBFD
:1005B00041014FF4806404F132045FEA915C3FF43E
:1005C000D8AE4FF003025FEADC0C18BF03325FEADB
:1005D000DC0C18BF033202EBDC02C2F1200300FA8C
:1005E00003FC20FA02F001FA03FE40EA0E0021FAB1
:1005F00002F11444BDE600BF70B54FF0FF0C4CF49F
:10060000E06C1CEA11541DBF1CEA135594EA0C0F50
:1006100095EA0C0F00F0DEF82C4481EA030621EA8B
:100620004C5123EA4C5350EA013518BF52EA0335C6
:1006300041F4801143F4801338D0A0FB02CE4FF078
:100640000005E1FB02E506F00042E0FB03E54FF0A8
:100650000006E1FB03569CF0000F18BF4EF0010EA0
:10066000A4F1FF04B6F5007F64F5407404D25FEA9C
:100670004E0E6D4146EB060642EAC62141EA55514F
:100680004FEAC52040EA5E504FEACE2EB4F1FD0C91
:1006900088BFBCF5E06F1ED8BEF1004F08BF5FEA0F
:1006A000500E50F1000041EB045170BD06F00046C1
:1006B00046EA010140EA020081EA0301B4EB5C046E
:1006C000C2BFD4EB0C0541EA045170BD41F4801166
:1006D0004FF0000E013C00F3AB8014F1360FDEBF8B
:1006E000002001F0004170BDC4F10004203C35DA67
:1006F0000C341BDC04F11404C4F1200500FA05F3EA
:1007000020FA04F001FA05F240EA020001F000428A
:1007100021F0004110EBD37021FA04F642EB060100
:100720005EEA430E08BF20EAD37070BDC4F10C042A
:10073000C4F1200500FA04F320FA05F001FA04F2EE
:1007400040EA020001F0004110EBD37041F10001DA
:100750005EEA430E08BF20EAD37070BDC4F12005E5
:1007600000FA05F24EEA020E20FA04F301FA05F24D
:1007700043EA020321FA04F001F0004121FA04F2F5
:1007800020EA020000EBD3705EEA430E08BF20EAC5
:10079000D37070BD94F0000F0FD101F000464000FF
:1007A00041EB010111F4801F08BF013CF7D041EA81
:1007B000060195F0000F18BF704703F00046520085
:1007C00043EB030313F4801F08BF013DF7D043EA56
:1007D0000603704794EA0C0F0CEA135518BF95EA0C
:1007E0000C0F0CD050EA410618BF52EA4306D1D193
:1007F00081EA030101F000414FF0000070BD50EAB2
:10080000410606BF1046194652EA430619D094EA3B
:100810000C0F02D150EA013613D195EA0C0F05D125
:1008200052EA03361CBF104619460AD181EA030179
:1008300001F0004141F0FE4141F470014FF0000031
:1008400070BD41F0FE4141F4780170BD70B54FF0CC
:10085000FF0C4CF4E06C1CEA11541DBF1CEA13554C
:1008600094EA0C0F95EA0C0F00F0A7F8A4EB05042E
:1008700081EA030E52EA03354FEA013100F0888025
:100880004FEA03334FF0805545EA131343EA1263EE
:100890004FEA022245EA111545EA10654FEA0026A3
:1008A0000EF000419D4208BF964244F1FD0404F55C
:1008B000407402D25B084FEA3202B61A65EB0305B8
:1008C0005B084FEA32024FF480104FF4002CB6EB75
:1008D000020E75EB030E22BFB61A754640EA0C00F5
:1008E0005B084FEA3202B6EB020E75EB030E22BF35
:1008F000B61A754640EA5C005B084FEA3202B6EB76
:10090000020E75EB030E22BFB61A754640EA9C0034
:100910005B084FEA3202B6EB020E75EB030E22BF04
:10092000B61A754640EADC0055EA060E18D04FEAC2
:10093000051545EA16754FEA06164FEAC30343EA62
:1009400052734FEAC2025FEA1C1CC0D111F4801F2F
:100950000BD141EA00014FF000004FF0004CB6E728
:1009600011F4801F04BF01430020B4F1FD0C88BFC7
:10097000BCF5E06F3FF6AFAEB5EB030C04BFB6EBD2
:10098000020C5FEA500C50F1000041EB045170BDC5
:100990000EF0004E4EEA113114EB5C04C2BFD4EBF2
:1009A0000C0541EA045170BD41F480114FF0000E76
:1009B000013C90E645EA060E8DE60CEA135594EAF2
:1009C0000C0F08BF95EA0C0F3FF43BAF94EA0C0FF5
:1009D0000AD150EA01347FF434AF95EA0C0F7FF46A
:1009E00025AF104619462CE795EA0C0F06D152EABE
:1009F00003353FF4FDAE1046194622E750EA4106A2
:100A000018BF52EA43067FF4C5AE50EA41047FF4B2
:100A10000DAF52EA43057FF4EBAE12E74FF0FF3C17
:100A200006E000BF4FF0010C02E000BF4FF0010CE8
:100A30004DF804CD4FEA410C7FEA6C5C4FEA430C61
:100A400018BF7FEA6C5C1BD001B050EA410C0CBFB0
:100A500052EA430C91EA030F02BF90EA020F002012
:100A6000704710F1000F91EA030F58BF994208BF79
:100A700090422CBFD8176FEAE37040F00100704736
:100A80004FEA410C7FEA6C5C02D150EA013C07D18D
:100A90004FEA430C7FEA6C5CD6D152EA033CD3D0D8
:100AA0005DF8040B704700BF8446104662468C46D2
:100AB0001946634600E000BF01B5FFF7B7FF002805
:100AC00048BF10F1000F01BD4DF808EDFFF7F4FF2E
:100AD0000CBF012000205DF808FB00BF4DF808EDB9
:100AE000FFF7EAFF34BF012000205DF808FB00BFDC
:100AF0004DF808EDFFF7E0FF94BF012000205DF8FE
:100B000008FB00BF4DF808EDFFF7CEFF94BF0120B2
:100B100000205DF808FB00BF4DF808EDFFF7C4FFAB
:100B200034BF012000205DF808FB00BF4FEA410CF4
:100B30007FEA6C5C02D150EA013C0AD14FEA430CD7
:100B40007FEA6C5C02D152EA033C02D14FF0000014
:100B500070474FF0010070474FEA410212F5001252
:100B600015D211D56FF47873B3EB625212D94FEAF4
:100B7000C12343F0004343EA505311F0004F23FADE
:100B800002F018BF404270474FF00000704750EA33
:100B9000013005D111F0004008BF6FF000407047F0
:100BA0004FF00000704700BF4A0011D212F500124A
:100BB00011D20DD56FF47873B3EB62520ED44FEAB5
:100BC000C12343F0004343EA505323FA02F0704735
:100BD0004FF00000704750EA013002D14FF0FF3073
:100BE00070474FF0000070474FEA4102B2F1E04316
:100BF00024BFB3F5001CDCF1FE5C0DD901F0004C04
:100C00004FEAC0024CEA5070B2F1004F40EB830053
:100C100008BF20F00100704711F0804F21D113F17F
:100C20003872BCBF01F00040704741F480114FEAB8
:100C30005252C2F11802C2F1200C10FA0CF320FA41
:100C400002F018BF40F001004FEAC1234FEAD3235E
:100C500003FA0CFC40EA0C0023FA02F34FEA4303C8
:100C6000CCE77FEA625307D150EA01331EBF4FF051
:100C7000FE4040F44000704701F0004040F0FE406C
:100C800040F40000704700BF53B94AB9002908BFBB
:100C900000281CBF4FF0FF314FF0FF3000F0A4B927
:100CA000ADF1080C6DE904CE00F03CF8DDF804E08D
:100CB000DDE9022304B0704738B500220023044662
:100CC0000D46FFF70BFF28B920462946BDE83840FE
:100CD00000F00AB8204605F1004100F005F8404256
:100CE00061EB410138BD00BFD0B50C4B0022064678
:100CF0000F46FFF781FCFFF757FF0446FFF702FCA2
:100D0000074B0022FFF778FC02460B463046394677
:100D1000FFF7BAFAFFF748FF2146D0BD0000F03DCB
:100D20000000F0412DE9F047089D04468C46002B59
:100D300040F083808A42174647D9B2FA82F242B124
:100D4000C2F1200024FA00F09140974040EA010CE3
:100D500094404FEA1748230CBCFBF8F61FFA87FEB5
:100D600008FB16C143EA014306FB0EF1994209D97B
:100D7000FB1806F1FF3080F01981994240F216818C
:100D8000023E3B445B1AA4B2B3FBF8F008FB1033FD
:100D900044EA034400FB0EFEA64509D93C1900F1C4
:100DA000FF3380F00581A64540F2028102383C44C1
:100DB00040EA0640A4EB0E0400261DB1D4400023F7
:100DC000C5E900433146BDE8F08702B9FFDEB2FA5B
:100DD00082F2002A50D1CB1B4FEA174E1FFA87F838
:100DE0000126B3FBFEFC210C0EFB1C3341EA034140
:100DF00008FB0CF38B4207D979180CF1FF3002D2B3
:100E00008B4200F2E9808446C91AA3B2B1FBFEF01E
:100E10000EFB101143EA014408FB00F8A04507D976
:100E20003C1900F1FF3302D2A04500F2D9801846E8
:100E3000A4EB080440EA0C40BFE78B4209D9002D1F
:100E400000F0B1800026C5E9000130463146BDE81A
:100E5000F087B3FA83F6002E4AD18B4202D3824246
:100E600000F2B880841A61EB030101208C46002D4A
:100E7000A8D0C5E9004CA5E7C2F1200320FA03F68B
:100E8000974001FA02F04FEA174ED9403043030C65
:100E9000B1FBFEF61FFA87F80EFB161143EA014379
:100EA00006FB08F1994204FA02F409D9FB1806F18D
:100EB000FF3C80F08D80994240F28A80023E3B44A4
:100EC0005B1A81B2B3FBFEF00EFB103341EA034123
:100ED00000FB08F38B4207D9791800F1FF3C73D26D
:100EE0008B4271D902383944CB1A40EA064678E77A
:100EF000C6F1200C03FA06F422FA0CF31C4320FA84
:100F00000CF701FA06F34FEA144E21FA0CF11F43D5
:100F10003B0CB1FBFEF91FFA84F80EFB191143EAF2
:100F2000014109FB08FA8A4502FA06F200FA06F3C3
:100F300008D9611809F1FF3048D28A4546D9A9F18C
:100F400002092144A1EB0A01BFB2B1FBFEF00EFB86
:100F5000101147EA014700FB08F8B84507D9E7191F
:100F600000F1FF312ED2B8452CD90238274440EA8F
:100F70000940A7EB0807A0FB02894F45C646494632
:100F80001AD317D05DB1B3EB0E0267EB010707FA76
:100F90000CFCF2404CEA0202F740C5E900270026AB
:100FA0003146BDE8F0872E4628460BE70646E9E6BF
:100FB0001846FDE64345E5D2B8EB020E69EB0401A5
:100FC0000138DFE70846D2E760468DE78146B9E79A
:100FD000664675E730464AE7ACF1020C394413E740
:100FE00002383C4424E700BF704700BF80B400AF24
:100FF00000BFBD465DF8047B704780B400AF00239E
:101000001846BD465DF8047B704780B483B000AFDE
:101010007860396000BF0C37BD465DF8047B7047CF
:1010200080B500AF0B4BDA680B4B1B6803F29313D0
:101030009A4208D2074BDB68F02B04D901F082FA00
:1010400001F0F8F904E001F035FA01F063FA00BFAD
:1010500000BF80BDA45900205C02002080B500AF15
:1010600001F058FA01F0E6F900BF80BD80B500AF8D
:10107000624B1B780F2B00F2BC8001A252F823F0C8
:10108000C1100008C7100008DD100008F3100008A8
:101090000B11000821110008391100084F11000838
:1010A000551100086B110008811100089911000802
:1010B000AF110008C7110008F3110008DF11000884
:1010C000FFF7CCFF98E04E4B9B6DB3F5616F02D9F3
:1010D000FFF7C4FF90E0FFF7A3FF8DE0484B9B6D47
:1010E000B3F5E15F02D9FFF7B9FF85E0FFF798FF9D
:1010F00082E0434B9B6D42F63022934202D9FFF7C8
:10110000ADFF79E0FFF78CFF76E03D4B9B6DB3F5CB
:10111000615F02D9FFF7A2FF6EE0FFF781FF6BE08E
:10112000374B9B6D44F25062934202D9FFF796FF12
:1011300062E0FFF775FF5FE0314B9B6D45F2604267
:10114000934202D9FFF78AFF01E0FFF769FFFFF73B
:1011500085FF51E02A4B9B6DB3F5616F02D9FFF714
:101160007DFF49E0FFF75CFF46E0254B9B6DB3F543
:10117000E15F02D9FFF772FF3EE0FFF751FF3BE06E
:101180001F4B9B6D42F63022934202D9FFF766FF58
:1011900032E0FFF745FF2FE0194B9B6DB3F5615F20
:1011A00002D9FFF75BFF27E0FFF73AFF24E0144B7B
:1011B0009B6D44F25062934202D9FFF74FFF1BE050
:1011C000FFF72EFF18E00E4B9B6D45F260429342F5
:1011D00002D9FFF743FF0FE0FFF722FF0CE0094BB6
:1011E0001B68002B02D0FFF739FF05E0FFF718FF5F
:1011F00002E001F08FF900BF00BF80BDA0590020C0
:10120000A85C00205802002080B500AF774B1B6817
:101210001B2B00F2D88001A252F823F08D12000897
:10122000171300084F1300084F1300084F1300084E
:101230004F1300084F1300084F1300084F13000806
:101240004F1300084F1300084F1300084F130008F6
:101250004F1300084F1300084F1300084F130008E6
:101260006F1300086F1300086F1300086F13000856
:101270006F1300086F1300086F1300086F13000846
:101280006F1300086F13000897130008584B1B6872
:10129000E62B08D9574B1B68002B04D1564B40F660
:1012A000C4121A6013E0534B1B68012B0FD1534B30
:1012B0001B68002B0BD1504B01221A60504B9B6EC8
:1012C00001334F4A93664D4B40F241321A604A4B0C
:1012D0001B68002B04D0484B1B68013B464A136037
:1012E000464B1B68002B04D0444B1B68013B434A10
:1012F0001360414B1B68002B02D13C4B01221A604A
:101300004048FEF765FF03463E4A13443E491846EF
:101310000DF01AFF68E03D4B01221A6001F0CAF897
:1013200001F010F9314B02221A60354BDB6A0133B0
:10133000334AD36201F00EF83248FEF749FF034604
:10134000304A1344324918460DF0FEFE4CE0274B5C
:101350001B680133254A13602A48FEF739FF03460C
:10136000284A13442B4918460DF0EEFE3CE001F0EC
:10137000D1F81E4B1B6801331C4A136001F022F8A0
:101380002048FEF725FF03461E4A1344224918460B
:101390000DF0DAFE28E0154B00221A601B4B0022EC
:1013A0001A60154B40F6C4121A601C4B0022DA6416
:1013B0001448FEF70DFF0346124A13441849184615
:1013C0000DF0C2FE10E0094B00221A600F4B002204
:1013D0001A600C48FEF7FCFE03460A4A1344114902
:1013E00018460DF0B1FE00BF00BF80BD6063002055
:1013F000A4590020540200201000002014000020F6
:101400003C5A0020D85D002038390108DC610020FA
:10141000403901084839010850390108C8590020ED
:10142000583901086039010880B500AFA14B1B682D
:10143000252B00F22C8101A252F823F0D5140008CC
:10144000B9150008FB150008FB150008FB1500087E
:10145000FB150008FB150008FB150008FB1500082C
:10146000FB150008FB150008FB150008FB1500081C
:10147000FB150008FB150008FB150008FB1500080C
:10148000FB150008FB150008FB150008FB150008FC
:10149000FB150008FB150008FB150008FB150008EC
:1014A000FB150008FB1500081B1600081B1600089A
:1014B0001B1600081B1600081B1600081B16000848
:1014C0001B1600081B1600081B1600081B16000838
:1014D00059160008784B1B68B3F5877F0CD9764BFB
:1014E0001B6843F2BB42934206D8744B23221A6016
:1014F000734B0022DA641FE06F4B1B6844F27402E6
:10150000934209D96D4B00221A606D4B0122DA63B8
:101510006B4B0022DA640FE0674B1B68B3F5877FE3
:101520000AD8674BDB6C002B06D1654B0122DA64CD
:10153000624B40F2E2421A60624B1B68012B13D1EE
:10154000614B1B68002B0FD0604B1B68002B0BD12D
:101550005A4B01221A605E4B9B6E01335C4A9366C4
:101560005A4B40F241321A60544B1B68002B08D092
:10157000554B1B68002B04D0504B1B68013B4F4A56
:101580001360524B1B68002B04D0504B1B68013B6F
:101590004E4A1360494B1B68002B02D1454B012278
:1015A0001A604C48FEF714FE03464A4A13444A495F
:1015B00018460DF0C9FD7BE0484B01221A6000F08F
:1015C000C1FF3C4B11221A603D4BDB6B002B02D05C
:1015D000384B02221A603E4B5B6E01333C4A536625
:1015E00000F0B8FE3B48FEF7F3FD0346394A1344CA
:1015F0003B4918460DF0A8FD5AE02E4B1B680133FD
:101600002C4A13603348FEF7E3FD0346314A134486
:10161000344918460DF098FD4AE000F07BFF00F0D9
:1016200009FF244B1B680133224A136000F0CAFEF5
:10163000214B1B6844F27402934202D91D4B0122D4
:101640001A602448FEF7C4FD0346224A1344264983
:1016500018460DF079FD2BE0194B0022DA63154B8B
:1016600000221A601D4B00221A60144B40F6C4126F
:101670001A60134B0022DA641648FEF7A9FD0346F0
:10168000144A1344194918460DF05EFD10E0094B49
:1016900000221A60114B00221A600E48FEF798FDD6
:1016A00003460C4A1344124918460DF04DFD00BF85
:1016B00000BF80BD60630020A459002010000020FE
:1016C000C8590020540200204C02002014000020C1
:1016D0003C5A0020D85D002068390108DC610020F8
:1016E0007039010878390108803901088839010802
:1016F0009039010884B080B588B000AF07F1280C9C
:101700008CE80F0060237B60B7F87C30BB6000235F
:10171000FB6008233B6100237B613B1D7A6F194608
:1017200007F1280007F0F0FB796F07F1280007F0B8
:1017300065F900BF2037BD46BDE8804004B0704762
:1017400084B080B588B000AF07F1280C8CE80F009A
:10175000B7F87830BB6060237B600023FB60002318
:101760003B6100237B610023BB610023FB613B1DC8
:101770007A6F194607F1280007F0C6FB796F07F169
:10178000280007F03BF900BF2037BD46BDE8804088
:1017900004B0704780B500AF614B1B68002B1DD0B3
:1017A0005F4B1B68013B5E4A136000224FF400410F
:1017B0005C4805F017FE00224FF48041594805F0BF
:1017C00011FE00224FF40051564805F00BFE002296
:1017D0004FF48051534805F005FE9FE0524B9B6942
:1017E000462B03DC504B5B69462B1DDD4E4B9B6942
:1017F000462B05DD01224FF400414A4805F0F2FD79
:10180000494B5B69462B05DD01224FF48041454879
:1018100005F0E8FD01224FF40051424805F0E2FDD9
:101820003F4B01221A6079E0404B1B6A002B0FD01E
:1018300001224FF400413B4805F0D4FD01224FF452
:101840008041384805F0CEFD354B01221A6065E035
:10185000364B1B69002B09D001224FF4004131485F
:1018600005F0C0FD2E4B01221A6057E02F4BDB68BC
:10187000002B1BD02E4B1B68002B0DD02D4B1B6853
:10188000002B09D001224FF48041264805F0AAFD23
:10189000234B01221A6041E001224FF4804121488C
:1018A00005F0A0FD1E4B03221A6037E01F4B9B681A
:1018B000002B09D001224FF400411A4805F092FD97
:1018C000174B09221A6029E0184B5B68002B09D0DE
:1018D00001224FF40041134805F084FD104B012212
:1018E0001A601BE0114B1B68002B09D001224FF43A
:1018F00000410C4805F076FD094B01221A600DE00D
:101900000A4BDB69002B09D001224FF480410548C6
:1019100005F068FD024B09221A60FFE700BF80BD99
:10192000C459002000040048A4590020C8590020D0
:101930004C0200204802002080B483B000AF002396
:101940007B600AE07B68134A134413497A680A44AF
:1019500012781A707B6801337B607B68272BF1D982
:101960000C4B1B68B3F1FF3F0DD100237B6007E0F8
:101970007B68084A134400221A707B6801337B603D
:101980007B68272BF4D900BF0C37BD465DF8047B7C
:10199000704700BF805C002000A0030880B588B0BD
:1019A00000AF0023FB610023BB611F4B1B680133A9
:1019B0001D4A136000237B6001233B617423FB609D
:1019C0000123BB6005F064F9184BB3221A6107F1DB
:1019D00014023B1D1146184605F04CFA1AE0BB698B
:1019E000134A13441946FB69DB00124A1344D3E936
:1019F0000023002005F0E0F80346002B06D1BB6968
:101A00000833BB61FB690133FB6103E005F072F948
:101A1000034605E0FB69042BE1D905F05BF90023DF
:101A200018462037BD4680BD3C5A002000200240A9
:101A300000A00308805C002080B584B000AF0023C4
:101A4000BB6000237B603F4B00221A600023FB60D9
:101A50002FE004233B600DE03B68013B3B60BB682B
:101A60001B023949FA68D20211443A680A441278D2
:101A70001343BB603B68002BEED1BB68B3F1FF3F63
:101A800001D10023BB60BA687B689A4209D92D4A0C
:101A9000FB681360BB687B604FF400512B4805F076
:101AA000B9FC4FF48041294805F0B4FCFB680133D0
:101AB000FB60FB68332BCCD900224FF480412348D4
:101AC00005F090FC00224FF40051204805F08AFCFC
:101AD0000023FB600EE01B4B1A68FB681C490B449B
:101AE0001949D2021144FA680A4412781A70FB6844
:101AF0000133FB60FB68C72BEDD9154BDB69B3F1F4
:101B0000FF3F13D10023FB600CE0FB68114A134434
:101B100000221A70FB680E4A134400221A70FB68F8
:101B20000133FB60FB68C72BEFD907E0094A084B7C
:101B300010461946C8231A460CF09BFB00BF10370D
:101B4000BD4680BDD86100200000020800040048A6
:101B50004C6200203C5A002080B588B000AF0023C2
:101B6000FB610023BB61304A304B10461946C82345
:101B70001A460CF07EFB2E4B1B68322B05D82C4BE3
:101B80001B6801332A4A136002E0294B00221A60C5
:101B9000264B1B680133254A136000237B60012319
:101BA0003B61234B1B684033FB600123BB6005F0A6
:101BB0006FF8204BB3221A6107F114023B1D114646
:101BC000184605F057F905F085F805F061F8194B4E
:101BD000B3221A611EE0164B1B68DA02BB6913447C
:101BE000154A13441946FB69DB000F4A1344D3E935
:101BF0000023002004F0E0FF0346002B06D1BB6960
:101C00000833BB61FB690133FB6103E005F072F847
:101C1000034605E0FB69182BDDD905F05BF80023CE
:101C200018462037BD4680BD4C6200203C5A00203B
:101C3000D8610020002002400000020880B586B074
:101C400000AF274B1B68184609F01EFC00237B6180
:101C50000CE07B69234A134400221A707B69224AF4
:101C6000134400221A707B6901337B617B69C72BA7
:101C7000EFD91E4B00221A6000233B600123FB605A
:101C80001A4B1B684033BB6001237B6005F000F8F2
:101C9000174BB3221A610FE007F110023B461146C1
:101CA000184605F0E7F8114B1B6801330F4A136023
:101CB0000E4B1B684033BB600C4B1B68322BEBD9BF
:101CC00005F008F8094B00221A60054B1B686421D7
:101CD000184609F0ABFB00BF1837BD4680BD00BFFA
:101CE000D45D00203C5A00204C620020D8610020C6
:101CF0000020024080B400AF934B1B68002B11D032
:101D0000914B00221A60914B1A68914BDB68904905
:101D1000496801FB03F38F49A1FB03135B0B1344D9
:101D20008A4A1360884B5B68002B11D0864B0022D7
:101D30005A60864B5A68864BDB688549496801FBC7
:101D400003F38449A1FB03135B0B13447F4A5360E5
:101D50007D4B9B68002B11D07B4B00229A607B4B04
:101D60009A687B4B9B687A49096801FB03F37949C0
:101D7000A1FB03135B0B1344744A9360724BDB6843
:101D8000002B11D0704B0022DA60704BDA68704B78
:101D9000DB686F49096801FB03F36E49A1FB03137C
:101DA0005B0B1344694AD360674B1B69002B11D04E
:101DB000654B00221A61654B1A69654BDB68644903
:101DC000496801FB03F36349A1FB03135B0B134455
:101DD0005E4A13615C4BDB69002B07D05A4B002233
:101DE000DA615A4BDB690133584AD361564B1B6A9F
:101DF000002B07D0544B00221A62544B1B6A01334C
:101E0000524A1362504B9B69002B07D04E4B002265
:101E10009A614E4B9B6901334C4A93614A4B9B6DCF
:101E2000002B07D0484B00229A65484B9B6D01332D
:101E3000464A9365444B1B6C002B09D0424B002251
:101E40001A64454BD3F8A0300133434AC2F8A0309E
:101E50003D4BDB6D002B09D03B4B0022DA653B4B41
:101E6000DA6D3B4B5B681344384AD365364B1B6EC7
:101E7000002B09D0344B00221A66344B1A6E344BB7
:101E80001B681344314A13662F4B5B6A002B07D043
:101E90002D4B00225A622D4B5B6A01332B4A536251
:101EA0002B4B5B691A462C4B5B6B9A4209D3284B30
:101EB0005B691A46284B5A63274B9B6B0133264AB2
:101EC0009363234B9B691A46234BDB6B9A4209D3DE
:101ED0001F4B9B691A46204BDA631F4B1B6C013367
:101EE0001D4A13641A4B1A681B4B5B6C9A4208D349
:101EF000174B1B68184A5364174B9B6C0133164AE7
:101F00009364134B5A68144BDB6C9A4208D3104B02
:101F10005B68114AD364104B1B6D01330E4A136585
:101F20000B4BDA680C4B5B6D9A4208D3084BDB68AD
:101F3000094A5365084B9B6D0133074A9365044B6F
:101F4000DB68F02B27D909E0C8590020A85C0020E5
:101F5000A45900205917B7D13C5A0020104BDB6D13
:101F6000F02B09D80F4BDB680D4AD3650C4B1B6E69
:101F700001330B4A13660EE00A4BDA68084BDB6D3F
:101F80009A4208D8074BDB68054AD365044B1B6EA1
:101F90000133034A136600BFBD465DF8047B7047FA
:101FA0003C5A0020A459002080B400AF924B1B681B
:101FB000924AA2FB0323DB0A914A5360904B9A6832
:101FC0008D4B5B688D49A1FB0313DB0A13448C4ADC
:101FD00093608B4B9A69884B9B691344884A936141
:101FE000874BDA68844B9B688449A1FB0313DB0AA7
:101FF0001344834AD360824B1A697F4BDB687F4965
:10200000A1FB0313DB0A13447D4A13617C4B5A691D
:10201000794B1B697949A1FB0313DB0A1344784A06
:102020005361774BD3F89420734BDB6D7349A1FB5D
:102030000313DB0A1344724AC2F89430714B1B78C5
:10204000062B0DD86E4BD3F8B0206B4BDB6D6B4974
:10205000A1FB0313DB0A1344694AC2F8B03038E02D
:10206000684B1B78062B11D9664B1B780D2B0DD8AE
:10207000634BD3F8B820604BDB6D6049A1FB0313C1
:10208000DB0A13445E4AC2F8B83022E05D4B1B788D
:102090000E2B0DD15A4BD3F8B820574BDB6D574957
:1020A000A1FB0313DB0A1344554AC2F8B83010E011
:1020B000544B1B780F2B0CD1514BD3F8B8204E4BFF
:1020C000DB6D4E49A1FB0313DB0A13444C4AC2F8F3
:1020D000B8304B4BDA6F484B1B6E4849A1FB0313DA
:1020E000DB0A1344464AD367464B1B78062B0DD8B0
:1020F000434BD3F8B420404B1B6E4049A1FB031364
:10210000DB0A13443E4AC2F8B43038E03D4B1B783A
:10211000062B11D93B4B1B780D2B0DD8384BD3F820
:10212000BC20354B1B6E3549A1FB0313DB0A13445E
:10213000334AC2F8BC3022E0324B1B780E2B0DD153
:102140002F4BD3F8BC202C4B1B6E2C49A1FB031347
:10215000DB0A13442A4AC2F8BC3010E0294B1B7832
:102160000F2B0CD1264BD3F8BC20234B1B6E2349DD
:10217000A1FB0313DB0A1344214AC2F8BC30204BF5
:10218000DA691D4BDB6913441D4AD3611C4B1A6A83
:10219000194B1B6A13441A4A1362194BD3F8C02017
:1021A000154B5B6A1344164AC2F8C030124B00222A
:1021B000DA65114B00221A660F4B00221A600E4B93
:1021C00000225A600C4B00229A610B4B00229A604D
:1021D000094B0022DA60084B00221A61064B0022EC
:1021E000DA61054B00221A62034B00225A6200BFDB
:1021F000BD465DF8047B7047A85C0020C5B3A29182
:102200003C5A0020A059002080B500AF01211E4893
:1022100005F0D0F803461A461C4B1A7010211C48D2
:1022200005F0C8F803465B00DAB2184B1B7813447C
:10223000DAB2164B1A700221134805F0BBF80346B8
:102240009B00DAB2114B1B781344DAB20F4B1A70B1
:1022500020210F4805F0AEF80346DB00DAB20B4B45
:102260001B781344DAB2094B1A70084B1B78DB4316
:10227000DAB2064B1A70054B1B7803F00F03DAB283
:10228000024B1A7000BF80BD00040048A059002016
:102290000008004880B582B000AF124B1B68002BCD
:1022A0001BD1104B01221A60012210214FF09040E7
:1022B00005F098F80C490D480CF046FF0B48FDF767
:1022C00087FF78607B689BB21A460849084807F088
:1022D000A9FB0A2008F0FDFF00E000BF0837BD465B
:1022E00080BD00BF5002002098390108D85D002051
:1022F000FC5B002080B582B000AF124B1B68002B46
:102300001BD0104B00221A60002210214FF0904089
:1023100005F068F80C490D480CF016FF0B48FDF766
:1023200057FF78607B689BB21A460849084807F057
:1023300079FB642008F0CDFF00E000BF0837BD4600
:1023400080BD00BF50020020A8390108D85D0020E0
:10235000FC5B0020F0B599B012AF184EC823109363
:1023600000230F936D4606F110040FCC0FC50FCC60
:102370000FC50FCC0FC594E8070085E8070096E865
:102380000F00FFF7DDF900210C4806F037FB3B1D7D
:1023900000221A605A609A60DA601A614FF4007382
:1023A0007B600023BB600223FB603B1D1946044891
:1023B00004F086FE00BF1C37BD46F0BD146300204C
:1023C00000040048F0B599B012AF184E00231093E6
:1023D00000230F936D4606F110040FCC0FC50FCCF0
:1023E0000FC50FCC0FC594E8070085E8070096E8F5
:1023F0000F00FFF7A5F900210C4806F0DDFB3B1D9F
:1024000000221A605A609A60DA601A614FF4007311
:102410007B600023BB600023FB603B1D1946044822
:1024200004F04EFE00BF1C37BD46F0BD1463002013
:1024300000040048F0B593B012AF1B4B9B69462BCC
:1024400002DD00F037F82BE0184B1B68002B26D17B
:10245000002240214FF0904004F0C4FF144E4FF48E
:10246000FA731193FE23109300230F936D4606F128
:1024700010040FCC0FC50FCC0FC50FCC0FC594E8BF
:10248000070085E8070096E80F00FFF733F9002101
:10249000074806F0B3FA054B01221A6000E000BFBE
:1024A0000437BD46F0BD00BFA459002048020020FB
:1024B00000620020F0B593B012AF144E00231193C8
:1024C000FE23109300230F936D4606F110040FCCEA
:1024D0000FC50FCC0FC50FCC0FC594E8070085E8DA
:1024E000070096E80F00FFF705F9012240214FF0A1
:1024F000904004F077FF0021044806F05DFB044B98
:1025000000221A6000BF0437BD46F0BD0062002003
:102510004802002080B500AF084B5B69462B02DD06
:1025200000F010F808E0002280214FF0904004F005
:1025300059FF034B01221A6000BF80BDA45900203F
:102540004C02002080B500AF012280214FF0904066
:1025500004F048FF024B00221A6000BF80BD00BF9C
:102560004C02002000000000B0B586B000AF7860DB
:102570007868FDF7C7FF02460B4610461946FEF77E
:1025800033FB03467B617869FDF7DEFF02460B46AD
:102590009FED471B43EC102B10F00AFA51EC100B87
:1025A0004BA3D3E90023FEF727F802460B46144657
:1025B0001D467869FDF7C8FF02460B469FED3E1B9E
:1025C00043EC102B10F0F4F951EC100B42A3D3E9BB
:1025D0000023FEF711F802460B4620462946FDF778
:1025E00055FE02460B4614461D467869FDF7ACFFC2
:1025F00002460B469FED321B43EC102B10F0D8F92E
:1026000051EC100B36A3D3E90023FDF7F5FF02468A
:102610000B4620462946FDF737FE02460B46144678
:102620001D467869FDF790FF02460B469FED261B7D
:1026300043EC102B10F0BCF951EC100B2AA3D3E99A
:102640000023FDF7D9FF02460B4620462946FDF739
:102650001DFE02460B4614461D467869FDF774FFC1
:1026600023A3D3E90023FDF7C7FF02460B4620460C
:102670002946FDF709FE02460B46104619461EA3E1
:10268000D3E90023FDF702FE02460B461046194629
:10269000FEF7AAFA03463B61D7ED047AFDEEE77A2E
:1026A00017EE903AFB60FB6818461837BD46B0BD80
:1026B0000000000000001440000000000000104076
:1026C0000000000000000840000000000000004082
:1026D000C92765180F02E0BC0781824A5B72B53DCD
:1026E0009F5AE491AE79763E77188DC2381F273F06
:1026F000C7F918339A00CB3FDD15CC77F1B46340AE
:1027000080B584B000AF78607B6807EE903AF8EE51
:10271000677A9FED277A67EE877A9FED267AC7EE74
:10272000876A16EE900AFDF70FFF02460B46C7E9CF
:10273000022319A3D3E90023D7E90201FDF75CFFC7
:1027400002460B46C7E9022315A3D3E90023D7E9C4
:102750000201FDF751FF02460B46104619464FF0A5
:102760000002154BFEF772F802460B46C7E902233A
:102770000DA3D3E90023D7E90201FDF73DFF02468F
:102780000B46C7E90223D7E90201FEF70DFA03461B
:1027900018461037BD4680BD00000080EB510A404E
:1027A0000000000000607E409A9999999999B93F7C
:1027B0000000C84200F07F450000304000000000EB
:1027C00080B584B000AF78607868FDF79BFE1EA3EB
:1027D000D3E90023FDF710FF02460B46C7E90223A9
:1027E0004FF00002164BD7E90201FEF72FF8024620
:1027F0000B46C7E902234FF00002124BD7E9020152
:10280000FDF744FD02460B46C7E902234FF00002E4
:102810004FF00003D7E90201FEF760F90346002BF1
:1028200005D04FF000024FF00003C7E90223D7E9BB
:102830000201FEF7B9F9034618461037BD4680BDC0
:1028400000408F40000039400000000000E0AD4033
:1028500080B586B000AF02F0F0FB00F043F800F066
:102860009BFA00F05FFA00F081F800F02BFA00F01C
:1028700057F900F0AFF93B1D00221A605A609A60C8
:10288000DA601A614FF400737B600023BB600023A1
:10289000FB603B1D19460C4804F012FC08F03CFCA0
:1028A0000A4B002201210A4808F044FD0346094A68
:1028B0001360094A0021094808F078FC0346084AD9
:1028C000136008F04DFCFEE7000400489046010844
:1028D00069460008D45D00206C460108253C0008CC
:1028E0009C59002080B596B000AF07F11403442234
:1028F000002118460BF0CBFC3B4600221A605A60C0
:102900009A60DA601A614FF4007004F0ABFD034680
:10291000002B01D001F0B4FF01237B614FF4803321
:10292000BB610023FB6307F11403184604F0F0FDBC
:102930000346002B01D001F0A3FF0F233B600223CD
:102940007B600023BB600023FB6000233B613B46B0
:102950000021184605F0EEF90346002B01D001F0E6
:102960008FFF00BF5837BD4680BD000080B586B0E0
:1029700000AF3B4600221A605A609A60DA601A6122
:102980005A615D4B5D4A1A605B4B4FF480225A607E
:10299000594B00229A60584B0022DA60564B0122B4
:1029A0001A61554B04225A61534B00221A76524B3E
:1029B00000225A76504B0822DA614F4B002283F8EE
:1029C00020204D4B00229A624B4B0022DA624A4B88
:1029D000012283F83020484B00225A63464B0022E4
:1029E00083F83820444802F04FFD0346002B01D005
:1029F00001F046FF424B3B6006237B600123BB6036
:102A00007F23FB6004233B6100237B613B46194627
:102A1000394802F087FF0346002B01D001F030FF58
:102A2000384B3B600C237B603B461946324802F032
:102A300079FF0346002B01D001F022FF324B3B60AF
:102A400012237B600023BB603B4619462A4802F0F4
:102A500069FF0346002B01D001F012FF2B4B3B60B6
:102A600018237B603B461946234802F05BFF034670
:102A7000002B01D001F004FF254B3B604FF4807325
:102A80007B603B4619461C4802F04CFF0346002B76
:102A900001D001F0F5FE1F4B3B604FF483737B6068
:102AA0003B461946144802F03DFF0346002B01D077
:102AB00001F0E6FE184B3B604FF486737B603B46AB
:102AC00019460D4802F02EFF0346002B01D001F0FD
:102AD000D7FE124B3B604FF489737B603B4619462F
:102AE000054802F01FFF0346002B01D001F0C8FE8D
:102AF00000BF1837BD4680BD505B00200000045069
:102B000002003004040060080800900C1000C0109F
:102B10002000F014400020198000501D01000080AA
:102B200080B58AB000AF07F11C0300221A605A601A
:102B30009A603B4600221A605A609A60DA601A6115
:102B40005A619A61224B4FF080421A60204B012259
:102B50005A601F4B00229A601D4B4FF47A72DA6064
:102B60001B4B4FF400721A61194B80229A6118486E
:102B700005F0ECFE0346002B01D001F081FE00239E
:102B8000FB6100237B6207F11C031946104806F025
:102B9000FFFD0346002B01D001F072FE60233B6075
:102BA00000237B600023BB6000233B613B46002287
:102BB0001946074806F0A8F90346002B01D001F09A
:102BC0005FFE034801F066FF00BF2837BD4680BDA9
:102BD0000062002080B592B000AF07F12C03002204
:102BE0001A605A609A60DA601A615A619A613B46CB
:102BF0002C22002118460BF04AFB304B304A1A6059
:102C00002E4B01225A602D4B00229A602B4B4FF421
:102C1000FA72DA60294B00221A61284B00225A61AD
:102C2000264B80229A61254805F0E4FD0346002BDF
:102C300001D001F025FE214805F088FE0346002B57
:102C400001D001F01DFE6023FB62FE233B630023E5
:102C50007B630023BB630023FB6300233B640023EF
:102C60007B6407F12C0300221946144806F04CF946
:102C70000346002B01D001F003FE00233B6000233C
:102C80007B600023BB600023FB6000233B614FF4AB
:102C900000537B610023BB623B461946074806F0A0
:102CA000DDFD0346002B01D001F0EAFD034801F0F1
:102CB000F1FE00BF4837BD4680BD00BF1463002051
:102CC0000044014080B500AF144B154A1A60134B05
:102CD0004FF4E1325A60114B00229A600F4B0022F0
:102CE000DA600E4B00221A610C4B0C225A610B4B1E
:102CF00000229A61094B4FF40042DA61074B00222F
:102D00001A62064B00225A62044806F03DFE034652
:102D1000002B01D001F0B4FD00BF80BDFC5B0020A2
:102D20000038014080B582B000AF1A4B9B6C194A45
:102D300043F001039364174B9B6C03F001037B602A
:102D40007B68144B9B6C134A43F002039364114B52
:102D50009B6C03F002033B603B68002205210B20C3
:102D600003F07EFC0B2003F097FC00220521442099
:102D700003F076FC442003F08FFC0022052145205F
:102D800003F06EFC452003F087FC00BF0837BD460A
:102D900080BD00BF0010024080B58AB000AF07F1CF
:102DA000140300221A605A609A60DA601A61494B73
:102DB000DB6C484A43F08003D364464BDB6C03F082
:102DC00080033B613B69434BDB6C424A43F00403A5
:102DD000D364404BDB6C03F00403FB60FB683D4BAA
:102DE000DB6C3C4A43F00103D3643A4BDB6C03F0E9
:102DF0000103BB60BB68374BDB6C364A43F0020310
:102E0000D364344BDB6C03F002037B607B680022ED
:102E10004FF4E8714FF0904004F0E4FA00224FF4D0
:102E200070412D4804F0DEFA08237B610023BB616A
:102E30000023FB6107F1140319464FF0904004F0A2
:102E40003FF94FF4E8737B610123BB610023FB6111
:102E500000233B6207F1140319464FF0904004F041
:102E60002FF930237B610023BB610123FB6107F154
:102E700014031946194804F023F903237B61002346
:102E8000BB610123FB6107F114031946124804F0EA
:102E900017F94FF401737B610023BB610223FB61CF
:102EA00007F1140319460C4804F00AF94FF4704373
:102EB0007B610123BB610023FB6100233B6207F1BF
:102EC00014031946044804F0FBF800BF2837BD4638
:102ED00080BD00BF00100240000400480008004808
:102EE00080B58AB000AF78607B681B68DB6903F04F
:102EF0001003102B40F0B5818D4B1B6810221A6215
:102F00008C4B1B780133DAB28A4B1A708A4B1B88C0
:102F10007B837B681B6F1B685B689BB2C3F17F037D
:102F20009AB2854B1A807F23FB84844B1B78012B3C
:102F300019D8824B1B78002B0FD07F4B1B887A8BC4
:102F40009A4207D37C4B1A887B8BD31A9BB27F3370
:102F5000FB840AE08023FB8407E0774B1A887B8B95
:102F6000D31AFB8401E08123FB84FB8C002B00F04F
:102F70005681FB8C7F2B00F252817B8B704AD35C95
:102F8000662B04D07B8B6E4AD35C462B02D16D4BF3
:102F900004221A607B8B6A4AD35C632B04D07B8B40
:102FA000674AD35C432B02D1664B05221A607B8BA8
:102FB000634AD35C772B04D07B8B614AD35C572B5D
:102FC00002D1604B03221A607B8B5D4AD35C652B78
:102FD00004D07B8B5A4AD35C452B1ED15A4B1B68BD
:102FE0007B6100233B620CE03B6A574A134400229A
:102FF0001A703B6A554A134400221A703B6A013327
:103000003B623B6AC72BEFD94F4A7B6913604F4A3B
:103010007B6913604B4B04221A607B8B484AD35C5C
:10302000642B04D07B8B464AD35C442B04D1FEF73F
:1030300005FE444B04221A607B8B414AD35C702B03
:1030400004D07B8B3E4AD35C502B02D13D4B3E22B9
:103050001A607B8B3A4AD35C6F2B04D07B8B384A47
:10306000D35C4F2B04D1374B3E221A60FEF764FC31
:103070007B8B334AD35C6C2B04D07B8B304AD35C84
:103080004C2B04D1FEF78AFC2E4B3E221A607B8B20
:103090002B4AD35C6B2B04D07B8B294AD35C4B2B04
:1030A00010D1284B3E221A600023FB6107E0FB6928
:1030B000274A134400221A70FB690133FB61FB6944
:1030C000272BF4D97B8B1E4AD35C422B04D07B8BFD
:1030D0001B4AD35C622B02D11E4B00221A607B8BF1
:1030E000174AD35C742B04D07B8B154AD35C542BCA
:1030F00002D1194B00221A607B8B114AD35C302B12
:1031000039D1104B3E221A60144B1B681846FFF74A
:1031100057FB38613B69B3F5FA7F25D23B690C4A0E
:1031200053603B691A460E490E480CF00DF822E038
:10313000FC5B00203D0200203E0200203C020020FB
:10314000545D0020680200203C5A00204C620020A0
:10315000805C00201400002010000020E0610020AE
:10316000C0390108D85D0020434B1B681A4643490B
:1031700043480BF0E9FF7B8B424AD35C312B1DD1D6
:10318000414B3E221A60414B5B681846FFF718FB23
:10319000F860FB68B3F5FA7F09D2FB683C4A93609C
:1031A000FB681A463B4936480BF0CEFF06E0324B2F
:1031B0005B681A46384932480BF0C6FF7B8B314AB0
:1031C000D35C352B11D1304B3E221A60304B5B6AF9
:1031D000002B03D02E4B00225A6202E02C4B01221E
:1031E0005A627B8B274A6821D1547B8B254AD35C5A
:1031F000682B09D07B8B234AD35C482B04D07B8B74
:10320000204AD35C3F2B27D11F4B3C221A60204B16
:103210005B6A1A4621491A480BF096FF1CE02048C9
:1032200007F084F80346002B17D01D4806F0E0FC99
:10323000FFF748FD7F221349194806F083FC184B1D
:103240001B6810221A62164B1B681A68144B1B6805
:1032500042F010021A6000E000BF124B00221A7008
:1032600005E0104B1B780133DAB20E4B1A7000BF29
:103270002837BD4680BD00BFA4590020E0390108B1
:10328000D85D0020545D002068020020E06100202D
:10329000805C0020083A0108243A0108483A0108F5
:1032A000FC5B00203C02002080B483B000AF78605B
:1032B000054B1B780133DAB2034B1A7000BF0C3791
:1032C000BD465DF8047B70474002002080B500AF2A
:1032D000A64BD3F8A030B3F5617F11D9A448FCF711
:1032E00077FF0346A24A1344A24918460BF02CFF6D
:1032F000A14B00229A65A14B00225A64FEF7CAFF37
:103300009E4B00221A659D4B00225A659C4BDA6841
:103310009C4B1B6803F24B139A4223D2984BDB68F9
:10332000F02B1FD9944B1B69B3F5167F1AD2904826
:10333000FCF74EFF03468E4A1344934918460BF0A0
:1033400003FFFFF777F88F4B11221A60FFF7FAF8A7
:103350008A4B01221A61894B01225A61874B012253
:10336000DA6500E18248FCF733FF0346804A1344E4
:10337000864918460BF0E8FE804B5B69002B01D0B4
:10338000FFF798F87F4B00221A607C4B00225A61AD
:103390007F4B1B68002B01D1FFF7BCF8784B1B68F3
:1033A000E62B12D97248FCF713FF0346704A134408
:1033B000784918460BF0C8FE704B01229A60FFF75F
:1033C00079F86E4B00229A63CDE06948FCF700FF64
:1033D0000346674A1344704918460BF0B5FE674B25
:1033E0009B6B002B11D16248FCF7F2FE0346604A4A
:1033F00013446A4918460BF0A7FE5C4B1B6B013364
:103400005A4A13635D4B01229A635C4B01229A6115
:10341000FDF7FAFE5E4B1B68002B40F0A480544879
:10342000FCF7D6FE0346524A13445D4918460BF09A
:103430008BFE534BDA685B4B1B6803F293139A4283
:1034400024D24F4BDB68F02B20D94D4B1B69092B45
:1034500003DC554B5B6A002B18D14548FCF7B8FEDE
:103460000346434A1344514918460BF06DFEFEF7DC
:10347000E1FF424B01225A60404B0122DA65494B81
:1034800012221A603D4B0022DA626CE03C4B1B6951
:10349000092B0FDC3648FCF79BFE0346344A1344E5
:1034A000434918460BF050FE344B01225A62FFF795
:1034B00001F811E02E48FCF78BFE03462C4A13441A
:1034C0003C4918460BF040FEFEF7F4FF2B4B01225F
:1034D0001A62344B00221A60294BDA68314B1B68A0
:1034E00003F293139A423ED92148FCF771FE03463A
:1034F0001F4A1344304918460BF026FE1B4BD3F8E5
:1035000094301A4AC2F880301C4B5B6B002B15D1EB
:103510001A4BDB6A002B11D01548FCF759FE034605
:10352000134A1344254918460BF00EFE144BDB6872
:103530000E4AC2F89C30114B01225A630F4BDB6AD2
:10354000002B10D10A48FCF743FE0346084A1344F7
:103550001B4918460BF0F8FD084B0122DA62034BB9
:103560000022DA67FFE700BF80BD00BF3C5A0020A1
:10357000D85D0020403D0108A85C0020C85900200B
:10358000A459002060020020443D0108483D010884
:10359000DC6100204C3D0108503D0108543D01080C
:1035A000583D01085C020020805C00205C3D010861
:1035B000603D0108683D01086C3D0108743D01084B
:1035C0007C3D010880B500AF474B00225A61464B55
:1035D0000122DA61444B01229A65444B9B6DB3F59D
:1035E000E16F10D9404B5B6D002B0CD14048FCF7CC
:1035F000EFFD03463E4A13443E4918460BF0A4FD36
:10360000394B00229A623C4BDA683C4B1B68C3F58D
:10361000AE739A4254D93648FCF7DAFD0346344A71
:103620001344374918460BF08FFD2F4B00229A6246
:10363000344B1B68002B0BD12D48FCF7C9FD03460A
:103640002B4A1344304918460BF07EFDFDF70EFD62
:10365000FDF7EAFE294B11221A602C4B1B68002B48
:103660000FD02348FCF7B4FD0346214A13442849F0
:1036700018460BF069FD1C4B0122DA601A4B01223F
:103680001A661D4B1B68B3F5877F2BD9164BDB6A77
:10369000002B27D01648FCF79BFD0346144A134421
:1036A0001C4918460BF050FD0F4B0022DA620E4BFE
:1036B00000225A63184B9B6A0133174A936211E048
:1036C0000B48FCF785FD0346094A13441349184685
:1036D0000BF03AFD094B00221A60114B00221A60D0
:1036E00000F020F800BF80BDC8590020A85C002071
:1036F000D85D0020843D0108A4590020600200200C
:10370000883D0108DC6100208C3D01084C0200204E
:10371000903D0108943D01083C5A0020983D010865
:103720005C02002080B500AFFEF70CFFFEF782FEC2
:103730004B4B9B68002B6DD0494B5B683B2B69D191
:10374000484B9B6A002B65D1474B9B6DB3F5E16FEE
:1037500060D94648FCF73CFD0346444A13444449BB
:1037600018460BF0F1FC434BD3F88C30414AC2F8B9
:103770009030404BD3F888303E4AC2F88C303D4BF5
:10378000D3F884303B4AC2F888303A4BD3F89430AF
:10379000384AC2F88430374BD3F8A830354AC2F8DB
:1037A000AC30344BD3F8A430324AC2F8A830314B95
:1037B000D3F8A0302F4AC2F8A4302E4B5B6F2D4AAD
:1037C00093672C4B1B6F2B4A53672A4BDB6E294A9E
:1037D0001367284BDB6F274AD366274BDB68254AE4
:1037E000C2F898301F4B00225A63224B5B6A0133A8
:1037F000204A53621B4B0022DA621E4B0022C3F8A0
:103800009420184B01225A64164B01229A62154BE0
:1038100001225A65134B5B6D002B1ED0104B9B6829
:10382000002B1AD00E4B5B68002B16D10C4B1B687B
:103830000A2B12D10D48FCF7CBFC03460B4A13446C
:103840000E4918460BF080FCFEF754FDFEF762FEB1
:10385000FEF730FE012007F03CFD00BF80BD00BF39
:103860002C5A0020C8590020A85C0020D85D0020F8
:103870009C3D01083C5A0020A4590020A03D0108AD
:1038800080B592B012AF44F27403109343F2BC437C
:103890000F9323230E9340F6C4130D9309230C9327
:1038A00011230B9312230A9340F293130993F023ED
:1038B00008934FF4AE7307934FF4A573069340F249
:1038C000B313059346230493E62303934FF48773BE
:1038D00002934FF4A07301934623009334230222F2
:1038E000034904480BF030FC00BFBD4680BD00BF5B
:1038F000A43D0108D85D0020F0B5B9B01EAF4E4B15
:103900001B687B664C4BD96939664B4B186AF86566
:10391000494B9C69BC65484B5D687D65464B9E681C
:103920003E65454B1A69FA64434B5969B964424B89
:10393000DB687B64404B586A38643F4B9C6AFC638D
:103940003D4B1D6BBD633C4BDE6A7E633A4BDA6BCD
:103950003A63394B596BF962374B9B6BBB62364B01
:10396000186C7862344B5C6C3C62334BDD6CFD61EF
:10397000314B9E6CBE61304B1A6D7A612E4B596D86
:1039800039612D4BDB6DFB602B4B986DB8602A4B7A
:103990001C6E7C60284B5E6E274B9D6E264BD3F8C9
:1039A0008040254BD86E244BD3F89810224BD3F887
:1039B0009C20214BD3F884301D931C921B911A90AC
:1039C0001994189517967C681694B8681590FB683A
:1039D0001493396913917A691292BE691196FD693F
:1039E00010953C6A0F94786A0E90BB6A0D93F96A41
:1039F0000C913A6B0B927E6B0A96BD6B0995FC6B32
:103A00000894386C07907B6C0693B96C0591FA6C3E
:103A100004923E6D03967D6D0295BC6D0194F86D28
:103A200000903B6E7A6E054905480BF08DFB00BF98
:103A30006C37BD46F0BD00BF3C5A0020D03F0108A6
:103A4000D85D0020F0B5BBB020AF564B1B687B663D
:103A5000544BD9693966534B186AF865514B9C69C8
:103A6000BC65504B5D687D654E4BD3F8C0603E65CC
:103A70004C4B9A68FA644B4B1969B964494B5B69C2
:103A80007B64484BD8683864464B5C6AFC63454BA2
:103A90009D6ABD63434B1E6B7E63424BDA6A3A6399
:103AA000404BD3F89410F9623E4BDB6FBB623D4B49
:103AB000D3F8800078623B4BDC6E3C62394B1D6F63
:103AC000FD61384B5E6FBE61364B9A6F7A61354B44
:103AD000D3F884103961334BD3F88830FB60314B15
:103AE000D3F88C00B8602F4BD3F890407C602D4BFE
:103AF000D3F8B0503D602B4BD3F8B460294BD3F8CA
:103B0000B850284BD3F8BC40264BD3F8A000254B27
:103B1000D3F8A410234BD3F8A820224BD3F8AC3011
:103B20001E931D921C911B901A94199518963D682E
:103B300017957C681694B8681590FB6814933969DA
:103B400013917A691292BE691196FD6910953C6ACB
:103B50000F94786A0E90BB6A0D93F96A0C913A6BD8
:103B60000B927E6B0A96BD6B0995FC6B0894386CC2
:103B700007907B6C0693B96C0591FA6C04923E6DCC
:103B800003967D6D0295BC6D0194F86D00903B6EBF
:103B90007A6E054905480BF0D7FA00BF6C37BD4671
:103BA000F0BD00BF3C5A0020E4410108D85D002070
:103BB000F0B58DB008AF1848FCF70AFB0346164A6B
:103BC00003EB020C154B1B68FB60144B5968B96082
:103BD000124B9B68114AD268104909690F48406925
:103BE00078600E4CA4690D4DED690C4E366A0B4899
:103BF000406A0790069605950494786803900291B0
:103C000001920093BB68FA68054960460BF09CFA84
:103C100000BF1437BD46F0BDD85D0020805C002099
:103C20009C430108F0B5A3B012AF78630023FB8773
:103C3000FEF770FC00224FF480714FF0904003F0CB
:103C4000D1FBFDF7F9FEFDF777FEA74800F07EFFF8
:103C5000A54B1B681A68A44B1B6842F010021A603F
:103C60007F22A249A04805F06DFFFEF713FB7F21DC
:103C70009F4802F0DDFB322007F02BFB08229D4914
:103C80009B4801F0ADFD0346002B40F0C6840122A5
:103C90004FF40041984803F0A5FB01224FF4804106
:103CA000954803F09FFB01224FF40051924803F026
:103CB00099FB01224FF480518F4803F093FBFFF7EB
:103CC000DFFD8E48FCF784FA0346FB87FB8F1A461C
:103CD0008A49854805F0A6FE052007F0FAFA002279
:103CE0004FF40041844803F07DFB00224FF48041F3
:103CF000814803F077FB00224FF400517E4803F027
:103D000071FB00224FF480517B4803F06BFBFEF700
:103D10007BFA7B4B1B7803F00103DBB21A464FF4AE
:103D20000041754803F05EFB754B1B7803F00203FE
:103D3000DBB21A464FF480416F4803F053FB704BDF
:103D40001B7803F00403DBB21A464FF400516A48B3
:103D500003F048FB6A4B1B7803F00803DBB21A46FA
:103D60004FF48051644803F03DFB322007F0B1FA74
:103D700000224FF40041604803F034FB00224FF46E
:103D800080415D4803F02EFB00224FF400515A4859
:103D900003F028FB00224FF48051574803F022FB28
:103DA000FFF7AAFD5548FCF713FA0346FB87FB8F84
:103DB0001A4652494C4805F035FE142007F089FA9E
:103DC0004E4B00221A70FFF7F3FE4C48FCF700FA46
:103DD0000346FB87FB8F1A464849434805F022FEFD
:103DE000484B1B686421184607F020FB464B002215
:103DF000C3F89420444B0022DA67444B01221A6333
:103E0000424B01229A62414B01225A64404B4FF4CB
:103E1000AF72DA605A2007F05CFA00224FF480712A
:103E20004FF0904003F0DEFA02E0022007F051FA72
:103E3000384B1B68002BF8D0374B1B68032B05D180
:103E4000354B02221A60FFF7FDFDF0E0324B1B6894
:103E5000022B34D1304B01221A60304BDB693B63BB
:103E60002E4B196AF9622D4B9B692C4A12682B491B
:103E700049682A48C068B862284C2469274DAD6853
:103E8000264EB66D2048D0F8A00078622348C06D59
:103E900038622248006E0990386A0890786A079064
:103EA000069605950494B86A0390029101920093D6
:103EB000FB6A3A6B1A4911480BF046F9B7E0164B0A
:103EC0001B68042B05D1FFF717FD134B00221A6066
:103ED000ADE0114B1B68052B24D1FFF7D1FC0E4B35
:103EE00000221A60A3E000BFFC5B0020545D0020AC
:103EF000505B0020E061002000040048D85D0020F5
:103F0000A0590020D45D00203C5A0020C859002050
:103F1000A45900206C02002068020020A85C002048
:103F2000504401087B4B1B68012B56D1794B002272
:103F30001A60794BDB683B63774B9968F962764B83
:103F40005E68754B1868B862744B1B787B62744B63
:103F50001C683C62734B1D68FD61734B1A68BA6143
:103F6000724B1B697B61714B5B693B616F4B9B695A
:103F7000FB606E4B1968B9606C4B586878606B4B8E
:103F80009D686A4BDC686A4B18686A4B19686A4B13
:103F90001A686A4B1B6810930F920E910D900C9447
:103FA0000B9578680A90B9680991F96808913969A0
:103FB000079179690691BA690592FD6904953C6A91
:103FC00003947C6A0294B86A01900096FB6A3A6B8B
:103FD0005B495C480BF0B8F829E04E4B1B683E2B60
:103FE0000BD1FFF7E5FD4B4B1B68002B1FD0494B56
:103FF0001B68013B474A136019E0464B1B683C2B8A
:1040000009D1444B1B68002B11D0424B1B68013B6C
:10401000404A13600BE03F4B1B68002B04D03D4B24
:104020001B68013B3B4A1360464B00221A7045480F
:10403000FCF7CEF80346023B424A13444249184675
:104040000BF082F8414B1B68002B0ED03D48FCF76B
:10405000BFF803463B4A13443D4918460BF074F839
:10406000FDF77AFD394B00221A602C4B1B78062B8A
:104070003ED82E4B5B69462B05DD284B07221A7074
:10408000FEF760FAABE2294B5A68324B1B6803F526
:10409000A0739A4204D8254B9B68B3F5DA7F17D3F7
:1040A000224B9B68B3F5A57F12D92648FCF790F800
:1040B0000346244A1344284918460BF045F8254B7B
:1040C00000221A60FFF702F9244B01221A6486E2EB
:1040D0001C48FCF77DF803461A4A13442049184649
:1040E0000BF032F81B4B46221A60FFF76BFA76E2B0
:1040F0000A4B1B78062B40F20D81084B1B780D2BC9
:1041000000F20881094B9B69462B2BDD034B0022F3
:104110001A7064E2680200202C5A0020A059002086
:104120004C0200204802002050020020A459002028
:10413000540200205802002010000020140000202B
:10414000FC440108D85D0020BC4501086402002041
:10415000C04501080C000020C4450108C8590020D2
:10416000C8450108AB4B5A68AB4B1B6803F5A073FD
:104170009A4205D8A74B9B68B3F5DA7FC0F0B880A8
:10418000A44B9B68B3F5A57F40F2B280A348FCF72F
:104190001FF80346A14A1344A14918460AF0D4FF68
:1041A0009D4B00221A609F4B01221A64994BDA68DA
:1041B0009D4B1B6803F293139A4226D2954BDB6802
:1041C000F02B22D9934B1B69092B03DC974B5B6ABD
:1041D000002B1AD19148FBF7FBFF03468F4A13448B
:1041E000934918460AF0B0FFFEF724F9FEF7AAF942
:1041F0008D4B12221A608B4B01221A60894B0022D0
:10420000DA62884B0122DA6582E0824B1B69092B56
:104210000DDC8248FBF7DCFF0346804A13448549E6
:1042200018460AF091FF7F4B01225A620FE07B484B
:10423000FBF7CEFF0346794A13447F4918460AF03C
:1042400083FF784B01221A62774B00221A60FEF737
:1042500061F9FEF72FF96F4BDA68734B1B6803F2B5
:1042600093139A4254D96D48FBF7B2FF03466B4A49
:104270001344724918460AF067FF714BD3F8943023
:104280006F4AC2F88030674B5B6B002B18D1654BCF
:10429000DB6A002B14D06148FBF79AFF03465F4AA4
:1042A0001344684918460AF04FFF5A4BDB68644ACA
:1042B000C2F89C305B4B01225A635A4B00221A63AE
:1042C000584BDB6A002B23D15448FBF781FF034690
:1042D000524A13445C4918460AF036FF514B0122FA
:1042E000DA62504B00229A62554B0022DA670FE0E7
:1042F0004A48FBF76DFF0346484A134453491846A2
:104300000AF022FF444B46221A60FFF75BF966E190
:1043100000BF64E14E4B1B780E2B40D13D4B5B69D7
:10432000462B05DD4A4B07221A70FEF70BF956E1C2
:10433000384B5A68384B1B6803F5A0739A4204D86F
:10434000344B9B68B3F5DA7F17D3324B9B68B3F5D8
:10435000A57F12D93148FBF73BFF03462F4A134490
:104360003C4918460AF0F0FE2B4B00221A60FEF77B
:10437000ADFF2C4B01221A6431E12848FBF728FFDE
:104380000346264A1344344918460AF0DDFE224B00
:1043900046221A60FEF7D6F8FFF7C4F91FE12C4B4E
:1043A0001B780F2B40F01B811A4B5B69462B05DDF8
:1043B000274B07221A70FEF7C5F810E1154B5A6813
:1043C000154B1B6803F5A0739A4205D8114B9B68E7
:1043D000B3F5DA7FC0F0F2800E4B9B68B3F5A57F92
:1043E00040F2EC800D48FBF7F3FE03460B4A134402
:1043F0001A4918460AF0A8FE074B00221A60094B1A
:1044000001221A64164B1B68002B2BD0FEF75EFFAF
:10441000E4E000BFA45900200C000020D85D00207B
:10442000CC450108C85900205C020020805C0020B7
:10443000D0450108D4450108DC450108E4450108E0
:104440003C5A0020E8450108EC450108F045010808
:10445000A0590020F8450108004601080846010857
:10446000580200206F4BDA686F4B1B6803F29313FE
:104470009A4226D26B4BDB68F02B22D9694B1B6921
:10448000092B03DC694B5B6A002B1AD16848FBF7E8
:104490009FFE0346664A1344664918460AF054FED6
:1044A000FDF7C8FFFEF74EF85F4B12221A60624B11
:1044B00001221A60604B0022DA625F4B0122DA654A
:1044C0008CE0584B1B69092B0DDC5948FBF780FE2B
:1044D0000346574A1344594918460AF035FE564BCD
:1044E00001225A620FE05248FBF772FE0346504A1F
:1044F0001344534918460AF027FE4F4B01221A6213
:10450000494B00221A604A48FBF762FE0346484ABC
:1045100013444C4918460AF017FEFDF7FBFFFDF760
:10452000C9FF404BDA68404B1B6803F293139A4271
:1045300054D93F48FBF74CFE03463D4A13444249D9
:1045400018460AF001FE414BD3F894303F4AC2F8B6
:104550008030394B5B6B002B18D1374BDB6A002B5B
:1045600014D03348FBF734FE0346314A134438492C
:1045700018460AF0E9FD2B4BDB68344AC2F89C3040
:104580002D4B01225A632C4B00221A632A4BDB6A03
:10459000002B23D12648FBF71BFE0346244A134475
:1045A0002C4918460AF0D0FD234B0122DA62224B37
:1045B00000229A62254B0022DA670FE01C48FBF7C5
:1045C00007FE03461A4A1344234918460AF0BCFD65
:1045D000224B46221A60FEF7F5FF00E000BF1448A8
:1045E000FBF7F6FD0346124A13441D4918460AF02C
:1045F000ABFD0F48FBF7ECFD0346FB87FB8FB3F5E4
:10460000806F02D340F2FF33FB87FB8F1A460849C5
:10461000144805F007FAFFF7FDBB00BF4437BD465D
:10462000F0BD00BFA45900205C020020805C002087
:10463000D85D002010460108C8590020184601081E
:104640002046010828460108304601083C5A00204F
:104650003846010840460108484601080C00002081
:1046600050460108FC5B002080B584B000AF786044
:104670006B4B1B68002B05D0694B1B68013B684ADC
:10468000136059E0664B00221A60664B1B680133C9
:10469000644A1360FDF77EF8634B1B68002B02D160
:1046A000614B02221A60614B1B68002B05D05F4BE7
:1046B0001B68013B5D4A13603EE05C4B3B221A6085
:1046C000584B5B680133574A5360564B00221A60BF
:1046D000FDF79AFD544B03221A60554B1B68002BC3
:1046E00005D0534B1B68013B514A136024E0FDF792
:1046F0005BFC4F4B3B221A604A4B9B680133494A93
:104700009360484B00225A604A4B01221A604A4B80
:104710001B68002B05D0484B1B68013B464A1360C1
:104720000AE0454B17221A603E4BDB6801333D4AD5
:10473000D3603C4B00229A60FDF7DCFA3F4800F062
:10474000EBFF3F4B1B681846FEF73AF8F8603D4B0D
:104750005B681A46FB68934207D93A4B5B681A4676
:10476000FB689B1A384A136002E0374B00221A603C
:10477000334B5B681846FEF723F8F860314B9B68B3
:104780001A46FB68934207D92E4B9B681A46FB6872
:104790009B1A2D4A536002E02B4B00225A60284B93
:1047A0009B681846FDF7ACFF0346274A9360244BED
:1047B000DB681846FDF7A4FF0346234AD360204B6D
:1047C0001B691846FDF7D0FE03461F4A13611C4BB8
:1047D0005B691846FDF7C8FE03461B4A5361184B38
:1047E0009B691846FDF7C0FE0346174A93614FF4D4
:1047F0000071164802F0DEFD03461A46144B1A609B
:1048000008214FF0904002F0D5FD03461A46114BA7
:104810001A60114B01221A6000BF1037BD4680BDDF
:10482000440200202C5A00206802002000000020D2
:10483000040000206402002008000020505B0020DB
:10484000E0610020805C0020A459002000040048A2
:1048500054020020580200206C02002080B582B073
:1048600000AF78607B681B68044A934201D100F076
:10487000FDFB00BF0837BD4680BD00BF00100040F3
:1048800080B400AF72B600BFFEE7000080B582B012
:1048900000AF114B1B6E104A43F0010313660E4B21
:1048A0001B6E03F001037B607B680B4B9B6D0A4A18
:1048B00043F080539365084B9B6D03F080533B603E
:1048C0003B6800220F216FF0010001F0C9FE00BF1C
:1048D0000837BD4680BD00BF0010024080B5A2B0C1
:1048E00000AF786007F1740300221A605A609A6082
:1048F000DA601A6107F118035C220021184609F0FA
:10490000C6FC7B681B683F4A934277D14FF48043D3
:10491000BB614FF04053BB6607F11803184603F024
:104920005FFC0346002B01D0FFF7AAFF364BDB6C80
:10493000354A43F40053D364334BDB6C03F4005328
:104940007B617B69304BDB6C2F4A43F00403D364FB
:104950002D4BDB6C03F004033B613B692A4BDB6CA2
:10496000294A43F00103D364274BDB6C03F00103B6
:10497000FB60FB680F237B670B23BB670023FB6790
:1049800007F174031946214802F09AFB07237B675D
:104990000B23BB670023FB6707F1740319464FF035
:1049A000904002F08DFB1A4B1A4A1A60184B0022F5
:1049B0005A60174B00229A60154B0022DA60144BA4
:1049C00080221A61124B4FF400725A61104B4FF45F
:1049D00000629A610E4B2022DA610D4B00221A62AE
:1049E0000B4801F067FE0346002B01D0FFF748FF9C
:1049F0007B68074ADA64064A7B68936200BF88379F
:104A0000BD4680BD00000450001002400008004870
:104A10000C5D00200800024080B485B000AF7860D3
:104A20007B681B68B3F1804F0BD1094B9B6D084A23
:104A300043F001039365064B9B6D03F00103FB609C
:104A4000FB6800BF1437BD465DF8047B704700BFAC
:104A50000010024080B485B000AF78607B681B68AE
:104A60000A4A93420BD10A4B1B6E094A43F40033A6
:104A70001366074B1B6E03F40033FB60FB6800BF3B
:104A80001437BD465DF8047B704700BF0044014009
:104A90000010024080B58AB000AF786007F11403BF
:104AA00000221A605A609A60DA601A617B681B689B
:104AB000B3F1804F1DD1224BDB6C214A43F001033F
:104AC000D3641F4BDB6C03F001033B613B69202384
:104AD0007B610223BB610023FB6100233B62012356
:104AE0007B6207F1140319464FF0904002F0E8FA98
:104AF00021E07B681B68134A93421CD1104BDB6C8E
:104B00000F4A43F00203D3640D4BDB6C03F0020346
:104B1000FB60FB684FF480737B610223BB61002361
:104B2000FB6100233B620E237B6207F114031946ED
:104B3000054802F0C5FA00BF2837BD4680BD00BF5A
:104B400000100240004401400004004880B5A0B0BD
:104B500000AF786007F16C0300221A605A609A6017
:104B6000DA601A6107F110035C220021184609F08F
:104B70008EFB7B681B68564A934240F0A480012359
:104B80003B6100233B6307F11003184603F028FB49
:104B90000346002B01D0FFF773FE4E4B1B6E4D4AB0
:104BA00043F4804313664B4B1B6E03F48043FB605E
:104BB000FB68484BDB6C474A43F00103D364454B29
:104BC000DB6C03F00103BB60BB684FF40073FB6652
:104BD00002233B6700237B670223BB670723FB6736
:104BE00007F16C0319464FF0904002F069FA4FF458
:104BF0008063FB6602233B6701237B670223BB675D
:104C00000723FB6707F16C0319464FF0904002F051
:104C100057FA314B314A1A602F4B02225A602E4B01
:104C200000229A602C4B0022DA602B4B80221A6102
:104C3000294B00225A61284B00229A61264B2022E0
:104C4000DA61254B00221A62234801F033FD034646
:104C5000002B01D0FFF714FE7B681F4A1A671E4A1B
:104C60007B6893621E4B1F4A1A601D4B02225A60DA
:104C70001B4B10229A601A4B0022DA60184B8022DC
:104C80001A61174B00225A61154B00229A61144B8E
:104C90000022DA61124B00221A62114801F00AFD6B
:104CA0000346002B01D0FFF7EBFD7B680C4ADA6668
:104CB0000B4A7B68936200220521252001F0D0FC7D
:104CC000252001F0E9FC00BF8037BD4680BD00BF54
:104CD0000038014000100240B45B00208004024014
:104CE000045B00206C04024080B58CB000AF78609B
:104CF0000023FB620023BB6200227968362001F0AA
:104D0000AFFC362001F0C8FC1E4B9B6D1D4A43F0E2
:104D1000100393651B4B9B6D03F01003FB60FB6856
:104D200007F1100207F114031146184603F0C6F903
:104D300003F098F9F862FB6A134AA2FB03239B0C69
:104D4000013BBB62114B124A1A60104B40F2E73232
:104D5000DA600E4ABB6A53600C4B00221A610B4B9F
:104D600000229A60094803F045FD0346002B04D158
:104D7000064803F097FD034600E00123184630374C
:104D8000BD4680BD0010024083DE1B4364630020EB
:104D90000010004080B400AFFEE780B400AFFEE733
:104DA00080B400AFFEE780B400AFFEE780B400AF90
:104DB000FEE780B400AF00BFBD465DF8047B7047DE
:104DC00080B500AF024801F00CFE00BF80BD00BFFF
:104DD0000C5D002080B500AF074804F09BFF064B38
:104DE0001B68DB6903F01003102B02D10248FEF7A9
:104DF00077F800BF80BD00BFFC5B002080B500AF2E
:104E0000024803F061FF00BF80BD00BF6463002063
:104E100080B500AF024801F0E4FD00BF80BD00BFD7
:104E2000045B002080B500AF024801F0DAFD00BF4E
:104E300080BD00BFB45B002080B400AF01231846E2
:104E4000BD465DF8047B704780B582B000AF7860E6
:104E5000396009F0EBF8034616221A604FF0FF3371
:104E600018460837BD4680BD80B582B000AF786077
:104E70004FF0FF317868FFF7E7FFFEE780B586B0B7
:104E800000AFF860B9607A6000237B610AE0AFF39D
:104E900000800146BB685A1CBA60CAB21A707B69AE
:104EA00001337B617A697B689A42F0DB7B68184644
:104EB0001837BD4680BD80B586B000AFF860B960D8
:104EC0007A6000237B6109E0BB685A1CBA601B78DA
:104ED0001846AFF300807B6901337B617A697B6898
:104EE0009A42F1DB7B6818461837BD4680BD80B416
:104EF00083B000AF78604FF0FF3318460C37BD46E3
:104F00005DF8047B704780B483B000AF786039608F
:104F10003B684FF400525A60002318460C37BD46D8
:104F20005DF8047B704780B483B000AF78600123E4
:104F300018460C37BD465DF8047B704780B485B0D9
:104F400000AFF860B9607A60002318461437BD4698
:104F50005DF8047B7047000080B586B000AF7860D4
:104F6000144A154BD31A7B617B693B61134B1B6859
:104F7000002B02D1114B124A1A60104B1A687B6841
:104F800013443A699A4207D209F050F803460C22BA
:104F90001A604FF0FF3309E0084B1B68FB60074BBA
:104FA0001A687B681344054A1360FB681846183773
:104FB000BD4680BD000001200004000070020020FA
:104FC0000864002080B400AF064BD3F88830054A4F
:104FD00043F47003C2F8883000BFBD465DF8047B1F
:104FE000704700BF00ED00E0DFF834D0FFF7EAFFC4
:104FF0000C480D490D4A002302E0D458C450043334
:10500000C4188C42F9D30A4A0A4C002301E0136009
:105010000432A242FBD309F005F9FDF719FCFEE7C3
:10502000000001200000002020020020F04B0108B9
:105030002002002004640020FEE780B582B000AFAB
:105040000023FB71032001F000FB0F20FFF74CFE53
:105050000346002B02D00123FB7101E0FFF716FC91
:10506000FB7918460837BD4680BD000080B400AF0C
:10507000064B1B781A46064B1B681344044A136000
:1050800000BFBD465DF8047B704700BF20000020D4
:10509000B063002080B400AF034B1B681846BD46C8
:1050A0005DF8047B704700BFB063002080B483B01C
:1050B00000AF786039607B689B6823F47C123B68A2
:1050C0001A437B689A6000BF0C37BD465DF8047BCD
:1050D000704780B483B000AF786039607B689B68AC
:1050E00023F0E0723B681A437B689A6000BF0C377C
:1050F000BD465DF8047B704780B483B000AF786034
:105100007B689B6803F0E07318460C37BD465DF87A
:10511000047B704780B487B000AFF860B9607A60F4
:105120003B60FB6860331A46BB689B0013447B619D
:105130007B691A68084B13407A6802F0F8413A68B4
:105140000A43134343F000427B691A6000BF1C37D7
:10515000BD465DF8047B704700F0FF0380B485B066
:1051600000AF786039607B6860331A463B689B000B
:105170001344FB60FB681B6803F0F84318461437C0
:10518000BD465DF8047B704780B487B000AFF8601F
:10519000B9607A60FB6860331A46BB689B001344B1
:1051A0007B617B691B6823F000427B681A437B6943
:1051B0001A6000BF1C37BD465DF8047B704780B4A1
:1051C00083B000AF78607B68DB6803F44063002B3A
:1051D00001D1012300E0002318460C37BD465DF8DD
:1051E000047B704780B487B000AFF860B9607A6024
:1051F000FB6830331A46BB681B0A9B0003F00C03A4
:1052000013447B617B691A68BB6803F01F031F218D
:1052100001FA03F3DB431A407B689B0E03F01F0186
:10522000BB6803F01F0301FA03F31A437B691A609A
:1052300000BF1C37BD465DF8047B704780B487B063
:1052400000AFF860B9607A60FB6814331A46BB6837
:105250005B0E9B0003F0040313447B617B691A68B7
:10526000BB681B0D03F01F03072101FA03F3DB43A7
:105270001A40BB681B0D03F01F03796801FA03F3A2
:105280001A437B691A6000BF1C37BD465DF8047B7A
:105290007047000080B485B000AFF860B9607A60F4
:1052A000FB68D3F8B020BB68C3F31203DB431A409A
:1052B0007B6803F018030849D940BB680B40C3F36F
:1052C00012031A43FB68C3F8B02000BF1437BD4671
:1052D0005DF8047B704700BFFFFF070080B483B018
:1052E00000AF78607B689B6823F0204323F03F0386
:1052F0007A68936000BF0C37BD465DF8047B704749
:1053000080B483B000AF78607B689B6803F0005383
:10531000B3F1005F01D1012300E0002318460C37F0
:10532000BD465DF8047B704780B483B000AF786001
:105330007B689B6823F0104323F03F0343F08052C7
:105340007B689A6000BF0C37BD465DF8047B7047F0
:1053500080B483B000AF78607B689B6803F08053B3
:10536000B3F1805F01D1012300E0002318460C3720
:10537000BD465DF8047B704780B483B000AF7860B1
:105380007B689B6823F0004323F03F0343F0010256
:105390007B689A6000BF0C37BD465DF8047B7047A0
:1053A00080B483B000AF78607B689B6823F00043D3
:1053B00023F03F0343F002027B689A6000BF0C3782
:1053C000BD465DF8047B704780B483B000AF786061
:1053D0007B689B6803F00103012B01D1012300E0EE
:1053E000002318460C37BD465DF8047B704780B437
:1053F00083B000AF78607B689B6803F00203022BE8
:1054000001D1012300E0002318460C37BD465DF8AA
:10541000047B704780B483B000AF78607B689B6882
:1054200023F0004323F03F0343F004027B689A60BB
:1054300000BF0C37BD465DF8047B704780B483B075
:1054400000AF78607B689B6803F00403042B01D1F4
:10545000012300E0002318460C37BD465DF8047BAD
:10546000704780B483B000AF78607B689B6803F0BE
:105470000803082B01D1012300E0002318460C3754
:10548000BD465DF8047B704780B588B000AF78609A
:105490000023FB770023BB607B68002B01D1012335
:1054A0002CE17B681B69002B7B685B6D002B09D1AD
:1054B0007868FFF713FA7B6800229A657B68002200
:1054C00083F850207B681B681846FFF719FF0346D6
:1054D000002B04D07B681B681846FFF7FFFE7B6833
:1054E0001B681846FFF734FF0346002B15D17B6875
:1054F0001B681846FFF718FF824B1B689B09824AFE
:10550000A2FB03239B0901335B00BB6002E0BB6885
:10551000013BBB60BB68002BF9D17B681B68184658
:10552000FFF716FF0346002B0DD17B685B6D43F040
:1055300010027B685A657B689B6D43F001027B68B3
:105540009A650123FB777B681B681846FFF776FF97
:1055500078617B685B6D03F01003002B40F0C58021
:105560007B69002B40F0C1807B685B6D23F4817305
:1055700043F002027B685A657B681B681846FFF798
:1055800023FF0346002B0BD16048FFF71DFF0346A6
:10559000002B05D17B685B6819465D48FFF786FDE7
:1055A0007B685B7E5A037B685B6B1A437B68DB68B6
:1055B0001A437B689B681A437B6893F820301B046E
:1055C0001343BB617B6893F82030012B06D17B68C5
:1055D0005B6A013B5B04BA691343BB617B689B6AEE
:1055E000002B09D07B689B6A03F470727B68DB6ACE
:1055F0001343BA691343BB617B681B68DA68454B88
:1056000013407A681268B9690B43D3607B681B68E2
:105610001846FFF713FF38617B681B681846FFF7D1
:1056200020FFF8603B69002B3DD1FB68002B3AD18D
:105630007B681B7E9A037B6893F830305B001343D2
:10564000BB617B681B68DB6823F4804323F00203A3
:105650007A681268B9690B43D3607B6893F8383075
:10566000012B18D17B681B681B6923F4FF6323F0AF
:1056700004037A68D16B7A68126C11437A68526CB1
:1056800011437A68926C0A431A437B681B6842F0A4
:1056900001021A6107E07B681B681A697B681B6856
:1056A00022F001021A617B681B69012B0CD17B6817
:1056B0001B681B6B23F00F017B68DB695A1E7B683C
:1056C0001B680A431A6307E07B681B681A6B7B68D8
:1056D0001B6822F00F021A637B685B6D23F00303E3
:1056E00043F001027B685A6507E07B685B6D43F01D
:1056F00010027B685A650123FB77FB7F1846203731
:10570000BD4680BD18000020632D3E0500000450FA
:105710000003045007C0F0FF80B584B000AF78608C
:105720007B681B681846FFF789FE0346002B4FD1A4
:105730007B6893F85030012B01D102234BE07B684A
:10574000012283F85020786800F0CCFC0346FB73FC
:10575000FB7B002B37D17B685B6D23F4706323F0F8
:10576000010343F480727B685A657B685B6D03F4C8
:105770008053B3F5805F06D17B689B6D23F00602F2
:105780007B689A6502E07B6800229A657B681B68EB
:105790001C221A607B68002283F850207B681B68FB
:1057A000DB6803F00073002B07D07B685B6D23F48C
:1057B000405343F480527B685A657B681B681846E7
:1057C000FFF728FE06E07B68002283F8502001E006
:1057D0000223FB73FB7B18461037BD4680BD0000DB
:1057E00080B586B000AFF860B9607A60FB681B686E
:1057F0001846FFF723FE0346002B67D1FB6893F89A
:105800005030012B01D1022363E0FB68012283F8B1
:105810005020F86800F066FC0346FB75FB7D002B0A
:105820004FD1FB685B6D23F4706323F0010343F4F5
:105830008072FB685A65FB685B6D03F48053002B34
:1058400006D0FB689B6D23F00602FB689A6502E0B8
:10585000FB6800229A65FB68DB6C204ADA62FB6811
:10586000DB6C1F4A1A63FB68DB6C1E4A5A63FB68D9
:105870001B681C221A60FB68002283F85020FB681A
:105880001B685A68FB681B6842F010025A60FB688C
:105890001B68DA68FB681B6842F00102DA60FB688B
:1058A000D86CFB681B6840331946BA687B6800F007
:1058B000B9FF0346FB75FB681B681846FFF7AAFD96
:1058C00006E0FB68002283F8502001E00223FB750C
:1058D000FB7D18461837BD4680BD00BFAF6200088B
:1058E00087630008A363000880B483B000AF7860CA
:1058F00000BF0C37BD465DF8047B704780B483B0B1
:1059000000AF786000BF0C37BD465DF8047B704780
:1059100080B483B000AF786000BF0C37BD465DF83F
:10592000047B704780B5B6B000AF78603960002363
:1059300087F8D7300023FB607B6893F85030012B49
:1059400001D10223B9E37B68012283F850207B68F0
:105950001B681846FFF772FD0346002B40F09E833C
:105960003B685B68052B24D83B685B68023B032BD4
:105970001BD801A252F823F0895900089159000858
:1059800099590008A15900083B680C225A6011E09F
:105990003B6812225A600DE03B6818225A6009E009
:1059A0003B684FF480725A6004E03B6806225A60FC
:1059B00000E000BF7B6818683B6859683B681B685B
:1059C0001A46FFF70FFC7B681B681846FFF736FD89
:1059D000C7F8D0007B681B681846FFF742FDC7F880
:1059E000CC00D7F8D030002B40F0A681D7F8CC30CF
:1059F000002B40F0A1817B6818683B6819683B6800
:105A00009B681A46FFF71AFC3B685A697B681B685B
:105A1000DB68DB0803F003035B0002FA03F3C7F85B
:105A2000C8303B681B69042B0AD07B6818683B6848
:105A300019693B681A68D7F8C830FFF76BFB7BE140
:105A40007B681B6800211846FFF788FB0346C3F3F9
:105A50001203002B0AD17B681B6800211846FFF750
:105A60007DFB03469B0E03F01F021EE07B681B6854
:105A700000211846FFF772FB0346C7F8BC30D7F881
:105A8000BC3093FAA3F3C7F8B830D7F8B830C7F8EA
:105A9000C030D7F8C030002B01D1202304E0D7F864
:105AA000C030B3FA83F3DBB21A463B681B68C3F31A
:105AB0001203002B05D13B681B689B0E03F01F03EC
:105AC00018E03B681B68C7F8B030D7F8B03093FADD
:105AD000A3F3C7F8AC30D7F8AC30C7F8B430D7F878
