:020000040800F2
:1000000000000120554B000801490008074900087D
:100010000D490008134900081949000800000000B4
:10002000000000000000000000000000F1D3000804
:100030001F4900080000000041D6000851AC00082C
:10004000A54B0008A54B0008A54B0008A54B0008D0
:10005000A54B0008A54B0008A54B0008A54B0008C0
:10006000A54B0008A54B0008A54B00082D4900082A
:10007000A54B0008A54B0008A54B0008A54B0008A0
:10008000A54B0008A54B0008A54B0008A54B000890
:10009000A54B0008A54B0008A54B0008A54B000880
:1000A000A54B0008A54B0008A54B0008A54B000870
:1000B000A54B00080000000000000000A54B000850
:1000C000A54B0008A54B0008A54B0008A54B000850
:1000D000A54B000841490008A54B0008A54B0008A6
:1000E000A54B0008A54B0008000000000000000020
:1000F0000000000000000000000000000000000000
:1001000000000000A54B000800000000A54B0008FF
:10011000000000000000000069490008A54B00082D
:10012000A54B0008A54B0008A54B0008A54B0008EF
:10013000A54B0008000000000000000000000000C7
:10014000A54B0008A54B0008A54B000800000000C7
:100150007D49000891490008A54B0008A54B0008FF
:10016000A54B0008A54B0008A54B000800000000A7
:10017000A54B0008A54B000800000000000000008F
:0C018000A54B0008A54B0008A54B00088B
:1001900010B5054C237833B9044B13B10448AFF3C1
:1001A00000800123237010BD200200200000000009
:1001B0007434010808B5034B1BB103490348AFF37E
:1001C000008008BD000000002402002074340108F3
:1001D000034613F8012B002AFBD1181A0138704787
:1001E00001F0FF01102A2BDB10F0070F08D010F8E8
:1001F000013B013A8B422DD010F0070F42B3F6D1EC
:10020000F0B441EA012141EA014122F007047FF004
:1002100000070023F0E80256083C85EA010586EA5B
:10022000010685FA47F5A3FA87F586FA47F6A5FA97
:1002300087F68EB9EED1F0BC01F0FF0102F00702A3
:1002400032B110F8013B013A83EA010313B1F8D14E
:100250000020704701387047002D06BF354603382F
:10026000073815F0010F07D1013015F4807F02BF68
:10027000013015F4C03F0130F0BC0138704700BFB9
:1002800081F0004102E000BF83F0004330B54FEA47
:1002900041044FEA430594EA050F08BF90EA020FB4
:1002A0001FBF54EA000C55EA020C7FEA645C7FEA47
:1002B000655C00F0E2804FEA5454D4EB5555B8BF6A
:1002C0006D420CDD2C4480EA020281EA030382EADB
:1002D000000083EA010180EA020281EA0303362D6D
:1002E00088BF30BD11F0004F4FEA01314FF4801C40
:1002F0004CEA113102D0404261EB410113F0004F52
:100300004FEA03334CEA133302D0524263EB430308
:1003100094EA050F00F0A780A4F10104D5F1200EA6
:100320000DDB02FA0EFC22FA05F2801841F1000101
:1003300003FA0EF2801843FA05F359410EE0A5F1D5
:1003400020050EF1200E012A03FA0EFC28BF4CF006
:10035000020C43FA05F3C01851EBE37101F00045BC
:1003600007D54FF0000EDCF1000C7EEB00006EEBC9
:100370000101B1F5801F1BD3B1F5001F0CD3490853
:100380005FEA30004FEA3C0C04F101044FEA4452AA
:1003900012F5800F80F09A80BCF1004F08BF5FEA31
:1003A000500C50F1000041EB045141EA050130BD11
:1003B0005FEA4C0C404141EB0101013C28BFB1F523
:1003C000801FE9D291F0000F04BF01460020B1FA6E
:1003D00081F308BF2033A3F10B03B3F120020CDA41
:1003E0000C3208DD02F1140CC2F10C0201FA0CF01F
:1003F00021FA02F10CE002F11402D8BFC2F1200C84
:1004000001FA02F120FA0CFCDCBF41EA0C01904039
:10041000E41AA2BF01EB0451294330BD6FEA040482
:100420001F3C1CDA0C340EDC04F11404C4F120026D
:1004300020FA04F001FA02F340EA030021FA04F37F
:1004400045EA030130BDC4F10C04C4F1200220FAD6
:1004500002F001FA04F340EA0300294630BD21FA14
:1004600004F0294630BD94F0000F83F4801306BFDA
:1004700081F480110134013D4EE77FEA645C18BFCE
:100480007FEA655C29D094EA050F08BF90EA020F65
:1004900005D054EA000C04BF1946104630BD91EA5D
:1004A000030F1EBF0021002030BD5FEA545C05D160
:1004B0004000494128BF41F0004130BD14F580049F
:1004C0003CBF01F5801130BD01F0004545F0FE4113
:1004D00041F470014FF0000030BD7FEA645C1ABF48
:1004E000194610467FEA655C1CBF0B46024650EA7F
:1004F000013406BF52EA033591EA030F41F40021AB
:1005000030BD00BF90F0000F04BF0021704730B530
:100510004FF4806404F132044FF000054FF0000105
:1005200050E700BF90F0000F04BF0021704730B5C6
:100530004FF4806404F1320410F0004548BF40429B
:100540004FF000013EE700BF42004FEAE2014FEAF0
:1005500031014FEA02701FBF12F07F4393F07F4FCB
:1005600081F06051704732F07F4208BF704793F0CE
:100570007F4F04BF41F40021704730B54FF46074E1
:1005800001F0004521F000411CE700BF50EA0102E4
:1005900008BF704730B54FF000050AE050EA01028D
:1005A00008BF704730B511F0004502D5404261EBFD
:1005B00041014FF4806404F132045FEA915C3FF43E
:1005C000D8AE4FF003025FEADC0C18BF03325FEADB
:1005D000DC0C18BF033202EBDC02C2F1200300FA8C
:1005E00003FC20FA02F001FA03FE40EA0E0021FAB1
:1005F00002F11444BDE600BF70B54FF0FF0C4CF49F
:10060000E06C1CEA11541DBF1CEA135594EA0C0F50
:1006100095EA0C0F00F0DEF82C4481EA030621EA8B
:100620004C5123EA4C5350EA013518BF52EA0335C6
:1006300041F4801143F4801338D0A0FB02CE4FF078
:100640000005E1FB02E506F00042E0FB03E54FF0A8
:100650000006E1FB03569CF0000F18BF4EF0010EA0
:10066000A4F1FF04B6F5007F64F5407404D25FEA9C
:100670004E0E6D4146EB060642EAC62141EA55514F
:100680004FEAC52040EA5E504FEACE2EB4F1FD0C91
:1006900088BFBCF5E06F1ED8BEF1004F08BF5FEA0F
:1006A000500E50F1000041EB045170BD06F00046C1
:1006B00046EA010140EA020081EA0301B4EB5C046E
:1006C000C2BFD4EB0C0541EA045170BD41F4801166
:1006D0004FF0000E013C00F3AB8014F1360FDEBF8B
:1006E000002001F0004170BDC4F10004203C35DA67
:1006F0000C341BDC04F11404C4F1200500FA05F3EA
:1007000020FA04F001FA05F240EA020001F000428A
:1007100021F0004110EBD37021FA04F642EB060100
:100720005EEA430E08BF20EAD37070BDC4F10C042A
:10073000C4F1200500FA04F320FA05F001FA04F2EE
:1007400040EA020001F0004110EBD37041F10001DA
:100750005EEA430E08BF20EAD37070BDC4F12005E5
:1007600000FA05F24EEA020E20FA04F301FA05F24D
:1007700043EA020321FA04F001F0004121FA04F2F5
:1007800020EA020000EBD3705EEA430E08BF20EAC5
:10079000D37070BD94F0000F0FD101F000464000FF
:1007A00041EB010111F4801F08BF013CF7D041EA81
:1007B000060195F0000F18BF704703F00046520085
:1007C00043EB030313F4801F08BF013DF7D043EA56
:1007D0000603704794EA0C0F0CEA135518BF95EA0C
:1007E0000C0F0CD050EA410618BF52EA4306D1D193
:1007F00081EA030101F000414FF0000070BD50EAB2
:10080000410606BF1046194652EA430619D094EA3B
:100810000C0F02D150EA013613D195EA0C0F05D125
:1008200052EA03361CBF104619460AD181EA030179
:1008300001F0004141F0FE4141F470014FF0000031
:1008400070BD41F0FE4141F4780170BD70B54FF0CC
:10085000FF0C4CF4E06C1CEA11541DBF1CEA13554C
:1008600094EA0C0F95EA0C0F00F0A7F8A4EB05042E
:1008700081EA030E52EA03354FEA013100F0888025
:100880004FEA03334FF0805545EA131343EA1263EE
:100890004FEA022245EA111545EA10654FEA0026A3
:1008A0000EF000419D4208BF964244F1FD0404F55C
:1008B000407402D25B084FEA3202B61A65EB0305B8
:1008C0005B084FEA32024FF480104FF4002CB6EB75
:1008D000020E75EB030E22BFB61A754640EA0C00F5
:1008E0005B084FEA3202B6EB020E75EB030E22BF35
:1008F000B61A754640EA5C005B084FEA3202B6EB76
:10090000020E75EB030E22BFB61A754640EA9C0034
:100910005B084FEA3202B6EB020E75EB030E22BF04
:10092000B61A754640EADC0055EA060E18D04FEAC2
:10093000051545EA16754FEA06164FEAC30343EA62
:1009400052734FEAC2025FEA1C1CC0D111F4801F2F
:100950000BD141EA00014FF000004FF0004CB6E728
:1009600011F4801F04BF01430020B4F1FD0C88BFC7
:10097000BCF5E06F3FF6AFAEB5EB030C04BFB6EBD2
:10098000020C5FEA500C50F1000041EB045170BDC5
:100990000EF0004E4EEA113114EB5C04C2BFD4EBF2
:1009A0000C0541EA045170BD41F480114FF0000E76
:1009B000013C90E645EA060E8DE60CEA135594EAF2
:1009C0000C0F08BF95EA0C0F3FF43BAF94EA0C0FF5
:1009D0000AD150EA01347FF434AF95EA0C0F7FF46A
:1009E00025AF104619462CE795EA0C0F06D152EABE
:1009F00003353FF4FDAE1046194622E750EA4106A2
:100A000018BF52EA43067FF4C5AE50EA41047FF4B2
:100A10000DAF52EA43057FF4EBAE12E74FF0FF3C17
:100A200006E000BF4FF0010C02E000BF4FF0010CE8
:100A30004DF804CD4FEA410C7FEA6C5C4FEA430C61
:100A400018BF7FEA6C5C1BD001B050EA410C0CBFB0
:100A500052EA430C91EA030F02BF90EA020F002012
:100A6000704710F1000F91EA030F58BF994208BF79
:100A700090422CBFD8176FEAE37040F00100704736
:100A80004FEA410C7FEA6C5C02D150EA013C07D18D
:100A90004FEA430C7FEA6C5CD6D152EA033CD3D0D8
:100AA0005DF8040B704700BF8446104662468C46D2
:100AB0001946634600E000BF01B5FFF7B7FF002805
:100AC00048BF10F1000F01BD4DF808EDFFF7F4FF2E
:100AD0000CBF012000205DF808FB00BF4DF808EDB9
:100AE000FFF7EAFF34BF012000205DF808FB00BFDC
:100AF0004DF808EDFFF7E0FF94BF012000205DF8FE
:100B000008FB00BF4DF808EDFFF7CEFF94BF0120B2
:100B100000205DF808FB00BF4DF808EDFFF7C4FFAB
:100B200034BF012000205DF808FB00BF4FEA410CF4
:100B30007FEA6C5C02D150EA013C0AD14FEA430CD7
:100B40007FEA6C5C02D152EA033C02D14FF0000014
:100B500070474FF0010070474FEA410212F5001252
:100B600015D211D56FF47873B3EB625212D94FEAF4
:100B7000C12343F0004343EA505311F0004F23FADE
:100B800002F018BF404270474FF00000704750EA33
:100B9000013005D111F0004008BF6FF000407047F0
:100BA0004FF00000704700BF4A0011D212F500124A
:100BB00011D20DD56FF47873B3EB62520ED44FEAB5
:100BC000C12343F0004343EA505323FA02F0704735
:100BD0004FF00000704750EA013002D14FF0FF3073
:100BE00070474FF0000070474FEA4102B2F1E04316
:100BF00024BFB3F5001CDCF1FE5C0DD901F0004C04
:100C00004FEAC0024CEA5070B2F1004F40EB830053
:100C100008BF20F00100704711F0804F21D113F17F
:100C20003872BCBF01F00040704741F480114FEAB8
:100C30005252C2F11802C2F1200C10FA0CF320FA41
:100C400002F018BF40F001004FEAC1234FEAD3235E
:100C500003FA0CFC40EA0C0023FA02F34FEA4303C8
:100C6000CCE77FEA625307D150EA01331EBF4FF051
:100C7000FE4040F44000704701F0004040F0FE406C
:100C800040F40000704700BF53B94AB9002908BFBB
:100C900000281CBF4FF0FF314FF0FF3000F0A4B927
:100CA000ADF1080C6DE904CE00F03CF8DDF804E08D
:100CB000DDE9022304B0704738B500220023044662
:100CC0000D46FFF70BFF28B920462946BDE83840FE
:100CD00000F00AB8204605F1004100F005F8404256
:100CE00061EB410138BD00BFD0B50C4B0022064678
:100CF0000F46FFF781FCFFF757FF0446FFF702FCA2
:100D0000074B0022FFF778FC02460B463046394677
:100D1000FFF7BAFAFFF748FF2146D0BD0000F03DCB
:100D20000000F0412DE9F047089D04468C46002B59
:100D300040F083808A42174647D9B2FA82F242B124
:100D4000C2F1200024FA00F09140974040EA010CE3
:100D500094404FEA1748230CBCFBF8F61FFA87FEB5
:100D600008FB16C143EA014306FB0EF1994209D97B
:100D7000FB1806F1FF3080F01981994240F216818C
:100D8000023E3B445B1AA4B2B3FBF8F008FB1033FD
:100D900044EA034400FB0EFEA64509D93C1900F1C4
:100DA000FF3380F00581A64540F2028102383C44C1
:100DB00040EA0640A4EB0E0400261DB1D4400023F7
:100DC000C5E900433146BDE8F08702B9FFDEB2FA5B
:100DD00082F2002A50D1CB1B4FEA174E1FFA87F838
:100DE0000126B3FBFEFC210C0EFB1C3341EA034140
:100DF00008FB0CF38B4207D979180CF1FF3002D2B3
:100E00008B4200F2E9808446C91AA3B2B1FBFEF01E
:100E10000EFB101143EA014408FB00F8A04507D976
:100E20003C1900F1FF3302D2A04500F2D9801846E8
:100E3000A4EB080440EA0C40BFE78B4209D9002D1F
:100E400000F0B1800026C5E9000130463146BDE81A
:100E5000F087B3FA83F6002E4AD18B4202D3824246
:100E600000F2B880841A61EB030101208C46002D4A
:100E7000A8D0C5E9004CA5E7C2F1200320FA03F68B
:100E8000974001FA02F04FEA174ED9403043030C65
:100E9000B1FBFEF61FFA87F80EFB161143EA014379
:100EA00006FB08F1994204FA02F409D9FB1806F18D
:100EB000FF3C80F08D80994240F28A80023E3B44A4
:100EC0005B1A81B2B3FBFEF00EFB103341EA034123
:100ED00000FB08F38B4207D9791800F1FF3C73D26D
:100EE0008B4271D902383944CB1A40EA064678E77A
:100EF000C6F1200C03FA06F422FA0CF31C4320FA84
:100F00000CF701FA06F34FEA144E21FA0CF11F43D5
:100F10003B0CB1FBFEF91FFA84F80EFB191143EAF2
:100F2000014109FB08FA8A4502FA06F200FA06F3C3
:100F300008D9611809F1FF3048D28A4546D9A9F18C
:100F400002092144A1EB0A01BFB2B1FBFEF00EFB86
:100F5000101147EA014700FB08F8B84507D9E7191F
:100F600000F1FF312ED2B8452CD90238274440EA8F
:100F70000940A7EB0807A0FB02894F45C646494632
:100F80001AD317D05DB1B3EB0E0267EB010707FA76
:100F90000CFCF2404CEA0202F740C5E900270026AB
:100FA0003146BDE8F0872E4628460BE70646E9E6BF
:100FB0001846FDE64345E5D2B8EB020E69EB0401A5
:100FC0000138DFE70846D2E760468DE78146B9E79A
:100FD000664675E730464AE7ACF1020C394413E740
:100FE00002383C4424E700BF704700BF80B400AF24
:100FF00000BFBD465DF8047B704780B400AF00239E
:101000001846BD465DF8047B704780B483B000AFDE
:101010007860396000BF0C37BD465DF8047B7047CF
:1010200080B500AF0B4BDA680B4B1B6803F28913DA
:101030009A4208D2074BDB680F2B04D901F0EEF976
:1010400001F064F904E001F0A1F901F0CFF900BF6B
:1010500000BF80BDA05900205802002080B500AF1D
:1010600001F0C4F901F052F900BF80BD80B500AFB6
:10107000544B1B780D2B00F2A08001A252F823F0F4
:10108000B9100008BF100008D3100008E7100008CE
:10109000FB1000080F110008251100083911000885
:1010A0003F11000853110008671100087B11000868
:1010B0008F110008A5110008FFF7D0FF80E0424B18
:1010C0005B6D3C2B02D9FFF7C9FF79E0FFF7A8FF62
:1010D00076E03D4B5B6D782B02D9FFF7BFFF6FE0E9
:1010E000FFF79EFF6CE0384B5B6DB42B02D9FFF726
:1010F000B5FF65E0FFF794FF62E0334B5B6DF02BCB
:1011000002D9FFF7ABFF5BE0FFF78AFF58E02E4BF9
:101110005B6DB3F5967F02D9FFF7A0FF50E0FFF7B4
:101120007FFF4DE0284B5B6DB3F5B47F02D9FFF72D
:1011300095FF01E0FFF774FFFFF790FF40E0224BBF
:101140005B6D3C2B02D9FFF789FF39E0FFF768FFA1
:1011500036E01D4B5B6D782B02D9FFF77FFF2FE048
:10116000FFF75EFF2CE0184B5B6DB42B02D9FFF745
:1011700075FF25E0FFF754FF22E0134B5B6DF02B6A
:1011800002D9FFF76BFF1BE0FFF74AFF18E00E4B99
:101190005B6DB3F5967F02D9FFF760FF10E0FFF7B4
:1011A0003FFF0DE0084B5B6DB3F5B47F02D9FFF74D
:1011B00055FF05E0FFF734FF02E001F017F900BF2B
:1011C00000BF80BD9C590020985C002080B500AF16
:1011D000764B1B681B2B00F2D58001A252F823F03E
:1011E00051120008D71200080F1300080F1300084F
:1011F0000F1300080F1300080F1300080F13000847
:101200000F1300080F1300080F1300080F13000836
:101210000F1300080F1300080F1300080F13000826
:101220000F1300082F1300082F1300082F130008B6
:101230002F1300082F1300082F1300082F13000886
:101240002F1300082F1300082F130008571300084E
:10125000574B1B68C82B07D9564B1B68002B03D173
:10126000554B14221A6012E0524B1B68012B0ED111
:10127000524B1B68002B0AD14F4B01221A60504B76
:101280009B6E01334E4A93664C4B06221A604A4BC2
:101290001B68002B04D0484B1B68013B464A136077
:1012A000464B1B68002B04D0444B1B68013B434A50
:1012B0001360414B1B68002B02D13C4B01221A608A
:1012C0004048FEF785FF03463E4A13443E49184610
:1012D0000DF0F2FC67E03D4B01221A6001F056F878
:1012E00001F09CF8314B02221A60354BDB6A013366
:1012F000334AD36200F09AFF3248FEF769FF034693
:10130000304A1344324918460DF0D6FC4BE0274BC7
:101310001B680133254A13602A48FEF759FF03462C
:10132000284A13442B4918460DF0C6FC3BE001F057
:101330005DF81E4B1B6801331C4A136000F0AEFFC2
:101340002048FEF745FF03461E4A1344224918462B
:101350000DF0B2FC27E0154B00221A601B4B002257
:101360001A60154B14221A601C4B00229A6415480F
:10137000FEF72EFF0346134A1344194918460DF091
:101380009BFC10E0094B00221A60104B00221A60EF
:101390000C48FEF71DFF03460A4A1344114918463C
:1013A0000DF08AFC00BF00BF80BD00BF4463002079
:1013B000A05900205402002010000020140000203A
:1013C000345A0020C45D0020A8340108C861002000
:1013D000B0340108B8340108C0340108C4590020F1
:1013E000C8340108D034010880B500AF9F4B1B689A
:1013F000252B00F2278101A252F823F09514000852
:1014000071150008B3150008B3150008B3150008DE
:10141000B3150008B3150008B3150008B31500088C
:10142000B3150008B3150008B3150008B31500087C
:10143000B3150008B3150008B3150008B31500086C
:10144000B3150008B3150008B3150008B31500085C
:10145000B3150008B3150008B3150008B31500084C
:10146000B3150008B3150008D3150008D3150008FC
:10147000D3150008D3150008D3150008D3150008AC
:10148000D3150008D3150008D3150008D31500089C
:1014900011160008764B1B68FA2B0CD9744B1B688D
:1014A00040F24552934206D8724B0F221A60724B9B
:1014B00000229A641DE06E4B1B6840F2DC5293429E
:1014C00009D96C4B00221A606B4B01229A636A4B5C
:1014D00000229A640DE0664B1B68FA2B09D8664B14
:1014E0009B6C002B05D1644B01229A64614B0A224C
:1014F0001A60624B1B68012B12D1614B1B68002BD9
:101500000ED0604B1B68002B0AD15A4B01221A6087
:101510005D4B9B6E01335C4A93665A4B06221A6000
:10152000544B1B68002B08D0554B1B68002B04D074
:10153000504B1B68013B4F4A1360524B1B68002BFA
:1015400004D0504B1B68013B4E4A1360494B1B684B
:10155000002B02D1454B01221A604C48FEF738FEA1
:1015600003464A4A13444A4918460DF0A5FB7AE05F
:10157000484B01221A6000F051FF3C4B11221A60C7
:101580003D4B9B6B002B02D0384B02221A603E4B26
:101590005B6E01333C4A536600F048FE3B48FEF761
:1015A00017FE0346394A13443B4918460DF084FBA5
:1015B00059E02E4B1B6801332C4A13603348FEF769
:1015C00007FE0346314A1344344918460DF074FBB4
:1015D00049E000F00BFF00F099FE244B1B6801333B
:1015E000224A136000F05AFE214B1B6840F2DC5285
:1015F000934202D91D4B01221A602448FEF7E8FDF0
:101600000346224A1344264918460DF055FB2AE0AA
:10161000194B00229A63154B00221A601D4B0022C1
:101620001A60144B14221A60134B00229A64174854
:10163000FEF7CEFD0346154A13441A4918460DF02D
:101640003BFB10E0094B00221A60124B00221A608B
:101650000E48FEF7BDFD03460C4A134412491846D6
:101660000DF02AFB00BF00BF80BD00BF4463002017
:10167000A059002010000020C4590020540200206E
:101680004C02002014000020345A0020C45D0020C9
:10169000D8340108C8610020E0340108E8340108AA
:1016A000F0340108F83401080035010884B080B531
:1016B00088B000AF07F1280C8CE80F0060237B6036
:1016C000B7F87C30BB600023FB6008233B6100233C
:1016D0007B613B1D7A6F194607F1280007F0CAF9B4
:1016E000796F07F1280006F03FFF00BF2037BD46A5
:1016F000BDE8804004B0704784B080B588B000AFCA
:1017000007F1280C8CE80F00B7F87830BB60602335
:101710007B600023FB6000233B6100237B6100238F
:10172000BB610023FB613B1D7A6F194607F128005E
:1017300007F0A0F9796F07F1280006F015FF00BF48
:101740002037BD46BDE8804004B0704780B500AF8B
:10175000614B1B68002B1DD05F4B1B68013B5E4A31
:10176000136000224FF400415C4805F0F1FB0022B9
:101770004FF48041594805F0EBFB00224FF4005133
:10178000564805F0E5FB00224FF48051534805F020
:10179000DFFB9FE0524B9B69322B03D8504B5B69B8
:1017A000322B1DD94E4B9B69322B05D901224FF4A8
:1017B00000414A4805F0CCFB494B5B69322B05D907
:1017C00001224FF48041454805F0C2FB01224FF44D
:1017D0000051424805F0BCFB3F4B01221A6079E002
:1017E000404B1B6A002B0FD001224FF400413B48B5
:1017F00005F0AEFB01224FF48041384805F0A8FB0C
:10180000354B01221A6065E0364B1B69002B09D06D
:1018100001224FF40041314805F09AFB2E4B012282
:101820001A6057E02F4BDB68002B1BD02E4B1B6838
:10183000002B0DD02D4B1B68002B09D001224FF43B
:101840008041264805F084FB234B01221A6041E0C9
:1018500001224FF48041214805F07AFB1E4B032200
:101860001A6037E01F4B9B68002B09D001224FF410
:1018700000411A4805F06CFB174B09221A6029E059
:10188000184B5B68002B09D001224FF4004113482C
:1018900005F05EFB104B01221A601BE0114B1B6828
:1018A000002B09D001224FF400410C4805F050FBF9
:1018B000094B01221A600DE00A4BDB69002B09D0AD
:1018C00001224FF48041054805F042FB024B0922FA
:1018D0001A60FFE700BF80BDC05900200004004827
:1018E000A0590020C45900204C02002048020020CA
:1018F00080B483B000AF00237B600AE07B68134AAA
:10190000134413497A680A4412781A707B680133C9
:101910007B607B68272BF1D90C4B1B68B3F1FF3F31
:101920000DD100237B6007E07B68084A1344002246
:101930001A707B6801337B607B68272BF4D900BF6A
:101940000C37BD465DF8047B704700BF705C00201B
:1019500000A0030880B588B000AF0023FB6100231E
:10196000BB61264B1B68184609F044FB244B1B68DF
:101970000133234A136000237B6001233B617423FE
:10198000FB600123BB6004F039FF1E4BB3221A61D8
:1019900007F114023B1D1146184605F021F81FE01F
:1019A000BB69194A13441946FB69DB00174A134403
:1019B000D3E90023002004F0B5FE0346002B06D136
:1019C000BB690833BB61FB690133FB6108E00B4B6A
:1019D0001B686421184609F0DFFA04F041FF0AE0B1
:1019E000FB69042BDCD904F02BFF044B1B6864213A
:1019F000184609F0D1FA2037BD4680BDC05D0020F1
:101A0000345A00200020024000A00308705C00202F
:101A100080B584B000AF0023BB6000237B603F4BE8
:101A200000221A600023FB602FE004233B600DE0DE
:101A30003B68013B3B60BB681B023949FA68D20234
:101A400011443A680A4412781343BB603B68002B88
:101A5000EED1BB68B3F1FF3F01D10023BB60BA6890
:101A60007B689A4209D92D4AFB681360BB687B608A
:101A70004FF400512B4805F083FA4FF48041294878
:101A800005F07EFAFB680133FB60FB68332BCCD991
:101A900000224FF48041234805F05AFA00224FF407
:101AA0000051204805F054FA0023FB600EE01B4B68
:101AB0001A68FB681C490B441949D2021144FA68A0
:101AC0000A4412781A70FB680133FB60FB68BF2B75
:101AD000EDD9154BDB69B3F1FF3F13D10023FB6058
:101AE0000CE0FB68114A134400221A70FB680E4A8E
:101AF000134400221A70FB680133FB60FB68BF2BA4
:101B0000EFD907E0094A084B10461946C0231A4688
:101B10000CF067F900BF1037BD4680BDC4610020DE
:101B2000000002080004004838620020345A0020F7
:101B300080B588B000AF0023FB610023BB612F4A52
:101B40002F4B10461946C0231A460CF04AF92D4B6C
:101B50001B68322B05D82B4B1B680133294A1360B5
:101B600002E0284B00221A60254B1B680133244AEF
:101B7000136000237B6001233B61224B1B684033D1
:101B8000FB600123BB6004F039FE1F4BB3221A61D6
:101B900007F114023B1D1146184604F021FF04F022
:101BA0004FFE04F02BFE184BB3221A611DE0154BBB
:101BB0001B68DA02BB691344144A13441946FB69D3
:101BC000DB000E4A1344D3E90023002004F0AAFDF1
:101BD0000346002B06D1BB690833BB61FB690133A7
:101BE000FB6102E004F03CFE04E0FB69172BDED948
:101BF00004F026FE2037BD4680BD00BF38620020BD
:101C0000345A0020C4610020002002400000020875
:101C100080B586B000AF274B1B68184609F0EAF97B
:101C200000237B610CE07B69234A134400221A7075
:101C30007B69224A134400221A707B6901337B615D
:101C40007B69BF2BEFD91E4B00221A6000233B603B
:101C50000123FB601A4B1B684033BB6001237B6090
:101C600004F0CCFD174BB3221A610FE007F110020C
:101C70003B461146184604F0B3FE114B1B68013376
:101C80000F4A13600E4B1B684033BB600C4B1B6844
:101C9000322BEBD904F0D4FD094B00221A60054B1E
:101CA0001B686421184609F077F900BF1837BD4654
:101CB00080BD00BFC05D0020345A00203862002083
:101CC000C46100200020024080B400AF924B1B682A
:101CD000002B11D0904B00221A60904B1A68904B49
:101CE000DB688F49496801FB03F38E49A1FB0313AD
:101CF0005B0B1344894A1360874B5B68002B11D040
:101D0000854B00225A60854B5A68854BDB688449B5
:101D1000496801FB03F38349A1FB03135B0B1344E5
:101D20007E4A53607C4B9B68002B11D07A4B00227B
:101D30009A607A4B9A687A4B9B687949096801FBEB
:101D400003F37849A1FB03135B0B1344734A9360BD
:101D5000714BDB68002B11D06F4B0022DA606F4BA8
:101D6000DA686F4BDB686E49096801FB03F36D4964
:101D7000A1FB03135B0B1344684AD360664B1B69DA
:101D8000002B11D0644B00221A61644B1A69644B1A
:101D9000DB686349496801FB03F36249A1FB031354
:101DA0005B0B13445D4A13615B4BDB69002B07D06F
:101DB000594B0022DA61594BDB690133574AD36131
:101DC000554B1B6A002B07D0534B00221A62534B12
:101DD0001B6A0133514A13624F4B9B69002B07D09A
:101DE0004D4B00229A614D4B9B6901334B4A9361E5
:101DF000494B5B6D002B07D0474B00225A65474B80
:101E00005B6D0133454A5365434BDB6B002B09D0B7
:101E1000414B0022DA63444BD3F8A0300133424AED
:101E2000C2F8A0303C4B9B6D002B09D03A4B0022EE
:101E30009A653A4B9A6D3A4B5B681344374A9365FF
:101E4000354BDB6D002B09D0334B0022DA65334B69
:101E5000DA6D334B1B681344304AD365304B5A69F3
:101E6000314B5B6B9A4208D32D4B5B692E4A53630F
:101E70002D4B9B6B01332C4A9363294B9A692A4B58
:101E8000DB6B9A4208D3264B9B69274AD363264BC8
:101E90001B6C0133244A1364214B1A68224B5B6C80
:101EA0009A4208D31E4B1B681F4A53641E4B9B6CFF
:101EB00001331D4A93641A4B5A681B4BDB6C9A42E0
:101EC00008D3174B5B68184AD364174B1B6D01335B
:101ED000154A1365124BDA68134B5B6D9A4208D3AF
:101EE0000F4BDB68104A53650F4B9B6D01330E4A55
:101EF00093650B4BDB680F2B27D90B4BDB6D0F2B3F
:101F000014D8074BDB68084AD365074B1B6E0133B7
:101F1000054A136619E000BFC4590020985C0020F0
:101F2000A05900205917B7D1345A0020094BDA685C
:101F3000094BDB6D9A4208D8064BDB68064AD3652D
:101F4000054B1B6E0133044A136600BFBD465DF8A6
:101F5000047B7047A0590020345A002080B400AFA1
:101F60005C4B1B685C4AA2FB03231A0913465B0007
:101F700013445A4A5360594B9968564B5B68564A0A
:101F8000A2FB03231A0913465B0013440B44534A74
:101F90009360524B9A694F4B9B6913444F4A93612C
:101FA0004E4BD9684B4B9B684B4AA2FB03231A0943
:101FB00013465B0013440B44484AD360474B1969EE
:101FC000444BDB68444AA2FB03231A0913465B0017
:101FD00013440B44414A1361404B59693D4B1B6903
:101FE0003D4AA2FB03231A0913465B0013440B442A
:101FF0003A4A5361394BD3F89410364B9B6D364AAD
:10200000A2FB03231A0913465B0013440B44334A13
:10201000C2F89430314BD3F8B0102E4B9B6D2E4A42
:10202000A2FB03231A0913465B0013440B442B4AFB
:10203000C2F8B030294BD96F264BDB6D264AA2FB84
:1020400003231A0913465B0013440B44234AD36746
:10205000224BD3F8B4101F4BDB6D1F4AA2FB0323A6
:102060001A0913465B0013440B441C4AC2F8B430EF
:102070001A4BDA69174BDB691344184AD361174BC3
:102080001A6A144B1B6A1344144A1362114B002240
:102090009A65104B0022DA650E4B00221A600D4B38
:1020A00000225A600B4B00229A610A4B00229A6070
:1020B000084B0022DA60074B00221A61054B002210
:1020C000DA61044B00221A6200BFBD465DF8047B52
:1020D000704700BF985C0020C94216B2345A0020F5
:1020E00080B500AF01211E4804F01AFF03461A46CE
:1020F0001C4B1A7010211C4804F012FF03465B00B1
:10210000DAB2184B1B781344DAB2164B1A7002215C
:10211000134804F005FF03469B00DAB2114B1B780D
:102120001344DAB20F4B1A7020210F4804F0F8FE66
:102130000346DB00DAB20B4B1B781344DAB2094BCF
:102140001A70084B1B78DB43DAB2064B1A70054B4A
:102150001B7803F00F03DAB2024B1A7000BF80BD88
:10216000000400489C5900200008004880B582B057
:1021700000AF124B1B68002B1BD1104B01221A60C1
:10218000012210214FF0904004F0E2FE0C490D486E
:102190000CF092FD0B48FEF71BF878607B689BB251
:1021A0001A460849084807F0F3F90A2008F047FEE4
:1021B00000E000BF0837BD4680BD00BF50020020D0
:1021C00008350108C45D0020EC5B002080B582B0BA
:1021D00000AF124B1B68002B1BD0104B00221A6063
:1021E000002210214FF0904004F0B2FE0C490D483F
:1021F0000CF062FD0B48FDF7EBFF78607B689BB24B
:102200001A460849084807F0C3F9642008F017FE89
:1022100000E000BF0837BD4680BD00BF500200206F
:1022200018350108C45D0020EC5B0020F0B599B0C2
:1022300012AF184EC823109300230F936D4606F17A
:1022400010040FCC0FC50FCC0FC50FCC0FC594E8F1
:10225000070085E8070096E80F00FFF74DFA002118
:102260000C4806F081F93B1D00221A605A609A6002
:10227000DA601A614FF400737B600023BB600223B5
:10228000FB603B1D1946044804F0D0FC00BF1C371E
:10229000BD46F0BDF862002000040048F0B599B0DA
:1022A00012AF184E0023109300230F936D4606F1D2
:1022B00010040FCC0FC50FCC0FC50FCC0FC594E881
:1022C000070085E8070096E80F00FFF715FA0021E0
:1022D0000C4806F027FA3B1D00221A605A609A60EB
:1022E000DA601A614FF400737B600023BB60002347
:1022F000FB603B1D1946044804F098FC00BF1C37E6
:10230000BD46F0BDF862002000040048F0B593B06F
:1023100012AF1B4B9B69322B02D900F037F82BE030
:10232000184B1B68002B26D1002240214FF0904013
:1023300004F00EFE144E4FF4FA731193FE23109323
:1023400000230F936D4606F110040FCC0FC50FCC80
:102350000FC50FCC0FC594E8070085E8070096E885
:102360000F00FFF7A3F90021074806F0FDF8054B21
:1023700001221A6000E000BF0437BD46F0BD00BF77
:10238000A059002048020020EC610020F0B593B075
:1023900012AF144E00231193FE23109300230F93CA
:1023A0006D4606F110040FCC0FC50FCC0FC50FCC36
:1023B0000FC594E8070085E8070096E80F00FFF7CF
:1023C00075F9012240214FF0904004F0C1FD002139
:1023D000044806F0A7F9044B00221A6000BF043736
:1023E000BD46F0BDEC6100204802002080B500AF82
:1023F000084B5B69322B02D900F010F808E000228C
:1024000080214FF0904004F0A3FD034B01221A609D
:1024100000BF80BDA05900204C02002080B500AF55
:10242000012280214FF0904004F092FD024B0022E7
:102430001A6000BF80BD00BF4C02002000000000F9
:10244000B0B588B000AF78607868FEF75BF80246F8
:102450000B46C7E906239FED281B97ED060B10F0EE
:102460005FF851EC100B28A3D3E90023FEF7C4F862
:1024700002460B4614461D469FED211B97ED060BA9
:1024800010F04EF851EC100B21A3D3E90023FEF716
:10249000B3F802460B4620462946FDF7F7FE0246F2
:1024A0000B4614461D461CA3D3E90023D7E90601B9
:1024B000FEF7A2F802460B4620462946FDF7E4FE49
:1024C00002460B461046194615A3D3E90023FDF733
:1024D000DDFE02460B46C7E90423D7E90401FEF7F7
:1024E00063FB0346FB60FB680D3BFB60FB68184623
:1024F0002037BD46B0BD00BF00000000000008400E
:10250000000000000000004085F743D694103EBE56
:102510002D431CEBE2360A3FB459F5B9DA8ABD3FC8
:10252000EC51B81E85EB5E4080B584B000AF78609A
:102530007B6807EE903AF8EE677A9FED277A67EEB0
:10254000877A9FED267AC7EE876A16EE900AFDF726
:10255000FBFF02460B46C7E9022319A3D3E9002378
:10256000D7E90201FEF748F802460B46C7E9022305
:1025700015A3D3E90023D7E90201FEF73DF802468F
:102580000B46104619464FF00002154BFEF75EF958
:1025900002460B46C7E902230DA3D3E90023D7E97E
:1025A0000201FEF729F802460B46C7E90223D7E9E4
:1025B0000201FEF7F9FA034618461037BD4680BD02
:1025C00000000080EB510A400000000000607E40E7
:1025D0009A9999999999B93F0000C84200F07F45AE
:1025E000000030400000000080B584B000AF78608B
:1025F0007868FDF787FF1EA3D3E90023FDF7FCFFF2
:1026000002460B46C7E902234FF00002164BD7E9FA
:102610000201FEF71BF902460B46C7E902234FF001
:102620000002124BD7E90201FDF730FE02460B46CD
:10263000C7E902234FF000024FF00003D7E902017F
:10264000FEF74CFA0346002B05D04FF000024FF086
:102650000003C7E90223D7E90201FEF7A5FA034602
:1026600018461037BD4680BD00408F4000003940FD
:102670000000000000E0AD4080B586B000AF02F081
:1026800092FA00F043F800F09BFA00F05FFA00F0D5
:1026900081F800F02BFA00F057F900F0AFF93B1D7C
:1026A00000221A605A609A60DA601A614FF400736F
:1026B0007B600023BB600023FB603B1D19460C4878
:1026C00004F0B4FA08F0DEFA0A4B002201210A48AD
:1026D00008F0E6FB0346094A1360094A002109484D
:1026E00008F01AFB0346084A136008F0EFFAFEE709
:1026F0000004004800410108E9410008C05D0020D5
:10270000DC4001087D3A00089859002080B596B059
:1027100000AF07F114034422002118460BF06FFBB1
:102720003B4600221A605A609A60DA601A614FF4E0
:10273000007004F04DFC0346002B01D001F056FE62
:1027400001237B614FF48033BB610023FB6307F1FE
:102750001403184604F092FC0346002B01D001F04C
:1027600045FE0F233B6002237B600023BB600023F8
:10277000FB6000233B613B460021184605F090F8C2
:102780000346002B01D001F031FE00BF5837BD4693
:1027900080BD000080B586B000AF3B4600221A60C5
:1027A0005A609A60DA601A615A615D4B5D4A1A603C
:1027B0005B4B4FF480225A60594B00229A60584B71
:1027C0000022DA60564B01221A61554B04225A61ED
:1027D000534B00221A76524B00225A76504B082255
:1027E000DA614F4B002283F820204D4B00229A6281
:1027F0004B4B0022DA624A4B012283F83020484BCF
:1028000000225A63464B002283F83820444802F0E5
:10281000F1FB0346002B01D001F0E8FD424B3B6089
:1028200006237B600123BB607F23FB6004233B61A5
:1028300000237B613B461946394802F029FE0346D6
:10284000002B01D001F0D2FD384B3B600C237B60A4
:102850003B461946324802F01BFE0346002B01D0CE
:1028600001F0C4FD324B3B6012237B600023BB6050
:102870003B4619462A4802F00BFE0346002B01D0C6
:1028800001F0B4FD2B4B3B6018237B603B4619469F
:10289000234802F0FDFD0346002B01D001F0A6FD08
:1028A000254B3B604FF480737B603B4619461C48C8
:1028B00002F0EEFD0346002B01D001F097FD1F4B07
:1028C0003B604FF483737B603B461946144802F02B
:1028D000DFFD0346002B01D001F088FD184B3B6063
:1028E0004FF486737B603B4619460D4802F0D0FDDD
:1028F0000346002B01D001F079FD124B3B604FF4F1
:1029000089737B603B461946054802F0C1FD0346CA
:10291000002B01D001F06AFD00BF1837BD4680BD15
:10292000405B0020000004500200300404006008F6
:102930000800900C1000C0102000F0144000201976
:102940008000501D0100008080B58AB000AF07F103
:102950001C0300221A605A609A603B4600221A60EB
:102960005A609A60DA601A615A619A61224B4FF09C
:1029700080421A60204B01225A601F4B00229A604D
:102980001D4B4FF47A72DA601B4B4FF400721A61E0
:10299000194B80229A61184805F08EFD0346002BE2
:1029A00001D001F023FD0023FB6100237B6207F1CE
:1029B0001C031946104806F0A1FC0346002B01D069
:1029C00001F014FD60233B6000237B600023BB60AB
:1029D00000233B613B4600221946074806F04AF8AF
:1029E0000346002B01D001F001FD034801F008FE71
:1029F00000BF2837BD4680BDEC61002080B592B095
:102A000000AF07F12C0300221A605A609A60DA6066
:102A10001A615A619A613B462C22002118460BF03C
:102A2000EEF9304B304A1A602E4B01225A602D4B82
:102A300000229A602B4B4FF4FA72DA60294B002285
:102A40001A61284B00225A61264B80229A61254840
:102A500005F086FC0346002B01D001F0C7FC21489D
:102A600005F02AFD0346002B01D001F0BFFC6023D6
:102A7000FB62FE233B6300237B630023BB630023D5
:102A8000FB6300233B6400237B6407F12C030022DB
:102A90001946144805F0EEFF0346002B01D001F063
:102AA000A5FC00233B6000237B600023BB60002368
:102AB000FB6000233B614FF400537B610023BB624A
:102AC0003B461946074806F07FFC0346002B01D021
:102AD00001F08CFC034801F093FD00BF4837BD4670
:102AE00080BD00BFF86200200044014080B500AF07
:102AF000144B154A1A60134B4FF4E1325A60114BD4
:102B000000229A600F4B0022DA600E4B00221A61FD
:102B10000C4B0C225A610B4B00229A61094B4FF46B
:102B20000042DA61074B00221A62064B00225A6209
:102B3000044806F0DFFC0346002B01D001F056FCF0
:102B400000BF80BDEC5B00200038014080B582B042
:102B500000AF1A4B9B6C194A43F001039364174B67
:102B60009B6C03F001037B607B68144B9B6C134AE6
:102B700043F002039364114B9B6C03F002033B6030
:102B80003B68002205210B2003F020FB0B2003F003
:102B900039FB00220521442003F018FB442003F0F8
:102BA00031FB00220521452003F010FB452003F0F6
:102BB00029FB00BF0837BD4680BD00BF00100240A2
:102BC00080B58AB000AF07F1140300221A605A6082
:102BD0009A60DA601A61424BDB6C414A43F0800331
:102BE000D3643F4BDB6C03F080033B613B693C4BA0
:102BF000DB6C3B4A43F00403D364394BDB6C03F0DA
:102C00000403FB60FB68364BDB6C354A43F0010381
:102C1000D364334BDB6C03F00103BB60BB68304B08
:102C2000DB6C2F4A43F00203D3642D4BDB6C03F0C3
:102C300002037B607B6800224FF4E8714FF0904004
:102C400004F086F900224FF47041264804F080F920
:102C50004FF4E8737B610123BB610023FB61002318
:102C60003B6207F1140319464FF0904003F0DEFF7A
:102C700030237B610023BB610123FB6107F1140357
:102C80001946194803F0D2FF03237B610023BB617F
:102C90000123FB6107F114031946124803F0C6FF34
:102CA0004FF401737B610023BB610223FB6107F1D9
:102CB000140319460B4803F0B9FF4FF470437B61CE
:102CC0000123BB610023FB6100233B6207F1140376
:102CD0001946044803F0AAFF00BF2837BD4680BD4F
:102CE00000100240000400480008004880B58AB087
:102CF00000AF78607B681B68DB6903F01003102B62
:102D000040F09B818D4B1B6810221A628C4B1B7804
:102D10000133DAB28A4B1A708A4B1B887B837B683B
:102D20001B6F1B685B689BB2C3F17F039AB2854B34
:102D30001A807F23FB84844B1B78012B19D8824B8C
:102D40001B78002B0FD07F4B1B887A8B9A4207D3BE
:102D50007C4B1A887B8BD31A9BB27F33FB840AE0AF
:102D60008023FB8407E0774B1A887B8BD31AFB8484
:102D700001E08123FB84FB8C002B00F03C81FB8C69
:102D80007F2B00F238817B8B704AD35C662B04D09A
:102D90007B8B6E4AD35C462B02D16D4B04221A60AA
:102DA0007B8B6A4AD35C632B04D07B8B674AD35CF2
:102DB000432B02D1664B05221A607B8B634AD35C9E
:102DC000772B04D07B8B614AD35C572B02D1604BAD
:102DD00003221A607B8B5D4AD35C652B04D07B8B0E
:102DE0005A4AD35C452B1ED15A4B1B687B6100238A
:102DF0003B620CE03B6A574A134400221A703B6A5C
:102E0000554A134400221A703B6A01333B623B6A05
:102E1000BF2BEFD94F4A7B6913604F4A7B69136020
:102E20004B4B04221A607B8B484AD35C642B04D042
:102E30007B8B464AD35C442B04D1FEF7E9FE444B1E
:102E400004221A607B8B414AD35C702B04D07B8BAD
:102E50003E4AD35C502B02D13D4B3E221A607B8B05
:102E60003A4AD35C6F2B04D07B8B384AD35C4F2B10
:102E700004D1374B3E221A60FEF73AFD7B8B334A72
:102E8000D35C6C2B04D07B8B304AD35C4C2B04D1AD
:102E9000FEF760FD2E4B3E221A607B8B2B4AD35CE3
:102EA0006B2B04D07B8B294AD35C4B2B10D1284B46
:102EB0003E221A600023FB6107E0FB69274A1344A6
:102EC00000221A70FB690133FB61FB69272BF4D9DF
:102ED0007B8B1E4AD35C422B04D07B8B1B4AD35C7A
:102EE000622B02D11E4B00221A607B8B174AD35CE7
:102EF000742B04D07B8B154AD35C542B02D1194B15
:102F000000221A607B8B114AD35C302B39D1104BD5
:102F10003E221A60144B1B681846FFF765FB3861A8
:102F20003B69B3F5FA7F25D23B690C4A53603B6994
:102F30001A460E490E480BF0BFFE22E0EC5B002063
:102F40003D0200203E0200203C020020405D0020A7
:102F500064020020345A002038620020705C002097
:102F60001400002010000020CC6100203035010842
:102F7000C45D0020364B1B681A46364936480BF0B4
:102F80009BFE7B8B354AD35C312B1DD1344B3E22CB
:102F90001A60344B5B681846FFF726FBF860FB6845
:102FA000B3F5FA7F09D2FB682F4A9360FB681A4693
:102FB0002E4929480BF080FE06E0254B5B681A4637
:102FC0002B4925480BF078FE7B8B244AD35C682B79
:102FD00009D07B8B214AD35C482B04D07B8B1F4AC2
:102FE000D35C3F2B24D11E4B3C221A6021491A4846
:102FF0000BF062FE1CE0204806F04EFF0346002B5B
:1030000017D01D4806F0AAFBFFF770FD7F22134979
:10301000194806F04DFB184B1B6810221A62164B1C
:103020001B681A68144B1B6842F010021A6000E01B
:1030300000BF124B00221A7005E0104B1B780133C1
:10304000DAB20E4B1A7000BF2837BD4680BD00BFF4
:10305000A059002050350108C45D0020405D0020CB
:1030600064020020CC610020705C002078350108EB
:1030700094350108B8350108EC5B00203C020020C3
:1030800080B483B000AF7860054B1B780133DAB2AF
:10309000034B1A7000BF0C37BD465DF8047B7047C8
:1030A0004002002080B500AF974BD3F8A030B3F5B5
:1030B000617F11D99548FDF78BF80346934A134475
:1030C000934918460BF0F8FD924B00225A65924B3B
:1030D00000221A64FFF74AF88F4B0022DA648E4B05
:1030E00000221A658D4BDA688D4B1B6803F24B1377
:1030F0009A4222D2894BDB680F2B1ED9854B1B6964
:10310000052B1AD88148FDF763F803467F4A13441C
:10311000844918460BF0D0FDFFF7F8F8804B1122D8
:103120001A60FFF77BF97C4B01221A617A4B01226E
:103130005A61794B01229A65E4E07448FDF748F83A
:103140000346724A1344784918460BF0B5FD724B9A
:103150005B69002B01D0FFF719F9714B00221A604F
:103160006D4B00225A61714B1B68002B01D1FFF798
:103170003DF96A4B1B68C82B12D96448FDF728F843
:103180000346624A13446A4918460BF095FD624BA8
:1031900001229A60FFF7FAF85F4B00225A63B1E010
:1031A0005A48FDF715F80346584A13446149184632
:1031B0000BF082FD584B5B6B002B11D15348FDF790
:1031C00007F80346514A13445B4918460BF074FD57
:1031D0004D4B1B6B01334C4A13634F4B01225A6317
:1031E0004D4B01229A61FDF7F1FF504B1B68002BFC
:1031F00040F088804548FCF7EBFF0346434A134400
:103200004E4918460BF058FD444BDA684C4B1B688E
:1032100003F289139A421CD2404BDB680F2B18D95A
:103220003A48FCF7D5FF0346384A13444549184647
:103230000BF042FDFFF76AF8374B01225A60364B1C
:1032400001229A653E4B12221A60334B00229A6289
:1032500058E02E48FCF7BCFF03462C4A13443A4979
:1032600018460BF029FDFFF791F82B4B01221A624B
:10327000334B00221A60294BDA68314B1B6803F28A
:1032800089139A423ED92148FCF7A2FF03461F4A00
:1032900013442E4918460BF00FFD1B4BD3F8943006
:1032A000194AC2F880301C4B1B6B002B15D11A4BEE
:1032B0009B6A002B11D01548FCF78AFF0346134A7E
:1032C0001344234918460BF0F7FC144BDB680E4AF5
:1032D000C2F89C30104B01221A630F4B9B6A002BE3
:1032E00010D10A48FCF774FF0346084A13441949F1
:1032F00018460BF0E1FC084B01229A62024B0022B7
:10330000DA67FFE700BF80BD345A0020C45D0020AB
:1033100060380108985C0020C4590020A0590020A2
:103320005C0200206438010868380108C861002088
:103330006C380108703801087438010878380108C1
:10334000580200207C3801088038010884380108C0
:103350008C3801089438010880B500AF3E4B1B68DB
:10336000002B01D1FFF742F83C4B1B68C82B11D949
:103370003B4B01229A60394B5B6840F2A222934298
:1033800002D8FEF7C3FF01E0FFF700F8344B00223C
:103390005A635FE0324B5B6B002B07D1314B1B6BE9
:1033A0000133304A13632E4B01225A632C4B012206
:1033B0009A61FDF70BFF284B1B68002B4AD1274B66
:1033C000DA68294B1B6803F289139A4212D2234B05
:1033D000DB680F2B0ED9FEF799FF214B01225A60B3
:1033E0001F4B01229A65204B12221A601C4B0022AF
:1033F0009A622FE0FEF7CAFF194B01221A621A4B9C
:1034000000221A60154BDA68174B1B6803F2891308
:103410009A421FD9134BD3F89430124AC2F8803025
:103420000F4B1B6B002B0BD10D4B9B6A002B07D056
:103430000A4BDB680B4AC2F89C30094B01221A6325
:10344000074B9B6A002B05D1054B01229A62054B65
:103450000022DA6700BF80BDC8610020A0590020AB
:10346000C4590020345A00205802002080B500AF13
:10347000924B00225A61914B0122DA618F4B01225B
:103480005A658F4B5B6D122B10D98C4B1B6D002B2B
:103490000CD18C48FCF79CFE03468A4A13448A49A7
:1034A00018460BF009FC854B00225A62874BDA68FC
:1034B000874B1B68C3F5AE739A4255D98148FCF718
:1034C00087FE03467F4A1344824918460BF0F4FBFB
:1034D0007A4B00225A62804B1B68002B0BD1794833
:1034E000FCF776FE0346774A13447C4918460BF0F6
:1034F000E3FBFDF7BBFDFDF777FF754B11221A606B
:10350000774B1B68002B0FD06E48FCF761FE03461B
:103510006C4A1344734918460BF0CEFB674B0122EB
:10352000DA60664B0122DA65684B1B68FA2B40F2C1
:10353000C380624B9B6A002B00F0BE806148FCF7A1
:1035400047FE03465F4A1344674918460BF0B4FB35
:103550005A4B00229A62594B00221A63634B9B6AB2
:103560000133624A9362A7E05648FCF731FE0346F6
:10357000544A13445E4918460BF09EFB544B0022FC
:103580001A605C4B00221A60FEF748FFFEF7BEFE91
:10359000594B9B68002B6CD0574B5B68022B68D152
:1035A000464B5B6A002B64D1454B5B6D122B60D997
:1035B0004448FCF70DFE0346424A13444F4918465F
:1035C0000BF07AFB494BD3F88C30484AC2F8903064
:1035D000464BD3F88830454AC2F88C30434BD3F879
:1035E0008430424AC2F88830404BD3F894303F4A86
:1035F000C2F884303D4BD3F8A8303C4AC2F8AC3016
:103600003A4BD3F8A430394AC2F8A830374BD3F834
:10361000A030364AC2F8A430344B5B6F334A93670C
:10362000324B1B6F314A5367304BDB6E2F4A1367A7
:103630002E4BDB6F2D4AD366244BDB682B4AC2F836
:1036400098301E4B00221A63284B5B6A0133274ACD
:1036500053621A4B00229A62244B0022C3F8942032
:10366000164B01221A64154B01225A62134B012298
:103670001A65124B1B6D002B1ED01F4B9B68002B35
:103680001AD01D4B5B68002B16D11B4B1B680A2BF5
:1036900012D10C48FCF79CFD03460A4A1344184912
:1036A00018460BF009FBFEF791FDFEF79FFEFEF7B3
:1036B0006DFE024B00221A6500BF80BDC459002078
:1036C000985C0020C45D00209C380108A0590020AF
:1036D0005C020020A0380108C8610020A43801085D
:1036E0004C020020A8380108AC380108345A0020E8
:1036F000B038010858020020245A0020B4380108CC
:10370000B838010880B590B010AF40F2DC530F9389
:1037100040F246530E930F230D9314230C93112361
:103720000B9312230A9340F2891309930F230893F2
:103730004FF4AE7307934FF4A573069340F2B3139F
:10374000059346230493C8230393FA2302934FF46B
:10375000A0730193322300933423022203490448C7
:103760000BF0AAFA00BFBD4680BD00BFBC380108FF
:10377000C45D0020F0B5B9B01EAF4E4B1B687B6630
:103780004C4BD96939664B4B186AF865494B9C69B3
:10379000BC65484B5D687D65464B9E683E65454B04
:1037A0001A69FA64434B5969B964424BDB687B641C
:1037B000404B586A38643F4B9C6AFC633D4B1D6B21
:1037C000BD633C4BDE6A7E633A4BDA6B3A63394B3E
:1037D000596BF962374B9B6BBB62364B186C786246
:1037E000344B5C6C3C62334BDD6CFD61314B9E6C49
:1037F000BE61304B1A6D7A612E4B596D39612D4B7C
:10380000DB6DFB602B4B986DB8602A4B1C6E7C60A7
:10381000284B5E6E274B9D6E264BD3F88040254B80
:10382000D86E244BD3F89810224BD3F89C20214B10
:10383000D3F884301D931C921B911A9019941895FB
:1038400017967C681694B8681590FB6814933969CC
:1038500013917A691292BE691196FD6910953C6ABE
:103860000F94786A0E90BB6A0D93F96A0C913A6BCB
:103870000B927E6B0A96BD6B0995FC6B0894386CB5
:1038800007907B6C0693B96C0591FA6C04923E6DBF
:1038900003967D6D0295BC6D0194F86D00903B6EB2
:1038A0007A6E054905480BF007FA00BF6C37BD4634
:1038B000F0BD00BF345A0020D43A0108C45D002096
:1038C000F0B5B9B01EAF534B1B687B66514BD9693D
:1038D0003966504B186AF8654E4B9C69BC654D4B78
:1038E0005D687D654B4B9E683E654A4B1A69FA647C
:1038F000484B5969B964474BDB687B64454B586A50
:103900003864444B9C6AFC63424B1D6BBD63414B66
:10391000DE6A7E633F4BD3F894203A633D4BD96F08
:10392000F9623C4BD3F88030BB623A4BD86E786278
:10393000384B1C6F3C62374B5D6FFD61354B9E6FA2
:10394000BE61344BD3F884207A61324BD3F88810AF
:103950003961304BD3F88C30FB602E4BD3F890009C
:10396000B8602C4BD3F8B0407C602A4BD3F8B460DD
:10397000284BD3F8B850274BD3F8BC40254BD3F88D
:10398000A000244BD3F8A410224BD3F8A820214B3D
:10399000D3F8AC301D931C921B911A901994189572
:1039A00017967C681694B8681590FB68149339696B
:1039B00013917A691292BE691196FD6910953C6A5D
:1039C0000F94786A0E90BB6A0D93F96A0C913A6B6A
:1039D0000B927E6B0A96BD6B0995FC6B0894386C54
:1039E00007907B6C0693B96C0591FA6C04923E6D5E
:1039F00003967D6D0295BC6D0194F86D00903B6E51
:103A00007A6E054905480BF057F900BF6C37BD4683
:103A1000F0BD00BF345A0020E83C0108C45D00201E
:103A2000F0B58BB008AF124B1B687B60104B596828
:103A300039600F4B9B680E4AD2680D4909690C48E2
:103A400040690B4CA4690A4DED69094E366A069629
:103A50000595049403900291019200933B687A6863
:103A6000044905480BF028F900BF0C37BD46F0BDEE
:103A7000705C0020903E0108C45D0020F0B59FB04E
:103A800010AFF8620023FB86FEF7B0FC00224FF473
:103A900080714FF0904003F05BFAFDF7B9FFFDF73E
:103AA00027FFA54800F008FEA34B1B681A68A24B2D
:103AB0001B6842F010021A607F22A0499E4805F060
:103AC000F7FDFEF753FB7F219D4802F067FA322095
:103AD00007F0B5F908229B49994801F037FC0346E5
:103AE000002B40F05D8301224FF40041964803F023
:103AF0002FFA01224FF48041934803F029FA012262
:103B00004FF40051904803F023FA01224FF4805102
:103B10008D4803F01DFAFFF7F5FD8C48FCF758FBC4
:103B20000346FB86FB8E1A468849834805F030FD24
:103B3000052007F084F900224FF40041824803F089
:103B400007FA00224FF480417F4803F001FA002277
:103B50004FF400517C4803F0FBF900224FF48051F0
:103B6000794803F0F5F9FEF7BBFA794B1B7803F0BF
:103B70000103DBB21A464FF40041734803F0E8F941
:103B8000734B1B7803F00203DBB21A464FF48041FB
:103B90006D4803F0DDF96E4B1B7803F00403DBB2D4
:103BA0001A464FF40051684803F0D2F9684B1B786D
:103BB00003F00803DBB21A464FF48051624803F069
:103BC000C7F9322007F03BF900224FF400415E486C
:103BD00003F0BEF900224FF480415B4803F0B8F9CE
:103BE00000224FF40051584803F0B2F900224FF47C
:103BF0008051554803F0ACF9FFF7BCFD5348FCF782
:103C0000E7FA0346FB86FB8E1A4650494A4805F000
:103C1000BFFC142007F013F9FFF702FF4B48FCF735
:103C2000D7FA0346FB86FB8E1A464849424805F000
:103C3000AFFC484B1B686421184607F0ADF9464BB2
:103C40000022C3F89420444B0022DA67434B012240
:103C5000DA62424B01225A62404B01221A64404B05
:103C60004FF4AF72DA605A2007F0E9F800224FF4FF
:103C700080714FF0904003F06BF902E0022007F0F2
:103C8000DEF8384B1B68002BF8D0374B1B68032B32
:103C900005D1354B02221A60FFF712FEEAE0324BE3
:103CA0001B68022B34D1304B01221A602F4BDB6989
:103CB000BB622E4B196A79622C4B9B692B4A1268A6
:103CC0002A4949682948C0683862284C2469274D28
:103CD000AD68264E766D2048D0F8A000F8612348E4
:103CE000806DB8612148C06D0990B8690890F86985
:103CF0000790069605950494386A03900291019204
:103D000000937B6ABA6A1A4910480AF0D5FFB1E0FD
:103D1000154B1B68042B05D1FFF72CFD124B00221D
:103D20001A60A7E0104B1B68052B23D1FFF7EAFCB4
:103D30000D4B00221A609DE0EC5B0020405D0020EE
:103D4000405B0020CC61002000040048C45D0020DE
:103D50009C590020C05D0020345A0020C459002026
:103D6000A05900206802002064020020985C002016
:103D70002C3F0108794B1B68012B51D1774B002256
:103D80001A60774BDB68BB62754B99687962744B3C
:103D90005D68734B1E68734B1B783B62724B1868EF
:103DA000F861724B1C68BC61714B1A687A61714B87
:103DB000196939616F4B5869F8606E4B9C69BC603A
:103DC0006C4B1B687B606B4B5A683A60694B9C6814
:103DD000684BD868684B1968684B1A68684B1B6851
:103DE0000F930E920D910C900B943A680A927B6897
:103DF0000993BC680894F8680790396906917A6954
:103E00000592BC690494F8690390386A029001969F
:103E100000957B6ABA6A5B495B480AF04DFF29E06E
:103E20004E4B1B683E2B0BD1FFF7FAFD4B4B1B682B
:103E3000002B1FD0494B1B68013B484A136019E017
:103E4000464B1B683C2B09D1444B1B68002B11D0FF
:103E5000424B1B68013B414A13600BE03F4B1B6820
:103E6000002B04D03D4B1B68013B3C4A1360464B82
:103E700000221A704448FCF7ABF90346023B424A61
:103E80001344424918460AF017FF414B1B68002BA8
:103E90000ED03D48FCF79CF903463B4A13443D498C
:103EA00018460AF009FFFDF743FE394B00221A605D
:103EB0002C4B1B78062B3ED82E4B5B69322B05D939
:103EC000284B07221A70FEF7A9FA4CE1294B5A68D1
:103ED000314B1B6803F5A0739A4204D8254B9B68AD
:103EE000B3F5DA7F17D3234B9B68B3F5A57F12D9BF
:103EF0002548FCF76DF90346234A13442749184621
:103F00000AF0DAFE244B00221A60FFF7CBF8244BAC
:103F10000122DA6327E11C48FCF75AF903461A4AE2
:103F20001344204918460AF0C7FE1B4B46221A606C
:103F3000FFF79CFA17E10B4B1B78062B40F2F2803F
:103F4000084B1B780D2B00F2ED800A4B9B69322B3E
:103F50002AD9044B00221A7005E100BF6402002038
:103F6000245A00209C5900204C02002048020020C6
:103F700050020020A0590020540200201000002010
:103F800014000020D83F0108C45D00208C400108C7
:103F900060020020944001080C00002098400108B5
:103FA000C45900209C4001087F4B5A687F4B1B6816
:103FB00003F5A0739A4205D87B4B9B68B3F5DA7F73
:103FC000C0F09E80784B9B68B3F5A57F40F2988047
:103FD0007748FCF7FDF80346754A134475491846BF
:103FE0000AF06AFE714B00221A60734B0122DA63F9
:103FF0006D4BDA68714B1B6803F289139A421ED22B
:10400000694BDB680F2B1AD96948FCF7E1F80346C6
:10401000674A13446A4918460AF04EFEFEF776F9DD
:10402000FEF7FCF9654B12221A60634B01221A60FD
:10403000614B00229A62604B01229A6570E05C48F5
:10404000FCF7C6F803465A4A13445E4918460AF07C
:1040500033FEFEF7CBF9FEF799F9574B01221A62AE
:10406000564B00221A60504BDA68544B1B6803F21F
:1040700089139A4254D94E48FCF7AAF803464C4A91
:104080001344514918460AF017FE504BD3F89430A8
:104090004E4AC2F88030484B1B6B002B18D1464B60
:1040A0009B6A002B14D04248FCF792F80346404A22
:1040B0001344474918460AF0FFFD3B4BDB68434A6F
:1040C000C2F89C303C4B01221A633B4B0022DA625F
:1040D000394B9B6A002B23D13548FCF779F803460E
:1040E000334A13443B4918460AF0E6FD324B01229D
:1040F0009A62314B00225A62344B0022DA670FE099
:104100002B48FCF765F80346294A13443249184600
:104110000AF0D2FD254B46221A60FFF7A7F922E0EC
:1041200000BF20E02D4B1B780E2B0CD11E4B5B6982
:10413000322B05D9294B07221A70FEF76FF912E0CE
:10414000FEF7B0FF0FE0254B1B780F2B0BD1164B62
:104150005B69322B05D9214B07221A70FEF75EF9F5
:1041600001E0FFF7F9F81248FCF732F80346104A6D
:1041700013441B4918460AF09FFD0D48FCF728F828
:104180000346FB86FB8EB3F5806F02D340F2FF330C
:10419000FB86FB8E1A460649124805F0F9F962E5DE
:1041A00000BF3C37BD46F0BDA05900200C000020E8
:1041B000C45D0020A0400108C4590020580200201E
:1041C000A4400108A8400108AC400108345A00206E
:1041D000B0400108B4400108B84001089C590020D3
:1041E000C0400108EC5B002080B584B000AF78606F
:1041F000674B1B68002B05D0654B1B68013B644A6D
:10420000136059E0624B00221A60624B1B68013355
:10421000604A1360FDF79AFA5F4B1B68002B02D1CE
:104220005D4B02221A605D4B1B68002B05D05B4B77
:104230001B68013B594A13603EE0584B16221A6036
:10424000544B5B680133534A5360524B00221A604F
:10425000FDF746FF504B03221A60514B1B68002BA1
:1042600005D04F4B1B68013B4D4A136024E0FDF71E
:1042700075FE4B4B02221A60464B9B680133454A40
:104280009360444B00225A60464B01221A60464B11
:104290001B68002B05D0444B1B68013B424A13604E
:1042A0000AE0414B05221A603A4BDB680133394A78
:1042B000D360384B00229A60FDF706FD3B4800F0C2
:1042C000E1FF3B4B1B681846FEF78EF9F860394B4F
:1042D0005B681A46FB68934207D9364B5B681A46FF
:1042E000FB689B1A344A136002E0334B00221A60C9
:1042F0002F4B5B681846FEF777F9F8602D4B9B68EB
:104300001A46FB68934207D92A4B9B681A46FB68FA
:104310009B1A294A536002E0274B00225A60244B23
:104320009B681846FEF700F90346234A9360204B2A
:10433000DB681846FEF7F8F803461F4AD3601C4BAB
:104340001B691846FEF77CF803461B4A1361184B9D
:104350005B691846FEF774F80346174A5361144B1D
:104360009B691846FEF76CF80346134A93614FF4B5
:104370000071124802F0D4FD03461A46104B1A6031
:10438000104B01221A6000BF1037BD4680BD00BF30
:1043900044020020245A0020640200200000002073
:1043A000040000206002002008000020405B002084
:1043B000CC610020705C0020A0590020000400485F
:1043C000540200206802002080B582B000AF7860FF
:1043D0007B681B68044A934201D100F0FDFB00BFDB
:1043E0000837BD4680BD00BF0010004080B400AF5C
:1043F00072B600BFFEE7000080B582B000AF114B7F
:104400001B6E104A43F0010313660E4B1B6E03F044
:1044100001037B607B680B4B9B6D0A4A43F0805322
:104420009365084B9B6D03F080533B603B68002213
:104430000F216FF0010001F0C9FE00BF0837BD4633
:1044400080BD00BF0010024080B5A2B000AF786010
:1044500007F1740300221A605A609A60DA601A61E8
:1044600007F118035C220021184609F0C8FC7B689C
:104470001B683F4A934277D14FF48043BB614FF0B2
:104480004053BB6607F11803184603F05FFC034670
:10449000002B01D0FFF7AAFF364BDB6C354A43F403
:1044A0000053D364334BDB6C03F400537B617B69B3
:1044B000304BDB6C2F4A43F00403D3642D4BDB6C91
:1044C00003F004033B613B692A4BDB6C294A43F050
:1044D0000103D364274BDB6C03F00103FB60FB6833
:1044E0000F237B670B23BB670023FB6707F1740374
:1044F0001946214802F09AFB07237B670B23BB6711
:104500000023FB6707F1740319464FF0904002F057
:104510008DFB1A4B1A4A1A60184B00225A60174B2F
:1045200000229A60154B0022DA60144B80221A6137
:10453000124B4FF400725A61104B4FF400629A61B3
:104540000E4B2022DA610D4B00221A620B4801F05B
:1045500067FE0346002B01D0FFF748FF7B68074A40
:10456000DA64064A7B68936200BF8837BD4680BD27
:10457000000004500010024000080048F85C0020D1
:104580000800024080B485B000AF78607B681B688B
:10459000B3F1804F0BD1094B9B6D084A43F00103E7
:1045A0009365064B9B6D03F00103FB60FB6800BF46
:1045B0001437BD465DF8047B704700BF0010024011
:1045C00080B485B000AF78607B681B680A4A93426C
:1045D0000BD10A4B1B6E094A43F400331366074B99
:1045E0001B6E03F40033FB60FB6800BF1437BD464D
:1045F0005DF8047B704700BF00440140001002409A
:1046000080B58AB000AF786007F1140300221A6009
:104610005A609A60DA601A617B681B68B3F1804F58
:104620001DD1224BDB6C214A43F00103D3641F4BA5
:10463000DB6C03F001033B613B6920237B610223B8
:10464000BB610023FB6100233B6201237B6207F116
:10465000140319464FF0904002F0E8FA21E07B681D
:104660001B68134A93421CD1104BDB6C0F4A43F07A
:104670000203D3640D4BDB6C03F00203FB60FB68A9
:104680004FF480737B610223BB610023FB61002335
:104690003B620E237B6207F114031946054802F0C2
:1046A000C5FA00BF2837BD4680BD00BF00100240DC
:1046B000004401400004004880B5A0B000AF78601D
:1046C00007F16C0300221A605A609A60DA601A617E
:1046D00007F110035C220021184609F090FB7B686B
:1046E0001B68564A934240F0A48001233B6100239B
:1046F0003B6307F11003184603F028FB0346002B29
:1047000001D0FFF773FE4E4B1B6E4D4A43F48043BE
:1047100013664B4B1B6E03F48043FB60FB68484BF6
:10472000DB6C474A43F00103D364454BDB6C03F079
:104730000103BB60BB684FF40073FB6602233B6759
:1047400000237B670223BB670723FB6707F16C032A
:1047500019464FF0904002F069FA4FF48063FB660F
:1047600002233B6701237B670223BB670723FB67A9
:1047700007F16C0319464FF0904002F057FA314BA5
:10478000314A1A602F4B02225A602E4B00229A6047
:104790002C4B0022DA602B4B80221A61294B00221D
:1047A0005A61284B00229A61264B2022DA61254B60
:1047B00000221A62234801F033FD0346002B01D08A
:1047C000FFF714FE7B681F4A1A671E4A7B689362D4
:1047D0001E4B1F4A1A601D4B02225A601B4B1022AF
:1047E0009A601A4B0022DA60184B80221A61174B2C
:1047F00000225A61154B00229A61144B0022DA61A3
:10480000124B00221A62114801F00AFD0346002BE8
:1048100001D0FFF7EBFD7B680C4ADA660B4A7B6838
:10482000936200220521252001F0D0FC252001F013
:10483000E9FC00BF8037BD4680BD00BF00380140A5
:1048400000100240A45B002080040240F45A0020C3
:104850006C04024080B58CB000AF78600023FB622E
:104860000023BB6200227968362001F0AFFC3620BD
:1048700001F0C8FC1E4B9B6D1D4A43F0100393656D
:104880001B4B9B6D03F01003FB60FB6807F11002EC
:1048900007F114031146184603F0C6F903F098F91E
:1048A000F862FB6A134AA2FB03239B0C013BBB6229
:1048B000114B124A1A60104B40F2E732DA600E4A8E
:1048C000BB6A53600C4B00221A610B4B00229A60AA
:1048D000094803F045FD0346002B04D1064803F0C8
:1048E00097FD034600E0012318463037BD4680BDE2
:1048F0000010024083DE1B4348630020001000408C
:1049000080B400AFFEE780B400AFFEE780B400AF34
:10491000FEE780B400AFFEE780B400AFFEE780B4EE
:1049200000AF00BFBD465DF8047B704780B500AFA7
:10493000024801F00CFE00BF80BD00BFF85C002003
:1049400080B500AF074804F09BFF064B1B68DB698E
:1049500003F01003102B02D10248FEF7C7F900BF85
:1049600080BD00BFEC5B002080B500AF024803F0C3
:1049700061FF00BF80BD00BF4863002080B500AF6D
:10498000024801F0E4FD00BF80BD00BFF45A0020E2
:1049900080B500AF024801F0DAFD00BF80BD00BF66
:1049A000A45B002080B400AF01231846BD465DF82B
:1049B000047B704780B582B000AF7860396009F041
:1049C000EDF8034616221A604FF0FF3318460837F9
:1049D000BD4680BD80B582B000AF78604FF0FF313A
:1049E0007868FFF7E7FFFEE780B586B000AFF860B4
:1049F000B9607A6000237B610AE0AFF30080014672
:104A0000BB685A1CBA60CAB21A707B6901337B61F9
:104A10007A697B689A42F0DB7B6818461837BD4696
:104A200080BD80B586B000AFF860B9607A600023C1
:104A30007B6109E0BB685A1CBA601B781846AFF36B
:104A400000807B6901337B617A697B689A42F1DB84
:104A50007B6818461837BD4680BD80B483B000AF70
:104A600078604FF0FF3318460C37BD465DF8047B85
:104A7000704780B483B000AF786039603B684FF412
:104A800000525A60002318460C37BD465DF8047B7F
:104A9000704780B483B000AF7860012318460C37AC
:104AA000BD465DF8047B704780B485B000AFF86008
:104AB000B9607A60002318461437BD465DF8047B60
:104AC0007047000080B586B000AF7860144A154B7F
:104AD000D31A7B617B693B61134B1B68002B02D1AE
:104AE000114B124A1A60104B1A687B6813443A69DA
:104AF0009A4207D209F052F803460C221A604FF08E
:104B0000FF3309E0084B1B68FB60074B1A687B68A2
:104B10001344054A1360FB6818461837BD4680BD2C
:104B200000000120000400006C020020E863002067
:104B300080B400AF064BD3F88830054A43F47003C5
:104B4000C2F8883000BFBD465DF8047B704700BFE7
:104B500000ED00E0DFF834D0FFF7EAFF0C480D4924
:104B60000D4A002302E0D458C4500433C4188C42C8
:104B7000F9D30A4A0A4C002301E013600432A2422E
:104B8000FBD309F007F9FDF777FDFEE700000120F0
:104B900000000020200200206046010820020020C2
:104BA000E8630020FEE780B582B000AF0023FB7110
:104BB000032001F000FB0F20FFF74CFE0346002B03
:104BC00002D00123FB7101E0FFF716FCFB791846C8
:104BD0000837BD4680BD000080B400AF064B1B788F
:104BE0001A46064B1B681344044A136000BFBD46B7
:104BF0005DF8047B704700BF200000209463002014
:104C000080B400AF034B1B681846BD465DF8047BBB
:104C1000704700BF9463002080B483B000AF786019
:104C200039607B689B6823F47C123B681A437B687D
:104C30009A6000BF0C37BD465DF8047B704780B4B6
:104C400083B000AF786039607B689B6823F0E072C6
:104C50003B681A437B689A6000BF0C37BD465DF81D
:104C6000047B704780B483B000AF78607B689B683A
:104C700003F0E07318460C37BD465DF8047B7047BF
:104C800080B487B000AFF860B9607A603B60FB68C1
:104C900060331A46BB689B0013447B617B691A68CA
:104CA000084B13407A6802F0F8413A680A4313430C
:104CB00043F000427B691A6000BF1C37BD465DF8B7
:104CC000047B704700F0FF0380B485B000AF7860CC
:104CD00039607B6860331A463B689B001344FB6075
:104CE000FB681B6803F0F84318461437BD465DF8AF
:104CF000047B704780B487B000AFF860B9607A6019
:104D0000FB6860331A46BB689B0013447B617B6978
:104D10001B6823F000427B681A437B691A6000BF5E
:104D20001C37BD465DF8047B704780B483B000AF8C
:104D300078607B68DB6803F44063002B01D10123BA
:104D400000E0002318460C37BD465DF8047B704731
:104D500080B487B000AFF860B9607A60FB68303328
:104D60001A46BB681B0A9B0003F00C0313447B61CB
:104D70007B691A68BB6803F01F031F2101FA03F364
:104D8000DB431A407B689B0E03F01F01BB6803F0F6
:104D90001F0301FA03F31A437B691A6000BF1C3733
:104DA000BD465DF8047B704780B487B000AFF86003
:104DB000B9607A60FB6814331A46BB685B0E9B00CF
:104DC00003F0040313447B617B691A68BB681B0D05
:104DD00003F01F03072101FA03F3DB431A40BB680A
:104DE0001B0D03F01F03796801FA03F31A437B6973
:104DF0001A6000BF1C37BD465DF8047B7047000099
:104E000080B485B000AFF860B9607A60FB68D3F811
:104E1000B020BB68C3F31203DB431A407B6803F086
:104E200018030849D940BB680B40C3F312031A4367
:104E3000FB68C3F8B02000BF1437BD465DF8047BA3
:104E4000704700BFFFFF070080B483B000AF7860F9
:104E50007B689B6823F0204323F03F037A689360CC
:104E600000BF0C37BD465DF8047B704780B483B04B
:104E700000AF78607B689B6803F00053B3F1005F7C
:104E800001D1012300E0002318460C37BD465DF830
:104E9000047B704780B483B000AF78607B689B6808
:104EA00023F0104323F03F0343F080527B689A6065
:104EB00000BF0C37BD465DF8047B704780B483B0FB
:104EC00000AF78607B689B6803F08053B3F1805F2C
:104ED00001D1012300E0002318460C37BD465DF8E0
:104EE000047B704780B483B000AF78607B689B68B8
:104EF00023F0004323F03F0343F001027B689A60F4
:104F000000BF0C37BD465DF8047B704780B483B0AA
:104F100000AF78607B689B6823F0004323F03F0379
:104F200043F002027B689A6000BF0C37BD465DF813
:104F3000047B704780B483B000AF78607B689B6867
:104F400003F00103012B01D1012300E000231846E7
:104F50000C37BD465DF8047B704780B483B000AF6A
:104F600078607B689B6803F00203022B01D1012368
:104F700000E0002318460C37BD465DF8047B7047FF
:104F800080B483B000AF78607B689B6823F00043F7
:104F900023F03F0343F004027B689A6000BF0C37A4
:104FA000BD465DF8047B704780B483B000AF786085
:104FB0007B689B6803F00403042B01D1012300E00C
:104FC000002318460C37BD465DF8047B704780B45B
:104FD00083B000AF78607B689B6803F00803082B00
:104FE00001D1012300E0002318460C37BD465DF8CF
:104FF000047B704780B588B000AF78600023FB77F2
:105000000023BB607B68002B01D101232CE17B686E
:105010001B69002B7B685B6D002B09D17868FFF75B
:1050200013FA7B6800229A657B68002283F850207F
:105030007B681B681846FFF719FF0346002B04D056
:105040007B681B681846FFF7FFFE7B681B681846E5
:10505000FFF734FF0346002B15D17B681B68184609
:10506000FFF718FF824B1B689B09824AA2FB0323B0
:105070009B0901335B00BB6002E0BB68013BBB6086
:10508000BB68002BF9D17B681B681846FFF716FF39
:105090000346002B0DD17B685B6D43F010027B68EB
:1050A0005A657B689B6D43F001027B689A6501231A
:1050B000FB777B681B681846FFF776FF78617B6893
:1050C0005B6D03F01003002B40F0C5807B69002B63
:1050D00040F0C1807B685B6D23F4817343F0020272
:1050E0007B685A657B681B681846FFF723FF0346F9
:1050F000002B0BD16048FFF71DFF0346002B05D1A5
:105100007B685B6819465D48FFF786FD7B685B7EC0
:105110005A037B685B6B1A437B68DB681A437B68C6
:105120009B681A437B6893F820301B041343BB61D0
:105130007B6893F82030012B06D17B685B6A013BCA
:105140005B04BA691343BB617B689B6A002B09D07F
:105150007B689B6A03F470727B68DB6A1343BA69ED
:105160001343BB617B681B68DA68454B13407A6860
:105170001268B9690B43D3607B681B681846FFF758
:1051800013FF38617B681B681846FFF720FFF86043
:105190003B69002B3DD1FB68002B3AD17B681B7E1D
:1051A0009A037B6893F830305B001343BB617B68E4
:1051B0001B68DB6823F4804323F002037A681268DB
:1051C000B9690B43D3607B6893F83830012B18D151
:1051D0007B681B681B6923F4FF6323F004037A6870
:1051E000D16B7A68126C11437A68526C11437A68F9
:1051F000926C0A431A437B681B6842F001021A61F1
:1052000007E07B681B681A697B681B6822F0010253
:105210001A617B681B69012B0CD17B681B681B6BB7
:1052200023F00F017B68DB695A1E7B681B680A4309
:105230001A6307E07B681B681A6B7B681B6822F0A7
:105240000F021A637B685B6D23F0030343F00102D6
:105250007B685A6507E07B685B6D43F010027B68F2
:105260005A650123FB77FB7F18462037BD4680BD7A
:1052700018000020632D3E05000004500003045078
:1052800007C0F0FF80B584B000AF78607B681B6812
:105290001846FFF789FE0346002B4FD17B6893F831
:1052A0005030012B01D102234BE07B68012283F8AF
:1052B0005020786800F0CCFC0346FB73FB7B002B8E
:1052C00037D17B685B6D23F4706323F0010343F4F3
:1052D00080727B685A657B685B6D03F48053B3F51D
:1052E000805F06D17B689B6D23F006027B689A6520
:1052F00002E07B6800229A657B681B681C221A60AA
:105300007B68002283F850207B681B68DB6803F011
:105310000073002B07D07B685B6D23F4405343F48C
:1053200080527B685A657B681B681846FFF728FE29
:1053300006E07B68002283F8502001E00223FB7323
:10534000FB7B18461037BD4680BD000080B586B097
:1053500000AFF860B9607A60FB681B681846FFF719
:1053600023FE0346002B67D1FB6893F85030012BD6
:1053700001D1022363E0FB68012283F85020F86822
:1053800000F066FC0346FB75FB7D002B4FD1FB68EC
:105390005B6D23F4706323F0010343F48072FB68B8
:1053A0005A65FB685B6D03F48053002B06D0FB68E5
:1053B0009B6D23F00602FB689A6502E0FB68002201
:1053C0009A65FB68DB6C204ADA62FB68DB6C1F4A7B
:1053D0001A63FB68DB6C1E4A5A63FB681B681C225D
:1053E0001A60FB68002283F85020FB681B685A682B
:1053F000FB681B6842F010025A60FB681B68DA68A1
:10540000FB681B6842F00102DA60FB68D86CFB683D
:105410001B6840331946BA687B6800F0B9FF034641
:10542000FB75FB681B681846FFF7AAFD06E0FB68E2
:10543000002283F8502001E00223FB75FB7D184613
:105440001837BD4680BD00BF1B5E0008F35E000834
:105450000F5F000880B483B000AF786000BF0C37E6
:10546000BD465DF8047B704780B483B000AF7860C0
:1054700000BF0C37BD465DF8047B704780B483B035
:1054800000AF786000BF0C37BD465DF8047B704705
:1054900080B5B6B000AF78603960002387F8D730A8
:1054A0000023FB607B6893F85030012B01D102236D
:1054B000B9E37B68012283F850207B681B6818469B
:1054C000FFF772FD0346002B40F09E833B685B684C
:1054D000052B24D83B685B68023B032B1BD801A239
:1054E00052F823F0F5540008FD5400080555000853
:1054F0000D5500083B680C225A6011E03B681222EF
:105500005A600DE03B6818225A6009E03B684FF48E
:1055100080725A6004E03B6806225A6000E000BFD7
:105520007B6818683B6859683B681B681A46FFF738
:105530000FFC7B681B681846FFF736FDC7F8D000E4
:105540007B681B681846FFF742FDC7F8CC00D7F808
:10555000D030002B40F0A681D7F8CC30002B40F0A3
:10556000A1817B6818683B6819683B689B681A468C
:10557000FFF71AFC3B685A697B681B68DB68DB082D
:1055800003F003035B0002FA03F3C7F8C8303B687B
:105590001B69042B0AD07B6818683B6819693B6853
:1055A0001A68D7F8C830FFF76BFB7BE17B681B6894
:1055B00000211846FFF788FB0346C3F31203002BB4
:1055C0000AD17B681B6800211846FFF77DFB034664
:1055D0009B0E03F01F021EE07B681B68002118462B
:1055E000FFF772FB0346C7F8BC30D7F8BC3093FA1C
:1055F000A3F3C7F8B830D7F8B830C7F8C030D7F839
:10560000C030002B01D1202304E0D7F8C030B3FA1A
:1056100083F3DBB21A463B681B68C3F31203002B0B
:1056200005D13B681B689B0E03F01F0318E03B6825
:105630001B68C7F8B030D7F8B03093FAA3F3C7F8B7
:10564000AC30D7F8AC30C7F8B430D7F8B430002B52
:1056500001D1202304E0D7F8B430B3FA83F3DBB2EE
:105660009A4206D17B681B68002200211846FFF78A
:1056700041FB7B681B6801211846FFF725FB0346A9
:10568000C3F31203002B0AD17B681B680121184663
:10569000FFF71AFB03469B0E03F01F021EE07B6818
:1056A0001B6801211846FFF70FFB0346C7F8A4301B
:1056B000D7F8A43093FAA3F3C7F8A030D7F8A030F6
:1056C000C7F8A830D7F8A830002B01D1202304E078
:1056D000D7F8A830B3FA83F3DBB21A463B681B68ED
:1056E000C3F31203002B05D13B681B689B0E03F02C
:1056F0001F0318E03B681B68C7F89830D7F898304C
:1057000093FAA3F3C7F89430D7F89430C7F89C30D5
:10571000D7F89C30002B01D1202304E0D7F89C302F
:10572000B3FA83F3DBB29A4206D17B681B6800228E
:1057300001211846FFF7DEFA7B681B680221184634
:10574000FFF7C2FA0346C3F31203002B0AD17B68AA
:105750001B6802211846FFF7B7FA03469B0E03F0B9
:105760001F021EE07B681B6802211846FFF7ACFA97
:105770000346C7F88C30D7F88C3093FAA3F3C7F8F8
:105780008830D7F88830C7F89030D7F89030002BA1
:1057900001D1202304E0D7F89030B3FA83F3DBB2D1
:1057A0001A463B681B68C3F31203002B05D13B6804
:1057B0001B689B0E03F01F0316E03B681B68C7F8CD
:1057C0008030D7F8803093FAA3F3FB67FB6FC7F8FC
:1057D0008430D7F88430002B01D1202304E0D7F89F
:1057E0008430B3FA83F3DBB29A4206D17B681B683C
:1057F000002202211846FFF77DFA7B681B6803210F
:105800001846FFF761FA0346C3F31203002B0AD1CF
:105810007B681B6803211846FFF756FA03469B0E68
:1058200003F01F0217E07B681B6803211846FFF78F
:105830004BFA03467B677B6F93FAA3F33B673B6F9F
:10584000BB67BB6F002B01D1202303E0BB6FB3FA12
:1058500083F3DBB21A463B681B68C3F31203002BC9
:1058600005D13B681B689B0E03F01F0311E03B68EA
:105870001B68BB66BB6E93FAA3F37B667B6EFB660D
:10588000FB6E002B01D1202303E0FB6EB3FA83F300
:10589000DBB29A4206D17B681B68002203211846BE
:1058A000FFF728FA7B681B681846FFF743FB03469F
:1058B000002B40F03F817B6818683B6819683B68A3
:1058C000DB681A46FFF79CFA3B68DB688E4A934216
:1058D00040F030817B6818683B681B68C3F3120393
:1058E000002B0BD13B681B689B0E013303F01F0399
:1058F000092B94BF01230023DBB219E03B681B682E
:10590000FB65FB6D93FAA3F3BB65BB6D3B663B6E1A
:10591000002B01D1202303E03B6EB3FA83F3DBB20B
:10592000013303F01F03092B94BF01230023DBB2D3
:10593000002B79D03B681B68C3F31203002B07D1FF
:105940003B681B689B0E01339B0603F0F84215E091
:105950003B681B683B653B6D93FAA3F3FB64FB6CF0
:105960007B657B6D002B01D1202303E07B6DB3FAB7
:1059700083F3DBB201339B0603F0F8423B681B68FC
:10598000C3F31203002B09D13B681B689B0E013344
:1059900003F01F03012101FA03F317E03B681B68C2
:1059A0007B647B6C93FAA3F33B643B6CBB64BB6C82
:1059B000002B01D1202303E0BB6CB3FA83F3DBB2ED
:1059C000013303F01F03012101FA03F342EA03014B
:1059D0003B681B68C3F31203002B0AD13B681B68AA
:1059E0009B0E013303F01F0213465B0013441B059B
:1059F00018E03B681B68BB63BB6B93FAA3F37B6344
:105A00007B6BFB63FB6B002B01D1202303E0FB6B63
:105A1000B3FA83F3DBB2013303F01F0213465B00DA
:105A200013441B050B4380E03B681B68C3F3120360
:105A3000002B07D13B681B689B0E01339B0603F0CC
:105A4000F84215E03B681B68FB62FB6A93FAA3F31C
:105A5000BB62BB6A3B633B6B002B01D1202303E09D
:105A60003B6BB3FA83F3DBB201339B0603F0F842DE
:105A70003B681B68C3F31203002B09D13B681B680A
:105A80009B0E013303F01F03012101FA03F317E01A
:105A90003B681B683B623B6A93FAA3F3FB61FB69BB
:105AA0007B627B6A002B01D1202303E07B6AB3FA7F
:105AB00083F3DBB2013303F01F03012101FA03F387
:105AC00042EA03013B681B68C3F31203002B0DD1AC
:105AD0003B681B689B0E013303F01F0213465B00FB
