:020000040800F2
:1000000000000120214D0008DD4B0008E14B0008F5
:10001000E54B0008E94B0008ED4B0008000000002C
:10002000000000000000000000000000B1A900086E
:10003000F14B00080000000051AA0008B188000838
:10004000714D0008714D0008714D0008714D000898
:10005000714D0008714D0008714D0008714D000888
:10006000714D0008714D0008714D0008F54B0008F6
:10007000714D0008714D0008714D0008714D000868
:10008000714D0008714D0008714D0008714D000858
:10009000714D0008714D0008714D0008714D000848
:1000A000714D0008714D0008714D0008714D000838
:1000B000714D00080000000000000000714D0008B4
:1000C000714D0008714D0008714D0008714D000818
:1000D000714D0008014C0008714D0008714D000879
:1000E000714D0008714D0008000000000000000084
:1000F0000000000000000000000000000000000000
:1001000000000000714D000800000000714D000863
:100110000000000000000000254C0008714D0008A0
:10012000714D0008714D0008714D0008714D0008B7
:10013000714D0008000000000000000000000000F9
:10014000714D0008714D0008714D0008000000005D
:10015000314C00083D4C0008714D0008714D0008FD
:10016000714D0008714D0008714D0008000000003D
:10017000714D0008714D00080000000000000000F3
:0C018000714D0008714D0008714D000821
:1001900010B5054C237833B9044B13B10448AFF3C1
:1001A00000800123237010BD200200200000000009
:1001B0001408010808B5034B1BB103490348AFF30A
:1001C000008008BD0000000024020020140801087F
:1001D000034613F8012B002AFBD1181A0138704787
:1001E00001F0FF01102A2BDB10F0070F08D010F8E8
:1001F000013B013A8B422DD010F0070F42B3F6D1EC
:10020000F0B441EA012141EA014122F007047FF004
:1002100000070023F0E80256083C85EA010586EA5B
:10022000010685FA47F5A3FA87F586FA47F6A5FA97
:1002300087F68EB9EED1F0BC01F0FF0102F00702A3
:1002400032B110F8013B013A83EA010313B1F8D14E
:100250000020704701387047002D06BF354603382F
:10026000073815F0010F07D1013015F4807F02BF68
:10027000013015F4C03F0130F0BC0138704700BFB9
:1002800081F0004102E000BF83F0004330B54FEA47
:1002900041044FEA430594EA050F08BF90EA020FB4
:1002A0001FBF54EA000C55EA020C7FEA645C7FEA47
:1002B000655C00F0E2804FEA5454D4EB5555B8BF6A
:1002C0006D420CDD2C4480EA020281EA030382EADB
:1002D000000083EA010180EA020281EA0303362D6D
:1002E00088BF30BD11F0004F4FEA01314FF4801C40
:1002F0004CEA113102D0404261EB410113F0004F52
:100300004FEA03334CEA133302D0524263EB430308
:1003100094EA050F00F0A780A4F10104D5F1200EA6
:100320000DDB02FA0EFC22FA05F2801841F1000101
:1003300003FA0EF2801843FA05F359410EE0A5F1D5
:1003400020050EF1200E012A03FA0EFC28BF4CF006
:10035000020C43FA05F3C01851EBE37101F00045BC
:1003600007D54FF0000EDCF1000C7EEB00006EEBC9
:100370000101B1F5801F1BD3B1F5001F0CD3490853
:100380005FEA30004FEA3C0C04F101044FEA4452AA
:1003900012F5800F80F09A80BCF1004F08BF5FEA31
:1003A000500C50F1000041EB045141EA050130BD11
:1003B0005FEA4C0C404141EB0101013C28BFB1F523
:1003C000801FE9D291F0000F04BF01460020B1FA6E
:1003D00081F308BF2033A3F10B03B3F120020CDA41
:1003E0000C3208DD02F1140CC2F10C0201FA0CF01F
:1003F00021FA02F10CE002F11402D8BFC2F1200C84
:1004000001FA02F120FA0CFCDCBF41EA0C01904039
:10041000E41AA2BF01EB0451294330BD6FEA040482
:100420001F3C1CDA0C340EDC04F11404C4F120026D
:1004300020FA04F001FA02F340EA030021FA04F37F
:1004400045EA030130BDC4F10C04C4F1200220FAD6
:1004500002F001FA04F340EA0300294630BD21FA14
:1004600004F0294630BD94F0000F83F4801306BFDA
:1004700081F480110134013D4EE77FEA645C18BFCE
:100480007FEA655C29D094EA050F08BF90EA020F65
:1004900005D054EA000C04BF1946104630BD91EA5D
:1004A000030F1EBF0021002030BD5FEA545C05D160
:1004B0004000494128BF41F0004130BD14F580049F
:1004C0003CBF01F5801130BD01F0004545F0FE4113
:1004D00041F470014FF0000030BD7FEA645C1ABF48
:1004E000194610467FEA655C1CBF0B46024650EA7F
:1004F000013406BF52EA033591EA030F41F40021AB
:1005000030BD00BF90F0000F04BF0021704730B530
:100510004FF4806404F132044FF000054FF0000105
:1005200050E700BF90F0000F04BF0021704730B5C6
:100530004FF4806404F1320410F0004548BF40429B
:100540004FF000013EE700BF42004FEAE2014FEAF0
:1005500031014FEA02701FBF12F07F4393F07F4FCB
:1005600081F06051704732F07F4208BF704793F0CE
:100570007F4F04BF41F40021704730B54FF46074E1
:1005800001F0004521F000411CE700BF50EA0102E4
:1005900008BF704730B54FF000050AE050EA01028D
:1005A00008BF704730B511F0004502D5404261EBFD
:1005B00041014FF4806404F132045FEA915C3FF43E
:1005C000D8AE4FF003025FEADC0C18BF03325FEADB
:1005D000DC0C18BF033202EBDC02C2F1200300FA8C
:1005E00003FC20FA02F001FA03FE40EA0E0021FAB1
:1005F00002F11444BDE600BF70B54FF0FF0C4CF49F
:10060000E06C1CEA11541DBF1CEA135594EA0C0F50
:1006100095EA0C0F00F0DEF82C4481EA030621EA8B
:100620004C5123EA4C5350EA013518BF52EA0335C6
:1006300041F4801143F4801338D0A0FB02CE4FF078
:100640000005E1FB02E506F00042E0FB03E54FF0A8
:100650000006E1FB03569CF0000F18BF4EF0010EA0
:10066000A4F1FF04B6F5007F64F5407404D25FEA9C
:100670004E0E6D4146EB060642EAC62141EA55514F
:100680004FEAC52040EA5E504FEACE2EB4F1FD0C91
:1006900088BFBCF5E06F1ED8BEF1004F08BF5FEA0F
:1006A000500E50F1000041EB045170BD06F00046C1
:1006B00046EA010140EA020081EA0301B4EB5C046E
:1006C000C2BFD4EB0C0541EA045170BD41F4801166
:1006D0004FF0000E013C00F3AB8014F1360FDEBF8B
:1006E000002001F0004170BDC4F10004203C35DA67
:1006F0000C341BDC04F11404C4F1200500FA05F3EA
:1007000020FA04F001FA05F240EA020001F000428A
:1007100021F0004110EBD37021FA04F642EB060100
:100720005EEA430E08BF20EAD37070BDC4F10C042A
:10073000C4F1200500FA04F320FA05F001FA04F2EE
:1007400040EA020001F0004110EBD37041F10001DA
:100750005EEA430E08BF20EAD37070BDC4F12005E5
:1007600000FA05F24EEA020E20FA04F301FA05F24D
:1007700043EA020321FA04F001F0004121FA04F2F5
:1007800020EA020000EBD3705EEA430E08BF20EAC5
:10079000D37070BD94F0000F0FD101F000464000FF
:1007A00041EB010111F4801F08BF013CF7D041EA81
:1007B000060195F0000F18BF704703F00046520085
:1007C00043EB030313F4801F08BF013DF7D043EA56
:1007D0000603704794EA0C0F0CEA135518BF95EA0C
:1007E0000C0F0CD050EA410618BF52EA4306D1D193
:1007F00081EA030101F000414FF0000070BD50EAB2
:10080000410606BF1046194652EA430619D094EA3B
:100810000C0F02D150EA013613D195EA0C0F05D125
:1008200052EA03361CBF104619460AD181EA030179
:1008300001F0004141F0FE4141F470014FF0000031
:1008400070BD41F0FE4141F4780170BD70B54FF0CC
:10085000FF0C4CF4E06C1CEA11541DBF1CEA13554C
:1008600094EA0C0F95EA0C0F00F0A7F8A4EB05042E
:1008700081EA030E52EA03354FEA013100F0888025
:100880004FEA03334FF0805545EA131343EA1263EE
:100890004FEA022245EA111545EA10654FEA0026A3
:1008A0000EF000419D4208BF964244F1FD0404F55C
:1008B000407402D25B084FEA3202B61A65EB0305B8
:1008C0005B084FEA32024FF480104FF4002CB6EB75
:1008D000020E75EB030E22BFB61A754640EA0C00F5
:1008E0005B084FEA3202B6EB020E75EB030E22BF35
:1008F000B61A754640EA5C005B084FEA3202B6EB76
:10090000020E75EB030E22BFB61A754640EA9C0034
:100910005B084FEA3202B6EB020E75EB030E22BF04
:10092000B61A754640EADC0055EA060E18D04FEAC2
:10093000051545EA16754FEA06164FEAC30343EA62
:1009400052734FEAC2025FEA1C1CC0D111F4801F2F
:100950000BD141EA00014FF000004FF0004CB6E728
:1009600011F4801F04BF01430020B4F1FD0C88BFC7
:10097000BCF5E06F3FF6AFAEB5EB030C04BFB6EBD2
:10098000020C5FEA500C50F1000041EB045170BDC5
:100990000EF0004E4EEA113114EB5C04C2BFD4EBF2
:1009A0000C0541EA045170BD41F480114FF0000E76
:1009B000013C90E645EA060E8DE60CEA135594EAF2
:1009C0000C0F08BF95EA0C0F3FF43BAF94EA0C0FF5
:1009D0000AD150EA01347FF434AF95EA0C0F7FF46A
:1009E00025AF104619462CE795EA0C0F06D152EABE
:1009F00003353FF4FDAE1046194622E750EA4106A2
:100A000018BF52EA43067FF4C5AE50EA41047FF4B2
:100A10000DAF52EA43057FF4EBAE12E74FF0FF3C17
:100A200006E000BF4FF0010C02E000BF4FF0010CE8
:100A30004DF804CD4FEA410C7FEA6C5C4FEA430C61
:100A400018BF7FEA6C5C1BD001B050EA410C0CBFB0
:100A500052EA430C91EA030F02BF90EA020F002012
:100A6000704710F1000F91EA030F58BF994208BF79
:100A700090422CBFD8176FEAE37040F00100704736
:100A80004FEA410C7FEA6C5C02D150EA013C07D18D
:100A90004FEA430C7FEA6C5CD6D152EA033CD3D0D8
:100AA0005DF8040B704700BF8446104662468C46D2
:100AB0001946634600E000BF01B5FFF7B7FF002805
:100AC00048BF10F1000F01BD4DF808EDFFF7F4FF2E
:100AD0000CBF012000205DF808FB00BF4DF808EDB9
:100AE000FFF7EAFF34BF012000205DF808FB00BFDC
:100AF0004DF808EDFFF7E0FF94BF012000205DF8FE
:100B000008FB00BF4DF808EDFFF7CEFF94BF0120B2
:100B100000205DF808FB00BF4DF808EDFFF7C4FFAB
:100B200034BF012000205DF808FB00BF4FEA410CF4
:100B30007FEA6C5C02D150EA013C0AD14FEA430CD7
:100B40007FEA6C5C02D152EA033C02D14FF0000014
:100B500070474FF0010070474FEA410212F5001252
:100B600015D211D56FF47873B3EB625212D94FEAF4
:100B7000C12343F0004343EA505311F0004F23FADE
:100B800002F018BF404270474FF00000704750EA33
:100B9000013005D111F0004008BF6FF000407047F0
:100BA0004FF00000704700BF4A0011D212F500124A
:100BB00011D20DD56FF47873B3EB62520ED44FEAB5
:100BC000C12343F0004343EA505323FA02F0704735
:100BD0004FF00000704750EA013002D14FF0FF3073
:100BE00070474FF0000070474FEA4102B2F1E04316
:100BF00024BFB3F5001CDCF1FE5C0DD901F0004C04
:100C00004FEAC0024CEA5070B2F1004F40EB830053
:100C100008BF20F00100704711F0804F21D113F17F
:100C20003872BCBF01F00040704741F480114FEAB8
:100C30005252C2F11802C2F1200C10FA0CF320FA41
:100C400002F018BF40F001004FEAC1234FEAD3235E
:100C500003FA0CFC40EA0C0023FA02F34FEA4303C8
:100C6000CCE77FEA625307D150EA01331EBF4FF051
:100C7000FE4040F44000704701F0004040F0FE406C
:100C800040F40000704700BF53B94AB9002908BFBB
:100C900000281CBF4FF0FF314FF0FF3000F0A4B927
:100CA000ADF1080C6DE904CE00F03CF8DDF804E08D
:100CB000DDE9022304B0704738B500220023044662
:100CC0000D46FFF70BFF28B920462946BDE83840FE
:100CD00000F00AB8204605F1004100F005F8404256
:100CE00061EB410138BD00BFD0B50C4B0022064678
:100CF0000F46FFF781FCFFF757FF0446FFF702FCA2
:100D0000074B0022FFF778FC02460B463046394677
:100D1000FFF7BAFAFFF748FF2146D0BD0000F03DCB
:100D20000000F0412DE9F047089D04468C46002B59
:100D300040F083808A42174647D9B2FA82F242B124
:100D4000C2F1200024FA00F09140974040EA010CE3
:100D500094404FEA1748230CBCFBF8F61FFA87FEB5
:100D600008FB16C143EA014306FB0EF1994209D97B
:100D7000FB1806F1FF3080F01981994240F216818C
:100D8000023E3B445B1AA4B2B3FBF8F008FB1033FD
:100D900044EA034400FB0EFEA64509D93C1900F1C4
:100DA000FF3380F00581A64540F2028102383C44C1
:100DB00040EA0640A4EB0E0400261DB1D4400023F7
:100DC000C5E900433146BDE8F08702B9FFDEB2FA5B
:100DD00082F2002A50D1CB1B4FEA174E1FFA87F838
:100DE0000126B3FBFEFC210C0EFB1C3341EA034140
:100DF00008FB0CF38B4207D979180CF1FF3002D2B3
:100E00008B4200F2E9808446C91AA3B2B1FBFEF01E
:100E10000EFB101143EA014408FB00F8A04507D976
:100E20003C1900F1FF3302D2A04500F2D9801846E8
:100E3000A4EB080440EA0C40BFE78B4209D9002D1F
:100E400000F0B1800026C5E9000130463146BDE81A
:100E5000F087B3FA83F6002E4AD18B4202D3824246
:100E600000F2B880841A61EB030101208C46002D4A
:100E7000A8D0C5E9004CA5E7C2F1200320FA03F68B
:100E8000974001FA02F04FEA174ED9403043030C65
:100E9000B1FBFEF61FFA87F80EFB161143EA014379
:100EA00006FB08F1994204FA02F409D9FB1806F18D
:100EB000FF3C80F08D80994240F28A80023E3B44A4
:100EC0005B1A81B2B3FBFEF00EFB103341EA034123
:100ED00000FB08F38B4207D9791800F1FF3C73D26D
:100EE0008B4271D902383944CB1A40EA064678E77A
:100EF000C6F1200C03FA06F422FA0CF31C4320FA84
:100F00000CF701FA06F34FEA144E21FA0CF11F43D5
:100F10003B0CB1FBFEF91FFA84F80EFB191143EAF2
:100F2000014109FB08FA8A4502FA06F200FA06F3C3
:100F300008D9611809F1FF3048D28A4546D9A9F18C
:100F400002092144A1EB0A01BFB2B1FBFEF00EFB86
:100F5000101147EA014700FB08F8B84507D9E7191F
:100F600000F1FF312ED2B8452CD90238274440EA8F
:100F70000940A7EB0807A0FB02894F45C646494632
:100F80001AD317D05DB1B3EB0E0267EB010707FA76
:100F90000CFCF2404CEA0202F740C5E900270026AB
:100FA0003146BDE8F0872E4628460BE70646E9E6BF
:100FB0001846FDE64345E5D2B8EB020E69EB0401A5
:100FC0000138DFE70846D2E760468DE78146B9E79A
:100FD000664675E730464AE7ACF1020C394413E740
:100FE00002383C4424E700BF704700BF704700BF91
:100FF00000207047704700BF40F26023F0B5C2F296
:10100000000345F69815C2F200051B68EA6803F272
:1010100093139A429BB001D2F02A4AD846F2E411C7
:101020000024C2F200014C226026002707A80AF023
:10103000A6F8CDE900672246694607A800260827DA
:10104000CDE90267049406F0A7FA214607A806F046
:10105000CBF9012240214FF0904005F0B3F846F261
:10106000E4102146C2F2000006F036FA6A6940F246
:101070004023C2F20003462A1C600DD8224680217C
:101080004FF0904005F09EF840F24823C2F2000372
:1010900001221A601BB0F0BD012280214FF0904068
:1010A00005F090F840F24823C2F200031C601BB028
:1010B000F0BD012280214FF0904005F083F8AA692D
:1010C00040F24823C2F200030024462A1C6031D8B3
:1010D00040F24024C2F200042568002DDAD12A46ED
:1010E00040214FF0904005F06DF846F2E411C2F255
:1010F00000014C2260264FF4FA7707A80AF03FF867
:10110000CDE900672A46694607A800260827CDE9E9
:101110000267049506F040FA294607A806F064F92C
:1011200046F2E4102946C2F2000006F05DF9012300
:101130002360AFE746F2E411C2F200014C226026C0
:10114000002707A80AF01BF8CDE900672246694688
:1011500007A800260827CDE90267049406F01CFAC8
:10116000214607A806F040F9012240214FF09040A7
:1011700005F028F846F2E4102146C2F2000006F01D
:10118000ABF940F24023C2F200031C6082E700BFCB
:1011900038B545F69413C2F200031B780D2B00F20C
:1011A0009E80DFE803F0104972685F55273249726C
:1011B000685F550745F69043C2F2000345F260426E
:1011C0005B6D934240D945F69813C2F2000340F29A
:1011D00048245B69462BC2F2000421D901228021F8
:1011E0004FF0904004F0EEFF00232360BDE838404C
:1011F00001F074B945F69043C2F2000345F2604233
:101200005B6D93424AD8FFF7F7FE45F6981540F21A
:101210004824C2F20005C2F200046B69462BDDD8F7
:10122000002280214FF0904004F0CCFF0123236086
:10123000BDE8384001F052B945F69043C2F20003D0
:101240005B6DB3F5616FBED8BDE83840FFF7D4BE23
:1012500045F69043C2F2000344F250625B6D934244
:10126000F2D9B0E745F69043C2F200035B6DB3F5E7
:10127000615FE9D9A7E745F69043C2F2000342F661
:1012800030225B6D9342DFD99DE745F69043C2F271
:1012900000035B6DB3F5E15FD6D994E745F6981589
:1012A000C2F2000540F248246B69462B0CD901229A
:1012B00080214FF09040C2F2000404F083FF00232D
:1012C000236001F00BF9A8E7002280214FF0904045
:1012D000C2F2000404F076FF01232360F1E745F633
:1012E0009813C2F200035B69462B0CD901228021BE
:1012F0004FF0904004F066FF40F24823C2F2000332
:1013000000221A6038BD002280214FF0904004F086
:1013100059FF40F24823C2F2000301221A6038BD8F
:101320002DE9F04F46F23C34C2F200049DB0236830
:101330001B2B00F2D081DFE813F0250190001C0088
:101340001C001C001C001C001C001C001C001C00BD
:101350001C001C001C001C001C001C003200320081
:1013600032003200320032003200320032003200ED
:101370005A0145F6BC55C2F20005013328462360E8
:10138000FEF726FF40F64802C0F601020346411967
:10139000906A928D58518A801DB0BDE8F08F45F655
:1013A0009813C2F200035B69462B40F24781012289
:1013B00080214FF0904004F005FF40F24823C2F234
:1013C000000300221A60236846F2F0210025013351
:1013D00008A8C2F200014C2260260027236009F011
:1013E000CEFE2A46CDE9006769460026002708A8F8
:1013F000CDE90267CDE90467069506F0CDF82946E8
:1014000008A805F0F1FF46F2F0202946C2F20000DC
:1014100006F062F845F6BC544FF4806008A9C2F2A9
:1014200000044FF400720023C4F60000CDE9082345
:10143000CDE90A550C9504F0BBFD2046FEF7C8FE29
:1014400040F64802C0F6010203460119106B928E65
:1014500018518A801DB0BDE8F08F46F2C013C2F269
:10146000000346F2E4110025012608A8C2F200019B
:101470004C224FF060084FF000091E6009F07FFE1B
:10148000CDE900892A46694608A84FF000084FF0C8
:101490000809CDE90289049506F07EF8294608A8D6
:1014A00005F0A2FF324640214FF0904004F08AFE42
:1014B00046F2E4102946C2F2000006F00DF840F2B0
:1014C0004023C2F20003324680214FF090401D605D
:1014D00004F078FE45F62C23C2F2000340F24827C0
:1014E000DA6AC2F2000746F2F02196194FF00208BC
:1014F00008A8C2F200014C22DE623D60C4F8008000
:10150000002609F03CFE00272A46694608A84FF04D
:10151000600A4FF0C80BCDE900ABCDE90267CDE919
:101520000467069506F038F8294608A805F05CFF20
:1015300046F2F0202946C2F2000005F055FF45F6BC
:10154000BC544FF4806008A94FF400720023C2F22B
:101550000004C4F60000CDE90823CDE90A850C9506
:1015600004F026FD2046FEF733FE40F64802C0F6A2
:10157000010203460119106A928C18518A801DB02D
:10158000BDE8F08F45F69813C2F200031B68C82B24
:1015900040F24423C2F200031B6801D9002B5AD049
:1015A000012B6CD040F20801C2F2000140F20003AE
:1015B000C2F2000308681A68002840F08480002AFC
:1015C0005AD10123236045F6BC54C2F200042046E0
:1015D000FEF7FEFD40F64802C0F60102034601197F
:1015E0009069928B18518A801DB0BDE8F08F46F249
:1015F000C010C2F2000045F6BC1240F2080345F6E6
:10160000BC550021C2F20005C2F20002C2F2000382
:10161000016040F6C4162846216091641E60FEF702
:10162000D7FD40F64802C0F6010203464119906B0F
:10163000928F58518A801DB0BDE8F08F0022802122
:101640004FF0904004F0BEFD40F24823C2F2000388
:1016500001221A60B7E640F20003C2F2000340F232
:101660000802C2F20002196840F6C3101060002997
:10167000A9D001391960A6E7013A1A60A1E740F242
:101680000003C2F200031A687AB945F62C21C2F2AF
:10169000000140F208008D6EC2F2000001358D6637
:1016A0004FF45071026019608BE740F20801C2F2FA
:1016B000000108680028DFD001380860013A1A608C
:1016C000002880D17DE701380860002AF6D1002883
:1016D0007FF479AF75E746F2C01345F6BC55C2F208
:1016E0000003C2F20005002228461A602260FEF7BD
:1016F0006FFD40F64802C0F6010203464119106C26
:10170000B2F8442058518A8046E600BF2DE9F043E4
:1017100046F23C34C2F200049DB02368252B00F24F
:101720000082DFE813F01401A9002600260026003D
:101730002600260026002600260026002600260079
:101740002600260026002600260026002600260069
:101750002600260026002600260026003D003D002B
:101760003D003D003D003D003D003D003D003D0091
:10177000460145F6BC55C2F20005013328462360F8
:10178000FEF726FD40F64802C0F601020346411965
:10179000906DB2F85C2058518A801DB0BDE8F0838E
:1017A00045F69816C2F200067369462B40F2618135
:1017B000012280214FF0904004F004FD40F24823C4
:1017C000C2F2000300221A6000F088FE236846F28D
:1017D000F0210025013308A8C2F200014C224FF08D
:1017E00060084FF00009236009F0C9FC2A46CDE9E2
:1017F000008969464FF000084FF0000908A8CDE9BC
:101800000289CDE90489069505F0C6FE294608A897
:1018100005F0EAFD46F2F0202946C2F2000005F08C
:101820005BFE4FF4806008A94FF400720023C4F6F9
:101830000000CDE90823CDE90A550C9504F0B8FB6A
:10184000326844F274039A4284BF0123236045F650
:10185000BC54C2F200042046FEF7BAFC40F648022F
:10186000C0F6010203460119106EB2F86420185147
:101870008A801DB0BDE8F08346F2C013C2F20003B7
:10188000012280214FF090401A6004F09BFC45F645
:10189000BC12C2F2000240F24823C2F20003926B73
:1018A00000201121186021600AB10223236045F64F
:1018B0002C23C2F2000346F2F0215A6E0024551C7C
:1018C00008A8C2F200014C226026C8275D6609F014
:1018D00056FC2246CDE9006769460026002708A885
:1018E000CDE90267CDE90467069405F055FE21466F
:1018F00008A805F079FD46F2F0202146C2F200006A
:1019000005F072FD45F6BC554FF4806008A902232E
:10191000C2F20005C4F600004FF4007600270A93D7
:10192000CDE90B44CDE9086704F042FB2846FEF7F9
:101930004FFC40F64802C0F6010203464119106D03
:10194000B2F8542058518A801DB0BDE8F08345F6A6
:101950009813C2F200031B68A3F1FB02B2F54F5FBC
:1019600050D840F2080345F6BC11C2F20003C2F29F
:101970000001232200201A60886440F24421C2F250
:1019800000010968012900F08C8040F24820C2F271
:10199000000040F200010568C2F200010868002D55
:1019A00040F0A98000284FD001380860002A4BD1B0
:1019B00048E045F6BC12C2F2000246F2C01640F200
:1019C000080145F6BC550023C2F20005C2F2000131
:1019D000C2F2000693639364284640F6C412236063
:1019E00033600A60FEF7F4FB40F64802C0F60102DD
:1019F00003464119906EB2F86C2058518A801DB090
:101A0000BDE8F08344F27402934261D940F244216C
:101A1000C2F2000140F20803086845F6BC12C2F2A7
:101A200000020125C2F200030021A842196091645E
:101A3000956336D040F20003C2F200031A680AB17F
:101A4000013A1A600123236045F6BC54C2F2000437
:101A50002046FEF7BDFB40F64802C0F601020346F1
:101A60000119906CB2F84C2018518A801DB0BDE865
:101A7000F083002280214FF0904004F0A3FB40F25D
:101A80004823C2F2000301221A609DE640F244237B
:101A9000C2F200031B68012B40F20803C2F20003EC
:101AA00031D140F24822C2F2000212685AB340F229
:101AB0000001C2F200010A684ABB45F62C20C2F2BE
:101AC00000001A60836E0133836640F241306BE799
:101AD000FA2BDBD845F6BC11C2F200018B6C002B4F
:101AE000D4D140F20803C2F2000340F2E2420120E6
:101AF0001A60886441E7013A1A6000287FF454AF05
:101B0000002AA1D19EE71A68002A93D03DE71D68FC
:101B100015B9013A0A6095E7013D10461D602A4655
:101B200042E746F2C01345F6BC55C2F20003C2F2CA
:101B30000005002228461A602260FEF749FB40F6A5
:101B40004802C0F6010203464119106FB2F8742032
:101B500058518A8021E600BF38B545F6B814C2F264
:101B600000042368002B44D145F69815C2F2000505
:101B7000AB69462B17D94FF48060C4F600000122F0
:101B80004FF4004104F01EFB6B69462B59D84FF40B
:101B90008060C4F6000001224FF4005104F012FBF3
:101BA0000123236038BD6B69462B4AD845F6BC1328
:101BB000C2F200031A6A002A4DD11A69002A5FD1C5
:101BC000DA68002A68D19A68002A7DD1D3E9002119
:101BD0000A4355D1DB69002BE4D04FF48060C4F692
:101BE000000001224FF4804104F0ECFA0923236045
:101BF00038BD4FF48060013BC4F6000000224FF472
:101C00000041236004F0DEFA4FF48060C4F6000067
:101C100000224FF4804104F0D5FA4FF48060C4F6FE
:101C2000000000224FF4005104F0CCFA4FF4806021
:101C3000BDE83840C4F6000000224FF4805104F0A3
:101C4000C1BA4FF48060C4F6000001224FF4804115
:101C500004F0B8FA9BE74FF48060C4F6000001225C
:101C60004FF4004104F0AEFA4FF48060C4F6000077
:101C700001224FF4804104F0A5FA0123236038BD0E
:101C80004FF48060C4F6000001224FF4004104F0DC
:101C900099FA0123236038BD40F24823C2F20003C1
:101CA0004FF480601B68C4F6000001224FF48041AD
:101CB0002BB140F24023C2F200031B6883B904F049
:101CC00081FA0323236038BD4FF48060C4F600001E
:101CD00001224FF4004104F075FA0923236038BD56
:101CE00004F070FA0123236038BD00BF80B483B0D4
:101CF00000AF00237B6010E07A6845F66843C2F2CB
:101D000000031A444AF20003C0F6030379680B4447
:101D10001B7813707B6801337B607B68272BEBD9C2
:101D200045F66843C2F200031B68B3F1FF3F10D1D0
:101D300000237B600AE07A6845F66843C2F200033C
:101D4000134400221A707B6801337B607B68272B69
:101D5000F1D900BF0C37BD465DF8047B704700BF6A
:101D600080B588B000AF0023FB610023BB6145F65E
:101D70002C23C2F200031B685A1C45F62C23C2F226
:101D800000031A6000237B6001233B617423FB6026
:101D90000123BB6003F0ACFF4FF40053C4F2020315
:101DA000B3221A6107F114023B1D1146184603F0D5
:101DB000FFFF20E0BA694AF20003C0F603031344B0
:101DC0001946FB69DA0045F66843C2F20003134482
:101DD000D3E90023002003F0C9FE0346002B06D1FF
:101DE000BB690833BB61FB690133FB6103E003F0AE
:101DF0009FFF034605E0FB69042BDBD903F08EFF50
:101E0000002318462037BD4680BD00BF80B584B092
:101E100000AF0023BB6000237B6046F2BC13C2F21C
:101E2000000300221A600023FB603BE004233B60B8
:101E300010E03B68013B3B60BB681A0240F20003C4
:101E4000C0F60203F968C90219443B680B441B78C9
:101E50001343BB603B68002BEBD1BB68B3F1FF3F82
:101E600001D10023BB60BA687B689A420FD946F261
:101E7000BC13C2F20003FA681A60BB687B604FF4BF
:101E800000514FF48060C4F6000004F0A1F94FF453
:101E900080414FF48060C4F6000004F099F9FB68BB
:101EA0000133FB60FB68332BC0D900224FF4804123
:101EB0004FF48060C4F6000004F084F900224FF46F
:101EC00000514FF48060C4F6000004F07BF9002359
:101ED000FB6017E046F2BC13C2F200031968FA680F
:101EE00046F23023C2F200031A4440F20003C0F667
:101EF0000203C9021944FB680B441B781370FB688A
:101F00000133FB60FB68BF2BE4D946F23023C2F2F9
:101F10000003DB69B3F1FF3F19D10023FB6012E03E
:101F2000FA6845F62C23C2F20003134400221A700B
:101F3000FA6846F23023C2F20003134400221A70FA
:101F4000FB680133FB60FB68BF2BE9D90DE045F668
:101F50002C22C2F2000246F23023C2F200031046E5
:101F60001946C0231A4609F00AF900BF1037BD46CA
:101F700080BD00BF80B588B000AF0023FB610023A7
:101F8000BB6146F23022C2F2000245F62C23C2F2B7
:101F9000000310461946C0231A4609F0F0F846F22D
:101FA000BC13C2F200031B68322B0BD846F2BC13E1
:101FB000C2F200031B685A1C46F2BC13C2F20003B3
:101FC0001A6005E046F2BC13C2F2000300221A6058
:101FD00045F62C23C2F200031B685A1C45F62C233D
:101FE000C2F200031A6000237B6001233B6146F2CA
:101FF000BC13C2F200031B684033FB600123BB60CB
:1020000003F076FE4FF40053C4F20203B3221A61C8
:1020100007F114023B1D1146184603F0C9FE03F0F8
:102020007DFE03F065FE4FF40053C4F20203B322B9
:102030001A6127E046F2BC13C2F200031B68DA0201
:10204000BB691A4440F20003C0F602031344194668
:10205000FB69DA0046F23023C2F200031344D3E9ED
:102060000023002003F082FD0346002B06D1BB694C
:102070000833BB61FB690133FB6103E003F058FEE9
:10208000034605E0FB69172BD4D903F047FE002374
:1020900018462037BD4680BD30B545F6B855C2F26A
:1020A000000587B0286806F0F7FC45F62C20C02212
:1020B0000021C2F2000009F070F846F2BC1446F2AA
:1020C0003020C0220021C2F20004C2F2000009F058
:1020D00064F8002340220020012123600123CDE980
:1020E0000423CDE9020103F003FE4FF40053C4F2D0
:1020F0000203B3221A612368322B0BD801A902A86C
:1021000003F056FE23685A1C322A03F14103226071
:102110000493F3D903F002FE0023286823606421AE
:1021200006F0A2FC07B030BD45F6BC13C2F20003B6
:1021300045F698111A68F0B4C2F20001002A40F086
:10214000DD80C8684C685A688AB145F69042C2F290
:10215000000241F259775568CDF2B71700FB04F63B
:10216000A7FB067605EB5635002655605E609A683B
:10217000002A40F0AE800D68DA688AB145F69042D8
:10218000C2F2000241F2597CD668CDF2B71C00FBC6
:1021900005F7ACFB07C706EB57360027D660DF60B4
:1021A0001A698AB145F69042C2F2000241F2597CA6
:1021B0001669CDF2B71C00FB04F7ACFB07C706EBB2
:1021C0005736002716611F61DA6942B145F6904221
:1021D000C2F200020027D669DF610136D6611A6AB1
:1021E00042B145F69042C2F200020027166A1F6211
:1021F000013616629A6942B145F69042C2F2000277
:10220000002796699F61013696615A6D42B145F685
:102210009042C2F200020027566D5F650136566596
:10222000DA6B002A49D145F62C22C2F200029E6DDB
:1022300046B145F69046C2F2000600279F65B76D8D
:102240002744B765DE6D46B145F69046C2F20006FA
:102250000027DF65F36D5F19F7654B69566BB34275
:1022600003D3966B5363013696638B69D16B8B42B4
:1022700003D3116CD36301311164536CAB4203D8A7
:10228000936C556401339364D36CA34203D8136DEC
:10229000D46401331365536D834203D8936D506545
:1022A00001339365F02806D9D36DF02B3BD8136E1C
:1022B000D06501331366F0BC704745F62C22C2F29C
:1022C00000020027D2F8A060DF630136C2F8A060E8
:1022D000ADE745F69047C2F200070D688A68BE6810
:1022E00041F2597C02FB05F2CDF2B71CACFB02C2F5
:1022F00006EB52320026BA609E603DE745F69042FA
:10230000C2F20002C8684C68156841F2597704FBB4
:1023100000F6CDF2B717A7FB067605EB563500267B
:1023200015601E600FE78342C5D3136ED06501337D
:102330001366C0E745F69042C2F20002F0B5D2E95A
:10234000000748F68905C8F68805A5FB004045F654
:102350002C234009C2F20003C0EB0010A5FB074785
:1023600080007F09586098681469C7EB0717D2E9A5
:10237000021600EB87079F6098699769A5FB011C0F
:1023800038444FEA5C1C9861D868A5FB0616CCEB74
:102390000C1C916D00EB8C00A5FB04E4A5FB01E196
:1023A000760945F6941ED8601869C6EB0616C2F287
:1023B000000E00EB86069EF80070D3F894001E61B4
:1023C00064095E694909C1EB0111C4EB041400EB17
:1023D000810006EB8404062F5C61C3F894004FEA89
:1023E000810124D8D06DDC6FA5FB0005D3E92C0654
:1023F0006D09C5EB051504EB8504014406EB850565
:10240000C3E92C15DC67196ADC69D569106A2C44AC
:1024100008440021C3E90740C2E91611C2E90011CE
:10242000C2E90211C2E9071191611161F0BDF81F03
:10243000062811D8D06DDC6FA5FB0005D3E92E0668
:102440006D09C5EB051504EB8504014406EB850514
:10245000C3E92E15DC67D6E70E2FEBD00F2FE9D09E
:10246000D16DD86FA5FB01156D09C5EB051500EB06
:102470008505DD67C7E700BF70B54FF48066C4F619
:1024800000060121304603F097FE45F694144FF400
:102490000065C2F20004C4F6000503461021284678
:1024A000237003F089FE2278034602EB43030221E6
:1024B0003046237003F080FE2278034602EB83034C
:1024C00028462021237003F077FE237803EBC00316
:1024D000DB4303F00F03237070BD00BF45F6981374
:1024E000F0B5C2F200039BB09B69462B33D840F293
:1024F0004024C2F2000425680DB11BB0F0BD2A468D
:1025000040214FF0904003F05DFE46F2E41107A831
:10251000C2F200014C2260264FF4FA7708F02FFE39
:10252000CDE900672A46694607A800260827CDE9B5
:102530000267049505F030F8294607A804F054FF17
:1025400046F2E4102946C2F2000004F04DFF0123D8
:1025500023601BB0F0BD46F2E411002407A8C2F2CC
:1025600000014C226026002708F009FECDE9006733
:102570002246694607A800260827CDE90267049489
:1025800005F00AF8214607A804F02EFF0122402199
:102590004FF0904003F016FE46F2E4102146C2F2DE
:1025A000000004F099FF40F24023C2F200031C60D7
:1025B0001BB0F0BD00B587B002F0DCFB00F044F8C2
:1025C00000F008FA00F0D2F900F072F800F0AEF96D
:1025D00000F012F900F052F94FF4806000244FF43B
:1025E000007200236946C4F60000CDE90023CDE95E
:1025F0000344029403F0DCFC06F06AF941F2A043C4
:1026000044F221302246C0F601030121C0F6000049
:1026100006F0E6F945F6B853C2F20003054641F26A
:102620007C4243F66D102146C0F60102C0F6000060
:102630001D6006F07BF945F69013C2F200031860A6
:1026400006F058F9FEE700BF30B599B006A844225D
:10265000002108F0A2FD00234FF40070CDE9003303
:10266000CDE90233049303F0C5FD08B172B6FEE76D
:102670000346012406A84FF48035CDE906451093A2
:1026800003F0B6FE014608B172B6FEE70F2402253C
:10269000002200236846CDE90045CDE902230491DC
:1026A00004F01EFA08B172B6FEE719B030BD00BFE3
:1026B00030B545F63834C2F20004002387B0C5F2C5
:1026C000040304224FF48025082123606261002363
:1026D00001222046C4E90233C4E90A33CDE90133BB
:1026E000CDE903336560E161238384F820306363BF
:1026F00084F838300093226184F83020059302F08A
:102700005DFB08B172B6FEE70222C0F2304206233A
:10271000CDE9002301227F23CDE90223694604226B
:1027200000232046CDE9042302F07CFC08B172B6F8
:10273000FEE70422C0F660020C2369462046CDE97C
:10274000002302F06FFC08B172B6FEE70822C0F663
:1027500090421223029069462046CDE9002302F000
:1027600061FC08B172B6FEE71022C1F2C002182364
:1027700069462046CDE9002302F054FC08B172B648
:10278000FEE72022C1F2F0424FF4807369462046F2
:10279000CDE9002302F046FC08B172B6FEE7402204
:1027A000C1F620124FF4837369462046CDE9002319
:1027B00002F038FC08B172B6FEE78022C1F6505232
:1027C0004FF4867369462046CDE9002302F02AFCC7
:1027D00008B172B6FEE70122C8F200024FF4897315
:1027E00069462046CDE9002302F01CFC08B172B610
:1027F000FEE707B030BD00BFD0B546F2E414C2F228
:1028000000044FF080438CB0012223604FF400732A
:102810004FF47A7162602361802200232046CDE963
:102820000233CDE90533CDE90733CDE90933E16062
:10283000A261A3600193049304F05CFD08B172B639
:10284000FEE7034601A920460193039305F052F9E0
:1028500008B172B6FEE7024660260027069008908F
:1028600004A92046CDE9046704F096FE08B172B6CB
:10287000FEE7204602F07EF80CB0D0BDF0B5002592
:1028800095B029462C2208A846F2F024C2F2000492
:10289000CDE90055CDE90255CDE90455069508F07E
:1028A0007CFC4FF48843C4F2010301264FF4FA7113
:1028B00080222046C4E90455A56023606660E1607B
:1028C000A26104F06DFC08B172B6FEE7204604F088
:1028D00011FD024608B172B6FEE76026FE27CDE97B
:1028E00000676946002600272046CDE90267CDE94A
:1028F0000467069204F050FE034608B172B6FEE784
:10290000CDE90867CDE90A6708A900264FF400570A
:102910002046CDE90C67129305F026F908B172B68E
:10292000FEE7204602F026F815B0F0BD45F6E4308B
:10293000C2F200004FF46053C4F2010310B50C2141
:102940004FF4E1344FF4004203600023C0E9023346
:10295000C0E9083344604161C2610361836105F0ED
:10296000B3FE08B172B6FEE710BD00BF4FF480534E
:10297000C4F2020300B5996C41F001019964996CAD
:1029800083B001F0010100910099996C41F00201BE
:1029900099649B6C03F002030022019305210B2034
:1029A000019B02F03DFF0B2002F074FF0022052185
:1029B000442002F035FF442002F06CFF0022052184
:1029C000452002F02DFF452003B05DF804EB02F036
:1029D00061BF00BF2DE9F04300248BB0CDE9044472
:1029E000CDE906444FF48053C4F202030894DA6C34
:1029F00042F08002DA64DA6C02F080020092009AFF
:102A0000DA6C42F00402DA64DA6C02F00402019239
:102A1000019ADA6C42F00102DA64DA6C02F0010227
:102A20000292029ADA6C42F00202DA64DB6C4FF432
:102A3000806503F00203C4F60005039322464FF4B9
:102A4000E8714FF09040039B03F0BCFB2246284600
:102A50004FF4704103F0B6FB0026002704A94FF4A1
:102A6000E87201234FF09040CDE90423CDE90667D9
:102A700003F09EFA4FF4006004A9302200230124E1
:102A8000C4F60000CDE90423069403F091FA032272
:102A9000284604A90023CDE9042306944FF40178C5
:102AA00003F086FA4FF00009284604A90223069392
:102AB000CDE9048903F07CFA4FF4704201232846E3
:102AC00004A9CDE90667CDE9042303F071FA0BB040
:102AD000BDE8F0830368DB69DB0669D52DE9F047C3
:102AE00040F25A23C2F2000345F6E4351A78016F2A
:102AF000C2F2000501321A702A680B6840F25B24AA
:102B000010211162C2F200045B68217840F2582261
:102B1000C2F20002C3F17F039BB201291688138021
:102B20000CD945F6E430C2F2000005F0AFFB0028F6
:102B300040F0618100232370BDE8F08700293FD178
:102B40009B1B9BB2013B7E2BEBD845F63857C2F25C
:102B50000007BD5D05F0DF03462B38D0432B40F066
:102B6000858040F25023C2F2000305221A60302D06
:102B700035D0312D00F0A48005F0DF03482B01D0C3
:102B80003F2DD7D140F25023C2F2000345F6BC508E
:102B900040F670113C25C2F2000040F2A522C0F6BA
:102BA00001011D6008F0EBFA00232370BDE8F087F7
:102BB00040F25B23C2F200031A7801321A707047A8
:102BC000B342AED8C6F17F0213449BB2BAE740F2DB
:102BD0005023C2F200030422302D1A60C9D140F202
:102BE000502246F2C413C2F20002C2F200033E2198
:102BF00018681160FDF786FC4FF460430022C4F2B0
:102C0000AD03FDF7F9FC4FF480430022C4F28F03BB
:102C1000FDF71CFE00230022C4F23903FDF736FB4A
:102C200040F63803C0F60103D3E900238046894605
:102C3000FDF754FF002840F0148140464946FDF757
:102C4000B3FFB0F5FA7FC0F0308145F69813C2F2B9
:102C5000000345F6BC5040F608111A68C0F60101A1
:102C6000C2F2000009F0F6F9BD5D82E7572B06D1EC
:102C700040F25023C2F2000303221A6077E7452B8B
:102C800065D145F62C28C2F20008404646F23429A8
:102C900050F804ABC2F20009BC22002108F07DFA12
:102CA000BC224846002108F078FA40F25023C2F2D4
:102CB00000030422C8F800A049F804AC1A6056E7E3
:102CC00040F2502246F2C413C2F20002C2F20003E4
:102CD0003E2158681160FDF715FC4FF46043002257
:102CE000C4F2AD03FDF788FC4FF480430022C4F228
:102CF0008F03FDF7ABFD00230022C4F23903FDF77B
:102D0000C5FA40F63803C0F60103D3E90023804634
:102D10008946FDF7E3FE002840F0B580404649466D
:102D2000FDF742FFB0F5FA7FC0F0C18045F6981379
:102D3000C2F2000345F6BC5040F64C115A68C0F68A
:102D40000101C2F2000009F085F9BD5D14E7442BD2
:102D50000AD1FFF7A1F940F25023C2F20003BD5D92
:102D600004221A6005F0DF03502B06D140F25023F5
:102D7000C2F200033E221A60F9E64F2B0AD140F25C
:102D80005023C2F200033E221A60FEF7AFFFBD5D82
:102D900005F0DF034C2B0AD1FEF7E2FF40F250238F
:102DA000C2F20003BD5D3E221A6005F0DF034B2B2B
:102DB0000BD0422B18D0542B7FF4D9AE40F208032D
:102DC000C2F2000300221A60D1E640F25023C2F2A0
:102DD00000033E2145F66840196028220021C2F216
:102DE000000008F0DAF9C2E640F20003C2F2000384
:102DF00000221A60BBE645F6E430C2F2000004F09F
:102E000051FF4FF46052C4F2010245F6E430002352
:102E10004FF4E1362A600C214FF40042C2F2000068
:102E2000C5E90233C5E908336E602B61AB616961A6
:102E3000EA6105F049FC08B172B6FEE745F6385183
:102E400045F6E4307F22C2F20001C2F2000005F034
:102E5000F9FC2B6810221A621A6842F010021A60FC
:102E600068E6002245F66843C2F2000345F6BC500E
:102E700040F6E801C2F20000C0F601015A6009F014
:102E8000E9F8BD5D75E6002245F66843C2F200032D
:102E900045F6BC5040F63011C2F20000C0F6010108
:102EA0009A6009F0D7F8BD5D66E60246DAE70246A9
:102EB000EAE700BF40F25C23C2F200031A78013255
:102EC0001A7070472DE9F04F45F62C2BC2F2000B1B
:102ED0002DED028BDBF8A030B3F5617F9DB045F698
:102EE000BC5500F2C98040F6480645F6BC14C2F253
:102EF0000005C0F60106C2F2000440F2642AC2F2E4
:102F0000000A45F69817C2F20007DAF80030FA68AE
:102F100003F24B134FF000089A42C4E9138801D220
:102F2000F02A7CD845F6BC50C2F20000FDF750F9FB
:102F300063690246D6F8D803A850002B40F0E7801A
:102F400046F2C018C2F200080023D8F80090CAF870
:102F500000306361B9F1000F00F0C9803B6845F6AD
:102F6000BC50C82BC2F200001AD8FDF731F9626BD1
:102F70000346D6F8E003E850002A00F099814FF0AC
:102F80000109C4F81890FEF7CBF9D8F80080B8F121
:102F9000000F00F002811DB0BDEC028BBDE8F08F88
:102FA000FDF716F9034646F2E411D6F8DC03E850C3
:102FB0000126002509A8C2F200014C224FF060084A
:102FC0004FF00009A66008F0DAF8CDE902892A4638
:102FD00002A909A84FF000084FF00809CDE90489BB
:102FE000069504F0D9FA294609A804F0FDF93246FD
:102FF00040214FF0904003F0E5F846F2E4102946F6
:10300000C2F2000004F068FA40F24023C2F200036A
:1030100065631D601DB0BDEC028BBDE8F08F45F609
:103020009043C2F200031B69B3F5167FBFF47AAF79
:1030300045F6BC50C2F20000FDF7CAF80346D6F8C8
:10304000D403E850FFF74AFA1123012280214FF000
:103050009040CAF8003003F0B5F840F24822C2F2BE
:1030600000020123C4E90433C2F80080A3651DB047
:10307000BDEC028BBDE8F08FC2F200052846FDF7DB
:10308000A7F840F6480640F23C23C0F60106014688
:10309000C2F20003D6F8D003685045F6904245F6D8
:1030A000BC14C2F20002C2F200041868002151658B
:1030B000216400287FF421AF012210214FF09040BD
:1030C0001A6003F07FF806F1780307CB1B882860AD
:1030D00045F6E4306960AA60AB810D222946C2F250
:1030E000000004F089FD0A2005F06CFC05E77B690F
:1030F000462B45D9012280214FF0904003F062F821
:1031000040F24823C2F20003C3F8009026E70023F0
:1031100008EE103A46F2E411C2F200014C224FF0E0
:1031200060084FF0000909A808F029F8CDE90289E4
:1031300018EE102A02A909A84FF000084FF008095C
:10314000CDE904898DED068A04F026FA18EE101AEE
:1031500009A804F049F9012240214FF0904003F002
:1031600031F846F2E41018EE101AC2F2000004F032
:10317000B3F940F24022C2F2000282ED008ADFE69B
:103180004A4680214FF0904003F01CF840F248235B
:10319000C2F2000301221A60E0E640F2602345F625
:1031A000BC50C2F20003C2F200000193FDF710F818
:1031B000019BD7F80CC01968024601F29311D6F8AA
:1031C000E803A8508C4502D2BCF1F00F7CD8033242
:1031D000D6F8F003A85046F2E4114FF0000AC2F20C
:1031E00000014C224FF060084FF0000909A801933C
:1031F00007F0C5FFCDE90289524602A94FF0000849
:1032000009A84FF00809CDE90489CDF818A004F009
:10321000C3F9514609A804F0E7F8012240214FF014
:10322000904002F0CFFF46F2E4105146C2F2000097
:1032300004F052F9D7F80C80019B40F24022C2F210
:1032400000020127B8F5CA7FC3F800A0C2F800A0A9
:103250002762FFF4A0AE45F6BC50C2F20000FCF7B6
:10326000B7FF40F63C410346C0F60101D6F8F4032F
:10327000226BE85005EB030C91F804E0DBF89400B6
:103280008CF804E0CBF8800072BBA26A8ABB0433DE
:1032900040F64442D6F8FC03E850C0F601022B4445
:1032A00016791E7101210022A162CBF87C2072E602
:1032B000DBF83020D6F8E40303330132E850012371
:1032C000CBF8302063635AE60332D6F8EC03A850FB
:1032D000FFF704F9019BC4F804901222C4F8589037
:1032E000C4F828801A6056E6A26A002A7FF453AE1A
:1032F000CDE70433EA18D6F80404097DE850CBF88A
:103300009C801171276346E62DE9F04346F2C01612
:10331000C2F2000645F6981534689BB0C2F200056B
:10332000002C00F0B1802B68C82B45F6BC1441D9A5
:103330006A68C2F2000441F65D2301269A42A66043
:1033400035D946F2E4110025C2F200014C224FF0BB
:1033500060084FF0000907A807F011FFCDE90089C8
:103360002A46694607A84FF000084FF00809CDE942
:103370000289049504F010F9294607A804F034F8EE
:10338000324640214FF0904002F01CFF46F2E4101C
:103390002946C2F2000004F09FF840F24023C2F236
:1033A00000031D60002363631BB0BDE8F083FFF7DB
:1033B00095F8F7E7C2F20004636B43B945F62C2396
:1033C000C2F2000301211A6B61630A441A634FF0D1
:1033D0000108C4F81880FDF7A3FF3668002EE3D17A
:1033E00040F26027C2F20007EA683B6803F29313D9
:1033F0009A4201D2F02A63D846F2E4110026C2F2C2
:1034000000014C224FF060084FF0000907A807F0B8
:10341000B6FECDE900893246694607A84FF000089C
:103420004FF00809CDE90289049604F0B5F8314659
:1034300007A803F0D9FF012240214FF0904002F08D
:10344000C1FE46F2E4103146C2F2000004F044F836
:10345000E9683E6040F24023C2F200030122B1F568
:10346000CA7F1E6022629FD345F62C23C2F200035E
:10347000206BD3F89450C3F8805058BBA06A68B34F
:10348000C3F89C1022638FE76B69462B0BD901228E
:1034900080214FF0904002F095FE40F24823C2F2A6
:1034A00000031C603FE7224680214FF0904002F06D
:1034B00089FE40F24823C2F2000301221A6032E77B
:1034C000FFF70CF81223C4F80480C4F85880A662F1
:1034D0003B6069E7A26A002A7FF466AF01210022FF
:1034E000A162DA6760E700BF2DE9F04F45F6904929
:1034F000C2F2000945F6BC14D9F85420C2F2000407
:1035000001230021B2F5E16F9DB06161E361636564
:1035100000F2E38045F6BC5640F64807C2F20006CA
:10352000C0F6010740F26425C2F2000545F698187E
:10353000C2F200082B68D8F80C20C3F5AE7345F62C
:10354000BC509A42C2F2000026D9FCF741FE46F276
:10355000C012C2F2000203461268D7F81004F050FD
:1035600000216162002A00F0C480FEF7CFF840F22B
:103570004823C2F2000311221B682A60002B40F08E
:103580002181D8F80030FA2B03D9A36A002B40F030
:1035900004811DB0BDE8F08FFCF71AFE40F2482A06
:1035A000024640F26023C2F20003D7F82004B05074
:1035B000C2F2000A4FF0000B012280214FF0904030
:1035C000C3F800B0C5F800B002F0FCFDCAF800B0C6
:1035D000FEF784FF45F61C23C2F200039A68002A16
:1035E000D7D05D683B2D00F08B80226D002AD0D0B3
:1035F000002DCED11B680A2BCBD145F6BC50C2F2B0
:103600000000FCF7E5FD40F23C230246C2F2000355
:10361000D7F82804B0501A681AB340F6D0042A46E6
:1036200010214FF09040C0F601041D6002F0CAFD69
:103630000FCC30602068A5887160A479306145F6B0
:10364000BC5145F6E430B260F360C2F20001C2F250
:1036500000001622B582B47504F0CEFA642005F09D
:10366000B1F9D8F81430462B40F2C98001228021EC
:103670004FF0904002F0A6FD0023CAF8003046F259
:10368000E4110024C2F200014C226026002709A8A0
:1036900007F075FDCDE90267224602A909A80026B8
:1036A0000827CDE90467069403F076FF214609A8B0
:1036B00003F09AFE012240214FF0904002F082FD7B
:1036C00046F2E4102146C2F2000003F005FF40F28A
:1036D0004023C2F200031C605BE7256D45F6BC5633
:1036E000002D7DD040F64807C2F20006C0F6010763
:1036F00018E70333D7F81404F050FDF749FD34E719
:10370000626A002A7FF471AFD9F85410B1F5E16F05
:103710007FF66BAF45F6BC50C2F200000192FCF799
:1037200057FD45F62C238446C2F20003D7F8240443
:1037300046F80C00D3E92260D8F80C50C3F8985032
:10374000D3F88450019A596AC3F89000C3F88C608A
:10375000D3F89400D3F8A860C3F88850D3F8A450E5
:103760002263A262C3F88400C3F89420D3F8A000B7
:103770005A6FC3F8AC60C3F8A8501E6FDD6EC3F873
:10378000A4009A67D86FD86601220131C3E91C569C
:103790005962226462622265FBE645F6BC50C2F2C1
:1037A0000000FCF715FD45F62C23C2F2000301468C
:1037B0009A6AD7F81C047050013200219A62A16203
:1037C0002163E6E645F6BC50C2F20000FCF700FDBE
:1037D0000346D7F81804F0500123E360E365D0E610
:1037E000C2F200063046FCF7F3FC40F64807C0F68C
:1037F00001070346D7F80C04F050656292E60022F8
:1038000080214FF0904002F0DDFC0123CAF8003027
:1038100035E700BF30B545F62C22C2F200029FB05A
:10382000D2E92614D2F88450D36E1D95D2F8805078
:103830001C94946E1B91516E1A93136E1995956D8D
:103840001894D46D1791516D1693136D1595956C51
:103850001494D46C1391516C1293136CCDE91045F0
:10386000CDE90E319469116A936BCDE90014516B67
:10387000D56BD46A0D93136B0C91916A0B95556AB5
:103880000A94D4680993536908911169079595685A
:10389000069454680593D3691268049145F6BC50A8
:1038A00040F68C61C0F60101C2F20000CDE902458C
:1038B00008F0D0FB1FB030BD30B545F62C22C2F267
:1038C0000002D2E92A459FB0D2E928311D95D2F8ED
:1038D000BC501C94D2F8B8401B91D2F8B4101A9383
:1038E000D2F8B0301995D2F890501894D2F88C4094
:1038F0001791D2F888101693D2F884301595956FE9
:103900001494546F1391116F1293D36ECDE9104537
:10391000CDE90E319469116AD2F88030CDE90014F6
:10392000D16FD2F89450D46A0D93136B0C91916AB5
:103930000B95556A0A94D4680993536908911169E3
:1039400007959568069454680593D36912680491A5
:1039500045F6BC5041F2A001C0F60101C2F20000E0
:10396000CDE9024508F076FB1FB030BD2DE9F04FE0
:1039700045F69817C2F200072DED028B7B69462BA6
:10398000BDB040F248236AD9C2F200031C460122AE
:1039900080214FF09040159302F014FC0023236027
:1039A00045F6E43400224FF480714FF09040C2F2AB
:1039B000000402F007FCFEF729FAFEF797F920460B
:1039C00001F02CF82268136840F23C2543F0100304
:1039D000C2F2000545F6385113602046C2F20001DC
:1039E0007F22209504F02EFF2B68E3B901221021DD
:1039F0004FF090402A6002F0E5FB40F6C003C0F6AD
:103A0000010307CB45F6BC55C2F200051B882860B0
:103A10006960AA60294620460D22AB8104F0ECF8CB
:103A20000A2004F0CFFF45F638307F21C2F20000B3
:103A300001F094FE322004F0C5FF46F2C41145F6B1
:103A40003830C2F20001C2F20000082201F0F6FD97
:103A5000064688B13DB0BDEC028BBDE8F08FC2F2E6
:103A600000031C46002280214FF09040159302F085
:103A7000A9FB0123236093E74FF48060C4F60000A4
:103A800001224FF4004102F09DFB4FF48060C4F628
:103A9000000001224FF4804102F094FB4FF480605B
:103AA000C4F6000001224FF4005102F08BFB4FF4EA
:103AB0008060C4F6000001224FF4805102F082FBC6
:103AC0004FF0230E40F6C41C11254FF0120ACDE929
:103AD0000CCECDE90AA54FF0F00CC824FA214FF422
:103AE000AE75CDE9075C4FF4A57ECDE902144623FF
:103AF00044F2740943F2BC4840F2931B4FF4A072A5
:103B000040F2B31545F6BC5040F67441CDE9055E70
:103B1000C0F60101CDE90E89CDF824B004930093DD
:103B2000019234230222C2F2000001F5FA6808F083
:103B300091FA45F6BC50C2F20000FCF749FB45F68D
:103B4000BC51024645F6E43092B2C2F20001C2F224
:103B5000000004F051F8052004F034FF4FF48060B9
:103B60003246C4F600004FF4004102F02BFB4FF444
:103B700080603246C4F600004FF4804102F022FB20
:103B80004FF480603246C4F600004FF4005145F611
:103B9000941402F017FBC2F200044FF48060324626
:103BA000C4F600004FF48051139402F00BFBFEF7B3
:103BB00063FC22784FF4806002F00102C4F600003A
:103BC0004FF4004102F0FEFA22784FF4806002F0D8
:103BD0000202C4F600004FF4804102F0F3FA2278AA
:103BE0004FF4806002F00402C4F600004FF400516C
:103BF00002F0E8FA22784FF4806002F008024FF4F5
:103C00008051C4F6000002F0DDFA322004F0DAFE42
:103C10004FF480603246C4F600004FF4004102F0D9
:103C2000D1FA4FF480603246C4F600004FF4804170
:103C300002F0C8FA4FF480603246C4F600004FF438
:103C4000005102F0BFFA4FF4806032464FF48051C9
:103C5000C4F6000002F0B6FAFFF7DCFD45F6BC50F2
:103C6000C2F20000FCF7B4FA45F6BC51024645F634
:103C7000684345F6E430C2F2000392B2C2F200019A
:103C8000C2F200001C4603F0B7FF142004F09AFEB5
:103C9000D4E90710A269234664691194DD681C69A0
:103CA00016939B680690CDE90421119ACDE9003561
:103CB000CDE90242169A45F6BC5053681268A8F541
:103CC000FE71C2F2000008F0C5F945F6BC50C2F220
:103CD0000000FCF77DFA45F6BC51024645F6E4309B
:103CE00092B2C2F20001C2F2000003F085FF45F675
:103CF000B853C2F2000345F6BC14186845F62C22EE
:103D00002346C2F20002C2F20003642117921A9302
:103D100004F0AAFE1A9917980123C0F89460C667A8
:103D2000CB624B620B6440F25020A8F5FE7308EEA4
:103D3000103A0346C2F2000345F61C2112930B46CB
:103D4000C2F2000340F200001F930346C2F20003D8
:103D500040F208011D930B46C2F2000340F24420DA
:103D60001E930346C2F2000340F2402145F6BC55C3
:103D700040F24C241C9340F204000B4640F26021B8
:103D8000C2F200054FF4AF7245F6904940F2542A52
:103D9000C2F20004C2F20003C2F20000C2F200014B
:103DA0002E4608F1340BFA60C2F200091B93C2F2EE
:103DB000000A1490219111945A2004F003FE00226D
:103DC0004FF480714FF0904002F0FCF9119B1B689A
:103DD0003BB9119C022004F0F5FD2368002BF9D0BB
:103DE0001194129B1B68032B00F09080022B00F0B3
:103DF0009380042B00F0BC80052B00F0F680012B93
:103E000000F035813E2B00F06B813C2B00F02481CB
:103E100013B1129A013B136000232B703046FCF75C
:103E2000D7F9831ED8F80000E850EA18DAF8003015
:103E3000B8F804109180002B40D1139B1B78062BFF
:103E400032D87B69462B49D8149B7A681B6803F5E6
:103E5000A0739A42BB6840F29180B3F5A57F00F24F
:103E600091803046FCF7B4F941F25442C0F60102A9
:103E700003461068149AE85046231360FFF734FB9A
:103E80003046FCF7A5F9BBF8001029522B189BF817
:103E900002109970821C45F6E43092B23146C2F2AB
:103EA000000003F0A9FE87E7DA1F062A23D8BB69C2
:103EB000462B7AD9139A00231370E1E73046FCF7BA
:103EC00087F941F24C42C0F6010203461068E850FF
:103ED000FEF750F80023CAF80030AEE7139C072322
:103EE000012280214FF09040237002F06BF9159A67
:103EF00000231360C4E70E2B00F0B2800F2BBFD15C
:103F00007B69462BEAD8FFF7FFF9B9E7129A02233B
:103F10001360FFF7D1FC81E7179BD9F85800D3F85D
:103F2000A010D9F85420D9F808300890D9F80C001E
:103F30000791D9F804100692D9F800200593D9F812
:103F40001040D9F818300093CDE90304CDE90121E0
:103F5000129C012041F2E4212060D9E90723D9F81D
:103F60005C400994C0F60101304608F073F855E74B
:103F7000FFF750FC129A002313604FE7B3F5DA7F86
:103F8000FFF46FAF3046FCF723F941F25042C0F620
:103F9000010203461068149AE85000231360FEF7EC
:103FA00091FF1A9A0123D3636AE7149B7A681B680E
:103FB00003F5A0739A42BB6840F2B380B3F5A57FC6
:103FC00000F2B3803046FCF703F941F27041C0F6CD
:103FD000010103462A180868E8500B791371149AF6
:103FE00046231360FFF780FA4AE7232040F6C41106
:103FF00044F2740C43F2BC4311220D900C91F0205A
:104000004FF4AE71CDF83CC00E934FF0120C40F25D
:1040100093130B9208904FF4A572C8200791FA21D0
:10402000CDE90210CDF828C0099340F2B31C462315
:10403000069240F674414FF4A072CDE9043C00931F
:10404000019234230222C0F60101304608F002F842
:10405000129A00231360E1E6129A3B231360DDE617
:104060007B69462B3FF63AAFFEF72CFF08E71D9A17
:10407000129C10681E9A11681C9A00232360126813
:10408000BC680F907868FB680E91CDE90A0420980F
:104090000D920C933968006809911B99BA690968F7
:1040A0000892159A7B6912680793139B18921B78E4
:1040B0003A691F9C069222681992189A05906068C6
:1040C0000090CDE90232199A0491019241F29031A7
:1040D000A368E268C0F60101304607F0BBFF9DE629
:1040E000169CD4E90710A2696369246906901698A2
:1040F000C0680591169989680091CDE90332CDE930
:104100000104169A18EE101A53681268304607F028
:10411000A1FF129A1368002B3FF480AE013B13609D
:104120007CE6B3F5DA7FFFF44DAF3046FCF750F88C
:10413000034641F25840C0F60100219A0068E85059
:1041400014981268F9684FF0000CC0F800C01A9873
:1041500002F29312044691424FF00100E06301D253
:10416000F0297ED841F260417A69C0F6010103333B
:104170000868E850462A6AD9012280214FF0904011
:1041800002F020F8159A0023136046F2E411C2F2FF
:1041900000014C2229A806F0F2FF00231A462693BC
:1041A00000246023CDE9223422A90023082429A871
:1041B000CDE9243403F0F0F90023194629A803F0CF
:1041C00013F9012240214FF0904001F0FBFF002342
:1041D00046F2E4101946C2F2000003F07DF91B9B81
:1041E0002198F9681A460023136003601A9B012284
:1041F000B1F5CA7F1A62FFF443AE30461891FBF75F
:10420000E7FF41F26441C0F601011A9A03460868CB
:104210001799D2F830C0E850D1F89400C1F8800066
:10422000BCF1000F68D1906A18990122002868D16A
:1042300041F26842C0F60102033310681A99E8504F
:1042400001220023C1E90932179AD36718E6002238
:1042500080214FF0904001F0B5FF159A01231360C3
:1042600093E7DA1C41F25C411B9BC0F601011B681D
:104270000868A85073BB1A4640214FF0904018932D
:1042800001F0A0FF46F2E411C2F200014C2229A87D
:1042900006F075FF189B26931A464FF4FA746023B4
:1042A000CDE9223422A90023082429A8CDE9243409
:1042B00003F072F9189B29A8194603F095F8189B8A
:1042C00046F2E4101946C2F2000003F08DF81B9C80
:1042D00001232360012280214FF0904001F072FF02
:1042E0001598002202601A988262219A01231221F5
:1042F000116003608365C3E5926A002A7FF4C0AD54
:1043000096E7179C41F26C40C0F601000333C4F8F5
:104310009C101A990068E850C1E90BC2B0E500BFD3
:104320002DE9F84F40F26823C2F200032DED028B15
:104330001A68002A00F0FF81013A1A6046F2C4159B
:10434000FDF7F2FEC2F2000545F63830C2F2000079
:1043500001F034F92868FCF7D5F84FF460430022E7
:10436000C4F2AD03FCF748F94FF480430022C4F2D5
:104370008F03FCF76BFA00230022C4F23903FBF72A
:1043800085FF40F64003C0F60103D3E9002306464B
:104390000F46FCF7A3FB0446002840F0C8813046D6
:1043A0003946FCF701FC45F66843C2F200035B683E
:1043B000834280F0EE81C31A45F69814C2F20004DD
:1043C00068682360FCF79EF84FF460430022C4F253
:1043D000AD03FCF711F94FF480430022C4F28F03C0
:1043E000FCF734FA00230022C4F23903FBF74EFF36
:1043F00040F64003C0F60103D3E900238046894616
:10440000FCF76CFB0646002840F093814046494685
:10441000FCF7CAFB45F66843C2F200039B6883427F
:1044200000D2C61AD5ED027A66600023C4F2C82312
:1044300008EE903AF8EE677A4FF47043C4F27F5377
:1044400008EE103A67EEA87AC7EE887A17EE900A5F
:10445000FCF77AF845F2EB134FF00042C4F20A037E
:10446000FCF7CAF84FF4C0430022C4F27E03FCF705
:10447000C3F800230022C3F6B073FCF7BDF849F679
:104480009A1249F69913C9F69912C3F6B973FCF753
:10449000B3F8FCF789FBD5ED037AA060F8EE677AF4
:1044A00067EEA87AC7EE887A17EE900AFCF74CF808
:1044B00045F2EB134FF00042C4F20A03FCF79CF8FC
:1044C0004FF4C0430022C4F27E03FCF795F80023AA
:1044D0000022C3F6B073FCF78FF849F69A1249F63A
:1044E0009913C9F69912C3F6B973FCF785F8FCF76E
:1044F0005BFBE0602869FCF705F800230022C4F2AA
:10450000080343EC182B06460F46B0EE481AF0EEAF
:10451000681A47EC106B0BF0D3F932463B46304635
:1045200039465BEC10ABFCF767F844F22D3243F2EE
:10453000E263CEF61C32C3F60A73FCF75DF84FF265
:10454000857241F2940380468946CDF24362CBF6F0
:104550003E6350465946FCF74FF802460B4640462C
:104560004946FBF793FE45F6B41248F6DA23804637
:104570008946CBF6F512C3F6BD7330463946FCF7D3
:104580003BF802460B4640464946FBF77DFE45F2A6
:10459000EC124EF68533C1F6B862C4F25E03FBF747
:1045A00075FEFCF701FB0D3820616869FBF7AAFF77
:1045B000B0EE481AF0EE681A06460F4647EC106B4C
:1045C0000BF07EF932463B46304639465BEC10AB89
:1045D000FCF712F844F22D3243F2E263CEF61C32BD
:1045E000C3F60A73FCF708F84FF2857241F29403A0
:1045F00080468946CDF24362CBF63E63504659462B
:10460000FBF7FAFF02460B4640464946FBF73EFEE3
:1046100045F6B41248F6DA2380468946CBF6F51201
:10462000C3F6BD7330463946FBF7E6FF02460B463C
:1046300040464946FBF728FE45F2EC124EF685331C
:10464000C1F6B862C4F25E03FBF720FEFCF7ACFAD9
:104650000D386061A869FBF755FFB0EE481AF0EE1F
:10466000681A06460F4647EC106B0BF029F93246E4
:104670003B46304639465BEC10ABFBF7BDFF44F2DE
:104680002D3243F2E263CEF61C32C3F60A73FBF717
:10469000B3FF4FF2857241F2940380468946CDF212
:1046A0004362CBF63E6350465946FBF7A5FF0246F0
:1046B0000B4640464946FBF7E9FD45F6B41248F67D
:1046C000DA2380468946CBF6F512C3F6BD73304631
:1046D0003946FBF791FF02460B4640464946FBF739
:1046E000D3FD45F2EC124EF68533C1F6B862C4F242
:1046F0005E03FBF7CBFDFCF757FA03464FF48060EF
:104700000D3B4FF40071C4F60000A36101F054FDAD
:10471000BDEC028B40F2442240F24C23C2F2000274
:10472000C2F20003012110601960BDE8F88F002378
:1047300042E6002676E645F61C24C2F2000440F26A
:1047400050252368C2F2000501332360FDF704FA07
:104750002B680BB902232B6040F21403C2F2000352
:104760001A68002A7FF4E8AD6168226040F2100602
:10477000C2F2000601314FF03B08C3F800806160CF
:10478000FDF77AFE376803232B6027B1013F3760BE
:10479000D4E5234610E6FDF7CDFD40F20C03C2F24E
:1047A0000003A0681A68C6F8008040F25421C2F2E3
:1047B0000001013001256760A0600D60002A7FF4D0
:1047C000BBADE168A26001311722E1601A60B5E576
:1047D00002684FF48053C4F200039A4200D070473D
:1047E00000F0D8BA72B6FEE74FF48053C4F2020369
:1047F00082B0196E41F001011966196E01F00101D4
:1048000000910099996D41F0805199659B6D03F07D
:1048100080530193019B00220F216FF0010002B031
:1048200000F0FEBF70B50446A0B000215C2209A8CC
:10483000CDE90411CDE90611089106F0AEFC22681D
:104840000023C5F204039A4201D020B070BD4FF49A
:1048500080424FF0405309A809921D9302F0FCFAE0
:10486000002853D14FF48053C4F202034FF4006088
:10487000DA6C42F40052DA64DA6C02F4005201920B
:10488000019ADA6C42F00402DA64DA6C02F0040293
:104890000292029ADA6C42F00102DA64DB6C03F0F5
:1048A0000103039300260F220B2303990696C4F6F7
:1048B000000004A9CDE9042345F6F04501F078FB9A
:1048C00007220B2304A94FF09040C2F20005CDE966
:1048D0000423069601F06CFB0823C4F20203802037
:1048E0004FF400714FF400622B60286120232846AA
:1048F000C5E90166C5E90512EE602E62EB6100F0C4
:10490000D7FF30B9E564AC6220B070BDFFF76AFF35
:10491000A8E7FFF767FFF5E70368B3F1804F00D022
:1049200070474FF48053C4F2020382B09A6D42F094
:1049300001029A659B6D03F001030193019B02B094
:10494000704700BF02684FF48843C4F201039A42E3
:1049500000D070474FF48053C4F2020382B01A6E45
:1049600042F400321A661B6E03F400330193019B7C
:1049700002B0704770B5026888B00023B2F1804F72
:10498000CDE90233CDE90433069307D04FF48843D1
:10499000C4F201039A421FD008B070BD4FF4805397
:1049A000C4F202030120DA6C42F00102DA64DB6C2B
:1049B000069003F0010300930022002302A92024A3
:1049C00002254FF09040CDE90245CDE90423009E39
:1049D00001F0EEFA08B070BD4FF48053C4F2020348
:1049E0004FF48060DA6C42F00202DA64DB6C03F0B0
:1049F000020301930E23019A06930022002302A9C9
:104A0000C4F600004FF480740225CDE90245CDE9DB
:104A1000042301F0CDFA08B070BD00BFF0B500244A
:104A20009FB005465C22214607A8CDE90244CDE9A6
:104A30000444069406F0B1FB2A684FF46053C4F2B4
:104A400001039A4201D01FB0F0BD012307A80F94C3
:104A5000079302F001FA002874D14FF48053C4F296
:104A6000020307241A6E42F480421A661A6E02F498
:104A700080420092009ADA6C42F00102DA64DB6C48
:104A8000069403F0010301930022019B4FF400768A
:104A9000022302A94FF090400227CDE90423CDE97B
:104AA000026701F085FA4FF480620223CDE9022308
:104AB00002A9012202234FF0904045F69C36C2F233
:104AC0000006CDE90423069401F072FA4FF49063D6
:104AD000C4F20203022480212022336030460023E6
:104AE000C6E90233C6E9053374603161F2613362AD
:104AF00000F0DEFE60BB45F6EC24C2F2000440F29A
:104B00006C43C4F2020302271021802223602E6727
:104B100000232046C4E90332C4E90533C4E907335E
:104B2000B5626760A16000F0C3FE70B90022052184
:104B3000EC662520A56200F073FE252000F0AAFE99
:104B40001FB0F0BDFFF74EFE87E7FFF74BFEEDE726
:104B5000FFF748FECFE700BF30B5014689B000221D
:104B6000362000F05DFE362000F094FE4FF48053B6
:104B7000C4F2020301A99A6D42F010029A659B6D7E
:104B800003F01003029303A8029B02F0A7F802F0BF
:104B900079F84DF68363C4F21B33A3FB003046F271
:104BA0004034C2F20004830C4FF480510022013BD8
:104BB000C4F2000140F2E7352046C4E90013C4E91D
:104BC0000352A26002F0ECFA10B1012009B030BD2E
:104BD000204602F05FFB09B030BD00BFFEE700BF1A
:104BE000FEE700BFFEE700BFFEE700BFFEE700BF35
:104BF000704700BF45F6F040C2F2000000F066BF0B
:104C000010B545F6E434C2F20004204603F060F922
:104C10002368DB69DB0600D410BD2046BDE81040E8
:104C2000FDF758BF46F24030C2F2000002F0AABEC3
:104C300045F6EC20C2F2000000F048BF45F69C307B
:104C4000C2F2000000F042BF0120704708B506F034
:104C500073F9162303604FF0FF3008BD08B506F066
:104C60006BF916230360FEE770B5161E07DD0C46D0
:104C70008D19AFF3008004F8010BA542F9D130463D
:104C800070BD00BF70B5161E07DD0C468D1914F8F7
:104C9000010BAFF30080AC42F9D1304670BD00BFCC
:104CA0004FF0FF30704700BF4FF400534B600020BF
:104CB000704700BF012070470020704740F26C2110
:104CC000C2F2000110B540F2000240F200440B684D
:104CD000C2F20102C0F20004121B2BB11844904230
:104CE0000AD80860184610BD46F2E033C2F200034D
:104CF000184490420B60F4D906F01EF90C230360AF
:104D00004FF0FF33184610BD4FF46D43CEF2000351
:104D1000D3F8882042F47002C3F88820704700BF9F
:104D2000DFF834D0FFF7F0FF0C480D490D4A00239F
:104D300002E0D458C4500433C4188C42F9D30A4A50
:104D40000A4C002301E013600432A242FBD306F0B8
:104D5000EFF9FDF72FFCFEE7000001200000002026
:104D600020020020301A010820020020E063002009
:104D7000FEE7000010B5032000F03CFD0F20FFF718
:104D8000EBFE10B10124204610BD0446FFF72CFDB8
:104D9000204610BD46F28C3340F21C01C2F20003E3
:104DA000C2F2000118680A7802441A60704700BF16
:104DB00046F28C33C2F200031868704770B582B0B7
:104DC00000230193002800F0C180456D0446002DAA
:104DD00000F09880226893689D0005D5936823F0C1
:104DE000204323F03F0393609368D8001FD440F220
:104DF0001801C2F2000142F663500B6891689B09EA
:104E0000C0F23E50A0FB03039B0921F01041013387
:104E100021F03F015B0041F0805191600193019BC3
:104E20002BB1019B013B0193019B002BF9D19368AE
:104E3000D90059D4636D43F010036365A36D43F04B
:104E40000103A365936813F0040F4FF00100636D35
:104E500051D1DB064FD4636D23F4817343F0020319
:104E600063659368DE070FD40023C5F204039B68D3
:104E7000DD0709D44FF44071C5F2040165688B6801
:104E800023F47C132B438B60D4E90215636B2B4313
:104E90000B43657E94F8201043EA4533012943EA29
:104EA00001434ED0A16A21B1E56A01F47071294332
:104EB0000B43D5684CF20701CFF6F07129400B4344
:104EC000D3609368590723D593682369012B40D099
:104ED000136B23F00F031363636D23F0030343F09D
:104EE0000103636502B070BD936813F0040F4FF0C7
:104EF0000000636DADD0636D012043F01003636566
:104F000002B070BDFFF78EFCA56584F8505061E7D4
:104F100093681B07D9D4D16894F83030257E21F4EA
:104F200080415B0021F0020143EA85330B43D360EB
:104F300094F83830012B14D0136923F00103136166
:104F4000C3E7616A013943EA4143ABE7012002B09C
:104F500070BD116BE36921F00F01013B0B4313633B
:104F6000BAE7D4E90F361169656C21F4FF6121F0CD
:104F7000040133430B43A16C2B430B4343F0010368
:104F80001361A2E7704700BF704700BF08B5806A91
:104F9000FFF7FAFF08BD00BF704700BF836A5A6D74
:104FA00012F0500F10B55A6D1DD1196842F40072FD
:104FB0005A650A6812F0080FCA681BD012F4406FD5
:104FC0000DD1CA6894040AD45A6D22F480725A65CD
:104FD0005A6DD10403D45A6D42F001025A65184645
:104FE000FFF7D0FF10BDD2060AD4DB6CBDE810403D
:104FF0005B6B18479007E7D51846FFF7C3FFF1E74B
:105000001846FFF7C9FF10BD806A08B5436D43F02D
:1050100040034365836D43F004038365FFF7BCFFE2
:1050200008BD00BFF0B490F8502082B00346012ABA
:105030004FF00000019000F03E811C68012083F8D1
:105040005000A56815F004054CD14A68052A53D9CB
:1050500002F01F0C1F26920906FA0CF602F00C054E
:10506000F74304F1300208685659C0F384603E40AB
:1050700000FA0CF030435051A268550740F1B4805B
:10508000A2680A68A068C00745D515460022C8F284
:10509000080215423DD04FF44072C5F204020021CF
:1050A0009068CCF252718D4200F0E0762ED0002153
:1050B000CCF684318D4200F002810121C8F200015A
:1050C0008D4226D110F4800023D10021C5F20401C5
:1050D0008C421ED1916821F0E071314341F480018E
:1050E000916003E05A6D42F020025A65002283F875
:1050F000502002B0F0BC7047023A032A00F2F0815F
:10510000DFE812F0F800FE000401EF00010240F1B8
:1051100013810020EAE7CF68D4F8B0504FF6FF7053
:1051200007F01806C0F20700F040C2F3120C002688
:1051300025EA0C051040C4F27F062843B742C4F8A4
:10514000B0001546A2D1BCF1000F00F0E58092FA44
:10515000A2F0002800F05881B0FA80F0013000F091
:105160001F00092840F2508192FAA2F5002D00F0AC
:10517000A681B5FA85F50135AD0605F0F84592FA38
:10518000A2F0002800F0A281B0FA80F0013000F017
:105190001F00012606FA00F0054392FAA2F2002A47
:1051A00000F09081B2FA82F0013000F01F0000EBB5
:1051B0004000A0F11E02120542F000722A43D70DF2
:1051C00004F1140507F004078E687859C2F30452FD
:1051D0004FF0070C0CFA02FC20EA0C0006FA02F26F
:1051E00002437A510D6851E7A268120761D408683A
:1051F0008D68C70D04F1140607F00407C0F30450CE
:10520000BA594FF0070C0CFA00FC22EA0C0205FA1E
:1052100000F00243BA510E69E068042E1AD004F17E
:1052200060074FF4704C57F826200D68C0F2FF3C21
:1052300002EA0C0CC0F3C1004A69400005F0F845D1
:10524000824045EA0C052A4342F0004247F82620F6
:105250000A6817E70A68206E206EC2F31205C0F3D1
:105260008460002D40F0A080C2F38465A84200F065
:10527000EF80606E666E04F16000C6F3846604F130
:105280006407AE4200F009818668866800F108076D
:10529000C6F38466AE4200F0EF80C668C6680C3084
:1052A000C6F38466B5427FF4EDAE026822F0004298
:1052B00002600A68E6E6022002B0F0BC704710F017
:1052C00080707FF426AF0021C5F204018C427FF488
:1052D00020AF916821F0E071314341F0807191601D
:1052E00004E74FF480724A604FF0000C6FF01F0724
:1052F0000425B6E60C20486084466FF4F837B0E623
:105300001220486084466FF4F807AAE61820486027
:1053100084466FF0F857A4E6920E501C00F01F066A
:10532000092E33D88506012005F0F845B04006EB7C
:1053300046020543120541E70021C5F204018C42F3
:105340007FF4E7AE916821F0E071314340F218003C
:1053500041F40001C2F200009160026842F663511C
:105360009209C0F23E51A1FB02129209013202EBF6
:10537000420292000192019A002A3FF4CAAE019AB9
:10538000013A0192019A002AF9D1C2E606EB4602DF
:1053900085061E3A012005F0F84500FA06F61205CA
:1053A000354342F0007209E792FAA2F51DB1B5FA51
:1053B00085F5A8424CD0606E666E04F16000C6F3BD
:1053C000846604F1640792FAA2F51DB1B5FA85F579
:1053D000AE4262D08568866800F10807C6F384662D
:1053E00092FAA2F51DB1B5FA85F5AE4244D0C56872
:1053F000C6680C30C6F3846692FAA2F5002D3FF41D
:1054000041AEB5FA85F54DE792FAA2F5002D64D0CC
:10541000B5FA85F50135AD0605F0F84592FAA2F02A
:10542000002858D0B0FA80F0013000F01F000126AB
:1054300006FA00F0054392FAA2F2002A48D0B2FA26
:1054400082F0013000F01F0000EB40000205B5E6DD
:10545000226E204622F0004240F8602F0A68656EF6
:10546000666EC2F31205C6F3846604F16407002D6C
:10547000A9D1C2F3846504E73A6822F000423A6099
:105480000A68C568C668C2F31205C6F384660C30A4
:10549000002DB1D1C2F3846504E73A6822F00042DE
:1054A0003A600A6885688668C2F31205C6F38466A6
:1054B00000F10807002D93D1C2F38465EAE64FF0AE
:1054C00080655CE60022CFF6506277E6022063E654
:1054D0004FF4401272E60220ACE74FF080659DE782
:1054E0000620486084466FF4F867BAE570B582B06C
:1054F0000022036801929A68D20734D499683F2247
:10550000C8F200021142044630D19A6822F00042EB
:1055100022F03F024FF4407142F00102C5F2040153
:105520009A608B681B022CD4FFF742FC23681A6830
:10553000D607054617D44FF6C076C7F6FF769A68A9
:10554000D00704D49A68324042F001029A60FFF713
:105550002FFC431B022B236802D91A68D10705D5FB
:105560001A68D207EBD5002002B070BD636D43F01E
:1055700010036365A36D012043F00103A36502B02E
:1055800070BD40F21802C2F2000242F66351136885
:10559000C0F23E519B09A1FB03239B09013303EB9E
:1055A00043039B000193019B002BBDD0019B013B5A
:1055B0000193019B002BF9D1B6E700BF38B5036812
:1055C0009D6815F0040533D190F85030012B044646
:1055D0002ED0012380F85030FFF788FF50BB636D59
:1055E00023F4706323F0010343F480736365636DF8
:1055F000DA0448BFA36D226852BFA06523F00603FA
:10560000A3651C210023116084F85030D3689B01EE
:1056100005D5636D23F4405343F480536365936869
:1056200023F0004323F03F0343F00403936038BDAD
:10563000022038BD84F8505038BD00BFF8B503686B
:105640009D6815F004054AD190F85030012B0446AE
:1056500045D0012380F850300F461646FFF746FF2D
:1056600000283ED1636DE06C216823F4706323F061
:10567000010343F480736365636D13F480531CBFAF
:10568000A36D23F00603A36544F69D73C0F60003E3
:10569000C36244F68D7245F20903C0F60002C0F6FB
:1056A0000003026343631C2200230A6084F8503025
:1056B0004B6843F010034B60CD6845F0010533465D
:1056C0003A46CD60403100F06FF92268936823F0CC
:1056D000004323F03F0343F004039360F8BD02202E
:1056E000F8BD84F85050F8BD38B503689A6895073E
:1056F00002D59B68002038BD9A68D4072CD59A68DB
:1057000002F00D02012A044609D0636D43F0100334
:105710006365A36D43F00103A365012038BD9A685A
:1057200022F0004222F03F02032142F002029A607E
:105730001960FFF73DFB23689B68D90705460BD529
:10574000FFF736FB401B0228236802D99A68D2076C
:10575000DBD49B68DB07F3D4002038BD30B590F86C
:10576000503083B00022012B01923FD0012380F8FA
:10577000503004460D46FFF7B7FF636DE0B923F4E0
:10578000885323F00203226843F0020363659368A1
:1057900023F0404305F0804523F03F032B4343F0C3
:1057A000004393609368002B0EDB636D23F00303CB
:1057B00043F00103636502E043F0100363650023D7
:1057C00084F8503003B030BD019B01330193019B3D
:1057D000B3F5912FE6D3636D23F0120343F010036A
:1057E0000022636584F850200120EBE7022003B01B
:1057F00030BD00BF4FF46D42CEF2000210B4D1684C
:105800004FF6FF040002214000F4E0630B4343F035
:10581000BF6343F400335DF8044BD360704700BFAF
:105820004FF46D43CEF2000330B4DB68C3F30223C0
:10583000C3F10705042D03F1040428BF0425062C39
:1058400019D9033B4FF0FF349C4022EA04024FF089
:10585000FF34AC4021EA04019940002841EA0201EA
:105860000CDB00F1604000F561400901C9B280F82D
:10587000001330BC704700221346E8E74EF6FC43A5
:1058800000F00F00CEF2000309010344C9B21976FB
:1058900030BC704700280ADB4FF4614200F01F0162
:1058A000CEF20002400901238B4042F820307047BD
:1058B000002866D0034640F207420068C4F20202A4
:1058C0009042F0B44CD94FF6F831CBF6FD714CF65E
:1058D000CD420144CCF6CC42A2FB012109094FF490
:1058E00080648900C4F20204D3E90252D3E9047649
:1058F0002A433A43022783F825709F691C64324388
:105900003A43DF69066859643A431F6A26F4FF4642
:105910003A4326F070063243B5F5804F026016D048
:105920000022C4F2020294422DD04FF49562C4F2D8
:10593000020201F01C0110680F248C4020EA0400D0
:1059400010605868146800FA01F1214311600020CA
:105950000122D86383F8240083F82520F0BC704727
:105960004FF6F871CBF6FD714CF6CD420144CCF602
:10597000CC42A2FB0121090900248900C4F20204DF
:10598000B2E701207047A822C4F2020201F01C0114
:1059900014680F258D4024EA0504146058681468C3
:1059A000884020431060D2E7F0B490F82440012CE6
:1059B0003DD090F825400126B442E5B280F824603D
:1059C00005D0002380F82430F0BC02207047046822
:1059D000D0F840C00227002680F82570C663476CC7
:1059E000266807F01C0726F001062660BD40866881
:1059F000CCF804506360036B102E0BBFA260A16053
:105A0000E160E26053B1236843F00E032360236832
:105A100043F0010323600020F0BC7047236823F0AB
:105A200004032360236843F00A032360EFE70220A6
:105A3000F0BC704790F82520022A034606D00421C6
:105A40000022C16380F82420012070470168426C65
:105A5000086820F00E0030B41D6C0860086801244E
:105A600020F0010002F01C02086004FA02F200219A
:105A70006A6083F8254083F82410084630BC7047DC
:105A800090F82520022A03D00422C2630120704727
:105A90000168426C70B50C68066C856B24F00E04CE
:105AA0000C600C6824F001040C6002F01C0201215F
:105AB00001FA02F20024726080F8251080F8244078
:105AC00015B1A847204670BD284670BD70B4D0E916
:105AD000106304223168056803F01C039A400A42EF
