:020000040800F2
:100000000000012065380008213700082537000866
:10001000293700082D37000831370008000000009C
:10002000000000000000000000000000D192000865
:10003000353700080000000071930008D5710008F2
:10004000B5380008B5380008B5380008B5380008DC
:10005000B5380008B5380008B5380008B5380008CC
:10006000B5380008B5380008B53800083937000839
:10007000B5380008B5380008B5380008B5380008AC
:10008000B5380008B5380008B5380008B53800089C
:10009000B5380008B5380008B5380008B53800088C
:1000A000B5380008B5380008B5380008B53800087C
:1000B000B53800080000000000000000B538000856
:1000C000B5380008B5380008B5380008B53800085C
:1000D000B538000845370008B5380008B5380008BD
:1000E000B5380008B5380008000000000000000026
:1000F0000000000000000000000000000000000000
:1001000000000000B538000800000000B538000805
:10011000000000000000000069370008B538000842
:10012000B5380008B5380008B5380008B5380008FB
:10013000B5380008000000000000000000000000CA
:10014000B5380008B5380008B538000800000000D0
:100150007537000881370008B5380008B538000841
:10016000B5380008B5380008B538000800000000B0
:10017000B5380008B5380008000000000000000095
:0C018000B5380008B5380008B538000894
:1001900010B5054C237833B9044B13B10448AFF3C1
:1001A00000800123237010BD180200200000000011
:1001B00034F1000808B5034B1BB103490348AFF302
:1001C000008008BD000000001C02002034F100087F
:1001D000034613F8012B002AFBD1181A0138704787
:1001E00001F0FF01102A2BDB10F0070F08D010F8E8
:1001F000013B013A8B422DD010F0070F42B3F6D1EC
:10020000F0B441EA012141EA014122F007047FF004
:1002100000070023F0E80256083C85EA010586EA5B
:10022000010685FA47F5A3FA87F586FA47F6A5FA97
:1002300087F68EB9EED1F0BC01F0FF0102F00702A3
:1002400032B110F8013B013A83EA010313B1F8D14E
:100250000020704701387047002D06BF354603382F
:10026000073815F0010F07D1013015F4807F02BF68
:10027000013015F4C03F0130F0BC0138704700BFB9
:1002800081F0004102E000BF83F0004330B54FEA47
:1002900041044FEA430594EA050F08BF90EA020FB4
:1002A0001FBF54EA000C55EA020C7FEA645C7FEA47
:1002B000655C00F0E2804FEA5454D4EB5555B8BF6A
:1002C0006D420CDD2C4480EA020281EA030382EADB
:1002D000000083EA010180EA020281EA0303362D6D
:1002E00088BF30BD11F0004F4FEA01314FF4801C40
:1002F0004CEA113102D0404261EB410113F0004F52
:100300004FEA03334CEA133302D0524263EB430308
:1003100094EA050F00F0A780A4F10104D5F1200EA6
:100320000DDB02FA0EFC22FA05F2801841F1000101
:1003300003FA0EF2801843FA05F359410EE0A5F1D5
:1003400020050EF1200E012A03FA0EFC28BF4CF006
:10035000020C43FA05F3C01851EBE37101F00045BC
:1003600007D54FF0000EDCF1000C7EEB00006EEBC9
:100370000101B1F5801F1BD3B1F5001F0CD3490853
:100380005FEA30004FEA3C0C04F101044FEA4452AA
:1003900012F5800F80F09A80BCF1004F08BF5FEA31
:1003A000500C50F1000041EB045141EA050130BD11
:1003B0005FEA4C0C404141EB0101013C28BFB1F523
:1003C000801FE9D291F0000F04BF01460020B1FA6E
:1003D00081F308BF2033A3F10B03B3F120020CDA41
:1003E0000C3208DD02F1140CC2F10C0201FA0CF01F
:1003F00021FA02F10CE002F11402D8BFC2F1200C84
:1004000001FA02F120FA0CFCDCBF41EA0C01904039
:10041000E41AA2BF01EB0451294330BD6FEA040482
:100420001F3C1CDA0C340EDC04F11404C4F120026D
:1004300020FA04F001FA02F340EA030021FA04F37F
:1004400045EA030130BDC4F10C04C4F1200220FAD6
:1004500002F001FA04F340EA0300294630BD21FA14
:1004600004F0294630BD94F0000F83F4801306BFDA
:1004700081F480110134013D4EE77FEA645C18BFCE
:100480007FEA655C29D094EA050F08BF90EA020F65
:1004900005D054EA000C04BF1946104630BD91EA5D
:1004A000030F1EBF0021002030BD5FEA545C05D160
:1004B0004000494128BF41F0004130BD14F580049F
:1004C0003CBF01F5801130BD01F0004545F0FE4113
:1004D00041F470014FF0000030BD7FEA645C1ABF48
:1004E000194610467FEA655C1CBF0B46024650EA7F
:1004F000013406BF52EA033591EA030F41F40021AB
:1005000030BD00BF90F0000F04BF0021704730B530
:100510004FF4806404F132044FF000054FF0000105
:1005200050E700BF90F0000F04BF0021704730B5C6
:100530004FF4806404F1320410F0004548BF40429B
:100540004FF000013EE700BF42004FEAE2014FEAF0
:1005500031014FEA02701FBF12F07F4393F07F4FCB
:1005600081F06051704732F07F4208BF704793F0CE
:100570007F4F04BF41F40021704730B54FF46074E1
:1005800001F0004521F000411CE700BF50EA0102E4
:1005900008BF704730B54FF000050AE050EA01028D
:1005A00008BF704730B511F0004502D5404261EBFD
:1005B00041014FF4806404F132045FEA915C3FF43E
:1005C000D8AE4FF003025FEADC0C18BF03325FEADB
:1005D000DC0C18BF033202EBDC02C2F1200300FA8C
:1005E00003FC20FA02F001FA03FE40EA0E0021FAB1
:1005F00002F11444BDE600BF70B54FF0FF0C4CF49F
:10060000E06C1CEA11541DBF1CEA135594EA0C0F50
:1006100095EA0C0F00F0DEF82C4481EA030621EA8B
:100620004C5123EA4C5350EA013518BF52EA0335C6
:1006300041F4801143F4801338D0A0FB02CE4FF078
:100640000005E1FB02E506F00042E0FB03E54FF0A8
:100650000006E1FB03569CF0000F18BF4EF0010EA0
:10066000A4F1FF04B6F5007F64F5407404D25FEA9C
:100670004E0E6D4146EB060642EAC62141EA55514F
:100680004FEAC52040EA5E504FEACE2EB4F1FD0C91
:1006900088BFBCF5E06F1ED8BEF1004F08BF5FEA0F
:1006A000500E50F1000041EB045170BD06F00046C1
:1006B00046EA010140EA020081EA0301B4EB5C046E
:1006C000C2BFD4EB0C0541EA045170BD41F4801166
:1006D0004FF0000E013C00F3AB8014F1360FDEBF8B
:1006E000002001F0004170BDC4F10004203C35DA67
:1006F0000C341BDC04F11404C4F1200500FA05F3EA
:1007000020FA04F001FA05F240EA020001F000428A
:1007100021F0004110EBD37021FA04F642EB060100
:100720005EEA430E08BF20EAD37070BDC4F10C042A
:10073000C4F1200500FA04F320FA05F001FA04F2EE
:1007400040EA020001F0004110EBD37041F10001DA
:100750005EEA430E08BF20EAD37070BDC4F12005E5
:1007600000FA05F24EEA020E20FA04F301FA05F24D
:1007700043EA020321FA04F001F0004121FA04F2F5
:1007800020EA020000EBD3705EEA430E08BF20EAC5
:10079000D37070BD94F0000F0FD101F000464000FF
:1007A00041EB010111F4801F08BF013CF7D041EA81
:1007B000060195F0000F18BF704703F00046520085
:1007C00043EB030313F4801F08BF013DF7D043EA56
:1007D0000603704794EA0C0F0CEA135518BF95EA0C
:1007E0000C0F0CD050EA410618BF52EA4306D1D193
:1007F00081EA030101F000414FF0000070BD50EAB2
:10080000410606BF1046194652EA430619D094EA3B
:100810000C0F02D150EA013613D195EA0C0F05D125
:1008200052EA03361CBF104619460AD181EA030179
:1008300001F0004141F0FE4141F470014FF0000031
:1008400070BD41F0FE4141F4780170BD70B54FF0CC
:10085000FF0C4CF4E06C1CEA11541DBF1CEA13554C
:1008600094EA0C0F95EA0C0F00F0A7F8A4EB05042E
:1008700081EA030E52EA03354FEA013100F0888025
:100880004FEA03334FF0805545EA131343EA1263EE
:100890004FEA022245EA111545EA10654FEA0026A3
:1008A0000EF000419D4208BF964244F1FD0404F55C
:1008B000407402D25B084FEA3202B61A65EB0305B8
:1008C0005B084FEA32024FF480104FF4002CB6EB75
:1008D000020E75EB030E22BFB61A754640EA0C00F5
:1008E0005B084FEA3202B6EB020E75EB030E22BF35
:1008F000B61A754640EA5C005B084FEA3202B6EB76
:10090000020E75EB030E22BFB61A754640EA9C0034
:100910005B084FEA3202B6EB020E75EB030E22BF04
:10092000B61A754640EADC0055EA060E18D04FEAC2
:10093000051545EA16754FEA06164FEAC30343EA62
:1009400052734FEAC2025FEA1C1CC0D111F4801F2F
:100950000BD141EA00014FF000004FF0004CB6E728
:1009600011F4801F04BF01430020B4F1FD0C88BFC7
:10097000BCF5E06F3FF6AFAEB5EB030C04BFB6EBD2
:10098000020C5FEA500C50F1000041EB045170BDC5
:100990000EF0004E4EEA113114EB5C04C2BFD4EBF2
:1009A0000C0541EA045170BD41F480114FF0000E76
:1009B000013C90E645EA060E8DE60CEA135594EAF2
:1009C0000C0F08BF95EA0C0F3FF43BAF94EA0C0FF5
:1009D0000AD150EA01347FF434AF95EA0C0F7FF46A
:1009E00025AF104619462CE795EA0C0F06D152EABE
:1009F00003353FF4FDAE1046194622E750EA4106A2
:100A000018BF52EA43067FF4C5AE50EA41047FF4B2
:100A10000DAF52EA43057FF4EBAE12E74FF0FF3C17
:100A200006E000BF4FF0010C02E000BF4FF0010CE8
:100A30004DF804CD4FEA410C7FEA6C5C4FEA430C61
:100A400018BF7FEA6C5C1BD001B050EA410C0CBFB0
:100A500052EA430C91EA030F02BF90EA020F002012
:100A6000704710F1000F91EA030F58BF994208BF79
:100A700090422CBFD8176FEAE37040F00100704736
:100A80004FEA410C7FEA6C5C02D150EA013C07D18D
:100A90004FEA430C7FEA6C5CD6D152EA033CD3D0D8
:100AA0005DF8040B704700BF8446104662468C46D2
:100AB0001946634600E000BF01B5FFF7B7FF002805
:100AC00048BF10F1000F01BD4DF808EDFFF7F4FF2E
:100AD0000CBF012000205DF808FB00BF4DF808EDB9
:100AE000FFF7EAFF34BF012000205DF808FB00BFDC
:100AF0004DF808EDFFF7E0FF94BF012000205DF8FE
:100B000008FB00BF4DF808EDFFF7CEFF94BF0120B2
:100B100000205DF808FB00BF4DF808EDFFF7C4FFAB
:100B200034BF012000205DF808FB00BF4FEA410CF4
:100B30007FEA6C5C02D150EA013C0AD14FEA430CD7
:100B40007FEA6C5C02D152EA033C02D14FF0000014
:100B500070474FF0010070474FEA410212F5001252
:100B600015D211D56FF47873B3EB625212D94FEAF4
:100B7000C12343F0004343EA505311F0004F23FADE
:100B800002F018BF404270474FF00000704750EA33
:100B9000013005D111F0004008BF6FF000407047F0
:100BA0004FF00000704700BF4A0011D212F500124A
:100BB00011D20DD56FF47873B3EB62520ED44FEAB5
:100BC000C12343F0004343EA505323FA02F0704735
:100BD0004FF00000704750EA013002D14FF0FF3073
:100BE00070474FF0000070474FEA4102B2F1E04316
:100BF00024BFB3F5001CDCF1FE5C0DD901F0004C04
:100C00004FEAC0024CEA5070B2F1004F40EB830053
:100C100008BF20F00100704711F0804F21D113F17F
:100C20003872BCBF01F00040704741F480114FEAB8
:100C30005252C2F11802C2F1200C10FA0CF320FA41
:100C400002F018BF40F001004FEAC1234FEAD3235E
:100C500003FA0CFC40EA0C0023FA02F34FEA4303C8
:100C6000CCE77FEA625307D150EA01331EBF4FF051
:100C7000FE4040F44000704701F0004040F0FE406C
:100C800040F40000704700BF53B94AB9002908BFBB
:100C900000281CBF4FF0FF314FF0FF3000F0A4B927
:100CA000ADF1080C6DE904CE00F03CF8DDF804E08D
:100CB000DDE9022304B0704738B500220023044662
:100CC0000D46FFF70BFF28B920462946BDE83840FE
:100CD00000F00AB8204605F1004100F005F8404256
:100CE00061EB410138BD00BFD0B50C4B0022064678
:100CF0000F46FFF781FCFFF757FF0446FFF702FCA2
:100D0000074B0022FFF778FC02460B463046394677
:100D1000FFF7BAFAFFF748FF2146D0BD0000F03DCB
:100D20000000F0412DE9F047089D04468C46002B59
:100D300040F083808A42174647D9B2FA82F242B124
:100D4000C2F1200024FA00F09140974040EA010CE3
:100D500094404FEA1748230CBCFBF8F61FFA87FEB5
:100D600008FB16C143EA014306FB0EF1994209D97B
:100D7000FB1806F1FF3080F01981994240F216818C
:100D8000023E3B445B1AA4B2B3FBF8F008FB1033FD
:100D900044EA034400FB0EFEA64509D93C1900F1C4
:100DA000FF3380F00581A64540F2028102383C44C1
:100DB00040EA0640A4EB0E0400261DB1D4400023F7
:100DC000C5E900433146BDE8F08702B9FFDEB2FA5B
:100DD00082F2002A50D1CB1B4FEA174E1FFA87F838
:100DE0000126B3FBFEFC210C0EFB1C3341EA034140
:100DF00008FB0CF38B4207D979180CF1FF3002D2B3
:100E00008B4200F2E9808446C91AA3B2B1FBFEF01E
:100E10000EFB101143EA014408FB00F8A04507D976
:100E20003C1900F1FF3302D2A04500F2D9801846E8
:100E3000A4EB080440EA0C40BFE78B4209D9002D1F
:100E400000F0B1800026C5E9000130463146BDE81A
:100E5000F087B3FA83F6002E4AD18B4202D3824246
:100E600000F2B880841A61EB030101208C46002D4A
:100E7000A8D0C5E9004CA5E7C2F1200320FA03F68B
:100E8000974001FA02F04FEA174ED9403043030C65
:100E9000B1FBFEF61FFA87F80EFB161143EA014379
:100EA00006FB08F1994204FA02F409D9FB1806F18D
:100EB000FF3C80F08D80994240F28A80023E3B44A4
:100EC0005B1A81B2B3FBFEF00EFB103341EA034123
:100ED00000FB08F38B4207D9791800F1FF3C73D26D
:100EE0008B4271D902383944CB1A40EA064678E77A
:100EF000C6F1200C03FA06F422FA0CF31C4320FA84
:100F00000CF701FA06F34FEA144E21FA0CF11F43D5
:100F10003B0CB1FBFEF91FFA84F80EFB191143EAF2
:100F2000014109FB08FA8A4502FA06F200FA06F3C3
:100F300008D9611809F1FF3048D28A4546D9A9F18C
:100F400002092144A1EB0A01BFB2B1FBFEF00EFB86
:100F5000101147EA014700FB08F8B84507D9E7191F
:100F600000F1FF312ED2B8452CD90238274440EA8F
:100F70000940A7EB0807A0FB02894F45C646494632
:100F80001AD317D05DB1B3EB0E0267EB010707FA76
:100F90000CFCF2404CEA0202F740C5E900270026AB
:100FA0003146BDE8F0872E4628460BE70646E9E6BF
:100FB0001846FDE64345E5D2B8EB020E69EB0401A5
:100FC0000138DFE70846D2E760468DE78146B9E79A
:100FD000664675E730464AE7ACF1020C394413E740
:100FE00002383C4424E700BF704700BF704700BF91
:100FF00000207047704700BF08B545F68C13C2F259
:1010000000031B780D2B76D8DFE803F00F6C6359D3
:10101000074F360F6C6359074F3645F6F033C2F26F
:1010200000039B6BB3F5615F2FD945F69013C2F2B5
:1010300000035B69502B0FD8002280214FF09040B5
:1010400003F0DAFD40F24023C2F2000301221A60ED
:10105000BDE8084000F022BE012280214FF0904000
:1010600003F0CAFD40F24023C2F2000300221A60DE
:10107000BDE8084000F012BE45F6F033C2F20003AE
:1010800045F260429B6B9342CFD8012280214FF002
:10109000904003F0B1FD40F24023C2F20003002271
:1010A0001A60BDE8084000F0F9BD45F6F033C2F221
:1010B000000344F250629B6B9342E6D9B5E745F6D4
:1010C000F033C2F2000342F630229B6B9342DCD92C
:1010D000ABE745F6F033C2F200039B6BB3F5E15F7B
:1010E000D3D9A2E745F6F033C2F200039B6BB3F508
:1010F000616FCAD999E745F69013C2F200035B69A4
:10110000502B0CD9012280214FF0904003F074FD48
:1011100040F24023C2F2000300221A6008BD002200
:1011200080214FF0904003F067FD40F24023C2F26F
:10113000000301221A6008BD2DE9F04F46F22C246D
:10114000C2F200049DB023681B2B00F22E81DFE861
:1011500013F0F3006F001C001C001C001C001C009E
:101160001C001C001C001C001C001C001C001C009F
:101170001C001C0021002100210021002100210071
:1011800021002100210021000301013323601DB053
:10119000BDE8F08F45F69013C2F200035B69502B57
:1011A00040F2F080012280214FF0904003F024FDB6
:1011B00040F24023C2F2000300221A60236846F284
:1011C000E0110133002508A8C2F200014C2260267C
:1011D0000027236008F063FC2A46CDE900676946D2
:1011E0000026002708A8CDE90267CDE90467069527
:1011F00004F0ECFE294608A804F010FE46F2E010C8
:101200002946C2F2000004F081FE4FF48060022300
:1012100008A9C4F600004FF400760027CDE90B556D
:10122000CDE908670A9303F0DDFB1DB0BDE8F08F40
:1012300046F20413C2F2000346F2241100250126EF
:1012400008A8C2F200014C224FF060084FF00009DC
:101250001E6008F024FCCDE900892A46694608A8EA
:101260004FF000084FF00809CDE90289049504F019
:10127000ADFE294608A804F0D1FD324640214FF0CA
:10128000904003F0B9FC46F224102946C2F2000057
:1012900004F03CFE40F23823C2F2000332468021C3
:1012A0004FF090401D6003F0A7FC45F60423C2F206
:1012B000000340F24027DA6AC2F2000746F2E0116A
:1012C00096194FF0020808A8C2F200014C22DE6213
:1012D0003D6000260027C4F800804FF0600A08F047
:1012E000DEFB4FF0C80B2A46694608A8CDE900ABE3
:1012F000CDE90267CDE90467069504F067FE29464B
:1013000008A804F08BFD46F2E0102946C2F2000066
:1013100004F084FD4FF480604FF40072002308A9AC
:10132000C4F60000CDE90A85CDE908230C9503F049
:1013300059FB1DB0BDE8F08F45F69013C2F20003D3
:101340001B68B3F5967F40F20003C2F2000314D984
:1013500040F6C3121A601AE746F2041240F2000384
:10136000C2F20002C2F20003002140F6C410116074
:10137000216018601DB0BDE8F08F1A687AB90123AA
:10138000236004E7002280214FF0904003F034FCFA
:1013900040F24023C2F2000301221A600EE7013A34
:1013A0001A60002A7FF4F3AEE9E746F20413C2F2B2
:1013B000000300221A602260E9E600BF2DE9F04335
:1013C00046F22C24C2F200049DB023681B2B00F2CD
:1013D000FB80DFE803F0B6630E0E0E0E0E0E0E0E4F
:1013E0000E0E0E0E0E0E0E131313131313131313F0
:1013F00013C6013323601DB0BDE8F08345F690139A
:10140000C2F200035B69502B40F2C88001228021A8
:101410004FF0904003F0F0FB40F24023C2F2000393
:1014200000221A6000F03AFC236846F2E011013312
:10143000002508A8C2F200014C2260260027236084
:1014400008F02DFB2A46CDE90067694600260027F3
:1014500008A8CDE90267CDE90467069504F0B6FD5A
:10146000294608A804F0DAFC46F2E0102946C2F248
:10147000000004F04BFD4FF48060022308A9C4F67D
:1014800000004FF400760027CDE90B55CDE9086741
:101490000A9303F0A7FA1DB0BDE8F08346F20413E7
:1014A000C2F20003012280214FF090401A6003F045
:1014B000A3FB45F60423C2F2000340F24026DA6C97
:1014C000C2F20006013246F2E0110025DA6402277A
:1014D000C2F2000108A84C224FF060084FF0C80982
:1014E0003560276008F0DBFA2A46CDE900896946B5
:1014F0004FF000084FF0000908A8CDE90289CDE9B6
:101500000489069504F062FD294608A804F086FCCB
:1015100046F2E0102946C2F2000004F07FFC4FF4CE
:1015200080604FF40072002308A9C4F60000CDE9E2
:101530000A75CDE908230C9503F054FA1DB0BDE8F7
:10154000F08345F69013C2F2000343F2C7221B68F2
:10155000934216D840F20003C2F200032C221A6014
:1015600049E746F2041240F20003C2F20002C2F25E
:10157000000300212D201160216018601DB0BDE81E
:10158000F08344F25062934240F20003C2F200033F
:1015900011D81A6892B9012323602CE70022802118
:1015A0004FF0904003F028FB40F24023C2F20003CA
:1015B00001221A6036E700221A60ECE7013A1A604D
:1015C000002A7FF418AFE6E746F20413C2F20003E4
:1015D00000221A6022600EE738B545F6AC14C2F25C
:1015E00000042368002B44D145F69015C2F2000593
:1015F000AB69502B17D94FF48060C4F6000001226C
:101600004FF4004103F0F8FA6B69502B59D84FF4AE
:101610008060C4F6000001224FF4005103F0ECFAA0
:101620000123236038BD6B69502B4AD845F6B013AF
:10163000C2F200031A6A002A4DD11A69002A5FD14A
:10164000DA68002A68D19A68002A7DD1D3E900219E
:101650000A4355D1DB69002BE4D04FF48060C4F617
:10166000000001224FF4804103F0C6FA09232360F1
:1016700038BD4FF48060013BC4F6000000224FF4F7
:101680000041236003F0B8FA4FF48060C4F6000014
:1016900000224FF4804103F0AFFA4FF48060C4F6AB
:1016A000000000224FF4005103F0A6FA4FF48060CE
:1016B000BDE83840C4F6000000224FF4805103F02A
:1016C0009BBA4FF48060C4F6000001224FF48041C1
:1016D00003F092FA9BE74FF48060C4F60000012209
:1016E0004FF4004103F088FA4FF48060C4F6000024
:1016F00001224FF4804103F07FFA0123236038BDBB
:101700004FF48060C4F6000001224FF4004103F062
:1017100073FA0123236038BD40F24023C2F2000374
:101720004FF480601B68C4F6000001224FF4804132
:101730002BB140F23823C2F200031B6883B903F0D7
:101740005BFA0323236038BD4FF48060C4F60000C9
:1017500001224FF4004103F04FFA0923236038BD02
:1017600003F04AFA0123236038BD00BF80B584B07E
:1017700000AF0023BB6000237B6046F20013C2F27F
:10178000000300221A600023FB603BE004233B605F
:1017900010E03B68013B3B60BB681A0240F200036B
:1017A000C0F60203F968C90219443B680B441B7870
:1017B0001343BB603B68002BEBD1BB68B3F1FF3F29
:1017C00001D10023BB60BA687B689A420FD946F208
:1017D0000013C2F20003FA681A60BB687B604FF422
:1017E00000514FF48060C4F6000003F00BFA4FF490
:1017F00080414FF48060C4F6000003F003FAFB68F8
:101800000133FB60FB682F2BC0D900224FF48041CD
:101810004FF48060C4F6000003F0EEF900224FF4AC
:1018200000514FF48060C4F6000003F0E5F9002396
:10183000FB6017E046F20013C2F200031968FA6871
:1018400046F27013C2F200031A4440F20003C0F6DD
:101850000203C9021944FB680B441B781370FB6830
:101860000133FB60FB686F2BE4D946F27013C2F2C0
:101870000003DB69B3F1FF3F19D10023FB6012E0E5
:10188000FA6845F60423C2F20003134400221A70DA
:10189000FA6846F27013C2F20003134400221A7071
:1018A000FB680133FB60FB686F2BE9D90DE045F65F
:1018B0000422C2F2000246F27013C2F20003104684
:1018C000194670231A4608F0EAF800BF1037BD46E3
:1018D00080BD00BF80B588B000AF0023FB6100234E
:1018E000BB6145F6FC43C2F200031B68184605F0D5
:1018F00065FD46F27012C2F2000245F60423C2F200
:1019000000031046194670231A4608F0C8F846F23C
:101910000013C2F200031B682E2B0BD846F20013F3
:10192000C2F200031B685A1C46F20013C2F2000305
:101930001A6005E046F20013C2F2000300221A60AA
:1019400045F60423C2F200031B685A1C45F6042323
:10195000C2F200031A6000237B6001233B6146F260
:101960000013C2F200031B684033FB600123BB601D
:1019700002F0D8FE4FF40053C4F20203B3221A61FE
:1019800007F114023B1D1146184602F02BFF02F02E
:10199000DFFE02F0C7FE4FF40053C4F20203B3228D
:1019A0001A612FE046F20013C2F200031B68DA024C
:1019B000BB691A4440F20003C0F6020313441946FF
:1019C000FB69DA0046F27013C2F200031344D3E954
:1019D0000023002002F0E4FD0346002B06D1BB6982
:1019E0000833BB61FB690133FB610BE045F6FC4347
:1019F000C2F200031B686421184605F0C7FC02F020
:101A0000B1FE0DE0FB690D2BCCD902F0A1FE45F62D
:101A1000FC43C2F200031B686421184605F0B6FCC3
:101A20002037BD4680BD00BF45F6B013C2F20003AB
:101A3000F0B41A68002A40F0C08045F69012C2F255
:101A40000002D16850685C688CB145F6F034C2F28F
:101A5000000441F259776568CDF2B71701FB00F633
:101A6000A7FB067605EB5635002665605E609C6830
:101A7000002C40F08D801468DD688DB145F6F0359E
:101A8000C2F2000541F2597CEE68CDF2B71C01FBB1
:101A900004F7ACFB07C706EB57360027EE60DF60A4
:101AA0001D698DB145F6F035C2F2000541F2597C51
:101AB0002E69CDF2B71C01FB00F7ACFB07C706EBA4
:101AC000573600272E611F61DD6945B145F6F035B7
:101AD000C2F200050027EE69DF610136EE611D6A82
:101AE00045B145F6F035C2F2000500272E6A1F62A7
:101AF00001362E629D6945B145F6F035C2F200050A
:101B00000027AE699F610136AE619D6B45B145F618
:101B1000F035C2F200050027AE6B9F630136AE635D
:101B2000DD6B45B145F6F035C2F200050027EE6BDE
:101B3000DF630644EE631D6C45B145F6F035C2F235
:101B4000000500272E6C1F6426442E6445F60423EE
:101B5000C2F2000355695E6B9269B54288BF5D634E
:101B60009D6BAA4288BF9A63DA6BA2421A6C38BF97
:101B7000DC6382425A6C38BF18648A4238BF5964A9
:101B8000F02903D99A6CEF2A30D89964F0BC7047D9
:101B900045F6F037C2F2000714689568BE6841F256
:101BA000597C05FB04F5CDF2B71CACFB05C506EB73
:101BB00055350026BD609E605EE745F69012C2F284
:101BC000000245F6F034C2F20004D168506825687E
:101BD00041F2597700FB01F6CDF2B717A7FB067665
:101BE00005EB5635002625601E602CE78A42CDD9CC
:101BF0009964CBE745F6F033C2F20003F0B5D3E9C0
:101C000000054BF2C531C9F2A21145F60422C2F219
:101C10000002A1FB0060D3E90247C00AA1FB055EF8
:101C20001E69DD6B50609068A1FB044CA1FB074767
:101C3000A1FB0646A1FB054500EBDE2494609069FC
:101C40009C692044D4689061186C04EBDC24A1FBEF
:101C50000001D460D2E9044004EBD727146E176169
:101C600000EBD626906D566104EBD52500EBD12113
:101C7000D469106ADE6915661D6A916534440021D5
:101C80002844C2E90740C3E90F11C3E90011C3E9C1
:101C90000211C3E9071199611961F0BD45F690136E
:101CA000F0B5C2F200039BB09B69502B33D840F2D1
:101CB0003824C2F2000425680DB11BB0F0BD2A46DD
:101CC00040214FF0904002F097FF46F2241107A800
:101CD000C2F200014C2260264FF4FA7707F0DFFED3
:101CE000CDE900672A46694607A800260827CDE9FE
:101CF0000267049504F06AF9294607A804F08EF8F3
:101D000046F224102946C2F2000004F087F80123AD
:101D100023601BB0F0BD46F22411002407A8C2F2D4
:101D200000014C226026002707F0B9FECDE90067CC
:101D30002246694607A800260827CDE902670494D1
:101D400004F044F9214607A804F068F80122402174
:101D50004FF0904002F050FF46F224102146C2F2AC
:101D6000000004F0D3F840F23823C2F200031C60F4
:101D70001BB0F0BD08B501F09FFD00F033F800F096
:101D8000E9F900F0B3F900F061F800F08FF900F024
:101D9000F3F800F033F905F02DFA4FF2087342F62C
:101DA0004960C0F6000300220121C0F6000005F0E2
:101DB000A9FA45F6FC43C2F2000304464FF2E4627E
:101DC00042F2E560C0F60002C0F6000000211C608F
:101DD00005F03EFA45F68813C2F20003186005F0DC
:101DE0001BFAFEE730B599B006A84422002107F09F
:101DF00064FE00234FF40070CDE90033CDE90233D7
:101E0000049302F011FF08B172B6FEE70346012405
:101E100006A84FF48035CDE90645109303F002F88B
:101E2000014608B172B6FEE70F2402250022002306
:101E30006846CDE90045CDE90223049103F06AFB31
:101E400008B172B6FEE719B030BD00BF30B545F637
:101E5000C024C2F20004002387B0C5F204030422A8
:101E60004FF4802507212360626100230122204670
:101E7000C4E90233C4E90A33CDE90133CDE90333C0
:101E80006560E161238384F82030636384F838302F
:101E90000093226184F83020059301F031FD08B1F0
:101EA00072B6FEE70222C0F230420623CDE90023DB
:101EB00001227F23CDE90223694604220023204624
:101EC000CDE9042301F050FE08B172B6FEE704220A
:101ED000C0F660020C2369462046CDE9002301F0DC
:101EE00043FE08B172B6FEE70822C0F69042122304
:101EF000029069462046CDE9002301F035FE08B185
:101F000072B6FEE71022C1F2C002182369462046CD
:101F1000CDE9002301F028FE08B172B6FEE72022C9
:101F2000C1F2F0424FF4807369462046CDE90023A8
:101F300001F01AFE08B172B6FEE74022C1F6201287
:101F40004FF4837369462046CDE9002301F00CFE6F
:101F500008B172B6FEE78022C1F650524FF4867384
:101F600069462046CDE9002301F0FEFD08B172B6B6
:101F7000FEE707B030BD00BFD0B546F22414C2F270
:101F800000044FF080438CB0012223604FF40073B3
:101F90004FF47A7162602361802200232046CDE9EC
:101FA0000233CDE90533CDE90733CDE90933E160EB
:101FB000A261A3600193049303F0B6FE08B172B668
:101FC000FEE7034601A920460193039304F0ACFA0F
:101FD00008B172B6FEE70246602600270690089018
:101FE00004A92046CDE9046703F0F0FF08B172B6FA
:101FF000FEE7204601F070FA0CB0D0BDF0B5002528
:1020000095B029462C2208A846F2E014C2F200043A
:10201000CDE90055CDE90255CDE90455069507F007
:102020004CFD4FF48843C4F2010301264FF4FA71CA
:1020300080222046C4E90455A56023606660E16003
:10204000A26103F0C7FD08B172B6FEE7204603F0B7
:102050006BFE024608B172B6FEE76026FE27CDE9A8
:1020600000676946002600272046CDE90267CDE9D2
:102070000467069203F0AAFF034608B172B6FEE7B2
:10208000CDE90867CDE90A6708A900264FF4005793
:102090002046CDE90C67129304F080FA08B172B6BD
:1020A000FEE7204601F018FA15B0F0BD45F66C3099
:1020B000C2F200004FF46053C4F2010310B50C21CA
:1020C0004FF4E1344FF4004203600023C0E90233CF
:1020D000C0E9083344604161C2610361836104F077
:1020E00085FF08B172B6FEE710BD00BF4FF4805304
:1020F000C4F2020300B5996C41F001019964996C36
:1021000083B001F0010100910099996C41F0020146
:1021100099649B6C03F002030022019305210B20BC
:10212000019B02F099F80B2002F0D0F80022052163
:10213000442002F091F8442002F0C8F80022052162
:10214000452002F089F8452003B05DF804EB02F069
:10215000BDB800BFF0B500248BB0CDE90444CDE993
:1021600006444FF48053C4F202030894DA6C42F040
:102170008002DA64DA6C02F080020092009ADA6C73
:1021800042F00402DA64DA6C02F004020192019A6D
:10219000DA6C42F00102DA64DA6C02F001020292B7
:1021A000029ADA6C42F00202DA64DB6C4FF480656A
:1021B00003F00203C4F60005039322464FF4E871CE
:1021C0004FF09040039B02F017FD284622464FF443
:1021D000704102F011FD0026002704A94FF4E872B7
:1021E00001234FF09040CDE90423CDE9066702F0CA
:1021F000F9FB4FF4006004A930220023C4F600006C
:10220000CDE90423069402F0EDFB284604A9072239
:102210000023CDE90423069402F0E4FB4FF470425E
:10222000284604A90123CDE90423CDE906674FF42C
:10223000007402F0D7FB2846022304A90025CDE94B
:102240000445069302F0CEFB0BB0F0BD0368DB69DA
:10225000DB061ED540F25223C2F2000345F66C3273
:102260001978006FC2F20002013112681970036818
:1022700010211162596840F2502240F25323C2F2F9
:102280000002C2F20003C1F17F010020118018702A
:10229000704740F25323C2F200031A7801321A70D9
:1022A000704700BF40F25423C2F200031A78013293
:1022B0001A7070472DE9F04340F25C26C2F2000626
:1022C00045F69015C2F200053268E96845F6F0332C
:1022D000C2F2000302F25912002491429DB09C63A5
:1022E00002D2F02900F2D38045F6B014C2F2000405
:1022F0006369002B40F0E8806B690027502B376042
:1023000067617ED83A4680214FF0904002F074FC1D
:1023100040F24023C2F2000301221A602B68B3F599
:10232000967F7DD8636B43B945F60423C2F2000360
:1023300001211A6B61630A441A630126A661FEF744
:10234000FBFE46F20413C2F200031B68002B55D1BA
:1023500040F25827C2F20007E9683A6802F2911287
:10236000914202D2F02900F2E18046F224110026C7
:10237000C2F200014C224FF060084FF0000909A89A
:1023800007F08DFBCDE90289324602A909A84FF07A
:1023900000084FF00809CDE90489069603F016FEFF
:1023A000314609A803F03AFD012240214FF0904048
:1023B00002F022FC46F224103146C2F2000003F083
:1023C000A5FDE9683E6040F23823C2F20003012215
:1023D000B1F5C97F1E60226210D345F60423C2F214
:1023E0000003206B1D6EDD65002840F0A980A56A02
:1023F000002D00F0A980C4E90B0299661DB0BDE86C
:10240000F083012280214FF0904002F0F5FB40F272
:102410004023C2F200031F602B68B3F5967F81D979
:1024200046F224110025012609A8C2F200014C221F
:102430004FF060084FF00009A66007F030FBCDE9CF
:1024400002892A4602A909A84FF000084FF008099E
:10245000CDE90489069503F0B9FD294609A803F0E2
:10246000DDFC324640214FF0904002F0C5FB46F2C1
:1024700024102946C2F2000003F048FD40F2382340
:10248000C2F2000365631D601DB0BDE8F0831B69E7
:10249000B3F5167FBFF428AFFFF700FC112301222C
:1024A00080214FF09040336002F0A6FB40F24021C3
:1024B00045F6B013C2F20003C2F200010122C3E9E3
:1024C00004220C60DA6399E746F224110027C2F275
:1024D00000014C224FF060084FF0000909A807F0F6
:1024E000DEFACDE902893A4602A909A84FF00008B0
:1024F0004FF00809CDE90489069703F067FD3946D6
:1025000009A803F08BFC012240214FF0904002F01B
:1025100073FB46F224103946C2F2000003F0F6FCC9
:1025200040F23823C2F200031F60E5E60193FFF793
:10253000B5FB019B66601322E663A3623A605DE728
:10254000A26A002A7FF45AAF00220121C4E90921BE
:102550009A6553E72DE9F04340F25C25C2F200058D
:1025600045F690162B68C2F2000645F6B014F268E4
:10257000C3F5AC73C2F20004013301274FF0000829
:102580009A429BB0C4F81480E761A76328D946F249
:102590000413C2F200031B68FBB1FEF70FFF40F209
:1025A0004023C2F2000311221B682A6013B10123E9
:1025B000E36023643368B3F5967F0BD9A36A4BB10C
:1025C00045F60423C2F2000300219A6AA162013297
:1025D0009A6221631BB0BDE8F083FEF70DFDDCE7D6
:1025E0003A4680214FF0904002F006FB45F6042366
:1025F000C2F2000340F2402940F25822C2F2000227
:10260000C2F20009E06A996DC2F80080C5F8008046
:10261000626A5965C9F80080002848D1002A4FD065
:10262000C4E90B70F2685A6645F6F413C2F200036F
:102630005C68002CCED11B68022BCBD17369502B68
:1026400045D9012280214FF0904002F0D5FAC9F817
:10265000004046F224110024C2F200014C22602600
:10266000002707A807F01BFACDE900672246694654
:1026700007A800260827CDE90267049403F0A6FC0A
:10268000214607A803F0CAFB012240214FF09040E9
:1026900002F0B2FA46F224102146C2F2000003F022
:1026A00035FC40F23823C2F200031C6092E7002A96
:1026B000BAD1596A67620131A2621A665962B3E7F8
:1026C000596A67620131A2621A66596282E722463C
:1026D00080214FF0904002F08FFA0123C9F80030BA
:1026E000B7E700BF2DE9F04F45F69015C2F200059F
:1026F0002DED028B6B69502BBDB040F240233BD9CE
:10270000C2F200031C46012280214FF090401C932E
:1027100002F072FA0023236045F66C3400224FF475
:1027200080714FF09040C2F2000402F065FAFFF7AA
:102730001DF8204600F024FF2268136845F67C410E
:1027400043F010031360C2F200017F22204604F020
:102750000BFD46F2081145F6C020C2F20001C2F29C
:102760000000072201F00CFD08EE100A88B13DB010
:10277000BDEC028BBDE8F08FC2F200031C460022C4
:1027800080214FF090401C9302F036FA0123236021
:10279000C2E74FF48060C4F6000001224FF400410C
:1027A00002F02AFA4FF48060C4F6000001224FF4D0
:1027B000804102F021FA4FF48060C4F6000001224B
:1027C0004FF4005102F018FA4FF48060C4F6000094
:1027D00001224FF4805102F00FFA40F291114FF0B4
:1027E000F00BCDE905B14FF4DC7840F259114FF010
:1027F0002D0E40F6C41CCDE9038144F2506A43F229
:10280000C829112713264FF49673502245F600501D
:102810004FF27811CDE909CECDE90B9ACDE90767E2
:10282000C0F60001CDE90133009230230122C2F24B
:10283000000008F09FF845F60050C2F20000FDF7D6
:10284000C7FC45F6005182B2C2F20001204603F0F7
:10285000EDFE052004F048FD4FF4806018EE102ACC
:10286000C4F600004FF4004102F0C6F94FF4806056
:1028700018EE102AC4F600004FF4804102F0BCF9B3
:102880004FF4806018EE102AC4F600004FF4005197
:1028900002F0B2F94FF4806018EE102AC4F600007E
:1028A0004FF4805102F0A8F94FF480600121C4F682
:1028B000000002F09BF945F68C18C2F200080346AE
:1028C0004FF400601021C4F6000088F8003002F0D8
:1028D0008DF998F8002003464FF4806002EB430323
:1028E0000221C4F6000088F8003002F07FF998F861
:1028F000002003464FF4006002EB83032021C4F65E
:10290000000088F8003002F071F998F8003003EB0D
:10291000C003DBB24FF4806003F00102C4F6000094
:102920004FF4004188F8003002F066F998F8002072
:102930004FF4806002F00202C4F600004FF48041C0
:1029400002F05AF998F800204FF4806002F0040277
:10295000C4F600004FF4005102F04EF998F8002040
:102960004FF4806002F008024FF48051C4F600007A
:1029700002F042F9322004F0B7FC4FF4806018EE08
:10298000102AC4F600004FF4004102F035F94FF46C
:10299000806018EE102AC4F600004FF4804102F067
:1029A0002BF94FF4806018EE102AC4F600004FF4A3
:1029B000005102F021F945F604264FF48060C2F27E
:1029C000000618EE102AC4F600004FF4805102F001
:1029D00013F9D6E91910726DF36D376D1690306BDF
:1029E0001591B16A1492726ACDE91273F76C11975E
:1029F000B76C1097776C0F97376C0E97F76B0D9736
:102A0000776B0C97B76B0B97F76ACDE90721CDE988
:102A10000907F168B768D6E90432CDE90373CDE957
:102A2000052171680291B1690191316A009145F601
:102A300000504FF25031F3693268C0F60001C2F223
:102A4000000007F097FF45F60050C2F20000FDF7C6
:102A5000BFFB45F6005182B2C2F20001204603F0EE
:102A6000E5FD45F6FC43C2F2000340F2382C40F28B
:102A70004827CDF874C040F2582C40F23C22186828
:102A80001997642140F23427CDF880C045F6B01C78
:102A90001E921F97CDF884C004F078FC199B1E9AF3
:102AA00086ED188A19461F9B86ED168AC2F2000130
:102AB000199119461D9BC2F20003C2F200021D9338
:102AC000219B1E92209AC2F2000340F2442440F25D
:102AD0004C29C2F2000945F6F03B45F6F41A45F6DA
:102AE0000057C2F20004C2F20001C2F200022193B8
:102AF0004346C2F2000BC846C2F2000A1F91209260
:102B0000C2F200071A9499465A2004F0EDFB002205
:102B10004FF480714FF0904002F06EF81A9C2368D9
:102B200033B9022004F0E0FB2368002BF9D01A949B
:102B3000199B1B68032B00F0A080022B77D0DAF8DA
:102B400004301E9A0093199C10680023D5E90221D5
:102B500023606B680A931F9B0D900C910B922C685D
:102B60001B6809941D9CA869246808901C986969D1
:102B70002A69006807911B9099F80000CDE9053299
:102B8000DAF808300494DAF80C201B9903910290CB
:102B9000DAF8004001944FF24861C0F6000138466F
:102BA00007F0E8FE3846FDF713FB024645F66C30A9
:102BB00092B2C2F20000394603F038FDD8F8003076
:102BC000E3B999F80030062B0ED86B69502B21D849
:102BD0006B68B3F5967F04D8AB68B3F5DC7F40F241
:102BE000D580FFF767FB8FE7DA1F062A0CD8AB69A1
:102BF000502B6BD9002389F8003085E7FEF76AFE79
:102C00000023C8F80030DCE70E2B7FF47DAF6B6942
:102C1000502BE6D90723012280214FF0904089F8FC
:102C2000003001F0E9FF1C9A002313606CE7DBE938
:102C30000F10DBF83820DBF808300890DBF80C00C8
:102C40000791DBF804100692DBF800200593DBF80F
:102C50001040DBF818300093CDE90304CDE90121E1
:102C60001998012101604FF2B051DBE90723C0F64A
:102C70000001384607F07EFE94E7336A0093D6E9F8
:102C80001621199C706D022323600D90B06A0C917F
:102C9000716A0B92336EF2680A93F46A7369CDE934
:102CA0000804B0680593CDE906213269F3690492FE
:102CB00032680390706802904FF2D441B469019475
:102CC000C0F60001384607F055FE6BE76B68B3F5B8
:102CD000967F03D8AB68B3F5DC7F57D9209BEA68B1
:102CE0001B6803F291139A4201D2F02A67D86B69EC
:102CF000502B4ED9012280214FF0904001F07CFFF3
:102D00001C9A0023136046F22411C2F200014C22E7
:102D100029A806F0C4FE00231A4626930024602347
:102D2000CDE9223422A90023082429A8CDE924349E
:102D300003F04CF90023194629A803F06FF801228B
:102D400040214FF0904001F057FF002346F224103D
:102D50001946C2F2000003F0D9F81D9B2098E968DB
:102D60001A46002313600360219B0122B1F5C97F3D
:102D70001C461A62FFF4C8AE1B6B306EF06593B947
:102D8000A06AA8B1B1662263E362BDE6FFF7E2FB89
:102D9000BAE6002280214FF0904001F02DFF1C9AEE
:102DA00001231360AFE7219B9B6A002B7FF4ACAE3D
:102DB0002199002301228A624B62B365A4E61D9B20
:102DC0001B6873BB1A4640214FF090401B9301F0E3
:102DD00013FF46F22411C2F200014C2229A806F08A
:102DE0005EFE1B9B26931A464FF4FA746023CDE9CE
:102DF000223422A90023082429A8CDE9243403F091
:102E0000E5F81B9B29A8194603F008F81B9B46F21E
:102E100024101946C2F2000003F000F81D9C0123A3
:102E20002360012280214FF0904001F0E5FE1C98C4
:102E30000022026021988262209A012313211160EE
:102E40000360C36360E600BF2DE9F84F40F26023E2
:102E5000C2F200032DED028B1A68002A00F0EB810C
:102E6000013A1A60FEF7E0FD46F2081545F6C0206B
:102E7000C2F20005C2F2000001F042F9D5ED007A7D
:102E8000F8EE677AB0EE087A67EE877A17EE900A66
:102E9000FDF75AFB4CF6CD4240F6CC43CCF6CC4283
:102EA000C4F24303FDF7F2F94FF25813C0F60003E2
:102EB000D3E9002306460F46FDF710FE002840F038
:102EC000B68130463946FDF76FFE0346D5ED017AEF
:102ED000F8EE677AB0EE087A45F6901467EE877AD6
:102EE000C2F2000417EE900A2360FDF72DFB4CF6AA
:102EF000CD4240F6CC43CCF6CC42C4F24303FDF7BE
:102F0000C5F94FF25813C0F60003D3E90023064673
:102F10000F46FDF7E3FD002840F08B81304639462F
:102F2000FDF742FED5ED027A60600023C4F2C823AB
:102F300008EE903AF8EE677A4FF47043C4F27F538C
:102F400008EE103A67EEA87AC7EE887A17EE900A74
:102F5000FDF7FAFA45F2EB134FF00042C4F20A0310
:102F6000FDF74AFB4FF4C0430022C4F27E03FDF795
:102F700043FB00230022C3F6B073FDF73DFB47F689
:102F8000E2224EF24713CAF61462C3F6BA73FDF793
:102F900033FBFDF709FED5ED037AA060F8EE677A02
:102FA00067EEA87AC7EE887A17EE900AFDF7CCFA9A
:102FB00045F2EB134FF00042C4F20A03FDF71CFB8D
:102FC0004FF4C0430022C4F27E03FDF715FB00233B
:102FD0000022C3F6B073FDF70FFB47F6E2224EF274
:102FE0004713CAF61462C3F6BA73FDF705FBFDF783
:102FF000DBFDE0602869FDF785FA00230022C4F2BA
:10300000080343EC182B06460F46B0EE481AF0EEC4
:10301000681A47EC106B0BF0E3F832463B4630463B
:1030200039465BEC10ABFDF7E7FA44F22D3243F280
:10303000E263CEF61C32C3F60A73FDF7DDFA4FF2F7
:10304000857241F2940380468946CDF24362CBF605
:103050003E6350465946FDF7CFFA02460B464046BE
:103060004946FDF713F945F6B41248F6DA238046CF
:103070008946CBF6F512C3F6BD7330463946FDF7E7
:10308000BBFA02460B4640464946FDF7FDF845F2BD
:10309000EC124EF68533C1F6B862C4F25E03FDF75A
:1030A000F5F8FDF781FD0D3820616869FDF72AFA12
:1030B000B0EE481AF0EE681A06460F4647EC106B61
:1030C0000BF08EF832463B46304639465BEC10AB8F
:1030D000FDF792FA44F22D3243F2E263CEF61C324F
:1030E000C3F60A73FDF788FA4FF2857241F2940332
:1030F00080468946CDF24362CBF63E635046594640
:10310000FDF77AFA02460B4640464946FDF7BEF8FF
:1031100045F6B41248F6DA2380468946CBF6F51216
:10312000C3F6BD7330463946FDF766FA02460B46D4
:1031300040464946FDF7A8F845F2EC124EF68533B5
:10314000C1F6B862C4F25E03FDF7A0F8FDF72CFDEE
:103150000D386061A869FDF7D5F9B0EE481AF0EEB8
:10316000681A06460F4647EC106B0BF039F83246EA
:103170003B46304639465BEC10ABFDF73DFA44F276
:103180002D3243F2E263CEF61C32C3F60A73FDF72A
:1031900033FA4FF2857241F2940380468946CDF2AC
:1031A0004362CBF63E6350465946FDF725FA024688
:1031B0000B4640464946FDF769F845F6B41248F615
:1031C000DA2380468946CBF6F512C3F6BD73304646
:1031D0003946FDF711FA02460B4640464946FDF7CF
:1031E00053F845F2EC124EF68533C1F6B862C4F2DC
:1031F0005E03FDF74BF8FDF7D7FC03464FF4806004
:103200000D3B4FF40071C4F60000A36101F0EEFC29
:10321000BDEC028B40F23C2240F24423C2F2000299
:10322000C2F20003012110601960BDE8F88F00238D
:103230004CE6002076E645F6F414C2F2000440F2B3
:1032400048252368C2F2000501332360FEF7C4F964
:103250002B680BB902232B6040F20C03C2F200036F
:103260001A68002A7FF4FCAD616822604FF4806028
:103270004A1CC4F6000001214FF03B096260C3F80C
:10328000009001F0B3FC45F68C16C2F2000603462E
:103290004FF400601021C4F60000337001F0A6FC6A
:1032A000327803464FF4806002EB43030221C4F6F8
:1032B0000000337001F09AFC327803464FF400604E
:1032C00002EB830340F20807C4F6000020213370AC
:1032D000C2F2000701F08AFC3378D7F8008003EBD4
:1032E000C000032330702B60B8F1000F03D008F149
:1032F000FF333B60B6E5FEF77DFC40F20403C2F20B
:103300000003A1681868C7F8009040F24C22C2F28E
:10331000000201310125C4F80480A160156010B1DC
:10332000013818609EE5E26817210132E2601960F9
:1033300098E500BF02684FF48053C4F200039A423C
:1033400000D0704700F0C8BA72B6FEE74FF4805361
:10335000C4F2020382B0196E41F001011966196EC0
:1033600001F0010100910099996D41F0805199653A
:103370009B6D03F080530193019B00220F216FF09E
:10338000010002B000F068BF70B50446A0B0002193
:103390005C2209A8CDE90411CDE90611089106F0D7
:1033A0008CFB22680023C5F204039A4201D020B0AE
:1033B00070BD4FF480424FF0405309A809921D930D
:1033C00002F064FA002853D14FF48053C4F2020390
:1033D0004FF40060DA6C42F40052DA64DA6C02F402
:1033E00000520192019ADA6C42F00402DA64DA6C5B
:1033F00002F004020292029ADA6C42F00102DA64EC
:10340000DB6C03F00103039300260F220B230399C7
:103410000696C4F6000004A9CDE9042345F6344518
:1034200001F0E0FA07220B2304A94FF09040C2F20A
:103430000005CDE90423069601F0D4FA0823C4F26E
:10344000020380204FF400714FF400622B6028616A
:1034500020232846C5E90166C5E90512EE602E6203
:10346000EB6100F041FF30B9E564AC6220B070BDA3
:10347000FFF76AFFA8E7FFF767FFF5E70368B3F117
:10348000804F00D070474FF48053C4F2020382B0E3
:103490009A6D42F001029A659B6D03F0010301935E
:1034A000019B02B0704700BF02684FF48843C4F22A
:1034B00001039A4200D070474FF48053C4F20203D4
:1034C00082B01A6E42F400321A661B6E03F40033A7
:1034D0000193019B02B0704770B5026888B0002369
:1034E000B2F1804FCDE90233CDE90433069307D022
:1034F0004FF48843C4F201039A421FD008B070BD54
:103500004FF48053C4F202030120DA6C42F001024E
:10351000DA64DB6C069003F00103009300220023C1
:1035200002A9202402254FF09040CDE90245CDE9C3
:103530000423009E01F056FA08B070BD4FF480538A
:10354000C4F202034FF48060DA6C42F00202DA64E3
:10355000DB6C03F0020301930E23019A0693002211
:10356000002302A9C4F600004FF480740225CDE9BF
:103570000245CDE9042301F035FA08B070BD00BF63
:10358000F0B500249FB005465C22214607A8CDE98E
:103590000244CDE90444069406F08FFA2A684FF4F9
:1035A0006053C4F201039A4201D01FB0F0BD012361
:1035B00007A80F94079302F069F9002865D14FF42A
:1035C0008053C4F2020302A91A6E42F480421A66C2
:1035D0001A6E02F480420092009ADA6C42F0010204
:1035E000DA64DB6C03F0010301934FF4C062022341
:1035F000CDE90223019E0022032307244FF09040CF
:1036000045F62436C2F20006CDE90423069401F003
:10361000E9F94FF49063C4F20203022480212022CE
:10362000336030460023C6E90233C6E905337460CF
:103630003161F261336200F057FE60BB45F67424DD
:10364000C2F2000440F26C43C4F2020302271021CC
:10365000802223602E6700232046C4E90332C4E998
:103660000533C4E90733B5626760A16000F03CFE32
:1036700070B900220521EC662520A56200F0ECFD62
:10368000252000F023FE1FB0F0BDFFF75DFE96E79A
:10369000FFF75AFEEDE7FFF757FECFE730B50146DB
:1036A00089B00022362000F0D7FD362000F00EFE53
:1036B0004FF48053C4F2020301A99A6D42F0100244
:1036C0009A659B6D03F01003029303A8029B02F01E
:1036D0001FF801F0F1FF4DF68363C4F21B33A3FB27
:1036E000003046F23024C2F20004830C4FF48051C3
:1036F0000022013BC4F2000140F2E7352046C4E954
:103700000013C4E90352A26002F064FA10B1012070
:1037100009B030BD204602F0D7FA09B030BD00BF75
:10372000FEE700BFFEE700BFFEE700BFFEE700BF09
:10373000FEE700BF704700BF45F63440C2F200000C
:1037400000F0E0BE10B545F66C34C2F2000420462D
:1037500003F054F82368DB69DB0600D410BD204673
:10376000BDE81040FEF772BD46F23020C2F2000004
:1037700002F022BE45F67420C2F2000000F0C2BE84
:1037800045F62430C2F2000000F0BCBE01207047B4
:1037900008B506F061F8162303604FF0FF3008BD4E
:1037A00008B506F059F816230360FEE770B5161E3B
:1037B00007DD0C468D19AFF3008004F8010BA5421C
:1037C000F9D1304670BD00BF70B5161E07DD0C463E
:1037D0008D1914F8010BAFF30080AC42F9D13046DB
:1037E00070BD00BF4FF0FF30704700BF4FF4005373
:1037F0004B600020704700BF0120704700207047D9
:1038000040F26421C2F2000110B540F2000240F221
:1038100000440B68C2F20102C0F20004121B2BB17B
:10382000184490420AD80860184610BD46F2D023CA
:10383000C2F20003184490420B60F4D906F00CF871
:103840000C2303604FF0FF33184610BD4FF46D4357
:10385000CEF20003D3F8882042F47002C3F8882027
:10386000704700BFDFF834D0FFF7F0FF0C480D4978
:103870000D4A002302E0D458C4500433C4188C42CB
:10388000F9D30A4A0A4C002301E013600432A24231
:10389000FBD306F0DDF8FEF76DFAFEE7000001202D
:1038A000000000201802002098FC000818020020E8
:1038B000D0620020FEE7000010B5032000F0B6FC47
:1038C0000F20FFF7EBFE10B10124204610BD044687
:1038D000FFF73CFD204610BD46F27C2340F2140168
:1038E000C2F20003C2F2000118680A7802441A60AA
:1038F000704700BF46F27C23C2F20003186870478D
:1039000070B582B000230193002800F0C180456D9E
:103910000446002D00F09880226893689D0005D52C
:10392000936823F0204323F03F0393609368D8000B
:103930001FD440F21001C2F2000142F663500B683E
:1039400091689B09C0F23E50A0FB03039B0921F044
:103950001041013321F03F015B0041F08051916043
:103960000193019B2BB1019B013B0193019B002B18
:10397000F9D19368D90059D4636D43F0100363659E
:10398000A36D43F00103A365936813F0040F4FF098
:103990000100636D51D1DB064FD4636D23F4817355
:1039A00043F0020363659368DE070FD40023C5F27A
:1039B00004039B68DD0709D44FF44071C5F204018C
:1039C00065688B6823F47C132B438B60D4E9021564
:1039D000636B2B430B43657E94F8201043EA453319
:1039E000012943EA01434ED0A16A21B1E56A01F4FD
:1039F000707129430B43D5684CF20701CFF6F07183
:103A000029400B43D3609368590723D593682369F2
:103A1000012B40D0136B23F00F031363636D23F06E
:103A2000030343F00103636502B070BD936813F0B4
:103A3000040F4FF00000636DADD0636D012043F0C3
:103A40001003636502B070BDFFF79EFCA56584F8A6
:103A5000505061E793681B07D9D4D16894F830308F
:103A6000257E21F480415B0021F0020143EA853389
:103A70000B43D36094F83830012B14D0136923F032
:103A800001031361C3E7616A013943EA4143ABE7CC
:103A9000012002B070BD116BE36921F00F01013B01
:103AA0000B431363BAE7D4E90F361169656C21F44F
:103AB000FF6121F0040133430B43A16C2B430B4303
:103AC00043F001031361A2E7704700BF704700BFD6
:103AD00008B5806AFFF7FAFF08BD00BF704700BF56
:103AE000836A5A6D12F0500F10B55A6D1DD11968C6
:103AF00042F400725A650A6812F0080FCA681BD0B7
:103B000012F4406F0DD1CA6894040AD45A6D22F49D
:103B100080725A655A6DD10403D45A6D42F0010285
:103B20005A651846FFF7D0FF10BDD2060AD4DB6CE9
:103B3000BDE810405B6B18479007E7D51846FFF7C4
:103B4000C3FFF1E71846FFF7C9FF10BD806A08B54B
:103B5000436D43F040034365836D43F00403836585
:103B6000FFF7BCFF08BD00BFF0B490F8502082B052
:103B70000346012A4FF00000019000F03E811C68CE
:103B8000012083F85000A56815F004054CD14A685F
:103B9000052A53D902F01F0C1F26920906FA0CF6CB
:103BA00002F00C05F74304F1300208685659C0F3DF
:103BB00084603E4000FA0CF030435051A268550733
:103BC00040F1B480A2680A68A068C00745D51546D0
:103BD0000022C8F2080215423DD04FF44072C5F2EF
:103BE000040200219068CCF252718D4200F0E07620
:103BF0002ED00021CCF684318D4200F002810121CB
:103C0000C8F200018D4226D110F4800023D100219A
:103C1000C5F204018C421ED1916821F0E07131435C
:103C200041F48001916003E05A6D42F020025A6530
:103C3000002283F8502002B0F0BC7047023A032AF9
:103C400000F2F081DFE812F0F800FE000401EF005E
:103C5000010240F113810020EAE7CF68D4F8B050A8
:103C60004FF6FF7007F01806C0F20700F040C2F3ED
:103C7000120C002625EA0C051040C4F27F062843EA
:103C8000B742C4F8B0001546A2D1BCF1000F00F055
:103C9000E58092FAA2F0002800F05881B0FA80F096
:103CA000013000F01F00092840F2508192FAA2F57D
:103CB000002D00F0A681B5FA85F50135AD0605F0B9
:103CC000F84592FAA2F0002800F0A281B0FA80F044
:103CD000013000F01F00012606FA00F0054392FAB9
:103CE000A2F2002A00F09081B2FA82F0013000F0D6
:103CF0001F0000EB4000A0F11E02120542F000720E
:103D00002A43D70D04F1140507F004078E6878598B
:103D1000C2F304524FF0070C0CFA02FC20EA0C002C
:103D200006FA02F202437A510D6851E7A2681207BF
:103D300061D408688D68C70D04F1140607F0040704
:103D4000C0F30450BA594FF0070C0CFA00FC22EAF9
:103D50000C0205FA00F00243BA510E69E068042E25
:103D60001AD004F160074FF4704C57F826200D6804
:103D7000C0F2FF3C02EA0C0CC0F3C1004A694000EB
:103D800005F0F845824045EA0C052A4342F000421E
:103D900047F826200A6817E70A68206E206EC2F3EB
:103DA0001205C0F38460002D40F0A080C2F384654A
:103DB000A84200F0EF80606E666E04F16000C6F30A
:103DC000846604F16407AE4200F009818668866863
:103DD00000F10807C6F38466AE4200F0EF80C668C3
:103DE000C6680C30C6F38466B5427FF4EDAE026857
:103DF00022F0004202600A68E6E6022002B0F0BC4F
:103E0000704710F080707FF426AF0021C5F20401E6
:103E10008C427FF420AF916821F0E071314341F092
:103E20008071916004E74FF480724A604FF0000C9B
:103E30006FF01F070425B6E60C20486084466FF437
:103E4000F837B0E61220486084466FF4F807AAE617
:103E50001820486084466FF0F857A4E6920E501C74
:103E600000F01F06092E33D88506012005F0F8451D
:103E7000B04006EB46020543120541E70021C5F2BA
:103E800004018C427FF4E7AE916821F0E071314388
:103E900040F2100041F40001C2F20000916002689B
:103EA00042F663519209C0F23E51A1FB02129209FF
:103EB000013202EB420292000192019A002A3FF481
:103EC000CAAE019A013A0192019A002AF9D1C2E6DA
:103ED00006EB460285061E3A012005F0F84500FA79
:103EE00006F61205354342F0007209E792FAA2F590
:103EF0001DB1B5FA85F5A8424CD0606E666E04F12E
:103F00006000C6F3846604F1640792FAA2F51DB15D
:103F1000B5FA85F5AE4262D08568866800F108077B
:103F2000C6F3846692FAA2F51DB1B5FA85F5AE42E4
:103F300044D0C568C6680C30C6F3846692FAA2F510
:103F4000002D3FF441AEB5FA85F54DE792FAA2F5A2
:103F5000002D64D0B5FA85F50135AD0605F0F845BC
:103F600092FAA2F0002858D0B0FA80F0013000F0A8
:103F70001F00012606FA00F0054392FAA2F2002A79
:103F800048D0B2FA82F0013000F01F0000EB400090
:103F90000205B5E6226E204622F0004240F8602F6E
:103FA0000A68656E666EC2F31205C6F3846604F194
:103FB0006407002DA9D1C2F3846504E73A6822F0B2
:103FC00000423A600A68C568C668C2F31205C6F3C3
:103FD00084660C30002DB1D1C2F3846504E73A68E1
:103FE00022F000423A600A6885688668C2F31205CA
:103FF000C6F3846600F10807002D93D1C2F38465EF
:10400000EAE64FF080655CE60022CFF6506277E684
:10401000022063E64FF4401272E60220ACE74FF054
:1040200080659DE70620486084466FF4F867BAE52E
:1040300070B582B00022036801929A68D20734D426
:1040400099683F22C8F200021142044630D19A68B2
:1040500022F0004222F03F024FF4407142F0010290
:10406000C5F204019A608B681B022CD4FFF742FC56
:1040700023681A68D607054617D44FF6C076C7F6E8
:10408000FF769A68D00704D49A68324042F0010261
:104090009A60FFF72FFC431B022B236802D91A6892
:1040A000D10705D51A68D207EBD5002002B070BD44
:1040B000636D43F010036365A36D012043F00103BA
:1040C000A36502B070BD40F21002C2F2000242F6D7
:1040D00063511368C0F23E519B09A1FB03239B0966
:1040E000013303EB43039B000193019B002BBDD0E5
:1040F000019B013B0193019B002BF9D1B6E700BF67
:1041000038B503689D6815F0040533D190F8503038
:10411000012B04462ED0012380F85030FFF788FF92
:1041200050BB636D23F4706323F0010343F4807389
:104130006365636DDA0448BFA36D226852BFA06552
:1041400023F00603A3651C210023116084F850307E
:10415000D3689B0105D5636D23F4405343F480532A
:104160006365936823F0004323F03F0343F00403A7
:10417000936038BD022038BD84F8505038BD00BF70
:10418000F8B503689D6815F004054AD190F85030E1
:10419000012B044645D0012380F850300F461646C7
:1041A000FFF746FF00283ED1636DE06C216823F4E1
:1041B000706323F0010343F480736365636D13F44C
:1041C00080531CBFA36D23F00603A36543F6E123D0
:1041D000C0F60003C36243F6D12243F64D33C0F666
:1041E0000002C0F60003026343631C2200230A603E
:1041F00084F850304B6843F010034B60CD6845F0B5
:10420000010533463A46CD60403100F0E9F82268B6
:10421000936823F0004323F03F0343F004039360CB
:10422000F8BD0220F8BD84F85050F8BD4FF46D423F
:10423000CEF2000210B4D1684FF6FF040002214014
:1042400000F4E0630B4343F0BF6343F400335DF8D5
:10425000044BD360704700BF4FF46D43CEF20003B0
:1042600030B4DB68C3F30223C3F10705042D03F167
:10427000040428BF0425062C19D9033B4FF0FF3452
:104280009C4022EA04024FF0FF34AC4021EA0401D2
:104290009940002841EA02010CDB00F1604000F582
:1042A00061400901C9B280F8001330BC7047002298
:1042B0001346E8E74EF6FC4300F00F00CEF2000391
:1042C00009010344C9B2197630BC704700280ADBE3
:1042D0004FF4614200F01F01CEF2000240090123B9
:1042E0008B4042F820307047002866D0034640F2E9
:1042F00007420068C4F202029042F0B44CD94FF673
:10430000F831CBF6FD714CF6CD420144CCF6CC42EF
:10431000A2FB012109094FF480648900C4F2020460
:10432000D3E90252D3E904762A433A43022783F8B9
:1043300025709F691C6432433A43DF6906685964FB
:104340003A431F6A26F4FF463A4326F0700632438A
:10435000B5F5804F026016D00022C4F202029442EA
:104360002DD04FF49562C4F2020201F01C011068D6
:104370000F248C4020EA040010605868146800FA8A
:1043800001F12143116000200122D86383F8240049
:1043900083F82520F0BC70474FF6F871CBF6FD711D
:1043A0004CF6CD420144CCF6CC42A2FB01210909D6
:1043B00000248900C4F20204B2E701207047A82259
:1043C000C4F2020201F01C0114680F258D4024EA9A
:1043D0000504146058681468884020431060D2E7D0
:1043E000F0B490F82440012C3DD090F825400126EF
:1043F000B442E5B280F8246005D0002380F8243070
:10440000F0BC022070470468D0F840C002270026A4
:1044100080F82570C663476C266807F01C0726F0F5
:1044200001062660BD408668CCF804506360036BCB
:10443000102E0BBFA260A160E160E26053B123685F
:1044400043F00E032360236843F001032360002040
:10445000F0BC7047236823F004032360236843F013
:104460000A032360EFE70220F0BC704790F8252094
:10447000022A034606D004210022C16380F82420CA
:10448000012070470168426C086820F00E0030B4CB
:104490001D6C08600868012420F0010002F01C0275
:1044A000086004FA02F200216A6083F8254083F86C
:1044B0002410084630BC704790F82520022A03D00B
:1044C0000422C263012070470168426C70B50C6819
:1044D000066C856B24F00E040C600C6824F001045B
:1044E0000C6002F01C02012101FA02F20024726049
:1044F00080F8251080F8244015B1A847204670BDEB
:10450000284670BD70B4D0E9106304223168056894
:1045100003F01C039A400A422C680ED014F0040FDA
:104520000BD02B689B0603D42B6823F004032B606D
:10453000036B7260CBB170BC184702229A400A42EA
:1045400015D014F0020F12D02B68990606D42B68F0
:10455000012123F00A032B6080F82510C36A7260E2
:10456000002280F82420002BE5D170BC704708227F
:104570009A400A42F9D02207F7D52A68416B22F007
:104580000E022A60012202FA03F300247360C26360
:1045900080F8244080F825200029E6D070BC084728
:1045A0002DE9F84F40F21C08C2F2000898F80060AC
:1045B000012E7CD09B46012382460D46144688F886
:1045C0000030FFF797F94FF400560746C4F2020691
:1045D0004CF24F3904E0FFF78DF9C01B48455FD816
:1045E0003369D903F7D437694CF2FA33C0F20203C6
:1045F0001F4040F087803369DA0748BF01234FF43A
:10460000005248BF3361C4F202020023C8F80430EC
:10461000136813F480634ED01368022123F480637F
:10462000136088F81C10BAF1000F49D14FF4005301
:10463000C4F202035A6942F001025A612C60BFF3CE
:104640006F8F0127C5F804B0FFF754F94FF40054F9
:104650000546C4F202044CF24F3604E0FFF74AF973
:10466000401BB0424CD82369DB03F7D423694CF2DA
:10467000FA32C0F2020213404CD1256915F001054F
:1046800002D001221D4622613FB14FF40053C4F213
:1046900002035A6922EA07075F6100F06FF900E040
:1046A0000325002388F800302846BDE8F88F02254E
:1046B0002846BDE8F88F88F81C30BAF1000FB5D055
:1046C0000AF1FF33012BBFD84FF40053C4F20203A9
:1046D0002246596941F480215961EFF3108072B686
:1046E0002D1B04F580711368535104328A42FAD1AC
:1046F00080F31088BAF1020F08BF4FF48027A3E7B8
:104700000325C1E7D8F804303B43C8F8043001253D
:104710003761C6E7D8F804201A43C8F804200125F9
:104720002361B1E74FF40053C4F202035A69002A2F
:1047300001DB0020704740F2231148F6AB12C4F2AF
:104740006751CCF6EF5299609A605869C00F704774
:104750004FF40053C4F2020300205A6942F00042B1
:104760005A61704740F21C03C2F200035868704758
:1047700070B50446FFF7BEF84FF400560546C4F284
:104780000206601C19D14FF40052C4F202021369F0
:10479000D903FCD44FF40052C4F202024CF2FA31B5
:1047A0001369C0F202010B4011D1106910F0010031
:1047B00002D001211846116170BD3369DB03E9D5D0
:1047C000FFF798F8401BA042DBD3032070BD40F2F6
:1047D0001C01C2F2000101204C681C434C601361B3
:1047E00070BD00BF2DE9F04740F21C09C2F200097C
:1047F00099F80030012B00F08F80824601244CF2A2
:1048000050300F4689F80040FFF7B2FF064628B146
:10481000002389F800303046BDE8F0874FF400539C
:10482000C4F20203C9F804001A6812F4007F1A687F
:1048300076D1520540F19F801A68022122F48062ED
:104840001A6089F81C10DAF80030012B72D04FF092
:10485000FF333B60DAE902532B449D422AD24FF4E6
:1048600000544FF60548C4F20204CFF6FF7805E085
:10487000DAE9023201351344AB421BD96269EB001D
:1048800022F47E7203F4FF6313436361636943F0B0
:1048900002036361636943F4803363614CF2503017
:1048A000FFF766FF636903EA080363610028DFD04E
:1048B0003D60064699F81C3003F0FD02012ADBB288
:1048C00013D14FF40052C4F20202116821F40071B6
:1048D0001160116841F400611160116821F40061F8
:1048E0001160116841F400711160023B012B0FD877
:1048F0004FF40053C4F202031A6842F480521A6063
:104900001A6822F480521A601A6842F480621A60AF
:10491000002389F81C307BE702263046BDE8F0878B
:10492000510525D51A68032122F480621A6089F89E
:104930001C1088E7DAF80430DB0707D54FF4005382
:10494000C4F202035A6942F004025A614FF400545F
:10495000C4F202044CF25030636943F48033636163
:10496000FFF706FF636923F0040306466361A1E7CE
:1049700089F81C4067E789F81C0064E740F21C01D5
:10498000C2F200010B7F03F0FD02012ADBB213D15A
:104990004FF40052C4F20202106820F4007010605C
:1049A000106840F400601060106820F4006010602F
:1049B000106840F400701060023B012B0FD84FF4D8
:1049C0000053C4F202031A6842F480521A601A6853
:1049D00022F480521A601A6842F480621A6000233E
:1049E0000B7770472DE9F04F0C688BB0002C00F06E
:1049F0009A804FF4805A4FF480675646C4F2020AF8
:104A00003B464FF400624FF44065CDE9011AC4F60D
:104A10000003C4F60002C4F60005C4F600060493C1
:104A2000C4F2010705920695079600234FF0010B8B
:104A30000BFA03FE1EEA040A71D001994E6806F0D3
:104A40000302551E012D4FEA430C6FD9032A40F093
:104A5000B58002FA0CF2D543D0F800C00CEA050587
:104A60002A4316F4403F026059D0029D2A6E42F05C
:104A700001022A662A6E23F0030505F1804502F043
:104A8000010205F58035099203F00302DDF824C028
:104A9000D5F808C092000F2101FA02FEB0F1904F44
:104AA0002CEA0E0C17D00499884200F093800599E7
:104AB000884200F094800699884200F0848007992B
:104AC00088420BBF4FF0040E07210EFA02F201FAE2
:104AD00002F24CEA020CC5F808C0BA686FEA0A0C88
:104AE000F50254BF0CEA02024AEA0202BA60FA680E
:104AF000B10254BF0CEA02024AEA0202FA607D687F
:104B0000B20354BF0CEA05054AEA05057D603A6820
:104B1000F10354BF0CEA02024AEA02023A6001338E
:104B200034FA03F284D10BB0BDE8F08FD0F80880DE
:104B3000C968032505FA0CF528EA050801FA0CF9FD
:104B400049EA0808C0F80880D0F80490C6F30018B5
:104B500029EA0E0E08FA03F848EA0E0EED43C0F8F3
:104B600004E00199D0F80CE089680EEA050E01FA1C
:104B70000CF848EA0E0E022AC0F80CE002D002FA45
:104B80000CF269E74FEAD30800EB880803F0070E40
:104B9000D8F820100391019909694FEA8E0E01FAA5
:104BA0000EF90F2101FA0EFE039921EA0E0E49EAD1
:104BB0000E0E02FA0CF2C8F820E04DE7032505FAC4
:104BC0000CF5ED43CDE74FF0030E0EFA02F24CEA7E
:104BD000020C80E70BFA02F24CEA020C7BE74FF082
:104BE000020E0EFA02F24CEA020C74E70369194253
:104BF00014BF0120002070470AB1816170478162B3
:104C0000704700BF436901EA030221EA030141EA58
:104C100002418161704700BF4FF4E043C4F20003DA
:104C2000186800F4C0607047B0F5007F11D04FF4F1
:104C3000E043C4F200031A6802F4C062B2F5806F68
:104C40003ED01A6822F4C06242F480621A600020EA
:104C500070474FF4E042C4F20002136803F4C063EB
:104C6000B3F5007F2CD0136840F2100123F4C06329
:104C700043F40073C2F2000110B413600C68506971
:104C800032234DF6836103FB04F3C4F21B31A1FB15
:104C900003139B0C400503F1010306D500E023B18B
:104CA0005169490503F1FF33F9D44FF4E043C4F2ED
:104CB00000035B695B0505D400205DF8044B704779
:104CC000002070470320F8E730B54FF48054C4F259
:104CD000020483B0A36DDB0005461FD5FFF79CFFE0
:104CE000B0F5007F2CD0802D16D832D0A5F17005FC
:104CF000B5FA85F56D094FF40051C4F202010B6855
:104D000023F007032B430B60086800F00700401BEB
:104D100018BF012003B030BD0325ECE7A36D43F0BD
:104D20008053A365A36D03F080530193019BFFF7AC
:104D300073FFA36DB0F5007F23F08053A365D2D13C
:104D4000802D04D9A02D8CBF02250125D3E7002595
:104D5000D1E70225CFE700BF4FF48052C4F2020230
:104D60009368D26813F00C030BD00C2B4DD0042B9E
:104D700046D0082B4FF49050C0F27A0018BF0020A4
:104D800070474FF48052C4F202021168090754BF01
:104D9000D2F8941011684FF2307254BFC1F303215E
:104DA000C1F30311C0F6000252F8210063B30C2BCB
:104DB00036D14FF48053C4F20203DB6803F00303DF
:104DC000022B28D04FF49052C0F27A02032B08BF76
:104DD00010464FF48053C4F20203D968DA68DB68E6
:104DE000C3F34163C2F30622C1F30211013301315F
:104DF00000FB02F05B00B0FBF1F0B0FBF3F070479A
:104E00004FF41050C0F2F400704702F00302012A80
:104E1000B7D00020CDE74FF41050C0F2F400D8E72F
:104E200000207047002800F0D6822DE9F0434FF4AF
:104E30008052C4F2020203689568D6680446D80618
:104E400083B005F00C0506F0030632D5002D00F006
:104E500042810C2D00F03C81A369002B00F0D7812A
:104E60004FF48053C4F202031F461A6842F0010255
:104E70001A60FEF73FFD804606E0FEF73BFDA0EB23
:104E80000800022800F2D8813B689B07F5D53B68F3
:104E900043F008033B603B68226A23F0F0031343AE
:104EA0003B607B68E26923F47F4343EA02237B6033
:104EB0002368D90700F1DE80990727D5042D00F07B
:104EC00090810C2D00F08A81E368002B00F01582A0
:104ED0004FF48053C4F202031F461A6842F48072F2
:104EE0001A60FEF707FD064605E0FEF703FD801B8E
:104EF000022800F2A1813B685B05F6D57B68226938
:104F000023F0F85343EA02637B60236819071DD539
:104F10006369002B00F049814FF48053C4F202030F
:104F20001F46D3F8942042F00102C3F89420FEF704
:104F3000E1FC064605E0FEF7DDFC801B022800F2DE
:104F40007B81D7F894309A07F5D523685E0748D55A
:104F50004FF48053C4F202039A6DD00000F1CB816C
:104F60009A6D42F080529A659B6D03F080530193D5
:104F7000019B01264FF4E047C4F200073B68D905C6
:104F800040F12B82A368012B00F0CE81052B00F0AD
:104F900052824FF48057C4F20207D7F8902022F0D3
:104FA0000102C7F89020D7F8902022F00402C7F839
:104FB0009020002B40F0C281FEF79CFC41F2883922
:104FC000804606E0FEF796FCA0EB0800484500F29C
:104FD0003381D7F890309807F4D4002E40F00F8238
:104FE000236899061CD5636A002B00F0DA814FF420
:104FF0008053C4F202031F46D3F8982042F0010206
:10500000C3F89820FEF776FC064605E0FEF772FC32
:10501000801B022800F21081D7F898309A07F5D546
:10502000A36A002B00F06581022B00F015820C2D85
:1050300000F0A7804FF48053C4F202031D461A68A3
:1050400022F080721A60FEF755FC044605E0FEF778
:1050500051FC001B022800F2EF802B6813F0007354
:10506000F5D1E9684FF6FC72CFF6EE620A401846B9
:10507000EA6087E0082D00F08B800C2D00F0858021
:105080006368B3F5803F00F0DB80B3F5A02F00F03C
:10509000C5814FF48057C4F202073A6822F4803287
:1050A0003A603A6822F480223A60002B40F0D080C7
:1050B000FEF720FC804606E0FEF71CFCA0EB080093
:1050C000642800F2B9803B689803F5D42368F3E6BE
:1050D000012E7FF4C1AE4FF48053C4F202031B686B
:1050E00099074BD44FF48053C4F20203206A1A6824
:1050F000120756BFD3F894301B681B0903F0F00366
:10510000984200F233814FF48053C4F202031A68CC
:1051100042F008021A601A6822F0F00202431A6094
:105120005A68E16922F47F4242EA01225A60002D66
:1051300000F06E81FFF710FE4FF48053C4F20203BB
:105140004FF218729B68C0F60002C3F3031340F2DB
:105150001801D25CC2F2000140F2100302F01F02FB
:10516000C2F2000320FA02F208681A60FEF796FA0B
:1051700040B92368D9077FF59FAE7BE7A369002B71
:10518000B0D1012003B0BDE8F083032E7FF478AFE7
:105190004FF48052C4F20202126892037FF58CAE83
:1051A0006268002A7FF488AEEBE74FF48053C4F2C4
:1051B00002031F46D3F8942022F00102C3F8942082
:1051C000FEF798FB064604E0FEF794FB801B0228DE
:1051D00032D8D7F894309B07F6D4B6E6022E7FF487
:1051E00073AE4FF48052C4F202021268520502D527
:1051F000E268002AC5D04FF48051C4F20201206950
:105200004A6822F0F85242EA00624A607EE64FF4B1
:105210008053C4F2020398461A6822F001021A6011
:10522000FEF768FB0746D8F800309807A1D5FEF7CF
:1052300061FBC01B0228F6D9032003B0BDE8F08350
:105240004FF48053C4F202031A6842F480321A60A9
:10525000FEF750FB4FF480580746C4F2020804E002
:10526000FEF748FBC01B6428E6D8D8F800309B0343
:10527000F6D52BE7216B03F070020139B2EB011F69
:1052800040F0F580616B03F4FE42B2EB012F40F079
:10529000EE80A16B03F07842B2EBC16F40F0E78083
:1052A000E26B5208013A03F4C001B1EB425F40F0F7
:1052B000DE80226C520803F0C063013AB3EB426F08
:1052C00040F0D58033689A0113D4336843F080737B
:1052D0003360F36843F08073F360FEF70BFB044622
:1052E00004E0FEF707FB001B0228A5D833689B01EA
:1052F000F7D5002046E700263CE64FF48053C4F281
:1053000002031F461A6822F480721A60FEF7F2FA4E
:10531000064604E0FEF7EEFA801B02288CD83B68B4
:105320005805F7D42368F1E54FF48053C4F2020323
:10533000D3F8902042F00102C3F89020FEF7DAFA89
:105340004FF480580746C4F2020841F2883905E05C
:10535000FEF7D0FAC01B48453FF66EAFD8F8903044
:105360009B07F5D5002E3FF43BAE48E0FFF7ACFCC1
:1053700000287FF406AF4FF48053C4F202031A688A
:1053800042F008021A601A68216A22F0F0020A4309
:105390001A605A68E16922F47F4242EA01225A60A7
:1053A000C8E64FF48053C4F202031F46D3F8982096
:1053B00022F00102C3F89820FEF79CFA064605E0A9
:1053C000FEF798FA801B02283FF636AFD7F89830E0
:1053D0009B07F5D424E6012070473B6843F48073B3
:1053E0003B60FEF787FA80463B68DA053FF5CAADB9
:1053F000FEF780FAA0EB08000228F5D91CE74FF46D
:105400008053C4F202039A6D22F080529A65E7E558
:10541000FFF75AFC00283FF48DAEB2E64FF48053FC
:10542000C4F202031A6842F480221A601A6842F435
:1054300080321A600CE74FF48053C4F20203D3F8B1
:10544000902042F00402C3F89020D3F8902042F05C
:105450000102C3F8902071E74FF48056C4F20206AF
:10546000E26AF36803F0030191423FF403AF0C2DAD
:105470003FF487AE4FF48055C4F202052B685E01FD
:105480003FF57FAE2B6823F080732B60FEF732FA76
:10549000064605E0FEF72EFA801B02283FF6CCAE4A
:1054A0002B689801F6D4E968E26A676BA66B206BFB
:1054B00048F28C03C0F29D130B401343D4E90F1242
:1054C00043EA0723013843EAC663490843EA001365
:1054D0000139520843EA4153013A43EA4263EB601F
:1054E0002B6843F080732B60EB6843F08073EB60B4
:1054F000FEF700FA4FF480550446C4F2020505E0B9
:10550000FEF7F8F9001B02283FF696AE2B689901CA
:10551000F6D5EEE6002800F0C3804FF40053C4F245
:1055200002032DE9F0411A6802F007028A420D4693
:1055300004460CD21A6822F007020A431A601B685C
:1055400003F007038B4202D00120BDE8F0812368FD
:105550009E0740F197804FF48052C4F20202A06887
:10556000916801F0F001884204D9916821F0F001BE
:1055700001439160DA0730D562684FF48053C4F27A
:105580000203032A1B6800F08D80022A00F0848049
:10559000002A40F08D809B07D6D54FF48051C4F28D
:1055A00002010F468B6823F0030313438B60FEF761
:1055B000A1F941F28838064604E0FEF79BF9801B0A
:1055C000404573D8BB68626803F00C03B3EB820FED
:1055D000F3D123689E0709D5A0684FF48052C4F226
:1055E0000202916801F0F00181424FD84FF400525D
:1055F000C4F20202116801F00701A94209D9116839
:1056000021F0070129431160126802F00702AA4243
:105610009AD15D0709D54FF48051C4F20201E068C8
:105620008A6822F4E06202438A6018070AD54FF4C0
:105630008052C4F202022169936823F4605343EA62
:10564000C1039360FFF788FB4FF48053C4F2020359
:105650004FF218729B68C0F60002C3F3031340F2C6
:105660001801D25CC2F2000140F2100302F01F02E6
:10567000C2F2000320FA02F2BDE8F04108681A60A5
:10568000FEF70CB8D9073FF577AFAFE7916821F087
:10569000F00108439060A9E799033FF57EAF53E717
:1056A0000120704798013FF578AF4DE703204CE7A4
:1056B0005F057FF549AF70E74FF48053C4F20203F2
:1056C0004FF228719B68C0F60001C3F3022340F239
:1056D0001002C2F20002CB5C106803F01F03D84036
:1056E000704700BF4FF48053C4F202034FF2287199
:1056F0009B68C0F60001C3F3C22340F21002C2F25D
:105700000002CB5C106803F01F03D840704700BF55
:105710004FF48053C4F202030F2202609A6802F031
:10572000030242609A6802F0F00282609A6802F412
:10573000E062C2609B684FF40052DB0803F4E06350
:10574000C4F202020361136803F007030B607047A1
:10575000F8B54FF48053C4F202030446DA689207A6
:105760000E4607D0DA68016802F003028A4256D07A
:105770000120F8BD0068022862D0032859D0012812
:10578000F6D11B689B07F4D54FF48052C4F2020295
:105790006168D36823F073031843013940EA0110AC
:1057A000D0604FF48053C4F202031F461A6822F0FF
:1057B00080621A60FEF79EF8054604E0FEF79AF84C
:1057C000431B022B40D83B681A01F7D4002E3DD171
:1057D000D4E902133A69DB0622F0784222F4FE4251
:1057E00043EA012313433B614FF48053C4F20203A5
:1057F0001E461A6842F080621A60FEF77BF8054682
:1058000004E0FEF777F8431B022B1DD833681B0119
:10581000F7D5A2693369134333610020F8BD002A2C
:10582000A6D0DB684268C3F30213013393429FD1D1
:10583000B7E71A689503A7D41B68590398D5A3E75F
:105840001B685F0594D59FE70320F8BD012E3B69D7
:105850000DD06269A16823F0C06323F4FE435208AF
:1058600043EA0123013A43EA42633B61BCE7226910
:10587000A16823F4C00323F4FE43520843EA012342
:10588000013A43EA42533B61AEE700BF2DE9F043E2
:10589000036813F4006783B004460CD0416CB1F583
:1058A000000F00F06D81B1F5400F00F04881002934
:1058B00000F05E81012799036AD54FF48053C4F24A
:1058C00002039A6DD20040F12C814FF000084FF492
:1058D000E043C4F200031E461A6842F480721A6064
:1058E000FEF708F8054605E0FEF704F8431B022B17
:1058F00000F232813368DB05F6D5002F3CD14FF43E
:105900008055C4F20205D5F8903013F4407327D0C7
:10591000A26D9A4225D0D5F89010D5F8903043F476
:105920008033C5F89030D5F8903021F4407023F4DE
:105930008033CE07C5F89030C5F8900040F147811C
:10594000FDF7D8FF41F28839064605E0FDF7D2FFA2
:10595000801B484500F20081D5F890309807F5D5B6
:10596000A36D4FF48051C4F20201D1F8902022F4CB
:1059700040721343C1F89030B8F1000F07D04FF4D4
:105980008053C4F202039A6D22F080529A65236814
:10599000D9070BD54FF48051C4F20201206AD1F827
:1059A000882022F003020243C1F888209A070BD511
:1059B0004FF48051C4F20201606AD1F8882022F0CD
:1059C0000C020243C1F888205E070BD54FF48051CA
:1059D000C4F20201A06AD1F8882022F0300202430A
:1059E000C1F888209D060BD54FF48051C4F2020106
:1059F000E06AD1F8882022F440620243C1F888208E
:105A000098050BD54FF48051C4F20201E06BD1F838
:105A1000882022F440220243C1F8882059050BD582
:105A20004FF48051C4F20201206CD1F8882022F496
:105A300040120243C1F888205A060BD54FF480511A
:105A4000C4F20201206BD1F8882022F440520243B4
:105A5000C1F888201E060BD54FF48051C4F2020114
:105A6000606BD1F8882022F440420243C1F88820BC
:105A7000DD050BD54FF48051C4F20201A06BD1F8C3
:105A8000882022F440320243C1F88820180311D53F
:105A90004FF48051C4F20201A06CD1F8882022F0AA
:105AA00040620243B0F1006FC1F8882056D0B0F1D7
:105AB000806F76D0590311D54FF48051C4F20201A2
:105AC000E06CD1F8882022F040620243B0F1006F10
:105AD000C1F8882047D0B0F1806F6AD05A040ED543
