:020000040800F2
:1000000000000120714200082D4100083141000824
:1000100035410008394100083D410008000000005A
:10002000000000000000000000000000019F000828
:100030004141000800000000A19F0008017E000867
:10004000C1420008C1420008C1420008C142000884
:10005000C1420008C1420008C1420008C142000874
:10006000C1420008C1420008C142000845410008E1
:10007000C1420008C1420008C1420008C142000854
:10008000C1420008C1420008C1420008C142000844
:10009000C1420008C1420008C1420008C142000834
:1000A000C1420008C1420008C1420008C142000824
:1000B000C14200080000000000000000C14200082A
:1000C000C1420008C1420008C1420008C142000804
:1000D000C142000851410008C1420008C142000865
:1000E000C1420008C14200080000000000000000FA
:1000F0000000000000000000000000000000000000
:1001000000000000C142000800000000C1420008D9
:10011000000000000000000075410008C142000816
:10012000C1420008C1420008C1420008C1420008A3
:10013000C1420008000000000000000000000000B4
:10014000C1420008C1420008C1420008000000008E
:10015000814100088D410008C1420008C1420008E9
:10016000C1420008C1420008C1420008000000006E
:10017000C1420008C1420008000000000000000069
:0C018000C1420008C1420008C142000852
:1001900010B5054C237833B9044B13B10448AFF3C1
:1001A00000800123237010BD180200200000000011
:1001B00064FD000808B5034B1BB103490348AFF3C6
:1001C000008008BD000000001C02002064FD000843
:1001D000034613F8012B002AFBD1181A0138704787
:1001E00001F0FF01102A2BDB10F0070F08D010F8E8
:1001F000013B013A8B422DD010F0070F42B3F6D1EC
:10020000F0B441EA012141EA014122F007047FF004
:1002100000070023F0E80256083C85EA010586EA5B
:10022000010685FA47F5A3FA87F586FA47F6A5FA97
:1002300087F68EB9EED1F0BC01F0FF0102F00702A3
:1002400032B110F8013B013A83EA010313B1F8D14E
:100250000020704701387047002D06BF354603382F
:10026000073815F0010F07D1013015F4807F02BF68
:10027000013015F4C03F0130F0BC0138704700BFB9
:1002800081F0004102E000BF83F0004330B54FEA47
:1002900041044FEA430594EA050F08BF90EA020FB4
:1002A0001FBF54EA000C55EA020C7FEA645C7FEA47
:1002B000655C00F0E2804FEA5454D4EB5555B8BF6A
:1002C0006D420CDD2C4480EA020281EA030382EADB
:1002D000000083EA010180EA020281EA0303362D6D
:1002E00088BF30BD11F0004F4FEA01314FF4801C40
:1002F0004CEA113102D0404261EB410113F0004F52
:100300004FEA03334CEA133302D0524263EB430308
:1003100094EA050F00F0A780A4F10104D5F1200EA6
:100320000DDB02FA0EFC22FA05F2801841F1000101
:1003300003FA0EF2801843FA05F359410EE0A5F1D5
:1003400020050EF1200E012A03FA0EFC28BF4CF006
:10035000020C43FA05F3C01851EBE37101F00045BC
:1003600007D54FF0000EDCF1000C7EEB00006EEBC9
:100370000101B1F5801F1BD3B1F5001F0CD3490853
:100380005FEA30004FEA3C0C04F101044FEA4452AA
:1003900012F5800F80F09A80BCF1004F08BF5FEA31
:1003A000500C50F1000041EB045141EA050130BD11
:1003B0005FEA4C0C404141EB0101013C28BFB1F523
:1003C000801FE9D291F0000F04BF01460020B1FA6E
:1003D00081F308BF2033A3F10B03B3F120020CDA41
:1003E0000C3208DD02F1140CC2F10C0201FA0CF01F
:1003F00021FA02F10CE002F11402D8BFC2F1200C84
:1004000001FA02F120FA0CFCDCBF41EA0C01904039
:10041000E41AA2BF01EB0451294330BD6FEA040482
:100420001F3C1CDA0C340EDC04F11404C4F120026D
:1004300020FA04F001FA02F340EA030021FA04F37F
:1004400045EA030130BDC4F10C04C4F1200220FAD6
:1004500002F001FA04F340EA0300294630BD21FA14
:1004600004F0294630BD94F0000F83F4801306BFDA
:1004700081F480110134013D4EE77FEA645C18BFCE
:100480007FEA655C29D094EA050F08BF90EA020F65
:1004900005D054EA000C04BF1946104630BD91EA5D
:1004A000030F1EBF0021002030BD5FEA545C05D160
:1004B0004000494128BF41F0004130BD14F580049F
:1004C0003CBF01F5801130BD01F0004545F0FE4113
:1004D00041F470014FF0000030BD7FEA645C1ABF48
:1004E000194610467FEA655C1CBF0B46024650EA7F
:1004F000013406BF52EA033591EA030F41F40021AB
:1005000030BD00BF90F0000F04BF0021704730B530
:100510004FF4806404F132044FF000054FF0000105
:1005200050E700BF90F0000F04BF0021704730B5C6
:100530004FF4806404F1320410F0004548BF40429B
:100540004FF000013EE700BF42004FEAE2014FEAF0
:1005500031014FEA02701FBF12F07F4393F07F4FCB
:1005600081F06051704732F07F4208BF704793F0CE
:100570007F4F04BF41F40021704730B54FF46074E1
:1005800001F0004521F000411CE700BF50EA0102E4
:1005900008BF704730B54FF000050AE050EA01028D
:1005A00008BF704730B511F0004502D5404261EBFD
:1005B00041014FF4806404F132045FEA915C3FF43E
:1005C000D8AE4FF003025FEADC0C18BF03325FEADB
:1005D000DC0C18BF033202EBDC02C2F1200300FA8C
:1005E00003FC20FA02F001FA03FE40EA0E0021FAB1
:1005F00002F11444BDE600BF70B54FF0FF0C4CF49F
:10060000E06C1CEA11541DBF1CEA135594EA0C0F50
:1006100095EA0C0F00F0DEF82C4481EA030621EA8B
:100620004C5123EA4C5350EA013518BF52EA0335C6
:1006300041F4801143F4801338D0A0FB02CE4FF078
:100640000005E1FB02E506F00042E0FB03E54FF0A8
:100650000006E1FB03569CF0000F18BF4EF0010EA0
:10066000A4F1FF04B6F5007F64F5407404D25FEA9C
:100670004E0E6D4146EB060642EAC62141EA55514F
:100680004FEAC52040EA5E504FEACE2EB4F1FD0C91
:1006900088BFBCF5E06F1ED8BEF1004F08BF5FEA0F
:1006A000500E50F1000041EB045170BD06F00046C1
:1006B00046EA010140EA020081EA0301B4EB5C046E
:1006C000C2BFD4EB0C0541EA045170BD41F4801166
:1006D0004FF0000E013C00F3AB8014F1360FDEBF8B
:1006E000002001F0004170BDC4F10004203C35DA67
:1006F0000C341BDC04F11404C4F1200500FA05F3EA
:1007000020FA04F001FA05F240EA020001F000428A
:1007100021F0004110EBD37021FA04F642EB060100
:100720005EEA430E08BF20EAD37070BDC4F10C042A
:10073000C4F1200500FA04F320FA05F001FA04F2EE
:1007400040EA020001F0004110EBD37041F10001DA
:100750005EEA430E08BF20EAD37070BDC4F12005E5
:1007600000FA05F24EEA020E20FA04F301FA05F24D
:1007700043EA020321FA04F001F0004121FA04F2F5
:1007800020EA020000EBD3705EEA430E08BF20EAC5
:10079000D37070BD94F0000F0FD101F000464000FF
:1007A00041EB010111F4801F08BF013CF7D041EA81
:1007B000060195F0000F18BF704703F00046520085
:1007C00043EB030313F4801F08BF013DF7D043EA56
:1007D0000603704794EA0C0F0CEA135518BF95EA0C
:1007E0000C0F0CD050EA410618BF52EA4306D1D193
:1007F00081EA030101F000414FF0000070BD50EAB2
:10080000410606BF1046194652EA430619D094EA3B
:100810000C0F02D150EA013613D195EA0C0F05D125
:1008200052EA03361CBF104619460AD181EA030179
:1008300001F0004141F0FE4141F470014FF0000031
:1008400070BD41F0FE4141F4780170BD70B54FF0CC
:10085000FF0C4CF4E06C1CEA11541DBF1CEA13554C
:1008600094EA0C0F95EA0C0F00F0A7F8A4EB05042E
:1008700081EA030E52EA03354FEA013100F0888025
:100880004FEA03334FF0805545EA131343EA1263EE
:100890004FEA022245EA111545EA10654FEA0026A3
:1008A0000EF000419D4208BF964244F1FD0404F55C
:1008B000407402D25B084FEA3202B61A65EB0305B8
:1008C0005B084FEA32024FF480104FF4002CB6EB75
:1008D000020E75EB030E22BFB61A754640EA0C00F5
:1008E0005B084FEA3202B6EB020E75EB030E22BF35
:1008F000B61A754640EA5C005B084FEA3202B6EB76
:10090000020E75EB030E22BFB61A754640EA9C0034
:100910005B084FEA3202B6EB020E75EB030E22BF04
:10092000B61A754640EADC0055EA060E18D04FEAC2
:10093000051545EA16754FEA06164FEAC30343EA62
:1009400052734FEAC2025FEA1C1CC0D111F4801F2F
:100950000BD141EA00014FF000004FF0004CB6E728
:1009600011F4801F04BF01430020B4F1FD0C88BFC7
:10097000BCF5E06F3FF6AFAEB5EB030C04BFB6EBD2
:10098000020C5FEA500C50F1000041EB045170BDC5
:100990000EF0004E4EEA113114EB5C04C2BFD4EBF2
:1009A0000C0541EA045170BD41F480114FF0000E76
:1009B000013C90E645EA060E8DE60CEA135594EAF2
:1009C0000C0F08BF95EA0C0F3FF43BAF94EA0C0FF5
:1009D0000AD150EA01347FF434AF95EA0C0F7FF46A
:1009E00025AF104619462CE795EA0C0F06D152EABE
:1009F00003353FF4FDAE1046194622E750EA4106A2
:100A000018BF52EA43067FF4C5AE50EA41047FF4B2
:100A10000DAF52EA43057FF4EBAE12E74FF0FF3C17
:100A200006E000BF4FF0010C02E000BF4FF0010CE8
:100A30004DF804CD4FEA410C7FEA6C5C4FEA430C61
:100A400018BF7FEA6C5C1BD001B050EA410C0CBFB0
:100A500052EA430C91EA030F02BF90EA020F002012
:100A6000704710F1000F91EA030F58BF994208BF79
:100A700090422CBFD8176FEAE37040F00100704736
:100A80004FEA410C7FEA6C5C02D150EA013C07D18D
:100A90004FEA430C7FEA6C5CD6D152EA033CD3D0D8
:100AA0005DF8040B704700BF8446104662468C46D2
:100AB0001946634600E000BF01B5FFF7B7FF002805
:100AC00048BF10F1000F01BD4DF808EDFFF7F4FF2E
:100AD0000CBF012000205DF808FB00BF4DF808EDB9
:100AE000FFF7EAFF34BF012000205DF808FB00BFDC
:100AF0004DF808EDFFF7E0FF94BF012000205DF8FE
:100B000008FB00BF4DF808EDFFF7CEFF94BF0120B2
:100B100000205DF808FB00BF4DF808EDFFF7C4FFAB
:100B200034BF012000205DF808FB00BF4FEA410CF4
:100B30007FEA6C5C02D150EA013C0AD14FEA430CD7
:100B40007FEA6C5C02D152EA033C02D14FF0000014
:100B500070474FF0010070474FEA410212F5001252
:100B600015D211D56FF47873B3EB625212D94FEAF4
:100B7000C12343F0004343EA505311F0004F23FADE
:100B800002F018BF404270474FF00000704750EA33
:100B9000013005D111F0004008BF6FF000407047F0
:100BA0004FF00000704700BF4A0011D212F500124A
:100BB00011D20DD56FF47873B3EB62520ED44FEAB5
:100BC000C12343F0004343EA505323FA02F0704735
:100BD0004FF00000704750EA013002D14FF0FF3073
:100BE00070474FF0000070474FEA4102B2F1E04316
:100BF00024BFB3F5001CDCF1FE5C0DD901F0004C04
:100C00004FEAC0024CEA5070B2F1004F40EB830053
:100C100008BF20F00100704711F0804F21D113F17F
:100C20003872BCBF01F00040704741F480114FEAB8
:100C30005252C2F11802C2F1200C10FA0CF320FA41
:100C400002F018BF40F001004FEAC1234FEAD3235E
:100C500003FA0CFC40EA0C0023FA02F34FEA4303C8
:100C6000CCE77FEA625307D150EA01331EBF4FF051
:100C7000FE4040F44000704701F0004040F0FE406C
:100C800040F40000704700BF53B94AB9002908BFBB
:100C900000281CBF4FF0FF314FF0FF3000F0A4B927
:100CA000ADF1080C6DE904CE00F03CF8DDF804E08D
:100CB000DDE9022304B0704738B500220023044662
:100CC0000D46FFF70BFF28B920462946BDE83840FE
:100CD00000F00AB8204605F1004100F005F8404256
:100CE00061EB410138BD00BFD0B50C4B0022064678
:100CF0000F46FFF781FCFFF757FF0446FFF702FCA2
:100D0000074B0022FFF778FC02460B463046394677
:100D1000FFF7BAFAFFF748FF2146D0BD0000F03DCB
:100D20000000F0412DE9F047089D04468C46002B59
:100D300040F083808A42174647D9B2FA82F242B124
:100D4000C2F1200024FA00F09140974040EA010CE3
:100D500094404FEA1748230CBCFBF8F61FFA87FEB5
:100D600008FB16C143EA014306FB0EF1994209D97B
:100D7000FB1806F1FF3080F01981994240F216818C
:100D8000023E3B445B1AA4B2B3FBF8F008FB1033FD
:100D900044EA034400FB0EFEA64509D93C1900F1C4
:100DA000FF3380F00581A64540F2028102383C44C1
:100DB00040EA0640A4EB0E0400261DB1D4400023F7
:100DC000C5E900433146BDE8F08702B9FFDEB2FA5B
:100DD00082F2002A50D1CB1B4FEA174E1FFA87F838
:100DE0000126B3FBFEFC210C0EFB1C3341EA034140
:100DF00008FB0CF38B4207D979180CF1FF3002D2B3
:100E00008B4200F2E9808446C91AA3B2B1FBFEF01E
:100E10000EFB101143EA014408FB00F8A04507D976
:100E20003C1900F1FF3302D2A04500F2D9801846E8
:100E3000A4EB080440EA0C40BFE78B4209D9002D1F
:100E400000F0B1800026C5E9000130463146BDE81A
:100E5000F087B3FA83F6002E4AD18B4202D3824246
:100E600000F2B880841A61EB030101208C46002D4A
:100E7000A8D0C5E9004CA5E7C2F1200320FA03F68B
:100E8000974001FA02F04FEA174ED9403043030C65
:100E9000B1FBFEF61FFA87F80EFB161143EA014379
:100EA00006FB08F1994204FA02F409D9FB1806F18D
:100EB000FF3C80F08D80994240F28A80023E3B44A4
:100EC0005B1A81B2B3FBFEF00EFB103341EA034123
:100ED00000FB08F38B4207D9791800F1FF3C73D26D
:100EE0008B4271D902383944CB1A40EA064678E77A
:100EF000C6F1200C03FA06F422FA0CF31C4320FA84
:100F00000CF701FA06F34FEA144E21FA0CF11F43D5
:100F10003B0CB1FBFEF91FFA84F80EFB191143EAF2
:100F2000014109FB08FA8A4502FA06F200FA06F3C3
:100F300008D9611809F1FF3048D28A4546D9A9F18C
:100F400002092144A1EB0A01BFB2B1FBFEF00EFB86
:100F5000101147EA014700FB08F8B84507D9E7191F
:100F600000F1FF312ED2B8452CD90238274440EA8F
:100F70000940A7EB0807A0FB02894F45C646494632
:100F80001AD317D05DB1B3EB0E0267EB010707FA76
:100F90000CFCF2404CEA0202F740C5E900270026AB
:100FA0003146BDE8F0872E4628460BE70646E9E6BF
:100FB0001846FDE64345E5D2B8EB020E69EB0401A5
:100FC0000138DFE70846D2E760468DE78146B9E79A
:100FD000664675E730464AE7ACF1020C394413E740
:100FE00002383C4424E700BF704700BF704700BF91
:100FF00000207047704700BFF0B545F69414C2F268
:10100000000401229BB080214FF0904004F082FB4D
:10101000A26940F24023C2F200030024502A1C605F
:1010200033D840F23824C2F2000425680DB11BB059
:10103000F0BD2A4640214FF0904004F06BFB46F291
:10104000C01107A8C2F200014C2260264FF4FA77C3
:1010500009F03DFBCDE900672A46694607A800264E
:101060000827CDE90267049505F03EFD294607A84B
:1010700005F062FC46F2C0102946C2F2000005F0FD
:101080005BFC012323601BB0F0BD46F2C01107A832
:10109000C2F200014C226026002709F018FBCDE9BE
:1010A00000672246694607A800260827CDE902679F
:1010B000049405F019FD214607A805F03DFC012226
:1010C00040214FF0904004F025FB46F2C01021462D
:1010D000C2F2000005F0A8FC40F23823C2F200037F
:1010E0001C601BB0F0BD00BF38B545F69013C2F2CE
:1010F00000031B780D2B00F29E80DFE803F01049FF
:1011000072685F5527324972685F550745F6744328
:10111000C2F2000345F26042DB6C934240D945F6CF
:101120009413C2F2000340F240245B69502BC2F2D8
:10113000000421D9012280214FF0904004F0EAFA06
:1011400000232360BDE8384000F05CBF45F67443DF
:10115000C2F2000345F26042DB6C93424AD8FFF7CB
:101160004BFF45F6941540F24024C2F20005C2F24E
:1011700000046B69502BDDD8002280214FF0904095
:1011800004F0C8FA01232360BDE8384000F03ABFFC
:1011900045F67443C2F20003DB6CB3F5616FBED851
:1011A000BDE83840FFF728BF45F67443C2F200039C
:1011B00044F25062DB6C9342F2D9B0E745F67443D7
:1011C000C2F20003DB6CB3F5615FE9D9A7E745F62E
:1011D0007443C2F2000342F63022DB6C9342DFD943
:1011E0009DE745F67443C2F20003DB6CB3F5E15FA3
:1011F000D6D994E745F69415C2F2000540F2402492
:101200006B69502B0CD9012280214FF09040C2F223
:10121000000404F07FFA0023236000F0F3FEA8E747
:10122000002280214FF09040C2F2000404F072FAD4
:1012300001232360F1E745F69413C2F200035B69D2
:10124000502B0CD9012280214FF0904004F062FA1B
:1012500040F24023C2F2000300221A6038BD00228F
:1012600080214FF0904004F055FA40F24023C2F242
:10127000000301221A6038BD2DE9F04F46F2083410
:10128000C2F200049DB023681B2B00F22E81DFE820
:1012900013F0F3006F001C001C001C001C001C005D
:1012A0001C001C001C001C001C001C001C001C005E
:1012B0001C001C0021002100210021002100210030
:1012C00021002100210021000301013323601DB012
:1012D000BDE8F08F45F69413C2F200035B69502B12
:1012E00040F2F080012280214FF0904004F012FA89
:1012F00040F24023C2F2000300221A60236846F243
:10130000BC210133002508A8C2F200014C2260264E
:101310000027236009F0DBF92A46CDE9006769461A
:101320000026002708A8CDE90267CDE904670695E5
:1013300005F0DAFB294608A805F0FEFA46F2BC20C3
:101340002946C2F2000005F06FFB4FF480600223D3
:1013500008A9C4F600004FF400760027CDE90B552C
:10136000CDE908670A9304F0CBF81DB0BDE8F08F13
:1013700046F29C13C2F2000346F2C011002501267A
:1013800008A8C2F200014C224FF060084FF000099B
:101390001E6009F09CF9CDE900892A46694608A833
:1013A0004FF000084FF00809CDE90289049505F0D7
:1013B0009BFB294608A805F0BFFA324640214FF0B2
:1013C000904004F0A7F946F2C0102946C2F200008E
:1013D00005F02AFB40F23823C2F200033246802196
:1013E0004FF090401D6004F095F945F62023C2F2BD
:1013F000000340F24027DA6AC2F2000746F2BC213D
:1014000096194FF0020808A8C2F200014C22DE62D1
:101410003D6000260027C4F800804FF0600A09F004
:1014200056F94FF0C80B2A46694608A8CDE900AB2B
:10143000CDE90267CDE90467069505F055FB29461D
:1014400008A805F079FA46F2BC202946C2F200004D
:1014500005F072FA4FF480604FF40072002308A97F
:10146000C4F60000CDE90A85CDE908230C9504F007
:1014700047F81DB0BDE8F08F45F69413C2F20003A3
:101480001B68B3F5917F40F20003C2F2000314D948
:1014900040F6C3121A601AE746F29C1240F20003AB
:1014A000C2F20002C2F20003002140F6C410116033
:1014B000216018601DB0BDE8F08F1A687AB9012369
:1014C000236004E7002280214FF0904004F022F9CD
:1014D00040F24023C2F2000301221A600EE7013AF3
:1014E0001A60002A7FF4F3AEE9E746F29C13C2F2D9
:1014F000000300221A602260E9E600BF2DE9F043F4
:1015000046F20834C2F200049DB02368252B00F295
:101510002081DFE803F0CD74131313131313131397
:10152000131313131313131313131313131313138B
:101530001318181818181818181818DD0133236014
:101540001DB0BDE8F08345F69416C2F2000673693B
:10155000502B40F2E480012280214FF0904004F0B3
:10156000D9F840F24023C2F2000300221A6000F0D2
:1015700049FD236846F2BC2101330025C2F2000177
:101580004C224FF060084FF0000908A8236009F0D2
:101590009EF82A46CDE9008969464FF000084FF0D1
:1015A000000908A8CDE90289CDE90489069505F06E
:1015B0009BFA294608A805F0BFF946F2BC20294647
:1015C000C2F2000005F030FA4FF48060022308A94F
:1015D000C4F600004FF400784FF000090A93CDE9FB
:1015E0000B55CDE9088903F08BFF326844F2506354
:1015F0009A42A5D9012323601DB0BDE8F08346F2CD
:101600009C13C2F20003012280214FF090401A6027
:1016100004F080F845F6B812C2F2000240F240230E
:10162000C2F20003926B00201121186021600AB100
:101630000223236045F62023C2F2000346F2BC21B8
:101640005A6E0024551C08A8C2F200014C226026E4
:10165000C8275D6609F03BF82246CDE90067694678
:101660000026002708A8CDE90267CDE904670694A3
:1016700005F03AFA214608A805F05EF946F2BC20CA
:101680002146C2F2000005F057F94FF480600223B2
:1016900008A9C4F600004FF400760027CDE90B44FA
:1016A000CDE908670A9303F02BFF1DB0BDE8F08376
:1016B00045F69413C2F2000343F2D3021B6893422F
:1016C0001BD840F20003C2F2000322221A6037E75F
:1016D00045F6B81046F29C1240F20003C2F2000038
:1016E000C2F20002C2F200030021232581632160BF
:1016F00011601D601DB0BDE8F08344F2506293425A
:101700001AD840F20003C2F200031A68002A3FF41C
:1017100071AF013A1A60002A7FF412AF6AE7002223
:1017200080214FF0904003F0F5FF40F24023C2F2D9
:10173000000301221A601AE740F2000245F6B813CE
:10174000C2F20002C2F2000300200121106099637E
:1017500050E746F29C13C2F2000300221A60226096
:10176000EEE600BF38B545F6B414C2F200042368B3
:10177000002B44D145F69415C2F20005AB69502BFD
:1017800017D94FF48060C4F6000001224FF40041E5
:1017900003F0C0FF6B69502B59D84FF48060C4F63A
:1017A000000001224FF4005103F0B4FF0123236035
:1017B00038BD6B69502B4AD845F6B813C2F2000306
:1017C0001A6A002A4DD11A69002A5FD1DA68002A04
:1017D00068D19A68002A7DD1D3E900210A4355D106
:1017E000DB69002BE4D04FF48060C4F600000122D6
:1017F0004FF4804103F08EFF0923236038BD4FF47E
:101800008060013BC4F6000000224FF400412360D9
:1018100003F080FF4FF48060C4F6000000224FF414
:10182000804103F077FF4FF48060C4F6000000228F
:101830004FF4005103F06EFF4FF48060BDE8384074
:10184000C4F6000000224FF4805103F063BF4FF450
:101850008060C4F6000001224FF4804103F05AFF7B
:101860009BE74FF48060C4F6000001224FF4004172
:1018700003F050FF4FF48060C4F6000001224FF4E3
:10188000804103F047FF0123236038BD4FF480609F
:10189000C4F6000001224FF4004103F03BFF012396
:1018A000236038BD40F24023C2F200034FF4806051
:1018B0001B68C4F6000001224FF480412BB140F2B6
:1018C0003823C2F200031B6883B903F023FF03230C
:1018D000236038BD4FF48060C4F6000001224FF44D
:1018E000004103F017FF0923236038BD03F012FF06
:1018F0000123236038BD00BF80B483B000AF002354
:101900007B6010E07A6845F64C43C2F200031A444B
:101910004AF20003C0F6030379680B441B78137086
:101920007B6801337B607B68272BEBD945F64C4302
:10193000C2F200031B68B3F1FF3F10D100237B60AC
:101940000AE07A6845F64C43C2F2000313440022D1
:101950001A707B6801337B607B68272BF1D900BF4D
:101960000C37BD465DF8047B704700BFF0B545F607
:101970009456C2F2000687B0306806F035FB45F693
:101980002023C2F2000345F64C441A6801321A6063
:1019900000220123CDE9022374220123CDE904238F
:1019A00003F04EFC4FF40053C4F20203B3221A6159
:1019B00001A902A803F0A4FC4AF20005C2F2000447
:1019C000C0F6030504F12807D4E9002329460020C6
:1019D00003F074FB0834083548B9BC42F4D103F075
:1019E00045FC3068642106F0E7FA07B0F0BD6421D9
:1019F000306806F0E1FA03F043FC07B0F0BD00BF29
:101A000080B584B000AF0023BB6000237B6046F24A
:101A10009813C2F2000300221A600023FB603BE02F
:101A200004233B6010E03B68013B3B60BB681A024B
:101A300040F20003C0F60203F968C90219443B688A
:101A40000B441B781343BB603B68002BEBD1BB6896
:101A5000B3F1FF3F01D10023BB60BA687B689A42B3
:101A60000FD946F29813C2F20003FA681A60BB68F5
:101A70007B604FF400514FF48060C4F6000003F027
:101A80004FFE4FF480414FF48060C4F6000003F035
:101A900047FEFB680133FB60FB68332BC0D9002293
:101AA0004FF480414FF48060C4F6000003F032FE32
:101AB00000224FF400514FF48060C4F6000003F0A0
:101AC00029FE0023FB6017E046F29813C2F20003E0
:101AD0001968FA6846F20C23C2F200031A4440F275
:101AE0000003C0F60203C9021944FB680B441B78CB
:101AF0001370FB680133FB60FB68AF2BE4D946F23F
:101B00000C23C2F20003DB69B3F1FF3F19D10023BC
:101B1000FB6012E0FA6845F62023C2F2000313448A
:101B200000221A70FA6846F20C23C2F20003134432
:101B300000221A70FB680133FB60FB68AF2BE9D908
:101B40000DE045F62022C2F2000246F20C23C2F25A
:101B5000000310461946B0231A4608F0B8FD00BF2E
:101B60001037BD4680BD00BF80B588B000AF0023F0
:101B7000FB610023BB6145F69453C2F200031B686E
:101B8000184606F031FA46F20C22C2F2000245F67F
:101B90002023C2F2000310461946B0231A4608F06B
:101BA00096FD46F29813C2F200031B68322B0BD845
:101BB00046F29813C2F200031B685A1C46F29813AF
:101BC000C2F200031A6005E046F29813C2F2000365
:101BD00000221A6045F62023C2F200031B685A1C3B
:101BE00045F62023C2F200031A6000237B60012324
:101BF0003B6146F29813C2F200031B684033FB605E
:101C00000123BB6003F01CFB4FF40053C4F202033A
:101C1000B3221A6107F114023B1D1146184603F066
:101C20006FFB03F023FB03F00BFB4FF40053C4F2F4
:101C30000203B3221A612FE046F29813C2F20003A6
:101C40001B68DA02BB691A4440F20003C0F60203C3
:101C500013441946FB69DA0046F20C23C2F2000372
:101C60001344D3E90023002003F028FA0346002B95
:101C700006D1BB690833BB61FB690133FB610BE033
:101C800045F69453C2F200031B686421184606F01F
:101C900093F903F0F5FA0DE0FB69152BCCD903F0AD
:101CA000E5FA45F69453C2F200031B686421184616
:101CB00006F082F92037BD4680BD00BF30B545F63D
:101CC0009455C2F2000587B0286806F08DF945F6F4
:101CD0002020B0220021C2F2000008F006FD46F2EA
:101CE000981446F20C20B0220021C2F20004C2F285
:101CF000000008F0FAFC00234022002001212360AC
:101D00000123CDE90423CDE9020103F099FA4FF450
:101D10000053C4F20203B3221A612368322B0BD89A
:101D200001A902A803F0ECFA23685A1C322A03F135
:101D3000410322600493F3D903F098FA0023286842
:101D40002360642106F038F907B030BD45F6B813BA
:101D5000C2F2000345F694111A68F0B4C2F2000111
:101D6000002A40F0DD80C8684C685A688AB145F6A0
:101D70007442C2F2000241F259775568CDF2B717AA
:101D800000FB04F6A7FB067605EB563500265560EA
:101D90005E609A68002A40F0AE800D68DA688AB109
:101DA00045F67442C2F2000241F2597CD668CDF287
:101DB000B71C00FB05F7ACFB07C706EB573600273F
:101DC000D660DF601A698AB145F67442C2F2000239
:101DD00041F2597C1669CDF2B71C00FB04F7ACFB4D
:101DE00007C706EB5736002716611F61DA6942B153
:101DF00045F67442C2F200020027D669DF6101365F
:101E0000D6611A6A42B145F67442C2F20002002756
:101E1000166A1F62013616629A6942B145F674422B
:101E2000C2F20002002796699F6101369661DA6C62
:101E300042B145F67442C2F200020027D66CDF645C
:101E40000136D664DA6B002A49D145F62022C2F267
:101E500000021E6D46B145F67446C2F20006002728
:101E60001F65376D274437655E6D46B145F674468C
:101E7000C2F2000600275F65736D5F1977654B69D5
:101E8000566BB34203D3966B5363013696638B69EB
:101E9000D16B8B4203D3116CD36301311164536C4A
:101EA000AB4203D8936C556401339364D36CA34263
:101EB00003D8136DD46401331365536D834203D883
:101EC000936D506501339365F02806D9D36DF02BDF
:101ED0003BD8136ED06501331366F0BC704745F6EE
:101EE0002022C2F200020027D2F8A060DF63013690
:101EF000C2F8A060ADE745F67447C2F200070D686E
:101F00008A68BE6841F2597C02FB05F2CDF2B71C2B
:101F1000ACFB02C206EB52320026BA609E603DE77F
:101F200045F67442C2F20002C8684C68156841F276
:101F3000597704FB00F6CDF2B717A7FB067605EB41
:101F40005635002615601E600FE78342C5D3136E19
:101F5000D06501331366C0E745F67443C2F200034F
:101F6000F0B5D3E900054BF2C531C9F2A21145F62F
:101F70002022C2F20002A1FB0060D3E90247C00A9E
:101F8000A1FB055E1E691D6D50609068A1FB044CAD
:101F9000A1FB0747A1FB0646A1FB054500EBDE249C
:101FA000946090699C692044D4689061586D04EBFA
:101FB000DC24A1FB0001D460D2E9044004EBD72764
:101FC000D2F89440176100EBD626D06F566104EB2F
:101FD000D52500EBD121D469106ADE69C2F894508E
:101FE0001D6AD167344400212844C2E90740C3E98F
:101FF0001411C3E90011C3E90211C3E90711996182
:102000001961F0BD45F69413F0B5C2F200039BB020
:102010009B69502B33D840F23824C2F20004256863
:102020000DB11BB0F0BD2A4640214FF0904003F0A7
:1020300071FB46F2C01107A8C2F200014C226026D3
:102040004FF4FA7708F043FBCDE900672A4669466A
:1020500007A800260827CDE90267049504F044FD8F
:10206000294607A804F068FC46F2C0102946C2F2CF
:10207000000004F061FC012323601BB0F0BD46F2B8
:10208000C011002407A8C2F200014C2260260027DC
:1020900008F01DFBCDE900672246694607A8002627
:1020A0000827CDE90267049404F01EFD214607A825
:1020B00004F042FC012240214FF0904003F02AFB43
:1020C00046F2C0102146C2F2000004F0ADFC40F21E
:1020D0003823C2F200031C601BB0F0BD08B502F04B
:1020E000F1F800F033F800F0F7F900F0C1F900F072
:1020F00061F800F09DF900F001F900F041F905F0F8
:102100008FFE40F6080343F60D00C0F601030022DF
:102110000121C0F6000005F00BFF45F69453C2F212
:102120000003044640F2E47242F6C170C0F60102B8
:10213000C0F6000000211C6005F0A0FE45F68C13DF
:10214000C2F20003186005F07DFEFEE730B599B0DD
:1021500006A84422002108F0C8FA00234FF40070BA
:10216000CDE90033CDE90233049303F0EBFA08B173
:1021700072B6FEE70346012406A84FF48035CDE988
:102180000645109303F0DCFB014608B172B6FEE78A
:102190000F240225002200236846CDE90045CDE941
:1021A0000223049103F044FF08B172B6FEE719B0B0
:1021B00030BD00BF30B545F61C34C2F20004002328
:1021C00087B0C5F2040304224FF480250821236060
:1021D0006261002301222046C4E90233C4E90A33C4
:1021E000CDE90133CDE903336560E161238384F8F0
:1021F0002030636384F838300093226184F8302003
:10220000059302F083F808B172B6FEE70222C0F22D
:1022100030420623CDE9002301227F23CDE90223AA
:102220006946042200232046CDE9042302F0A2F9E6
:1022300008B172B6FEE70422C0F660020C236946BC
:102240002046CDE9002302F095F908B172B6FEE709
:102250000822C0F690421223029069462046CDE93A
:10226000002302F087F908B172B6FEE71022C1F22E
:10227000C002182369462046CDE9002302F07AF90E
:1022800008B172B6FEE72022C1F2F0424FF480732B
:1022900069462046CDE9002302F06CF908B172B618
:1022A000FEE74022C1F620124FF4837369462046B0
:1022B000CDE9002302F05EF908B172B6FEE7802294
:1022C000C1F650524FF4867369462046CDE900238B
:1022D00002F050F908B172B6FEE70122C8F200021E
:1022E0004FF4897369462046CDE9002302F042F994
:1022F00008B172B6FEE707B030BD00BFD0B546F2F8
:10230000C014C2F200044FF080438CB0012223605D
:102310004FF400734FF47A716260236180220023CE
:102320002046CDE90233CDE90533CDE90733CDE9C8
:102330000933E160A261A3600193049304F082FA7F
:1023400008B172B6FEE7034601A920460193039344
:1023500004F078FE08B172B6FEE702466026002758
:102360000690089004A92046CDE9046704F0BCFB60
:1023700008B172B6FEE7204601F0A4FD0CB0D0BD56
:10238000F0B5002595B029462C2208A846F2BC24B9
:10239000C2F20004CDE90055CDE90255CDE904555E
:1023A000069508F0A2F94FF48843C4F20103012610
:1023B0004FF4FA7180222046C4E90455A5602360D9
:1023C0006660E160A26104F093F908B172B6FEE7BD
:1023D000204604F037FA024608B172B6FEE76026DE
:1023E000FE27CDE900676946002600272046CDE993
:1023F0000267CDE90467069204F076FB034608B154
:1024000072B6FEE7CDE90867CDE90A6708A900269C
:102410004FF400572046CDE90C67129304F04CFEB0
:1024200008B172B6FEE7204601F04CFD15B0F0BDD4
:1024300045F6C830C2F200004FF46053C4F2010305
:1024400010B50C214FF4E1344FF400420360002337
:10245000C0E90233C0E9083344604161C2610361ED
:10246000836105F0D9FB08B172B6FEE710BD00BF6D
:102470004FF48053C4F2020300B5996C41F001019E
:102480009964996C83B001F0010100910099996CF5
:1024900041F0020199649B6C03F002030022019356
:1024A00005210B20019B02F063FC0B2002F09AFC3B
:1024B00000220521442002F05BFC442002F092FC43
:1024C00000220521452002F053FC452003B05DF8B1
:1024D00004EB02F087BC00BF2DE9F04300248BB071
:1024E000CDE90444CDE906444FF48053C4F202031D
:1024F0000894DA6C42F08002DA64DA6C02F080024E
:102500000092009ADA6C42F00402DA64DA6C02F0AB
:1025100004020192019ADA6C42F00102DA64DA6C88
:1025200002F001020292029ADA6C42F00202DA64CC
:10253000DB6C4FF4806503F00203C4F600050393DF
:1025400022464FF4E8714FF09040039B03F0E2F80D
:10255000224628464FF4704103F0DCF8002600279D
:1025600004A94FF4E87201234FF09040CDE9042311
:10257000CDE9066702F0C4FF4FF4006004A93022E1
:1025800000230124C4F60000CDE90423069402F0E0
:10259000B7FF0322284604A90023CDE904230694AB
:1025A0004FF4017802F0ACFF4FF00009284604A96F
:1025B00002230693CDE9048902F0A2FF4FF4704292
:1025C0000123284604A9CDE90667CDE9042302F0DA
:1025D00097FF0BB0BDE8F0830368DB69DB0669D5C4
:1025E0002DE9F04740F25623C2F2000345F6C83504
:1025F0001A78016FC2F2000501321A702A680B685E
:1026000040F2572410211162C2F200045B68217865
:1026100040F25422C2F20002C3F17F039BB20129AF
:10262000168813800CD945F6C830C2F2000005F0B8
:10263000D5F8002840F04D8100232370BDE8F087D5
:1026400000293FD19B1B9BB2013B7E2BEBD845F66B
:102650001457C2F20007BD5D05F0DF03462B38D0EA
:10266000432B40F0848040F24823C2F2000305224D
:102670001A60302D35D0312D00F0A38005F0DF0336
:10268000482B01D03F2DD7D140F24823C2F200039E
:1026900045F698504FF638613C25C2F2000040F2F2
:1026A0006A22C0F600011D6008F011F800232370B3
:1026B000BDE8F08740F25723C2F200031A780132D6
:1026C0001A707047B342AED8C6F17F0213449BB272
:1026D000BAE740F24823C2F200030422302D1A6008
:1026E000C9D146F2A012C2F20002D2ED007AF8EE91
:1026F000677AB0EE087A40F2482367EE877AC2F232
:1027000000033E221A6017EE900AFDF71DFF4CF6FB
:10271000CD4240F6CC43CCF6CC42C4F24303FDF7A5
:10272000B5FD4FF68853C0F60003D3E90023804679
:102730008946FEF7D3F9002840F00181404649461A
:10274000FEF732FAB0F5FA7FC0F01D8145F694131A
:10275000C2F2000345F698504FF6D0511A68C0F601
:102760000001C2F2000008F01DFFBD5D83E7572B9A
:1027700006D140F24823C2F2000303221A6078E730
:10278000452B64D145F62028C2F20008404646F2A7
:10279000102950F804ABC2F20009AC22002107F066
:1027A000A4FFAC224846002107F09FFF40F24823D7
:1027B000C2F200030422C8F800A049F804AC1A6071
:1027C00057E746F2A012C2F20002D2ED017AF8EE0B
:1027D000677AB0EE087A40F2482367EE877AC2F251
:1027E00000033E221A6017EE900AFDF7ADFE4CF68C
:1027F000CD4240F6CC43CCF6CC42C4F24303FDF7C5
:1028000045FD4FF68853C0F60003D3E90023804608
:102810008946FEF763F9002840F0A3804046494608
:10282000FEF7C2F9B0F5FA7FC0F0AF8045F6941319
:10283000C2F2000345F698504FF614615A68C0F68C
:102840000001C2F2000008F0ADFEBD5D16E7442BAA
:102850000AD1FFF733FA40F24823C2F20003BD5D0C
:1028600004221A6005F0DF03502B06D140F2482302
:10287000C2F200033E221A60FBE64F2B0AD140F25F
:102880004823C2F200033E221A60FFF735F8BD5D0F
:1028900005F0DF034C2B0AD1FFF768F840F248231C
:1028A000C2F20003BD5D3E221A6005F0DF034B2B30
:1028B0007FF4DFAE40F24823C2F200033E2145F62A
:1028C0004C40196028220021C2F2000007F00DFFE1
:1028D000CFE645F6C830C2F2000004F08BFC4FF49E
:1028E0006052C4F2010245F6C83000234FF4E136CD
:1028F0002A600C214FF40042C2F20000C5E9023305
:10290000C5E908336E602B61AB616961EA6105F06E
:1029100083F908B172B6FEE745F6145145F6C830A2
:102920007F22C2F20001C2F2000005F033FA2B68E8
:1029300010221A621A6842F010021A607CE6002225
:1029400045F64C43C2F2000345F698504FF6B0519D
:10295000C2F20000C0F600015A6008F023FEBD5D1F
:1029600089E6002245F64C43C2F2000345F6985032
:102970004FF6F851C2F20000C0F600019A6008F06C
:1029800011FEBD5D7AE60246DAE70246EAE700BFDD
:1029900040F25823C2F200031A7801321A707047CD
:1029A0002DE9F04745F62027C2F200079CB0D7F882
:1029B000A030B3F5617F00F2068145F6B814C2F28B
:1029C000000440F26026C2F2000645F69415C2F2F9
:1029D00000053368EA6803F5A3734FF000089A42D4
:1029E000C4F8488002D2F02A00F2CF806369002B3D
:1029F00040F0F5806B694FF00008502BC6F800805E
:102A0000C4F814807AD8424680214FF0904002F0FA
:102A100081FE40F24023C2F2000301221A602B68BB
:102A2000B3F5917F7AD8636B23B93B6B01221344D2
:102A30003B6362630126A661FEF71EFC46F29C130F
:102A4000C2F200031B68002B55D140F25C2AC2F28F
:102A5000000AE968DAF8002002F29112914202D2EB
:102A6000F02900F2F18046F2C0110026C2F2000106
:102A70004C224FF060084FF0000909A807F027FE2C
:102A8000CDE90289324602A909A84FF000084FF0AB
:102A90000809CDE90489069604F026F8314609A80C
:102AA00003F04AFF012240214FF0904002F032FE35
:102AB00046F2C0103146C2F2000003F0B5FFE968EB
:102AC000CAF8006040F23823C2F200030122B1F5D7
:102AD000C97F1E6022620ED3236BD7F89400C7F81B
:102AE0008000002B40F0BB80A36A002B00F0BB806D
:102AF000C7F89C1022631CB0BDE8F087012280213A
:102B00004FF0904002F006FE40F24023C2F2000374
:102B1000C3F800802B68B3F5917F84D946F2C011C9
:102B20000025012609A8C2F200014C224FF06008DE
:102B30004FF00009A66007F0CAFDCDE902892A46D8
:102B400002A909A84FF000084FF00809CDE904894F
:102B5000069503F0C9FF294609A803F0EDFE3246A9
:102B600040214FF0904002F0D5FD46F2C0102946BA
:102B7000C2F2000003F058FF40F23823C2F2000313
:102B800065631D601CB0BDE8F08745F67443C2F272
:102B900000031B69B3F5167FBFF428AFFFF732FAC5
:102BA0001323012280214FF09040336002F0B2FDE8
:102BB00040F24022C2F200020123C4E90433C2F809
:102BC0000080236597E745F6744345F6B814C2F2D2
:102BD0000003C2F200040022DA642264F1E646F245
:102BE000C0114FF0000AC2F200014C224FF0600801
:102BF0004FF0000909A807F06AFDCDE902895246A5
:102C000002A909A84FF000084FF00809CDE904898E
:102C1000CDF818A003F068FF514609A803F08CFE18
:102C2000012240214FF0904002F074FD46F2C010A6
:102C30005146C2F2000003F0F7FE40F23823C2F220
:102C40000003C3F800A0D5E60193FFF7DBF9019B71
:102C5000666014222665A362CAF800204BE7A36AC7
:102C6000002B7FF448AF01220023A262FB6742E7FA
:102C700045F67443F0B5C2F2000345F6B814DB6CB8
:102C8000C2F2000401220021B3F5617F9BB06161B3
:102C9000E261E26403D9216C002900F0A08040F2D7
:102CA0006025C2F2000545F694162B68C2F20006B4
:102CB000C3F5AC73F26801339A4229D946F29C13EA
:102CC000C2F2000300221B68E2626262002B00F085
:102CD000C780FEF713FC40F24023C2F20003132228
:102CE0001B682A6013B10123E36063653368B3F5A1
:102CF000917F0BD9A36A4BB145F62023C2F20003A2
:102D000000219A6AA16201329A6221631BB0F0BD70
:102D100040F25C23C2F20003E06A002119602960DE
:102D2000636A002848D0002B77D045F61023C2F202
:102D300000035C68002CE9D11B68022BE6D17369A3
:102D4000502B40F29080012280214FF0904002F001
:102D5000E1FC40F24023C2F200031C6046F2C011C5
:102D60000024C2F200014C226026002707A807F0C9
:102D7000AEFCCDE900672246694607A80026082771
:102D8000CDE90267049403F0AFFE214607A803F0E3
:102D9000D3FD012240214FF0904002F0BBFC46F2EF
:102DA000C0102146C2F2000003F03EFE40F238237C
:102DB000C2F200031C60A9E77BB345F62023C2F2F0
:102DC00000032063C3F89820586F1A6F98675A67FA
:102DD000D86EDA6F0121C3E91B20E162A5E745F651
:102DE0002023C2F200032264D3E92252D3F88400E4
:102DF000C3F89020D3F89420C3F88C50C3F888000F
:102E0000D3F8A850D3F8A400C3F88420D3F8A020A6
:102E1000C3E92A05C3E9281241E745F62023C2F297
:102E200000030122596A62628818002558628021D5
:102E30004FF09040C3F89450A56202F06BFC40F252
:102E40004023C2F200031D60FFF7DCF8636A002B29
:102E50003FF45CAFE36A002B7FF467AF1BB0F0BDBB
:102E6000FEF742F935E7224680214FF0904002F00C
:102E700051FC40F24023C2F2000301221A606DE7C8
:102E800030B545F62022C2F200029FB0D2E92614E6
:102E9000D2F88450D36E1D95D2F880501C94946E55
:102EA0001B91516E1A93136E1995956D1894D46DEC
:102EB0001791516D1693136D1595956C1494D46CF0
:102EC0001391516C1293136CCDE91045CDE90E317D
:102ED0009469116A936BCDE90014516BD56BD46A78
:102EE0000D93136B0C91916A0B95556A0A94D468F3
:102EF0000993536908911169079595680694546878
:102F00000593D3691268049145F6985040F27C21EC
:102F1000C0F60101C2F20000CDE9024508F042FB13
:102F20001FB030BD30B545F62022C2F20002D2E912
:102F30002A459BB0D2E928311995D2F890501894BF
:102F4000D2F88C401791D2F888101693D2F88430BA
:102F50001595956F1494546F1391116F1293D36E4E
:102F60001195D2F880501094D46F0F91D2F894102C
:102F70000E93D36ACDE90C45CDE90A31D2E9095364
:102F8000116BD46809915169089313690795956885
:102F900006945468059191690493136ACDE902453A
:102FA000CDE9003145F6985040F29041D36912685E
:102FB000C0F60101C2F2000008F0F4FA1BB030BD07
:102FC0002DE9F04F45F69416C2F200062DED028B66
:102FD0007369502BB5B040F2402346D9C2F20003CA
:102FE0001C46012280214FF09040109302F092FB8A
:102FF0000023236045F6C83400224FF480714FF05F
:103000009040C2F2000402F085FBFEF7F9FCFEF7E7
:1030100073FC204600F0AAFF2268136845F614519D
:1030200043F010031360C2F200017F22204604F037
:10303000B1FE45F61C307F21C2F2000001F036FEE1
:10304000322004F067FF46F2A01145F61C30C2F2B0
:103050000001C2F20000082201F098FD054688B187
:1030600035B0BDEC028BBDE8F08FC2F200031C4608
:10307000002280214FF09040109302F04BFB01237F
:103080002360B7E74FF48060C4F6000001224FF4DC
:10309000004102F03FFB4FF48060C4F600000122C3
:1030A0004FF4804102F036FB4FF48060C4F600001C
:1030B00001224FF4005102F02DFB4FF48060C4F662
:1030C000000001224FF4805102F024FB40F2911CD9
:1030D000F021CDE9051C40F2591C4FF4D771CDE920
:1030E000031C4FF0130E142744F2506B43F2D40A22
:1030F0004FF0230940F6C4184FF49173502245F65F
:10310000985040F2A401CDE9077ECDE90BABCDE9A3
:103110000989C0F60101CDE901330092342301226F
:10312000C2F2000008F03EFA45F69850C2F20000E4
:10313000FDF74EF845F6985182B2C2F200012046E2
:1031400004F002F8052004F0E5FE4FF480602A4602
:10315000C4F600004FF4004102F0DCFA4FF4806046
:103160002A46C4F600004FF4804102F0D3FA4FF42F
:1031700080602A46C4F600004FF4005102F0CAFAFB
:103180004FF480602A46C4F600004FF4805102F0EC
:10319000C1FA4FF480600121C4F6000002F0B4FAD5
:1031A00045F69019C2F2000903464FF40060102161
:1031B000C4F6000089F8003002F0A6FA99F8002061
:1031C00003464FF4806002EB43030221C4F6000083
:1031D00089F8003002F098FA99F8002003464FF47D
:1031E000006002EB83032021C4F6000089F8003060
:1031F00002F08AFA99F8003003EBC003DBB24FF417
:10320000806003F00102C4F600004FF4004189F829
:10321000003002F07FFA99F800204FF4806002F04D
:103220000202C4F600004FF4804102F073FA99F8EC
:1032300000204FF4806002F00402C4F600004FF456
:10324000005102F067FA99F800204FF4806002F014
:1032500008024FF48051C4F6000002F05BFA3220FD
:1032600004F058FE4FF480602A46C4F600004FF484
:10327000004102F04FFA4FF480602A46C4F6000085
:103280004FF4804102F046FA4FF480602A46C4F6BB
:1032900000004FF4005102F03DFA4FF480602A46DE
:1032A0004FF48051C4F6000002F034FAFFF7E8FD55
:1032B00045F69850C2F20000FCF78AFF45F6985197
:1032C00082B2C2F20001204645F64C4BC2F2000B1E
:1032D00003F03AFF384604F01DFEDBE90710DBE996
:1032E0000532DBF810700690CDE90421CDE90273B8
:1032F000DBF80C300193DBF80830009345F698506A
:1033000040F20061DBE90023C0F60101C2F20000D7
:1033100008F048F945F69850C2F20000FCF758FF53
:1033200045F6985182B2C2F20001204603F00CFF2C
:1033300045F69453C2F2000345F6B814186845F6F2
:1033400020222346C2F20002C2F20003642112923C
:10335000119304F031FE12981199C0F89450012392
:10336000C56745F61020CB624B620B640346C2F280
:10337000000340F23C2119930B46C2F2000340F2D5
:10338000342045F6985417930346C2F20004C2F263
:10339000000340F238211594189340F244240B4660
:1033A00040F2502040F25C214FF4AF7240F24827C7
:1033B00045F6744840F24C2AC2F20004C2F20003FF
:1033C000C2F20000C2F200019DED158AF260C2F265
:1033D0000007C2F200081493C2F2000A0F90139182
:1033E0000E945A2004F096FD00224FF480714FF0A5
:1033F000904002F08FF90E9C236833B9022004F04C
:1034000089FD2368002BF9D00E943B68032B68D00C
:10341000022B6BD0042B00F09580052B00F00D8162
:10342000012B00F03D813E2B00F073813C2B00F01E
:1034300034810BB1013B3B60159A0023137018EEE9
:10344000100AFCF7C5FE024645F6C83018EE101A01
:1034500092B2C2F2000003F077FEDAF800302BBB24
:1034600099F80030062B17D87369502B24D80F9B7E
:1034700072681B68C3F591739A4204D8B368B3F5B8
:10348000D77F40F240810F9A46231360FFF788FAF6
:10349000119A0123D363A4E7DA1F062A19D8B36966
:1034A000502B54D9002389F800309AE7FEF75CFBD3
:1034B0000023CAF80030D3E70723012280214FF010
:1034C000904089F8003002F025F9109A002313602B
:1034D00087E70E2B85D17369502BEDD8FFF760FA83
:1034E0007FE702233B60FFF71DFDA8E7129BD8F89A
:1034F0005000D3F8A010D8F84C20D8F80830089025
:10350000D8F80C000791D8F804100692D8F80020DB
:103510000593D8F81030D8F818400094CDE903038B
:10352000CDE90121012040F29C613860D8E90723F0
:10353000D8F85450099518EE100AC0F6010108F0A9
:1035400031F87CE7FFF79CFC00233B6077E70F9B9B
:1035500072681B68C3F591739A4204D8B368B3F5D7
:10356000D77F40F2D0800F98139BF2681B684621EA
:103570000160119903F2911308469A424FF001013C
:10358000C16302D2F02A00F2FD807369502B40F231
:10359000E280012280214FF0904002F0BBF8109AA7
:1035A0000023136046F2C011C2F200014C2221A890
:1035B00007F08DF800231A461E9300246023CDE9FE
:1035C0001A341AA90023082421A8CDE91C3403F0D9
:1035D0008BFA0023194621A803F0AEF901224021FD
:1035E0004FF0904002F096F8002346F2C0101946C2
:1035F000C2F2000003F018FA149B1398F1681A46FF
:10360000002313600360119B0122B1F5C97F1D46A1
:103610001A62FFF4E6AE1C6B129BD3F89400C3F859
:103620008000002C40F0A180A86A002800F0A28051
:10363000C5E90B42C3F89C10D3E644F2506343F251
:10364000D40213210C9314234FF0230C40F6C41022
:103650000B92089140F291124FF4D77107934FF4F7
:103660009173CDE90231CDF828C009904FF0F00CEC
:1036700040F25910069240F2A4015022CDE90023F5
:10368000CDE9040C342318EE100A0122C0F6010122
:1036900007F088FF00233B60D1E63B233B60CEE68A
:1036A000199C17996368009308687568D6E9022128
:1036B00000233B600A95189D0D900C910B922B688E
:1036C00035680995149DB0692D6808901098716946
:1036D000006832690791169099F8000006922168F7
:1036E000059322460C46936804951699D268039177
:1036F00040F248710290C0F6010118EE100A0194E0
:1037000007F050FF9BE60F9A00231360FFF7B0FA13
:1037100067E6DBE90710DBE905320690DBF80C0011
:103720000591DBF80810CDE90332DBF81030009189
:10373000CDE9010340F20061DBE9002318EE100A35
:10374000C0F6010107F02EFF3B68002B3FF477AE77
:10375000013B3B6073E6002280214FF0904001F076
:10376000D9FF109A012313601CE7119B9B6A002B61
:103770007FF437AE119901228A62129A00234B62BC
:10378000D3672EE6149D2B686BBB1A4640214FF081
:103790009040169301F0BEFF46F2C011C2F2000144
:1037A0004C2221A806F093FF169B1E931A464FF455
:1037B000FA746023CDE91A341AA90023082421A839
:1037C000CDE91C3403F090F9169B21A8194603F0AB
:1037D000B3F8169B46F2C0101946C2F2000003F07F
:1037E000ABF801232B60012280214FF0904001F0C3
:1037F00091FF10980022026011988262139A0123AF
:103800001421116003600365EBE500BF2DE9F84F5B
:1038100040F26423C2F200032DED028B1A68002AE5
:1038200000F0FD81013A1A60FEF790FA46F2A01509
:1038300045F61C30C2F20005C2F2000001F066F944
:10384000D5ED007AF8EE677AB0EE087A67EE877AFF
:1038500017EE900AFCF778FE4CF6CD4240F6CC43CA
:10386000CCF6CC42C4F24303FCF710FD4FF6905364
:10387000C0F60003D3E9002306460F46FDF72EF9F4
:103880000446002840F0C78130463946FDF78CF9E0
:1038900045F64C43C2F200035B68834280F01F820E
:1038A000C31AD5ED017AF8EE677AB0EE087A45F6DC
:1038B000941467EE877AC2F2000417EE900A236030
:1038C000FCF742FE4CF6CD4240F6CC43CCF6CC425F
:1038D000C4F24303FCF7DAFC4FF69053C0F6000342
:1038E000D3E9002380468946FDF7F8F8064600280C
:1038F00040F0938140464946FDF756F945F64C4362
:10390000C2F200039B68834200D2C61AD5ED027A48
:1039100066600023C4F2C82308EE903AF8EE677A96
:103920004FF47043C4F27F5308EE103A67EEA87A62
:10393000C7EE887A17EE900AFCF706FE45F2EB1305
:103940004FF00042C4F20A03FCF756FE4FF4C043A6
:103950000022C4F27E03FCF74FFE00230022C3F6D0
:10396000B073FCF749FE49F69A1249F69913C9F665
:103970009912C3F6B973FCF73FFEFDF715F9D5EDC3
:10398000037AA060F8EE677A67EEA87AC7EE887AC5
:1039900017EE900AFCF7D8FD45F2EB134FF000420A
:1039A000C4F20A03FCF728FE4FF4C0430022C4F21D
:1039B0007E03FCF721FE00230022C3F6B073FCF760
:1039C0001BFE49F69A1249F69913C9F69912C3F6E5
:1039D000B973FCF711FEFDF7E7F8E0602869FCF722
:1039E00091FD00230022C4F2080343EC182B064685
:1039F0000F46B0EE481AF0EE681A47EC106B0BF069
:103A000007FA32463B46304639465BEC10ABFCF7D2
:103A1000F3FD44F22D3243F2E263CEF61C32C3F6DC
:103A20000A73FCF7E9FD4FF2857241F29403804678
:103A30008946CDF24362CBF63E6350465946FCF7C9
:103A4000DBFD02460B4640464946FCF71FFC45F6A7
:103A5000B41248F6DA2380468946CBF6F512C3F64F
:103A6000BD7330463946FCF7C7FD02460B4640465B
:103A70004946FCF709FC45F2EC124EF68533C1F6D7
:103A8000B862C4F25E03FCF701FCFDF78DF80D3857
:103A900020616869FCF736FDB0EE481AF0EE681A4E
:103AA00006460F4647EC106B0BF0B2F932463B4628
:103AB000304639465BEC10ABFCF79EFD44F22D32EC
:103AC00043F2E263CEF61C32C3F60A73FCF794FDB0
:103AD0004FF2857241F2940380468946CDF24362EB
:103AE000CBF63E6350465946FCF786FD02460B4630
:103AF00040464946FCF7CAFB45F6B41248F6DA23BD
:103B000080468946CBF6F512C3F6BD73304639467A
:103B1000FCF772FD02460B4640464946FCF7B4FBF3
:103B200045F2EC124EF68533C1F6B862C4F25E037C
:103B3000FCF7ACFBFDF738F80D386061A869FCF7BD
:103B4000E1FCB0EE481AF0EE681A06460F4647EC64
:103B5000106B0BF05DF932463B46304639465BEC64
:103B600010ABFCF749FD44F22D3243F2E263CEF68E
:103B70001C32C3F60A73FCF73FFD4FF2857241F227
:103B8000940380468946CDF24362CBF63E635046AD
:103B90005946FCF731FD02460B4640464946FCF7C4
:103BA00075FB45F6B41248F6DA2380468946CBF613
:103BB000F512C3F6BD7330463946FCF71DFD0246CB
:103BC0000B4640464946FCF75FFB45F2EC124EF6C9
:103BD0008533C1F6B862C4F25E03FCF757FBFCF70D
:103BE000E3FF03464FF480600D3B4FF40071C4F6D1
:103BF0000000A36101F088FDBDEC028B40F23C2285
:103C000040F24423C2F20002C2F20003012110601C
:103C10001960BDE8F88F002343E6002676E645F6F6
:103C20001024C2F2000440F248252368C2F20005C5
:103C300001332360FDF796FD2B680BB902232B603F
:103C400040F20C03C2F200031A68002A7FF4EAADC6
:103C5000616822604FF480604A1CC4F600000121B4
:103C60004FF03B096260C3F8009001F04DFD45F64E
:103C70009016C2F2000603464FF400601021C4F60D
:103C80000000337001F040FD327803464FF480604D
:103C900002EB43030221C4F60000337001F034FD4F
:103CA000327803464FF4006002EB830340F20807CA
:103CB000C4F6000020213370C2F2000701F024FD99
:103CC0003378D7F8008003EBC000032330702B60FB
:103CD000B8F1000F05D008F1FF333B60A4E523469F
:103CE000DFE5FEF739F940F20403C2F20003A068F1
:103CF0001A68C7F8009040F24C21C2F2000101306E
:103D00000125C4F80480A0600D60002A7FF48AAD0C
:103D1000E168A26001311722E1601A6084E500BF0A
:103D200002684FF48053C4F200039A4200D07047F7
:103D300000F0D8BA72B6FEE74FF48053C4F2020323
:103D400082B0196E41F001011966196E01F001018E
:103D500000910099996D41F0805199659B6D03F038
:103D600080530193019B00220F216FF0010002B0EC
:103D700000F0FEBF70B50446A0B000215C2209A887
:103D8000CDE90411CDE90611089106F0AEFC2268D8
:103D90000023C5F204039A4201D020B070BD4FF455
:103DA00080424FF0405309A809921D9302F0FCFA9B
:103DB000002853D14FF48053C4F202034FF4006043
:103DC000DA6C42F40052DA64DA6C02F400520192C6
:103DD000019ADA6C42F00402DA64DA6C02F004024E
:103DE0000292029ADA6C42F00102DA64DB6C03F0B0
:103DF0000103039300260F220B2303990696C4F6B2
:103E0000000004A9CDE9042345F6CC4501F078FB78
:103E100007220B2304A94FF09040C2F20005CDE920
:103E20000423069601F06CFB0823C4F202038020F1
:103E30004FF400714FF400622B6028612023284664
:103E4000C5E90166C5E90512EE602E62EB6100F07E
:103E5000D7FF30B9E564AC6220B070BDFFF76AFFF0
:103E6000A8E7FFF767FFF5E70368B3F1804F00D0DD
:103E700070474FF48053C4F2020382B09A6D42F04F
:103E800001029A659B6D03F001030193019B02B04F
:103E9000704700BF02684FF48843C4F201039A429E
:103EA00000D070474FF48053C4F2020382B01A6E00
:103EB00042F400321A661B6E03F400330193019B37
:103EC00002B0704770B5026888B00023B2F1804F2D
:103ED000CDE90233CDE90433069307D04FF488438C
:103EE000C4F201039A421FD008B070BD4FF4805352
:103EF000C4F202030120DA6C42F00102DA64DB6CE6
:103F0000069003F0010300930022002302A920245D
:103F100002254FF09040CDE90245CDE90423009EF3
:103F200001F0EEFA08B070BD4FF48053C4F2020302
:103F30004FF48060DA6C42F00202DA64DB6C03F06A
:103F4000020301930E23019A06930022002302A983
:103F5000C4F600004FF480740225CDE90245CDE996
:103F6000042301F0CDFA08B070BD00BFF0B5002405
:103F70009FB005465C22214607A8CDE90244CDE961
:103F80000444069406F0B1FB2A684FF46053C4F26F
:103F900001039A4201D01FB0F0BD012307A80F947E
:103FA000079302F001FA002874D14FF48053C4F251
:103FB000020307241A6E42F480421A661A6E02F453
:103FC00080420092009ADA6C42F00102DA64DB6C03
:103FD000069403F0010301930022019B4FF4007645
:103FE000022302A94FF090400227CDE90423CDE936
:103FF000026701F085FA4FF480620223CDE90223C3
:1040000002A9012202234FF0904045F68036C2F209
:104010000006CDE90423069401F072FA4FF4906390
:10402000C4F20203022480212022336030460023A0
:10403000C6E90233C6E9053374603161F261336267
:1040400000F0DEFE60BB45F6D024C2F2000440F270
:104050006C43C4F2020302271021802223602E67E2
:1040600000232046C4E90332C4E90533C4E9073319
:10407000B5626760A16000F0C3FE70B9002205213F
:10408000EC662520A56200F073FE252000F0AAFE54
:104090001FB0F0BDFFF74EFE87E7FFF74BFEEDE7E1
:1040A000FFF748FECFE700BF30B5014689B00022D8
:1040B000362000F05DFE362000F094FE4FF4805371
:1040C000C4F2020301A99A6D42F010029A659B6D39
:1040D00003F01003029303A8029B02F0A7F802F07A
:1040E00079F84DF68363C4F21B33A3FB003046F22C
:1040F0000C34C2F20004830C4FF480510022013BC7
:10410000C4F2000140F2E7352046C4E90013C4E9D7
:104110000352A26002F0ECFA10B1012009B030BDE8
:10412000204602F05FFB09B030BD00BFFEE700BFD4
:10413000FEE700BFFEE700BFFEE700BFFEE700BFEF
:10414000704700BF45F6CC40C2F2000000F066BFE9
:1041500010B545F6C834C2F20004204603F060F9F9
:104160002368DB69DB0600D410BD2046BDE81040A3
:10417000FEF732BA46F20C30C2F2000002F0AABEDC
:1041800045F6D020C2F2000000F048BF45F680306E
:10419000C2F2000000F042BF0120704708B506F0EF
:1041A00073F9162303604FF0FF3008BD08B506F021
:1041B0006BF916230360FEE770B5161E07DD0C468B
:1041C0008D19AFF3008004F8010BA542F9D13046F8
:1041D00070BD00BF70B5161E07DD0C468D1914F8B2
:1041E000010BAFF30080AC42F9D1304670BD00BF87
:1041F0004FF0FF30704700BF4FF400534B6000207A
:10420000704700BF012070470020704740F26821CE
:10421000C2F2000110B540F2000240F200440B6807
:10422000C2F20102C0F20004121B2BB118449042EA
:104230000AD80860184610BD46F2B033C2F2000337
:10424000184490420B60F4D906F01EF90C23036069
:104250004FF0FF33184610BD4FF46D43CEF200030C
:10426000D3F8882042F47002C3F88820704700BF5A
:10427000DFF834D0FFF7F0FF0C480D490D4A00235A
:1042800002E0D458C4500433C4188C42F9D30A4A0B
:104290000A4C002301E013600432A242FBD306F073
:1042A000EFF9FDF71BFFFEE70000012000000020F2
:1042B00018020020980D010818020020AC630020AD
:1042C000FEE7000010B5032000F03CFD0F20FFF7D3
:1042D000EBFE10B10124204610BD0446FFF72CFD73
:1042E000204610BD46F2583340F21401C2F20003DA
:1042F000C2F2000118680A7802441A60704700BFD1
:1043000046F25833C2F200031868704770B582B0A5
:1043100000230193002800F0C180456D0446002D64
:1043200000F09880226893689D0005D5936823F07B
:10433000204323F03F0393609368D8001FD440F2DA
:104340001001C2F2000142F663500B6891689B09AC
:10435000C0F23E50A0FB03039B0921F01041013342
:1043600021F03F015B0041F0805191600193019B7E
:104370002BB1019B013B0193019B002BF9D1936869
:10438000D90059D4636D43F010036365A36D43F006
:104390000103A365936813F0040F4FF00100636DF0
:1043A00051D1DB064FD4636D23F4817343F00203D4
:1043B00063659368DE070FD40023C5F204039B688E
:1043C000DD0709D44FF44071C5F2040165688B68BC
:1043D00023F47C132B438B60D4E90215636B2B43CE
:1043E0000B43657E94F8201043EA4533012943EAE4
:1043F00001434ED0A16A21B1E56A01F470712943ED
:104400000B43D5684CF20701CFF6F07129400B43FE
:10441000D3609368590723D593682369012B40D053
:10442000136B23F00F031363636D23F0030343F057
:104430000103636502B070BD936813F0040F4FF081
:104440000000636DADD0636D012043F01003636520
:1044500002B070BDFFF78EFCA56584F8505061E78F
:1044600093681B07D9D4D16894F83030257E21F4A5
:1044700080415B0021F0020143EA85330B43D360A6
:1044800094F83830012B14D0136923F00103136121
:10449000C3E7616A013943EA4143ABE7012002B057
:1044A00070BD116BE36921F00F01013B0B431363F6
:1044B000BAE7D4E90F361169656C21F4FF6121F088
:1044C000040133430B43A16C2B430B4343F0010323
:1044D0001361A2E7704700BF704700BF08B5806A4C
:1044E000FFF7FAFF08BD00BF704700BF836A5A6D2F
:1044F00012F0500F10B55A6D1DD1196842F40072B8
:104500005A650A6812F0080FCA681BD012F4406F8F
:104510000DD1CA6894040AD45A6D22F480725A6587
:104520005A6DD10403D45A6D42F001025A651846FF
:10453000FFF7D0FF10BDD2060AD4DB6CBDE81040F7
:104540005B6B18479007E7D51846FFF7C3FFF1E705
:104550001846FFF7C9FF10BD806A08B5436D43F0E8
:1045600040034365836D43F004038365FFF7BCFF9D
:1045700008BD00BFF0B490F8502082B00346012A75
:104580004FF00000019000F03E811C68012083F88C
:104590005000A56815F004054CD14A68052A53D986
:1045A00002F01F0C1F26920906FA0CF602F00C0509
:1045B000F74304F1300208685659C0F384603E4066
:1045C00000FA0CF030435051A268550740F1B48016
:1045D000A2680A68A068C00745D515460022C8F23F
:1045E000080215423DD04FF44072C5F2040200218A
:1045F0009068CCF252718D4200F0E0762ED000210E
:10460000CCF684318D4200F002810121C8F2000114
:104610008D4226D110F4800023D10021C5F204017F
:104620008C421ED1916821F0E071314341F4800148
:10463000916003E05A6D42F020025A65002283F82F
:10464000502002B0F0BC7047023A032A00F2F08119
:10465000DFE812F0F800FE000401EF00010240F173
:1046600013810020EAE7CF68D4F8B0504FF6FF700E
:1046700007F01806C0F20700F040C2F3120C002643
:1046800025EA0C051040C4F27F062843B742C4F85F
:10469000B0001546A2D1BCF1000F00F0E58092FAFF
:1046A000A2F0002800F05881B0FA80F0013000F04C
:1046B0001F00092840F2508192FAA2F5002D00F067
:1046C000A681B5FA85F50135AD0605F0F84592FAF3
:1046D000A2F0002800F0A281B0FA80F0013000F0D2
:1046E0001F00012606FA00F0054392FAA2F2002A02
:1046F00000F09081B2FA82F0013000F01F0000EB70
:104700004000A0F11E02120542F000722A43D70DAC
:1047100004F1140507F004078E687859C2F30452B7
:104720004FF0070C0CFA02FC20EA0C0006FA02F229
:1047300002437A510D6851E7A268120761D40868F4
:104740008D68C70D04F1140607F00407C0F3045088
:10475000BA594FF0070C0CFA00FC22EA0C0205FAD9
:1047600000F00243BA510E69E068042E1AD004F139
:1047700060074FF4704C57F826200D68C0F2FF3CDC
:1047800002EA0C0CC0F3C1004A69400005F0F8458C
:10479000824045EA0C052A4342F0004247F82620B1
:1047A0000A6817E70A68206E206EC2F31205C0F38C
:1047B0008460002D40F0A080C2F38465A84200F020
:1047C000EF80606E666E04F16000C6F3846604F1EB
:1047D0006407AE4200F009818668866800F1080728
:1047E000C6F38466AE4200F0EF80C668C6680C303F
:1047F000C6F38466B5427FF4EDAE026822F0004253
:1048000002600A68E6E6022002B0F0BC704710F0D1
:1048100080707FF426AF0021C5F204018C427FF442
:1048200020AF916821F0E071314341F080719160D7
:1048300004E74FF480724A604FF0000C6FF01F07DE
:104840000425B6E60C20486084466FF4F837B0E6DD
:104850001220486084466FF4F807AAE618204860E2
:1048600084466FF0F857A4E6920E501C00F01F0625
:10487000092E33D88506012005F0F845B04006EB37
:1048800046020543120541E70021C5F204018C42AE
:104890007FF4E7AE916821F0E071314340F21000FF
:1048A00041F40001C2F200009160026842F66351D7
:1048B0009209C0F23E51A1FB02129209013202EBB1
:1048C000420292000192019A002A3FF4CAAE019A74
:1048D000013A0192019A002AF9D1C2E606EB46029A
:1048E00085061E3A012005F0F84500FA06F6120585
:1048F000354342F0007209E792FAA2F51DB1B5FA0C
:1049000085F5A8424CD0606E666E04F16000C6F377
:10491000846604F1640792FAA2F51DB1B5FA85F533
:10492000AE4262D08568866800F10807C6F38466E7
:1049300092FAA2F51DB1B5FA85F5AE4244D0C5682C
:10494000C6680C30C6F3846692FAA2F5002D3FF4D7
:1049500041AEB5FA85F54DE792FAA2F5002D64D087
:10496000B5FA85F50135AD0605F0F84592FAA2F0E5
:10497000002858D0B0FA80F0013000F01F00012666
:1049800006FA00F0054392FAA2F2002A48D0B2FAE1
:1049900082F0013000F01F0000EB40000205B5E698
:1049A000226E204622F0004240F8602F0A68656EB1
:1049B000666EC2F31205C6F3846604F16407002D27
:1049C000A9D1C2F3846504E73A6822F000423A6054
:1049D0000A68C568C668C2F31205C6F384660C305F
:1049E000002DB1D1C2F3846504E73A6822F0004299
:1049F0003A600A6885688668C2F31205C6F3846661
:104A000000F10807002D93D1C2F38465EAE64FF068
:104A100080655CE60022CFF6506277E6022063E60E
:104A20004FF4401272E60220ACE74FF080659DE73C
:104A30000620486084466FF4F867BAE570B582B026
:104A40000022036801929A68D20734D499683F2201
:104A5000C8F200021142044630D19A6822F00042A6
:104A600022F03F024FF4407142F00102C5F204010E
:104A70009A608B681B022CD4FFF742FC23681A68EB
:104A8000D607054617D44FF6C076C7F6FF769A6864
:104A9000D00704D49A68324042F001029A60FFF7CE
:104AA0002FFC431B022B236802D91A68D10705D5B6
:104AB0001A68D207EBD5002002B070BD636D43F0D9
:104AC00010036365A36D012043F00103A36502B0E9
:104AD00070BD40F21002C2F2000242F66351136848
:104AE000C0F23E519B09A1FB03239B09013303EB59
:104AF00043039B000193019B002BBDD0019B013B15
:104B00000193019B002BF9D1B6E700BF38B50368CC
:104B10009D6815F0040533D190F85030012B044600
:104B20002ED0012380F85030FFF788FF50BB636D13
:104B300023F4706323F0010343F480736365636DB2
:104B4000DA0448BFA36D226852BFA06523F00603B4
:104B5000A3651C210023116084F85030D3689B01A9
:104B600005D5636D23F4405343F480536365936824
:104B700023F0004323F03F0343F00403936038BD68
:104B8000022038BD84F8505038BD00BFF8B5036826
:104B90009D6815F004054AD190F85030012B044669
:104BA00045D0012380F850300F461646FFF746FFE8
:104BB00000283ED1636DE06C216823F4706323F01C
:104BC000010343F480736365636D13F480531CBF6A
:104BD000A36D23F00603A36544F2ED43C0F6000382
:104BE000C36244F2DD4244F25953C0F60002C0F6FB
:104BF0000003026343631C2200230A6084F85030E0
:104C00004B6843F010034B60CD6845F00105334617
:104C10003A46CD60403100F06FF92268936823F086
:104C2000004323F03F0343F004039360F8BD0220E8
:104C3000F8BD84F85050F8BD38B503689A689507F8
:104C400002D59B68002038BD9A68D4072CD59A6895
:104C500002F00D02012A044609D0636D43F01003EF
:104C60006365A36D43F00103A365012038BD9A6815
:104C700022F0004222F03F02032142F002029A6039
:104C80001960FFF73DFB23689B68D90705460BD5E4
:104C9000FFF736FB401B0228236802D99A68D20727
:104CA000DBD49B68DB07F3D4002038BD30B590F827
:104CB000503083B00022012B01923FD0012380F8B5
:104CC000503004460D46FFF7B7FF636DE0B923F49B
:104CD000885323F00203226843F00203636593685C
:104CE00023F0404305F0804523F03F032B4343F07E
:104CF000004393609368002B0EDB636D23F0030386
:104D000043F00103636502E043F010036365002391
:104D100084F8503003B030BD019B01330193019BF7
:104D2000B3F5912FE6D3636D23F0120343F0100324
:104D30000022636584F850200120EBE7022003B0D5
:104D400030BD00BF4FF46D42CEF2000210B4D16806
:104D50004FF6FF040002214000F4E0630B4343F0F0
:104D6000BF6343F400335DF8044BD360704700BF6A
:104D70004FF46D43CEF2000330B4DB68C3F302237B
:104D8000C3F10705042D03F1040428BF0425062CF4
:104D900019D9033B4FF0FF349C4022EA04024FF044
:104DA000FF34AC4021EA04019940002841EA0201A5
:104DB0000CDB00F1604000F561400901C9B280F8E8
:104DC000001330BC704700221346E8E74EF6FC4360
:104DD00000F00F00CEF2000309010344C9B21976B6
:104DE00030BC704700280ADB4FF4614200F01F011D
:104DF000CEF20002400901238B4042F82030704778
:104E0000002866D0034640F207420068C4F202025E
:104E10009042F0B44CD94FF6F831CBF6FD714CF618
:104E2000CD420144CCF6CC42A2FB012109094FF44A
:104E300080648900C4F20204D3E90252D3E9047603
:104E40002A433A43022783F825709F691C64324342
:104E50003A43DF69066859643A431F6A26F4FF46FD
:104E60003A4326F070063243B5F5804F026016D003
:104E70000022C4F2020294422DD04FF49562C4F293
:104E8000020201F01C0110680F248C4020EA04008B
:104E900010605868146800FA01F121431160002085
:104EA0000122D86383F8240083F82520F0BC7047E2
:104EB0004FF6F871CBF6FD714CF6CD420144CCF6BD
:104EC000CC42A2FB0121090900248900C4F202049A
:104ED000B2E701207047A822C4F2020201F01C01CF
:104EE00014680F258D4024EA05041460586814687E
:104EF000884020431060D2E7F0B490F82440012CA1
:104F00003DD090F825400126B442E5B280F82460F7
:104F100005D0002380F82430F0BC022070470468DC
:104F2000D0F840C00227002680F82570C663476C81
:104F3000266807F01C0726F001062660BD4086683B
:104F4000CCF804506360036B102E0BBFA260A1600D
:104F5000E160E26053B1236843F00E0323602368ED
:104F600043F0010323600020F0BC7047236823F066
:104F700004032360236843F00A032360EFE7022061
:104F8000F0BC704790F82520022A034606D0042181
:104F90000022C16380F82420012070470168426C20
:104FA000086820F00E0030B41D6C08600868012409
:104FB00020F0010002F01C02086004FA02F2002155
:104FC0006A6083F8254083F82410084630BC704797
:104FD00090F82520022A03D00422C26301207047E2
:104FE0000168426C70B50C68066C856B24F00E0489
:104FF0000C600C6824F001040C6002F01C0201211A
:1050000001FA02F20024726080F8251080F8244032
:1050100015B1A847204670BD284670BD70B4D0E9D0
:10502000106304223168056803F01C039A400A42A9
:105030002C680ED014F0040F0BD02B689B0603D401
:105040002B6823F004032B60036B7260CBB170BC40
:10505000184702229A400A4215D014F0020F12D0CB
:105060002B68990606D42B68012123F00A032B60D4
:1050700080F82510C36A7260002280F82420002B7B
:10508000E5D170BC704708229A400A42F9D0220745
:10509000F7D52A68416B22F00E022A60012202FA3B
:1050A00003F300247360C26380F8244080F8252055
:1050B0000029E6D070BC0847C06B70472DE9F84F57
:1050C00040F21C08C2F2000898F80060012E7CD063
:1050D0009B46012382460D46144688F80030FFF7B0
:1050E0000FF94FF400560746C4F202064CF24F394E
:1050F00004E0FFF705F9C01B48455FD83369D903C1
:10510000F7D437694CF2FA33C0F202031F4040F083
:1051100087803369DA0748BF01234FF4005248BF44
:105120003361C4F202020023C8F80430136813F498
:1051300080634ED01368022123F48063136088F8E3
:105140001C10BAF1000F49D14FF40053C4F202030E
:105150005A6942F001025A612C60BFF36F8F012738
:10516000C5F804B0FFF7CCF84FF400540546C4F27C
:1051700002044CF24F3604E0FFF7C2F8401BB04285
:105180004CD82369DB03F7D423694CF2FA32C0F21E
:10519000020213404CD1256915F0010502D001220D
:1051A0001D4622613FB14FF40053C4F202035A6915
:1051B00022EA07075F6100F06FF900E00325002392
:1051C00088F800302846BDE8F88F02252846BDE85B
:1051D000F88F88F81C30BAF1000FB5D00AF1FF3310
:1051E000012BBFD84FF40053C4F202032246596981
:1051F00041F480215961EFF3108072B62D1B04F544
:1052000080711368535104328A42FAD180F31088B6
:10521000BAF1020F08BF4FF48027A3E70325C1E7C7
:10522000D8F804303B43C8F8043001253761C6E79D
:10523000D8F804201A43C8F8042001252361B1E7F7
:105240004FF40053C4F202035A69002A01DB002024
:10525000704740F2231148F6AB12C4F26751CCF606
:10526000EF5299609A605869C00F70474FF400532D
:10527000C4F2020300205A6942F000425A617047AA
:1052800040F21C03C2F200035868704770B5044630
:10529000FFF736F84FF400560546C4F20206601CCC
:1052A00019D14FF40052C4F202021369D903FCD49D
:1052B0004FF40052C4F202024CF2FA311369C0F208
:1052C00002010B4011D1106910F0010002D0012140
:1052D0001846116170BD3369DB03E9D5FFF710F89B
:1052E000401BA042DBD3032070BD40F21C01C2F280
:1052F000000101204C681C434C60136170BD00BF6D
:105300002DE9F04740F21C09C2F2000999F800307B
:10531000012B00F08F80824601244CF250300F4662
:1053200089F80040FFF7B2FF064628B1002389F84C
:1053300000303046BDE8F0874FF40053C4F202035A
:10534000C9F804001A6812F4007F1A6876D1520571
:1053500040F19F801A68022122F480621A6089F865
:105360001C10DAF80030012B72D04FF0FF333B6095
:10537000DAE902532B449D422AD24FF400544FF6EF
:105380000548C4F20204CFF6FF7805E0DAE90232FC
:1053900001351344AB421BD96269EB0022F47E72E3
:1053A00003F4FF6313436361636943F002036361C2
:1053B000636943F4803363614CF25030FFF766FF5A
:1053C000636903EA080363610028DFD03D60064695
:1053D00099F81C3003F0FD02012ADBB213D14FF41F
:1053E0000052C4F20202116821F4007111601168C8
:1053F00041F400611160116821F4006111601168CD
:1054000041F400711160023B012B0FD84FF400539F
:10541000C4F202031A6842F480521A601A6822F435
:1054200080521A601A6842F480621A60002389F878
:105430001C307BE702263046BDE8F087510525D5B4
:105440001A68032122F480621A6089F81C1088E728
:10545000DAF80430DB0707D54FF40053C4F2020337
:105460005A6942F004025A614FF40054C4F2020433
:105470004CF25030636943F480336361FFF706FFF9
:10548000636923F0040306466361A1E789F81C40C1
:1054900067E789F81C0064E740F21C01C2F20001D2
:1054A0000B7F03F0FD02012ADBB213D14FF400524F
:1054B000C4F20202106820F400701060106840F41A
:1054C00000601060106820F400601060106840F404
:1054D00000701060023B012B0FD84FF40053C4F250
:1054E00002031A6842F480521A601A6822F4805249
:1054F0001A601A6842F480621A6000230B777047C2
:105500002DE9F04F0C688BB0002C00F09A804FF41E
:10551000805A4FF480675646C4F2020A3B464FF465
:1055200000624FF44065CDE9011AC4F60003C4F6E9
:105530000002C4F60005C4F600060493C4F2010795
:1055400005920695079600234FF0010B0BFA03FE18
:105550001EEA040A71D001994E6806F00302551E36
:10556000012D4FEA430C6FD9032A40F0B58002FAAF
:105570000CF2D543D0F800C00CEA05052A4316F416
:10558000403F026059D0029D2A6E42F001022A6615
:105590002A6E23F0030505F1804502F0010205F5AE
:1055A0008035099203F00302DDF824C0D5F808C065
:1055B00092000F2101FA02FEB0F1904F2CEA0E0C7E
:1055C00017D00499884200F093800599884200F032
:1055D00094800699884200F08480079988420BBF26
:1055E0004FF0040E07210EFA02F201FA02F24CEA21
:1055F000020CC5F808C0BA686FEA0A0CF50254BF7D
:105600000CEA02024AEA0202BA60FA68B10254BF26
:105610000CEA02024AEA0202FA607D68B20354BF51
:105620000CEA05054AEA05057D603A68F10354BFB6
:105630000CEA02024AEA02023A60013334FA03F247
:1056400084D10BB0BDE8F08FD0F80880C96803257D
:1056500005FA0CF528EA050801FA0CF949EA0808E8
:10566000C0F80880D0F80490C6F3001829EA0E0E9E
:1056700008FA03F848EA0E0EED43C0F804E0019979
:10568000D0F80CE089680EEA050E01FA0CF848EA39
:105690000E0E022AC0F80CE002D002FA0CF269E702
:1056A0004FEAD30800EB880803F0070ED8F8201063
:1056B0000391019909694FEA8E0E01FA0EF90F2143
:1056C00001FA0EFE039921EA0E0E49EA0E0E02FAC5
:1056D0000CF2C8F820E04DE7032505FA0CF5ED4380
:1056E000CDE74FF0030E0EFA02F24CEA020C80E70F
:1056F0000BFA02F24CEA020C7BE74FF0020E0EFAB4
:1057000002F24CEA020C74E70369194214BF01204B
:10571000002070470AB1816170478162704700BF05
:10572000436901EA030221EA030141EA024181617E
:10573000704700BF4FF4E043C4F20003186800F460
:10574000C0607047B0F5007F11D04FF4E043C4F261
:1057500000031A6802F4C062B2F5806F3ED01A6886
:1057600022F4C06242F480621A60002070474FF455
:10577000E042C4F20002136803F4C063B3F5007F93
:105780002CD0136840F2100123F4C06343F400737B
:10579000C2F2000110B413600C68506932234DF658
:1057A000836103FB04F3C4F21B31A1FB03139B0CC5
:1057B000400503F1010306D500E023B15169490515
:1057C00003F1FF33F9D44FF4E043C4F200035B6903
:1057D0005B0505D400205DF8044B7047002070473E
:1057E0000320F8E730B54FF48054C4F2020483B0CC
:1057F000A36DDB0005461FD5FFF79CFFB0F5007FCA
:105800002CD0802D16D832D0A5F17005B5FA85F5CB
:105810006D094FF40051C4F202010B6823F0070335
:105820002B430B60086800F00700401B18BF0120E5
:1058300003B030BD0325ECE7A36D43F08053A365AF
:10584000A36D03F080530193019BFFF773FFA36DDA
:10585000B0F5007F23F08053A365D2D1802D04D909
:10586000A02D8CBF02250125D3E70025D1E7022515
:10587000CFE700BF4FF48052C4F202029368D268AF
:1058800013F00C030BD00C2B4DD0042B46D0082B5F
:105890004FF49050C0F27A0018BF002070474FF4C8
:1058A0008052C4F202021168090754BFD2F8941062
:1058B000116840F6300254BFC1F30321C1F3031154
:1058C000C0F6010252F8210063B30C2B36D14FF41D
:1058D0008053C4F20203DB6803F00303022B28D0D9
:1058E0004FF49052C0F27A02032B08BF10464FF4D7
:1058F0008053C4F20203D968DA68DB68C3F34163FA
:10590000C2F30622C1F302110133013100FB02F0A0
:105910005B00B0FBF1F0B0FBF3F070474FF41050B8
:10592000C0F2F400704702F00302012AB7D0002051
:10593000CDE74FF41050C0F2F400D8E700207047D4
:10594000002800F0D6822DE9F0434FF48052C4F2D3
:10595000020203689568D6680446D80683B005F04D
:105960000C0506F0030632D5002D00F042810C2D07
:1059700000F03C81A369002B00F0D7814FF48053E5
:10598000C4F202031F461A6842F001021A60FEF7D1
:10599000B7FC804606E0FEF7B3FCA0EB0800022847
:1059A00000F2D8813B689B07F5D53B6843F00803BC
:1059B0003B603B68226A23F0F00313433B607B6843
:1059C000E26923F47F4343EA02237B602368D9071B
:1059D00000F1DE80990727D5042D00F090810C2D71
:1059E00000F08A81E368002B00F015824FF48053A9
:1059F000C4F202031F461A6842F480721A60FEF76E
:105A00007FFC064605E0FEF77BFC801B022800F2C7
:105A1000A1813B685B05F6D57B68226923F0F853CA
:105A200043EA02637B60236819071DD56369002B75
:105A300000F049814FF48053C4F202031F46D3F8AB
:105A4000942042F00102C3F89420FEF759FC064668
:105A500005E0FEF755FC801B022800F27B81D7F899
:105A600094309A07F5D523685E0748D54FF48053E4
:105A7000C4F202039A6DD00000F1CB819A6D42F01E
:105A800080529A659B6D03F080530193019B012620
:105A90004FF4E047C4F200073B68D90540F12B8280
:105AA000A368012B00F0CE81052B00F052824FF449
:105AB0008057C4F20207D7F8902022F00102C7F8FD
:105AC0009020D7F8902022F00402C7F89020002BF5
:105AD00040F0C281FEF714FC41F28839804606E0AE
