:020000040800F2
:1000000000000120AD4A0008694900086D49000858
:10001000714900087549000879490008000000008E
:1000200000000000000000000000000041A70008E0
:100030007D49000800000000E1A700083D86000897
:10004000FD4A0008FD4A0008FD4A0008FD4A000874
:10005000FD4A0008FD4A0008FD4A0008FD4A000864
:10006000FD4A0008FD4A0008FD4A000881490008D1
:10007000FD4A0008FD4A0008FD4A0008FD4A000844
:10008000FD4A0008FD4A0008FD4A0008FD4A000834
:10009000FD4A0008FD4A0008FD4A0008FD4A000824
:1000A000FD4A0008FD4A0008FD4A0008FD4A000814
:1000B000FD4A00080000000000000000FD4A0008A2
:1000C000FD4A0008FD4A0008FD4A0008FD4A0008F4
:1000D000FD4A00088D490008FD4A0008FD4A000855
:1000E000FD4A0008FD4A0008000000000000000072
:1000F0000000000000000000000000000000000000
:1001000000000000FD4A000800000000FD4A000851
:100110000000000000000000B1490008FD4A00088E
:10012000FD4A0008FD4A0008FD4A0008FD4A000893
:10013000FD4A000800000000000000000000000070
:10014000FD4A0008FD4A0008FD4A000800000000C2
:10015000BD490008C9490008FD4A0008FD4A0008D9
:10016000FD4A0008FD4A0008FD4A000800000000A2
:10017000FD4A0008FD4A00080000000000000000E1
:0C018000FD4A0008FD4A0008FD4A000886
:1001900010B5054C237833B9044B13B10448AFF3C1
:1001A00000800123237010BD200200200000000009
:1001B000A405010808B5034B1BB103490348AFF37D
:1001C000008008BD0000000024020020A4050108F2
:1001D000034613F8012B002AFBD1181A0138704787
:1001E00001F0FF01102A2BDB10F0070F08D010F8E8
:1001F000013B013A8B422DD010F0070F42B3F6D1EC
:10020000F0B441EA012141EA014122F007047FF004
:1002100000070023F0E80256083C85EA010586EA5B
:10022000010685FA47F5A3FA87F586FA47F6A5FA97
:1002300087F68EB9EED1F0BC01F0FF0102F00702A3
:1002400032B110F8013B013A83EA010313B1F8D14E
:100250000020704701387047002D06BF354603382F
:10026000073815F0010F07D1013015F4807F02BF68
:10027000013015F4C03F0130F0BC0138704700BFB9
:1002800081F0004102E000BF83F0004330B54FEA47
:1002900041044FEA430594EA050F08BF90EA020FB4
:1002A0001FBF54EA000C55EA020C7FEA645C7FEA47
:1002B000655C00F0E2804FEA5454D4EB5555B8BF6A
:1002C0006D420CDD2C4480EA020281EA030382EADB
:1002D000000083EA010180EA020281EA0303362D6D
:1002E00088BF30BD11F0004F4FEA01314FF4801C40
:1002F0004CEA113102D0404261EB410113F0004F52
:100300004FEA03334CEA133302D0524263EB430308
:1003100094EA050F00F0A780A4F10104D5F1200EA6
:100320000DDB02FA0EFC22FA05F2801841F1000101
:1003300003FA0EF2801843FA05F359410EE0A5F1D5
:1003400020050EF1200E012A03FA0EFC28BF4CF006
:10035000020C43FA05F3C01851EBE37101F00045BC
:1003600007D54FF0000EDCF1000C7EEB00006EEBC9
:100370000101B1F5801F1BD3B1F5001F0CD3490853
:100380005FEA30004FEA3C0C04F101044FEA4452AA
:1003900012F5800F80F09A80BCF1004F08BF5FEA31
:1003A000500C50F1000041EB045141EA050130BD11
:1003B0005FEA4C0C404141EB0101013C28BFB1F523
:1003C000801FE9D291F0000F04BF01460020B1FA6E
:1003D00081F308BF2033A3F10B03B3F120020CDA41
:1003E0000C3208DD02F1140CC2F10C0201FA0CF01F
:1003F00021FA02F10CE002F11402D8BFC2F1200C84
:1004000001FA02F120FA0CFCDCBF41EA0C01904039
:10041000E41AA2BF01EB0451294330BD6FEA040482
:100420001F3C1CDA0C340EDC04F11404C4F120026D
:1004300020FA04F001FA02F340EA030021FA04F37F
:1004400045EA030130BDC4F10C04C4F1200220FAD6
:1004500002F001FA04F340EA0300294630BD21FA14
:1004600004F0294630BD94F0000F83F4801306BFDA
:1004700081F480110134013D4EE77FEA645C18BFCE
:100480007FEA655C29D094EA050F08BF90EA020F65
:1004900005D054EA000C04BF1946104630BD91EA5D
:1004A000030F1EBF0021002030BD5FEA545C05D160
:1004B0004000494128BF41F0004130BD14F580049F
:1004C0003CBF01F5801130BD01F0004545F0FE4113
:1004D00041F470014FF0000030BD7FEA645C1ABF48
:1004E000194610467FEA655C1CBF0B46024650EA7F
:1004F000013406BF52EA033591EA030F41F40021AB
:1005000030BD00BF90F0000F04BF0021704730B530
:100510004FF4806404F132044FF000054FF0000105
:1005200050E700BF90F0000F04BF0021704730B5C6
:100530004FF4806404F1320410F0004548BF40429B
:100540004FF000013EE700BF42004FEAE2014FEAF0
:1005500031014FEA02701FBF12F07F4393F07F4FCB
:1005600081F06051704732F07F4208BF704793F0CE
:100570007F4F04BF41F40021704730B54FF46074E1
:1005800001F0004521F000411CE700BF50EA0102E4
:1005900008BF704730B54FF000050AE050EA01028D
:1005A00008BF704730B511F0004502D5404261EBFD
:1005B00041014FF4806404F132045FEA915C3FF43E
:1005C000D8AE4FF003025FEADC0C18BF03325FEADB
:1005D000DC0C18BF033202EBDC02C2F1200300FA8C
:1005E00003FC20FA02F001FA03FE40EA0E0021FAB1
:1005F00002F11444BDE600BF70B54FF0FF0C4CF49F
:10060000E06C1CEA11541DBF1CEA135594EA0C0F50
:1006100095EA0C0F00F0DEF82C4481EA030621EA8B
:100620004C5123EA4C5350EA013518BF52EA0335C6
:1006300041F4801143F4801338D0A0FB02CE4FF078
:100640000005E1FB02E506F00042E0FB03E54FF0A8
:100650000006E1FB03569CF0000F18BF4EF0010EA0
:10066000A4F1FF04B6F5007F64F5407404D25FEA9C
:100670004E0E6D4146EB060642EAC62141EA55514F
:100680004FEAC52040EA5E504FEACE2EB4F1FD0C91
:1006900088BFBCF5E06F1ED8BEF1004F08BF5FEA0F
:1006A000500E50F1000041EB045170BD06F00046C1
:1006B00046EA010140EA020081EA0301B4EB5C046E
:1006C000C2BFD4EB0C0541EA045170BD41F4801166
:1006D0004FF0000E013C00F3AB8014F1360FDEBF8B
:1006E000002001F0004170BDC4F10004203C35DA67
:1006F0000C341BDC04F11404C4F1200500FA05F3EA
:1007000020FA04F001FA05F240EA020001F000428A
:1007100021F0004110EBD37021FA04F642EB060100
:100720005EEA430E08BF20EAD37070BDC4F10C042A
:10073000C4F1200500FA04F320FA05F001FA04F2EE
:1007400040EA020001F0004110EBD37041F10001DA
:100750005EEA430E08BF20EAD37070BDC4F12005E5
:1007600000FA05F24EEA020E20FA04F301FA05F24D
:1007700043EA020321FA04F001F0004121FA04F2F5
:1007800020EA020000EBD3705EEA430E08BF20EAC5
:10079000D37070BD94F0000F0FD101F000464000FF
:1007A00041EB010111F4801F08BF013CF7D041EA81
:1007B000060195F0000F18BF704703F00046520085
:1007C00043EB030313F4801F08BF013DF7D043EA56
:1007D0000603704794EA0C0F0CEA135518BF95EA0C
:1007E0000C0F0CD050EA410618BF52EA4306D1D193
:1007F00081EA030101F000414FF0000070BD50EAB2
:10080000410606BF1046194652EA430619D094EA3B
:100810000C0F02D150EA013613D195EA0C0F05D125
:1008200052EA03361CBF104619460AD181EA030179
:1008300001F0004141F0FE4141F470014FF0000031
:1008400070BD41F0FE4141F4780170BD70B54FF0CC
:10085000FF0C4CF4E06C1CEA11541DBF1CEA13554C
:1008600094EA0C0F95EA0C0F00F0A7F8A4EB05042E
:1008700081EA030E52EA03354FEA013100F0888025
:100880004FEA03334FF0805545EA131343EA1263EE
:100890004FEA022245EA111545EA10654FEA0026A3
:1008A0000EF000419D4208BF964244F1FD0404F55C
:1008B000407402D25B084FEA3202B61A65EB0305B8
:1008C0005B084FEA32024FF480104FF4002CB6EB75
:1008D000020E75EB030E22BFB61A754640EA0C00F5
:1008E0005B084FEA3202B6EB020E75EB030E22BF35
:1008F000B61A754640EA5C005B084FEA3202B6EB76
:10090000020E75EB030E22BFB61A754640EA9C0034
:100910005B084FEA3202B6EB020E75EB030E22BF04
:10092000B61A754640EADC0055EA060E18D04FEAC2
:10093000051545EA16754FEA06164FEAC30343EA62
:1009400052734FEAC2025FEA1C1CC0D111F4801F2F
:100950000BD141EA00014FF000004FF0004CB6E728
:1009600011F4801F04BF01430020B4F1FD0C88BFC7
:10097000BCF5E06F3FF6AFAEB5EB030C04BFB6EBD2
:10098000020C5FEA500C50F1000041EB045170BDC5
:100990000EF0004E4EEA113114EB5C04C2BFD4EBF2
:1009A0000C0541EA045170BD41F480114FF0000E76
:1009B000013C90E645EA060E8DE60CEA135594EAF2
:1009C0000C0F08BF95EA0C0F3FF43BAF94EA0C0FF5
:1009D0000AD150EA01347FF434AF95EA0C0F7FF46A
:1009E00025AF104619462CE795EA0C0F06D152EABE
:1009F00003353FF4FDAE1046194622E750EA4106A2
:100A000018BF52EA43067FF4C5AE50EA41047FF4B2
:100A10000DAF52EA43057FF4EBAE12E74FF0FF3C17
:100A200006E000BF4FF0010C02E000BF4FF0010CE8
:100A30004DF804CD4FEA410C7FEA6C5C4FEA430C61
:100A400018BF7FEA6C5C1BD001B050EA410C0CBFB0
:100A500052EA430C91EA030F02BF90EA020F002012
:100A6000704710F1000F91EA030F58BF994208BF79
:100A700090422CBFD8176FEAE37040F00100704736
:100A80004FEA410C7FEA6C5C02D150EA013C07D18D
:100A90004FEA430C7FEA6C5CD6D152EA033CD3D0D8
:100AA0005DF8040B704700BF8446104662468C46D2
:100AB0001946634600E000BF01B5FFF7B7FF002805
:100AC00048BF10F1000F01BD4DF808EDFFF7F4FF2E
:100AD0000CBF012000205DF808FB00BF4DF808EDB9
:100AE000FFF7EAFF34BF012000205DF808FB00BFDC
:100AF0004DF808EDFFF7E0FF94BF012000205DF8FE
:100B000008FB00BF4DF808EDFFF7CEFF94BF0120B2
:100B100000205DF808FB00BF4DF808EDFFF7C4FFAB
:100B200034BF012000205DF808FB00BF4FEA410CF4
:100B30007FEA6C5C02D150EA013C0AD14FEA430CD7
:100B40007FEA6C5C02D152EA033C02D14FF0000014
:100B500070474FF0010070474FEA410212F5001252
:100B600015D211D56FF47873B3EB625212D94FEAF4
:100B7000C12343F0004343EA505311F0004F23FADE
:100B800002F018BF404270474FF00000704750EA33
:100B9000013005D111F0004008BF6FF000407047F0
:100BA0004FF00000704700BF4A0011D212F500124A
:100BB00011D20DD56FF47873B3EB62520ED44FEAB5
:100BC000C12343F0004343EA505323FA02F0704735
:100BD0004FF00000704750EA013002D14FF0FF3073
:100BE00070474FF0000070474FEA4102B2F1E04316
:100BF00024BFB3F5001CDCF1FE5C0DD901F0004C04
:100C00004FEAC0024CEA5070B2F1004F40EB830053
:100C100008BF20F00100704711F0804F21D113F17F
:100C20003872BCBF01F00040704741F480114FEAB8
:100C30005252C2F11802C2F1200C10FA0CF320FA41
:100C400002F018BF40F001004FEAC1234FEAD3235E
:100C500003FA0CFC40EA0C0023FA02F34FEA4303C8
:100C6000CCE77FEA625307D150EA01331EBF4FF051
:100C7000FE4040F44000704701F0004040F0FE406C
:100C800040F40000704700BF53B94AB9002908BFBB
:100C900000281CBF4FF0FF314FF0FF3000F0A4B927
:100CA000ADF1080C6DE904CE00F03CF8DDF804E08D
:100CB000DDE9022304B0704738B500220023044662
:100CC0000D46FFF70BFF28B920462946BDE83840FE
:100CD00000F00AB8204605F1004100F005F8404256
:100CE00061EB410138BD00BFD0B50C4B0022064678
:100CF0000F46FFF781FCFFF757FF0446FFF702FCA2
:100D0000074B0022FFF778FC02460B463046394677
:100D1000FFF7BAFAFFF748FF2146D0BD0000F03DCB
:100D20000000F0412DE9F047089D04468C46002B59
:100D300040F083808A42174647D9B2FA82F242B124
:100D4000C2F1200024FA00F09140974040EA010CE3
:100D500094404FEA1748230CBCFBF8F61FFA87FEB5
:100D600008FB16C143EA014306FB0EF1994209D97B
:100D7000FB1806F1FF3080F01981994240F216818C
:100D8000023E3B445B1AA4B2B3FBF8F008FB1033FD
:100D900044EA034400FB0EFEA64509D93C1900F1C4
:100DA000FF3380F00581A64540F2028102383C44C1
:100DB00040EA0640A4EB0E0400261DB1D4400023F7
:100DC000C5E900433146BDE8F08702B9FFDEB2FA5B
:100DD00082F2002A50D1CB1B4FEA174E1FFA87F838
:100DE0000126B3FBFEFC210C0EFB1C3341EA034140
:100DF00008FB0CF38B4207D979180CF1FF3002D2B3
:100E00008B4200F2E9808446C91AA3B2B1FBFEF01E
:100E10000EFB101143EA014408FB00F8A04507D976
:100E20003C1900F1FF3302D2A04500F2D9801846E8
:100E3000A4EB080440EA0C40BFE78B4209D9002D1F
:100E400000F0B1800026C5E9000130463146BDE81A
:100E5000F087B3FA83F6002E4AD18B4202D3824246
:100E600000F2B880841A61EB030101208C46002D4A
:100E7000A8D0C5E9004CA5E7C2F1200320FA03F68B
:100E8000974001FA02F04FEA174ED9403043030C65
:100E9000B1FBFEF61FFA87F80EFB161143EA014379
:100EA00006FB08F1994204FA02F409D9FB1806F18D
:100EB000FF3C80F08D80994240F28A80023E3B44A4
:100EC0005B1A81B2B3FBFEF00EFB103341EA034123
:100ED00000FB08F38B4207D9791800F1FF3C73D26D
:100EE0008B4271D902383944CB1A40EA064678E77A
:100EF000C6F1200C03FA06F422FA0CF31C4320FA84
:100F00000CF701FA06F34FEA144E21FA0CF11F43D5
:100F10003B0CB1FBFEF91FFA84F80EFB191143EAF2
:100F2000014109FB08FA8A4502FA06F200FA06F3C3
:100F300008D9611809F1FF3048D28A4546D9A9F18C
:100F400002092144A1EB0A01BFB2B1FBFEF00EFB86
:100F5000101147EA014700FB08F8B84507D9E7191F
:100F600000F1FF312ED2B8452CD90238274440EA8F
:100F70000940A7EB0807A0FB02894F45C646494632
:100F80001AD317D05DB1B3EB0E0267EB010707FA76
:100F90000CFCF2404CEA0202F740C5E900270026AB
:100FA0003146BDE8F0872E4628460BE70646E9E6BF
:100FB0001846FDE64345E5D2B8EB020E69EB0401A5
:100FC0000138DFE70846D2E760468DE78146B9E79A
:100FD000664675E730464AE7ACF1020C394413E740
:100FE00002383C4424E700BF704700BF704700BF91
:100FF00000207047704700BFF0B545F69814C2F264
:10100000000401229BB080214FF0904004F0A0FF2B
:10101000A26940F24823C2F200030024462A1C6061
:1010200033D840F24024C2F2000425680DB11BB051
:10103000F0BD2A4640214FF0904004F089FF46F26F
:10104000E41107A8C2F200014C2260264FF4FA779F
:1010500009F05DFFCDE900672A46694607A800262A
:101060000827CDE90267049506F05CF9294607A830
:1010700006F080F846F2E4102946C2F2000006F0BD
:1010800079F8012323601BB0F0BD46F2E41107A8F4
:10109000C2F200014C226026002709F038FFCDE99A
:1010A00000672246694607A800260827CDE902679F
:1010B000049406F037F9214607A806F05BF80122F0
:1010C00040214FF0904004F043FF46F2E4102146E7
:1010D000C2F2000006F0C6F840F24023C2F200035C
:1010E0001C601BB0F0BD00BF38B545F69413C2F2CA
:1010F00000031B780D2B00F29E80DFE803F01049FF
:1011000072685F5527324972685F550745F690430C
:10111000C2F2000345F260425B6D934240D945F64E
:101120009813C2F2000340F248245B69462BC2F2D6
:10113000000421D9012280214FF0904004F008FFE3
:1011400000232360BDE8384001F0BEB845F6904367
:10115000C2F2000345F260425B6D93424AD8FFF74A
:101160004BFF45F6981540F24824C2F20005C2F242
:1011700000046B69462BDDD8002280214FF090409F
:1011800004F0E6FE01232360BDE8384001F09CB87E
:1011900045F69043C2F200035B6DB3F5616FBED8B4
:1011A000BDE83840FFF728BF45F69043C2F2000380
:1011B00044F250625B6D9342F2D9B0E745F690433A
:1011C000C2F200035B6DB3F5615FE9D9A7E745F6AD
:1011D0009043C2F2000342F630225B6D9342DFD9A6
:1011E0009DE745F69043C2F200035B6DB3F5E15F06
:1011F000D6D994E745F69815C2F2000540F2482486
:101200006B69462B0CD9012280214FF09040C2F22D
:10121000000404F09DFE0023236001F055F8A8E7C8
:10122000002280214FF09040C2F2000404F090FEB2
:1012300001232360F1E745F69813C2F200035B69CE
:10124000462B0CD9012280214FF0904004F080FE03
:1012500040F24823C2F2000300221A6038BD002287
:1012600080214FF0904004F073FE40F24823C2F218
:10127000000301221A6038BD2DE9F04F46F23C34DC
:10128000C2F200049DB023681B2B00F2A681DFE8A8
:1012900013F0260191001C001C001C001C001C0007
:1012A0001C001C001C001C001C001C001C001C005E
:1012B0001C001C00320032003200320032003200CA
:1012C00032003200320032004F0145F6BC55C2F206
:1012D0000005013328462360FEF77AFF40F2D8521A
:1012E000C0F6010203464119906A928D58518A80D6
:1012F0001DB0BDE8F08F45F69813C2F200035B699C
:10130000462B40F24D81012280214FF0904004F0A5
:101310001FFE40F24823C2F2000300221A60236835
:1013200046F2F0210133002508A8C2F200014C2248
:1013300060260027236009F0EAFD2A46CDE9006710
:1013400069460026002708A8CDE90267CDE90467B1
:10135000069505F0E7FF294608A805F00BFF46F2C1
:10136000F0202946C2F2000005F07CFF45F6BC548F
:101370004FF4806008A90223C2F20004C4F6000002
:101380004FF4007600270A93CDE90B55CDE90867A5
:1013900004F0D4FC2046FEF71BFF40F2D852C0F602
:1013A000010203460119106B928E18518A801DB0FC
:1013B000BDE8F08F46F2C013C2F2000346F2E4111A
:1013C0000025012608A8C2F200014C224FF0600857
:1013D0004FF000091E6009F09AFDCDE900892A4608
:1013E000694608A84FF000084FF00809CDE90289C6
:1013F000049505F097FF294608A805F0BBFE324684
:1014000040214FF0904004F0A3FD46F2E41029463D
:10141000C2F2000005F026FF40F24023C2F20003B2
:10142000324680214FF090401D6004F091FD45F65A
:101430002C23C2F2000340F24827DA6AC2F2000706
:1014400046F2F02196194FF0020808A8C2F20001F6
:101450004C22DE623D60C4F80080002609F057FD92
:1014600000272A46694608A84FF0600A4FF0C80BCB
:10147000CDE900ABCDE90267CDE90467069505F03B
:1014800051FF294608A805F075FE46F2F0202946CE
:10149000C2F2000005F06EFE45F6BC544FF48060C9
:1014A00008A94FF400720023C2F20004C4F6000041
:1014B000CDE90823CDE90A850C9504F03FFC2046D0
:1014C000FEF786FE40F2D852C0F60102034601192B
:1014D000106A928C18518A801DB0BDE8F08F45F6D5
:1014E0009813C2F200031B68C82B48D940F20003CE
:1014F000C2F2000340F20802C2F20002196840F68C
:10150000C3101060002958D145F6BC54C2F2000443
:101510002046FEF75DFE40F2D852C0F601020346B7
:1015200001199069928B18518A801DB0BDE8F08F27
:1015300046F2C010C2F2000045F6BC1240F20803A9
:1015400045F6BC550021C2F20005C2F20002C2F20B
:101550000003016040F6C4162846216091641E60B5
:10156000FEF736FE40F2D852C0F60102034641199A
:10157000906B928F58518A801DB0BDE8F08F40F279
:101580000803C2F200031A68D2B940F20003C2F2A3
:1015900000031A680AB1013A1A6001232360B3E715
:1015A000002280214FF0904004F0D2FC40F248230A
:1015B000C2F2000301221A60B1E601391960A3E703
:1015C00040F20001C2F20001013A08681A6008B155
:1015D00001380860002A97D1DFE746F2C01345F6CC
:1015E000BC55C2F20003C2F20005002228461A6070
:1015F0002260FEF7EDFD40F2D852C0F6010203462C
:101600004119106CB2F8442058518A8070E600BF2E
:101610002DE9F04346F23C34C2F200049DB0236849
:10162000252B00F2D181DFE813F01601AB00260074
:10163000260026002600260026002600260026007A
:10164000260026002600260026002600260026006A
:10165000260026002600260026002600260026005A
:101660003D003D003D003D003D003D003D003D0092
:101670003D003D00410145F6BC55C2F20005013375
:1016800028462360FEF7A4FD40F2D852C0F60102BE
:1016900003464119906DB2F85C2058518A801DB004
:1016A000BDE8F08345F69816C2F200067369462B32
:1016B00040F25581012280214FF0904004F048FC17
:1016C00040F24823C2F2000300221A6000F0FCFD41
:1016D000236846F2F0210133002508A8C2F2000178
:1016E0004C224FF060084FF00009236009F00FFC16
:1016F0002A46CDE9008969464FF000084FF00009FD
:1017000008A8CDE90289CDE90489069505F00AFE0D
:10171000294608A805F02EFD46F2F0202946C2F21F
:10172000000005F09FFD4FF4806008A90223C4F675
:1017300000004FF400784FF000090A93CDE90B55F3
:10174000CDE9088904F0FAFA326844F274039A4247
:1017500084BF0123236045F6BC54C2F20004204636
:10176000FEF736FD40F2D852C0F6010203460119D9
:10177000106EB2F8642018518A801DB0BDE8F08365
:1017800046F2C013C2F20003012280214FF09040C4
:101790001A6004F0DDFB45F6BC12C2F2000240F212
:1017A0004823C2F20003926B0020112118602160CF
:1017B0000AB10223236045F62C23C2F2000346F24D
:1017C000F0215A6E0024551C08A8C2F200014C22D8
:1017D0006026C8275D6609F09AFB2246CDE90067BE
:1017E00069460026002708A8CDE90267CDE904670D
:1017F000069405F097FD214608A805F0BBFC46F2CB
:10180000F0202146C2F2000005F0B4FC45F6BC55BC
:101810004FF4806008A90223C2F20005C4F600005C
:101820004FF4007600270A93CDE90B44CDE9086711
:1018300004F084FA2846FEF7CBFC40F2D852C0F6FA
:10184000010203464119106DB2F8542058518A80A4
:101850001DB0BDE8F08345F69813C2F200031B6883
:10186000A3F1FB02B2F54F5F49D840F2080245F6FA
:10187000BC11C2F20002C2F2000123230020136057
:10188000886440F24821C2F200010968002900F092
:10189000858040F20001C2F20001013B086813603C
:1018A00008B101380860002B44D141E045F6BC1274
:1018B000C2F2000246F2C01640F2080145F6BC55DD
:1018C0000023C2F20005C2F20001C2F200069363D7
:1018D0009364284640F6C412236033600A60FEF722
:1018E00077FC40F2D852C0F6010203464119906ECF
:1018F000B2F86C2058518A801DB0BDE8F08344F2E4
:101900007402934238D940F20002C2F2000240F25F
:101910000801C2F2000145F6BC13C2F20003002523
:1019200010680D6001219D64996308B10138106051
:101930000123236045F6BC54C2F200042046FEF7A2
:1019400047FC40F2D852C0F6010203460119906CE0
:10195000B2F84C2018518A801DB0BDE8F0830022F7
:1019600080214FF0904004F0F3FA40F24823C2F295
:10197000000301221A60A9E640F20802FA2BC2F223
:10198000000213D845F6BC11C2F200018B6C6BB992
:1019900040F2E24301201360886472E740F20001E4
:1019A000C2F2000108680028C4D07AE71368002B4F
:1019B0007FF467AF40F20003C2F200031A68002A06
:1019C000B6D0013A1A60B3E746F2C01345F6BC55EB
:1019D000C2F20003C2F20005002228461A6022600B
:1019E000FEF7F6FB40F2D852C0F601020346411959
:1019F000106FB2F8742058518A8050E638B545F619
:101A0000B814C2F200042368002B44D145F698159F
:101A1000C2F20005AB69462B17D94FF48060C4F6BB
:101A2000000001224FF4004104F092FA6B69462B4A
:101A300059D84FF48060C4F6000001224FF40051E1
:101A400004F086FA0123236038BD6B69462B4AD81F
:101A500045F6BC13C2F200031A6A002A4DD11A6976
:101A6000002A5FD1DA68002A68D19A68002A7DD1FD
:101A7000D3E900210A4355D1DB69002BE4D04FF4B0
:101A80008060C4F6000001224FF4804104F060FA47
:101A90000923236038BD4FF48060013BC4F6000089
:101AA00000224FF40041236004F052FA4FF48060AA
:101AB000C4F6000000224FF4804104F049FA4FF4CC
:101AC0008060C4F6000000224FF4005104F040FA98
:101AD0004FF48060BDE83840C4F6000000224FF4A7
:101AE000805104F035BA4FF48060C4F60000012242
:101AF0004FF4804104F02CFA9BE74FF48060C4F669
:101B0000000001224FF4004104F022FA4FF48060FB
:101B1000C4F6000001224FF4804104F019FA0123B9
:101B2000236038BD4FF48060C4F6000001224FF4FA
:101B3000004104F00DFA0123236038BD40F2482330
:101B4000C2F200034FF480601B68C4F6000001225B
:101B50004FF480412BB140F24023C2F200031B68D6
:101B600083B904F0F5F90323236038BD4FF4806096
:101B7000C4F6000001224FF4004104F0E9F9092302
:101B8000236038BD04F0E4F90123236038BD00BFB1
:101B900080B483B000AF00237B6010E07A6845F624
:101BA0006843C2F200031A444AF20003C0F603037A
:101BB00079680B441B7813707B6801337B607B680A
:101BC000272BEBD945F66843C2F200031B68B3F13B
:101BD000FF3F10D100237B600AE07A6845F6684336
:101BE000C2F20003134400221A707B6801337B6049
:101BF0007B68272BF1D900BF0C37BD465DF8047B0D
:101C0000704700BF2DE9F04145F6B857C2F2000712
:101C100086B0386806F006FE45F62C23C2F20003B3
:101C200045F668441A6801321A6000220123CDE9A2
:101C3000022374220123CDE9042303F01FFF4FF494
:101C40000053C4F20203B3221A6101A902A803F0EF
:101C500075FF4AF20006C2F20004C0F6030604F162
:101C60002808D4E900233146002003F045FE08345B
:101C70000836054658B94445F3D103F015FF3868D6
:101C8000642106F0B7FD284606B0BDE8F081642166
:101C9000386806F0AFFD03F011FF06B0BDE8F08133
:101CA00080B584B000AF0023BB6000237B6046F2A8
:101CB000BC13C2F2000300221A600023FB603BE069
:101CC00004233B6010E03B68013B3B60BB681A02A9
:101CD00040F20003C0F60203F968C90219443B68E8
:101CE0000B441B781343BB603B68002BEBD1BB68F4
:101CF000B3F1FF3F01D10023BB60BA687B689A4211
:101D00000FD946F2BC13C2F20003FA681A60BB682E
:101D10007B604FF400514FF48060C4F6000004F083
:101D20001DF94FF480414FF48060C4F6000004F0C8
:101D300015F9FB680133FB60FB68332BC0D9002227
:101D40004FF480414FF48060C4F6000004F000F9C5
:101D500000224FF400514FF48060C4F6000004F0FC
:101D6000F7F80023FB6017E046F2BC13C2F2000351
:101D70001968FA6846F23023C2F200031A4440F2AE
:101D80000003C0F60203C9021944FB680B441B7828
:101D90001370FB680133FB60FB68BF2BE4D946F28C
:101DA0003023C2F20003DB69B3F1FF3F19D10023F6
:101DB000FB6012E0FA6845F62C23C2F200031344DC
:101DC00000221A70FA6846F23023C2F2000313446C
:101DD00000221A70FB680133FB60FB68BF2BE9D956
:101DE0000DE045F62C22C2F2000246F23023C2F288
:101DF000000310461946C0231A4609F088F800BFB0
:101E00001037BD4680BD00BF2DE9F04345F6B859F7
:101E1000C2F2000987B0D9F8000006F003FD45F6CC
:101E20002C2146F23020C2F20001C02246F2BC173B
:101E3000C2F2000009F06BF8C2F2000745F62C234D
:101E4000C2F200033A681968322A4FF4005495BF71
:101E5000501C4022413200200131C4F20204B3255B
:101E6000196038600123012004920022CDE9022389
:101E7000059046F2302603F001FE40F2000801A969
:101E8000256102A803F05AFEC2F2000603F00CFE20
:101E9000C0F6020803F0F2FD2561002501E0C02D27
:101EA00017D0396805EBC121D6E900234144002051
:101EB00003F022FD0835083604460028EFD06421DF
:101EC000D9F8000006F096FC03F0F8FD07B0BDE875
:101ED000F08303F0E9FDD9F80000642106F08AFCE4
:101EE000204607B0BDE8F08330B545F6B855C2F2DC
:101EF000000587B0286806F095FC45F62C20C02226
:101F00000021C2F2000009F010F846F2BC1446F2BB
:101F10003020C0220021C2F20004C2F2000009F009
:101F200004F8002340220020012123600123CDE991
:101F30000423CDE9020103F0A1FD4FF40053C4F2E4
:101F40000203B3221A612368322B0BD801A902A81D
:101F500003F0F4FD23685A1C322A03F14103226086
:101F60000493F3D903F0A0FD0023286823606421C3
:101F700006F040FC07B030BD45F6BC13C2F20003CA
:101F800045F698111A68F0B4C2F20001002A40F038
:101F9000DD80C8684C685A688AB145F69042C2F242
:101FA000000241F259775568CDF2B71700FB04F6ED
:101FB000A7FB067605EB5635002655605E609A68ED
:101FC000002A40F0AE800D68DA688AB145F690428A
:101FD000C2F2000241F2597CD668CDF2B71C00FB78
:101FE00005F7ACFB07C706EB57360027D660DF6066
:101FF0001A698AB145F69042C2F2000241F2597C58
:102000001669CDF2B71C00FB04F7ACFB07C706EB63
:102010005736002716611F61DA6942B145F69042D2
:10202000C2F200020027D669DF610136D6611A6A62
:1020300042B145F69042C2F200020027166A1F62C2
:10204000013616629A6942B145F69042C2F2000228
:10205000002796699F61013696615A6D42B145F637
:102060009042C2F200020027566D5F650136566548
:10207000DA6B002A49D145F62C22C2F200029E6D8D
:1020800046B145F69046C2F2000600279F65B76D3F
:102090002744B765DE6D46B145F69046C2F20006AC
:1020A0000027DF65F36D5F19F7654B69566BB34227
:1020B00003D3966B5363013696638B69D16B8B4266
:1020C00003D3116CD36301311164536CAB4203D859
:1020D000936C556401339364D36CA34203D8136D9E
:1020E000D46401331365536D834203D8936D5065F7
:1020F00001339365F02806D9D36DF02B3BD8136ECE
:10210000D06501331366F0BC704745F62C22C2F24D
:1021100000020027D2F8A060DF630136C2F8A06099
:10212000ADE745F69047C2F200070D688A68BE68C1
:1021300041F2597C02FB05F2CDF2B71CACFB02C2A6
:1021400006EB52320026BA609E603DE745F69042AB
:10215000C2F20002C8684C68156841F2597704FB66
:1021600000F6CDF2B717A7FB067605EB563500262D
:1021700015601E600FE78342C5D3136ED06501332F
:102180001366C0E745F69042C2F20002F0B5D2E90C
:10219000000748F68905C8F68805A5FB004045F606
:1021A0002C234009C2F20003C0EB0010A5FB074737
:1021B00080007F09586098681469C7EB0717D2E957
:1021C000021600EB87079F6098699769A5FB011CC1
:1021D00038444FEA5C1C9861D868A5FB0616CCEB26
:1021E0000C1C916D00EB8C00A5FB04E4A5FB01E148
:1021F000760945F6941ED8601869C6EB0616C2F239
:10220000000E00EB86069EF80070D3F894001E6165
:1022100064095E694909C1EB0111C4EB041400EBC8
:10222000810006EB8404062F5C61C3F894004FEA3A
:10223000810124D8D06DDC6FA5FB0005D3E92C0605
:102240006D09C5EB051504EB8504014406EB850516
:10225000C3E92C15DC67196ADC69D569106A2C445E
:1022600008440021C3E90740C2E91611C2E9001180
:10227000C2E90211C2E9071191611161F0BDF81FB5
:10228000062811D8D06DDC6FA5FB0005D3E92E061A
:102290006D09C5EB051504EB8504014406EB8505C6
:1022A000C3E92E15DC67D6E70E2FEBD00F2FE9D050
:1022B000D16DD86FA5FB01156D09C5EB051500EBB8
:1022C0008505DD67C7E700BF45F69813F0B5C2F294
:1022D00000039BB09B69462B33D840F24024C2F2E6
:1022E000000425680DB11BB0F0BD2A4640214FF017
:1022F000904003F02DFE46F2E41107A8C2F200015F
:102300004C2260264FF4FA7708F001FECDE9006711
:102310002A46694607A800260827CDE902670495E2
:1023200005F000F8294607A804F024FF46F2E4105F
:102330002946C2F2000004F01DFF012323601BB0F8
:10234000F0BD46F2E411002407A8C2F200014C22BD
:102350006026002708F0DBFDCDE9006722466946CC
:1023600007A800260827CDE90267049404F0DAFFE5
:10237000214607A804F0FEFE012240214FF09040C4
:1023800003F0E6FD46F2E4102146C2F2000004F03C
:1023900069FF40F24023C2F200031C601BB0F0BD95
:1023A00008B502F0ADFB00F033F800F0F7F900F0EB
:1023B000C1F900F061F800F09DF900F001F900F0BA
:1023C00041F906F04BF941F2082344F24900C0F606
:1023D000010300220121C0F6000006F0C7F945F60E
:1023E000B853C2F20003044641F2E41243F2916092
:1023F000C0F60102C0F6000000211C6006F05CF986
:1024000045F69013C2F20003186006F039F9FEE7B2
:1024100030B599B006A84422002108F086FD0023BB
:102420004FF40070CDE90033CDE90233049303F09B
:10243000A7FD08B172B6FEE70346012406A84FF4D3
:102440008035CDE90645109303F098FE014608B1AA
:1024500072B6FEE70F240225002200236846CDE96C
:102460000045CDE90223049104F000FA08B172B6E8
:10247000FEE719B030BD00BF30B545F63834C2F2C2
:102480000004002387B0C5F2040304224FF4802522
:10249000082123606261002301222046C4E902333F
:1024A000C4E90A33CDE90133CDE903336560E16165
:1024B000238384F82030636384F8383000932261EA
:1024C00084F83020059302F03FFB08B172B6FEE7B6
:1024D0000222C0F230420623CDE9002301227F23ED
:1024E000CDE902236946042200232046CDE90423D6
:1024F00002F05EFC08B172B6FEE70422C0F660028C
:102500000C2369462046CDE9002302F051FC08B1B6
:1025100072B6FEE70822C0F6904212230290694686
:102520002046CDE9002302F043FC08B172B6FEE775
:102530001022C1F2C002182369462046CDE90023CB
:1025400002F036FC08B172B6FEE72022C1F2F0427A
:102550004FF4807369462046CDE9002302F028FC41
:1025600008B172B6FEE74022C1F620124FF4837321
:1025700069462046CDE9002302F01AFC08B172B684
:10258000FEE78022C1F650524FF48673694620461A
:10259000CDE9002302F00CFC08B172B6FEE701227F
:1025A000C8F200024FF4897369462046CDE9002342
:1025B00002F0FEFB08B172B6FEE707B030BD00BF07
:1025C000D0B546F2E414C2F200044FF080438CB060
:1025D000012223604FF400734FF47A71626023612B
:1025E000802200232046CDE90233CDE90533CDE931
:1025F0000733CDE90933E160A261A360019304933D
:1026000004F03EFD08B172B6FEE7034601A920467C
:102610000193039305F034F908B172B6FEE7024660
:10262000602600270690089004A92046CDE904679B
:1026300004F078FE08B172B6FEE7204602F060F8BA
:102640000CB0D0BDF0B5002595B029462C2208A8C5
:1026500046F2F024C2F20004CDE90055CDE902555E
:10266000CDE90455069508F060FC4FF48843C4F2A8
:10267000010301264FF4FA7180222046C4E9045573
:10268000A56023606660E160A26104F04FFC08B1C0
:1026900072B6FEE7204604F0F3FC024608B172B6BB
:1026A000FEE76026FE27CDE9006769460026002781
:1026B0002046CDE90267CDE90467069204F032FEB8
:1026C000034608B172B6FEE7CDE90867CDE90A67AF
:1026D00008A900264FF400572046CDE90C67129355
:1026E00005F008F908B172B6FEE7204602F008F8D6
:1026F00015B0F0BD45F6E430C2F200004FF460536F
:10270000C4F2010310B50C214FF4E1344FF4004240
:1027100003600023C0E90233C0E90833446041612B
:10272000C2610361836105F095FE08B172B6FEE7F0
:1027300010BD00BF4FF48053C4F2020300B5996C82
:1027400041F001019964996C83B001F0010100919D
:102750000099996C41F0020199649B6C03F00203AB
:102760000022019305210B20019B02F01FFF0B208B
:1027700002F056FF00220521442002F017FF4420FA
:1027800002F04EFF00220521452002F00FFF4520F8
:1027900003B05DF804EB02F043BF00BF2DE9F04346
:1027A00000248BB0CDE90444CDE906444FF48053B6
:1027B000C4F202030894DA6C42F08002DA64DA6C44
:1027C00002F080020092009ADA6C42F00402DA64AD
:1027D000DA6C02F004020192019ADA6C42F0010212
:1027E000DA64DA6C02F001020292029ADA6C42F0C8
:1027F0000202DA64DB6C4FF4806503F00203C4F676
:102800000005039322464FF4E8714FF09040039B7C
:1028100003F09EFB224628464FF4704103F098FBDC
:102820000026002704A94FF4E87201234FF09040DE
:10283000CDE90423CDE9066703F080FA4FF4006088
:1028400004A9302200230124C4F60000CDE90423AA
:10285000069403F073FA0322284604A90023CDE965
:10286000042306944FF4017803F068FA4FF000094E
:10287000284604A902230693CDE9048903F05EFAF1
:102880004FF470420123284604A9CDE90667CDE93B
:10289000042303F053FA0BB0BDE8F0830368DB694F
:1028A000DB0669D52DE9F04740F25A23C2F2000356
:1028B00045F6E4351A78016FC2F2000501321A704C
:1028C0002A680B6840F25B2410211162C2F20004F6
:1028D0005B68217840F25822C2F20002C3F17F0304
:1028E0009BB20129168813800CD945F6E430C2F258
:1028F000000005F091FB002840F05F810023237069
:10290000BDE8F08700293FD19B1B9BB2013B7E2B8A
:10291000EBD845F63857C2F20007BD5D05F0DF037E
:10292000462B38D0432B40F0848040F25023C2F233
:10293000000305221A60302D35D0312D00F0A38020
:1029400005F0DF03482B01D03F2DD7D140F25023B3
:10295000C2F2000345F6BC5040F2D8613C25C2F2F9
:10296000000040F2A522C0F601011D6008F0CFFA78
:1029700000232370BDE8F08740F25B23C2F200031E
:102980001A7801321A707047B342AED8C6F17F028E
:1029900013449BB2BAE740F25023C2F20003042270
:1029A000302D1A60C9D146F2C412C2F20002D2ED33
:1029B000007AF8EE677AB0EE087A40F2502367EEBC
:1029C000877AC2F200033E221A6017EE900AFDF7E2
:1029D000BBFD4CF6CD4240F6CC43CCF6CC42C4F223
:1029E0004303FDF753FC40F2C853C0F60103D3E99B
:1029F000002380468946FEF771F8002840F01381D5
:102A000040464946FEF7D0F8B0F5FA7FC0F02F8176
:102A100045F69813C2F2000345F6BC5040F27061CF
:102A20001A68C0F60101C2F2000009F0DBF9BD5DD1
:102A300083E7572B06D140F25023C2F20003032252
:102A40001A6078E7452B64D145F62C28C2F20008BD
:102A5000404646F2342950F804ABC2F20009BC22C9
:102A6000002108F062FABC224846002108F05DFA15
:102A700040F25023C2F200030422C8F800A049F833
:102A800004AC1A6057E746F2C412C2F20002D2ED5B
:102A9000017AF8EE677AB0EE087A40F2502367EEDA
:102AA000877AC2F200033E221A6017EE900AFDF701
:102AB0004BFD4CF6CD4240F6CC43CCF6CC42C4F2B2
:102AC0004303FDF7E3FB40F2C853C0F60103D3E92B
:102AD000002380468946FEF701F8002840F0B580C3
:102AE00040464946FEF760F8B0F5FA7FC0F0C18075
:102AF00045F69813C2F2000345F6BC5040F2B461AB
:102B00005A68C0F60101C2F2000009F06BF9BD5D20
:102B100016E7442B0AD1FFF7E7F940F25023C2F23F
:102B20000003BD5D04221A6005F0DF03502B06D1BF
:102B300040F25023C2F200033E221A60FBE64F2B04
:102B40000AD140F25023C2F200033E221A60FFF77E
:102B50001FF8BD5D05F0DF034C2B0AD1FFF752F8DB
:102B600040F25023C2F20003BD5D3E221A6005F020
:102B7000DF034B2B0BD0422B18D0542B7FF4DBAE52
:102B800040F20803C2F2000300221A60D3E640F2CA
:102B90005023C2F200033E2145F668401960282206
:102BA0000021C2F2000008F0C0F9C4E640F20003C0
:102BB000C2F2000300221A60BDE645F6E430C2F21C
:102BC000000004F035FF4FF46052C4F2010245F6F4
:102BD000E43000234FF4E1362A600C214FF4004228
:102BE000C2F20000C5E90233C5E908336E602B610B
:102BF000AB616961EA6105F02DFC08B172B6FEE7D0
:102C000045F6385145F6E4307F22C2F20001C2F2A7
:102C1000000005F0DDFC2B6810221A621A6842F0F1
:102C200010021A606AE6002245F66843C2F2000309
:102C300045F6BC5040F25061C2F20000C0F60101FE
:102C40005A6009F0CFF8BD5D77E6002245F668438B
:102C5000C2F2000345F6BC5040F29861C2F2000097
:102C6000C0F601019A6009F0BDF8BD5D68E6024654
:102C7000DAE70246EAE700BF40F25C23C2F2000353
:102C80001A7801321A7070472DE9F04F45F62C2B57
:102C9000C2F2000B2DED028BDBF8A030B3F5617FA3
:102CA0009DB045F6BC5500F2C98040F2D85645F6B5
:102CB000BC14C2F20005C0F60106C2F2000440F2E4
:102CC000642AC2F2000A45F69817C2F20007DAF841
:102CD0000030FA6803F24B134FF000089A42C4E93F
:102CE000138801D2F02A7CD845F6BC50C2F200000D
:102CF000FDF76EFA63690246D6F8B003A850002BC0
:102D000040F0C58046F2C018C2F200080023D8F88F
:102D10000090CAF800306361B9F1000F00F0A7809D
:102D20003B6845F6BC50C82BC2F200001AD8FDF72C
:102D30004FFA626B0346D6F8B803E850002A00F059
:102D400077814FF00109C4F81890FEF795FAD8F88A
:102D50000080B8F1000F00F0E0801DB0BDEC028BE8
:102D6000BDE8F08FFDF734FA034646F2E411D6F8D9
:102D7000B403E8500126002509A8C2F200014C2244
:102D80004FF060084FF00009A66008F0C0F8CDE9E8
:102D900002892A4602A909A84FF000084FF0080945
:102DA000CDE90489069504F0BDFA294609A804F086
:102DB000E1F9324640214FF0904003F0C9F846F265
:102DC000E4102946C2F2000004F04CFA40F240231D
:102DD000C2F2000365631D601DB0BDEC028BBDE84F
:102DE000F08F45F69043C2F200031B69B3F5167FDE
:102DF000BFF47AAF45F6BC50C2F20000FDF7E8F927
:102E00000346D6F8AC03E850FFF75EFA112301221F
:102E100080214FF09040CAF8003003F099F840F25A
:102E20004822C2F200020123C4E90433C2F8008040
:102E3000A3651DB0BDEC028BBDE8F08FC2F20005AA
:102E40002846FDF7C5F940F2D856C0F601060246FD
:102E500045F6904345F6BC14D6F8A803A850C2F234
:102E60000003C2F2000400225A65226427E77B694E
:102E7000462B45D9012280214FF0904003F068F89D
:102E800040F24823C2F20003C3F8009048E7002351
:102E900008EE103A46F2E411C2F200014C224FF063
:102EA00060084FF0000909A808F031F8CDE902895F
:102EB00018EE102A02A909A84FF000084FF00809DF
:102EC000CDE904898DED068A04F02CFA18EE101A6B
:102ED00009A804F04FF9012240214FF0904003F07F
:102EE00037F846F2E41018EE101AC2F2000004F0AF
:102EF000B9F940F24022C2F2000282ED008A01E7F5
:102F00004A4680214FF0904003F022F840F24823D7
:102F1000C2F2000301221A6002E740F2602345F684
:102F2000BC50C2F20003C2F200000193FDF750F959
:102F3000019BD7F80CC01968024601F29311D6F82C
:102F4000C003A8508C4502D2BCF1F00F7CD80332EC
:102F5000D6F8C803A85046F2E4114FF0000AC2F2B6
:102F600000014C224FF060084FF0000909A80193BE
:102F700007F0CDFFCDE90289524602A94FF00008C3
:102F800009A84FF00809CDE90489CDF818A004F08C
:102F9000C9F9514609A804F0EDF8012240214FF08B
:102FA000904002F0D5FF46F2E4105146C2F2000014
:102FB00004F058F9D7F80C80019B40F24022C2F28D
:102FC00000020127B8F5CA7FC3F800A0C2F800A02C
:102FD0002762FFF4C2AE45F6BC50C2F20000FDF716
:102FE000F7F840F6A4110346C0F60101D6F8CC0369
:102FF000226BE85005EB030C91F804E0DBF8940039
:103000008CF804E0CBF8800072BBA26A8ABB043360
:1030100040F6AC12D6F8D403E850C0F601022B44B7
:1030200016791E7101210022A162CBF87C2094E662
:10303000DBF83020D6F8BC0303330132E85001231B
:10304000CBF8302063637CE60332D6F8C403A85083
:10305000FFF73AF9019BC4F804901222C4F8589083
:10306000C4F828801A6078E6A26A002A7FF475AE58
:10307000CDE70433EA18D6F8DC03097DE850CBF835
:103080009C801171276368E62DE9F04346F2C01673
:10309000C2F2000645F6981534689BB0C2F20005EE
:1030A000002C00F0B1802B68C82B45F6BC1441D928
:1030B0006A68C2F2000441F65D2301269A42A660C6
:1030C00035D946F2E4110025C2F200014C224FF03E
:1030D00060084FF0000907A807F019FFCDE9008943
:1030E0002A46694607A84FF000084FF00809CDE9C5
:1030F0000289049504F016F9294607A804F03AF865
:10310000324640214FF0904002F022FF46F2E41098
:103110002946C2F2000004F0A5F840F24023C2F2B2
:1031200000031D60002363631BB0BDE8F083FFF75D
:10313000CBF8F7E7C2F20004636B43B945F62C23E2
:10314000C2F2000301211A6B61630A441A634FF053
:103150000108C4F81880FEF78FF83668002EE3D116
:1031600040F26027C2F20007EA683B6803F293135B
:103170009A4201D2F02A63D846F2E4110026C2F244
:1031800000014C224FF060084FF0000907A807F03B
:10319000BEFECDE900893246694607A84FF0000817
:1031A0004FF00809CDE90289049604F0BBF83146D6
:1031B00007A803F0DFFF012240214FF0904002F00A
:1031C000C7FE46F2E4103146C2F2000004F04AF8AD
:1031D000E9683E6040F24023C2F200030122B1F5EB
:1031E000CA7F1E6022629FD345F62C23C2F20003E1
:1031F000206BD3F89450C3F8805058BBA06A68B3D2
:10320000C3F89C1022638FE76B69462B0BD9012210
:1032100080214FF0904002F09BFE40F24823C2F222
:1032200000031C603FE7224680214FF0904002F0EF
:103230008FFE40F24823C2F2000301221A6032E7F7
:10324000FFF742F81223C4F80480C4F85880A6623D
:103250003B6069E7A26A002A7FF466AF0121002281
:10326000A162DA6760E700BF2DE9F04F45F69049AB
:10327000C2F2000945F6BC14D9F85420C2F2000489
:1032800001230021B2F5E16F9DB06161E3616365E7
:1032900000F2B78045F6BC5640F2D857C2F200069D
:1032A000C0F6010740F26425C2F2000545F6981801
:1032B000C2F200082B68D8F80C20C3F5AE7345F6AF
:1032C000BC509A42C2F2000026D9FCF781FF46F2B8
:1032D000C012C2F2000203461268D7F8E803F050A9
:1032E00000216162002A00F09880FEF791F940F217
:1032F0004823C2F2000311221B682A60002B40F011
:10330000F380D8F80030FA2B03D9A36A002B40F0E1
:10331000D6801DB0BDE8F08FFCF75AFF40F2482A76
:10332000024640F26023C2F20003D7F8F803B0501F
:10333000C2F2000A4FF0000B012280214FF09040B2
:10334000C3F800B0C5F800B002F002FECAF800B041
:10335000FEF7BAFF45F61C23C2F200039A68002A62
:10336000D7D05D683B2D5FD0226D002AD1D0002DD3
:10337000CFD11B680A2BCCD145F6BC50C2F200005D
:10338000FCF726FFD8F814300246462BD7F8000485
:10339000B05040F2C680012280214FF0904002F0F0
:1033A000D7FDCAF8005046F2E4110024C2F2000131
:1033B0004C226026002709A807F0A9FDCDE9026785
:1033C000224602A909A800260827CDE90467069429
:1033D00003F0A8FF214609A803F0CCFE01224021FA
:1033E0004FF0904002F0B4FD46F2E4102146C2F2E4
:1033F000000003F037FF40F24023C2F200031C60DC
:1034000087E7256D45F6BC56002D7BD040F2D85796
:10341000C2F20006C0F6010744E70333D7F8EC0315
:10342000F050FDF761FE60E7626A002A9CD1D9F88E
:103430005410B1F5E16F97D945F6BC50C2F20000C7
:103440000192FCF7C5FE45F62C238446C2F2000328
:10345000D7F8FC0346F80C00D3E92260D8F80C50EA
:10346000C3F89850D3F88450019A596AC3F8900071
:10347000C3F88C60D3F89400D3F8A860C3F88850E0
:10348000D3F8A4502263A262C3F88400C3F8942046
:10349000D3F8A0005A6FC3F8AC60C3F8A8501E6FF1
:1034A000DD6EC3F8A4009A67D86FD8660122013197
:1034B000C3E91C56596222646262226529E745F617
:1034C000BC50C2F20000FCF783FE45F62C23C2F28A
:1034D000000301469A6AD7F8F403705001320021C4
:1034E0009A62A162216314E745F6BC50C2F2000063
:1034F000FCF76EFE0346D7F8F003F0500123E360BB
:10350000E365FEE6C2F200063046FCF761FE40F2DB
:10351000D857C0F601070346D7F8E403F0506562B8
:10352000C0E62A4680214FF0904002F011FD0123B1
:10353000CAF8003037E700BF30B545F62C22C2F29A
:1035400000029FB0D2E92614D2F88450D36E1D95A4
:10355000D2F880501C94946E1B91516E1A93136E86
:103560001995956D1894D46D1791516D1693136D2F
:103570001595956C1494D46C1391516C1293136C33
:10358000CDE91045CDE90E319469116A936BCDE90F
:103590000014516BD56BD46A0D93136B0C91916A27
:1035A0000B95556A0A94D468099353690891116977
:1035B00007959568069454680593D3691268049139
:1035C00045F6BC5040F6F431C0F60101C2F20000ED
:1035D000CDE9024508F006FC1FB030BD30B545F618
:1035E0002C22C2F20002D2E92A459FB0D2E928314A
:1035F0001D95D2F8BC501C94D2F8B8401B91D2F85B
:10360000B4101A93D2F8B0301995D2F8905018949B
:10361000D2F88C401791D2F888101693D2F88430E3
:103620001595956F1494546F1391116F1293D36E77
:10363000CDE91045CDE90E319469116AD2F8803098
:10364000CDE90014D16FD2F89450D46A0D93136B66
:103650000C91916A0B95556A0A94D4680993536941
:103660000891116907959568069454680593D36984
:103670001268049145F6BC5040F60861C0F601019D
:10368000C2F20000CDE9024508F0ACFB1FB030BD2E
:103690002DE9F04F2DED028B45F69813C2F2000391
:1036A000BDB018935B69462B40F2482346D9C2F25D
:1036B00000031C46012280214FF09040159302F038
:1036C00047FC0023236045F6E43400224FF4807168
:1036D0004FF09040C2F2000402F03AFCFEF7E0FA2C
:1036E000FEF756FA204601F05FF82268136845F6A7
:1036F000385143F010031360C2F200017F222046CC
:1037000004F066FF45F638307F21C2F2000001F078
:10371000EBFE322005F01CF846F2C41145F63830B5
:10372000C2F20001C2F20000082201F04DFE06467E
:1037300088B13DB0BDEC028BBDE8F08FC2F2000352
:103740001C46002280214FF09040159302F000FCAF
:1037500001232360B7E74FF48060C4F60000012224
:103760004FF4004102F0F4FB4FF48060C4F6000017
:1037700001224FF4804102F0EBFB4FF48060C4F66D
:10378000000001224FF4005102F0E2FB4FF4806090
:10379000C4F6000001224FF4805102F0D9FB4FF033
:1037A000110C4FF0120BCDE90ABC4FF0230840F288
:1037B000931C40F6C41EF027CDE9087CCDE90CE847
:1037C000C8254FF4AE7EFA214FF4A577CDE9067EE9
:1037D000CDE90215462344F2740A43F2BC494FF482
:1037E000A07240F2B31745F6BC5040F6DC11C0F6AB
:1037F0000101CDE90E9ACDE90437009301923423FB
:103800000122C2F2000001F5FA6808F0EBFA45F671
:10381000BC50C2F20000FCF7DBFC45F6BC5182B2A2
:10382000C2F20001204604F0ADF8052004F090FF3C
:103830004FF480603246C4F600004FF4004102F0BD
:1038400087FB4FF480603246C4F600004FF480419D
:1038500002F07EFB4FF480603246C4F600004FF465
:10386000005102F075FB4FF480603246C4F6000050
:103870004FF4805102F06CFB4FF480600121C4F6DC
:10388000000002F05FFB45F69415C2F20005034606
:103890004FF400601021C4F600002B70139502F065
:1038A00051FB2A7803464FF4806002EB4303022168
:1038B000C4F600002B7002F045FB2A7803464FF453
:1038C000006002EB83032021C4F600002B7002F09D
:1038D00039FB2B7803EBC003DBB24FF4806003F0BD
:1038E0000102C4F600004FF400412B7002F030FBDF
:1038F0002A784FF4806002F00202C4F600004FF410
:10390000804102F025FB2A784FF4806002F0040227
:10391000C4F600004FF4005102F01AFB2A784FF46D
:10392000806002F008024FF48051C4F6000002F0FB
:103930000FFB322004F00CFF4FF480603246C4F6D7
:1039400000004FF4004102F003FB4FF48060324668
:10395000C4F600004FF4804102F0FAFA4FF48060A0
:103960003246C4F600004FF4005102F0F1FA4FF471
:10397000806032464FF48051C4F6000002F0E8FA4D
:10398000FFF7DAFD45F6BC50C2F20000FCF720FC60
:1039900045F668473B46C2F2000345F6BC511F4658
:1039A00082B2C2F200012046169303F0EBFF14200E
:1039B00004F0CEFE7B691193D7E90335D7E90621E0
:1039C0001293BB681493119B386A0690CDE9025399
:1039D000CDE90421129B0193149B009345F6BC5042
:1039E0007B683A68A8F5FE71C2F2000008F0FAF9A7
:1039F00045F6BC50C2F20000FCF7EAFB45F6BC51AC
:103A000082B2C2F20001204603F0BCFF45F6B85373
:103A1000C2F2000345F62C22186845F6BC1713467F
:103A2000C2F20007C2F20003642117931A9704F050
:103A3000E1FE01231799FB627B623B6440F2502058
:103A4000A8F5FE7308EE103A0346C1F89460CE67FD
:103A5000C2F2000345F61C2112930B46C2F200038A
:103A600040F2000020930346C2F2000340F2080136
:103A70001F930B46C2F2000340F244201E930346FC
:103A8000C2F2000340F23C211C930B46C2F2000339
:103A900040F24020189F1D9345F6BC55034640F266
:103AA0004C2440F2040140F26020C2F200054FF4C1
:103AB000AF7245F6904940F2542AC2F20004C2F2B5
:103AC0000003C2F20001C2F200002E4608F1340BDE
:103AD000FA60C2F200091B93C2F2000A149121900D
:103AE00011945A2004F034FE00224FF480714FF0FC
:103AF000904002F02DFA119B1B683BB9119C0220EB
:103B000004F026FE2368002BF9D01194129B1B6849
:103B1000032B00F09080022B00F09380042B00F028
:103B2000BC80052B00F0F680012B00F035813E2B88
:103B300000F06B813C2B00F0248113B1129A013B01
:103B4000136000232B703046FCF742FB831ED8F82D
:103B50000000E850EA18DAF80030B8F80410918054
:103B6000002B40D1139B1B78062B32D87B69462B48
:103B700049D8149B7A681B6803F5A0739A42BB6806
:103B800040F29180B3F5A57F00F291803046FCF7BA
:103B90001FFB41F2BC12C0F6010203461068149AE2
:103BA000E85046231360FFF75FFB3046FCF710FB3D
:103BB000BBF8001029522B189BF802109970821C38
:103BC00045F6E43092B23146C2F2000003F0DAFE6C
:103BD00087E7DA1F062A23D8BB69462B7AD9139ABE
:103BE00000231370E1E73046FCF7F2FA41F2B41219
:103BF000C0F6010203461068E850FEF705F90023FD
:103C0000CAF80030AEE7139C0723012280214FF051
:103C10009040237002F09CF9159A00231360C4E7CA
:103C20000E2B00F0B2800F2BBFD17B69462BEAD858
:103C3000FFF72AFAB9E7129A02231360FFF7CEFCC6
:103C400081E7179BD9F85800D3F8A010D9F8542071
:103C5000D9F808300890D9F80C000791D9F8041069
:103C60000692D9F800200593D9F81040D9F81830F9
:103C70000093CDE90304CDE90121129C012041F21A
:103C80004C012060D9E90723D9F85C400994C0F6BB
:103C90000101304608F0A6F855E7FFF74DFC129AEF
:103CA000002313604FE7B3F5DA7FFFF46FAF3046C0
:103CB000FCF78EFA41F2B812C0F601020346106812
:103CC000149AE85000231360FEF7DEFF1A9A0123CE
:103CD000D3636AE7149B7A681B6803F5A0739A4262
:103CE000BB6840F2B380B3F5A57F00F2B3803046E5
:103CF000FCF76EFA41F2D811C0F6010103462A180A
:103D00000868E8500B791371149A46231360FFF783
:103D1000ABFA4AE7232040F6C41144F2740C43F294
:103D2000BC4311220D900C91F0204FF4AE71CDF8F0
:103D30003CC00E934FF0120C40F293130B9208907C
:103D40004FF4A572C8200791FA21CDE90210CDF8F1
:103D500028C0099340F2B31C4623069240F6DC11BA
:103D60004FF4A072CDE9043C009301923423012268
:103D7000C0F60101304608F035F8129A00231360AE
:103D8000E1E6129A3B231360DDE67B69462B3FF6A2
:103D90003AAFFEF779FF08E71F9A129C10681E9A47
:103DA00011681C9A0023236012680F9078680E91A6
:103DB00039680D92FB68BA690C93BC687B69CDE9E0
:103DC0000A041D98006809911B9909680892159AC0
:103DD00012680793139B18921B783A69209C0692ED
:103DE00022681992189A059060680090CDE9023215
:103DF000199A0491019241F2F801A368E268C0F6B1
:103E00000101304607F0EEFF9DE6169CD4E907104D
:103E1000A2696369246906901698C068059116998D
:103E200089680091CDE90332CDE90104169A18EEB4
:103E3000101A53681268304607F0D4FF129A1368BC
:103E4000002B3FF480AE013B13607CE6B3F5DA7FD4
:103E5000FFF44DAF3046FCF7BBF9034641F2C0100A
:103E6000C0F60100219A0068E85014981268F968B9
:103E70004FF0000CC0F800C01A9802F293120446EA
:103E800091424FF00100E06301D2F0297ED841F267
:103E9000C8117A69C0F6010103330868E850462A60
:103EA0006AD9012280214FF0904002F051F8159A12
:103EB0000023136046F2E411C2F200014C2229A84B
:103EC00007F025F800231A46269300246023CDE945
:103ED000223422A90023082429A8CDE9243403F0A0
:103EE00021FA0023194629A803F044F901224021B0
:103EF0004FF0904002F02CF8002346F2E4101946EF
:103F0000C2F2000003F0AEF91B9B2198F9681A4633
:103F10000023136003601A9B0122B1F5CA7F1A6265
:103F2000FFF443AE30461891FCF752F941F2CC1140
:103F3000C0F601011A9A034608681799D2F830C0F2
:103F4000E850D1F89400C1F88000BCF1000F68D1AE
:103F5000906A18990122002868D141F2D012C0F667
:103F60000102033310681A99E85001220023C1E9C5
:103F70000932179AD36718E6002280214FF090404B
:103F800001F0E6FF159A0123136093E7DA1C41F272
:103F9000C4111B9BC0F601011B680868A85073BBC5
:103FA0001A4640214FF09040189301F0D1FF46F29D
:103FB000E411C2F200014C2229A806F0A8FF189BC8
:103FC00026931A464FF4FA746023CDE9223422A9CD
:103FD0000023082429A8CDE9243403F0A3F9189B71
:103FE00029A8194603F0C6F8189B46F2E4101946B2
:103FF000C2F2000003F0BEF81B9C012323600122E3
:1040000080214FF0904001F0A3FF1598002202603C
:104010001A988262219A012312211160036083653C
:10402000C3E5926A002A7FF4C0AD96E7179C41F27F
:10403000D410C0F601000333C4F89C101A9900682C
:10404000E850C1E90BC2B0E52DE9F84F40F2682312
:10405000C2F200032DED028B1A68002A00F0FD81E8
:10406000013A1A60FDF788FF46F2C41545F638306C
:10407000C2F20005C2F2000001F066F9D5ED007A47
:10408000F8EE677AB0EE087A67EE877A17EE900A54
:10409000FCF75AFA4CF6CD4240F6CC43CCF6CC4273
:1040A000C4F24303FCF7F2F840F2D053C0F6010328
:1040B000D3E9002306460F46FCF710FD044600280E
:1040C00040F0C78130463946FCF76EFD45F668433F
:1040D000C2F200035B68834280F01F82C31AD5EDF1
:1040E000017AF8EE677AB0EE087A45F6981467EE32
:1040F000877AC2F2000417EE900A2360FCF724FAD4
:104100004CF6CD4240F6CC43CCF6CC42C4F243034D
:10411000FCF7BCF840F2D053C0F60103D3E900230A
:1041200080468946FCF7DAFC0646002840F0938179
:1041300040464946FCF738FD45F66843C2F20003A5
:104140009B68834200D2C61AD5ED027A66600023CE
:10415000C4F2C82308EE903AF8EE677A4FF4704341
:10416000C4F27F5308EE103A67EEA87AC7EE887A59
:1041700017EE900AFCF7E8F945F2EB134FF0004216
:10418000C4F20A03FCF738FA4FF4C0430022C4F229
:104190007E03FCF731FA00230022C3F6B073FCF76C
:1041A0002BFA49F69A1249F69913C9F69912C3F6F1
:1041B000B973FCF721FAFCF7F7FCD5ED037AA060A0
:1041C000F8EE677A67EEA87AC7EE887A17EE900A5B
:1041D000FCF7BAF945F2EB134FF00042C4F20A03C0
:1041E000FCF70AFA4FF4C0430022C4F27E03FCF746
:1041F00003FA00230022C3F6B073FCF7FDF949F679
:104200009A1249F69913C9F69912C3F6B973FCF7D5
:10421000F3F9FCF7C9FCE0602869FCF773F90023A7
:104220000022C4F2080343EC182B06460F46B0EEFA
:10423000481AF0EE681A47EC106B0BF009FA324698
:104240003B46304639465BEC10ABFCF7D5F944F2FF
:104250002D3243F2E263CEF61C32C3F60A73FCF74A
:10426000CBF94FF2857241F2940380468946CDF234
:104270004362CBF63E6350465946FCF7BDF9024611
:104280000B4640464946FCF701F845F6B41248F69D
:10429000DA2380468946CBF6F512C3F6BD73304665
:1042A0003946FCF7A9F902460B4640464946FBF75A
:1042B000EBFF45F2EC124EF68533C1F6B862C4F25C
:1042C0005E03FBF7E3FFFCF76FFC0D3820616869C4
:1042D000FCF718F9B0EE481AF0EE681A06460F46D9
:1042E00047EC106B0BF0B4F932463B46304639468A
:1042F0005BEC10ABFCF780F944F22D3243F2E26341
:10430000CEF61C32C3F60A73FCF776F94FF28572CB
:1043100041F2940380468946CDF24362CBF63E6378
:1043200050465946FCF768F902460B464046494656
:10433000FBF7ACFF45F6B41248F6DA23804689460F
:10434000CBF6F512C3F6BD7330463946FCF754F987
:1043500002460B4640464946FBF796FF45F2EC12F3
:104360004EF68533C1F6B862C4F25E03FBF78EFFEA
:10437000FCF71AFC0D386061A869FCF7C3F8B0EED1
:10438000481AF0EE681A06460F4647EC106B0BF021
:104390005FF932463B46304639465BEC10ABFCF7E2
:1043A0002BF944F22D3243F2E263CEF61C32C3F60F
:1043B0000A73FCF721F94FF2857241F294038046AB
:1043C0008946CDF24362CBF63E6350465946FCF730
:1043D00013F902460B4640464946FBF757FF45F6A0
:1043E000B41248F6DA2380468946CBF6F512C3F6B6
:1043F000BD7330463946FCF7FFF802460B4640468F
:104400004946FBF741FF45F2EC124EF68533C1F603
:10441000B862C4F25E03FBF739FFFCF7C5FB034645
:104420004FF480600D3B4FF40071C4F60000A361AF
:1044300001F088FDBDEC028B40F2442240F24C2397
:10444000C2F20002C2F20003012110601960BDE84F
:10445000F88F002343E6002676E645F61C24C2F2D8
:10446000000440F250252368C2F2000501332360A6
:10447000FDF7C4FA2B680BB902232B6040F214033A
:10448000C2F200031A68002A7FF4EAAD6168226074
:104490004FF480604A1CC4F6000001214FF03B0934
:1044A0006260C3F8009001F04DFD45F69416C2F22B
:1044B000000603464FF400601021C4F6000033707C
:1044C00001F040FD327803464FF4806002EB430375
:1044D0000221C4F60000337001F034FD3278034647
:1044E0004FF4006002EB830340F21007C4F60000B3
:1044F00020213370C2F2000701F024FD3378D7F891
:10450000008003EBC000032330702B60B8F1000F74
:1045100005D008F1FF333B60A4E52346DFE5FDF756
:1045200031FE40F20C03C2F20003A0681A68C7F81B
:10453000009040F25421C2F2000101300125C4F87C
:104540000480A0600D60002A7FF48AADE168A2605B
:1045500001311722E1601A6084E500BF02684FF460
:104560008053C4F200039A4200D0704700F0D8BADA
:1045700072B6FEE74FF48053C4F2020382B0196EA4
:1045800041F001011966196E01F0010100910099D5
:10459000996D41F0805199659B6D03F080530193B3
:1045A000019B00220F216FF0010002B000F0FEBF5E
:1045B00070B50446A0B000215C2209A8CDE9041121
:1045C000CDE90611089106F0B0FC22680023C5F27F
:1045D00004039A4201D020B070BD4FF480424FF0E6
:1045E000405309A809921D9302F0FCFA002853D108
:1045F0004FF48053C4F202034FF40060DA6C42F4CB
:104600000052DA64DA6C02F400520192019ADA6C18
:1046100042F00402DA64DA6C02F004020292029AB6
:10462000DA6C42F00102DA64DB6C03F001030393FD
:1046300000260F220B2303990696C4F6000004A956
:10464000CDE9042345F6F04501F078FB07220B2362
:1046500004A94FF09040C2F20005CDE9042306966C
:1046600001F06CFB0823C4F2020380204FF40071B8
:104670004FF400622B60286120232846C5E90166BB
:10468000C5E90512EE602E62EB6100F0D7FF30B98C
:10469000E564AC6220B070BDFFF76AFFA8E7FFF7E2
:1046A00067FFF5E70368B3F1804F00D070474FF420
:1046B0008053C4F2020382B09A6D42F001029A65FF
:1046C0009B6D03F001030193019B02B0704700BF93
:1046D00002684FF48843C4F201039A4200D0704745
:1046E0004FF48053C4F2020382B01A6E42F40032D7
:1046F0001A661B6E03F400330193019B02B07047EE
:1047000070B5026888B00023B2F1804FCDE9023362
:10471000CDE90433069307D04FF48843C4F2010374
:104720009A421FD008B070BD4FF48053C4F2020308
:104730000120DA6C42F00102DA64DB6C069003F0CF
:10474000010300930022002302A9202402254FF038
:104750009040CDE90245CDE90423009E01F0EEFA38
:1047600008B070BD4FF48053C4F202034FF4806070
:10477000DA6C42F00202DA64DB6C03F002030193AC
:104780000E23019A06930022002302A9C4F600001A
:104790004FF480740225CDE90245CDE9042301F0F0
:1047A000CDFA08B070BD00BFF0B500249FB005463B
:1047B0005C22214607A8CDE90244CDE904440694D1
:1047C00006F0B3FB2A684FF46053C4F201039A4227
:1047D00001D01FB0F0BD012307A80F94079302F08A
:1047E00001FA002874D14FF48053C4F20203072465
:1047F0001A6E42F480421A661A6E02F480420092E7
:10480000009ADA6C42F00102DA64DB6C069403F081
:10481000010301930022019B4FF40076022302A9B9
:104820004FF090400227CDE90423CDE9026701F063
:1048300085FA4FF480620223CDE9022302A9012206
:1048400002234FF0904045F69C36C2F20006CDE9B7
:104850000423069401F072FA4FF49063C4F2020349
:10486000022480212022336030460023C6E902332F
:10487000C6E9053374603161F261336200F0DEFE37
:1048800060BB45F6EC24C2F2000440F26C43C4F273
:10489000020302271021802223602E670023204676
:1048A000C4E90332C4E90533C4E90733B56267607C
:1048B000A16000F0C3FE70B900220521EC6625203E
:1048C000A56200F073FE252000F0AAFE1FB0F0BD27
:1048D000FFF74EFE87E7FFF74BFEEDE7FFF748FED9
:1048E000CFE700BF30B5014689B00022362000F086
:1048F0005DFE362000F094FE4FF48053C4F20203B4
:1049000001A99A6D42F010029A659B6D03F01003A5
:10491000029303A8029B02F0A7F802F079F84DF683
:104920008363C4F21B33A3FB003046F24034C2F26F
:104930000004830C4FF480510022013BC4F20001BB
:1049400040F2E7352046C4E90013C4E90352A260EF
:1049500002F0ECFA10B1012009B030BD204602F09F
:104960005FFB09B030BD00BFFEE700BFFEE700BF40
:10497000FEE700BFFEE700BFFEE700BF704700BFD5
:1049800045F6F040C2F2000000F066BF10B545F6F3
:10499000E434C2F20004204603F060F92368DB69C6
:1049A000DB0600D410BD2046BDE81040FDF776BF01
:1049B00046F24030C2F2000002F0AABE45F6EC20FA
:1049C000C2F2000000F048BF45F69C30C2F2000081
:1049D00000F042BF0120704708B506F075F91623B4
:1049E00003604FF0FF3008BD08B506F06DF91623DF
:1049F0000360FEE770B5161E07DD0C468D19AFF398
:104A0000008004F8010BA542F9D1304670BD00BF0B
:104A100070B5161E07DD0C468D1914F8010BAFF3A7
:104A20000080AC42F9D1304670BD00BF4FF0FF307E
:104A3000704700BF4FF400534B600020704700BF29
:104A4000012070470020704740F26C21C2F2000143
:104A500010B540F2000240F200440B68C2F20102BD
:104A6000C0F20004121B2BB1184490420AD808600F
:104A7000184610BD46F2E033C2F2000318449042DB
:104A80000B60F4D906F020F90C2303604FF0FF33DC
:104A9000184610BD4FF46D43CEF20003D3F88820C2
:104AA00042F47002C3F88820704700BFDFF834D0AA
:104AB000FFF7F0FF0C480D490D4A002302E0D458DF
:104AC000C4500433C4188C42F9D30A4A0A4C002358
:104AD00001E013600432A242FBD306F0F1F9FDF7C6
:104AE0005FFCFEE700000120000000202002002003
:104AF0009817010820020020E0630020FEE7000074
:104B000010B5032000F03CFD0F20FFF7EBFE10B1C5
:104B10000124204610BD0446FFF72CFD204610BDA1
:104B200046F28C3340F21C01C2F20003C2F20001D3
:104B300018680A7802441A60704700BF46F28C3346
:104B4000C2F200031868704770B582B00023019369
:104B5000002800F0C180456D0446002D00F09880CB
:104B6000226893689D0005D5936823F0204323F0C5
:104B70003F0393609368D8001FD440F21801C2F23B
:104B8000000142F663500B6891689B09C0F23E50E9
:104B9000A0FB03039B0921F01041013321F03F01E9
:104BA0005B0041F0805191600193019B2BB1019B0F
:104BB000013B0193019B002BF9D19368D90059D493
:104BC000636D43F010036365A36D43F00103A365B8
:104BD000936813F0040F4FF00100636D51D1DB06B1
:104BE0004FD4636D23F4817343F0020363659368CC
:104BF000DE070FD40023C5F204039B68DD0709D448
:104C00004FF44071C5F2040165688B6823F47C138E
:104C10002B438B60D4E90215636B2B430B43657EFA
:104C200094F8201043EA4533012943EA01434ED06A
:104C3000A16A21B1E56A01F4707129430B43D5687B
:104C40004CF20701CFF6F07129400B43D360936813
:104C5000590723D593682369012B40D0136B23F0A8
:104C60000F031363636D23F0030343F001036365D4
:104C700002B070BD936813F0040F4FF00000636D35
:104C8000ADD0636D012043F01003636502B070BDC9
:104C9000FFF78EFCA56584F8505061E793681B0709
:104CA000D9D4D16894F83030257E21F480415B005E
:104CB00021F0020143EA85330B43D36094F8383086
:104CC000012B14D0136923F001031361C3E7616A58
:104CD000013943EA4143ABE7012002B070BD116BDB
:104CE000E36921F00F01013B0B431363BAE7D4E9F9
:104CF0000F361169656C21F4FF6121F00401334323
:104D00000B43A16C2B430B4343F001031361A2E758
:104D1000704700BF704700BF08B5806AFFF7FAFF11
:104D200008BD00BF704700BF836A5A6D12F0500F74
:104D300010B55A6D1DD1196842F400725A650A689F
:104D400012F0080FCA681BD012F4406F0DD1CA6868
:104D500094040AD45A6D22F480725A655A6DD104B3
:104D600003D45A6D42F001025A651846FFF7D0FF8E
:104D700010BDD2060AD4DB6CBDE810405B6B18474F
:104D80009007E7D51846FFF7C3FFF1E71846FFF78E
:104D9000C9FF10BD806A08B5436D43F04003436509
:104DA000836D43F004038365FFF7BCFF08BD00BFBC
:104DB000F0B490F8502082B00346012A4FF0000072
:104DC000019000F03E811C68012083F85000A56826
:104DD00015F004054CD14A68052A53D902F01F0C7E
:104DE0001F26920906FA0CF602F00C05F74304F1AF
:104DF000300208685659C0F384603E4000FA0CF057
:104E000030435051A268550740F1B480A2680A6847
:104E1000A068C00745D515460022C8F20802154211
:104E20003DD04FF44072C5F2040200219068CCF2EC
:104E300052718D4200F0E0762ED00021CCF6843104
:104E40008D4200F002810121C8F200018D4226D17D
:104E500010F4800023D10021C5F204018C421ED140
:104E6000916821F0E071314341F48001916003E0E9
:104E70005A6D42F020025A65002283F8502002B099
:104E8000F0BC7047023A032A00F2F081DFE812F02A
:104E9000F800FE000401EF00010240F11381002040
:104EA000EAE7CF68D4F8B0504FF6FF7007F0180665
:104EB000C0F20700F040C2F3120C002625EA0C05F0
:104EC0001040C4F27F062843B742C4F8B00015462C
:104ED000A2D1BCF1000F00F0E58092FAA2F0002808
:104EE00000F05881B0FA80F0013000F01F0009286E
:104EF00040F2508192FAA2F5002D00F0A681B5FA99
:104F000085F50135AD0605F0F84592FAA2F00028C6
:104F100000F0A281B0FA80F0013000F01F000126FD
:104F200006FA00F0054392FAA2F2002A00F09081FE
:104F3000B2FA82F0013000F01F0000EB4000A0F157
:104F40001E02120542F000722A43D70D04F1140527
:104F500007F004078E687859C2F304524FF0070C2B
:104F60000CFA02FC20EA0C0006FA02F202437A5123
:104F70000D6851E7A268120761D408688D68C70DF3
:104F800004F1140607F00407C0F30450BA594FF0B7
:104F9000070C0CFA00FC22EA0C0205FA00F00243AE
:104FA000BA510E69E068042E1AD004F160074FF47C
:104FB000704C57F826200D68C0F2FF3C02EA0C0C3A
:104FC000C0F3C1004A69400005F0F845824045EA57
:104FD0000C052A4342F0004247F826200A6817E7EA
:104FE0000A68206E206EC2F31205C0F38460002DA3
:104FF00040F0A080C2F38465A84200F0EF80606EAC
:10500000666E04F16000C6F3846604F16407AE4284
:1050100000F009818668866800F10807C6F3846697
:10502000AE4200F0EF80C668C6680C30C6F38466F6
:10503000B5427FF4EDAE026822F0004202600A68D9
:10504000E6E6022002B0F0BC704710F080707FF4FA
:1050500026AF0021C5F204018C427FF420AF916895
:1050600021F0E071314341F08071916004E74FF429
:1050700080724A604FF0000C6FF01F070425B6E6FF
:105080000C20486084466FF4F837B0E61220486080
:1050900084466FF4F807AAE61820486084466FF04B
:1050A000F857A4E6920E501C00F01F06092E33D8C4
:1050B0008506012005F0F845B04006EB46020543A1
:1050C000120541E70021C5F204018C427FF4E7AEEE
:1050D000916821F0E071314340F2180041F4000181
:1050E000C2F200009160026842F663519209C0F278
:1050F0003E51A1FB02129209013202EB42029200E0
:105100000192019A002A3FF4CAAE019A013A019233
:10511000019A002AF9D1C2E606EB460285061E3A3C
:10512000012005F0F84500FA06F61205354342F075
:10513000007209E792FAA2F51DB1B5FA85F5A84209
:105140004CD0606E666E04F16000C6F3846604F1B4
:10515000640792FAA2F51DB1B5FA85F5AE4262D0A8
:105160008568866800F10807C6F3846692FAA2F59E
:105170001DB1B5FA85F5AE4244D0C568C6680C309D
:10518000C6F3846692FAA2F5002D3FF441AEB5FA5B
:1051900085F54DE792FAA2F5002D64D0B5FA85F5B4
:1051A0000135AD0605F0F84592FAA2F0002858D076
:1051B000B0FA80F0013000F01F00012606FA00F07E
:1051C000054392FAA2F2002A48D0B2FA82F00130E6
:1051D00000F01F0000EB40000205B5E6226E2046FD
:1051E00022F0004240F8602F0A68656E666EC2F3D6
:1051F0001205C6F3846604F16407002DA9D1C2F339
:10520000846504E73A6822F000423A600A68C5689B
:10521000C668C2F31205C6F384660C30002DB1D106
:10522000C2F3846504E73A6822F000423A600A68F3
:1052300085688668C2F31205C6F3846600F1080724
:10524000002D93D1C2F38465EAE64FF080655CE6F9
:105250000022CFF6506277E6022063E64FF4401258
:1052600072E60220ACE74FF080659DE706204860BB
:1052700084466FF4F867BAE570B582B0002203681F
:1052800001929A68D20734D499683F22C8F200028A
:105290001142044630D19A6822F0004222F03F02C7
:1052A0004FF4407142F00102C5F204019A608B682C
:1052B0001B022CD4FFF742FC23681A68D607054668
:1052C00017D44FF6C076C7F6FF769A68D00704D495
:1052D0009A68324042F001029A60FFF72FFC431BAC
:1052E000022B236802D91A68D10705D51A68D2079C
:1052F000EBD5002002B070BD636D43F01003636511
:10530000A36D012043F00103A36502B070BD40F21C
:105310001802C2F2000242F663511368C0F23E5115
:105320009B09A1FB03239B09013303EB43039B0070
:105330000193019B002BBDD0019B013B0193019B7D
:10534000002BF9D1B6E700BF38B503689D6815F0AA
:10535000040533D190F85030012B04462ED00123A0
:1053600080F85030FFF788FF50BB636D23F4706303
:1053700023F0010343F480736365636DDA0448BF6F
:10538000A36D226852BFA06523F00603A3651C210C
:105390000023116084F85030D3689B0105D5636DFC
:1053A00023F4405343F480536365936823F0004330
:1053B00023F03F0343F00403936038BD022038BD5F
:1053C00084F8505038BD00BFF8B503689D6815F0EB
:1053D00004054AD190F85030012B044645D00123F2
:1053E00080F850300F461646FFF746FF00283ED1A2
:1053F000636DE06C216823F4706323F0010343F4D0
:1054000080736365636D13F480531CBFA36D23F039
:105410000603A36544F62953C0F60003C36244F6AD
:10542000195244F69553C0F60002C0F60003026319
:1054300043631C2200230A6084F850304B6843F019
:1054400010034B60CD6845F0010533463A46CD6008
:10545000403100F06FF92268936823F0004323F095
:105460003F0343F004039360F8BD0220F8BD84F8C5
:105470005050F8BD38B503689A68950702D59B6807
:10548000002038BD9A68D4072CD59A6802F00D0226
:10549000012A044609D0636D43F010036365A36DD0
:1054A00043F00103A365012038BD9A6822F0004251
:1054B00022F03F02032142F002029A601960FFF7D6
:1054C0003DFB23689B68D90705460BD5FFF736FBE4
:1054D000401B0228236802D99A68D207DBD49B6854
:1054E000DB07F3D4002038BD30B590F8503083B0DE
:1054F0000022012B01923FD0012380F85030044656
:105500000D46FFF7B7FF636DE0B923F4885323F02E
:105510000203226843F002036365936823F040436B
:1055200005F0804523F03F032B4343F00043936095
:105530009368002B0EDB636D23F0030343F001033C
:10554000636502E043F010036365002384F8503084
:1055500003B030BD019B01330193019BB3F5912F43
:10556000E6D3636D23F0120343F01003002263655A
:1055700084F850200120EBE7022003B030BD00BFCB
:105580004FF46D42CEF2000210B4D1684FF6FF0422
:105590000002214000F4E0630B4343F0BF6343F497
:1055A00000335DF8044BD360704700BF4FF46D4388
:1055B000CEF2000330B4DB68C3F30223C3F1070566
:1055C000042D03F1040428BF0425062C19D9033B3C
:1055D0004FF0FF349C4022EA04024FF0FF34AC400D
:1055E00021EA04019940002841EA02010CDB00F1A4
:1055F000604000F561400901C9B280F8001330BC79
:10560000704700221346E8E74EF6FC4300F00F0017
:10561000CEF2000309010344C9B2197630BC7047C9
:1056200000280ADB4FF4614200F01F01CEF20002B5
:10563000400901238B4042F820307047002866D093
:10564000034640F207420068C4F202029042F0B4FE
:105650004CD94FF6F831CBF6FD714CF6CD420144F2
:10566000CCF6CC42A2FB012109094FF480648900E9
:10567000C4F20204D3E90252D3E904762A433A433E
:10568000022783F825709F691C6432433A43DF691F
:10569000066859643A431F6A26F4FF463A4326F0E7
:1056A00070063243B5F5804F026016D00022C4F276
:1056B000020294422DD04FF49562C4F2020201F02E
:1056C0001C0110680F248C4020EA04001060586808
:1056D000146800FA01F12143116000200122D8630F
:1056E00083F8240083F82520F0BC70474FF6F8714A
:1056F000CBF6FD714CF6CD420144CCF6CC42A2FB78
:105700000121090900248900C4F20204B2E7012042
:105710007047A822C4F2020201F01C0114680F2590
:105720008D4024EA050414605868146888402043BA
:105730001060D2E7F0B490F82440012C3DD090F8EE
:1057400025400126B442E5B280F8246005D000234C
:1057500080F82430F0BC022070470468D0F840C0C4
:105760000227002680F82570C663476C266807F07C
:105770001C0726F001062660BD408668CCF8045060
:105780006360036B102E0BBFA260A160E160E2605A
:1057900053B1236843F00E032360236843F00103F1
:1057A00023600020F0BC7047236823F004032360CB
:1057B000236843F00A032360EFE70220F0BC704740
:1057C00090F82520022A034606D004210022C16356
:1057D00080F82420012070470168426C086820F09E
:1057E0000E0030B41D6C08600868012420F0010030
:1057F00002F01C02086004FA02F200216A6083F8D9
:10580000254083F82410084630BC704790F82520C6
:10581000022A03D00422C263012070470168426C4F
:1058200070B50C68066C856B24F00E040C600C6877
:1058300024F001040C6002F01C02012101FA02F2C2
:105840000024726080F8251080F8244015B1A84724
:10585000204670BD284670BD70B4D0E910630422A4
:105860003168056803F01C039A400A422C680ED088
:1058700014F0040F0BD02B689B0603D42B6823F085
:1058800004032B60036B7260CBB170BC184702221B
:105890009A400A4215D014F0020F12D02B689906D4
:1058A00006D42B68012123F00A032B6080F8251011
:1058B000C36A7260002280F82420002BE5D170BCFE
:1058C000704708229A400A42F9D02207F7D52A6881
:1058D000416B22F00E022A60012202FA03F3002437
:1058E0007360C26380F8244080F825200029E6D048
:1058F00070BC0847C06B70472DE9F84F40F2240890
:10590000C2F2000898F80060012E7CD09B4601236B
:1059100082460D46144688F80030FFF70FF94FF421
:1059200000560746C4F202064CF24F3904E0FFF776
:1059300005F9C01B48455FD83369D903F7D43769E7
:105940004CF2FA33C0F202031F4040F08780336903
:10595000DA0748BF01234FF4005248BF3361C4F255
:1059600002020023C8F80430136813F480634ED099
:105970001368022123F48063136088F81C10BAF1C5
:10598000000F49D14FF40053C4F202035A6942F0A8
:1059900001025A612C60BFF36F8F0127C5F804B074
:1059A000FFF7CCF84FF400540546C4F202044CF261
:1059B0004F3604E0FFF7C2F8401BB0424CD82369D1
:1059C000DB03F7D423694CF2FA32C0F2020213402F
:1059D0004CD1256915F0010502D001221D46226136
:1059E0003FB14FF40053C4F202035A6922EA070799
:1059F0005F6100F06FF900E00325002388F80030B4
:105A00002846BDE8F88F02252846BDE8F88F88F8BB
:105A10001C30BAF1000FB5D00AF1FF33012BBFD80B
:105A20004FF40053C4F202032246596941F4802125
:105A30005961EFF3108072B62D1B04F58071136865
:105A4000535104328A42FAD180F31088BAF1020F1E
:105A500008BF4FF48027A3E70325C1E7D8F8043037
:105A60003B43C8F8043001253761C6E7D8F8042065
:105A70001A43C8F8042001252361B1E74FF400530D
:105A8000C4F202035A69002A01DB0020704740F289
:105A9000231148F6AB12C4F26751CCF6EF5299606D
:105AA0009A605869C00F70474FF40053C4F2020364
:105AB00000205A6942F000425A61704740F22403C4
:105AC000C2F200035868704770B50446FFF736F815
:105AD0004FF400560546C4F20206601C19D14FF47B
