:020000040800F2
:100000000000012049500008054F0008094F000872
:100010000D4F0008114F0008154F000800000000A8
:10002000000000000000000000000000D1AC00084B
:10003000194F00080000000071AD0008D98B0008BE
:1000400099500008995000089950000899500008EC
:1000500099500008995000089950000899500008DC
:100060009950000899500008995000081D4F000849
:1000700099500008995000089950000899500008BC
:1000800099500008995000089950000899500008AC
:10009000995000089950000899500008995000089C
:1000A000995000089950000899500008995000088C
:1000B000995000080000000000000000995000085E
:1000C000995000089950000899500008995000086C
:1000D00099500008294F00089950000899500008CD
:1000E000995000089950000800000000000000002E
:1000F0000000000000000000000000000000000000
:10010000000000009950000800000000995000080D
:1001100000000000000000004D4F0008995000084A
:10012000995000089950000899500008995000080B
:1001300099500008000000000000000000000000CE
:1001400099500008995000089950000800000000DC
:10015000594F0008654F0008995000089950000851
:1001600099500008995000089950000800000000BC
:10017000995000089950000800000000000000009D
:0C018000995000089950000899500008A0
:1001900010B5054C237833B9044B13B10448AFF3C1
:1001A00000800123237010BD200200200000000009
:1001B000340B010808B5034B1BB103490348AFF3E7
:1001C000008008BD0000000024020020340B01085C
:1001D000034613F8012B002AFBD1181A0138704787
:1001E00001F0FF01102A2BDB10F0070F08D010F8E8
:1001F000013B013A8B422DD010F0070F42B3F6D1EC
:10020000F0B441EA012141EA014122F007047FF004
:1002100000070023F0E80256083C85EA010586EA5B
:10022000010685FA47F5A3FA87F586FA47F6A5FA97
:1002300087F68EB9EED1F0BC01F0FF0102F00702A3
:1002400032B110F8013B013A83EA010313B1F8D14E
:100250000020704701387047002D06BF354603382F
:10026000073815F0010F07D1013015F4807F02BF68
:10027000013015F4C03F0130F0BC0138704700BFB9
:1002800081F0004102E000BF83F0004330B54FEA47
:1002900041044FEA430594EA050F08BF90EA020FB4
:1002A0001FBF54EA000C55EA020C7FEA645C7FEA47
:1002B000655C00F0E2804FEA5454D4EB5555B8BF6A
:1002C0006D420CDD2C4480EA020281EA030382EADB
:1002D000000083EA010180EA020281EA0303362D6D
:1002E00088BF30BD11F0004F4FEA01314FF4801C40
:1002F0004CEA113102D0404261EB410113F0004F52
:100300004FEA03334CEA133302D0524263EB430308
:1003100094EA050F00F0A780A4F10104D5F1200EA6
:100320000DDB02FA0EFC22FA05F2801841F1000101
:1003300003FA0EF2801843FA05F359410EE0A5F1D5
:1003400020050EF1200E012A03FA0EFC28BF4CF006
:10035000020C43FA05F3C01851EBE37101F00045BC
:1003600007D54FF0000EDCF1000C7EEB00006EEBC9
:100370000101B1F5801F1BD3B1F5001F0CD3490853
:100380005FEA30004FEA3C0C04F101044FEA4452AA
:1003900012F5800F80F09A80BCF1004F08BF5FEA31
:1003A000500C50F1000041EB045141EA050130BD11
:1003B0005FEA4C0C404141EB0101013C28BFB1F523
:1003C000801FE9D291F0000F04BF01460020B1FA6E
:1003D00081F308BF2033A3F10B03B3F120020CDA41
:1003E0000C3208DD02F1140CC2F10C0201FA0CF01F
:1003F00021FA02F10CE002F11402D8BFC2F1200C84
:1004000001FA02F120FA0CFCDCBF41EA0C01904039
:10041000E41AA2BF01EB0451294330BD6FEA040482
:100420001F3C1CDA0C340EDC04F11404C4F120026D
:1004300020FA04F001FA02F340EA030021FA04F37F
:1004400045EA030130BDC4F10C04C4F1200220FAD6
:1004500002F001FA04F340EA0300294630BD21FA14
:1004600004F0294630BD94F0000F83F4801306BFDA
:1004700081F480110134013D4EE77FEA645C18BFCE
:100480007FEA655C29D094EA050F08BF90EA020F65
:1004900005D054EA000C04BF1946104630BD91EA5D
:1004A000030F1EBF0021002030BD5FEA545C05D160
:1004B0004000494128BF41F0004130BD14F580049F
:1004C0003CBF01F5801130BD01F0004545F0FE4113
:1004D00041F470014FF0000030BD7FEA645C1ABF48
:1004E000194610467FEA655C1CBF0B46024650EA7F
:1004F000013406BF52EA033591EA030F41F40021AB
:1005000030BD00BF90F0000F04BF0021704730B530
:100510004FF4806404F132044FF000054FF0000105
:1005200050E700BF90F0000F04BF0021704730B5C6
:100530004FF4806404F1320410F0004548BF40429B
:100540004FF000013EE700BF42004FEAE2014FEAF0
:1005500031014FEA02701FBF12F07F4393F07F4FCB
:1005600081F06051704732F07F4208BF704793F0CE
:100570007F4F04BF41F40021704730B54FF46074E1
:1005800001F0004521F000411CE700BF50EA0102E4
:1005900008BF704730B54FF000050AE050EA01028D
:1005A00008BF704730B511F0004502D5404261EBFD
:1005B00041014FF4806404F132045FEA915C3FF43E
:1005C000D8AE4FF003025FEADC0C18BF03325FEADB
:1005D000DC0C18BF033202EBDC02C2F1200300FA8C
:1005E00003FC20FA02F001FA03FE40EA0E0021FAB1
:1005F00002F11444BDE600BF70B54FF0FF0C4CF49F
:10060000E06C1CEA11541DBF1CEA135594EA0C0F50
:1006100095EA0C0F00F0DEF82C4481EA030621EA8B
:100620004C5123EA4C5350EA013518BF52EA0335C6
:1006300041F4801143F4801338D0A0FB02CE4FF078
:100640000005E1FB02E506F00042E0FB03E54FF0A8
:100650000006E1FB03569CF0000F18BF4EF0010EA0
:10066000A4F1FF04B6F5007F64F5407404D25FEA9C
:100670004E0E6D4146EB060642EAC62141EA55514F
:100680004FEAC52040EA5E504FEACE2EB4F1FD0C91
:1006900088BFBCF5E06F1ED8BEF1004F08BF5FEA0F
:1006A000500E50F1000041EB045170BD06F00046C1
:1006B00046EA010140EA020081EA0301B4EB5C046E
:1006C000C2BFD4EB0C0541EA045170BD41F4801166
:1006D0004FF0000E013C00F3AB8014F1360FDEBF8B
:1006E000002001F0004170BDC4F10004203C35DA67
:1006F0000C341BDC04F11404C4F1200500FA05F3EA
:1007000020FA04F001FA05F240EA020001F000428A
:1007100021F0004110EBD37021FA04F642EB060100
:100720005EEA430E08BF20EAD37070BDC4F10C042A
:10073000C4F1200500FA04F320FA05F001FA04F2EE
:1007400040EA020001F0004110EBD37041F10001DA
:100750005EEA430E08BF20EAD37070BDC4F12005E5
:1007600000FA05F24EEA020E20FA04F301FA05F24D
:1007700043EA020321FA04F001F0004121FA04F2F5
:1007800020EA020000EBD3705EEA430E08BF20EAC5
:10079000D37070BD94F0000F0FD101F000464000FF
:1007A00041EB010111F4801F08BF013CF7D041EA81
:1007B000060195F0000F18BF704703F00046520085
:1007C00043EB030313F4801F08BF013DF7D043EA56
:1007D0000603704794EA0C0F0CEA135518BF95EA0C
:1007E0000C0F0CD050EA410618BF52EA4306D1D193
:1007F00081EA030101F000414FF0000070BD50EAB2
:10080000410606BF1046194652EA430619D094EA3B
:100810000C0F02D150EA013613D195EA0C0F05D125
:1008200052EA03361CBF104619460AD181EA030179
:1008300001F0004141F0FE4141F470014FF0000031
:1008400070BD41F0FE4141F4780170BD70B54FF0CC
:10085000FF0C4CF4E06C1CEA11541DBF1CEA13554C
:1008600094EA0C0F95EA0C0F00F0A7F8A4EB05042E
:1008700081EA030E52EA03354FEA013100F0888025
:100880004FEA03334FF0805545EA131343EA1263EE
:100890004FEA022245EA111545EA10654FEA0026A3
:1008A0000EF000419D4208BF964244F1FD0404F55C
:1008B000407402D25B084FEA3202B61A65EB0305B8
:1008C0005B084FEA32024FF480104FF4002CB6EB75
:1008D000020E75EB030E22BFB61A754640EA0C00F5
:1008E0005B084FEA3202B6EB020E75EB030E22BF35
:1008F000B61A754640EA5C005B084FEA3202B6EB76
:10090000020E75EB030E22BFB61A754640EA9C0034
:100910005B084FEA3202B6EB020E75EB030E22BF04
:10092000B61A754640EADC0055EA060E18D04FEAC2
:10093000051545EA16754FEA06164FEAC30343EA62
:1009400052734FEAC2025FEA1C1CC0D111F4801F2F
:100950000BD141EA00014FF000004FF0004CB6E728
:1009600011F4801F04BF01430020B4F1FD0C88BFC7
:10097000BCF5E06F3FF6AFAEB5EB030C04BFB6EBD2
:10098000020C5FEA500C50F1000041EB045170BDC5
:100990000EF0004E4EEA113114EB5C04C2BFD4EBF2
:1009A0000C0541EA045170BD41F480114FF0000E76
:1009B000013C90E645EA060E8DE60CEA135594EAF2
:1009C0000C0F08BF95EA0C0F3FF43BAF94EA0C0FF5
:1009D0000AD150EA01347FF434AF95EA0C0F7FF46A
:1009E00025AF104619462CE795EA0C0F06D152EABE
:1009F00003353FF4FDAE1046194622E750EA4106A2
:100A000018BF52EA43067FF4C5AE50EA41047FF4B2
:100A10000DAF52EA43057FF4EBAE12E74FF0FF3C17
:100A200006E000BF4FF0010C02E000BF4FF0010CE8
:100A30004DF804CD4FEA410C7FEA6C5C4FEA430C61
:100A400018BF7FEA6C5C1BD001B050EA410C0CBFB0
:100A500052EA430C91EA030F02BF90EA020F002012
:100A6000704710F1000F91EA030F58BF994208BF79
:100A700090422CBFD8176FEAE37040F00100704736
:100A80004FEA410C7FEA6C5C02D150EA013C07D18D
:100A90004FEA430C7FEA6C5CD6D152EA033CD3D0D8
:100AA0005DF8040B704700BF8446104662468C46D2
:100AB0001946634600E000BF01B5FFF7B7FF002805
:100AC00048BF10F1000F01BD4DF808EDFFF7F4FF2E
:100AD0000CBF012000205DF808FB00BF4DF808EDB9
:100AE000FFF7EAFF34BF012000205DF808FB00BFDC
:100AF0004DF808EDFFF7E0FF94BF012000205DF8FE
:100B000008FB00BF4DF808EDFFF7CEFF94BF0120B2
:100B100000205DF808FB00BF4DF808EDFFF7C4FFAB
:100B200034BF012000205DF808FB00BF4FEA410CF4
:100B30007FEA6C5C02D150EA013C0AD14FEA430CD7
:100B40007FEA6C5C02D152EA033C02D14FF0000014
:100B500070474FF0010070474FEA410212F5001252
:100B600015D211D56FF47873B3EB625212D94FEAF4
:100B7000C12343F0004343EA505311F0004F23FADE
:100B800002F018BF404270474FF00000704750EA33
:100B9000013005D111F0004008BF6FF000407047F0
:100BA0004FF00000704700BF4A0011D212F500124A
:100BB00011D20DD56FF47873B3EB62520ED44FEAB5
:100BC000C12343F0004343EA505323FA02F0704735
:100BD0004FF00000704750EA013002D14FF0FF3073
:100BE00070474FF0000070474FEA4102B2F1E04316
:100BF00024BFB3F5001CDCF1FE5C0DD901F0004C04
:100C00004FEAC0024CEA5070B2F1004F40EB830053
:100C100008BF20F00100704711F0804F21D113F17F
:100C20003872BCBF01F00040704741F480114FEAB8
:100C30005252C2F11802C2F1200C10FA0CF320FA41
:100C400002F018BF40F001004FEAC1234FEAD3235E
:100C500003FA0CFC40EA0C0023FA02F34FEA4303C8
:100C6000CCE77FEA625307D150EA01331EBF4FF051
:100C7000FE4040F44000704701F0004040F0FE406C
:100C800040F40000704700BF53B94AB9002908BFBB
:100C900000281CBF4FF0FF314FF0FF3000F0A4B927
:100CA000ADF1080C6DE904CE00F03CF8DDF804E08D
:100CB000DDE9022304B0704738B500220023044662
:100CC0000D46FFF70BFF28B920462946BDE83840FE
:100CD00000F00AB8204605F1004100F005F8404256
:100CE00061EB410138BD00BFD0B50C4B0022064678
:100CF0000F46FFF781FCFFF757FF0446FFF702FCA2
:100D0000074B0022FFF778FC02460B463046394677
:100D1000FFF7BAFAFFF748FF2146D0BD0000F03DCB
:100D20000000F0412DE9F047089D04468C46002B59
:100D300040F083808A42174647D9B2FA82F242B124
:100D4000C2F1200024FA00F09140974040EA010CE3
:100D500094404FEA1748230CBCFBF8F61FFA87FEB5
:100D600008FB16C143EA014306FB0EF1994209D97B
:100D7000FB1806F1FF3080F01981994240F216818C
:100D8000023E3B445B1AA4B2B3FBF8F008FB1033FD
:100D900044EA034400FB0EFEA64509D93C1900F1C4
:100DA000FF3380F00581A64540F2028102383C44C1
:100DB00040EA0640A4EB0E0400261DB1D4400023F7
:100DC000C5E900433146BDE8F08702B9FFDEB2FA5B
:100DD00082F2002A50D1CB1B4FEA174E1FFA87F838
:100DE0000126B3FBFEFC210C0EFB1C3341EA034140
:100DF00008FB0CF38B4207D979180CF1FF3002D2B3
:100E00008B4200F2E9808446C91AA3B2B1FBFEF01E
:100E10000EFB101143EA014408FB00F8A04507D976
:100E20003C1900F1FF3302D2A04500F2D9801846E8
:100E3000A4EB080440EA0C40BFE78B4209D9002D1F
:100E400000F0B1800026C5E9000130463146BDE81A
:100E5000F087B3FA83F6002E4AD18B4202D3824246
:100E600000F2B880841A61EB030101208C46002D4A
:100E7000A8D0C5E9004CA5E7C2F1200320FA03F68B
:100E8000974001FA02F04FEA174ED9403043030C65
:100E9000B1FBFEF61FFA87F80EFB161143EA014379
:100EA00006FB08F1994204FA02F409D9FB1806F18D
:100EB000FF3C80F08D80994240F28A80023E3B44A4
:100EC0005B1A81B2B3FBFEF00EFB103341EA034123
:100ED00000FB08F38B4207D9791800F1FF3C73D26D
:100EE0008B4271D902383944CB1A40EA064678E77A
:100EF000C6F1200C03FA06F422FA0CF31C4320FA84
:100F00000CF701FA06F34FEA144E21FA0CF11F43D5
:100F10003B0CB1FBFEF91FFA84F80EFB191143EAF2
:100F2000014109FB08FA8A4502FA06F200FA06F3C3
:100F300008D9611809F1FF3048D28A4546D9A9F18C
:100F400002092144A1EB0A01BFB2B1FBFEF00EFB86
:100F5000101147EA014700FB08F8B84507D9E7191F
:100F600000F1FF312ED2B8452CD90238274440EA8F
:100F70000940A7EB0807A0FB02894F45C646494632
:100F80001AD317D05DB1B3EB0E0267EB010707FA76
:100F90000CFCF2404CEA0202F740C5E900270026AB
:100FA0003146BDE8F0872E4628460BE70646E9E6BF
:100FB0001846FDE64345E5D2B8EB020E69EB0401A5
:100FC0000138DFE70846D2E760468DE78146B9E79A
:100FD000664675E730464AE7ACF1020C394413E740
:100FE00002383C4424E700BF704700BF704700BF91
:100FF00000207047704700BF40F26423F0B5C2F292
:10100000000345F69C15C2F200051B68EA6803F26E
:1010100093139A429BB001D2F02A4AD846F2F811B3
:101020000024C2F200014C226026002707A80AF023
:1010300036FACDE900672246694607A80026082748
:10104000CDE90267049406F03BFC214607A806F0B0
:101050005FFB012240214FF0904005F047FA46F235
:10106000F8102146C2F2000006F0CAFB6A6940F29D
:101070004023C2F20003462A1C600DDC2246802178
:101080004FF0904005F032FA40F24C23C2F20003D8
:1010900001221A601BB0F0BD012280214FF0904068
:1010A00005F024FA40F24C23C2F200031C601BB08E
:1010B000F0BD012280214FF0904005F017FAAA6997
:1010C00040F24C23C2F200030024462A1C6031DCAB
:1010D00040F24024C2F200042568002DDAD12A46ED
:1010E00040214FF0904005F001FA46F2F811C2F2AB
:1010F00000014C2260264FF4FA7707A80AF0CFF9D6
:10110000CDE900672A46694607A800260827CDE9E9
:101110000267049506F0D4FB294607A806F0F8FA02
:1011200046F2F8102946C2F2000006F0F1FA012357
:101130002360AFE746F2F811C2F200014C226026AC
:10114000002707A80AF0ABF9CDE9006722466946F7
:1011500007A800260827CDE90267049406F0B0FB33
:10116000214607A806F0D4FA012240214FF0904012
:1011700005F0BCF946F2F8102146C2F2000006F074
:101180003FFB40F24023C2F200031C6082E700BF35
:1011900038B545F69813C2F200031B780F2B00F206
:1011A0008680DFE803F00F7148675E54263171488E
:1011B000675E547A840840F24423C2F200031B683D
:1011C000002B40D045F69C13C2F2000340F24C24A1
:1011D0005B69462BC2F2000421DD012280214FF021
:1011E000904005F083F900232360BDE8384001F00A
:1011F000A1B945F6A043C2F2000345F260429B6DDF
:10120000934275D8FFF7F8FE45F69C1540F24C2442
:10121000C2F20005C2F200046B69462BDDDC00223D
:1012200080214FF0904005F061F901232360BDE873
:10123000384001F07FB945F6A043C2F200039B6D30
:10124000B3F5E15FBED8BDE83840FFF7D5BE45F63F
:10125000A043C2F2000344F250629B6D9342F2D964
:10126000B0E745F6A043C2F200039B6DB3F5615FA2
:10127000E9D9A7E745F6A043C2F2000342F63022BF
:101280009B6D9342DFD99DE745F6A043C2F2000370
:101290009B6DB3F5616FD6D994E745F6A043C2F2D2
:1012A000000345F260429B6D9342CCD98AE745F634
:1012B0009C13C2F200035B69462B0CDD01228021E6
:1012C0004FF0904005F012F940F24C23C2F20003B7
:1012D00000221A6038BD002280214FF0904005F0B6
:1012E00005F940F24C23C2F2000301221A6038BD16
:1012F00045F69C15C2F2000540F24C246B69462B62
:101300000CDD012280214FF09040C2F2000405F074
:10131000EDF80023236001F00DF97DE70022802124
:101320004FF09040C2F2000405F0E0F80123236082
:10133000F1E700BF2DE9F04F46F25834C2F2000445
:101340009DB02368102B00F29B80012B00F2C4801B
:10135000002B00F0D78046F2D413C2F2000346F20D
:10136000F8110025012608A8C2F200014C224FF016
:1013700060084FF000091E600AF091F8CDE900897D
:101380002A46694608A84FF000084FF00809CDE941
:101390000289049506F094FA294608A806F0B8F9DF
:1013A000324640214FF0904005F0A0F846F2F81088
:1013B0002946C2F2000006F023FA40F24023C2F2AE
:1013C0000003324680214FF090401D6005F08EF8FA
:1013D00045F63423C2F2000340F24C27DA6AC2F227
:1013E000000746F20C3196194FF0020808A8C2F225
:1013F00000014C22DE623D60C4F8008000260AF045
:101400004EF800272A46694608A84FF0600A4FF0B8
:10141000C80BCDE900ABCDE90267CDE904670695BD
:1014200006F04EFA294608A806F072F946F20C308A
:101430002946C2F2000006F06BF945F6D0544FF48D
:10144000806008A94FF400720023C2F20004C4F6C1
:101450000000CDE90823CDE90A850C9504F03CFF96
:101460002046FEF7B5FE40F66832C0F6010203469C
:101470000119106A928C18518A801DB0BDE8F08F56
:101480005A2B77D95B2B40F0D28046F2D410C2F2AF
:10149000000045F6C01240F2080345F6D055002181
:1014A000C2F20005C2F20002C2F20003016040F67F
:1014B000C41628462160D1641E60FEF789FE40F6FE
:1014C0006832C0F6010203464119906B928F585161
:1014D0008A801DB0BDE8F08F45F6D055C2F20005F8
:1014E000013328462360FEF773FE40F66832C0F6EB
:1014F000010203464119906A928D58518A801DB0AD
:10150000BDE8F08F45F69C13C2F200031B68E62B82
:1015100040F24823C2F200031B6802D9002B00F0FE
:10152000AF80012B00F0C18040F20801C2F200013F
:1015300040F20003C2F2000308681A68002840F075
:10154000D980002A40F0AE800123236045F6D054B4
:10155000C2F200042046FEF73BFE40F66832C0F6B9
:101560000102034601199069928B18518A801DB0BF
:10157000BDE8F08F45F69C13C2F200035B69462B71
:1015800071DD012280214FF0904004F0AFFF40F266
:101590004C23C2F2000300221A60236846F20C3189
:1015A0000025013308A8C2F200014C226026002762
:1015B000236009F074FF2A46CDE9006769460026DA
:1015C000002708A8CDE90267CDE90467069506F073
:1015D00077F9294608A806F09BF846F20C30294610
:1015E000C2F2000006F00CF945F6D0544FF48060CA
:1015F00008A9C2F200044FF400720023C4F60000F0
:10160000CDE90823CDE90A550C9504F065FE204686
:10161000FEF7DEFD40F66832C0F60102034601190E
:10162000106B928E18518A801DB0BDE8F08F46F283
:10163000D41345F6D055C2F20005C2F200030022D1
:1016400028461A602260FEF7C3FD40F66832C0F6F5
:10165000010203464119106CB2F8442058518A80A7
:101660001DB0BDE8F08F002280214FF0904004F0C3
:101670003DFF40F24C23C2F2000301221A608CE7C6
:1016800040F20003C2F2000340F20802C2F200027C
:10169000196840F6C310106000293FF457AF0139B4
:1016A000196053E7013A1A604EE740F20003C2F2B4
:1016B00000031A687AB945F63421C2F2000140F2FB
:1016C00008008D6EC2F2000001358D664FF4507136
:1016D0000260196038E740F20801C2F200010868B0
:1016E0000028DFD001380860013A1A6000287FF432
:1016F0002DAF29E701380860002AF5D100287FF4D2
:1017000025AF21E72DE9F04346F25834C2F2000438
:101710009DB02368252B00F20382DFE813F014014B
:10172000A900260026002600260026002600260006
:101730002600260026002600260026002600260079
:101740002600260026002600260026002600260069
:10175000260026003D003D003D003D003D003D00CF
:101760003D003D003D003D00480145F6D055C2F228
:101770000005013328462360FEF72AFD40F6683253
:10178000C0F6010203464119906DB2F85C20585131
:101790008A801DB0BDE8F08345F69C16C2F20006B3
:1017A0007369462B40F36381012280214FF0904002
:1017B00004F09CFE40F24C23C2F2000300221A60A7
:1017C00000F0B8FE236846F20C310025013308A86A
:1017D000C2F200014C224FF060084FF00009236074
:1017E00009F05DFE2A46CDE9008969464FF0000800
:1017F0004FF0000908A8CDE90289CDE904890695D2
:1018000006F05EF8294608A805F082FF46F20C3083
:101810002946C2F2000005F0F3FF4FF4806008A9EA
:101820004FF400720023C4F60000CDE90823CDE98F
:101830000A550C9504F050FD326844F274039A4244
:1018400084BF0123236045F6D054C2F20004204631
:10185000FEF7BEFC40F66832C0F6010203460119ED
:10186000106EB2F8642018518A801DB0BDE8F08374
:1018700046F2D413C2F20003012280214FF09040BF
:101880001A6004F033FE45F6C012C2F2000240F2C4
:101890004C23C2F20003D26B00201121186021609A
:1018A0000AB10223236045F63423C2F2000346F254
:1018B0000C315A6E0024551C08A8C2F200014C22BB
:1018C0006026C8275D6609F0EAFD2246CDE900677B
:1018D00069460026002708A8CDE90267CDE904671C
:1018E000069405F0EDFF214608A805F011FF46F229
:1018F0000C302146C2F2000005F00AFF45F6D05533
:101900004FF4806008A90223C2F20005C4F600006B
:101910004FF4007600270A93CDE90B44CDE9086720
:1019200004F0DAFC2846FEF753FC40F66832C0F6B5
:10193000010203464119106DB2F8542058518A80B3
:101940001DB0BDE8F08345F69C13C2F200036FF4AE
:1019500087711B6843F2AC325918914250D840F25B
:10196000080345F6C011C2F20003C2F200012322AF
:1019700000201A60C86440F24821C2F200010968E0
:10198000012900F08C8040F24C20C2F2000040F2AD
:1019900000010568C2F200010868002D40F0AA802D
:1019A00000284FD001380860002A4BD148E045F6A6
:1019B000C012C2F2000246F2D41640F2080145F607
:1019C000D0550023C2F20005C2F20001C2F20006A7
:1019D000D363D364284640F6C412236033600A60A0
:1019E000FEF7F6FB40F66832C0F6010203464119E5
:1019F000906EB2F86C2058518A801DB0BDE8F0831B
:101A000044F27402934261D940F24821C2F20001CB
:101A100040F20803086845F6C012C2F20002012530
:101A2000C2F200030021A8421960D164D56336D008
:101A300040F20003C2F200031A680AB1013A1A60C8
:101A40000123236045F6D054C2F200042046FEF77D
:101A5000BFFB40F66832C0F6010203460119906CE4
:101A6000B2F84C2018518A801DB0BDE8F0830022E6
:101A700080214FF0904004F039FD40F24C23C2F237
:101A8000000301221A609BE640F24823C2F20003E1
:101A90001B68012B40F20803C2F2000332D140F26E
:101AA0004C22C2F20002126862B340F20001C2F29C
:101AB00000010A6852BB45F63420C2F200001A60E9
:101AC000836E0133836640F241306BE7B3F5877F65
:101AD000DAD845F6C011C2F20001CB6C002BD3D18D
:101AE00040F20803C2F2000340F2E24201201A6011
:101AF000C86440E7013A1A6000287FF453AF002A17
:101B0000A0D19DE71A68002A92D03CE71D6815B95C
:101B1000013A0A6094E7013D10461D602A4641E7FC
:101B200046F2D41345F6D055C2F20003C2F20005C6
:101B3000002228461A602260FEF74AFB40F668320F
:101B4000C0F6010203464119106FB2F874205851D3
:101B50008A801EE670B545F6BC15C2F200054FF44A
:101B600080602C6864B3C4F6000000224FF400418A
:101B7000013C2C6004F0BAFC4FF48060C4F6000015
:101B800000224FF4804104F0B1FC4FF48060C4F6B1
:101B9000000000224FF4005104F0A8FC4FF48060D4
:101BA000C4F6000000224FF4805104F09FFC45F67B
:101BB000C013C2F200035B6A002B40F0888070BD46
:101BC000C4F6000022464FF4004104F08FFC4FF4AD
:101BD00080602246C4F600004FF4804104F086FC89
:101BE0004FF480602246C4F600004FF4005145F6E1
:101BF0009C1604F07BFCC2F200064FF48060224683
:101C0000C4F600004FF4805104F070FCB369462B19
:101C10003DDD4FF48060C4F6000001224FF4004126
:101C200004F064FC7369462B34DC4FF48060C4F626
:101C3000000001224FF4005104F058FC01232B60F6
:101C400045F6C013C2F200035A6A002A33D11A6A59
:101C5000002A47D11A6972BBDA682AB340F24C23D2
:101C6000C2F200034FF480601B68C4F6000001223A
:101C70004FF4804133B140F24023C2F200031B68AD
:101C8000002B54D104F032FC03232B6070BD736928
:101C9000462BD5DD4FF48060C4F6000001224FF4DE
:101CA000804104F023FCC0E79A68002A44D1D3E9BC
:101CB00000210A432BD04FF48060C4F600000122BB
:101CC0004FF4004104F012FC01232B6070BD4FF46F
:101CD0008060BDE87040C4F6000001224FF48041EE
:101CE00004F004BC4FF48060C4F6000001224FF4FD
:101CF000004104F0FBFB4FF48060C4F600000122B9
:101D00004FF4804104F0F2FB01232B6070BDDB69CE
:101D1000002B3FF454AF4FF48060C4F60000012262
:101D20004FF4804104F0E2FB09232B6070BD04F006
:101D3000DDFB01232B6070BD4FF48060C4F6000012
:101D400001224FF4004104F0D1FB09232B6070BD48
:101D500080B483B000AF00237B6010E07A6845F662
:101D60007843C2F200031A444AF20003C0F60303A8
:101D700079680B441B7813707B6801337B607B6848
:101D8000272BEBD945F67843C2F200031B68B3F169
:101D9000FF3F10D100237B600AE07A6845F6784364
:101DA000C2F20003134400221A707B6801337B6087
:101DB0007B68272BF1D900BF0C37BD465DF8047B4B
:101DC000704700BF80B588B000AF0023FB610023DF
:101DD000BB6145F63423C2F200031B685A1C45F66A
:101DE0003423C2F200031A6000237B6001233B61AD
:101DF0007423FB600123BB6004F00EF94FF4005321
:101E0000C4F20203B3221A6107F114023B1D11460A
:101E1000184604F061F920E0BA694AF20003C0F6FE
:101E2000030313441946FB69DA0045F67843C2F20E
:101E300000031344D3E90023002004F02BF80346E9
:101E4000002B06D1BB690833BB61FB690133FB6121
:101E500003E004F001F9034605E0FB69042BDBD93C
:101E600004F0F0F8002318462037BD4680BD00BFBF
:101E700080B584B000AF0023BB6000237B6046F2D6
:101E8000D013C2F2000300221A600023FB603BE083
:101E900004233B6010E03B68013B3B60BB681A02D7
:101EA00040F20003C0F60203F968C90219443B6816
:101EB0000B441B781343BB603B68002BEBD1BB6822
:101EC000B3F1FF3F01D10023BB60BA687B689A423F
:101ED0000FD946F2D013C2F20003FA681A60BB6849
:101EE0007B604FF400514FF48060C4F6000004F0B2
:101EF00003FB4FF480414FF48060C4F6000004F00F
:101F0000FBFAFB680133FB60FB68332BC0D900226E
:101F10004FF480414FF48060C4F6000004F0E6FA0C
:101F200000224FF400514FF48060C4F6000004F02A
:101F3000DDFA0023FB6017E046F2D013C2F2000383
:101F40001968FA6846F24423C2F200031A4440F2C8
:101F50000003C0F60203C9021944FB680B441B7856
:101F60001370FB680133FB60FB68C72BE4D946F2B2
:101F70004423C2F20003DB69B3F1FF3F19D1002310
:101F8000FB6012E0FA6845F63423C2F20003134402
:101F900000221A70FA6846F24423C2F20003134486
:101FA00000221A70FB680133FB60FB68C72BE9D97C
:101FB0000DE045F63422C2F2000246F24423C2F29A
:101FC000000310461946C8231A4609F068FA00BFF4
:101FD0001037BD4680BD00BF80B588B000AF00237C
:101FE000FB610023BB6146F24422C2F2000245F6C7
:101FF0003423C2F2000310461946C8231A4609F0DA
:102000004EFA46F2D013C2F200031B68322B0BD8F3
:1020100046F2D013C2F200031B685A1C46F2D013DA
:10202000C2F200031A6005E046F2D013C2F20003C8
:1020300000221A6045F63423C2F200031B685A1CC2
:1020400045F63423C2F200031A6000237B600123AB
:102050003B6146F2D013C2F200031B684033FB60C1
:102060000123BB6003F0D8FF4FF40053C4F2020316
:10207000B3221A6107F114023B1D1146184604F001
:102080002BF803F0DFFF03F0C7FF4FF40053C4F257
:102090000203B3221A6127E046F2D013C2F2000312
:1020A0001B68DA02BB691A4440F20003C0F602035F
:1020B00013441946FB69DA0046F24423C2F20003D6
:1020C0001344D3E90023002003F0E4FE0346002B71
:1020D00006D1BB690833BB61FB690133FB6103E0D7
:1020E00003F0BAFF034605E0FB69182BD4D903F0CF
:1020F000A9FF002318462037BD4680BD30B545F600
:10210000CC55C2F2000587B0286806F059FE45F6A6
:102110003420C8220021C2F2000009F0CEF946F2B4
:10212000D01446F24420C8220021C2F20004C2F2B8
:10213000000009F0C2F900234022002001212360A1
:102140000123CDE90423CDE9020103F065FF4FF43B
:102150000053C4F20203B3221A612368322B0BD856
:1021600001A902A803F0B8FF23685A1C322A03F120
:10217000410322600493F3D903F064FF002328682D
:102180002360642106F004FE07B030BD45F6C0139D
:10219000C2F2000345F69C111A68F0B4C2F20001C5
:1021A000002A40F0E880C8684C685A688AB145F651
:1021B000A042C2F2000241F259775568CDF2B7173A
:1021C00000FB04F6A7FB067605EB563500265560A6
:1021D0005E609A68002A40F0B9800D68DA688AB1BA
:1021E00045F6A042C2F2000241F2597CD668CDF217
:1021F000B71C00FB05F7ACFB07C706EB57360027FB
:10220000D660DF601A698AB145F6A042C2F20002C8
:1022100041F2597C1669CDF2B71C00FB04F7ACFB08
:1022200007C706EB5736002716611F61DA6942B10E
:1022300045F6A042C2F200020027D669DF610136EE
:10224000D6611A6A42B145F6A042C2F200020027E6
:10225000166A1F62013616629A6942B145F6A042BB
:10226000C2F20002002796699F61013696619A6D5D
:1022700042B145F6A042C2F200020027966D9F656A
:10228000013696651A6C002A54D145F63422C2F202
:102290000002DE6D46B145F6A046C2F200060027F8
:1022A000DF65F76D2744F7651E6E46B145F6A0461B
:1022B000C2F2000600271F66376E2F4437665E6A3B
:1022C00046B145F6A046C2F2000600275F62736A77
:1022D0005F1C77624B69566BB34203D3966B5363B3
:1022E000013696638B69D16B8B4203D3116CD36338
:1022F00001311164536CAB4203D8936C55640133C4
:102300009364D36CA34203D8136DD4640133136573
:10231000536D834203D8936D506501339365F02864
:1023200006D9D36DF02B3BD8136ED06501331366FD
:10233000F0BC704745F63422C2F200020027D2F802
:10234000A0601F640136C2F8A060A2E745F6A0476E
:10235000C2F200070D688A68BE6841F2597C02FB30
:1023600005F2CDF2B71CACFB02C206EB52320026DE
:10237000BA609E6032E745F6A042C2F20002C86829
:102380004C68156841F2597704FB00F6CDF2B71797
:10239000A7FB067605EB5635002615601E6004E7A0
:1023A0008342C5D3136ED06501331366C0E700BF07
:1023B00045F6A0422DE9F041C2F20002D2E9000642
:1023C00045F698154BF2C531C9F2A2119468C2F2D4
:1023D000000545F63423C2F20003A1FB0070A1FB07
:1023E000044E2F78C00AD2E9034558609868A1FBD3
:1023F0000668A1FB044CA1FB054600EBD8249C60B9
:10240000DC689569986904EBDE242844DC601C696B
:102410009861D06D04EBDC24A1FB00501C615D6968
:10242000D3F8944005EBD62504EBD024062F5D614C
:10243000C3F894404FEAD0202BD8146EDE6FD3F847
:10244000B450A1FB0441D3F8B04006EBD1260444BC
:1024500005EBD121C3E92C41DE67D3F8C010DD695B
:10246000D7691C6A166A506A3D4408443444002106
:10247000C3E90754C2E91711C2E90011C2E9021108
:10248000C2E90711C3F8C000916111615162BDE852
:10249000F081FC1F062C146E0FD8A1FB0441DE6FE7
:1024A000D3F8BC50D3F8B84006EBD126044405EB72
:1024B000D121C3E92E41DE67CFE70E2FEDD00F2FDC
:1024C000EBD0D86FA1FB044100EBD120D867C4E763
:1024D00070B54FF48066C4F600060121304603F063
:1024E000FFFF45F698144FF40065C2F20004C4F6ED
:1024F0000005034610212846237003F0F1FF2278DF
:10250000034602EB430302213046237003F0E8FF49
:102510002278034602EB830328462021237003F030
:10252000DFFF237803EBC003DB4303F00F032370CB
:1025300070BD00BF45F69C13F0B5C2F200039BB01E
:102540009B69462B33DC40F24024C2F2000425682C
:102550000DB11BB0F0BD2A4640214FF0904003F072
:10256000C5FF46F2F81107A8C2F200014C2260260E
:102570004FF4FA7708F093FFCDE900672A466946E1
:1025800007A800260827CDE90267049505F098F909
:10259000294607A805F0BCF846F2F8102946C2F211
:1025A000000005F0B5F8012323601BB0F0BD46F232
:1025B000F811002407A8C2F200014C22602600276F
:1025C00008F06DFFCDE900672246694607A800269E
:1025D0000827CDE90267049405F072F9214607A89F
:1025E00005F096F8012240214FF0904003F07EFF65
:1025F00046F2F8102146C2F2000005F001F940F25F
:102600004023C2F200031C601BB0F0BD2DE9F04F67
:1026100083B0FDF777FFFEF7E7FAFDF795FF00239C
:102620000022C4F2140304460D46CDE900239DEDBB
:10263000001B45EC104B0DF0D3FA00230022C4F22E
:102640001003CDE90023B0EE407AF0EE607A9DED04
:10265000001B45EC104B57EC176B0DF0C1FA002333
:102660000022C4F20803CDE90023B0EE407AF0EE78
:10267000607A9DED001B45EC104B59EC178B0DF06B
:10268000AFFA42F2C97240F20F23C1F66502CBF6EF
:10269000E043304639465BEC10ABFDF7ADFF48F246
:1026A000071247F25B2306460F46C4F68222C3F6A2
:1026B000B55340464946FDF79FFF02460B4630465C
:1026C0003946FDF7E3FD45F69F2247F6AE13064671
:1026D0000F46C9F2E412C3F6766350465946FDF739
:1026E0008BFF02460B4630463946FDF7CDFD2246AC
:1026F00006460F462B4620462946FDF77DFF41F64C
:10270000770241F63873CCF28D22C3F62773FDF7BA
:1027100073FF02460B4630463946FDF7B7FD4FF6CC
:10272000C7129A2306460F46C3F21832C3F6CB737C
:1027300020462946FDF760FF02460B4630463946E3
:10274000FDF7A2FD41F2DD524BF2F143C7F2CC722C
:10275000C4F26303FDF79AFDFEF746FA07EE900A0E
:10276000FDEEE77A17EE900A03B0BDE8F08F00BFE8
:1027700000B587B002F092FC00F044F800F008FACF
:1027800000F0D2F900F072F800F0AEF900F012F9A2
:1027900000F052F94FF4806000244FF400720023DF
:1027A0006946C4F60000CDE90023CDE90344029454
:1027B00003F092FD06F020FA41F6D00344F61D0026
:1027C0002246C0F601030121C0F6000006F09CFA83
:1027D00045F6CC53C2F20003054641F6AC0243F67F
:1027E00029302146C0F60102C0F600001D6006F047
:1027F00031FA45F69413C2F20003186006F00EFA9F
:10280000FEE700BF30B599B006A84422002108F0C9
:1028100054FE00234FF40070CDE90033CDE90233BC
:10282000049303F07BFE08B172B6FEE70346012471
:1028300006A84FF48035CDE90645109303F06CFFF0
:10284000014608B172B6FEE70F24022500220023DC
:102850006846CDE90045CDE90223049104F0D4FA9D
:1028600008B172B6FEE719B030BD00BF30B545F60D
:102870004834C2F20004002387B0C5F204030422E6
:102880004FF4802508212360626100230122204645
:10289000C4E90233C4E90A33CDE90133CDE9033396
:1028A0006560E161238384F82030636384F8383005
:1028B0000093226184F83020059302F013FC08B1E4
:1028C00072B6FEE70222C0F230420623CDE90023B1
:1028D00001227F23CDE902236946042200232046FA
:1028E000CDE9042302F032FD08B172B6FEE70422FE
:1028F000C0F660020C2369462046CDE9002302F0B1
:1029000025FD08B172B6FEE70822C0F690421223F8
:10291000029069462046CDE9002302F017FD08B178
:1029200072B6FEE71022C1F2C002182369462046A3
:10293000CDE9002302F00AFD08B172B6FEE72022BD
:10294000C1F2F0424FF4807369462046CDE900237E
:1029500002F0FCFC08B172B6FEE74022C1F620127C
:102960004FF4837369462046CDE9002302F0EEFC64
:1029700008B172B6FEE78022C1F650524FF486735A
:1029800069462046CDE9002302F0E0FC08B172B6AA
:10299000FEE70122C8F200024FF48973694620461F
:1029A000CDE9002302F0D2FC08B172B6FEE707B011
:1029B00030BD00BFD0B546F2F814C2F200044FF0AB
:1029C00080438CB0012223604FF400734FF47A717E
:1029D00062602361802200232046CDE90233CDE9E5
:1029E0000533CDE90733CDE90933E160A261A36086
:1029F0000193049304F012FE08B172B6FEE7034699
:102A000001A920460193039305F008FA08B172B6B4
:102A1000FEE70246602600270690089004A920469B
:102A2000CDE9046704F04CFF08B172B6FEE720461A
:102A300002F034F90CB0D0BDF0B5002595B02946B0
:102A40002C2208A846F20C34C2F20004CDE900554D
:102A5000CDE90255CDE90455069508F02EFD4FF459
:102A60008843C4F2010301264FF4FA718022204604
:102A7000C4E90455A56023606660E160A26104F0CA
:102A800023FD08B172B6FEE7204604F0C7FD0246FA
:102A900008B172B6FEE76026FE27CDE900676946F9
:102AA000002600272046CDE90267CDE9046706929B
:102AB00004F006FF034608B172B6FEE7CDE90867E9
:102AC000CDE90A6708A900264FF400572046CDE952
:102AD0000C67129305F0DCF908B172B6FEE72046E8
:102AE00002F0DCF815B0F0BD45F6F430C2F200009B
:102AF0004FF46053C4F2010310B50C214FF4E134DC
:102B00004FF4004203600023C0E90233C0E90833F8
:102B100044604161C2610361836105F069FF08B1EE
:102B200072B6FEE710BD00BF4FF48053C4F202033B
:102B300000B5996C41F001019964996C83B001F082
:102B4000010100910099996C41F0020199649B6C1C
:102B500003F002030022019305210B20019B02F0E8
:102B6000F3FF0B2003F02AF800220521442002F095
:102B7000EBFF442003F022F800220521452002F05B
:102B8000E3FF452003B05DF804EB03F017B800BF86
:102B90002DE9F04300248BB0CDE90444CDE906448F
:102BA0004FF48053C4F202030894DA6C42F08002BE
:102BB000DA64DA6C02F080020092009ADA6C42F079
:102BC0000402DA64DA6C02F004020192019ADA6C0F
:102BD00042F00102DA64DA6C02F001020292029A17
:102BE000DA6C42F00202DA64DB6C4FF4806503F0C9
:102BF0000203C4F60005039322464FF4E8714FF038
:102C00009040039B03F072FC284622464FF470412B
:102C100003F06CFC04A9082200234FF09040CDE99A
:102C200004230694002603F057FB002704A94FF461
:102C3000E87201234FF09040CDE90423CDE9066707
:102C400003F04AFB4FF4006004A930220023012462
:102C5000C4F60000CDE90423069403F03DFB0322F3
:102C6000284604A90023CDE9042306944FF40178F3
:102C700003F032FB4FF00009284604A90223069313
:102C8000CDE9048903F028FB4FF470420123284664
:102C900004A9CDE90667CDE9042303F01DFB0BB0C1
:102CA000BDE8F0830368DB69DB066FD52DE9F047EB
:102CB00040F25E23C2F2000345F6F4351A78016F44
:102CC000C2F2000501321A702A680B6840F25F24D4
:102CD00010211162C2F200045B68217840F25C228C
:102CE000C2F20002C3F17F039BB201291688138050
:102CF0000CD945F6F430C2F2000005F05BFC002868
:102D000040F0738100232370BDE8F087002945D18E
:102D10009B1B9BB2013B7E2BEBD845F64C57C2F276
:102D20000007BD5D05F0DF03462B3ED0432B40F08E
:102D30008B8040F25423C2F2000305221A60302D2A
:102D40003BD0312D00F0AA80352D00F0EE8005F04B
:102D5000DF03482B01D03F2DD4D145F67843C2F292
:102D600000035A6A40F25423C2F2000345F6D050E1
:102D700040F690413C25C2F20000C0F601011D6002
:102D800009F0F8FA00232370BDE8F08740F25F23D2
:102D9000C2F200031A7801321A707047B342A8D801
:102DA000C6F17F0213449BB2B4E740F25423C2F24F
:102DB00000030422302D1A60C3D140F2542246F29F
:102DC000D813C2F20002C2F200033E21186811605B
:102DD000FDF798FB4FF460430022C4F2AD03FDF70A
:102DE0000BFC4FF480430022C4F28F03FDF72EFD4D
:102DF00000230022C4F23903FDF748FA40F65833A5
:102E0000C0F60103D3E9002380468946FDF766FE3C
:102E1000002840F0208140464946FDF7C5FEB0F548
:102E2000FA7FC0F03C8145F69C13C2F2000345F6E0
:102E3000D05040F628411A68C0F60101C2F20000E5
:102E400009F098FABD5D7CE7572B06D140F2542378
:102E5000C2F2000303221A6071E7452B71D145F6D7
:102E60003428C2F20008404646F2482950F804AB24
:102E7000C2F20009C422002108F01FFBC422484608
:102E8000002108F01AFB40F25423C2F2000304228E
:102E9000C8F800A049F804AC1A6050E740F2542288
:102EA00046F2D813C2F20002C2F200033E21586873
:102EB0001160FDF727FB4FF460430022C4F2AD031D
:102EC000FDF79AFB4FF480430022C4F28F03FDF715
:102ED000BDFC00230022C4F23903FDF7D7F940F608
:102EE0005833C0F60103D3E9002380468946FDF735
:102EF000F5FD002840F0C18040464946FDF754FEEC
:102F0000B0F5FA7FC0F0CD8045F69C13C2F2000305
:102F100045F6D05040F66C415A68C0F60101C2F245
:102F2000000009F027FABD5D0EE745F67843C2F2CE
:102F3000000368215A6AB955B2FA82F252095A62FC
:102F400010E7442B0AD1FFF7D9F840F25423C2F21C
:102F50000003BD5D04221A6005F0DF03502B06D18B
:102F600040F25423C2F200033E221A60E7E64F2BE0
:102F70000AD140F25423C2F200033E221A60FEF747
:102F8000E7FEBD5D05F0DF034C2B0AD1FEF71AFF0B
:102F900040F25423C2F20003BD5D3E221A6005F0E8
:102FA000DF034B2B0BD0422B18D0542B7FF4C7AE32
:102FB00040F20803C2F2000300221A60BFE640F2AA
:102FC0005423C2F200033E2145F6784019602822BE
:102FD0000021C2F2000008F070FAB0E640F20003EF
:102FE000C2F2000300221A60A9E645F6F430C2F2EC
:102FF000000004F0EBFF4FF46052C4F2010245F60A
:10300000F43000234FF4E1362A600C214FF40042E3
:10301000C2F20000C5E90233C5E908336E602B61D6
:10302000AB616961EA6105F0E3FC08B172B6FEE7E5
:1030300045F64C5145F6F4307F22C2F20001C2F24F
:10304000000005F093FD2B6810221A621A6842F006
:1030500010021A6056E6002245F67843C2F20003D9
:1030600045F6D05040F60841C2F20000C0F601011A
:103070005A6009F07FF9BD5D63E6002245F67843AA
:10308000C2F2000345F6D05040F65041C2F20000B3
:10309000C0F601019A6009F06DF9BD5D54E6024683
:1030A000DAE70246EAE700BF40F26023C2F200031B
:1030B0001A7801321A7070472DE9F04F45F6342B1B
:1030C000C2F2000B2DED028BDBF8A030B3F5617F6F
:1030D0009BB045F6D05500F2CE8040F6683645F6F6
:1030E000C014C2F20005C0F60106C2F2000440F2AC
:1030F000682AC2F2000A45F69C17C2F20007DAF805
:103100000030FA6803F24B134FF000089A42C4E90A
:10311000148802D2F02A00F2818045F6D050C2F223
:103120000000FDF755F863690246D6F82804A85058
:10313000002B40F0EB8046F2D418C2F200080023C6
:10314000D8F80090CAF800306361B9F1000F00F0C0
:10315000CD803B6845F6D050E62BC2F2000017D870
:10316000FDF736F8A26B0346D6F83004E850002A83
:1031700000F0B3810123A361FEF7DCF8D8F800303A
:10318000002B00F009811BB0BDEC028BBDE8F08F75
:10319000FDF71EF8034646F2F811D6F82C04E85065
:1031A0000126002507A8C2F200014C224FF060085A
:1031B0004FF00009A66008F072F9CDE900892A46AF
:1031C000694607A84FF000084FF00809CDE90289C9
:1031D000049504F075FB294607A804F099FA3246D5
:1031E00040214FF0904003F081F946F2F810294653
:1031F000C2F2000004F004FB40F2402240F2080357
:10320000C2F20002C2F2000340F6C411A5631560C9
:1032100019601BB0BDEC028BBDE8F08F45F6A043F2
:10322000C2F200031B69B3F5167FBFF476AF45F613
:10323000D050C2F20000FCF7CBFF0346D6F82404BE
:10324000E850FFF777F91123012280214FF09040D9
:10325000CAF8003003F04AF940F24C22C2F20002F0
:103260000123C4E90433C2F80080E3651BB0BDEC60
:10327000028BBDE8F08FC2F200052846FCF7A8FFDC
:1032800040F6683640F23C23C0F601060146C2F221
:103290000003D6F82004685045F6A04245F6C01455
:1032A000C2F20002C2F20004186800219165616454
:1032B00000287FF41CAF012210214FF090401A60CB
:1032C00003F014F906F1780307CB1B88286045F654
:1032D000F4306960AA60AB810D222946C2F2000079
:1032E00004F01EFE0A2005F001FD00E77B69462B75
:1032F00045DD012280214FF0904003F0F7F840F2C5
:103300004C23C2F20003C3F8009022E7002308EE2A
:10331000103A46F2F811C2F200014C224FF0600858
:103320004FF0000907A808F0BAF8CDE9008918EEB7
:10333000102A694607A84FF000084FF00809CDE9A8
:1033400002898DED048A04F0BBFA18EE101A07A862
:1033500004F0DEF9012240214FF0904003F0C6F85E
:1033600046F2F81018EE101AC2F2000004F048FA03
:1033700040F24022C2F2000282ED008ADBE64A46B9
:1033800080214FF0904003F0B1F840F24C23C2F29C
:10339000000301221A60DCE640F2642845F6D050B2
:1033A000C2F20008C2F20000FCF712FFD8F80020B9
:1033B000F968034602F29312D6F83804E8509142B5
:1033C0003A691AD2F02918D9042A07DC45F678425E
:1033D000C2F20002526A002A40F08B800333D6F812
:1033E0003C04E850FFF7A6F8012312210022636095
:1033F000E365C8F80010E262C5E6042A79DD03330C
:10340000D6F84804E85046F2F811C2F200014C2206
:103410004FF060094FF0000A07A808F040F80022BA
:10342000CDE9009A694607A84FF000094FF0080A55
:103430000492CDE9029A04F043FA002107A804F0AF
:1034400067F9012240214FF0904003F04FF846F217
:10345000F8100021C2F2000004F0D2F940F240223C
:10346000C2F2000200230121C8F80030136021627B
:1034700040F29313FF689F427FF685AE45F6D05029
:10348000C2F20000FCF7A4FE40F6B4710346C0F699
:103490000101D6F84C04626BE85005EB030C91F87F
:1034A00004E0DBF894008CF804E0CBF88000002AFC
:1034B00069D1E26A002A6BD1043340F6BC72D6F8B7
:1034C0005404E850C0F601022B4416791E71012104
:1034D0000022E162CBF87C2055E6DBF83020D6F8FC
:1034E000340403330132E8500123CBF83020A363C6
:1034F00040E6033340F6A872D6F84004E850C0F620
:1035000001022B4412791A71002308EE103A46F298
:10351000F8110123C2F200014C224FF060094FF074
:10352000000A07A8636207F0BAFFCDE9009A18EE17
:10353000102A694607A84FF000094FF0080ACDE9A4
:10354000029A8DED048A04F0BBF918EE101A07A850
:1035500004F0DEF8012240214FF0904002F0C6FF57
:1035600046F2F81018EE101AC2F2000004F048F902
:10357000D8F8003040F24022C2F2000203F2931366
:1035800082ED008A76E7E26A002A7FF4FCAD93E7D9
:103590000433EA18D6F85C04E850097D1171012360
:1035A000CBF89C706363EEE545F6A043C2F20003DE
:1035B0002DE9F0419A6D45F6C014C2F200040123D2
:1035C0000021B2F5E16F6161E361A3654FD845F673
:1035D000D05640F66837C2F20006C0F6010740F246
:1035E0006825C2F2000545F69C18C2F200082B6857
:1035F000D8F80C20C3F5AE7345F6D0509A42C2F20B
:10360000000023D9FCF7E4FD46F2D412C2F2000216
:1036100003461268D7F86804F0500021A162002A1E
:103620003FD0FEF76FF840F24C23C2F200031122A4
:103630001B682A60002B3BD1D8F80030B3F5877F98
:1036400002D9E36A002B46D1BDE8F081FCF7C0FD4A
:10365000024640F26423D7F87804B050C2F2000367
:1036600000222A60BDE8F0411A6000F049B8656D9B
:1036700045F6D05635B140F66837C2F20006C0F6BE
:103680000107ACE7C2F200063046FCF7A1FD40F6A8
:103690006837C0F601070346D7F86404F050A56206
:1036A0009DE70333D7F86C04F050FDF771FDB8E7E0
:1036B00045F6D050C2F20000FCF78AFD0346D7F869
:1036C0007004F0500123E3602366D8F80030B3F5AE
:1036D000877FB9D9B5E745F6D050C2F20000FCF7B4
:1036E00077FD45F63423C2F2000301469A6AD7F803
:1036F00074047050013200219A62E1626163A3E7B1
:103700002DE9F04345F69C15C2F200059DB001225B
:1037100080214FF0904002F0E9FE40F24C26AB6968
:10372000C2F200060027462B37604ADC40F24024F4
:10373000C2F200042768B7B145F62423C2F20003A1
:103740009A686AB15A6845F6C0173B2AC2F2000768
:1037500068D0796D21B11AB91B680A2B00F0B480CA
:103760001DB0BDE8F0833A4640214FF0904002F092
:10377000BDFE46F2F811C2F200014C224FF0600883
:103780004FF4FA7909A807F08AFECDE902893A4692
:1037900002A909A84FF000084FF00809CDE90489F3
:1037A000069704F08DF8394609A803F0B1FF46F2F8
:1037B000F8103946C2F2000003F0AAFF012323608B
:1037C000BAE746F2F811C2F200014C224FF060084D
:1037D0004FF0000909A807F062FECDE902893A46D8
:1037E00002A909A84FF000084FF00809CDE90489A3
:1037F000069704F065F8394609A803F089FF40F2FE
:103800004024012240214FF0904002F06FFEC2F2AE
:10381000000446F2F8103946C2F2000003F0F0FF4F
:10382000276089E7B96A002993D145F6A040C2F222
:103830000000806DB0F5E16F8BD945F6D054C2F22F
:10384000000420460191FCF7C3FC40F66832C0F644
:103850000102864645F63423C2F20003D2F87C0406
:1038600044F80E00D3E92242D3F884005E6AC3F81C
:103870009020C3F88C40D3F89420D3F8A840C3F824
:103880008800D3F8A4000199ED68C3F88420C3F838
:10389000AC405A6F1C6FC3F8A800D86E7963F96208
:1038A000C3F89850C3F89410D3F8A050D96F9A6712
:1038B00001360122C3E91C04C3F8A450D9665E6234
:1038C0007A64BA627A654BE745F6D058C2F20008CE
:1038D00040460192FCF77CFC40F23C2C40F66837F5
:1038E000C2F2000CC0F601070146DCF80030D7F840
:1038F000800448F8010033B3019ACCF8002010216D
:103900004FF09040883702F0F1FD0FCFC8F800006B
:103910003868B7F804C0C8F81000BF79C8F80410B8
:1039200045F6F430C8F80820C8F80C304146C2F219
:1039300000001622A8F814C088F8167004F0F0FAF7
:10394000642005F0D3F96B69462B34DD0122802118
:103950004FF0904002F0CAFD0023336046F2F811A8
:10396000002509A8C2F200014C226026002707F0BA
:1039700096FDCDE902672A4602A909A80026082774
:10398000CDE90467069503F09BFF294609A803F0DB
:10399000BFFE012240214FF0904002F0A7FD46F209
:1039A000F8102946C2F2000003F02AFF012025602A
:1039B00005F09CF9D4E6002280214FF0904002F0FF
:1039C00095FD01233360C9E730B545F63422C2F2D4
:1039D00000029FB0D2E92614D2F88450D36E1D9510
:1039E000D2F880501C94946E1B91516E1A93136EF2
:1039F0001995956D1894D46D1791516D1693136D9B
:103A00001595956C1494D46C1391516C1293136C9E
:103A1000CDE91045CDE90E319469116A936BCDE97A
:103A20000014516BD56BD46A0D93136B0C91916A92
:103A30000B95556A0A94D4680993536908911169E2
:103A400007959568069454680593D36912680491A4
:103A500045F6D05041F21821C0F60101C2F2000033
:103A6000CDE9024508F086FC1FB030BD30B545F603
:103A70003422C2F20002D2E92A45A1B0D2E92831AB
:103A80001E95D2F8BC501D94D2F8B8401C91D2F8C3
:103A9000B4101B93D2F8B0301A95D2F89050199404
:103AA000D2F88C401891D2F888101793D2F884304D
:103AB0001695956F1594546F1491116F1393D36EDF
:103AC000CDE91145CDE90F31D2F88030D56FD2F86C
:103AD00094400E93D36A0D95156B0C94946A0B93D6
:103AE000536A0A95D5680994546908931369079530
:103AF00095680694D2F8C04005935368049595697B
:103B00000394146A029345F6D05041F22C41D369D4
:103B10001268C0F60101C2F20000CDE9004508F0CC
:103B200029FC21B030BD00BF2DE9F04F45F69C17B0
:103B3000C2F200072DED028B7B69462BBFB040F22D
:103B40004C236ADDC2F200031C46012280214FF0A3
:103B50009040189302F0CAFC0023236045F6F43429
:103B600000224FF480714FF09040C2F2000402F046
:103B7000BDFCFEF77DF9FEF7EBF8204601F0E2F818
:103B80002268136840F23C2543F01003C2F200059E
:103B900045F64C5113602046C2F200017F22239566
:103BA00004F0E4FF2B68E3B901222A6040F6E03517
:103BB00010214FF09040C0F6010502F097FC07CDB0
:103BC00045F6D053C2F200032D88186059609A6000
:103BD000194620460D229D8104F0A2F90A2005F025
:103BE00085F845F648307F21C2F2000001F04AFF17
:103BF000322005F07BF846F2D81145F64830C2F283
:103C00000001C2F20000082201F0ACFE834688B138
:103C10003FB0BDEC028BBDE8F08FC2F200031C4642
:103C2000002280214FF09040189302F05FFC0123A6
:103C3000236093E74FF48060C4F6000001224FF444
:103C4000004102F053FC4FF48060C4F600000122F2
:103C50004FF4804102F04AFC4FF48060C4F600004B
:103C600001224FF4005102F041FC4FF48060C4F691
:103C7000000001224FF4805102F038FC4FF0040C98
:103C80001126CDE90B6C4FF023084FF0F00C40F6F5
:103C9000C41EE6244FF487714FF4AE7645F6D05536
:103CA000CDE9076CC2F20005CDE90DE8CDE90214BB
:103CB0004FF4A57E46234FF0120940F2931A4FF4B9
:103CC000A07240F2B31640F6EC71CDE9056ECDE975
:103CD00009A9C0F601010493009301923423022242
:103CE00044F2740643F2BC442846CDE90F4608F07E
:103CF00041FB2846FCF76CFA024645F6F43092B2D6
:103D00002946C2F2000004F00BF9052004F0EEFF92
:103D10004FF480605A46C4F600004FF4004102F0B0
:103D2000E5FB4FF480605A46C4F600004FF4804132
:103D300002F0DCFB4FF480605A46C4F600004FF4FA
:103D4000005145F6981402F0D1FBC2F200044FF482
:103D500080605A46C4F600004FF48051159402F07A
:103D6000C5FBFEF7B5FB22784FF4806002F001023C
:103D7000C4F600004FF4004102F0B8FB22784FF483
:103D8000806002F00202C4F600004FF4804102F0AD
:103D9000ADFB22784FF4806002F00402C4F600000C
:103DA0004FF4005102F0A2FB22784FF4806002F041
:103DB00008024FF48051C4F6000002F097FB322055
:103DC00004F094FF4FF480605A46C4F600004FF4AC
:103DD000004102F08BFB4FF480605A46C4F60000AD
:103DE0004FF4804102F082FB4FF480605A46C4F6E3
:103DF00000004FF4005102F079FB4FF480605A4606
:103E00004FF48051C4F6000002F070FBFFF7DCFDB8
:103E10002846FCF7DDF945F67843024645F6F430CE
:103E200092B229461C46C2F2000004F079F82346FB
:103E3000C2F200031C46142004F058FF284685F8FF
:103E400000B0FCF7C5F9A3691393234617931B69C8
:103E50001493179BE2699C46DB681693DCF80830E4
:103E60001993D4E90816139B64690796CDE90343B7
:103E7000149B0293CDE90521169B019341F614088A
:103E8000199B0093C0F60108DCE90023A8F50C712A
:103E9000284408F06FFA2846FCF79AF9024645F6DE
:103EA000F43092B22946C2F2000004F039F845F627
:103EB000CC53C2F2000345F6C014186845F634220C
:103EC0002346C2F20002C2F2000364211A9219933F
:103ED00004F05EFF19991A9801234FF4AF720B6337
:103EE0008B624B6440F25423FA601A46C0F894B0D7
:103EF000C0F87CB0C2F2000245F6242014920246BB
:103F0000C2F2000240F200031F921A46C2F20002FF
:103F100040F2080121920A46C2F2000240F2442314
:103F200022921A4640F24023C2F2000340F250248B
:103F3000A8F50C7C40F248201B9340F2040140F2AB
:103F4000642345F6A04940F2582AC2F20004C2F2A6
:103F50000002C2F20000C2F20001C2F2000308EE49
:103F600010CA2E4608F1940BC2F200091E9220904E
:103F7000C2F2000A16911D9313945A2004F0B6FE63
:103F800000224FF480714FF0904002F0AFFA139B83
:103F90001B683BB9139C022004F0A8FE2368002B89
:103FA000F9D01394149B1B68032B00F0B080022BF4
:103FB00000F0B380042B00F0DD80052B00F0F780CB
:103FC000012B00F05F813E2B00F098813C2B00F02C
:103FD000288113B1149A013B136000232B703046E3
:103FE000FCF7F6F80238B8F800302B522A18DAF845
:103FF000003098F802109170002B43D1159B1B786C
:10400000062B34D87B69462B4CDC169B7A681B68E0
:1040100003F5A0739A42304604D8BB68B3F5DA7F43
:10402000C0F00482FCF7D4F841F61C02C0F601028D
:1040300003461068E850169A00231360FFF73CF817
:10404000199A012313643046FCF7C2F8BBF800103C
:1040500029522B189BF802109970821C45F6F430F7
:1040600092B23146C2F2000003F05AFF85E7DA1F30
:10407000062A24D8BB69462B40F38280159A002378
:104080001370E0E73046FCF7A3F841F61802C0F6DB
:10409000010203461068E850FDF79EFF0023CAF8AE
:1040A0000030ABE7159C0723012280214FF09040A0
:1040B000237002F01BFA189A00231360C3E70E2B3B
:1040C00000F0B3800F2BBED17B69462BEADC169B38
:1040D0007A681B6803F5A0739A42BB6840F2478276
:1040E000B3F5A57F00F247823046FCF771F841F640
:1040F000A00103462A18C0F601010868E8500B79B0
:104100001371169A46231360FFF74EFA9BE7149A31
:1041100002231360FFF7AAFC61E7D9E90321D9F86C
:104120000800D9F804300690D9F818000591D9F89C
:104130002410149CCDE90332D9F800300091CDE968
:104140000103D9E917121A9801232360D0F8A000BF
:10415000D9F820300A92D9F81C200991089041F230
:104160009861D9F858400794C0F60101304608F02C
:1041700001F934E7FFF728FC149A002313602EE7B7
:10418000169B7A681B6803F5A0739A42BB6840F2DD
:10419000DD80B3F5A57F00F2DD803046FCF718F82E
:1041A00041F6480103462A18C0F60101A5E740F68A
:1041B000C4100421232311220D900C91F0204FF400
:1041C000AE714FF0120C0E930B9240F293134FF41A
:1041D000A57208900791E6204FF48771CDE902108F
:1041E000CDF828C0099340F2B31C4623069244F24E
:1041F00074004FF4A07240F6EC71CDE9043C0093DA
:10420000019243F2BC4C342302221090C0F601010B
:104210003046CDF83CC008F0ADF8149A0023136086
:10422000DDE6149A3B231360D9E67B69462B3FF702
:1042300039AF169B7A681B6803F5A0739A42BB6876
:1042400040F20381B3F5A57F00F203813046FBF70E
:10425000BFFF41F65802C0F6010203461068E8505D
:104260002B441279169C1A718021462301224FF0AB
:104270009040236002F03AF9189A00231360FFF788
:104280003FFAE0E6219A209C1068229A149B11685C
:104290001E9A246812684FF0000CC3F800C01090FA
:1042A0000D94B868FC680F91CDE90B0479680A9108
:1042B00023990E923A68096809921B9ABB691268A1
:1042C0000893189B38691B681C937C690794159C9C
:1042D00023781F9C069020680190CDE904211C9A48
:1042E000CDE902326368009341F25471A368E26839
:1042F000C0F60101304608F03DF870E63046FBF7A5
:1043000067FF179AD2E90714536A92690793179BBC
:104310005B690694179C24691C94179C0591E168BD
:104320000492A26803931C9B0092CDE901132844D8
:104330006368226818EE101A08F01CF8149A1368C3
:10434000002B3FF44CAE013B136048E6B3F5DA7F37
:10435000FFF423AF3046FBF73BFF034641F6240052
:104360001D9A169C1268F968C0F6010002F29312B9
:104370000068E85000202060199C012091422064D0
:104380003A6974D2F02972D9042A04DC179A526A65
:10439000002A40F02E81DA1C41F628011B9BC0F652
:1043A00001011B680868A85073BB1A4640214FF0F2
:1043B00090401C9302F09AF846F2F811C2F2000104
:1043C0004C222BA807F06BF81C9B28931A464FF43D
:1043D000FA746023CDE9243424A9002308242BA8EF
:1043E000CDE9263403F06CFA1C9B2BA8194603F088
:1043F0008FF91C9B46F2F8101946C2F2000003F038
:1044000087F91B9C01232360012280214FF09040FB
:1044100002F06CF81898002202601998C2621D9A86
:104420000123122111600360C3650CE6FBF7D0FE87
:1044300041F62002C0F6010203461068169AE850C1
:1044400046231360FFF7B0F8FDE5B3F5DA7FFFF41C
:10445000FDAE3046FBF7BCFE41F65001C0F601014F
:1044600003462A180868E8500B791371E3E5042A1B
:1044700040F3BF8041F63401C0F601010333EA186E
:104480000868E8500B791999137101220A621D9A84
:10449000002313607B69462B40F3BC8001228021FE
:1044A0004FF0904002F022F8189A0023136046F271
:1044B000F811C2F200014C222BA806F0F0FF0023F5
:1044C0001A46289300246023CDE9243424A900232C
:1044D00008242BA8CDE9263403F0F2F9002319466D
:1044E0002BA803F015F9012240214FF0904001F074
:1044F000FDFF002346F2F8101946C2F2000003F057
:104500007FF91D9BFA6819681B9B01F293111846ED
:104510008A424FF0000303607FF695AD30461C924F
:10452000FBF756FE034641F63C00199A1A9C516B64
:10453000C0F601000068E850D4F89400C4F8800088
:10454000002940F0FB80D06A1C9A002840F00C81C2
:1045500041F64002C0F6010203331068E850199991
:1045600001220023C1E90A321A9AD3676BE5B3F539
:10457000DA7FFFF4B9AD3046FBF72AFE291803466F
:1045800041F66000C0F6010004460068E8501E9A3B
:104590002079169C0871002020601268199801216A
:1045A0000164002A40F0CF801D9AF968126802F277
:1045B000931291423A6937D2F02935D9042A04DCA2
:1045C000179A526A002A40F0C18041F66801C0F68D
:1045D000010104330868E850EA18BB6909791171D0
:1045E000462B00F3D6801B9B1B68002B7FF40CAF7F
:1045F000DBE641F62C01C0F601010333EA18086836
:10460000E8500B791371199A012353627B69462B89
:104610003FF744AF002280214FF0904001F066FF49
:10462000189A0123136042E7042A40F38F8041F671
:104630007801C0F601010433EA180868E8508B8855
:104640001999938001220A621D9A00231360304653
:10465000FBF7BEFD41F68002C0F60102034610687A
:10466000E8502B4412791A71802100224FF09040BB
:1046700001F03CFF189B46F2F8111C46C2F2000103
:1046800001234C222BA8236006F009FF00231A46C1
:10469000289300246023CDE9243424A9002308248E
:1046A0002BA8CDE9263403F00BF9002319462BA8DB
:1046B00003F02EF8012240214FF0904001F016FF48
:1046C000002346F2F8101946C2F2000003F098F8F1
:1046D0001D9BF9681A681B9B02F2931218469142BF
:1046E0004FF0000303607FF6AEAC30461C91FBF741
:1046F0006FFD2A18034641F68800C0F60100044603
:104700000068E8501999207910711A98D1F834E0AE
:10471000D0F89420C0F88020BEF1000F34D1CA6ACE
:104720001C99002A64D141F69001C0F601010433BE
:10473000EA180868E8500B79137110E7D26A002A6A
:104740007FF481AC04E7FEF7B7FC7CE441F670012E
:10475000C0F601010433EA180868E8508B8893809A
:10476000199A0123536272E741F64400C0F6010032
:104770000333C4F89C20199C0068E8504FF0010CEA
:104780002163C4F834C05EE4CA6A002A7FF45BACDB
:10479000C9E746F2F811C2F200014C222BA806F03C
:1047A0007EFE00231A46289300246023CDE924349A
:1047B00024A9002308242BA8CDE9263403F080F88F
:1047C000002319462BA802F0A3FF012240214FF03D
:1047D000904001F08BFE002346F2F8101946C2F219
:1047E000000003F00DF81B9B1A46002313600BE634
:1047F0001A1D1A9BC3F89C1041F69803C0F60103DA
:10480000199918681B79A85005EB020C01244C6318
:10481000C1F830E08CF8043015E400BF2DE9F8430E
:1048200040F26C23C2F200032DED028B1A68002ABD
:1048300000F01481013A1A6046F2D815FDF7A6FC83
:10484000C2F2000545F64830C2F2000001F04AF815
:104850002868FBF757FE4FF460430022C4F2AD0313
:10486000FBF7CAFE4FF480430022C4F28F03FBF72C
:10487000EDFF00230022C4F23903FBF707FD40F6E9
:104880006033C0F60103D3E9002306460F46FCF768
:1048900025F90446002840F0DD8030463946FCF713
:1048A00083F945F67843C2F200035B68834280F0E7
:1048B0000381C31A45F69C14C2F2000468682360A1
:1048C000FBF720FE4FF460430022C4F2AD03FBF778
:1048D00093FE4FF480430022C4F28F03FBF7B6FF30
:1048E00000230022C4F23903FBF7D0FC40F660330A
:1048F000C0F60103D3E9002380468946FCF7EEF8B1
:104900000646002840F0A88040464946FCF74CF98E
:1049100045F67843C2F200039B68834200D2C61A70
:10492000D5ED027A66600023C4F2C82308EE903AFF
:10493000F8EE677A4FF47043C4F27F5308EE103AF2
:1049400067EEA87AC7EE887A17EE900AFBF7FCFDAF
:1049500045F2EB134FF00042C4F20A03FBF74CFEA2
:104960004FF4C0430022C4F27E03FBF745FE002350
:104970000022C3F6B073FBF73FFE49F69A1249F6E0
:104980009913C9F69912C3F6B973FBF735FEFCF714
:104990000BF9D5ED037AA060F8EE677A67EEA87A96
:1049A000C7EE887A17EE900AFBF7CEFD45F2EB13BF
:1049B0004FF00042C4F20A03FBF71EFE4FF4C0435F
:1049C0000022C4F27E03FBF717FE00230022C3F689
:1049D000B073FBF711FE49F69A1249F69913C9F61E
:1049E0009912C3F6B973FBF707FEFCF7DDF803462F
:1049F0002869E360FDF70AFE034668692361FDF755
:104A000005FE0346A8696361FDF700FE03464FF407
:104A100080604FF40071C4F60000A36101F060FDF6
:104A200040F24823C2F20003024608214FF09040B2
:104A30001A6001F055FDBDEC028B40F2442240F2B9
:104A40005023C2F20002C2F200030121106019607B
:104A5000BDE8F88300232DE7002661E745F624240E
:104A6000C2F2000440F254252368C2F2000501336B
:104A70002360FDF76FF82B680BB902232B6040F21F
:104A80001403C2F200031A68002A7FF4D3AE6168EF
:104A9000226040F21006C2F2000601314FF03B08DE
:104AA000C3F800806160FDF713FD376803232B60B6
:104AB00027B1013F3760BFE62346FBE6FDF778FCF0
:104AC00040F20C03C2F20003A0681A68C6F8008026
:104AD00040F25821C2F20001013001256760A06058
:104AE0000D60002A7FF4A6AEE168A26001311722B2
:104AF000E1601A60A0E600BF02684FF48053C4F280
:104B000000039A4200D0704700F0D8BA72B6FEE7B0
:104B10004FF48053C4F2020382B0196E41F00101D8
:104B20001966196E01F0010100910099996D41F02B
:104B3000805199659B6D03F080530193019B002286
:104B40000F216FF0010002B000F0FEBF70B5044607
:104B5000A0B000215C2209A8CDE90411CDE906111D
:104B6000089106F0AAFC22680023C5F204039A42C9
:104B700001D020B070BD4FF480424FF0405309A8DF
:104B800009921D9302F0FCFA002853D14FF4805390
:104B9000C4F202034FF40060DA6C42F40052DA64AB
:104BA000DA6C02F400520192019ADA6C42F00402CB
:104BB000DA64DA6C02F004020292029ADA6C42F0D1
:104BC0000102DA64DB6C03F00103039300260F2279
:104BD0000B2303990696C4F6000004A9CDE904232B
:104BE00045F6045501F078FB07220B2304A94FF08A
:104BF0009040C2F20005CDE90423069601F06CFB5B
:104C00000823C4F2020380204FF400714FF40062C5
:104C10002B60286120232846C5E90166C5E90512F5
:104C2000EE602E62EB6100F0D7FF30B9E564AC6254
:104C300020B070BDFFF76AFFA8E7FFF767FFF5E751
:104C40000368B3F1804F00D070474FF48053C4F233
:104C5000020382B09A6D42F001029A659B6D03F0E7
:104C600001030193019B02B0704700BF02684FF43B
:104C70008843C4F201039A4200D070474FF4805336
:104C8000C4F2020382B01A6E42F400321A661B6E3E
:104C900003F400330193019B02B0704770B50268C2
:104CA00088B00023B2F1804FCDE90233CDE904335F
:104CB000069307D04FF48843C4F201039A421FD0F1
:104CC00008B070BD4FF48053C4F202030120DA6CC7
:104CD00042F00102DA64DB6C069003F001030093FA
:104CE0000022002302A9202402254FF09040CDE9A4
:104CF0000245CDE90423009E01F0EEFA08B070BD34
:104D00004FF48053C4F202034FF48060DA6C42F037
:104D10000202DA64DB6C03F0020301930E23019AB2
:104D200006930022002302A9C4F600004FF4807409
:104D30000225CDE90245CDE9042301F0CDFA08B002
:104D400070BD00BFF0B500249FB005465C2221462F
:104D500007A8CDE90244CDE90444069406F0ADFB72
:104D60002A684FF46053C4F201039A4201D01FB085
:104D7000F0BD012307A80F94079302F001FA002861
:104D800074D14FF48053C4F2020307241A6E42F424
:104D900080421A661A6E02F480420092009ADA6C1F
:104DA00042F00102DA64DB6C069403F00103019324
:104DB0000022019B4FF40076022302A94FF090409D
:104DC0000227CDE90423CDE9026701F085FA4FF40B
:104DD00080620223CDE9022302A9012202234FF0BF
:104DE000904045F6AC36C2F20006CDE904230694A5
:104DF00001F072FA4FF49063C4F20203022480219E
:104E00002022336030460023C6E90233C6E9053369
:104E100074603161F261336200F0DEFE60BB45F622
:104E2000FC24C2F2000440F26C43C4F202030227E5
:104E30001021802223602E6700232046C4E903321C
:104E4000C4E90533C4E90733B5626760A16000F0C7
:104E5000C3FE70B900220521EC662520A56200F092
:104E600073FE252000F0AAFE1FB0F0BDFFF74EFE36
:104E700087E7FFF74BFEEDE7FFF748FECFE700BF00
:104E800030B5014689B00022362000F05DFE3620A4
:104E900000F094FE4FF48053C4F2020301A99A6D0E
:104EA00042F010029A659B6D03F01003029303A871
:104EB000029B02F0A7F802F079F84DF68363C4F282
:104EC0001B33A3FB003046F25C34C2F20004830CB7
:104ED0004FF480510022013BC4F2000140F2E7355B
:104EE0002046C4E90013C4E90352A26002F0ECFAC0
:104EF00010B1012009B030BD204602F05FFB09B0BF
:104F000030BD00BFFEE700BFFEE700BFFEE700BF09
:104F1000FEE700BFFEE700BF704700BF45F6045044
:104F2000C2F2000000F066BF10B545F6F434C2F2DC
:104F30000004204603F060F92368DB69DB0600D437
:104F400010BD2046BDE81040FDF7ACBE46F25C3017
:104F5000C2F2000002F0AABE45F6FC20C2F2000038
:104F600000F048BF45F6AC30C2F2000000F042BF8E
:104F70000120704708B506F06FF9162303604FF063
:104F8000FF3008BD08B506F067F916230360FEE799
:104F900070B5161E07DD0C468D19AFF3008004F8BE
:104FA000010BA542F9D1304670BD00BF70B5161E89
:104FB00007DD0C468D1914F8010BAFF30080AC42ED
:104FC000F9D1304670BD00BF4FF0FF30704700BFD1
:104FD0004FF400534B600020704700BF0120704722
:104FE0000020704740F27021C2F2000110B540F27B
:104FF000000240F200440B68C2F20102C0F2000459
:10500000121B2BB1184490420AD80860184610BDF4
:1050100046F20043C2F20003184490420B60F4D9F8
:1050200006F01AF90C2303604FF0FF33184610BD49
:105030004FF46D43CEF20003D3F8882042F470029F
:10504000C3F88820704700BFDFF834D0FFF7F0FFC7
:105050000C480D490D4A002302E0D458C4500433D3
:10506000C4188C42F9D30A4A0A4C002301E01360A9
:105070000432A242FBD306F0EBF9FDF779FBFEE721
:10508000000001200000002020020020601E010816
:1050900020020020FC630020FEE7000010B5032082
:1050A00000F03CFD0F20FFF7EBFE10B1012420467D
:1050B00010BD0446FFF72CFD204610BD46F2A83374
:1050C00040F21C01C2F20003C2F2000118680A7823
:1050D00002441A60704700BF46F2A833C2F20003D0
:1050E0001868704770B582B000230193002800F063
:1050F000C180456D0446002D00F0988022689368B9
:105100009D0005D5936823F0204323F03F0393606F
:105110009368D8001FD440F21801C2F2000142F691
:1051200063500B6891689B09C0F23E50A0FB0303DB
:105130009B0921F01041013321F03F015B0041F058
:10514000805191600193019B2BB1019B013B019325
:10515000019B002BF9D19368D90059D4636D43F0BA
:1051600010036365A36D43F00103A365936813F017
:10517000040F4FF00100636D51D1DB064FD4636D16
:1051800023F4817343F0020363659368DE070FD451
:105190000023C5F204039B68DD0709D44FF4407176
:1051A000C5F2040165688B6823F47C132B438B6084
:1051B000D4E90215636B2B430B43657E94F82010F2
:1051C00043EA4533012943EA01434ED0A16A21B1A4
:1051D000E56A01F4707129430B43D5684CF207016D
:1051E000CFF6F07129400B43D3609368590723D55C
:1051F00093682369012B40D0136B23F00F031363D3
:10520000636D23F0030343F00103636502B070BDD7
:10521000936813F0040F4FF00000636DADD0636D21
:10522000012043F01003636502B070BDFFF78EFCF0
:10523000A56584F8505061E793681B07D9D4D168FD
:1052400094F83030257E21F480415B0021F002018A
:1052500043EA85330B43D36094F83830012B14D0E4
:10526000136923F001031361C3E7616A013943EA5B
:105270004143ABE7012002B070BD116BE36921F03F
:105280000F01013B0B431363BAE7D4E90F361169F1
:10529000656C21F4FF6121F0040133430B43A16CE1
:1052A0002B430B4343F001031361A2E7704700BF98
:1052B000704700BF08B5806AFFF7FAFF08BD00BF5E
:1052C000704700BF836A5A6D12F0500F10B55A6DC7
:1052D0001DD1196842F400725A650A6812F0080F6D
:1052E000CA681BD012F4406F0DD1CA6894040AD466
:1052F0005A6D22F480725A655A6DD10403D45A6DE6
:1053000042F001025A651846FFF7D0FF10BDD206E1
:105310000AD4DB6CBDE810405B6B18479007E7D5FB
:105320001846FFF7C3FFF1E71846FFF7C9FF10BDA6
:10533000806A08B5436D43F040034365836D43F0D5
:1053400004038365FFF7BCFF08BD00BFF0B490F80D
:10535000502082B00346012A4FF00000019000F077
:105360003E811C68012083F85000A56815F00405F3
:105370004CD14A68052A53D902F01F0C1F26920906
:1053800006FA0CF602F00C05F74304F13002086847
:105390005659C0F384603E4000FA0CF0304350513F
:1053A000A268550740F1B480A2680A68A068C007E7
:1053B00045D515460022C8F2080215423DD04FF4EB
:1053C0004072C5F2040200219068CCF252718D4205
:1053D00000F0E0762ED00021CCF684318D4200F032
:1053E00002810121C8F200018D4226D110F4800013
:1053F00023D10021C5F204018C421ED1916821F015
:10540000E071314341F48001916003E05A6D42F054
:1054100020025A65002283F8502002B0F0BC704789
:10542000023A032A00F2F081DFE812F0F800FE00F1
:105430000401EF00010240F113810020EAE7CF6888
:10544000D4F8B0504FF6FF7007F01806C0F207000E
:10545000F040C2F3120C002625EA0C051040C4F2FD
:105460007F062843B742C4F8B0001546A2D1BCF16C
:10547000000F00F0E58092FAA2F0002800F05881B9
:10548000B0FA80F0013000F01F00092840F250818E
:1054900092FAA2F5002D00F0A681B5FA85F5013546
:1054A000AD0605F0F84592FAA2F0002800F0A281BE
:1054B000B0FA80F0013000F01F00012606FA00F07B
:1054C000054392FAA2F2002A00F09081B2FA82F02B
:1054D000013000F01F0000EB4000A0F11E02120599
:1054E00042F000722A43D70D04F1140507F00407B7
:1054F0008E687859C2F304524FF0070C0CFA02FC84
:1055000020EA0C0006FA02F202437A510D6851E7D4
:10551000A268120761D408688D68C70D04F11406EB
:1055200007F00407C0F30450BA594FF0070C0CFA07
:1055300000FC22EA0C0205FA00F00243BA510E699F
:10554000E068042E1AD004F160074FF4704C57F84D
:1055500026200D68C0F2FF3C02EA0C0CC0F3C1002B
:105560004A69400005F0F845824045EA0C052A43A7
:1055700042F0004247F826200A6817E70A68206EC2
:10558000206EC2F31205C0F38460002D40F0A080AD
:10559000C2F38465A84200F0EF80606E666E04F18D
:1055A0006000C6F3846604F16407AE4200F009812E
:1055B0008668866800F10807C6F38466AE4200F08C
:1055C000EF80C668C6680C30C6F38466B5427FF4C7
:1055D000EDAE026822F0004202600A68E6E60220B0
:1055E00002B0F0BC704710F080707FF426AF00214D
:1055F000C5F204018C427FF420AF916821F0E07184
:10560000314341F08071916004E74FF480724A6049
:105610004FF0000C6FF01F070425B6E60C20486021
:1056200084466FF4F837B0E61220486084466FF481
:10563000F807AAE61820486084466FF0F857A4E6F9
:10564000920E501C00F01F06092E33D8850601204B
:1056500005F0F845B04006EB46020543120541E768
:105660000021C5F204018C427FF4E7AE916821F07D
:10567000E071314340F2180041F40001C2F2000031
:105680009160026842F663519209C0F23E51A1FB5B
:1056900002129209013202EB420292000192019A37
:1056A000002A3FF4CAAE019A013A0192019A002AF7
:1056B000F9D1C2E606EB460285061E3A012005F046
:1056C000F84500FA06F61205354342F0007209E784
:1056D00092FAA2F51DB1B5FA85F5A8424CD0606EDC
:1056E000666E04F16000C6F3846604F1640792FA02
:1056F000A2F51DB1B5FA85F5AE4262D0856886681F
:1057000000F10807C6F3846692FAA2F51DB1B5FA56
:1057100085F5AE4244D0C568C6680C30C6F38466D1
:1057200092FAA2F5002D3FF441AEB5FA85F54DE7AA
:1057300092FAA2F5002D64D0B5FA85F50135AD06D3
:1057400005F0F84592FAA2F0002858D0B0FA80F09F
:10575000013000F01F00012606FA00F0054392FA1E
:10576000A2F2002A48D0B2FA82F0013000F01F0005
:1057700000EB40000205B5E6226E204622F0004212
:1057800040F8602F0A68656E666EC2F31205C6F3B4
:10579000846604F16407002DA9D1C2F3846504E78F
:1057A0003A6822F000423A600A68C568C668C2F3E7
:1057B0001205C6F384660C30002DB1D1C2F38465A6
:1057C00004E73A6822F000423A600A688568866811
:1057D000C2F31205C6F3846600F10807002D93D1C9
:1057E000C2F38465EAE64FF080655CE60022CFF6FE
:1057F000506277E6022063E64FF4401272E6022020
:10580000ACE74FF080659DE70620486084466FF462
:10581000F867BAE570B582B00022036801929A6811
:10582000D20734D499683F22C8F2000211420446DC
:1058300030D19A6822F0004222F03F024FF44071CA
:1058400042F00102C5F204019A608B681B022CD45D
:10585000FFF742FC23681A68D607054617D44FF6AF
:10586000C076C7F6FF769A68D00704D49A683240AB
:1058700042F001029A60FFF72FFC431B022B2368C2
:1058800002D91A68D10705D51A68D207EBD50020CE
:1058900002B070BD636D43F010036365A36D01201A
:1058A00043F00103A36502B070BD40F21802C2F2DA
:1058B000000242F663511368C0F23E519B09A1FBFE
:1058C00003239B09013303EB43039B000193019BDB
:1058D000002BBDD0019B013B0193019B002BF9D113
:1058E000B6E700BF38B503689D6815F0040533D1ED
:1058F00090F85030012B04462ED0012380F8503010
:10590000FFF788FF50BB636D23F4706323F001033E
:1059100043F480736365636DDA0448BFA36D226846
:1059200052BFA06523F00603A3651C21002311606C
:1059300084F85030D3689B0105D5636D23F4405340
:1059400043F480536365936823F0004323F03F03DF
:1059500043F00403936038BD022038BD84F85050F2
:1059600038BD00BFF8B503689D6815F004054AD13D
:1059700090F85030012B044645D0012380F8503078
:105980000F461646FFF746FF00283ED1636DE06CD8
:10599000216823F4706323F0010343F4807363658B
:1059A000636D13F480531CBFA36D23F00603A3653E
:1059B00045F2C523C0F60003C36245F2B52245F2A5
:1059C0003133C0F60002C0F60003026343631C22B9
:1059D00000230A6084F850304B6843F010034B609A
:1059E000CD6845F0010533463A46CD60403100F0C0
:1059F0006FF92268936823F0004323F03F0343F0DC
:105A000004039360F8BD0220F8BD84F85050F8BD3F
:105A100038B503689A68950702D59B68002038BDA1
:105A20009A68D4072CD59A6802F00D02012A044620
:105A300009D0636D43F010036365A36D43F0010368
:105A4000A365012038BD9A6822F0004222F03F028F
:105A5000032142F002029A601960FFF73DFB2368C0
:105A60009B68D90705460BD5FFF736FB401B02287C
:105A7000236802D99A68D207DBD49B68DB07F3D48A
:105A8000002038BD30B590F8503083B00022012B93
:105A900001923FD0012380F8503004460D46FFF7B5
:105AA000B7FF636DE0B923F4885323F00203226843
:105AB00043F002036365936823F0404305F080459B
:105AC00023F03F032B4343F0004393609368002B84
:105AD0000EDB636D23F0030343F00103636502E013
